:100000000C94A1080C94F40A0C94E5080C94E508EF
:100010000C94E5080C94E5080C94E5080C94E508AC
:100020000C94E5080C94E5080C94F7280C94C92965
:100030000C94AD1F0C94E5080C94E5080C94E508AD
:100040000C94E5080C94E5080C94E5080C94E5087C
:100050000C94E5080C9414200C94E5080C94E50825
:100060000C94E5080C94E5080C94E5080C94E5085C
:100070000C94E5080C94E5080C94E5080C94E5084C
:100080000C94E5080C94E5080C94E5080C94E5083C
:100090000C94E5080C94E5080C94E5080C94E5082C
:1000A0000C94E5080C94E5080C94E508180C1D0C5C
:1000B000220C2A0C320C370C520C970C970C970C14
:1000C000570C5F0C670C6C0C710C760C8E0D940D3C
:1000D000980D9B0D9F0DA30DA70DAB0DB00DB40D8D
:1000E000B80DBC0DBF0DC30DC70DCB0DCF0DD40D7D
:1000F0003716371671167116B416D61645184518E8
:100100001C174518C317C317391845184518401848
:10011000D017D017D017D017D017D017D017D017A7
:10012000D017D017D017D017D017D017D017D01797
:10013000E217F217F91700180A18D918D918EC188D
:10014000EC18E218EC18EC18EC18D918D918E818C3
:10015000EC18EC18E8182E2A552A432B552A432B65
:100160009D2AC02A432B162B252B01E301E0014FCA
:10017000024F02E002E30001E301E00150025002FD
:10018000E002E30001E30115021574FF02E374FFCE
:1001900001060206011002100107020701280228C9
:1001A00074FF01130213010C020C01110211010A68
:1001B000020A012C022C01E00119021902E00001DF
:1001C000E30115021502E301060206011002100107
:1001D0000702070128022874FF74FF010C020C01BA
:1001E000130213010602060112021201110211018B
:1001F000090209010C020C010A020A012C022C015D
:1002000038023801040204010F020F010F020F012E
:100210002802280001E30115021574FF02E374FFB0
:100220000106020601100210010702070128022838
:100230000001E0010402040106020602E00001E000
:100240000119021902E00001E00106020602E000C5
:1002500041436C6F7567685061657A404753422D22
:10026000496E63012B4973376623306E245A012B84
:10027000012800750A012B022B010C020C0111024E
:1002800011012B022B01280228012B022B012B022A
:100290002B012B022B010C020C01110211012B026C
:1002A0002B0128022800750A012B022B01120212D1
:1002B00001170217012B022B01280228012B022B08
:1002C000012B022B012B022B011D021D0115021512
:1002D000012B022B0128022800750A012B022B0199
:1002E00012021201130213012B022B012802280112
:1002F0002B022B012B022B012B022B011D021D01B6
:10030000150215012B022B01280228006970636F6A
:100310006E666967202F616C6C004D79646F67634E
:1003200033727269333500750A012702270106020C
:1003300006012B022B012B022B01040204012B02CC
:100340002B00011B021B00750A01E00117021701B7
:100350001902190128022802E0007777772E7375B9
:1003600070706F72742E7865726F782E636F6D0186
:100370002800617061657A40676F746F636F732ED8
:10038000636F6D00750A0104020401070207011082
:100390000210010C020C01110211744B012B022BF3
:1003A000011E021E011E021E011E021E011E021E51
:1003B000012802280001E3012B022B02E3002E009A
:1003C0001E001F002000210022002B0014001A0034
:1003D000090013000A002800040015001600170089
:1003E0000700E1001D001B0006001900050029613F
:1003F000E200E30050004F002A00003046004E00AB
:100400004B0000000000DD5C2A000000000000003E
:1004100000002D00270026002500240023003100C5
:1004200033001C0018000F000D00280012000C0003
:10043000080011000B0035003800370036001000AE
:100440000E003400510052004F0050002C00DE5CC2
:100450004C004A004D000000000028002C00000065
:100460000000000000002E001E001F0020002100E0
:1004700022002B0014001A000800150017002800A5
:1004800004001600070009000A00E1001D001B001F
:100490000600190005002961E200E30050004F004A
:1004A0002A00003046004E004B0000000000DD5CDA
:1004B0002A0000000000000000002D002700260098
:1004C0002500240023003100130012000C00180046
:1004D0001C00280033000F000E000D000B0035003B
:1004E000380037003600100011003400510052006F
:1004F0004F0050002C00DE5C4C004A004D00000014
:10050000000028002C0000000000000000002E0069
:100510001E001F002000210022002B0034003600A6
:10052000370013001C0029610400120008001800A5
:100530000C00E100330014000D000E001B002B45E1
:10054000E000E200E300DD5C2C00003046004E00DD
:100550004B0000000000DD5C2A00000000000000ED
:1005600000002D00270026002500240023002D0078
:100570000F00150006000A000900380016001100DF
:1005800017000B00070028401D0019001A0010007A
:1005900005004F0052005100500052002A00DE5C5E
:1005A0004C004A004D000000000028002C00000014
:1005B000000000000000005C0C300D300E30010027
:1005C0000100010001000330023001000F30010082
:1005D00006300100010001000100010001000130AE
:1005E000010001000100005C0100010001000100A8
:1005F0000100003046004E004B0000000000DD5CB2
:100600002A000000000000000000010030002F0060
:1006100001000100010001000A3001000100010099
:100620000100010001000B30520001000100010037
:1006300001004F00510050000100005C010001006A
:10064000010001000100DE5C4C004D004A0000008A
:10065000000028002C000000000000000000350011
:100660001E001F0020002100220025001E00033074
:100670001E001E001E0025001E001E001E001E0083
:100680001E0025001E001E001E001E001E00005C35
:100690001E001E001E001E000100003046004E001D
:1006A0004B0000000000DD5C2A000000000000009C
:1006B00000002D0027002600250024002300000054
:1006C00056002300220021000000000057002000F7
:1006D0001F001E0000000000000037002700270058
:1006E0000000005C00000000550054000000DE5CCB
:1006F0004C004D004A000000000028002C000000C3
:1007000000000000000045003A003B003C003D00B6
:100710003E000100200020002000200020000100F9
:1007200001005200010001000100010050005100D1
:100730004F00010001002961E200E3000357DD5C86
:100740002A00003046004E004B0000000000DD5C37
:100750002A000000000000000000440043004200A6
:10076000410040003F0001000100010001000100C4
:1007700001000100520001000100010001004F00D2
:10078000510050000100010001004F0051005000D5
:10079000340052002C00DE5C4C004D004A0000008A
:1007A000000028002C0000000000000000000000F5
:1007B0000000000000000000000000000000000039
:1007C0000000000000000000000000000000000029
:1007D0000000000000000000000000000000000019
:1007E0000000000000000000000000000000000009
:100E300000000000000000000000000000000100B1
:100E4000DA5CDB5CC15CC45CC35C0100DB5C0100A0
:100E50001D5C1E5C135C01001E001E0001000100F1
:100E60000100010001000100DA5C01000100010045
:100E7000010001000100010001000100010001006A
:100E8000010000000000010001000000000000005F
:100E900000000100005CC75CC85CC55CC65C01006A
:100EA0000100DC5CDA5CDB5C0A5C01000100010033
:100EB000010001000100010001000100010001002A
:100EC000010001000100010001000100010001001A
:100ED000010001000100000000000100010000000D
:100EE00000000000000000000000000000002A2BAD
:100EF00028000000000000000000000000000000CA
:100F00000029000000002C1E342021222434262732
:100F1000252E362D3738271E1F2021222324252653
:100F20003333362E37381F0405060708090A0B0C21
:100F30000D0E0F101112131415161718191A1B1C69
:100F40001D2F3130232D350405060708090A0B0C27
:100F50000D0E0F101112131415161718191A1B1C49
:100F60001D2F3130354C0000000000000000000053
:100F70000000000000000000000000000000000071
:100F80000000000000000001010101010100010159
:100F9000010100000000000000000000000000004F
:100FA0000100010001010101010101010101010133
:100FB0000101010101010101010101010101010121
:100FC000010000000101000000000000000000001E
:100FD0000000000000000000000000000000000011
:100FE0000001010101000403300000000E03440071
:100FF00061006300740079006C0000001603430078
:101000004800200062006F0078004D006F0064000F
:10101000730000000403090409025400030100A046
:10102000FA09040000010301010009211101000176
:101030002240000705810308000A0904010001039A
:10104000010200092111010001224D000705820360
:1010500008000A090402000103000000092111012F
:1010600000012236000705830308000A120110015F
:1010700000000008EDFE60300100010203010501DF
:101080000980A10185021601002603001A81002AA9
:101090008300751095018100C0050C0901A101852F
:1010A00003160100269C021A01002A9C0275109565
:1010B000018100C005010902A1010901A100050982
:1010C0001901290515002501950575018102950174
:1010D000750381010501093009311581257F9502CC
:1010E0007508810609381581257F950175088106E7
:1010F000050C0A38021581257F950175088106C007
:10110000C005010906A101050719E029E715002519
:10111000019508750181029501750881010508197D
:101120000129059505750191029501750391010548
:1011300007190029FF150026FF0095067508810094
:10114000C00011241FBECFEFDAE0DEBFCDBF04B672
:1011500003FE24C08091610290916202A09163021B
:10116000B09164028730904BA740B04BB9F4109215
:10117000610210926202109263021092640214BE25
:1011800084B7877F84BF88E10FB6F89480936000AE
:10119000109260000FBEE0E0F8E3099511E0A0E0D6
:1011A000B1E0EEEBF7E502C005900D92A239B10770
:1011B000D9F712E0A2E9B1E001C01D92A136B10752
:1011C000E1F70E9423260C94DD2B0C9400000C9474
:1011D0009B0C809134028360886080933402ABE67C
:1011E000B1E021E030E08D91E82FE295EF70F0E082
:1011F00041A18F70B90102C0660F771F8A95E2F78F
:10120000CB01962F9095492341A392A1982B92A3AD
:1012100071E0A237B70739F7A5E6B1E021E030E089
:101220008D91E82FE295EF70F0E041A18F70B90148
:1012300002C0660F771F8A95E2F7CB01962F909533
:10124000492341A392A1982B92A371E0AB36B70733
:1012500039F7559A209AE2E9F1E0A1EAB1E011925A
:101260001D9281E0E03AF807D1F70C945E0F2F92BF
:101270003F924F925F926F927F928F929F92AF9226
:10128000BF92CF92DF92EF92FF920F931F93CF9373
:10129000DF9380910001882319F000E010E002C084
:1012A00007E010E09BE6E92E91E0F92EA8014F55EA
:1012B0005E4F6A01EA01AA24A394B12C66246394C8
:1012C00034E0732E4E0158801882D7012D917D0194
:1012D000E22FE295EF70F0E081A12F70A50102C02E
:1012E000440F551F2A95E2F79A01842B81A382A10E
:1012F000442E4094842182A350EA5A95F1F785E662
:10130000282E81E0382E80E090E0D1015D911D0112
:10131000652F62956F7070E0DB0190966C9178811B
:101320005F70D50102C0AA0FBB1F5A95E2F76A236E
:1013300039F44A2D082E01C0440F0A94EAF701C07F
:1013400040E0472B4883019686309105F1F681A154
:10135000842181A382A1822B82A32196F401808122
:10136000581659F06092AF010E94DF1F9093B101AF
:101370008093B0018BB187258BB9F2E7EF16F1E0CE
:10138000FF0609F09FCF8091AF018823D1F08091B3
:10139000B0019091B1010E94EB1F069790F080E0A0
:1013A00090E00E561E4FF801E80FF91FD601A80F66
:1013B000B91F2C912083019687309105A1F71092D7
:1013C000AF0181E0DF91CF911F910F91FF90EF90DE
:1013D000DF90CF90BF90AF909F908F907F906F9055
:1013E0005F904F903F902F900895CF93DF9380911F
:1013F0000001882319F0C7E0D0E002C0C0E0D0E0CF
:101400000E94660B009791F420E030E0CE56DE4F4C
:10141000F901EC54FE4F4081FE01E20FF31F4083BF
:101420002F5F3F4F2730310599F702C081E090E0F0
:10143000DF91CF910895CF930E943709C82F0E9462
:10144000F509892BF9F05D989091A0019F5F909329
:10145000A0019630D0F080910001882319F047E078
:1014600050E002C040E050E020E030E04E565E4FD9
:10147000FA01E20FF31F10822F5F3F4F2730310533
:10148000B9F703C05D9A1092A0010E94600F8C2FE3
:10149000CF9108950E94370980910001882319F0A7
:1014A00020E030E002C027E030E080E090E02E56FF
:1014B0003E4FF901E80FF91F4081FC01EC54FE4F4B
:1014C0004083019687309105A1F70895E82FF0E059
:1014D000EE56FE4F808108950895E8EDF0E080819A
:1014E000806180838AE18A95F1F700C08091D900FC
:1014F000817008958EE090E00E94A72B91E0811109
:1015000001C090E0909300010E946D0A882319F0B9
:101510000E94E70A04C00E94D61F0E94EB0A78943A
:1015200008950E94E9080E944A0AFDCF0E947A0AA3
:101530000E946D0A811102C00E94910A0895509A7A
:1015400008955098589A0895589A08951F93CF93E4
:10155000DF93C82F0E949F0A18E0D0E0115088F056
:10156000CE01012E02C0959587950A94E2F780FF7F
:1015700003C00E94A40A01C0589880E88A95F1F738
:10158000EDCFDF91CF911F9108950E94A10A489B52
:10159000FECF80E88A95F1F708950E94A10A98E0AD
:1015A00080E029B12170880F822B20E82A95F1F77D
:1015B00025E02A95F1F70000915099F708950E94CF
:1015C0009F0A589880E88A95F1F70C94A40A0E9423
:1015D0009F0A0C94A40A0E94A10AE89AE9E6F0E0A6
:1015E00080818C7F808308951F920F920FB60F9297
:1015F0001124CF92DF92FF920F931F932F933F936B
:101600004F935F936F937F938F939F93AF93BF930A
:10161000EF93FF93CF93DF931F92CDB7DEB70E9476
:10162000DF0AC12CD12CF12C86010C541E4FF8017D
:1016300080810E94A60A0E94DF0AF8018081F80ECC
:10164000FFEFCF1ADF0A87E0C816D10469F78F2DA4
:101650000E94A60A0E94DF0AE0E8EA95F1F7F0E4AA
:10166000FA95F1F70E94CD0A8093B3010E94DF0A38
:101670001091B3010E94CD0A89830E94DF0A0E9463
:10168000A10A8981181721F08091B201816003C0FD
:101690008091B2018E7F8093B2010F90DF91CF9144
:1016A000FF91EF91BF91AF919F918F917F916F913A
:1016B0005F914F913F912F911F910F91FF90DF907C
:1016C000CF900F900FBE0F901F901895CF92DF9282
:1016D000FF920F931F93CF93DF931F92CDB7DEB787
:1016E000F8940E949F0A589885E08A95F1F70000C7
:1016F0000E94A10A0E94A40AE0E8EA95F1F748993D
:1017000034C00E94C50AC12CD12CF12C0E94CD0AF4
:1017100086010C541E4FF80180830E94C50AF8010F
:101720008081F80EFFEFCF1ADF0A87E0C816D104D8
:1017300069F70E94CD0A89830E94C50A8981F8123F
:1017400014C08091B3010E94A60A0E94C50A80912C
:10175000B3010E94A60A0E94C50A0E949F0A0E9425
:10176000A40A789480E090E003C0789481E090E04F
:101770000F90DF91CF911F910F91FF90DF90CF904D
:1017800008950C949A0CFC018081813019F487E44F
:1017900092E007C0823019F48EE392E002C081E348
:1017A00092E00C94771CFC018081813019F484E173
:1017B00092E007C0823019F48FEB91E002C084E818
:1017C00091E00C94771CFC018081813019F487E74B
:1017D00091E004C0823021F48AE691E00C94771CF9
:1017E0000895FC018081813029F488E30E947714F8
:1017F00088E304C081E30E94771481E30C9486158A
:10180000CF93DF93EC010E940D1FBE0180E090E0BA
:10181000DF91CF910C94071DDC01462F50E0403141
:10182000510508F084C04A5A5F4FFA010C948D2B81
:1018300012968C911297811162C012968C91129718
:10184000811160C012968C911297882319F082E75B
:1018500093E052C012968C911297882319F08AE572
:1018600093E04AC012968C91129781114EC0129645
:101870009C91129715968C91992351F0982F9295DF
:101880009F7011F080FF53C083E00E94621D4FC023
:10189000982F92959F7011F080FF3AC083E00E94CC
:1018A0007D1D45C012968C911297811134C01296FD
:1018B0008C911297882319F08AE193E01DC012964B
:1018C0008C911297882319F08CE093E015C0129642
:1018D0008C911297811122C012968C9112978111CE
:1018E00020C012968C91129781111EC012968C9175
:1018F0008823E9F080E592E00E94E90E18C085EBAC
:1019000093E0089584E893E0089587E493E00895D0
:1019100082E493E0089587E293E0089589ED92E0F0
:10192000089586EA92E0089583E792E0089580E0C2
:1019300090E0089508950895CF93FB018C3D2CE528
:10194000920701F140F48A3D2CE5920769F08B3D46
:101950009C4581F03FC08E3D2CE59207E1F0C0F040
:10196000803E9C4561F136C0C281CC23A1F181E06B
:1019700090E005C0C281CC2371F182E090E00E942A
:10198000000C23C0C281CC2331F184E090E0F7CF7A
:10199000C28183E002C0C28184E0CC2341F00E9476
:1019A000621D40E164E083E00E944C0F0EC00E9483
:1019B0007D1D40E164E083E00E944C0F0CC0C281B9
:1019C00080E1CC2321F00E94621DC0E004C00E948F
:1019D0007D1D01C0C1E08C2FCF91089581E0089555
:1019E0000C949C0C0E94C7182FEF84E39CE02150BC
:1019F00080409040E1F700C0000087E797E79093B0
:101A00000108809300080C943A200F931F93CF9302
:101A1000DF938C01FC01C081D181CE010E94EE1DBB
:101A2000BE010E946A0FEC01B8010E946712B80162
:101A3000CE010E94F00C882309F46CC1B801CE01DC
:101A40000E94A812882309F465C1B801CE010E9442
:101A5000CB11882309F45EC1C531FCE5DF0729F508
:101A60000E94A11E382FF80122818091520190918D
:101A70005301222371F03A7A21E009F420E0209307
:101A8000BB01222311F065E301C069E20E94571FE8
:101A900009C02091BB01222311F065E301C069E276
:101AA0000E94591F0E946E1E35C1C6318CE5D807B1
:101AB00008F0A3C0C130ECE5DE0759F4F8018281DB
:101AC000882309F427C18091340281608093340215
:101AD00021C1C230FCE5DF0708F478C0F80182813B
:101AE000882309F47BC00E94FA1E811102C00E9463
:101AF000E01E0E94121F90E09093530280935202C6
:101B0000FE01E350FC45E231F10520F4EA59FF4FB4
:101B10000C948D2B80915202816003C080915202FF
:101B20008260809352024BC0809152028460F9CF50
:101B30008091520213C0809152028061F2CF809155
:101B400052028062EECF809152028064EACF80918F
:101B500052028068E6CF8091520284608860E1CFB3
:101B6000809152028E7FDDCF809152028D7FD9CF3E
:101B7000809152028B7FD5CF8091520213C0809109
:101B800052028F7ECECF809152028F7DCACF80913C
:101B900052028F7BC6CF809152028F77C2CF809145
:101BA00052028B7F877FBDCF9091520297FB88278F
:101BB00080F921E0822780FB97F99093520280916F
:101BC00052020E94161F0E94C718A4C0C115DC450E
:101BD00061F081E08093C0018093C101C801DF9171
:101BE000CF911F910F910C94EE0CF8018281882304
:101BF00009F490C00E94F20C8DC0C53DECE5DE07F3
:101C000059F5F8018281882361F01092C1010E9488
:101C1000DF1F9093BF018093BE0180E20E94E71511
:101C200079C08091C101882321F080E20E94EE15E5
:101C300071C08091BE019091BF010E94EB1F863957
:101C4000910598F780E20E94EE1588E20E947714D1
:101C500088E20E9486155EC0C63DFCE5DF0708F0FD
:101C600044C0C33D8CE5D80719F5F801828188236B
:101C700051F01092C0010E94DF1F9093BD0180932C
:101C8000BC0182E0CBCF8091C00181110FC0809157
:101C9000BC019091BD010E94EB1F8639910530F483
:101CA00086E20E94771486E20E94861582E0BECF0B
:101CB000C43DDC4509F08DCFF80182818111A5CFAB
:101CC0008091C1018111B1CF8091BE019091BF017E
:101CD0000E94EB1F8639910508F0A7CF87E20E948A
:101CE000771487E20E948615A0CFC83DFCE5DF0788
:101CF00031F4F8018281882369F080E009C0C93D90
:101D0000DC4509F066CFF8018281882319F082E072
:101D10000E94BD2680E0DF91CF911F910F91089521
:101D2000CF93282F30E0F901EA51F14FC491F90126
:101D3000EA59F04F2491222359F081EE0E94771442
:101D40008C2F0E9477148C2F0E94861581EE04C080
:101D50008C2F0E9477148C2FCF910C9486150F93A3
:101D60001F93CF93DF93EC01062FFE01849188230C
:101D700059F19E012F5F3F4F813041F4E901F90194
:101D80001491812F0E947714812F0DC0823031F47D
:101D9000E901F90184910E9477140AC0833031F47B
:101DA000E901F90184910E94861502C00E94900EFB
:101DB0002196802F8823C9F2EFE9FFE03197F1F7F0
:101DC00000C000008150F6CFDF91CF911F910F919D
:101DD000089560E00C94AF0E4F925F926F927F92E5
:101DE0008F929F92AF92BF92CF92DF92EF92FF922B
:101DF0000F931F932B013C01C12CD12C7601C3946E
:101E0000D701C60104C0880F991FAA1FBB1F4A959E
:101E1000D2F7AC01BD014601570104C0880C991CE2
:101E2000AA1CBB1C2A95D2F7482959296A297B2963
:101E3000D701C60104C0880F991FAA1FBB1F0A95AE
:101E4000D2F76A017B01C420D520E620F720C41612
:101E5000D506E606F70639F4BC01CD0164297529DB
:101E6000862997290AC0BC01CD016095709580959F
:101E7000909564217521862197211F910F91FF90E4
:101E8000EF90DF90CF90BF90AF909F908F907F901A
:101E90006F905F904F9008950F93382F262F609189
:101EA0001F02709120028091210290912202042F42
:101EB000432F0E94EC0E0F910C94421D0C94C10B09
:101EC0000E94FF120C94E70808950C94640F0C9480
:101ED000650F089596E0799FF001112494E5899F9C
:101EE000E00DF11D1124E60FF11DEE0FFF1FE2546E
:101EF000FC4F859194910895880F991F8A51904FB6
:101F0000FC01859194910895CF93DF930E946A0F0D
:101F10000E942B11EC01811520E5920708F040C0CA
:101F2000811530E4930708F01BC1883E910508F540
:101F3000803E910508F08BC1883A910578F4853A86
:101F4000910508F09DC08130910509F480C108F425
:101F500037C18430910508F07AC132C18D3B9105BB
:101F600008F499C0803C910508F42AC1805C91096D
:101F7000E9C0C11580E2D80758F4C11591E0D9072E
:101F800008F065C1C03FD10508F41AC1D0655FC132
:101F9000C11520E3D20708F0D9C0CE019F70D2C08E
:101FA000811535E5930708F043C0C11584E5D807CE
:101FB00008F0EDC0C11592E5D90708F5C11521E576
:101FC000D20708F0D0C02C2F237081E090E002C02F
:101FD000880F991F2A95E2F79C689E01E4E03695E8
:101FE0002795EA95E1F72370922BCF70C695C69599
:101FF00030E2C39FE0011124C82BD92B28C18C2FBC
:10200000869586959E0123703327C115D34508F028
:10201000AFC090E2899FE001112481E090E002C00E
:10202000880F991F2A95E2F7C82BD92BDC680FC1BE
:10203000811529E5920780F4811538E5930708F0AA
:10204000ABC0C11586E5D80708F0BAC0CF71DD274F
:10205000DC2FCC27D062FBC0C1159AE5D90708F464
:10206000A0C0CE0190568115904208F0A9C08D2FD6
:102070008F710E94A711DD27D0628F71D82BE7C026
:10208000853A910509F49FC0863A910509F49EC0EE
:10209000C3E8D0E4DCC0883A910509F49AC0893AD3
:1020A000910509F499C08A3A910509F498C08B3AD0
:1020B000910509F497C08C3A910509F496C08B3BC1
:1020C000910509F495C08C3B910509F494C08D3AB3
:1020D000910509F493C0803B910509F492C08E3AB2
:1020E000910509F491C08F3A910509F490C0813BA4
:1020F000910509F48FC0823B910509F48EC0833BA2
:10210000910509F48DC0843B910509F48CC0853B91
:10211000910509F48BC0863B910509F48AC0873B81
:10212000910509F489C0883B910509F488C0893B71
:10213000910509F487C08A3B910509F086C0CAE27F
:10214000D6E485C00E947C0FEC0181C0CE019927A6
:10215000D3FF03C0EC01D86C7AC0EC01D06C77C01F
:10216000DF70D06A74C0DC2FCC27C16FD06A6FC01B
:1021700090E2899FE001112481E090E002C0880F85
:10218000991F2A95E2F7C82BD92BDA6860C0DC2F9B
:10219000CC27C46FD06A5BC0D82FCC27C06FD06A61
:1021A00056C08C2F8F70806E90E0906A34E0D69588
:1021B000C7953A95E1F7CF709C013C2BE90147C0E8
:1021C000C0E0D0E044C0C1E8D0E441C0C2E8D0E4FF
:1021D0003EC0C2EED4E43BC0C9EED4E438C0CAEE7F
:1021E000D4E435C0C5EBD4E432C0C6EBD4E42FC090
:1021F000C3EBD4E42CC0C4EBD4E429C0C7EBD4E4D3
:1022000026C0CCECD4E423C0CDECD4E420C0C3E899
:10221000D5E41DC0CAE8D5E41AC0C2E9D5E417C0A8
:10222000C4E9D5E414C0C1E2D6E411C0C3E2D6E4E7
:102230000EC0C4E2D6E40BC0C5E2D6E408C0C6E2D4
:10224000D6E405C0C7E2D6E402C0C0E0D4E4CE01C3
:10225000DF91CF9108958238910549F1B0F481332F
:10226000910509F459C048F48932910509F44FC029
:102270008A32910509F455C008958533910509F412
:1022800041C08933910599F00895833E910531F15C
:1022900038F4803E910591F0823E9105A9F00895B1
:1022A000863E910501F1873E910539F1089520910F
:1022B000520220FD3BC021FD39C008958091520299
:1022C00080FF34C089E341C08091520282FF32C056
:1022D0008091520284FF2CC080E037C0809152026E
:1022E00082FD28C0F5CF8091520283FF25C08091E6
:1022F000520284FDF1CF87EE28C08091520283FD07
:102300001BC0F5CF8091520285FF18C019C0809183
:10231000520285FF15C012C08091520286FF12C082
:1023200013C08091520286FF0FC00CC080EE0DC01A
:1023300083EE0BC082EE09C086EE07C085E305C0C0
:1023400089E203C081E301C08AE290E008959091A0
:10235000520292FF0DC0282F2871283019F4877F70
:10236000846006C0282F2471243011F48B7F88608C
:1023700093FF0DC0282F2871283119F4877E8461BE
:1023800006C0282F2471243111F48B7E886194FDBE
:10239000877E08950895CF93DF93EC01FB0182813E
:1023A000811102C081E040C08091CF01811125C020
:1023B000C631DC45B9F70E94CA1181E08093CF0194
:1023C0000E94DF1F9093CE018093CD011092C20135
:1023D0001092C4011092C3011092C6011092C5015F
:1023E0001092C8011092C7011092CA011092C9013F
:1023F0001092CC011092CB0116C08091CD0190912A
:10240000CE010E94EB1F8C32914060F68091C20198
:10241000E82FF0E0EE0FFF1FED53FE4FD183C08396
:102420008F5F8093C20180E0DF91CF910895CF93B9
:10243000DF93EC018F85811115C081E08F878F813B
:102440000E94A41E88850E94B71E0E946E1EEA810B
:10245000FB816A897B89CE010696309719F0DF915E
:10246000CF910994DF91CF9108950F931F93CF934C
:10247000DF938C01FC018085811124C083819481CC
:10248000975524E1289FE001299FD00D1124CF5FAB
:10249000DE4FEC81FD816A897B89CE0106963097FB
:1024A00009F009958F810E94AA1E88850E94BD1E91
:1024B0000E946E1EF8011082178211861092D101BF
:1024C0001092D001DF91CF911F910F910895DF926B
:1024D000EF92FF920F931F93CF93DF937C01FB0149
:1024E0008281882369F1809151018F3F49F1C7E0D2
:1024F000D1E000E010E0DD24D394809151019927D0
:1025000087FD909580179107DCF0CE010697288112
:10251000222391F02B813C81E216F30639F42091BD
:10252000D0013091D101E216F30631F0DF820E9432
:102530001712CE010E9435120F5F1F4F6496DDCF38
:10254000DF91CF911F910F91FF90EF90DF90089551
:10255000FF920F931F93CF93DF938C019C0137550C
:102560002F3F310511F008F043C0809151019927A8
:1025700087FD90958217930714F42093510184E10D
:10258000829FE001839FD00D1124CF5FDE4FFB01BE
:1025900082818E8792818E81992309F11A8709871A
:1025A0008F5F8E830E94DF1F9C878B870E94DD1EBA
:1025B0008F830E94A11EF82E88870E94B41E8F2947
:1025C0008887E881F9816A897B89CE0106963097F0
:1025D00009F009951093D1010093D00109C0882317
:1025E00039F08F85882321F0CE0106960E9435129E
:1025F00081E0DF91CF911F910F91FF900895EF92AD
:10260000FF920F931F93CF93DF93809151018F3FE0
:1026100071F1F12C84E1E82E8F2D90E02091510191
:10262000332727FD3095281739070CF1E89EE00184
:10263000E99ED00D1124CF5FDE4F0889198901155D
:10264000110511F406E910E08E81882371F08B8565
:102650009C850E94EB1F0817190738F4CE010E94D1
:102660001712CE0106960E943512F394D5CFDF9152
:10267000CF911F910F91FF90EF9008959093D70104
:102680008093D6010895E091D601F091D70130975B
:1026900021F00190F081E02D099480E00895E0910F
:1026A000D601F091D701309721F00280F381E02D1F
:1026B00009940895E091D601F091D701309721F067
:1026C0000480F581E02D099408952091D401309182
:1026D000D5018217930771F09093D5018093D401AF
:1026E000E091D601F091D701309721F00680F78173
:1026F000E02D099408952091D2013091D3018217E1
:10270000930771F09093D3018093D201E091D601A9
:10271000F091D701309721F00084F185E02D0994E4
:1027200008950C94960A81E008950E94D61F0E9495
:10273000E9080C944C20CF92DF92EF92FF920F9316
:102740001F93CF93DF93CDB7DEB72B970FB6F894D7
:10275000DEBF0FBECDBF0E941B0A0E9493138111E2
:1027600011C08FEF89838A831B820E94DF1F8160E3
:10277000782F9D838C8349815A816B818D810E9442
:10278000431456C039EDE32E31E0F32E00E010E0A3
:10279000C02E802F0E94660AF701D1907F01D826B3
:1027A00031F40F5F1F4F0E30110591F7DACF909182
:1027B000340291FF04C08B870E946C0A8B8520E055
:1027C00030E04D2D50E0922FBA01022E02C07595D7
:1027D00067950A94E2F760FF25C02E83CF82EE242E
:1027E000E394F12C02C0EE0CFF1C9A95E2F790E006
:1027F0008E219F2121E0892B09F420E028870E9467
:10280000DF1F8160782F9A8789874E815F81688575
:102810008A850E944314F801E752FE4F80818E257D
:10282000808306C02F5F3F4F2630310561F6B9CF58
:102830000E94DE211091D8010E9443131817A1F0C5
:102840000E9443138093D8012B960FB6F894DEBFF5
:102850000FBECDBFDF91CF911F910F91FF90EF90F1
:10286000DF90CF900C94670F2B960FB6F894DEBFD5
:102870000FBECDBFDF91CF911F910F91FF90EF90D1
:10288000DF90CF900895CF93DF93CDB7DEB72B972E
:102890000FB6F894DEBF0FBECDBF4F835887698750
:1028A0007A878B87DE01119686E0FD0111928A9569
:1028B000E9F785E0FE01379601900D928A95E1F7E0
:1028C00049815A816B817C818D819E810E94CA1BC6
:1028D0002B960FB6F894DEBF0FBECDBFDF91CF9120
:1028E0000895FC01808191810E942E1E0895CF934E
:1028F000DF931F92CDB7DEB7682F882309F402C19A
:102900008238C1F40E94431381FDFCC069E38091C9
:102910005201909153010E94571F0E946E1E2FEF8B
:1029200081EE94E0215080409040E1F700C000002B
:1029300069E319C0833811F50E94431380FDE2C09A
:1029400063E580915201909153010E94571F0E94AC
:102950006E1EEFEFF1EE24E0E150F0402040E1F791
:1029600000C0000063E580915201909153010E94E4
:10297000591F0F90DF91CF910C946E1E8438C1F4D3
:102980000E94431382FDBEC067E480915201909182
:1029900053010E94571F0E946E1E8FEF91EEE4E0DC
:1029A00081509040E040E1F700C0000067E4DBCFD9
:1029B0008CEF860F813A70F4862F69830E94EA2398
:1029C000698181119FC080915201909153010E94B1
:1029D000571FCFCF80E2860F883048F4677081E0C0
:1029E00001C0880F6A95EAF70E94A41EC2CF8BE54A
:1029F000860F833088F4653A29F0663A31F482E82C
:102A000090E005C081E890E002C083E890E00F907C
:102A1000DF91CF910C94651388E5860F853108F01E
:102A200071C0683A61F1693A69F16A3A71F16B3AD9
:102A300079F16C3A81F16B3B89F16C3B91F16D3A24
:102A400099F1603BA1F16E3AA9F16F3AB1F1613BA6
:102A5000B9F1623BC1F1633BC9F1643BD1F1653B24
:102A6000D9F1663BE1F1673BE9F1683BF1F1693B84
:102A7000F9F16A3B09F03FC08AE292E03EC082EE83
:102A800090E03BC089EE90E038C08AEE90E035C01F
:102A900085EB90E032C086EB90E02FC083EB90E0B6
:102AA0002CC084EB90E029C087EB90E026C08CEC32
:102AB00090E023C08DEC90E020C083E891E01DC041
:102AC0008AE891E01AC082E991E017C084E991E0B8
:102AD00014C081E292E011C083E292E00EC084E271
:102AE00092E00BC085E292E008C086E292E005C069
:102AF00087E292E002C080E090E00F90DF91CF91FA
:102B00000C947B130F90DF91CF910895882309F4E3
:102B10005DC0823879F40E94431381FF57C069E396
:102B200080915201909153010E94571F0E946E1E86
:102B300069E310C08338B1F40E94431380FF46C09C
:102B400063E580915201909153010E94571F0E94AA
:102B50006E1E63E580915201909153010E94591FAE
:102B60000C946E1E843879F40E94431382FF2EC0A9
:102B700067E480915201909153010E94571F0E9477
:102B80006E1E67E4E7CF9CEF980F913A10F4682F20
:102B9000E1CF90E2980F983050F4877091E001C037
:102BA000990F8A95EAF7892F0E94AA1ED9CF9BE533
:102BB000980F933020F480E090E00C946513885ACD
:102BC000853120F480E090E00C947B1308958823F5
:102BD00021F00E94A41E0C946E1E0895882321F0FB
:102BE0000E94AA1E0C946E1E08958F929F92BF920F
:102BF000CF92DF92EF92FF920F931F93CF93DF93C9
:102C000000D0CDB7DEB74C01472FFC01C580C29480
:102C10009FE0C922D280DD2031F079836A830E944F
:102C2000C41E6A81498149836A830E94671E498163
:102C30006A81882389F0DD2079F080E2860F883070
:102C400058F082E00E94501E0E94671EBB24B3947D
:102C5000B82649816A8101C0B12CE42EE2948FE04C
:102C6000E822F12CF701E858FF4F0C948D2B842FAC
:102C7000807F142F1F70882311F01295107FDD20A4
:102C8000C1F0112309F4E0C180E2860F883010F012
:102C9000611105C0812F6A830E94A41E04C0812F88
:102CA0006A830E94B71E6A816A830E946E1E6A81CF
:102CB000CBC1862F6A830E9486156A81112309F48D
:102CC000E4C180E2860F883010F0611104C0812FCA
:102CD0000E94AA1E03C0812F0E94BD1E0E946E1E6C
:102CE000D4C1842F807F142F1F70803211F0129571
:102CF000107F662319F06130D9F026C0DD2079F00D
:102D0000CC2049F0F1E0CF1206C00E94DD1E812BDD
:102D10000E94D71EBAC10E94DD1E812B4AC1CC2061
:102D200021F021E0C21609F4B0C10E94DA1E46C1AA
:102D3000DD2029F085E08C1508F4A7C139C194E0A5
:102D40009C1508F4A2C13AC1DD2051F0CC2009F451
:102D50002FC1F401858180FF77C18F70858328C1E1
:102D6000CC2009F42BC181C1242F269526952370F0
:102D700030E02115310521F02130310561F085C1A8
:102D8000DD2021F0862F942F937002C080E090E028
:102D90000E9465138AC1DD2021F0862F942F937045
:102DA00002C080E090E00E947B137FC1DD20F9F03B
:102DB000653F51F0663F71F0643FA9F480914C0289
:102DC00090914D0281600BC080914C0290914D0218
:102DD000826005C080914C0290914D028460909376
:102DE0004D0280934C02862F0E94E62022C0653F50
:102DF00051F0663F91F0643FC9F480914C0290918C
:102E00004D028E7F05C080914C0290914D028D7FC6
:102E100090934D0280934C0209C020914C02309156
:102E20004D022B7F30934D0220934C02862F0E943F
:102E30004E210E94D32139C1842F837009F04EC0E6
:102E4000D1102FC1262F229526952770220F220FF1
:102E5000862F8F70C82ED12CE12CF12C022E04C0AD
:102E6000CC0CDD1CEE1CFF1C0A94D2F764FF10C0D2
:102E70006FE070E080E090E004C0660F771F881F6D
:102E8000991F2A95D2F7609570958095909503C00B
:102E900060E070E0CB01242F26952695237030E06A
:102EA0002230310569F02330310589F06C297D2904
:102EB0008E299F292130310571F00E941B1DF1C020
:102EC0006C297D298E299F290E942D1DEAC00E9410
:102ED0001B1DC701B6010E94091DE3C0DD2019F0CA
:102EE000842F817001C08695882309F4DAC0262FCB
:102EF000229526952770220F220F862F8F70C82EBD
:102F0000D12CE12CF12C022E04C0CC0CDD1CEE1CCB
:102F1000FF1C0A94D2F764FF10C06FE070E080E0FD
:102F200090E004C0660F771F881F991F2A95D2F77B
:102F3000609570958095909503C060E070E0CB013E
:102F4000242F26952695237030E02230310569F034
:102F50002330310589F06C297D298E299F29213064
:102F6000310571F00E94C91D9CC06C297D298E29F4
:102F70009F290E94DB1D95C00E94C91DC701B60193
:102F80000E94B71D8EC0062F10E0F801E05EF10927
:102F9000E531F10508F054C0E857FF4F0C948D2B34
:102FA000162F1F70842F8F71DD2031F00E94621D5B
:102FB000812F0E94E71569C00E947D1D812F0E940C
:102FC000EE1563C0DD2049F0F4E0FC1508F45DC0A7
:102FD000842F8F710E949C1D58C025E02C1508F489
:102FE00054C0F6CFDD2039F0842F8F710E94621D0E
:102FF0004CC0DD20C9F3842F8F710E947D1D45C018
:10300000DD2029F0842F8F710E94531D3EC00E9445
:103010004E1D3BC0DD2051F0142F1F71812F0E94E7
:10302000621D63E0812F0E94471E2FC081E00E9435
:10303000501E81E08C1548F582E00E94501E25C08C
:10304000DD2031F0CC2081F2862F0E9477141DC044
:10305000CC2089F2693349F49FEFE7EEF3E0915019
:10306000E040F040E1F700C00000862F0E94861586
:103070000CC04F70C4010E940C0C0E94771C15C03C
:103080004F70C4010E94690F10C028E0E216F104DD
:1030900041F05CF09AE0E91AF108E2E0EE16F10482
:1030A00020F40E9443130E94670FBB20F1F00E949E
:1030B000431E80FD1AC0F40112820E943D1E0E9430
:1030C000621DC4010E9483180E943D1E0F900F9044
:1030D000DF91CF911F910F91FF90EF90DF90CF90F4
:1030E000BF909F908F900C947D1D0F900F90DF915B
:1030F000CF911F910F91FF90EF90DF90CF90BF90F5
:103100009F908F9008950F931F93CF93DF93EC01BF
:10311000288139818B819C81892B31F03F3F11F0CF
:1031200080E003C02F3FE1F781E0811113C0CE01A1
:103130000E94050D882371F0688179818A810E943F
:10314000391E8C010E94ED1D0E94061DB801CE01A2
:103150000E94F515DF91CF911F910F9108950E9464
:10316000C41E0E94D41E80915201909153010E946E
:103170005B1F0E946E1E0E9467220E94D32180E086
:1031800090E00E94651380E090E00C947B130E9415
:10319000B11E0C94AF180E942E1EE92FE295EF701D
:1031A000F0E03297EE30F105B8F4E356FF4F0C949F
:1031B0008D2B803F59F018F4803E70F407C0843F97
:1031C00059F404C0803E10F0813F31F481E008954D
:1031D00093FB882780F9089580E00895CF93DF93CB
:1031E00000D000D01F92CDB7DEB70F900F900F9098
:1031F0000F900F90DF91CF910895CF93DF9300D080
:1032000000D000D0CDB7DEB726960FB6F894DEBF5B
:103210000FBECDBFDF91CF9108951F93CF93DF9362
:10322000C091E70116E08091E801C81799F0D0E05D
:103230001C9FF0011D9FF00D1124E751FE4F4081AE
:10324000518162817381848195810E94FD1821964C
:10325000C770E9CFDF91CF911F9108954091190276
:1032600050911A0260911B0270911C0280911D0204
:1032700090911E020C94FD182091E7019091E801B5
:1032800056E02917A9F030E0529FF001539FF00D4E
:103290001124E751FE4F7181671306C070818713B7
:1032A00003C07281471306C02F5F3F4F2770E9CFDD
:1032B00080E0089581E00895CF9380911E02829569
:1032C0008F7009F05FC080911B02882309F45AC0F7
:1032D0002091E701A091E8016091190270911A0212
:1032E00080911C0290911D0231E06F3F09F030E0A7
:1032F000B32FC6E02A1709F445C0009721F07F3F9D
:1033000021F44B2F03C041E001C040E030E040FD1C
:1033100035C0C29FF001C39FF00D1124E751FE4F4D
:10332000418174132BC04081641328C04281411134
:1033300025C0438154814817590710F44150510961
:10334000481B590B46395105C8F480911E028F70F5
:10335000806180931E0286E0829FF001839FF00DC2
:103360001124E251FE4F80818F708061808389E15A
:1033700092E00E948318CF910C940D192F5F3F4F5C
:103380002770B8CFCF910895BF92CF92DF92EF927E
:10339000FF920F931F93CF93DF93CDB7DEB7629762
:1033A0000FB6F894DEBF0FBECDBF8C0185E0F801EB
:1033B000DE011D9601900D928A95E1F7D801CC901F
:1033C00011965C9111971296BC9012971396ED90FE
:1033D000FC9014978091190290911A0220911C027E
:1033E00030911D022115310531F09F3F31F441E04C
:1033F0008F3F19F403C041E001C040E040FD9CC193
:10340000D0901B02DD2009F424C140911E02E21677
:10341000F30628F0F701E21BF30B9F0104C020958F
:1034200030952E0D3F1D2639310508F0C5C0242FDB
:10343000207F09F087C0951315C08C1113C0DB2CB9
:10344000B11010C04F70406140931E020E942E19AF
:1034500089E192E00E94831880911E02D80115969E
:103460008C9387C1E114F10439F05F3F39F481E0B6
:10347000BFEFCB1203C003C081E001C080E080FD3C
:1034800003C081E08B2501C080E080FF09C04B2D87
:10349000652F8C2D5A8B0E943C195A89811197C037
:1034A000EF2839F05F3F39F481E0BFEFCB1203C062
:1034B00003C081E001C080E080FD03C081E08B2576
:1034C00001C080E0E82FE170FE2E80FF31C04B2D5F
:1034D000652F8C2D5A8B0E943C19D82E5A89811148
:1034E00027C0CD865E878D859E850E942E1E292F42
:1034F00022952F7030E02230310524F02430310540
:1035000034F011C09F7059F0811109C032C19F7011
:1035100031F0D80115969C91907F09F42AC1805E04
:10352000883008F426C1C8010E948318DF2C21C10D
:10353000DB2CBB2009F41DC180911E0281608093A9
:103540001E0252C0951307C08C1105C0B11003C0F4
:10355000F8014583ABC0CD865E878D859E850E9430
:10356000CB18882319F1DB2CBB2001F120911E021E
:10357000822F82958F7090E002970CF461C0809149
:10358000190290911A0298878F831986FB86EA8622
:103590002C87CE01079652C0951741F1CD865E87E4
:1035A0008D859E850E94CB18811131C0C8010E9473
:1035B0008318DD24D394DDC0242F207F69F77E2D6E
:1035C000F98AE88A4C2D6B2D89890E94EE1889E1D1
:1035D00092E00E948318E9E1F2E086E0DF011D92AB
:1035E0008A95E9F70E942E19D12CC3C08C11D6CF31
:1035F000B110D4CFF8014583C8010E948318E9E1D6
:10360000F2E086E0DF011D928A95E9F7B2C0DB2C7B
:10361000BB2061F220911E02822F82958F7090E074
:10362000029774F08091190290911A029A8389830B
:103630001B82FD82EC822E83CE0101960E948318AC
:1036400086E0F801A9E1B2E001900D928A95E1F7D8
:103650008CC0E216F30628F0F701E21BF30B9F0182
:1036600004C0209530952E0D3F1D2639310508F0F8
:1036700053C0DB2CBB2009F499CF95132CC08C11BF
:103680002AC080911E0280FD1DC0982F92959F70C8
:10369000C9F0D80115968C9315979F3039F09F5F2C
:1036A0009295907F8F70892B15968C93C8010E94FC
:1036B000831886E0F801A9E1B2E001900D928A95A5
:1036C000E1F755C086E0F801A9E1B2E001900D9262
:1036D0008A95E1F74EC0CD865E878D859E850E94D6
:1036E000CB18882381F096E0F801A9E1B2E00190BF
:1036F0000D929A95E1F78A8B0E945C190E942E190F
:103700008A89D82E36C080911E02816080931E0265
:10371000C8010E9483182DC07E2DF98AE88A4C2D9D
:103720006B2D89890E94EE18E9E1F2E086E0DF0165
:103730001D928A95E9F71BC0BB2009F437CFCD86CF
:103740005E878D859E850E94CB18D82E882309F42C
:103750002DCF86E0F801A9E1B2E001900D928A95A3
:10376000E1F789E192E00E9471140E945C190E94C5
:103770002E198D2D62960FB6F894DEBF0FBECDBF09
:10378000DF91CF911F910F91FF90EF90DF90CF903D
:10379000BF9008951F93CF93DF93CDB7DEB72C97DB
:1037A0000FB6F894DEBF0FBECDBF4F835887698731
:1037B0007A878B879C87CE0107960E94C41988233D
:1037C000C1F02F8138858A859B85892B31F03F3F59
:1037D00011F080E003C02F3FE1F781E0811147C085
:1037E0004F81588569857A858B859C850E94FD1857
:1037F0003EC086E0FE013796DE01119601900D92E3
:103800008A95E1F7FF81E8854A855B854115510579
:1038100031F0EF3F31F481E0FF3F19F403C081E064
:1038200001C080E080FD23C02091E80130E0C901A3
:103830000196877099276091E70170E086179707D6
:10384000F1F1F983EA835D834C8396E0929FD00186
:10385000939FB00D1124A751BE4FFE0131960190E8
:103860000D929A95E1F78093E8010E940D1916E0F8
:103870008091E7019091E801891779F1189FC001C3
:10388000112487519E4F0E94C419882331F1E09181
:10389000E7011E9FF0011124E751FE4F4081518145
:1038A00062817381848195810E94FD188091E70176
:1038B00090E00196877099278093E701D9CF0E9405
:1038C000C7181092E8011092E701E9E1F2E086E002
:1038D000DF011D928A95E9F7CACF2C960FB6F894AE
:1038E000DEBF0FBECDBFDF91CF911F910895EF9244
:1038F000FF920F931F93CF93DF939C01009709F4DE
:1039000071C0F12CEE24E394E9012196F901849130
:10391000843740F4843008F056C0813081F0823022
:1039200021F160C0853709F449C0C0F19CE7980FC8
:10393000903708F057C08F770E94861546C08901DE
:103940000E5F1F4FFE01849190E2980F983050F463
:103950008770FE2D01C0FF0F8A95EAF78F2F0E9416
:10396000C71E15C00E94771414C089010E5F1F4F37
:10397000FE01849190E2980F983068F48770FE2DD4
:1039800001C0FF0F8A95EAF78F2F0E94CD1E0E947B
:103990006E1EE8011AC00E948615FBCF2E5F3F4FB6
:1039A000FE01C491CC2341F08FE99FE00197F1F72C
:1039B00000C00000C150F6CFE90107C0FE01F4903D
:1039C000E901229602C00E9477148F2D882341F0CE
:1039D000EFE9FFE03197F1F700C000008150F6CF2A
:1039E0009E0192CFDF91CF911F910F91FF90EF90A9
:1039F000089508950E94F91C609323027093240295
:103A000080932502909326020C94AF1808950C948D
:103A1000FA1C0F931F93009123021091240220910E
:103A2000250230912602602B712B822B932B1F9144
:103A30000F910C94FA1C0F931F9300912302109185
:103A400024022091250230912602602371238223D3
:103A500093231F910F910C94FA1C0F931F930091C5
:103A60002302109124022091250230912602602722
:103A70007127822793271F910F910C94FA1C0895A8
:103A80000C943F1D0E94401D60931F027093200202
:103A900080932102909322020C94AF1860E070E0B2
:103AA000CB010C94421D41E050E060E070E004C0A6
:103AB000440F551F661F771F8A95D2F7CB01BA01B5
:103AC0000C94421D41E050E060E070E004C0440FFF
:103AD000551F661F771F8A95D2F780911F0290911C
:103AE0002002A0912102B0912202482B592B6A2B6F
:103AF0007B2BCB01BA010C94421D41E050E060E009
:103B000070E004C0440F551F661F771F8A95D2F7D7
:103B1000409550956095709580911F02909120027C
:103B2000A0912102B0912202482359236A237B23CA
:103B3000CB01BA010C94421D41E050E060E070E01E
:103B400004C0440F551F661F771F8A95D2F78091D6
:103B50001F0290912002A0912102B09122024827D9
:103B600059276A277B27CB01BA010C94421D0F937A
:103B70001F9300911F021091200220912102309189
:103B80002202602B712B822B932B1F910F910C948F
:103B9000421D0F931F9300911F021091200220914C
:103BA00021023091220260237123822393231F91EB
:103BB0000F910C94421D0F931F9300911F021091BF
:103BC0002002209121023091220260277127822752
:103BD00093271F910F910C94421D0895CF92DF926D
:103BE000EF92FF920F931F93CF93DF93EC01C0905E
:103BF0002302D0902402E0902502F09026028091CA
:103C00001F0290912002A0912102B0912202C82AA5
:103C1000D92AEA2AFB2A0FE110E0B701A601002EFB
:103C200004C076956795579547950A94D2F740FD5D
:103C300005C00150110988F780E007C0BE01802F40
:103C40000E94840F0197A9F3802FDF91CF911F91DC
:103C50000F91FF90EF90DF90CF900895CF93DF9377
:103C6000EC010E94EE1DBE010E94840FDF91CF91F6
:103C70000895CB010E942E1E0895809127028595FC
:103C8000859585950895809127028770089598E01D
:103C9000899F90011124622B609327020C94621D6E
:103CA000409127028095842380932702982F977054
:103CB00069F450E0282F332727FD3095421753072A
:103CC00029F08595859585950C947D1D0895909195
:103CD0002702977081E009F480E00895E091520195
:103CE000F0915301809133028083E0915201F09171
:103CF0005301808190913202892B8083E09152019F
:103D0000F0915301808190913102892B80839091B1
:103D10002802992381F0E0915201F09153018081B2
:103D2000892B808380915201909153010E941B1F27
:103D300081111092280280915201909153010C94AC
:103D40004F1380913302089590913302982B9093F2
:103D50003302089580959091330298239093330213
:103D6000089510923302089580913202089590913F
:103D70003202982B909332020895809590913202EE
:103D800098239093320208951092320208959091F0
:103D90003102982B909331020895809590913102D1
:103DA00098239093310208951092310208958093E0
:103DB00028020895109228020895809128020895FB
:103DC0006DEE7EEF80E090E00E94C72B60E082E025
:103DD00090E00E94B52B60E083E090E00E94B52B5C
:103DE00060E084E090E00E94B52B60E085E090E028
:103DF0000C94B52B80E090E00E94AF2B21E08D3E2B
:103E00009E4F09F020E0822F089582E090E00C940C
:103E1000A72B83E090E00C94A72B682F83E090E021
:103E20000C94B52B84E090E00C94A72B682F84E0D1
:103E300090E00C94B52B20E030E040E0FC01E20F74
:103E4000F31F518151114F5F2F5F3F4F27303105D5
:103E5000A9F7842F089520E030E04FEFFC01E20F36
:103E6000F31F5281561799F04F3F19F4511101C0B9
:103E7000422F2F5F3F4F2630310581F74F3F39F0FA
:103E8000FC01E40FF11D47FDFA9562830895089542
:103E900020E030E0FC01E20FF31F4281461301C035
:103EA00012822F5F3F4F26303105A1F708950C9401
:103EB0002B1F0C94481F20E030E0FC01E20FF31FA1
:103EC00011822F5F3F4F27303105B9F70895809158
:103ED0005802843021F11092350220E488E190E00C
:103EE0000FB6F894A895809360000FBE20936000F1
:103EF00080E00E94670F83B7817F846083BF83B7B0
:103F0000816083BF7894889583B78E7F83BF88E173
:103F10000FB6F89480936000109260000FBE089571
:103F200008950895CF930E94901F0E941B0A0E943B
:103F3000911FC0E08C2F0E94660A811105C0CF5FDF
:103F4000CE30C1F780E001C081E0CF9108950E949A
:103F5000C7180E9443130C94670F1F920F920FB65D
:103F60000F9211248F939F93AF93BF93809135024B
:103F7000811113C080914E0290914F02A091500286
:103F8000B09151024196A11DB11D80934E029093B4
:103F90004F02A0935002B0935102BF91AF919F91F5
:103FA0008F910F900FBE0F901F90189582E084BDE7
:103FB00093E095BD9AEF97BD80936E0008952FB75B
:103FC000F89480914E0290914F02A0915002B091CE
:103FD00051022FBF0895CF92DF92EF92FF920F937D
:103FE0001F932FB7F89440914E0250914F02609169
:103FF0005002709151022FBF6A017B01EE24FF2411
:104000008C0120E030E0C016D106E206F30610F481
:1040100041505109481B590BCA011F910F91FF9044
:10402000EF90DF90CF90089578941F920F920FB683
:104030000F9211248F939F93AF93BF9380914E0261
:1040400090914F02A0915002B09151020196A11D92
:10405000B11D80934E0290934F02A0935002B093F3
:104060005102BF91AF919F918F910F900FBE0F9012
:104070001F90189587E797E79093010880930008B1
:104080002AE088E190E00FB6F894A895809360004C
:104090000FBE20936000FFCF0E94FA1E811102C064
:1040A0000E94E01E0E94051F809334020E94121F8E
:1040B00090E090935302809352020E94091F682F50
:1040C00070E080E090E00C94071D8091380280FF42
:1040D0000BC06091570185E0689FB0011124759570
:1040E0006795759567952AC081FF09C06091570152
:1040F00085E0689FB0011124759567951FC082FF08
:1041000007C06091570185E0689FB001112416C077
:10411000409139024423C9F060915601461788F74F
:104120002091570185E0289F90011124429FC001F2
:10413000439F900D112470E00E94792B6038710527
:1041400040F46115710539F002C065E070E0862F1A
:1041500008958FE7089581E008958091380280FFE7
:1041600008C06091550170E07595679575956795E4
:1041700021C081FF06C06091550170E0759567957B
:1041800019C082FF04C06091550170E010C0809199
:1041900039028823C1F0609154018617A0F79091ED
:1041A0005501989FC001112470E00E94792B60385E
:1041B000710528F46115710521F0862F08958FE7A8
:1041C000089581E0089561E070E0F4CF803F21F42C
:1041D0000E946520819504C0813F29F40E946520DA
:1041E00080933C020895823F21F40E9465208195CE
:1041F00004C0833F29F40E94652080933B02089508
:10420000893F19F40E94AD2005C08A3F31F40E9415
:10421000AD20819580933D0208958B3F21F40E944B
:10422000AD20819504C08C3F29F40E94AD2080937D
:104230003E020895843F21F480913A02816017C0C4
:10424000853F21F480913A02826011C0863F21F4BB
:1042500080913A0284600BC0873F21F480913A023A
:10426000886005C0883F31F480913A028061809374
:104270003A0208958D3F21F48091380281600BC08D
:104280008E3F21F480913802826005C08F3F29F46F
:10429000809138028460809338020895803F39F419
:1042A00080913C0287FF6CC010923C0269C0813F44
:1042B00029F480913C021816BCF362C090913B0235
:1042C000823F29F497FF5CC010923B0259C0833FA4
:1042D00019F41916CCF354C0893F41F480913D0282
:1042E00018160CF04DC010923D024AC08A3F29F4C6
:1042F00080913D0287FF44C0F6CF8B3F39F4809117
:104300003E0287FF3DC010923E023AC08C3F29F426
:1043100080913E021816BCF333C0843F21F4809193
:104320003A028E7F17C0853F21F480913A028D7F3B
:1043300011C0863F21F480913A028B7F0BC0873FEA
:1043400021F480913A02877F05C0883F31F4809143
:104350003A028F7E80933A0213C08D3F21F4809100
:1043600038028E7F0BC08E3F21F4809138028D7F02
:1043700005C08F3F29F4809138028B7F80933802EB
:1043800080913B0281110EC080913C0281110AC0D4
:1043900080913D02811106C080913E02811102C0D0
:1043A0001092390208958AE392E00E945A130E9403
:1043B000DF1F909337028093360208951F93CF93A7
:1043C000DF9380913602909137020E94EB1F40915B
:1043D0003902442321F02091580130E006C0209199
:1043E00059015AE0259F900111248217930708F480
:1043F0006AC080913B0210913C02D0913D02C09175
:104400003E02811107C0111105C0D11103C0CC2398
:1044100009F459C04F3F19F04F5F40933902181605
:1044200024F40E94652080933B0280913B0287FF29
:1044300005C00E946520819580933B02111624F4EB
:104440000E94652080933C0280913C0287FF05C05A
:104450000E946520819580933C0220913B0222239B
:1044600079F040913C02442359F055EB250390012B
:10447000112430933B024503C001112490933C0268
:104480001D1624F40E94AD2080933D0280913D02D0
:1044900087FF05C00E94AD20819580933D021C16C8
:1044A00024F40E94AD2080933E0280913E0287FF5B
:1044B00005C00E94AD20819580933E02DF91CF918F
:1044C0001F910C94D321DF91CF911F910895EAE3BE
:1044D000F2E085E0DF011D928A95E9F7109239023A
:1044E000109238020895833081F128F4813059F018
:1044F0008230D1F00895853009F449C0B8F1863092
:1045000009F456C0089520915901862F90E0820F3A
:10451000911D8F3F910520F4620F6093590108951A
:104520008FEF80935901089520915801862F90E0D4
:10453000820F911D8F3F910520F4620F6093580107
:1045400008958FEF80935801089520915701862F89
:1045500090E0820F911D8F3F910520F4620F6093D0
:10456000570108958FEF80935701089520915601C8
:10457000862F90E0820F911D8F3F910520F4620FEE
:104580006093560108958FEF80935601089520910E
:104590005501862F90E0820F911D8F3F910520F4E9
:1045A000620F6093550108958FEF80935501089530
:1045B00020915401862F90E0820F911D8F3F91052D
:1045C00020F4620F6093540108958FEF809354019B
:1045D0000895833011F128F4813049F0823091F050
:1045E0000895853081F120F18630C1F108958091E0
:1045F0005901681720F4861B809359010895109281
:104600005901089580915801681720F4861B809302
:104610005801089510925801089580915701681724
:1046200020F4861B80935701089510925701089536
:1046300080915601681720F4861B809356010895D7
:1046400010925601089580915501681720F4861B39
:104650008093550108951092550108958091540159
:10466000681720F4861B809354010895109254011A
:1046700008958732F8F48E3108F085C08E3009F441
:1046800065C048F4873009F447C08B3009F491C005
:10469000863051F127C0863109F48BC020F4803177
:1046A00009F45EC01FC0893109F483C08B3109F45D
:1046B00043C018C0883309F47CC050F4893209F42F
:1046C00070C0853309F46DC0873209F46AC00AC02E
:1046D000833409F466C020F48A3308F052C002C063
:1046E000883461F080E0089580913402817F8E7F6C
:1046F0008093340281E08093400208950E94C7189D
:104700002FEF83ED90E3215080409040E1F700C00F
:1047100000000E943A204DC090913402892F80956C
:10472000817080FB90F990933402811142C0997F8F
:10473000977F909334023DC09091340291FB88277B
:1047400080F921E0822780FB91F913C09091340217
:1047500092FB882780F921E0822780FB92F909C02B
:104760009091340293FB882780F921E0822780FB17
:1047700093F9909334028823E1F09160909334028E
:10478000089527EC01C023EE280F61E070E080E07F
:1047900090E004C0660F771F881F991F2A95D2F7F3
:1047A00004C061E070E080E090E00E94071D0E947C
:1047B000C71881E0089580E0089580E008958E5143
:1047C0008A3030F4E82FF0E0E758FE4F80810895FA
:1047D00080E00895CF93C82F80914002813069F026
:1047E00018F08230B1F180C0E0915201F091530194
:1047F0008081823209F07AC007C0E0915201F091C5
:1048000053018081823249F48C2F0E94DB23811175
:104810001DC08C2F0E9439231AC08C2F0E94DD23CB
:10482000811114C0C43179F048F4CB3079F0C03133
:1048300009F060C082E08093400208C0C93219F0DC
:10484000C83321F057C01092400254C081E08170FB
:1048500053C0C93289F118F5C43171F1B0F4C730D1
:1048600009F046C08EE18093590182E3809358019C
:104870008AE08093570184E18093560188E0809319
:10488000550188E28093540133C082EE8C0F86304C
:1048900078F58C2F0E94DF2380933F0229C0CE340D
:1048A000E9F020F4CB3421F56AE013C0C13579F08A
:1048B000C235F1F461E00DC080913F02882319F008
:1048C00010923F0215C081E08093400215C061E064
:1048D00006C080913F020E9473220AC06AE0809164
:1048E0003F020E94E92204C01092400280E004C00E
:1048F00081E002C080E0ABCFCF9108958091490262
:1049000008950F931F93CF93DF9300D01F92CDB7DD
:10491000DEB78C010E94CD26823011F0843019F56B
:1049200083E089831B830A838093E9008FEF909152
:10493000E800815095FD06C095ED9A95F1F70000CD
:104940008111F5CF8091E80085FF0DC040E050E077
:1049500063E070E0CE0101960E94EA268091E800B3
:104960008E778093E8000F900F900F90DF91CF919A
:104970001F910F910895CF93DF9300D01F92CDB771
:10498000DEB720915802243031F522E02983805887
:1049900091099B838A8383E08093E9008FEF909154
:1049A000E800815095FD06C095ED9A95F1F700005D
:1049B0008111F5CF8091E80085FF0DC040E050E007
:1049C00063E070E0CE0101960E94EA268091E80043
:1049D0008E778093E8000F900F900F90DF91CF912A
:1049E0000895CF93DF93EC010E94CD26823011F021
:1049F0008430F9F482E08093E9008FEF9091E80031
:104A0000815095FD06C095ED9A95F1F70000811152
:104A1000F5CF8091E80085FF0CC040E050E065E0F4
:104A200070E0CE010E94EA268091E8008E778093A4
:104A3000E800DF91CF910895CF93DF93EC010E94BE
:104A4000CD26823011F0843039F581E08093E90081
:104A50008FEF9091E800815095FD06C095ED9A95F5
:104A6000F1F700008111F5CF8091E80085FF14C0B7
:104A700040E050E068E070E0CE010E94EA268091BC
:104A8000E8008E778093E80088E0FE01A1E4B2E0C0
:104A900001900D928A95E1F7DF91CF910895809171
:104AA0005702811109C00E947C280E94D928809158
:104AB000E20084608093E200089510925702089506
:104AC000089508950C94A71F42E061EC81E00E94D4
:104AD000F62742E061EC82E00E94F62742E061ECBA
:104AE00083E00C94F62780915A02833009F453C076
:104AF00030F4813071F0823009F48CC008958A302E
:104B000009F478C08B3009F45EC0893009F09AC08E
:104B100020C080915902813A09F094C08091E80048
:104B2000877F8093E80080915D0290915E02892BDF
:104B300021F060E080E090E003C068E081E492E072
:104B400070E00E9433278091E8008B778093E80023
:104B5000089580915902813209F074C080915D02FC
:104B600090915E02892B09F06DC08091E800877FEB
:104B70008093E8008091E80082FD05C08091580292
:104B80008111F8CF5FC08091F1008093490280913C
:104B9000E8008B7753C080915902813A09F052C0E6
:104BA00080915D0290915E02892B09F04BC080914B
:104BB000E800877F8093E8008091E80080FFFCCFC9
:104BC0008091640136C0809159028132D9F580917B
:104BD0005D0290915E02892BA9F58091E800877FA4
:104BE0008093E8000E942B2880915B0280936401EF
:104BF0000C94C71880915902813221F58091E80008
:104C0000877F8093E8000E942B2880915C0280932C
:104C10004A02089580915902813AA1F48091E800F6
:104C2000877F8093E8008091E80080FFFCCF80912F
:104C30004A028093F1008091E8008E778093E8002B
:104C40000C942B28089584B7877F84BF88E10FB622
:104C5000F89480936000109260000FBE80E880930B
:104C60006100109261000E9491130E947C280E94B2
:104C7000D9288091E20084608093E20078940E94B9
:104C80005C2B0E9495138AE591E00E943E1380916F
:104C90005802853069F40E94671F8091560288236C
:104CA000B1F30E94921F882391F30E94D426EFCF84
:104CB0000E949B13ECCF0C945D26292F33272330C1
:104CC0003105A9F06CF42130310509F448C02230D7
:104CD000310509F049C084E590E028E130E148C0A1
:104CE00021323105F9F02232310549F13DC09927D1
:104CF0008130910571F02CF4892BB1F5E4E1F0E1FC
:104D00000DC08230910541F0039771F5E6EEFFE0AA
:104D100005C0ECEFFFE002C0ECEEFFE0849190E014
:104D20009F0126C063307105F8F4FB01EE0FFF1FF1
:104D3000E457FE4F2081318189E090E019C0633053
:104D4000710590F4FB01EE0FFF1FEA57FE4F208123
:104D50003181FB01ED57FE4F808190E009C082E177
:104D600090E02CE630E104C080E090E020E030E00C
:104D7000FA013183208308950895CF93C82F0E94AC
:104D8000BC26C0934B02CF91089580915802843085
:104D900011F482E0089581E0089580914B02811121
:104DA00002C00C94C526089580E189BD82E189BDC9
:104DB00009B400FEFDCF8091D8008F7D8093D8008C
:104DC0008091E00082608093E0008091E00081FDAE
:104DD000FCCF0895CF92DF92EF92FF920F931F9333
:104DE000CF93DF937C018B01EA010E944C28811153
:104DF00031C0209731F088819981081B190BE80E8A
:104E0000F91EC12CD12C0115110519F18091E80072
:104E100085FD14C08091E8008E778093E80020978C
:104E200041F0888199818C0D9D1D9983888385E04F
:104E300011C00E944C28882331F30CC0F7018191E6
:104E40007F018093F10001501109FFEFCF1ADF0AB3
:104E5000DACF80E0DF91CF911F910F91FF90EF901B
:104E6000DF90CF90089520915F0230916002261765
:104E7000370748F06115710539F42091E8002E7765
:104E80002093E80001C0B901FC0120E06115710523
:104E9000B9F180915802882309F440C0853009F4A3
:104EA0003FC08091E80083FD3DC08091E80082FF13
:104EB00006C08091E80082FF26C080E008958091BE
:104EC000E80080FFE3CF2091F3008091F20090E0B2
:104ED000922B6115710551F08830910538F42191BC
:104EE0002093F100615071090196F3CF21E00897FA
:104EF00009F020E08091E8008E778093E800C6CF2B
:104F00002111C7CFD6CF80915802882339F0853040
:104F100039F08091E80083FFCCCF04C082E008958F
:104F200083E0089581E0089520915F02309160024E
:104F30002617370748F06115710539F42091E8000C
:104F40002E772093E80001C0B901FC0120E0611533
:104F50007105C1F180915802882309F441C0853060
:104F600009F440C08091E80083FD3EC08091E800D4
:104F700082FF06C08091E80082FF27C080E008958C
:104F80008091E80080FFE3CF2091F3008091F20050
:104F900090E0922B6115710559F08830910540F42D
:104FA00024912093F1003196615071090196F2CF5E
:104FB00021E0089709F020E08091E8008E77809347
:104FC000E800C5CF2111C6CFD5CF809158028823E4
:104FD00039F0853039F08091E80083FFCBCF04C0F1
:104FE00082E0089583E0089581E00895982F973036
:104FF00058F59093E900981739F07091EC002091E2
:10500000ED005091F00003C0242F762F50E021FFD7
:1050100019C03091EB003E7F3093EB003091ED00F2
:105020003D7F3093ED003091EB0031603093EB0029
:105030007093EC002093ED005093F0002091EE006F
:1050400027FF07C09F5FD3CF8F708093E90081E077
:10505000089580E008958091590287FD05C08091F0
:10506000E80080FF0EC012C08091E80082FD05C0FC
:10507000809158028111F8CF08958091E8008B77D4
:1050800008C0809158028111EACF08958091E8000C
:105090008E778093E80008958091E4009091E50078
:1050A00045E62091EC0020FF21C02091E80020FD82
:1050B00021C020915802222389F0253089F02091C7
:1050C000EB0025FD0FC02091E4003091E50028178A
:1050D000390739F3415041F0C901E3CF82E0089527
:1050E00083E0089581E0089584E008952091E80028
:1050F00022FFDFCF80E008950E94EA280E94F22874
:10510000E0EEF0E0808181608083E8EDF0E0808176
:105110008F77808319BCA7EDB0E08C918E7F8C9344
:1051200080818F7E80831092570208950F931F9382
:10513000CF93DF930E94EA280E94F228C8EDD0E0C6
:1051400088818F77888388818068888388818F7D34
:10515000888319BC10925802109254021092560281
:105160001092550200EE10E0F80180818B7F808361
:1051700088818160888342E060E080E00E94F627B9
:10518000E1EEF0E080818E7F8083E2EEF0E08081CE
:1051900081608083808188608083F80180818E7F38
:1051A0008083888180618883DF91CF911F910F91E7
:1051B0000895E8EDF0E080818F7E8083E7EDF0E0F8
:1051C00080818160808384E082BF81E08093570288
:1051D0000C949628E8EDF0E080818E7F8083109219
:1051E000E20008951092DA001092E10008951F92F3
:1051F0000F920FB60F9211242F933F934F935F930B
:105200006F937F938F939F93AF93BF93EF93FF938E
:105210008091E10082FF0BC08091E20082FF07C015
:105220008091E1008B7F8093E1000E945B2B809155
:10523000DA0080FF1FC08091D80080FF1BC08091E2
:10524000DA008E7F8093DA008091D90080FF0DC054
:1052500080E189BD82E189BD09B400FEFDCF81E016
:10526000809358020E944F2505C019BC1092580225
:105270000E945D258091E10080FF19C08091E200CD
:1052800080FF15C08091E2008E7F8093E2008091C4
:10529000E20080618093E2008091D8008062809378
:1052A000D80019BC85E0809358020E946125809146
:1052B000E10084FF30C08091E20084FF2CC080E1D7
:1052C00089BD82E189BD09B400FEFDCF8091D8007F
:1052D0008F7D8093D8008091E1008F7E8093E100E4
:1052E0008091E2008F7E8093E2008091E2008160F5
:1052F0008093E20080915402882311F084E007C07B
:105300008091E30087FF02C083E001C081E08093C9
:1053100058020E9462258091E10083FF29C080919C
:10532000E20083FF25C08091E100877F8093E10048
:1053300082E080935802109254028091E1008E7FA7
:105340008093E1008091E2008E7F8093E200809163
:10535000E20080618093E20042E060E080E00E9431
:10536000F6278091F00088608093F0000E9460250D
:10537000FF91EF91BF91AF919F918F917F916F912D
:105380005F914F913F912F910F900FBE0F901F9003
:1053900018951F920F920FB60F9211242F933F93DF
:1053A0004F935F936F937F938F939F93AF93BF932D
:1053B000CF93EF93FF93C091E900CF708091EC0001
:1053C0001092E9008091F000877F8093F00078943C
:1053D0000E94052A1092E9008091F0008860809375
:1053E000F000C093E900FF91EF91CF91BF91AF9191
:1053F0009F918F917F916F915F914F913F912F91ED
:105400000F900FBE0F901F9018951F93CF93DF93AF
:10541000CDB7DEB7AA970FB6F894DEBF0FBECDBFEB
:10542000E9E5F2E08091F100819322E0E136F207B4
:10543000C9F70E9473258091E80083FF24C1209161
:10544000590230915A02832F90E08A30910508F07A
:105450001AC1FC01E555FF4F0C948D2B203821F02B
:10546000223809F010C108C080915502909156026F
:10547000992389F082600FC080915D028F70873020
:1054800008F001C18093E9008091EB0085FB88273B
:1054900080F91092E9009091E800977F9093E800DE
:1054A0008093F1001092F100CCC0822F8D7F09F023
:1054B000EAC0222319F0223061F0E5C080915B023E
:1054C000813009F0E0C0333009F080E0809356026B
:1054D0002AC080915B02811126C020915D022F704D
:1054E0008FEF820F863008F0CEC02093E9008091C4
:1054F000EB0080FF18C08091EB00333011F4806224
:1055000010C080618093EB0081E090E001C0880FC3
:105510002A95EAF78093EA001092EA008091EB0066
:1055200088608093EB001092E9008091E800877F0B
:105530008093E8000E942B28A6C02111A4C01091DE
:105540005B021F778091E3008078812B8093E300DA
:105550008091E800877F8093E8000E942B2880914B
:10556000E80080FFFCCF8091E30080688093E30037
:10557000112311F083E001C082E08093580283C0C0
:105580002058223008F07FC080915B0290915C022D
:105590008C3D23E0920779F583E08A838AE2898350
:1055A0004FB7F894DE01139620E03EE051E2E32F7E
:1055B000F0E050935700E49120FF03C0E295EF70B4
:1055C0003F5FEF708E2F90E0EA3010F0C79601C079
:1055D000C0968D939D932F5F243149F74FBF8091E3
:1055E000E800877F8093E8006AE270E0CE010196D0
:1055F0000E94332715C060915D0270915E02AE017A
:105600004F5F5F4F0E945B260097E9F12091E80011
:10561000277F2093E800BC0189819A810E9494270A
:105620008091E8008B778093E8002DC0203859F5F1
:105630008091E800877F8093E800809154028093F6
:10564000F1008091E8008E7773CF21111CC09091FA
:105650005B029230C0F48091E800877F8093E8007D
:10566000909354020E942B2880915402811104C00F
:105670008091E30087FF02C084E001C081E0809355
:1056800058020E9464258091E80083FF0AC080913F
:10569000E800877F8093E8008091EB008062809330
:1056A000EB00AA960FB6F894DEBF0FBECDBFDF9118
:1056B000CF911F9108950895CF9380915802882328
:1056C000B1F08091E9008F709091EC0090FF02C0E2
:1056D00090E801C090E0C92FC82B1092E90080919A
:1056E000E80083FD0E94052ACF70C093E900CF91A6
:1056F000089597FB072E16F4009407D077FD09D084
:105700000E94932B07FC05D03EF4909581959F4F06
:105710000895709561957F4F0895EE0FFF1F0590D6
:10572000F491E02D0994AA1BBB1B51E107C0AA1FED
:10573000BB1FA617B70710F0A61BB70B881F991F32
:105740005A95A9F780959095BC01CD010895F999D6
:10575000FECF92BD81BDF89A992780B50895A8E142
:10576000B0E042E050E00C94CF2B262FF999FECF09
:1057700092BD81BDF89A019700B4021639F01FBAA4
:1057800020BD0FB6F894FA9AF99A0FBE08950196C3
:10579000272F0E94B62B0C94B52BDC01CB01FC010A
:1057A000F999FECF06C0F2BDE1BDF89A319600B47A
:0E57B0000D9241505040B8F70895F894FFCF85
:1057BE00010000C30B00000000000000000000000C
:1057CE0000000000000000D30B00000000000000ED
:1057DE000000000000000000000000F10B000000BF
:1057EE00000000000000000000000000000000E3C8
:1057FE000B00000000000000000000000000000090
:10580E0000FF29022808140A321E7E241C25F124CA
:10581E00BB248124013534C697669436323331F772
:10582E00F6F5000000000000000102030405060763
:10583E00080900404D360111B4107E102A10431095
:02584E005C10EC
:00000001FF
