:100000000C9425070C9487090C9469070C946907D4
:100010000C9469070C9469070C9469070C946907A0
:100020000C9469070C9469070C94A72E0C94792FF3
:100030000C94A8240C9469070C9469070C94690724
:100040000C9469070C9469070C9469070C94690770
:100050000C9469070C940F250C9469070C9469079C
:100060000C9469070C9469070C9469070C94690750
:100070000C9469070C9469070C9469070C94690740
:100080000C9469070C9469070C9469070C94690730
:100090000C9469070C9469070C9469070C94690720
:1000A0000C9469070C9469070C9469076D0A720A2D
:1000B0007A0A860A8E0A930AAE0A830A830A830A98
:1000C000B30ABB0AC30AC80ACD0AC40BCA0BCE0BBB
:1000D000D10BD50BD90BDD0BE10BE60BEA0BEE0BCD
:1000E000F20BF50BF90BFD0B010C050C0A0C1D1B9B
:1000F0001D1B571B571B9A1BBC1B521D521D021C5C
:10010000521DA91CA91C201D271D521D4D1DB61CCA
:10011000B61CB61CB61CB61CB61CB61CB61CB61C4F
:10012000B61CB61CB61CB61CB61CB61CB61CC81C2D
:10013000D81CDF1CE61CF01CE61DE61DF91DF91D90
:10014000EF1DF91DF91DF91DE61DE61DF51DF91D33
:10015000F91DF51DDE2F0530F3300530F3304D303D
:100160007030F330C630D53007634236B79BD8A71E
:100170001A39685618AEBAAB558C1D3CB7CC5763CC
:10018000BD6DEDFD753EF6177231BF000000803F7A
:1001900005A84CCDB2D44EB93836A9020C50B9914D
:1001A0008688083CA6AAAA2ABE000000803F750ADD
:1001B000012B022B010C020C01110211012B022B4D
:1001C00001280228012B022B012B022B012B022BD1
:1001D000010C020C01110211012B022B0128022833
:1001E00000750A012B022B011202120117021701DE
:1001F0002B022B01280228012B022B012B022B01A1
:100200002B022B011D021D01150215012B022B01D2
:1002100028022800750A012B022B01120212011379
:100220000213012B022B01280228012B022B012B88
:10023000022B012B022B011D021D01150215012BA2
:10024000022B01280228006970636F6E66696720BF
:100250002F616C6C004D79646F6763337272693320
:100260003500750A0127022701060206012B022B21
:10027000012B022B01040204012B022B00011B02A3
:100280001B00750A01E00117021701190219012864
:10029000022802E0007777772E737570706F7274A2
:1002A0002E7865726F782E636F6D01280061706122
:1002B000657A40676F746F636F732E636F6D006153
:1002C000646D696E012B3131313101280001E30188
:1002D0002B022B02E3002E001E001F002000210035
:1002E00022002B0014001A00090013000A002861E4
:1002F0000400150016001700070029621D001B00EE
:10030000060019000500000000000030E000DC5C81
:100310002A002D002700260025002400230031009C
:1003200033001C0018000F000D00280012000C0004
:10033000080011000B0035003800370036001000AF
:100340000E00000000002800E200DD5C2C003502F9
:100350001E021F02200221022202005C1E001F005A
:100360002000210022004C00010050004F005200EC
:100370002F00BE5C01000100010051002F020000AF
:1003800000002602010001002A002A00270226029E
:100390002502240223020100270026002500240054
:1003A000230031022E025E005D005C00300001007F
:1003B0002D005B005A0059003002000000002702A7
:1003C000620001004C0045003A003B003C003D004B
:1003D0003E0001001E021F02200221022202010033
:1003E000AC00AB00A9004B002D02A800AD00AE0090
:1003F000AA004E002D0000000000010001000100D5
:100400000100440043004200410040003F00010061
:100410002702260225022402230231000100520095
:1004200001004A002E0001004F00510050004D0015
:100430002E0200000000010001000100010029005F
:100440001E001F002000210022002B0014001A00B3
:10045000080015001700DD5C040016000700090005
:100460000A00E1001D001B00060019000500000045
:1004700000002C00E000DC5C2C002A002700260095
:100480002500240023004C00130012000C0018006B
:100490001C00340033000F000E000D000B00E500BF
:1004A000380037003600100011000000000028005E
:1004B000E200E3002800000000000000000000004F
:1004C000000000000000000000000000000000002C
:1004D000000000000000000000000000000000001C
:1004E000000000000000000000000000000000000C
:1004F00000000000000000000000000000000000FC
:100A5000000000000000005C010001000100010036
:100A60000100C05CC15CC35CC55CC75C01000100E7
:100A7000015CC45CC65CC85C0100BE5C005C01003B
:100A80000100010001000000000001000100010060
:100A9000010001000100010001000100010001004E
:100AA000010001000100010001000100010001003E
:100AB000010001000100010001000100010001002E
:100AC0000100000000000100010001000100000021
:100AD0000000000000002A2B280000000000000099
:100AE00000000000000000000029000000002C1E93
:100AF0003420212224342627252E362D3738271E50
:100B00001F202122232425263333362E37381F0475
:100B100005060708090A0B0C0D0E0F10111213140D
:100B200015161718191A1B1C1D2F3130232D3504CB
:100B300005060708090A0B0C0D0E0F1011121314ED
:100B400015161718191A1B1C1D2F3130354C0000B3
:100B50000000000000000000000000000000000095
:100B60000000000000000000000000000000000184
:100B7000010101010100010101010000000000006C
:100B8000000000000000000001000100010101015F
:100B90000101010101010101010101010101010145
:100BA000010101010101010101000000010100003A
:100BB0000000000000000000000000000000000035
:100BC00000000000000000000001010101006801B8
:100BD000F000B40078005A007F3F1F643214643282
:100BE00014783C1E1E140A050000000000010101DB
:100BF00001010101010102020202020202020203DA
:100C000003030303030303040404040404050505A8
:100C10000505060606060607070707080808080967
:100C200009090A0A0A0A0B0B0B0C0C0C0D0D0D0E10
:100C30000E0F0F0F1010111111121213131414159F
:100C40001516161717181819191A1A1B1C1C1D1D12
:100C50001E1F1F2020212222232425252627272866
:100C6000292A2B2B2C2D2E2F2F3031323334353691
:100C7000363738393A3B3C3D3E3F4041424344469B
:100C80004748494A4B4C4D4F50515253555657586F
:100C90005A5B5C5E5F606263646667696A6C6D6E16
:100CA000707173747678797B7C7E8081838486888A
:100CB0008A8B8D8F91929496989A9B9D9FA1A3A5C4
:100CC000A7A9ABADAFB1B3B5B7B9BBBDBFC1C4C6C2
:100CD000C8CACCCFD1D3D6D8DADCDFE1E4E6E8EB82
:100CE000EDF0F2F5F7FAFCFF0403300000001C03FE
:100CF000490072006900730020004B006500790014
:100D000062006F0061007200640000000E034B007F
:100D100065006500620069006F00000004030904BB
:100D200009025400030100A0FA09040000010301B4
:100D3000010009211101000122400007058103087B
:100D4000000A090401000103010200092111010048
:100D500001224D000705820308000A090402000170
:100D6000030000000921110100012236000705835C
:100D70000308000A1201100100000008EBCE561211
:100D800000020102030105010980A101850216018B
:100D9000002603001A81002A830075109501810046
:100DA000C0050C0901A1018503160100269C021A49
:100DB00001002A9C02751095018100C005010902FD
:100DC000A1010901A1000509190129051500250145
:100DD00095057501810295017503810105010930B1
:100DE00009311581257F950275088106093815811D
:100DF000257F950175088106050C0A3802158125A5
:100E00007F950175088106C0C005010906A101058D
:100E10000719E029E715002501950875018102955C
:100E200001750881010508190129059505750191CC
:100E3000029501750391010507190029FF15002688
:100E4000FF00950675088100C00011241FBECFEF7A
:100E5000DAE0DEBFCDBF04B603FE24C080914502B8
:100E600090914602A0914702B09148028730904B82
:100E7000A740B04BB9F4109245021092460210926E
:100E800047021092480214BE84B7877F84BF88E16E
:100E90000FB6F89480936000109260000FBEE0E0FF
:100EA000F8E3099511E0A0E0B1E0E6EFF9E602C051
:100EB00005900D92A034B107D9F712E0A0E4B1E09B
:100EC00001C01D92A534B107E1F70E94D12B0C940B
:100ED000F9340C940000089508950C946C078091E7
:100EE000E901836088608093E901ACE1B1E021E031
:100EF00030E08D91E82FE295EF70F0E041A18F7026
:100F0000B90102C0660F771F8A95E2F7CB01962FD1
:100F10009095492341A392A1982B92A371E0A1320D
:100F2000B70739F7A6E1B1E021E030E08D91E82F75
:100F3000E295EF70F0E041A18F70B90102C0660F39
:100F4000771F8A95E2F7CB01962F9095492341A30D
:100F500092A1982B92A371E0AC31B70739F7559A5B
:100F6000209AE0E4F1E0ABE4B1E011921D9281E05F
:100F7000EA34F807D1F70C94250F2F923F924F9245
:100F80005F926F927F928F929F92AF92BF92CF9219
:100F9000DF92EF92FF920F931F93CF93DF93809195
:100FA0000001882319F000E010E002C005E010E025
:100FB0009CE1E92E91E0F92EA801455B5E4F6A01A4
:100FC000EA01AA24A394B12C6624639434E0732E1E
:100FD0004E0158801882D7012D917D01E22FE295B4
:100FE000EF70F0E081A12F70A50102C0440F551FE2
:100FF0002A95E2F79A01842B81A382A1442E409482
:10100000842182A350EA5A95F1F786E1282E81E0E7
:10101000382E80E090E0D1015D911D01652F629531
:101020006F7070E0DB0190966C9178815F70D501F4
:1010300002C0AA0FBB1F5A95E2F76A2339F44A2D62
:10104000082E01C0440F0A94EAF701C040E0472B84
:101050004883019686309105F1F681A1842181A310
:1010600082A1822B82A32196F4018081581659F027
:10107000609255010E94DA249093570180935601A3
:101080008BB187258BB9F1E2EF16F1E0FF0609F08D
:101090009FCF809155018823D1F080915601909186
:1010A00057010E94E624069790F080E090E0005CF3
:1010B0001E4FF801E80FF91FD601A80FB91F2C9198
:1010C0002083019685309105A1F71092550181E0AA
:1010D000DF91CF911F910F91FF90EF90DF90CF9014
:1010E000BF90AF909F908F907F906F905F904F9048
:1010F0003F902F9008950F931F93CF93DF9380918C
:101100000001882319F005E010E002C000E010E0C3
:101110000E94F909EC010097B1F420E030E0005C96
:101120001E4FF901E65AFE4F8081F801E20FF31FCE
:1011300080832F5F3F4F2530310599F70E94282A81
:101140008093590102C0C1E0D0E0CE01DF91CF9180
:101150001F910F910895CF930E94BD07C82F0E9441
:101160007B08892BF9F05D9890914A019F5F9093DD
:101170004A019630D0F080910001882319F045E0B3
:1011800050E002C040E050E020E030E0405C5E4FC4
:10119000FA01E20FF31F10822F5F3F4F2530310518
:1011A000B9F703C05D9A10924A010E94B90E8C2FC4
:1011B000CF9108950E94BD0780910001882319F006
:1011C00020E030E002C025E030E080E090E0205CEC
:1011D0003E4FF901E80FF91F4081FC01E65AFE4F2E
:1011E0004083019685309105A1F7809159010C94B7
:1011F000BB0EE82FF0E0E05CFE4F8081089508957B
:10120000E8EDF0E08081806180838AE18A95F1F7E2
:1012100000C08091D900817008958EE090E00E9416
:10122000B13491E0811101C090E0909300010E94DF
:101230000009882319F00E947A0904C00E94D12471
:101240000E947E09789408950E946F070E94DA0830
:10125000FDCF0E940D090E940009811102C00E9469
:1012600024090895509A08955098589A0895589AC4
:1012700008951F93CF93DF93C82F0E94320918E07F
:10128000D0E0115088F0CE01012E02C095958795CF
:101290000A94E2F780FF03C00E94370901C0589802
:1012A00080E88A95F1F7EDCFDF91CF911F910895F6
:1012B0000E943409489BFECF80E88A95F1F7089593
:1012C0000E94340998E080E029B12170880F822BB8
:1012D00020E82A95F1F725E02A95F1F700009150D2
:1012E00099F708950E943209589880E88A95F1F795
:1012F0000C9437090E9432090C9437090E94340972
:10130000E89AE9E6F0E080818C7F808308951F925F
:101310000F920FB60F921124CF92DF92FF920F938C
:101320001F932F933F934F935F936F937F938F936D
:101330009F93AF93BF93EF93FF93CF93DF931F924E
:10134000CDB7DEB70E947209C12CD12CF12C8601D9
:10135000065A1E4FF80180810E9439090E947209C5
:10136000F8018081F80EFFEFCF1ADF0A85E0C8167A
:10137000D10469F78F2D0E9439090E947209E0E8B3
:10138000EA95F1F7F0E4FA95F1F70E94600980938D
:1013900059010E947209109159010E9460098983C4
:1013A0000E9472090E9434098981181721F08091E6
:1013B0005801816003C0809158018E7F809358014D
:1013C0000F90DF91CF91FF91EF91BF91AF919F91DE
:1013D0008F917F916F915F914F913F912F911F91CD
:1013E0000F91FF90DF90CF900F900FBE0F901F9046
:1013F0001895CF92DF92FF920F931F93CF93DF93B5
:101400001F92CDB7DEB7F8940E943209589885E054
:101410008A95F1F700000E9434090E943709E0E83C
:10142000EA95F1F7489934C00E945809C12CD12C93
:10143000F12C0E9460098601065A1E4FF801808334
:101440000E945809F8018081F80EFFEFCF1ADF0AD9
:1014500085E0C816D10469F70E94600989830E945B
:1014600058098981F81214C0809159010E943909E4
:101470000E945809809159010E9439090E94580917
:101480000E9432090E943709789480E090E003C0FE
:10149000789481E090E00F90DF91CF911F910F91B0
:1014A000FF90DF90CF9008950C946B07CF93DF935C
:1014B000EC010E94FA23BE0180E090E0DF91CF9121
:1014C0000C94EB21DC01462F50E04F305105D8F44D
:1014D0004A5A5F4FFA010C94A03412968C911297DD
:1014E000811163C012968C911297882319F08FEBAB
:1014F00092E007C012968C911297882339F08DEAFA
:1015000092E00E94440E80E090E0089512968C9143
:101510001297882319F085E992E0F3CF12968C9107
:101520001297811145C012969C91129715968C9135
:10153000992351F0982F92959F7011F080FFE3CF7F
:1015400081E00E944622DFCF982F92959F7011F084
:1015500080FF31C081E00E946122D5CF12968C912C
:10156000129781112BC012968C911297882319F033
:1015700085E592E0C6CF12968C911297882319F0D8
:1015800087E492E0BECF12968C911297811119C018
:1015900012968C911297811117C012968C91882304
:1015A00009F4B1CF8EEA91E008958DEC92E00895B0
:1015B00082E892E008958DE792E0089582E692E055
:1015C000089584E192E0089581EE91E00895CF932B
:1015D000FB018C3D2CE59207A9F020F48B3D9C4546
:1015E00049F032C08D3D2CE5920779F08E3D9C4547
:1015F00001F12AC0C281CC2341F188E090E00E9431
:10160000560A1DC0C28181E002C0C28182E0CC23A3
:1016100041F00E94462240E162E081E00E94A70E74
:101620000EC00E94612240E162E081E00E94A70EAC
:101630000CC0C28180E1CC2321F00E944622C0E090
:1016400004C00E94612201C0C1E08C2FCF91089597
:1016500081E008950C94E70A0E94D41D2FEF84E3E3
:101660009CE0215080409040E1F700C0000087E7F7
:1016700097E790930108809300080C9435250F9309
:101680001F93CF93DF938C01FC01C081D181CE01E8
:101690000E94D222BE010E942F0FEC01B8010E94CD
:1016A0002A0B882309F491C2B801CE010E94C5110A
:1016B000882309F48AC2C93CFCE5DF0741F4F8013C
:1016C0008281882309F481C20E94B4127EC2CA3C7E
:1016D0008CE5D80708F036C1C13C9CE5D90761F418
:1016E000F8018281882309F470C20E9485238272E6
:1016F000F1F00E942F1569C2C23CECE5DE07D0F084
:10170000F8018281C53CFCE5DF0709F4F0C008F070
:1017100000C1C33CECE5DE0709F4EFC008F0F3C0FC
:10172000882309F452C20E948523827211F30E9419
:1017300025154BC2C531FCE5DF0708F0A3C0C23058
:101740008CE5D80708F478C0F8018281882309F471
:101750007FC00E94E723811102C00E94C1230E9422
:10176000FF2390E09093360280933502FE01E35010
:10177000FC45E231F10520F4EB59FF4F0C94A03405
:1017800080913502816003C0809135028260809330
:1017900035024BC0809135028460F9CF80913502CB
:1017A00013C0809135028061F2CF80913502806252
:1017B000EECF809135028064EACF80913502806857
:1017C000E6CF8091350284608860E1CF8091350258
:1017D0008E7FDDCF809135028D7FD9CF809135020C
:1017E0008B7FD5CF8091350213C0809135028F7EDB
:1017F000CECF809135028F7DCACF809135028F7B0D
:10180000C6CF809135028F77C2CF809135028B7F12
:10181000877FBDCF9091350297FB882780F921E023
:10182000822780FB97F990933502809135020E94C0
:1018300003240E94D41DC9C1C1159CE5D90779F0C4
:10184000C130DC45A1F081E08093640180936501A3
:10185000C801DF91CF911F910F910C94280BF801D3
:101860008281882309F4B1C10E942C0BAEC1F8011A
:101870008281882309F4A9C18091E9018160809364
:10188000E901A3C1C531FCE5DF0729F50E948523E5
:10189000382FF801228180910301909104012223C5
:1018A00071F03A7A21E009F420E020935F012223CD
:1018B00011F065E301C069E20E944D2409C0209146
:1018C0005F01222311F065E301C069E20E944F2409
:1018D0000E9452237AC1C03CDC4509F0B4CFF80124
:1018E0008281882309F471C10E9464156EC1882326
:1018F00009F46BC10E943E1468C1882309F465C1D4
:101900000E94061462C1882309F45FC10E941F145B
:101910005CC1C73C9CE5D90731F4882309F455C163
:101920000E94731452C1C83CDC4530F4882309F48A
:101930004CC10E94591449C1882309F446C10E9430
:101940008E1443C1C03DFCE5DF07C1F4F80182817C
:10195000882309F43AC10E94A612653171058105F8
:10196000910540F00E94A61267317105810591052D
:1019700008F4DDCE85E10E94A81427C1C13D8CE5A5
:10198000D80708F07AC0CC3C9CE5D907B1F4F8013F
:101990008281882309F419C10E94A6126230710560
:1019A0008105910540F00E94A61265307105810500
:1019B000910508F4BCCE82E0DECFCD3CECE5DE073D
:1019C000B8F4CA3CFCE5DF0741F4F80182818823C2
:1019D00009F4FBC00E94C912F8C0CB3CDC4509F0F9
:1019E00032CFF8018281882309F4EFC081E0C3CFB0
:1019F000F8018281CE3CFCE5DF07A1F4882309F4DD
:101A0000E4C00E94A612693071058105910540F07D
:101A10000E94A6126E3071058105910508F487CEEB
:101A200089E0A9CFCF3CDC45A0F4882309F4CDC0E0
:101A30000E94A612663071058105910540F00E9452
:101A4000A612683071058105910508F470CE86E014
:101A500092CF882309F4B9C00E94A6126F30710595
:101A60008105910540F00E94A6126431710581053F
:101A7000910508F45CCE8FE07ECFC43DECE5DE0737
:101A800039F5F8018281882361F0109265010E9486
:101A9000DA24909363018093620180E20E94CD1A60
:101AA00094C08091650181110FC080916201909175
:101AB00063010E94E624883C910530F487E20E948D
:101AC0005D1987E20E946C1A80E20E94D41A7DC0E0
:101AD000C53DFCE5DF0708F043C0F8018281C23D47
:101AE000FCE5DF07A1F4882309F46FC00E94A61269
:101AF000693171058105910540F00E94A61262329C
:101B000071058105910508F412CE89E134CFC33DFA
:101B1000DC4528F4882309F458C088E12CCF8823B9
:101B200051F0109264010E94DA2490936101809335
:101B3000600182E0B3CF8091640181110FC0809178
:101B40006001909161010E94E624883C910530F487
:101B500086E20E945D1986E20E946C1A82E0B5CF8F
:101B6000C83DECE5DE0731F4F8018281882369F194
:101B700080E009C0C93DFCE5DF0741F4F80182813E
:101B8000882319F182E00E946D2C1FC0C53DDC4501
:101B900009F059CEF8018281811177CF80916501DA
:101BA000811192CF80916201909163010E94E6249D
:101BB000883C910508F088CF80E20E94D41A88E220
:101BC0000E945D1988E20E946C1A80E0DF91CF913B
:101BD0001F910F910895CF93282F30E0F901E25320
:101BE000F54FC491F901E25BF44F2491222359F09F
:101BF00081EE0E945D198C2F0E945D198C2F0E942E
:101C00006C1A81EE04C08C2F0E945D198C2FCF912D
:101C10000C946C1A0F931F93CF93DF93EC01062F54
:101C2000FE018491882359F19E012F5F3F4F81303F
:101C300041F4E901F9011491812F0E945D19812F6E
:101C40000DC0823031F4E901F90184910E945D19DF
:101C50000AC0833031F4E901F90184910E946C1AC1
:101C600002C00E94EB0D2196802F8823C9F2EFE974
:101C7000FFE03197F1F700C000008150F6CFDF910F
:101C8000CF911F910F91089560E00C940A0E4F922E
:101C90005F926F927F928F929F92AF92BF92CF92FC
:101CA000DF92EF92FF920F931F932B013C01C12C07
:101CB000D12C7601C394D701C60104C0880F991FA7
:101CC000AA1FBB1F4A95D2F7AC01BD0146015701BF
:101CD00004C0880C991CAA1CBB1C2A95D2F7482961
:101CE00059296A297B29D701C60104C0880F991F89
:101CF000AA1FBB1F0A95D2F76A017B01C420D52019
:101D0000E620F720C416D506E606F70639F4BC012E
:101D1000CD0164297529862997290AC0BC01CD0106
:101D20006095709580959095642175218621972105
:101D30001F910F91FF90EF90DF90CF90BF90AF90E9
:101D40009F908F907F906F905F904F9008950F932A
:101D5000382F262F6091D4017091D5018091D60142
:101D60009091D701042F432F0E94470E0F910C949E
:101D700026220C946D07CF92DF92EF92FF9286306D
:101D800030F4811105C0909180009F7704C085E0F8
:101D900090918000906890938000282F30E0AFEF02
:101DA000BFEF0E94373425E030E040E050E00E9471
:101DB0007E34C9012C3764E1360728F469E070E00D
:101DC0000E94563429C0DA01C9018A50974DAF4F9D
:101DD000BF4F6627782F892F9A2F25EF38E241E0F1
:101DE00050E00E947E3469017A01CA01B9010E9463
:101DF00046349B01AC01C701B6010E944634BB27A3
:101E0000A92F982F872F009721E0A207B10511F085
:101E1000BC0102C06FEF7FEF709389006093880070
:101E2000FF90EF90DF90CF900895259A2D9882E84B
:101E30008093800089E1809381008FEF9FEF9093E2
:101E40008700809386000C9479290E94150F0C94CA
:101E5000540A08950C94290F0C942A0F089596E0C3
:101E6000799FF00111249CE3899FE00DF11D11245D
:101E7000E60FF11DEE0FFF1FEA52FD4F8591949181
:101E80000895880F991F8253944FFC018591949176
:101E90000895CF93DF930E942F0F0E942511EC012C
:101EA000811521E5920708F043C0811530E59307BD
:101EB00008F021C1883E910508F5803E910508F0A3
:101EC000C0C1883A910578F4853A910508F09EC022
:101ED0008130910509F4B5C108F46CC184309105D5
:101EE00008F0AFC167C18D3B910508F49AC0803CF2
:101EF000910508F45FC1805C9109ECC0C11580E3D5
:101F0000D80780F4C11520E2D20708F0E1C0C03F35
:101F1000D10508F44FC1CF3FD10511F008F091C1B0
:101F2000D0658FC1C11530E4D30708F0E1C0D6C039
:101F3000C11589E5D80740F5C11528E5D20708F095
:101F400025C1C11534E5D30778F4C11583E5D80759
:101F500008F002C1C11522E5D20708F0E8C0DC2F65
:101F6000CC27C16FD06A6DC1C11535E5D30708F420
:101F700008C1C11586E5D80708F01CC1CF71DD275F
:101F8000DC2FCC27D0625DC1CB3B2CE5D20709F416
:101F900008C1D8F4C93B8CE5D80709F4FCC008F0A7
:101FA000FDC0C1153AE5D30708F004C18C2F8F702E
:101FB000806E90E0906A34E0D695C7953A95E1F747
:101FC000CF709C013C2BE9013CC1CE3B8CE5D8078E
:101FD00009F4EDC060F4CC3B3CE5D30709F4E4C060
:101FE000CD3BDC4509F0E6C0C0E0D2ED2AC1CE0110
:101FF00090568115904208F0DDC08D2F8F710E94A0
:10200000A111DD27D0628F71D82B1BC1853A9105B4
:1020100009F4D3C0863A910509F4D2C0C3E8D0E4EC
:1020200010C1883A910509F4CEC0893A910509F4A6
:10203000CDC08A3A910509F4CCC08B3A910509F4D8
:10204000CBC08C3A910509F4CAC08B3B910509F4C9
:10205000C9C08C3B910509F4C8C08D3A910509F4BB
:10206000C7C0803B910509F4C6C08E3A910509F4BA
:10207000C5C08F3A910509F4C4C0813B910509F4AC
:10208000C3C0823B910509F4C2C0833B910509F4AA
:10209000C1C0843B910509F4C0C0853B910509F49A
:1020A000BFC0863B910509F4BEC0873B910509F48A
:1020B000BDC0883B910509F4BCC0893B910509F47A
:1020C000BBC08A3B910509F0BAC0CAE2D6E4B9C0E8
:1020D000CE019F700E94410FEC01B3C0CE01992741
:1020E000D3FF03C0EC01D86CACC0EC01D06CA9C02C
:1020F000DF70D06AA6C0282F237081E090E002C074
:10210000880F991F2A95E2F79C689E01E4E03695B6
:102110002795EA95E1F72370922BCF70C695C69567
:1021200030E2C39FE0011124C82BD92B8AC08C2F29
:102130008695869520E2829FC00111249E0123701E
:102140003327C1E0D0E002C0CC0FDD1F2A95E2F7B3
:10215000C82BD92BDC6875C08C2F8695869530E20C
:10216000839FC00111249E0123703327C1E0D0E07A
:1021700002C0CC0FDD1F2A95E2F7C82BD92BDA68F5
:1021800060C0DC2FCC27C46FD06A5BC0DC2FCC27AB
:10219000C06FD06A56C0C0E0D4ED53C0C0E0D5EDEA
:1021A00050C0C0E0D1ED4DC0C0E0D0ED4AC0C0E0AD
:1021B000D3ED47C0C0E0D0E044C0C1E8D0E441C0A6
:1021C000C2E8D0E43EC0C2EED4E43BC0C9EED4E4E1
:1021D00038C0CAEED4E435C0C5EBD4E432C0C6EB97
:1021E000D4E42FC0C3EBD4E42CC0C4EBD4E429C0A6
:1021F000C7EBD4E426C0CCECD4E423C0CDECD4E4CB
:1022000020C0C3E8D5E41DC0CAE8D5E41AC0C2E9BD
:10221000D5E417C0C4E9D5E414C0C1E2D6E411C0C6
:10222000C3E2D6E40EC0C4E2D6E40BC0C5E2D6E4F5
:1022300008C0C6E2D6E405C0C7E2D6E402C0C0E0EA
:10224000D4E4CE01DF91CF9108958238910549F110
:10225000B0F48133910509F459C048F489329105ED
:1022600009F44FC08A32910509F455C008958533A9
:10227000910509F441C08933910599F00895833E91
:10228000910531F138F4803E910591F0823E91053F
:10229000A9F00895863E910501F1873E910539F137
:1022A00008952091350220FD3BC021FD39C00895DD
:1022B0008091350280FF34C089E341C080913502AE
:1022C00082FF32C08091350284FF2CC080E037C08D
:1022D0008091350282FD28C0F5CF8091350283FFC1
:1022E00025C08091350284FDF1CF87EE28C0809112
:1022F000350283FD1BC0F5CF8091350285FF18C0E4
:1023000019C08091350285FF15C012C08091350239
:1023100086FF12C013C08091350286FF0FC00CC02B
:1023200080EE0DC083EE0BC082EE09C086EE07C0C2
:1023300085E305C089E203C081E301C08AE290E041
:1023400008959091350292FF0DC0282F28712830F2
:1023500019F4877F846006C0282F2471243011F47B
:102360008B7F886093FF0DC0282F2871283119F4C6
:10237000877E846106C0282F2471243111F48B7E5E
:10238000886194FD877E08950895CF93DF93EC01D3
:10239000FB018281811102C081E040C08091730104
:1023A000811125C0C631DC45B9F70E94C41181E016
:1023B000809373010E94DA249093720180937101DB
:1023C00010926601109268011092670110926A01E2
:1023D0001092690110926C0110926B0110926E01C3
:1023E00010926D011092700110926F0116C08091D1
:1023F0007101909172010E94E6248C32914060F646
:1024000080916601E82FF0E0EE0FFF1FE959FE4FC3
:10241000D183C0838F5F8093660180E0DF91CF918D
:102420000895DF92EF92FF920F931F93CF93DF9364
:10243000662309F44AC0E42FF0E0AFEFB0E0A61B3A
:10244000B109BF01A69FE001A79FD00DB69FD00D97
:102450001124FD2FDD2E7B01ED1AF1080CE310E0B5
:10246000B8010E945634EB01BC01E69EC001E79E14
:10247000900DF69E900D1124B8010E945634C23082
:10248000D105B1F040F4209779F0219709F58F2F0D
:10249000D42E461B20C0C430D10599F068F0259792
:1024A000B9F4842F861B17C08F2FD62EDF0E13C0D2
:1024B000862F8F0FD42E03C0D42ED61A842F4F2FE1
:1024C0000AC0842F462F4F0F06C0842FD42E03C07E
:1024D00080E0D12C40E0E42FF0E0E851F44F44914B
:1024E000ED2DF0E0E851F44F9491E82FF0E0E85141
:1024F000F44FE491D90111964C9311979C93129645
:10250000EC93DF91CF911F910F91FF90EF90DF90AF
:10251000089588E090E00C94B934AB01BC0188E0E8
:1025200090E00C94D734E1E0F2E083E080831092F5
:1025300002028FEF8093030280930402109205023F
:1025400060817181828193810C948D12609101026E
:1025500060FF06C066956F7370E080E090E00895BC
:1025600060E070E0CB0108958091050290E0019653
:102570008430910514F083E090E08093050260912F
:1025800001027091020280910302909104020C9466
:102590008D128091050290E0019797FF02C080E0C4
:1025A00090E08430910514F083E090E08093050280
:1025B00060910102709102028091030290910402E5
:1025C0000C948D128091010280FF06C06CE070E0D7
:1025D0008BE092E00C941D18EDE0F2E0DF01119722
:1025E0001C92DF0112971C921082339682E0E13335
:1025F000F807A1F7EBCF9091010290FF10C0EDE03A
:10260000F2E0DF0111978C93DF0112976C93408306
:10261000339692E0E133F907A1F70C94E2120895A2
:10262000CF92DF92EF92FF920F931F93CF93DF939E
:1026300000D01F92CDB7DEB7F82EC92ED62EE42ECD
:1026400000910102109102022091030230910402D4
:1026500000930602109307022093080230930902A8
:102660008091010280FF1EC09E012F5F3F4F8F2D82
:102670000E94111280910602F0FA87F980930602F7
:10268000F6942091070220782F29C0FA27F9209389
:102690000702D0920802E09209024B8169818A8187
:1026A0000E94FB120F900F900F90DF91CF911F911E
:1026B0000F91FF90EF90DF90CF9008958F929F92AF
:1026C000AF92BF92CF92DF92EF92FF920F931F9340
:1026D000CF93DF93EC01862E942E8091010280FF30
:1026E00088C0982F9E77923021F4CE010E9410135B
:1026F00056C0E82FE695EF739EE39E0F9F739430CC
:1027000018F4909004024BC09AE39E0F9F73993087
:1027100070F4881F8827881F90910202292F220FAA
:10272000C22FC82B97FB992790F9D92F38C087E281
:102730008E0F8F738A3098F5F0E07997E0FF02C032
:102740002FEF01C021E0EE7FE253F44F8591949189
:102750006CE070E00E94563426036001279FD00C85
:1027600011247E0188E9E81A8EEFF80A0BE012E0E6
:1027700088E6A82EBB24B394C701B5010E94563445
:102780009801492D682D0E941112EC0CFD1C0D5F63
:102790001F4F92E00F32190779F70E94E2128091E1
:1027A00001029C2FC0FB87F98093010296958091CE
:1027B00002028078892BD0FB87F9809302028092F5
:1027C00003029092040260910102709102028091D2
:1027D000030290910402DF91CF911F910F91FF901E
:1027E000EF90DF90CF90BF90AF909F908F900C9420
:1027F0008D12DF91CF911F910F91FF90EF90DF909D
:10280000CF90BF90AF909F908F900895209101023C
:10281000221F2227221F30910202432F440F842FB0
:10282000822B37FB992790F9089668E671E00E94A1
:102830006A3440910402609103020C945E1320916B
:102840000102221F2227221F30910202432F440F30
:10285000842F822B37FB992790F9883091051CF43F
:10286000805A9E4F01C0089768E671E00E946A3462
:1028700040910402609103020C945E136091030284
:10288000862F90E0883F910514F4685F01C06FEFD8
:1028900080910102881F8827881F90910202292FAA
:1028A000220F97FB992790F940910402822B0C94F8
:1028B0005E1360910302862F90E0089714F0685031
:1028C00001C060E080910102881F8827881F9091D5
:1028D0000202292F220F97FB992790F940910402B9
:1028E000822B0C945E1340910402842F90E0883F69
:1028F000910514F4485F01C04FEF80910102881FD9
:102900008827881F90910202292F220F97FB992771
:1029100090F960910302822B0C945E1340910402A3
:10292000842F90E0089714F0485001C040E0809157
:102930000102881F8827881F90910202292F220FE9
:1029400097FB992790F960910302822B0C945E13F8
:102950009091010290FF44C09178811102C0926071
:1029600003C0833220F094649093010205C08F73FA
:10297000880F892B809301026091010270910202FD
:1029800080910302909104020E948D1280910102B5
:10299000982F9E77923019F41092890110C0982FC9
:1029A00096959F732EE3290F2F73273120F491E022
:1029B0009093890104C0995D9F739A3068F3881FD2
:1029C0008827881F90910202292F220F97FB9927B1
:1029D00090F94091040260910302822B0C945E13E3
:1029E00008958091E90181608093E90181E08093FD
:1029F0008A010E94E723811104C00E94C1230E9422
:102A000093120E94891260930102709302028093D4
:102A10000302909304026E7761F40E9493120E9465
:102A200089126093010270930202809303029093D3
:102A3000040281E0809389018091010280FF04C03B
:102A400086958F730C94A814089580910102869541
:102A50008F738F5F833208F081E00C94A81480910B
:102A6000010286958F73815009F482E20C94A814B8
:102A7000CF93DF93C1E0D2E0888181608883688151
:102A800079818A819B810E948D12888186958F73BE
:102A9000DF91CF910C94A814E1E0F2E080818E7F69
:102AA000808360817181828193810E948D12109256
:102AB00089012FEF80E792E0215080409040E1F7BC
:102AC00000C000000C94E2128091010280FD0C9481
:102AD0004C150C943815CF93C82F80918701909195
:102AE00088010E94E624EC2FF0E0EC51F44FE491D1
:102AF000F0E08E179F0708F442C00E94DA249093FA
:102B00008801809387016091860170E080E090E009
:102B10000E94553220E030E04FE753E40E948E31AE
:102B20002BED3FE049E450E40E9476330E94D93314
:102B30000E94FB312BE43AE34EE25FE30E9429312D
:102B400020EF3BEF48ED52E40E9476330E9427329B
:102B5000462F80910102881F8827881F90910202CA
:102B6000292F220F97FB992790F960910302822B5E
:102B70000E941013809186018F5F80938601CF9110
:102B80000895CF93C82F80918401909185010E9470
:102B9000E624EC2FF0E0EF51F44FE491F0E08E17D3
:102BA0009F07E8F00E94DA249093850180938401C6
:102BB000409104026091030280918201909183010F
:102BC0000E9410138091820190918301019668E622
:102BD00071E00E9456349093830180938201CF91DB
:102BE0000895DF92EF92FF920F931F93CF93DF939D
:102BF000D82E80918001909181010E94E624ED2DD4
:102C0000E695F0E0E252F44FE491F0E08E179F0772
:102C1000E8F10E94DA2490938101809380010BE017
:102C200012E0C0E0D0E028E6E22EFF24F394809189
:102C30007E0190917F018C0F9D1FB7010E94563439
:102C4000980140910402609103020E9411126E9655
:102C50000D5F1F4FC83681E0D80749F70E94E21286
:102C600020917E0130917F01D0FE0AC0C9010196FA
:102C7000BE010E94563490937F0180937E0106C06E
:102C80002150310930937F0120937E01DF91CF9154
:102C90001F910F91FF90EF90DF900895AF92BF9238
:102CA000CF92DF92EF92FF920F931F93CF93DF9318
:102CB000C82F80FD03C0BB24B39402C0BB24BA94C8
:102CC00080917C0190917D010E94E624C695EC2FB5
:102CD000F0E0E552F44FE491F0E08E179F0708F41E
:102CE00066C00E94DA2490937D0180937C015BE0B2
:102CF000E52E52E0F52E0DE012E0C0E0D0E0F80144
:102D000031971082F7011082F801108244E0C42E3E
:102D1000D12CA12C80917B018A0D87FD845F99279E
:102D200087FD9095C817D907E9F4809104028C9D1E
:102D3000A0018D9D500D11245595479555954795AA
:102D400080910102881F8827881F90910202592FC5
:102D5000550F97FB992790F9970160910302852BF6
:102D60000E941112AB0CF1E0CF1AD108C114D104AA
:102D700089F6219683E0E80EF11C0D5F1F4FCC30E1
:102D8000D10509F0BCCF0E94E21280917B0191E055
:102D9000B91206C0811102C08BE007C0815005C086
:102DA00090E00196BE010E946A3480937B01DF911E
:102DB000CF911F910F91FF90EF90DF90CF90BF9038
:102DC000AF9008950F931F93CF93DF93C82F8091F7
:102DD000790190917A010E94E624EC2FF0E0E8520C
:102DE000F44FE491F0E08E179F0708F468C00E944A
:102DF000DA2490937A0180937901EDE0F2E0DF012B
:102E000011971C92DF0112971C921082339682E078
:102E1000E133F807A1F7C0E0D0E00CE010E0CE010C
:102E2000B8010E946A3420917801332727FD30953C
:102E3000FC01EE0FFF1FC217D3070CF12091020116
:102E4000332727FD30952C173D07CCF09F01280F25
:102E5000391F255F3D4F80910102881F8827881FF9
:102E600090910202592F550F97FB992790F94091A5
:102E7000040260910302852B0E94111207C0E80F23
:102E8000F91FE55FFD4F1182108212822196CC302E
:102E9000D10529F60E94E21220910101809178016A
:102EA000820F8093780190910201920F909302011A
:102EB000191614F48B301CF0219520930101DF9139
:102EC000CF911F910F910895EF92FF920F931F934F
:102ED000CF93DF9380917601909177010E94E62451
:102EE000883E9340C8F10E94DA2490937701809342
:102EF0007601C0917401D09175012196C170DD27D2
:102F0000D0937501C09374010BE012E0F12C78E7C7
:102F1000E72E8F2D8695FE01E80FF11DCF01817000
:102F2000992798014091040260910302FC01EE9EF2
:102F3000C001EF9E900D11240E941112F3940D5FB9
:102F40001F4FFCE0FF12E5CFDF91CF911F910F9152
:102F5000FF90EF900C94E212DF91CF911F910F91AF
:102F6000FF90EF90089580918901882391F120913D
:102F70000102822F86958F739EE3980F9F73943082
:102F800018F482500C946B159AE3980F9F7393304A
:102F900018F486500C94C11597E3980F9F739630E0
:102FA00018F489500C94F11591E3980F9F739630A3
:102FB00018F48F500C944E169BE2980F9F73933029
:102FC00018F485510C94E2162E77203311F40C94EA
:102FD000641708953BB1242F209523233BB1342B54
:102FE0004FB7F894FC01680F791FE617F70789F0CF
:102FF000819198E03BB9000000C087FF2BB9880F92
:10300000000000C000C000C02BB900C09A9591F725
:10301000ECCF4FBF08952AB1242B2AB99B01220F70
:10302000331F260F371FB9010E94EA1787EC90E083
:103030000197F1F700C00000089548E00C940B18C8
:103040009093900180938F010895E0918F01F0910A
:103050009001309721F00190F081E02D099480E0FB
:103060000895E0918F01F0919001309721F0028056
:10307000F381E02D09940895E0918F01F091900182
:10308000309721F00480F581E02D09940895209176
:103090008D0130918E018217930771F090938E010C
:1030A00080938D01E0918F01F0919001309721F094
:1030B0000680F781E02D0994089520918B013091CD
:1030C0008C018217930771F090938C0180938B0190
:1030D000E0918F01F0919001309721F00084F1850B
:1030E000E02D099408950C94290981E008950E9427
:1030F000D1240E946F070E9447250E9479290C94D1
:10310000F114CF92DF92EF92FF920F931F93CF9320
:10311000DF93CDB7DEB72B970FB6F894DEBF0FBEA7
:10312000CDBF0E94AB080E947518811111C08FEFAE
:1031300089838A831B820E94DA248160782F9D8391
:103140008C8349815A816B818D810E94291956C0D7
:1031500032E9E32E31E0F32E00E010E0C02E802FA4
:103160000E94F908F701D1907F01D82631F40F5F52
:103170001F4F0A30110591F7DACF9091E90191FFC5
:1031800004C08B870E94FF088B8520E030E04D2D26
:1031900050E0922FBA01022E02C0759567950A94ED
:1031A000E2F760FF25C02E83CF82EE24E394F12C5A
:1031B00002C0EE0CFF1C9A95E2F790E08E219F2151
:1031C00021E0892B09F420E028870E94DA2481601D
:1031D000782F9A8789874E815F8168858A850E94CA
:1031E0002919F801EE56FE4F80818E25808306C096
:1031F0002F5F3F4F2630310561F6B9CF0E94D926A7
:10320000109191010E9425181817A1F00E9425180D
:10321000809391012B960FB6F894DEBF0FBECDBF01
:10322000DF91CF911F910F91FF90EF90DF90CF90A2
:103230000C942C0F2B960FB6F894DEBF0FBECDBFAB
:10324000DF91CF911F910F91FF90EF90DF90CF9082
:103250000895CF93DF93CDB7DEB72B970FB6F894D1
:10326000DEBF0FBECDBF4F83588769877A878B87B4
:10327000DE01119686E0FD0111928A95E9F785E05D
:10328000FE01379601900D928A95E1F749815A81A6
:103290006B817C818D819E810E94AE202B960FB622
:1032A000F894DEBF0FBECDBFDF91CF910895FC0132
:1032B000808191810E9412230895CF93DF931F9202
:1032C000CDB7DEB7682F882309F402C18238C1F474
:1032D0000E94251881FDFCC069E380910301909153
:1032E00004010E944D240E9452232FEF81EE94E0AE
:1032F000215080409040E1F700C0000069E319C010
:10330000833811F50E94251880FDE2C063E58091A5
:103310000301909104010E944D240E945223EFEF7B
:10332000F1EE24E0E150F0402040E1F700C0000061
:1033300063E580910301909104010E944F240F9056
:10334000DF91CF910C9452238438C1F40E94251848
:1033500082FDBEC067E480910301909104010E9448
:103360004D240E9452238FEF91EEE4E08150904073
:10337000E040E1F700C0000067E4DBCF8CEF860F90
:10338000813A70F4862F69830E94E5286981811152
:103390009FC080910301909104010E944D24CFCFE2
:1033A00080E2860F883048F4677081E001C0880FA2
:1033B0006A95EAF70E948823C2CF8BE5860F833097
:1033C00088F4653A29F0663A31F482E890E005C065
:1033D00081E890E002C083E890E00F90DF91CF9108
:1033E0000C94471888E5860F853108F071C0683A5B
:1033F00061F1693A69F16A3A71F16B3A79F16C3AC3
:1034000081F16B3B89F16C3B91F16D3A99F1603B35
:10341000A1F16E3AA9F16F3AB1F1613BB9F1623BAA
:10342000C1F1633BC9F1643BD1F1653BD9F1663B26
:10343000E1F1673BE9F1683BF1F1693BF9F16A3B86
:1034400009F03FC08AE292E03EC082EE90E03BC0CD
:1034500089EE90E038C08AEE90E035C085EB90E0D0
:1034600032C086EB90E02FC083EB90E02CC084EB61
:1034700090E029C087EB90E026C08CEC90E023C060
:103480008DEC90E020C083E891E01DC08AE891E0D7
:103490001AC082E991E017C084E991E014C081E28A
:1034A00092E011C083E292E00EC084E292E00BC091
:1034B00085E292E008C086E292E005C087E292E0F1
:1034C00002C080E090E00F90DF91CF910C945D18E6
:1034D0000F90DF91CF910895882309F45DC0823861
:1034E00079F40E94251881FF57C069E38091030198
:1034F000909104010E944D240E94522369E310C060
:103500008338B1F40E94251880FF46C063E580919E
:103510000301909104010E944D240E94522363E50F
:1035200080910301909104010E944F240C94522336
:10353000843879F40E94251882FF2EC067E48091B8
:103540000301909104010E944D240E94522367E4DC
:10355000E7CF9CEF980F913A10F4682FE1CF90E2FB
:10356000980F983050F4877091E001C0990F8A95B8
:10357000EAF7892F0E948E23D9CF9BE5980F9330CD
:1035800020F480E090E00C944718885A853120F4AC
:1035900080E090E00C945D180895882321F00E944B
:1035A00088230C9452230895882321F00E948E23AF
:1035B0000C94522308958F929F92BF92CF92DF92E4
:1035C000EF92FF920F931F93CF93DF9300D0CDB76D
:1035D000DEB74C01472FFC01C580C2949FE0C92291
:1035E000D280DD2031F079836A830E94A5236A812D
:1035F000498149836A830E944B2349816A818823D8
:1036000089F0DD2079F080E2860F883058F082E082
:103610000E9434230E944B23BB24B394B8264981D3
:103620006A8101C0B12CE42EE2948FE0E822F12CF3
:10363000F701E958FF4F0C94A034842F807F142F9A
:103640001F70882311F01295107FDD20C1F0112327
:1036500009F4E1C180E2860F883010F0611105C0E5
:10366000812F6A830E94882304C0812F6A830E946D
:1036700098236A816A830E9452236A81CCC1862F73
:103680006A830E946C1A6A81112309F40BC280E2DA
:10369000860F883010F0611104C0812F0E948E23A4
:1036A00003C0812F0E949E230E945223FBC1842FBE
:1036B000807F142F1F70803211F01295107F6623C7
:1036C00019F06130D9F026C0DD2079F0CC2049F026
:1036D000F1E0CF1206C00E94BE23812B0E94B823C6
:1036E000E1C10E94BE23812B4AC1CC2021F021E000
:1036F000C21609F4D7C10E94BB2346C1DD2029F0C0
:1037000085E08C1508F4CEC139C194E09C1508F40D
:10371000C9C13AC1DD2051F0CC2009F42FC1F40118
:10372000858180FF78C18F70858328C1CC2009F402
:103730002BC182C1242F26952695237030E02115B8
:10374000310521F02130310561F0ACC1DD2021F0DF
:10375000862F942F937002C080E090E00E9447185B
:10376000B1C1DD2021F0862F942F937002C080E03C
:1037700090E00E945D18A6C1DD20F9F0653F51F090
:10378000663F71F0643FA9F480912F02909130025E
:1037900081600BC080912F0290913002826005C041
:1037A00080912F0290913002846090933002809338
:1037B0002F02862F0E94E12522C0653F51F0663F0F
:1037C00091F0643FC9F480912F02909130028E7F76
:1037D00005C080912F02909130028D7F909330022E
:1037E00080932F0209C020912F02309130022B7F4D
:1037F0003093300220932F02862F0E9449260E9488
:10380000CE2660C1842F837009F04EC0D11056C1FE
:10381000262F229526952770220F220F862F8F7034
:10382000C82ED12CE12CF12C022E04C0CC0CDD1CB6
:10383000EE1CFF1C0A94D2F764FF10C06FE070E02A
:1038400080E090E004C0660F771F881F991F2A95BB
:10385000D2F7609570958095909503C060E070E018
:10386000CB01242F26952695237030E02230310598
:1038700069F02330310589F06C297D298E299F2933
:103880002130310571F00E94FF2118C16C297D297A
:103890008E299F290E94112211C10E94FF21C70178
:1038A000B6010E94ED210AC1DD2019F0842F81703C
:1038B00001C08695882309F401C1262F22952695FB
:1038C0002770220F220F862F8F70C82ED12CE12C4B
:1038D000F12C022E04C0CC0CDD1CEE1CFF1C0A9443
:1038E000D2F764FF10C06FE070E080E090E004C0A9
:1038F000660F771F881F991F2A95D2F760957095DC
:103900008095909503C060E070E0CB01242F269550
:103910002695237030E02230310569F023303105DF
:1039200089F06C297D298E299F292130310571F07C
:103930000E94AD22C3C06C297D298E299F290E9437
:10394000BF22BCC00E94AD22C701B6010E949B22CB
:10395000B5C0062F10E0F801E05EF109E531F10590
:1039600008F055C0E957FF4F0C94A034162F1F7074
:10397000842F8F71DD2031F00E944622812F0E941A
:10398000CD1A90C00E946122812F0E94D41A8AC051
:10399000DD2049F0F4E0FC1508F484C0842F8F7119
:1039A0000E9480227FC025E02C1508F47BC0F6CF52
:1039B000DD2039F0842F8F710E94462273C0DD20F4
:1039C000C9F3842F8F710E9461226CC0DD2029F021
:1039D000842F8F710E94372265C00E94322262C0FC
:1039E000DD2051F0142F1F71812F0E94462263E0C9
:1039F000812F0E942B2356C081E00E94342381E056
:103A00008C1508F04FC082E00E9434234BC0DD20AB
:103A100031F0CC2079F2862F0E945D1943C0CC2072
:103A200081F2693349F49FEFE7EEF3E09150E04013
:103A3000F040E1F700C00000862F0E946C1A32C0EF
:103A40004F70C4010E94620A0E945B213BC0D110EA
:103A500039C0942F9F70892F90E08230910599F0A2
:103A60003CF4009769F00197E9F40E94B2292AC05A
:103A70008430910571F054F00597A1F480E00AC0FC
:103A80000E9496291FC00E94CE291CC00E94E829CE
:103A900019C085E00E940D2A15C04F70C4010E9414
:103AA0002E0F10C028E0E216F10441F05CF09AE01D
:103AB000E91AF108E2E0EE16F10420F40E9425185C
:103AC0000E942C0FBB20F1F00E94272380FD1AC01A
:103AD000F40112820E9421230E944622C4010E9406
:103AE000901D0E9421230F900F90DF91CF911F9185
:103AF0000F91FF90EF90DF90CF90BF909F908F90AD
:103B00000C9461220F900F90DF91CF911F910F9134
:103B1000FF90EF90DF90CF90BF909F908F9008958F
:103B20000F931F93CF93DF93EC01288139818B8111
:103B30009C81892B31F03F3F11F080E003C02F3F83
:103B4000E1F781E0811113C0CE010E943F0B882371
:103B500071F0688179818A810E941D238C010E9405
:103B6000D1220E94EA21B801CE010E94DB1ADF9126
:103B7000CF911F910F9108950E94A5230E94B52314
:103B800080910301909104010E9451240E945223CC
:103B90000E9462270E94CE2680E090E00E94471893
:103BA00080E090E00C945D180E9495230C94BC1D5D
:103BB0000E941223E92FE295EF70F0E03297EE3089
:103BC000F105B8F4E456FF4F0C94A034803F59F04F
:103BD00018F4803E70F407C0843F59F404C0803E5E
:103BE00010F0813F31F481E0089593FB882780F93C
:103BF000089580E00895CF93DF9300D000D01F9206
:103C0000CDB7DEB70F900F900F900F900F90DF9110
:103C1000CF910895CF93DF9300D000D000D0CDB7DF
:103C2000DEB726960FB6F894DEBF0FBECDBFDF918C
:103C3000CF9108951F93CF93DF93C0919C0116E01D
:103C400080919D01C81799F0D0E01C9FF0011D9F45
:103C5000F00D1124E256FE4F408151816281738143
:103C6000848195810E940A1E2196C770E9CFDF9159
:103C7000CF911F9108954091CE015091CF01609155
:103C8000D0017091D1018091D2019091D3010C9417
:103C90000A1ECF938091D30182958F7009F05FC087
:103CA0008091D001882309F45AC020919C01A091F1
:103CB0009D016091CE017091CF018091D1019091D1
:103CC000D20131E06F3F09F030E0B32FC6E02A1790
:103CD00009F445C0009721F07F3F21F44B2F03C02A
:103CE00041E001C040E030E040FD35C0C29FF0013E
:103CF000C39FF00D1124E256FE4F418174132BC077
:103D00004081641328C04281411125C04381548100
:103D10004817590710F441505109481B590B483CAA
:103D20005105C8F48091D3018F7080618093D301D5
:103D300086E0829FF001839FF00D1124ED55FE4F28
:103D400080818F70806180838EEC91E00E94901D55
:103D5000CF910C941A1E2F5F3F4F2770B8CFCF9191
:103D60000895CF92DF92EF92FF920F931F93CF931C
:103D7000DF93CDB7DEB762970FB6F894DEBF0FBE04
:103D8000CDBF8C0185E0F801DE011D9601900D92FA
:103D90008A95E1F7D8014C9111965C911197129692
:103DA0006C9112971396ED90FC9014977091CE0140
:103DB000E091CF012091D1013091D201211531053F
:103DC00031F0EF3F31F481E07F3F19F403C081E02F
:103DD00001C080E0B82FB170CB2E80FD6BC1D090B8
:103DE000D001DD2009F4F5C0F091D301E216F3060D
:103DF00038F0C701821B930B883C910548F09DC0A9
:103E0000209530952E0D3F1D283C310508F095C0BA
:103E10008F2F807F09F052C0E51314C0741312C0B5
:103E2000D62E61110FC0FF70F061F093D3010E9494
:103E30003B1E8EEC91E00E94901D8091D301F80111
:103E400085837CC1EF2831F05F3F31F481E04F3F43
:103E500019F403C081E001C080E080FD03C081E06F
:103E6000862701C080E0F82FF170FF2E80FF1CC074
:103E700080919C0120919D0136E0821709F438C1A0
:103E800090E0389FF001399FF00D1124E256FE4F6B
:103E90007181571306C07081471303C07281671385
:103EA00003C001968770E9CFD62E662309F446C178
:103EB0008091D30181608093D30155C0E51308C080
:103EC000741306C0611104C0D8011596FC93AEC0EE
:103ED0004D875E878D859E856A8B0E94D81D6A8975
:103EE000882329F1D62E662311F12091D301822F48
:103EF00082958F7090E002970CF462C08091CE01A1
:103F00009091CF0198878F831986FB86EA862C874C
:103F1000CE01079653C0E51741F14D875E878D8529
:103F20009E856A8B0E94D81D6A89811130C0C801A4
:103F30000E94901DDD24D39401C18F2F807F59F7FB
:103F40007E2DF98AE88A89890E94FB1D8EEC91E01A
:103F50000E94901DEEECF1E086E0DF011D928A9553
:103F6000E9F70E943B1ED12CE9C07413D6CF611132
:103F7000D4CFD8011596FC93C8010E94901DEEEC99
:103F8000F1E086E0DF011D928A95E9F7D7C0D62ED1
:103F9000662369F22091D301822F82958F7090E081
:103FA000029774F08091CE019091CF019A8389831A
:103FB0001B82FD82EC822E83CE0101960E94901D11
:103FC00086E0F801AEECB1E001900D928A95E1F740
:103FD0008AC0E216F30628F0C701821B930B9C01EE
:103FE00004C0209530952E0D3F1D283C310508F06A
:103FF00053C0D62E662309F49ACFE5132CC0741350
:104000002AC08091D30180FD1DC0982F92959F708A
:10401000C9F0D80115968C9315979F3039F09F5FA2
:104020009295907F8F70892B15968C93C8010E9472
:10403000901D86E0F801AEECB1E001900D928A95FA
:10404000E1F753C086E0F801AEECB1E001900D92CB
:104050008A95E1F773C04D875E878D859E850E94A6
:10406000D81D882381F096E0F801AEECB1E0019014
:104070000D929A95E1F78A8B0E94491E0E943B1E81
:104080008A89D82E5BC08091D30181608093D3014F
:10409000C8010E94901D52C07E2DF98AE88A898944
:1040A0000E94FB1DEEECF1E086E0DF011D928A9597
:1040B000E9F71BC0662309F43ACF4D875E878D85EB
:1040C0009E850E94D81DD82E882309F430CF86E023
:1040D000F801AEECB1E001900D928A95E1F78EEC1B
:1040E00091E00E9457190E94491E0E943B1E26C063
:1040F0004D875E878D859E850E941223292F2295EC
:104100002F7030E0223031052CF49F7041F0811186
:1041100006C00CC0243031052CF49F7049F4805E39
:10412000883020F0C8010E94901DCF2CDC2C06C0E6
:10413000D80115969C91907F91F7F8CF8D2D6296BE
:104140000FB6F894DEBF0FBECDBFDF91CF911F91A8
:104150000F91FF90EF90DF90CF9008951F93CF9332
:10416000DF93CDB7DEB72C970FB6F894DEBF0FBE46
:10417000CDBF4F83588769877A878B879C87CE010D
:1041800007960E94B11E8823C1F02F8138858A8549
:104190009B85892B31F03F3F11F080E003C02F3F1A
:1041A000E1F781E0811147C04F81588569857A85A3
:1041B0008B859C850E940A1E3EC086E0FE013796D4
:1041C000DE01119601900D928A95E1F7FF81E88555
:1041D0004A855B854115510531F0EF3F31F481E0AF
:1041E000FF3F19F403C081E001C080E080FD23C0DF
:1041F00020919D0130E0C901019687709927609157
:104200009C0170E086179707F1F1F983EA835D83DB
:104210004C8396E0929FD001939FB00D1124A2563B
:10422000BE4FFE01319601900D929A95E1F7809371
:104230009D010E941A1E16E080919C0190919D01A3
:10424000891779F1189FC001112482569E4F0E9450
:10425000B11E882331F1E0919C011E9FF0011124D1
:10426000E256FE4F40815181628173818481958144
:104270000E940A1E80919C0190E001968770992708
:1042800080939C01D9CF0E94D41D10929D01109261
:104290009C01EEECF1E086E0DF011D928A95E9F7E2
:1042A000CACF2C960FB6F894DEBF0FBECDBFDF91FC
:1042B000CF911F910895EF92FF920F931F93CF9389
:1042C000DF939C01009709F471C0F12CEE24E39474
:1042D000E9012196F9018491843740F4843008F093
:1042E00056C0813081F0823021F160C0853709F4F9
:1042F00049C0C0F19CE7980F903708F057C08F77FE
:104300000E946C1A46C089010E5F1F4FFE01849106
:1043100090E2980F983050F48770FE2D01C0FF0F87
:104320008A95EAF78F2F0E94A82315C00E945D1975
:1043300014C089010E5F1F4FFE01849190E2980F17
:10434000983068F48770FE2D01C0FF0F8A95EAF758
:104350008F2F0E94AE230E945223E8011AC00E94B0
:104360006C1AFBCF2E5F3F4FFE01C491CC2341F06E
:104370008FE99FE00197F1F700C00000C150F6CF30
:10438000E90107C0FE01F490E901229602C00E94F3
:104390005D198F2D882341F0EFE9FFE03197F1F7A8
:1043A00000C000008150F6CF9E0192CFDF91CF91E7
:1043B0001F910F91FF90EF90089508950E94DD21C5
:1043C0006093D8017093D9018093DA019093DB0157
:1043D0000C94BC1D08950C94DE210F931F93009143
:1043E000D8011091D9012091DA013091DB01602BC5
:1043F000712B822B932B1F910F910C94DE210F9325
:104400001F930091D8011091D9012091DA013091C8
:10441000DB0160237123822393231F910F910C945E
:10442000DE210F931F930091D8011091D9012091A3
:10443000DA013091DB0160277127822793271F91D2
:104440000F910C94DE2108950C9423220E942422C3
:104450006093D4017093D5018093D6019093D701D6
:104460000C94BC1D60E070E0CB010C94262241E06E
:1044700050E060E070E004C0440F551F661F771FD6
:104480008A95D2F7CB01BA010C94262241E050E084
:1044900060E070E004C0440F551F661F771F8A95C7
:1044A000D2F78091D4019091D501A091D601B0911D
:1044B000D701482B592B6A2B7B2BCB01BA010C94CB
:1044C000262241E050E060E070E004C0440F551F38
:1044D000661F771F8A95D2F7409550956095709525
:1044E0008091D4019091D501A091D601B091D701CE
:1044F000482359236A237B23CB01BA010C9426223B
:1045000041E050E060E070E004C0440F551F661FBA
:10451000771F8A95D2F78091D4019091D501A0910F
:10452000D601B091D701482759276A277B27CB01AD
:10453000BA010C9426220F931F930091D40110917D
:10454000D5012091D6013091D701602B712B822BA0
:10455000932B1F910F910C9426220F931F93009180
:10456000D4011091D5012091D6013091D70160235B
:104570007123822393231F910F910C9426220F9372
:104580001F930091D4011091D5012091D601309153
:10459000D70160277127822793271F910F910C94D1
:1045A00026220895CF92DF92EF92FF920F931F93EE
:1045B000CF93DF93EC01C090D801D090D901E09067
:1045C000DA01F090DB018091D4019091D501A091A6
:1045D000D601B091D701C82AD92AEA2AFB2A0FE1CD
:1045E00010E0B701A601002E04C076956795579597
:1045F00047950A94D2F740FD05C00150110988F78C
:1046000080E007C0BE01802F0E94490F0197A9F3E7
:10461000802FDF91CF911F910F91FF90EF90DF904E
:10462000CF900895CF93DF93EC010E94D222BE0178
:104630000E94490FDF91CF910895CB010E94122370
:1046400008958091DC0185958595859508958091E3
:10465000DC018770089598E0899F90011124622BF6
:104660006093DC010C9446224091DC018095842308
:104670008093DC01982F977069F450E0282F33273E
:1046800027FD30954217530729F085958595859527
:104690000C94612208959091DC01977081E009F4F7
:1046A00080E00895E0910301F09104018091E80118
:1046B0008083E0910301F091040180819091E701F2
:1046C000892B8083E0910301F09104018081909116
:1046D000E601892B80839091DD01992381F0E0919F
:1046E0000301F09104018081892B80838091030173
:1046F000909104010E94112481111092DD0180919A
:104700000301909104010C9431188091E8010895FF
:104710009091E801982B9093E801089580959091ED
:10472000E80198239093E80108951092E801089514
:104730009091E701982B9093E701089580959091CF
:10474000E70198239093E70108951092E7010895F7
:104750009091E601982B9093E601089580959091B1
:10476000E60198239093E60108951092E6010895DA
:104770008093DD0108951092DD0108958091DD019F
:1047800008956DEE7EEF80E090E00E94E33460E0FB
:1047900082E090E00E94C53460E083E090E00E94F7
:1047A000C53460E084E090E00E94C53460E085E0BC
:1047B00090E00E94C53460E086E090E00E94C5343D
:1047C00040E050E0BA0188E090E00C94D73480E0FB
:1047D00090E00E94BF3421E08D3E9E4F09F020E022
:1047E000822F089582E090E00C94B13483E090E051
:1047F0000C94B134682F83E090E00C94C53484E0CD
:1048000090E00C94B134682F84E090E00C94C534AF
:1048100086E090E00C94B134682F86E090E00C9430
:10482000C53420E030E040E0FC01E20FF31F51818D
:1048300051114F5F2F5F3F4F27303105A9F7842F6C
:10484000089520E030E04FEFFC01E20FF31F5281AA
:10485000561799F04F3F19F4511101C0422F2F5FA5
:104860003F4F2630310581F74F3F39F0FC01E40F0F
:10487000F11D47FDFA9562830895089520E030E028
:10488000FC01E20FF31F4281461301C012822F5F29
:104890003F4F26303105A1F708950C9421240C9444
:1048A0003E2420E030E0FC01E20FF31F11822F5F75
:1048B0003F4F27303105B9F7089580913C0284308D
:1048C00039F11092EA0120E488E190E00FB6F89403
:1048D000A895809360000FBE2093600080E00E9446
:1048E000BB0E80E00E942C0F83B7817F846083BF62
:1048F00083B7816083BF7894889583B78E7F83BFA9
:1049000088E10FB6F89480936000109260000FBEAB
:10491000089508950895CF930E9489240E94AB08BA
:104920000E948A24C0E08C2F0E94F908811105C0E2
:10493000CF5FCA30C1F780E001C081E0CF91089518
:104940000E94D41D0E9479290E9425180C942C0FD6
:104950001F920F920FB60F9211248F939F93AF93D4
:10496000BF938091EA01811113C08091310290912F
:104970003202A0913302B09134024196A11DB11DC3
:104980008093310290933202A0933302B0933402A9
:10499000BF91AF919F918F910F900FBE0F901F907D
:1049A000189582E084BD93E095BD9AEF97BD809302
:1049B0006E0008952FB7F8948091310290913202E1
:1049C000A0913302B09134022FBF0895CF92DF92AD
:1049D000EF92FF920F931F932FB7F89440913102FB
:1049E0005091320260913302709134022FBF6A01FC
:1049F0007B01EE24FF248C0120E030E0C016D106BC
:104A0000E206F30610F441505109481B590BCA0144
:104A10001F910F91FF90EF90DF90CF9008957894C1
:104A20001F920F920FB60F9211248F939F93AF9303
:104A3000BF938091310290913202A0913302B091E4
:104A400034020196A11DB11D809331029093320270
:104A5000A0933302B0933402BF91AF919F918F9195
:104A60000F900FBE0F901F90189587E797E79093D0
:104A70000108809300082AE088E190E00FB6F894DE
:104A8000A895809360000FBE20936000FFCF0E9426
:104A9000E723811102C00E94C1230E94F223809368
:104AA000E9010E94FF2390E0909336028093350243
:104AB0000E94F623682F70E080E090E00C94EB21D8
:104AC0008091ED0180FF0BC06091080185E0689F37
:104AD000B001112475956795759567952AC081FF7A
:104AE00009C06091080185E0689FB00111247595A7
:104AF00067951FC082FF07C06091080185E0689F2D
:104B0000B001112416C04091EE014423C9F0609118
:104B10000701461788F72091080185E0289F90013A
:104B20001124429FC001439F900D112470E00E9408
:104B30006A346038710540F46115710539F002C0BE
:104B400065E070E0862F08958FE7089581E008956D
:104B50008091ED0180FF08C06091060170E07595BD
:104B600067957595679521C081FF06C06091060124
:104B700070E07595679519C082FF04C060910601C9
:104B800070E010C08091EE018823C1F060910501B2
:104B90008617A0F790910601989FC001112470E03C
:104BA0000E946A346038710528F46115710521F09E
:104BB000862F08958FE7089581E0089561E070E001
:104BC000F4CF803F21F40E946025819504C0813F8D
:104BD00029F40E9460258093F1010895823F21F419
:104BE0000E946025819504C0833F29F40E946025BE
:104BF0008093F0010895893F19F40E94A82505C00B
:104C00008A3F31F40E94A82581958093F20108958E
:104C10008B3F21F40E94A825819504C08C3F29F484
:104C20000E94A8258093F3010895843F21F4809188
:104C3000EF01816017C0853F21F48091EF01826010
:104C400011C0863F21F48091EF0184600BC0873F43
:104C500021F48091EF01886005C0883F31F4809194
:104C6000EF0180618093EF0108958D3F21F48091E1
:104C7000ED0181600BC08E3F21F48091ED018260D7
:104C800005C08F3F29F48091ED0184608093ED0190
:104C90000895803F39F48091F10187FF6CC0109234
:104CA000F10169C0813F29F48091F1011816BCF32C
:104CB00062C09091F001823F29F497FF5CC010928E
:104CC000F00159C0833F19F41916CCF354C0893F41
:104CD00041F48091F20118160CF04DC01092F201CF
:104CE0004AC08A3F29F48091F20187FF44C0F6CF81
:104CF0008B3F39F48091F30187FF3DC01092F3019F
:104D00003AC08C3F29F48091F3011816BCF333C0EC
:104D1000843F21F48091EF018E7F17C0853F21F4FD
:104D20008091EF018D7F11C0863F21F48091EF01CA
:104D30008B7F0BC0873F21F48091EF01877F05C0F7
:104D4000883F31F48091EF018F7E8093EF0113C093
:104D50008D3F21F48091ED018E7F0BC08E3F21F4B9
:104D60008091ED018D7F05C08F3F29F48091ED0189
:104D70008B7F8093ED018091F00181110EC08091B5
:104D8000F10181110AC08091F201811106C0809168
:104D9000F301811102C01092EE0108958FEE91E0AF
:104DA0000E943C180E94DA249093EC018093EB015E
:104DB00008951F93CF93DF938091EB019091EC01C5
:104DC0000E94E6244091EE01442321F02091090144
:104DD00030E006C020910A015AE0259F900111247D
:104DE0008217930708F46AC08091F0011091F101D5
:104DF000D091F201C091F301811107C0111105C0DA
:104E0000D11103C0CC2309F459C04F3F19F04F5FB3
:104E10004093EE01181624F40E9460258093F0015F
:104E20008091F00187FF05C00E94602581958093E5
:104E3000F001111624F40E9460258093F101809105
:104E4000F10187FF05C00E94602581958093F101E3
:104E50002091F001222379F04091F101442359F08F
:104E600055EB2503900111243093F0014503C00157
:104E700011249093F1011D1624F40E94A82580931B
:104E8000F2018091F20187FF05C00E94A82581955B
:104E90008093F2011C1624F40E94A8258093F3014C
:104EA0008091F30187FF05C00E94A825819580931A
:104EB000F301DF91CF911F910C94CE26DF91CF911A
:104EC0001F910895EFEEF1E085E0DF011D928A95D4
:104ED000E9F71092EE011092ED010895833081F10F
:104EE00028F4813059F08230D1F00895853009F4EA
:104EF00049C0B8F1863009F456C0089520910A01DE
:104F0000862F90E0820F911D8F3F910520F4620F54
:104F100060930A0108958FEF80930A01089520910C
:104F20000901862F90E0820F911D8F3F910520F49B
:104F3000620F6093090108958FEF8093090108952E
:104F400020910801862F90E0820F911D8F3F9105DF
:104F500020F4620F6093080108958FEF8093080199
:104F6000089520910701862F90E0820F911D8F3FB9
:104F7000910520F4620F6093070108958FEF8093ED
:104F80000701089520910601862F90E0820F911D60
:104F90008F3F910520F4620F6093060108958FEF13
:104FA00080930601089520910501862F90E0820FDD
:104FB000911D8F3F910520F4620F609305010895C4
:104FC0008FEF809305010895833011F128F481302B
:104FD00049F0823091F00895853081F120F18630DA
:104FE000C1F1089580910A01681720F4861B80930F
:104FF0000A01089510920A01089580910901681725
:1050000020F4861B809309010895109209010895E8
:1050100080910801681720F4861B80930801089589
:1050200010920801089580910701681720F4861BEB
:105030008093070108951092070108958091060159
:10504000681720F4861B80930601089510920601CC
:10505000089580910501681720F4861B809305014F
:1050600008951092050108958732F8F48E3108F002
:1050700085C08E3009F465C048F4873009F447C014
:105080008B3009F491C0863051F127C0863109F484
:105090008BC020F4803109F45EC01FC0893109F44F
:1050A00083C08B3109F443C018C0883309F47CC035
:1050B00050F4893209F470C0853309F46DC0873229
:1050C00009F46AC00AC0833409F466C020F48A3344
:1050D00008F052C002C0883461F080E008958091E9
:1050E000E901817F8E7F8093E90181E08093F50162
:1050F00008950E94D41D2FEF83ED90E3215080404E
:105100009040E1F700C000000E9435254DC090910D
:10511000E901892F8095817080FB90F99093E901D6
:10512000811142C0997F977F9093E9013DC0909192
:10513000E90191FB882780F921E0822780FB91F922
:1051400013C09091E90192FB882780F921E0822722
:1051500080FB92F909C09091E90193FB882780F9BF
:1051600021E0822780FB93F99093E9018823E1F005
:1051700091609093E901089527EC01C023EE280F78
:1051800061E070E080E090E004C0660F771F881F48
:10519000991F2A95D2F704C061E070E080E090E0AA
:1051A0000E94EB210E94D41D81E0089580E00895C3
:1051B00080E008958E518A3030F4E82FF0E0EA5D07
:1051C000FE4F8081089580E00895CF93C82F80918D
:1051D000F501813069F018F08230B1F180C0E091C2
:1051E0000301F09104018081823209F07AC007C086
:1051F000E0910301F09104018081823249F48C2F07
:105200000E94D62881111DC08C2F0E9434281AC0FC
:105210008C2F0E94D828811114C0C43179F048F431
:10522000CB3079F0C03109F060C082E08093F501A5
:1052300008C0C93219F0C83321F057C01092F501E7
:1052400054C081E0817053C0C93289F118F5C4316E
:1052500071F1B0F4C73009F046C08EE180930A01C5
:1052600082E3809309018AE08093080184E18093BE
:10527000070188E08093060188E28093050133C02E
:1052800082EE8C0F863078F58C2F0E94DA2880937E
:10529000F40129C0CE34E9F020F4CB3421F56AE0E2
:1052A00013C0C13579F0C235F1F461E00DC08091D1
:1052B000F401882319F01092F40115C081E0809365
:1052C000F50115C061E006C08091F4010E946E27CF
:1052D0000AC06AE08091F4010E94E42704C01092A1
:1052E000F50180E004C081E002C080E0ABCFCF9147
:1052F00008950E94E723811102C00E94C1230E94E9
:10530000082480933702282F269530E02630310577
:1053100024F081708A60809337028091370280FF89
:1053200002C0869501C080E00C94BB0E209137022C
:10533000322F3695832F90E0059744F491E0930F38
:10534000990F822F8170892B8093370280913702C9
:105350008160809337020E940C24809137028695E9
:105360000C94BB0E80913702982F969591F091582E
:10537000990F8170892B809337028E7F91E009F419
:1053800090E08091370290FB80F9809337020E9471
:105390000C248091370286950C94BB0E80913702C5
:1053A000982F909590FB80F980933702813019F403
:1053B00083E080933702809137020E940C24809111
:1053C000370280FF02C0869501C080E00C94BB0EBE
:1053D00030913702232F26952F5F2F77822F90E071
:1053E000317006972CF4220F232B2093370202C032
:1053F00030933702809137028E7F91E009F490E07C
:105400008091370290FB80F9809337020E940C2430
:105410008091370286950C94BB0E863008F085E0AB
:10542000880F909137029170982B909337029E7F4E
:1054300021E009F420E08091370220FB80F980937D
:1054400037020E940C248091370286950C94BB0E83
:1054500080913702869508958091FE0108950F93FB
:105460001F93CF93DF9300D01F92CDB7DEB78C018F
:105470000E947D2C823011F0843019F583E08983FD
:105480001B830A838093E9008FEF9091E80081509D
:1054900095FD06C095ED9A95F1F700008111F5CFC5
:1054A0008091E80085FF0DC040E050E063E070E0CF
:1054B000CE0101960E949A2C8091E8008E7780930D
:1054C000E8000F900F900F90DF91CF911F910F91F7
:1054D0000895CF93DF9300D01F92CDB7DEB7209110
:1054E0003C02243031F522E02983805891099B83C6
:1054F0008A8383E08093E9008FEF9091E8008150E8
:1055000095FD06C095ED9A95F1F700008111F5CF54
:105510008091E80085FF0DC040E050E063E070E05E
:10552000CE0101960E949A2C8091E8008E7780939C
:10553000E8000F900F900F90DF91CF910895CF93D7
:10554000DF93EC010E947D2C823011F08430F9F45D
:1055500082E08093E9008FEF9091E800815095FD03
:1055600006C095ED9A95F1F700008111F5CF809175
:10557000E80085FF0CC040E050E065E070E0CE013F
:105580000E949A2C8091E8008E778093E800DF914A
:10559000CF910895CF93DF93EC010E947D2C823050
:1055A00011F0843039F581E08093E9008FEF90911C
:1055B000E800815095FD06C095ED9A95F1F7000041
:1055C0008111F5CF8091E80085FF14C040E050E0E4
:1055D00068E070E0CE010E949A2C8091E8008E77FE
:1055E0008093E80088E0FE01A6EFB1E001900D9203
:1055F0008A95E1F7DF91CF91089580913B02811167
:1056000009C00E942C2E0E94892E8091E2008460A5
:105610008093E200089510923B0208950895089542
:105620000C94A02442E061EC81E00E94A62D42E0AF
:1056300061EC82E00E94A62D42E061EC83E00C94D4
:10564000A62D80913E02833009F453C030F481309E
:1056500071F0823009F48CC008958A3009F478C062
:105660008B3009F45EC0893009F09AC020C0809167
:105670003D02813A09F094C08091E800877F8093D1
:10568000E8008091410290914202892B21F060E074
:1056900080E090E003C068E086EF91E070E00E9457
:1056A000E32C8091E8008B778093E8000895809147
:1056B0003D02813209F074C0809141029091420212
:1056C000892B09F06DC08091E800877F8093E80006
:1056D0008091E80082FD05C080913C028111F8CFE5
:1056E0005FC08091F1008093FE018091E8008B778C
:1056F00053C080913D02813A09F052C0809141022D
:1057000090914202892B09F04BC08091E800877F7D
:105710008093E8008091E80080FFFCCF8091150124
:1057200036C080913D028132D9F58091410290913D
:105730004202892BA9F58091E800877F8093E800D9
:105740000E94DB2D80913F02809315010C94D41DA3
:1057500080913D02813221F58091E800877F80931E
:10576000E8000E94DB2D809140028093FF010895A4
:1057700080913D02813AA1F48091E800877F809377
:10578000E8008091E80080FFFCCF8091FF018093CA
:10579000F1008091E8008E778093E8000C94DB2D77
:1057A000089584B7877F84BF88E10FB6F89480930B
:1057B0006000109260000FBE80E88093610010923C
:1057C00061000E9473180E942C2E0E94892E8091E5
:1057D000E20084608093E20078940E940C310E9481
:1057E00077188BE091E00E94201880913C02853070
:1057F00069F40E945D2480913A028823B1F30E94EB
:105800008B24882391F30E94842CEFCF0E9481186F
:105810000E94B317EACF0C940D2C292F3327233085
:105820003105A9F06CF42130310509F448C022306B
:10583000310509F049C084E590E020E23DE048C030
:1058400021323105F9F02232310549F13DC0992765
:105850008130910571F02CF4892BB1F5ECE1FDE07C
:105860000DC08230910541F0039771F5E8EEFCE040
:1058700005C0ECE0FDE002C0EEEEFCE0849190E0BB
:105880009F0126C063307105F8F4FB01EE0FFF1F86
:10589000E75CFE4F2081318189E090E019C06330E0
:1058A000710590F4FB01EE0FFF1FED5CFE4F2081B0
:1058B0003181FB01E05DFE4F808190E009C082E113
:1058C00090E024E73DE004C080E090E020E030E09C
:1058D000FA013183208308950895CF93C82F0E9441
:1058E0006C2CC0930002CF91089580913C028430CB
:1058F00011F482E0089581E0089580910002811101
:1059000002C00C94752C089580E189BD82E189BDA7
:1059100009B400FEFDCF8091D8008F7D8093D80020
:105920008091E00082608093E0008091E00081FD42
:10593000FCCF0895CF92DF92EF92FF920F931F93C7
:10594000CF93DF937C018B01EA010E94FC2D811132
:1059500031C0209731F088819981081B190BE80E1E
:10596000F91EC12CD12C0115110519F18091E80007
:1059700085FD14C08091E8008E778093E800209721
:1059800041F0888199818C0D9D1D9983888385E0E4
:1059900011C00E94FC2D882331F30CC0F7018191C6
:1059A0007F018093F10001501109FFEFCF1ADF0A48
:1059B000DACF80E0DF91CF911F910F91FF90EF90B0
:1059C000DF90CF9008952091430230914402261732
:1059D000370748F06115710539F42091E8002E77FA
:1059E0002093E80001C0B901FC0120E061157105B8
:1059F000B9F180913C02882309F440C0853009F454
:105A00003FC08091E80083FD3DC08091E80082FFA7
:105A100006C08091E80082FF26C080E00895809152
:105A2000E80080FFE3CF2091F3008091F20090E046
:105A3000922B6115710551F08830910538F4219150
:105A40002093F100615071090196F3CF21E008978E
:105A500009F020E08091E8008E778093E800C6CFBF
:105A60002111C7CFD6CF80913C02882339F08530F1
:105A700039F08091E80083FFCCCF04C082E0089524
:105A800083E0089581E0089520914302309144021B
:105A90002617370748F06115710539F42091E800A1
:105AA0002E772093E80001C0B901FC0120E06115C8
:105AB0007105C1F180913C02882309F441C0853011
:105AC00009F440C08091E80083FD3EC08091E80069
:105AD00082FF06C08091E80082FF27C080E0089521
:105AE0008091E80080FFE3CF2091F3008091F200E5
:105AF00090E0922B6115710559F08830910540F4C2
:105B000024912093F1003196615071090196F2CFF2
:105B100021E0089709F020E08091E8008E778093DB
:105B2000E800C5CF2111C6CFD5CF80913C02882394
:105B300039F0853039F08091E80083FFCBCF04C085
:105B400082E0089583E0089581E00895982F9730CA
:105B500058F59093E900981739F07091EC00209176
:105B6000ED005091F00003C0242F762F50E021FF6C
:105B700019C03091EB003E7F3093EB003091ED0087
:105B80003D7F3093ED003091EB0031603093EB00BE
:105B90007093EC002093ED005093F0002091EE0004
:105BA00027FF07C09F5FD3CF8F708093E90081E00C
:105BB000089580E0089580913D0287FD05C08091A1
:105BC000E80080FF0EC012C08091E80082FD05C091
:105BD00080913C028111F8CF08958091E8008B7785
:105BE00008C080913C028111EACF08958091E800BD
:105BF0008E778093E80008958091E4009091E5000D
:105C000045E62091EC0020FF21C02091E80020FD16
:105C100021C020913C02222389F0253089F0209177
:105C2000EB0025FD0FC02091E4003091E50028171E
:105C3000390739F3415041F0C901E3CF82E00895BB
:105C400083E0089581E0089584E008952091E800BC
:105C500022FFDFCF80E008950E949A2E0E94A22E9C
:105C6000E0EEF0E0808181608083E8EDF0E080810B
:105C70008F77808319BCA7EDB0E08C918E7F8C93D9
:105C800080818F7E808310923B0208950F931F9333
:105C9000CF93DF930E949A2E0E94A22EC8EDD0E0EF
:105CA00088818F77888388818068888388818F7DC9
:105CB000888319BC10923C021092380210923A026A
:105CC0001092390200EE10E0F80180818B7F808312
:105CD00088818160888342E060E080E00E94A62D98
:105CE000E1EEF0E080818E7F8083E2EEF0E0808163
:105CF00081608083808188608083F80180818E7FCD
:105D00008083888180618883DF91CF911F910F917B
:105D10000895E8EDF0E080818F7E8083E7EDF0E08C
:105D200080818160808384E082BF81E080933B0238
:105D30000C94462EE8EDF0E080818E7F80831092F7
:105D4000E20008951092DA001092E10008951F9287
:105D50000F920FB60F9211242F933F934F935F939F
:105D60006F937F938F939F93AF93BF93EF93FF9323
:105D70008091E10082FF0BC08091E20082FF07C0AA
:105D80008091E1008B7F8093E1000E940B31809134
:105D9000DA0080FF1FC08091D80080FF1BC0809177
:105DA000DA008E7F8093DA008091D90080FF0DC0E9
:105DB00080E189BD82E189BD09B400FEFDCF81E0AB
:105DC00080933C020E94FD2A05C019BC10923C023F
:105DD0000E940B2B8091E10080FF19C08091E200AE
:105DE00080FF15C08091E2008E7F8093E200809159
:105DF000E20080618093E2008091D800806280930D
:105E0000D80019BC85E080933C020E940F2B809142
:105E1000E10084FF30C08091E20084FF2CC080E16B
:105E200089BD82E189BD09B400FEFDCF8091D80013
:105E30008F7D8093D8008091E1008F7E8093E10078
:105E40008091E2008F7E8093E2008091E200816089
:105E50008093E20080913802882311F084E007C02B
:105E60008091E30087FF02C083E001C081E080935E
:105E70003C020E94102B8091E10083FF29C0809199
:105E8000E20083FF25C08091E100877F8093E100DD
:105E900082E080933C02109238028091E1008E7F74
:105EA0008093E1008091E2008E7F8093E2008091F8
:105EB000E20080618093E20042E060E080E00E94C6
:105EC000A62D8091F00088608093F0000E940E2B38
:105ED000FF91EF91BF91AF919F918F917F916F91C2
:105EE0005F914F913F912F910F900FBE0F901F9098
:105EF00018951F920F920FB60F9211242F933F9374
:105F00004F935F936F937F938F939F93AF93BF93C1
:105F1000CF93EF93FF93C091E900CF708091EC0095
:105F20001092E9008091F000877F8093F0007894D0
:105F30000E94B52F1092E9008091F0008860809354
:105F4000F000C093E900FF91EF91CF91BF91AF9125
:105F50009F918F917F916F915F914F913F912F9181
:105F60000F900FBE0F901F9018951F93CF93DF9344
:105F7000CDB7DEB7AA970FB6F894DEBF0FBECDBF80
:105F8000EDE3F2E08091F100819322E0E534F20745
:105F9000C9F70E94212B8091E80083FF24C1209142
:105FA0003D0230913E02832F90E08A30910508F047
:105FB0001AC1FC01E655FF4F0C94A034203821F0A3
:105FC000223809F010C108C08091390290913A023C
:105FD000992389F082600FC0809141028F708730D1
:105FE00008F001C18093E9008091EB0085FB8827D0
:105FF00080F91092E9009091E800977F9093E80073
:106000008093F1001092F100CCC0822F8D7F09F0B7
:10601000EAC0222319F0223061F0E5C080913F02EE
:10602000813009F0E0C0333009F080E080933A021B
