:100000000C948A080C94DD0A0C94CE080C94CE084B
:100010000C94CE080C94CE080C94CE080C94CE0808
:100020000C94CE080C94CE080C94EB280C94BD29AB
:100030000C948E1F0C94CE080C94CE080C94CE0811
:100040000C94CE080C94CE080C94CE080C94CE08D8
:100050000C94CE080C94F51F0C94CE080C94CE088A
:100060000C94CE080C94CE080C94CE080C94CE08B8
:100070000C94CE080C94CE080C94CE080C94CE08A8
:100080000C94CE080C94CE080C94CE080C94CE0898
:100090000C94CE080C94CE080C94CE080C94CE0888
:1000A0000C94CE080C94CE080C94CE08010C060CCF
:1000B0000B0C130C1B0C200C3B0C800C800C800CCC
:1000C000400C480C500C550C5A0C5F0C6F0D750D04
:1000D000790D7C0D800D840D880D8C0D910D950D85
:1000E000990D9D0DA00DA40DA80DAC0DB00DB50D75
:1000F00018161816521652169516B71626182618E0
:10010000FD162618A417A4171A1826182618211841
:10011000B117B117B117B117B117B117B117B1179F
:10012000B117B117B117B117B117B117B117B1178F
:10013000C317D317DA17E117EB17BA18BA18CD1887
:10014000CD18C318CD18CD18CD18BA18BA18C918BB
:10015000CD18CD18C918222A492A372B492A372BFE
:10016000912AB42A372B0A2B192B01E301E0014F06
:10017000024F02E002E30001E301E00150025002FD
:10018000E002E30001E30115021574FF02E374FFCE
:1001900001060206011002100107020701280228C9
:1001A00074FF01130213010C020C01110211010A68
:1001B000020A012C022C01E00119021902E00001DF
:1001C000E30115021502E301060206011002100107
:1001D0000702070128022874FF74FF010C020C01BA
:1001E000130213010602060112021201110211018B
:1001F000090209010C020C010A020A012C022C015D
:1002000038023801040204010F020F010F020F012E
:100210002802280001E30115021574FF02E374FFB0
:100220000106020601100210010702070128022838
:100230000001E0010402040106020602E00001E000
:100240000119021902E00001E00106020602E000C5
:100250006E63012B00750A012B022B010C020C01AD
:10026000110211012B022B01280228012B022B0164
:100270002B022B012B022B010C020C01110211018C
:100280002B022B0128022800750A012B022B0112D8
:10029000021201170217012B022B01280228012B41
:1002A000022B012B022B012B022B011D021D01151C
:1002B0000215012B022B0128022800750A012B02CE
:1002C0002B0112021201130213012B022B0128022F
:1002D00028012B022B012B022B012B022B011D02CB
:1002E0001D01150215012B022B012802280069703F
:1002F000636F6E666967202F616C6C006D790075A5
:100300000A0127022701060206012B022B012B02FC
:100310002B01040204012B022B00011B021B0075A0
:100320000A01E00117021701190219012802280227
:10033000E0007777772E737570706F72742E786522
:10034000726F782E636F6D012800796F757220656A
:100350006D61696C00750A0104020401070207015E
:10036000100210010C020C01110211744B012B023E
:100370002B011E021E011E021E011E021E011E0274
:100380001E012802280001E3012B022B02E3002EAC
:10039000001E001F002000210022002B4514001A1F
:1003A00000090013000A0028400400150016001779
:1003B000000700E1001D001B0006001900050029D0
:1003C00061E200E30050004F000000000000002345
:1003D000001E001E001E0000000000210022001E62
:1003E0000020002D002700260025002400230031D6
:1003F0000033001C0018000F000D00280012000C34
:1004000000080011000B00350038003700360010DE
:10041000000E002600510052004F00500000001E48
:10042000001E001E001F000000000001001E00252D
:10043000002400000000002E001E001F00200021EC
:100440000022002B4514001A000800150017002890
:100450004004001600070009000A00E1001D001B0F
:10046000000600190005002961E200E30050004F7A
:10047000000000000000002A0028004C004C000092
:10048000000000DC5C4600DD5C2A002D0027002611
:10049000002500240023003100130012000C001876
:1004A000001C00280033000F000E000D000B00356B
:1004B00000380037003600100011002900510052AA
:1004C000004F00500000002C0028002800460000CB
:1004D00000000001002C004600DC5C000000002E43
:1004E000001E001F002000210022002B00340036D7
:1004F00000370013001C00296104001200080018D6
:10050000000C00E100330014000D000E001B002958
:1005100061E200E30050004F000000000000000016
:100520003029004A00DD5C00000000DD5C4C00DC8E
:100530005C28002D00270026002500240023002D24
:10054000000F00150006000A00090038001600110F
:100550000017000B00070028401D0019001A0010AA
:100560000005002900510052004F005000000046D5
:10057000004C00003046000000000001004A002846
:1005800000DC5C00000000005C0C300D300E30011F
:10059000000100010001000330023001000F3001B2
:1005A000000630010001000100010001000100010E
:1005B000300100010001002961E200E30050004F1A
:1005C00000000000000000003029004A00DD5C004F
:1005D000000000DD5C4C00DC5C2800010030002FD6
:1005E0000001000100010001000A300100010001CA
:1005F000000100010001000B305200010001000168
:100600000001004F0051005000010029005100522C
:10061000004F005000000046004C00003046000033
:1006200000000001004A002800DC5C0000000035EA
:10063000001E001F0020002100220025001E0003D4
:10064000301E001E001E0025001E001E001E001E83
:10065000001E0025001E001E001E001E001E0000C1
:100660005C1E001E001E001E0000000000000000B6
:100670003029004A00DD5C00000000DD5C4C00DC3D
:100680005C28002D00270026002500240023000000
:100690000056002300220021000000000057002027
:1006A000001F001E00000000000000370027002788
:1006B0000000002900005C0000000055000000461A
:1006C000004C00003046000000000001004A0028F5
:1006D00000DC5C0000000045003A003B003C003DAF
:1006E000003E00010020002000200020002000012A
:1006F0000001005200010001000100010050005102
:10070000004F00010001002961E200E30050004FAA
:1007100000000000000000003029004A00DD5C00FD
:10072000000000DD5C4C00DC5C280044004300421B
:1007300000410040003F00010001000100010001F4
:100740000001000100520001000100010001004F02
:100750000051005000010001000100290051005229
:10076000004F005000000046004C000030460000E2
:1007700000000001004A002800DC5C0000000000CE
:100780000000000000000000000000000000000069
:100790000000000000000000000000000000000059
:1007A0000000000000000000000000000000000049
:1007B0000000000000000000000000000000000039
:100E000000000000000000000000000000000001E1
:100E100000DA5C0000C15CC45CC35C01000000013E
:100E2000001D5C1E5C135C01001E001E0001000121
:100E3000000100010001000100DA5C010001000175
:100E4000000100010001000100000000000000019D
:100E5000000100010001000000000001000100018C
:100E60000001000100005CC75CC85CC55CC65C0199
:100E7000000100DB5CDA5C00000A5C01000100019B
:100E8000000100010001000100010001000100015A
:100E9000000100010001000100010001000000014B
:100EA000000100010001000000000001000100013C
:100EB0000001000000000000000000000000002A07
:100EC0002B280000000000000000000000000000CF
:100ED000000029000000002C1E342021222434268A
:100EE00027252E362D3738271E1F20212223242583
:100EF000263333362E37381F0405060708090A0B38
:100F00000C0D0E0F101112131415161718191A1BA9
:100F10001C1D2F3130232D350405060708090A0B47
:100F20000C0D0E0F101112131415161718191A1B89
:100F30001C1D2F3130354C00000000000000000067
:100F400000000000000000000000000000000000A1
:100F5000000000000000000001010101010100018A
:100F6000010101000000000000000000000000007E
:100F70000001000100010101010101010101010164
:100F80000101010101010101010101010101010151
:100F9000010100000001010000000000000000004D
:100FA0000000000000000000000000000000000041
:100FB000000001010101000403300000000E0344A1
:100FC0000061006300740079006C000000180343A6
:100FD00000720079007300740061006C00680061A9
:100FE000006E0064000000040309040902540003B9
:100FF0000100A0FA09040000010301010009211108
:101000000100012240000705810308000A090401CC
:10101000000103010200092111010001224D000716
:1010200005820308000A0904020001030000000908
:1010300021110100012236000705830308000A126E
:1010400001100100000008EDFE6030010001020304
:101050000105010980A10185021601002603001A7D
:1010600081002A8300751095018100C0050C0901DB
:10107000A1018503160100269C021A01002A9C0288
:10108000751095018100C005010902A1010901A1A6
:10109000000509190129051500250195057501812E
:1010A000029501750381010501093009311581257A
:1010B0007F95027508810609381581257F95017590
:1010C000088106050C0A38021581257F95017508EF
:1010D0008106C0C005010906A101050719E029E73D
:1010E000150025019508750181029501750881019A
:1010F00005081901290595057501910295017503EA
:1011000091010507190029FF150026FF00950675B6
:10111000088100C011241FBECFEFDAE0DEBFCDBFD3
:1011200004B603FE24C08091610290916202A091F6
:101130006302B09164028730904BA740B04BB9F482
:101140001092610210926202109263021092640285
:1011500014BE84B7877F84BF88E10FB6F89480936C
:101160006000109260000FBEE0E0F8E3099511E026
:10117000A0E0B1E0E6EAF7E502C005900D92A239E1
:10118000B107D9F712E0A2E9B1E001C01D92A13682
:10119000B107E1F70E9417260C94D12B0C940000A4
:1011A0000C94840C809134028360886080933402B4
:1011B000ABE6B1E021E030E08D91E82FE295EF70F1
:1011C000F0E041A18F70B90102C0660F771F8A95C8
:1011D000E2F7CB01962F9095492341A392A1982B3A
:1011E00092A371E0A237B70739F7A5E6B1E021E095
:1011F00030E08D91E82FE295EF70F0E041A18F7023
:10120000B90102C0660F771F8A95E2F7CB01962FCE
:101210009095492341A392A1982B92A371E0AB36FC
:10122000B70739F7559A209AE2E9F1E0A1EAB1E06F
:1012300011921D9281E0E03AF807D1F70C943F0F2C
:101240002F923F924F925F926F927F928F929F92D6
:10125000AF92BF92CF92DF92EF92FF920F931F93C4
:10126000CF93DF9380910001882319F000E010E014
:1012700002C007E010E09BE6E92E91E0F92EA801FC
:101280004F555E4F6A01EA01AA24A394B12C66244B
:10129000639434E0732E4E0158801882D7012D914B
:1012A0007D01E22FE295EF70F0E081A12F70A501A2
:1012B00002C0440F551F2A95E2F79A01842B81A39F
:1012C00082A1442E4094842182A350EA5A95F1F7DA
:1012D00085E6282E81E0382E80E090E0D1015D91F6
:1012E0001D01652F62956F7070E0DB0190966C9127
:1012F00078815F70D50102C0AA0FBB1F5A95E2F733
:101300006A2339F44A2D082E01C0440F0A94EAF7E3
:1013100001C040E0472B4883019686309105F1F6E5
:1013200081A1842181A382A1822B82A32196F40131
:101330008081581659F06092AF010E94C01F9093AF
:10134000B1018093B0018BB187258BB9F2E7EF161D
:10135000F1E0FF0609F09FCF8091AF018823D1F023
:101360008091B0019091B1010E94CC1F069790F03E
:1013700080E090E00E561E4FF801E80FF91FD601ED
:10138000A80FB91F2C912083019687309105A1F7F2
:101390001092AF0181E0DF91CF911F910F91FF90EB
:1013A000EF90DF90CF90BF90AF909F908F907F9005
:1013B0006F905F904F903F902F900895CF93DF9361
:1013C00080910001882319F0C7E0D0E002C0C0E09E
:1013D000D0E00E944F0B009791F420E030E0CE5611
:1013E000DE4FF901EC54FE4F4081FE01E20FF31F86
:1013F00040832F5F3F4F2730310599F702C081E0CE
:1014000090E0DF91CF910895CF930E942009C82FDB
:101410000E94DE09892BF9F05D989091A0019F5FF1
:101420009093A0019630D0F080910001882319F0AC
:1014300047E050E002C040E050E020E030E04E568F
:101440005E4FFA01E20FF31F10822F5F3F4F2730EC
:101450003105B9F703C05D9A1092A0010E94410FB7
:101460008C2FCF9108950E9420098091000188233C
:1014700019F020E030E002C027E030E080E090E0AA
:101480002E563E4FF901E80FF91F4081FC01EC5444
:10149000FE4F4083019687309105A1F70895E82F0C
:1014A000F0E0EE56FE4F808108950895E8EDF0E0FB
:1014B0008081806180838AE18A95F1F700C0809104
:1014C000D900817008958EE090E00E949B2B91E0FE
:1014D000811101C090E0909300010E94560A882378
:1014E00019F00E94D00A04C00E94B71F0E94D40ABB
:1014F000789408950E94D2080E94330AFDCF0E947A
:10150000630A0E94560A811102C00E947A0A089555
:10151000509A08955098589A0895589A08951F938C
:10152000CF93DF93C82F0E94880A18E0D0E01150B3
:1015300088F0CE01012E02C0959587950A94E2F7B6
:1015400080FF03C00E948D0A01C0589880E88A95E8
:10155000F1F7EDCFDF91CF911F9108950E948A0A94
:10156000489BFECF80E88A95F1F708950E948A0A89
:1015700098E080E029B12170880F822B20E82A951D
:10158000F1F725E02A95F1F70000915099F70895B9
:101590000E94880A589880E88A95F1F70C948D0A81
:1015A0000E94880A0C948D0A0E948A0AE89AE9E649
:1015B000F0E080818C7F808308951F920F920FB698
:1015C0000F921124CF92DF92FF920F931F932F93CC
:1015D0003F934F935F936F937F938F939F93AF93BB
:1015E000BF93EF93FF93CF93DF931F92CDB7DEB7F7
:1015F0000E94C80AC12CD12CF12C86010C541E4F1C
:10160000F80180810E948F0A0E94C80AF801808137
:10161000F80EFFEFCF1ADF0A87E0C816D10469F78A
:101620008F2D0E948F0A0E94C80AE0E8EA95F1F720
:10163000F0E4FA95F1F70E94B60A8093B3010E9494
:10164000C80A1091B3010E94B60A89830E94C80A91
:101650000E948A0A8981181721F08091B201816065
:1016600003C08091B2018E7F8093B2010F90DF9111
:10167000CF91FF91EF91BF91AF919F918F917F910A
:101680006F915F914F913F912F911F910F91FF901B
:10169000DF90CF900F900FBE0F901F901895CF92B4
:1016A000DF92FF920F931F93CF93DF931F92CDB7DB
:1016B000DEB7F8940E94880A589885E08A95F1F779
:1016C00000000E948A0A0E948D0AE0E8EA95F1F77C
:1016D000489934C00E94AE0AC12CD12CF12C0E9432
:1016E000B60A86010C541E4FF80180830E94AE0A90
:1016F000F8018081F80EFFEFCF1ADF0A87E0C816E5
:10170000D10469F70E94B60A89830E94AE0A8981D2
:10171000F81214C08091B3010E948F0A0E94AE0A91
:101720008091B3010E948F0A0E94AE0A0E94880A2B
:101730000E948D0A789480E090E003C0789481E064
:1017400090E00F90DF91CF911F910F91FF90DF906C
:10175000CF9008950C94830CFC018081813019F4A2
:1017600087E492E007C0823019F48EE392E002C071
:1017700081E392E00C94581CFC018081813019F4C3
:1017800084E192E007C0823019F48FEB91E002C04F
:1017900084E891E00C94581CFC018081813019F49C
:1017A00087E791E004C0823021F48AE691E00C944E
:1017B000581C0895FC018081813029F488E30E943F
:1017C000581488E304C081E30E94581481E30C9408
:1017D0006715CF93DF93EC010E94EE1EBE0180E0FF
:1017E00090E0DF91CF910C94E81CDC01462F50E093
:1017F0004031510508F084C04A5A5F4FFA010C94F9
:10180000812B12968C911297811162C012968C9145
:101810001297811160C012968C911297882319F04B
:101820008AE493E052C012968C911297882319F0A3
:1018300082E393E04AC012968C91129781114EC0B8
:1018400012969C91129715968C91992351F0982F8E
:1018500092959F7011F080FF53C083E00E94431D5A
:101860004FC0982F92959F7011F080FF3AC083E08F
:101870000E945E1D45C012968C911297811134C052
:1018800012968C911297882319F08CEF92E01DC06C
:1018900012968C911297882319F08EEE92E015C063
:1018A00012968C911297811122C012968C911297E8
:1018B000811120C012968C91129781111EC0129630
:1018C0008C918823E9F080E592E00E94CA0E18C04E
:1018D00086E893E0089585E593E008958FE193E02D
:1018E00008958AE193E008958FEF92E008958BEBDD
:1018F00092E0089588E892E0089585E592E00895E1
:1019000080E090E0089508950895CF93FB018B3D0A
:101910002CE59207F1F030F4009769F08A3D9C4580
:1019200081F03FC08D3D2CE59207E1F0C0F08F3D86
:101930009C4561F136C0C281CC23A1F182E090E0E8
:1019400005C0C281CC2371F181E090E00E94E90BD7
:1019500023C0C281CC2331F184E090E0F7CFC28173
:1019600083E002C0C28184E0CC2341F00E94431D89
:1019700040E164E083E00E942D0F0EC00E945E1DD6
:1019800040E164E083E00E942D0F0CC0C28180E141
:10199000CC2321F00E94431DC0E004C00E945E1DC4
:1019A00001C0C1E08C2FCF91089581E008950C947F
:1019B000850C0E94A8182FEF84E39CE02150804002
:1019C0009040E1F700C000000C941B200F931F9380
:1019D000CF93DF938C01FC01C081D181CE010E94A5
:1019E000CF1DBE010E944B0FEC01B8010E944812AE
:1019F000B801CE010E94D70C882309F46CC1B8014C
:101A0000CE010E948912882309F465C1B801CE0174
:101A10000E94AC11882309F45EC1C531FCE5DF07E3
:101A200029F50E94821E382FF801228180915201EF
:101A300090915301222371F03A7A21E009F420E0D9
:101A40002093BB01222311F065E301C069E20E94EB
:101A5000381F09C02091BB01222311F065E301C0AA
:101A600069E20E943A1F0E944F1E35C1C6318CE5C3
:101A7000D80708F0A3C0C130ECE5DE0759F4F8013F
:101A80008281882309F427C1809134028160809388
:101A9000340221C1C230FCE5DF0708F478C0F80148
:101AA0008281882309F47BC00E94DB1E811102C061
:101AB0000E94C11E0E94F31E90E0909353028093F7
:101AC0005202FE01E350FC45E231F10520F4EA59EF
:101AD000FF4F0C94812B80915202816003C0809152
:101AE00052028260809352024BC080915202846005
:101AF000F9CF8091520213C0809152028061F2CFDF
:101B0000809152028062EECF809152028064EACFCF
:101B1000809152028068E6CF809152028460886092
:101B2000E1CF809152028E7FDDCF809152028D7F76
:101B3000D9CF809152028B7FD5CF8091520213C0B2
:101B4000809152028F7ECECF809152028F7DCACF7C
:101B5000809152028F7BC6CF809152028F77C2CF85
:101B6000809152028B7F877FBDCF9091520297FB6D
:101B7000882780F921E0822780FB97F99093520211
:101B8000809152020E94F71E0E94A818A4C0C1159D
:101B9000DC4561F081E08093C0018093C101C80100
:101BA000DF91CF911F910F910C94D50CF801828198
:101BB000882309F490C00E94D90C8DC0C53DECE586
:101BC000DE0759F5F8018281882361F01092C10186
:101BD0000E94C01F9093BF018093BE0180E20E94CB
:101BE000C81579C08091C101882321F080E20E944C
:101BF000CF1571C08091BE019091BF010E94CC1F92
:101C00008639910598F780E20E94CF1588E20E94FC
:101C1000581488E20E9467155EC0C63DFCE5DF07E8
:101C200008F044C0C33D8CE5D80719F5F80182815E
:101C3000882351F01092C0010E94C01F9093BD01F3
:101C40008093BC0182E0CBCF8091C00181110FC095
:101C50008091BC019091BD010E94CC1F86399105F5
:101C600030F486E20E94581486E20E94671582E0F2
:101C7000BECFC43DDC4509F08DCFF80182818111D2
:101C8000A5CF8091C1018111B1CF8091BE0190910A
:101C9000BF010E94CC1F8639910508F0A7CF87E2CB
:101CA0000E94581487E20E946715A0CFC83DFCE54A
:101CB000DF0731F4F8018281882369F080E009C0F0
:101CC000C93DDC4509F066CFF8018281882319F00F
:101CD00082E00E94B12680E0DF91CF911F910F91A9
:101CE0000895CF93282F30E0F901E954F14FC491C2
:101CF000F901E95CF04F2491222359F081EE0E9412
:101D000058148C2F0E9458148C2F0E94671581EE56
:101D100004C08C2F0E9458148C2FCF910C946715FF
:101D20000F931F93CF93DF93EC01062FFE01849155
:101D3000882359F19E012F5F3F4F813041F4E90123
:101D4000F9011491812F0E945814812F0DC0823007
:101D500031F4E901F90184910E9458140AC08330DA
:101D600031F4E901F90184910E94671502C00E94D3
:101D7000710E2196802F8823C9F2EFE9FFE0319799
:101D8000F1F700C000008150F6CFDF91CF911F9195
:101D90000F91089560E00C94900E4F925F926F92B5
:101DA0007F928F929F92AF92BF92CF92DF92EF92EB
:101DB000FF920F931F932B013C01C12CD12C760174
:101DC000C394D701C60104C0880F991FAA1FBB1F67
:101DD0004A95D2F7AC01BD014601570104C0880CF9
:101DE000991CAA1CBB1C2A95D2F7482959296A2993
:101DF0007B29D701C60104C0880F991FAA1FBB1FEA
:101E00000A95D2F76A017B01C420D520E620F7208D
:101E1000C416D506E606F70639F4BC01CD016429DF
:101E20007529862997290AC0BC01CD016095709556
:101E30008095909564217521862197211F910F919E
:101E4000FF90EF90DF90CF90BF90AF909F908F90DA
:101E50007F906F905F904F9008950F93382F262FAB
:101E600060911F02709120028091210290912202C4
:101E7000042F432F0E94CD0E0F910C94231D0C9420
:101E8000AA0B0E94E0120C94D00808950C94450F00
:101E90000C94460F089596E0799FF001112494E583
:101EA000899FE00DF11D1124E60FF11DEE0FFF1FBC
:101EB000E157FC4F859194910895880F991F89549B
:101EC000904FFC01859194910895CF93DF930E94E8
:101ED0004B0F0E940C11EC01811520E5920708F0D0
:101EE00040C0811530E4930708F01BC1883E91057E
:101EF00008F5803E910508F08BC1883A910578F489
:101F0000853A910508F09DC08130910509F480C1A2
:101F100008F437C18430910508F07AC132C18D3B95
:101F2000910508F499C0803C910508F42AC1805CB1
:101F30009109E9C0C11580E2D80758F4C11591E0B4
:101F4000D90708F065C1C03FD10508F41AC1D065B2
:101F50005FC1C11520E3D20708F0D9C0CE019F7040
:101F6000D2C0811535E5930708F043C0C11584E55B
:101F7000D80708F0EDC0C11592E5D90708F5C115DD
:101F800021E5D20708F0D0C02C2F237081E090E02B
:101F900002C0880F991F2A95E2F79C689E01E4E031
:101FA00036952795EA95E1F72370922BCF70C69569
:101FB000C69530E2C39FE0011124C82BD92B28C15C
:101FC0008C2F869586959E0123703327C115D345A6
:101FD00008F0AFC090E2899FE001112481E090E019
:101FE00002C0880F991F2A95E2F7C82BD92BDC680D
:101FF0000FC1811529E5920780F4811538E5930713
:1020000008F0ABC0C11586E5D80708F0BAC0CF719B
:10201000DD27DC2FCC27D062FBC0C1159AE5D9079C
:1020200008F4A0C0CE0190568115904208F0A9C0D6
:102030008D2F8F710E948811DD27D0628F71D82B70
:10204000E7C0853A910509F49FC0863A910509F4E5
:102050009EC0C3E8D0E4DCC0883A910509F49AC078
:10206000893A910509F499C08A3A910509F498C012
:102070008B3A910509F497C08C3A910509F496C002
:102080008B3B910509F495C08C3B910509F494C0F4
:102090008D3A910509F493C0803B910509F492C0F3
:1020A0008E3A910509F491C08F3A910509F490C0D8
:1020B000813B910509F48FC0823B910509F48EC0E4
:1020C000833B910509F48DC0843B910509F48CC0D4
:1020D000853B910509F48BC0863B910509F48AC0C4
:1020E000873B910509F489C0883B910509F488C0B4
:1020F000893B910509F487C08A3B910509F086C0A8
:10210000CAE2D6E485C00E945D0FEC0181C0CE0119
:102110009927D3FF03C0EC01D86C7AC0EC01D06CD6
:1021200077C0DF70D06A74C0DC2FCC27C16FD06A53
:102130006FC090E2899FE001112481E090E002C02D
:10214000880F991F2A95E2F7C82BD92BDA6860C04F
:10215000DC2FCC27C46FD06A5BC0D82FCC27C06FD0
:10216000D06A56C08C2F8F70806E90E0906A34E0F9
:10217000D695C7953A95E1F7CF709C013C2BE901C4
:1021800047C0C0E0D0E044C0C1E8D0E441C0C2E8EC
:10219000D0E43EC0C2EED4E43BC0C9EED4E438C0C3
:1021A000CAEED4E435C0C5EBD4E432C0C6EBD4E407
:1021B0002FC0C3EBD4E42CC0C4EBD4E429C0C7EBDC
:1021C000D4E426C0CCECD4E423C0CDECD4E420C0CD
:1021D000C3E8D5E41DC0CAE8D5E41AC0C2E9D5E415
:1021E00017C0C4E9D5E414C0C1E2D6E411C0C3E20B
:1021F000D6E40EC0C4E2D6E40BC0C5E2D6E408C003
:10220000C6E2D6E405C0C7E2D6E402C0C0E0D4E42A
:10221000CE01DF91CF9108958238910549F1B0F454
:102220008133910509F459C048F48932910509F4C4
:102230004FC08A32910509F455C008958533910540
:1022400009F441C08933910599F00895833E9105C1
:1022500031F138F4803E910591F0823E9105A9F06C
:102260000895863E910501F1873E910539F1089563
:102270002091520220FD3BC021FD39C0089580917C
:10228000520280FF34C089E341C08091520282FF34
:1022900032C08091520284FF2CC080E037C0809110
:1022A000520282FD28C0F5CF8091520283FF25C0E3
:1022B0008091520284FDF1CF87EE28C080915202B6
:1022C00083FD1BC0F5CF8091520285FF18C019C055
:1022D0008091520285FF15C012C08091520286FF84
:1022E00012C013C08091520286FF0FC00CC080EE56
:1022F0000DC083EE0BC082EE09C086EE07C085E3F9
:1023000005C089E203C081E301C08AE290E008953C
:102310009091520292FF0DC0282F2871283019F495
:10232000877F846006C0282F2471243011F48B7FAE
:10233000886093FF0DC0282F2871283119F4877EFB
:10234000846106C0282F2471243111F48B7E8861AA
:1023500094FD877E08950895CF93DF93EC01FB01F0
:102360008281811102C081E040C08091CF01811142
:1023700025C0C631DC45B9F70E94AB1181E08093DE
:10238000CF010E94C01F9093CE018093CD01109287
:10239000C2011092C4011092C3011092C6011092A2
:1023A000C5011092C8011092C7011092CA01109283
:1023B000C9011092CC011092CB0116C08091CD01C1
:1023C0009091CE010E94CC1F8C32914060F680919A
:1023D000C201E82FF0E0EE0FFF1FED53FE4FD18357
:1023E000C0838F5F8093C20180E0DF91CF91089519
:1023F000CF93DF93EC018F85811115C081E08F872A
:102400008F810E94851E88850E94981E0E944F1E03
:10241000EA81FB816A897B89CE010696309719F0A3
:10242000DF91CF910994DF91CF9108950F931F937E
:10243000CF93DF938C01FC018085811124C08381BF
:102440009481975524E1289FE001299FD00D112404
:10245000CF5FDE4FEC81FD816A897B89CE010696D4
:10246000309709F009958F810E948B1E88850E9404
:102470009E1E0E944F1EF801108217821186109234
:10248000D1011092D001DF91CF911F910F9108954A
:10249000DF92EF92FF920F931F93CF93DF937C0114
:1024A000FB018281882369F1809151018F3F49F1BD
:1024B000C7E0D1E000E010E0DD24D3948091510129
:1024C000992787FD909580179107DCF0CE0106973C
:1024D0002881222391F02B813C81E216F30639F406
:1024E0002091D0013091D101E216F30631F0DF8264
:1024F0000E94F811CE010E9416120F5F1F4F6496C2
:10250000DDCFDF91CF911F910F91FF90EF90DF9082
:102510000895FF920F931F93CF93DF938C019C013B
:1025200037552F3F310511F008F043C0809151011C
:10253000992787FD90958217930714F420935101F2
:1025400084E1829FE001839FD00D1124CF5FDE4F95
:10255000FB0182818E8792818E81992309F11A87EE
:1025600009878F5F8E830E94C01F9C878B870E9484
:10257000BE1E8F830E94821EF82E88870E94951EA1
:102580008F298887E881F9816A897B89CE0106963F
:10259000309709F009951093D1010093D00109C03B
:1025A000882339F08F85882321F0CE0106960E947A
:1025B000161281E0DF91CF911F910F91FF90089546
:1025C000EF92FF920F931F93CF93DF93809151016E
:1025D0008F3F71F1F12C84E1E82E8F2D90E0209156
:1025E0005101332727FD3095281739070CF1E89E54
:1025F000E001E99ED00D1124CF5FDE4F08891989D3
:102600000115110511F406E910E08E81882371F09F
:102610008B859C850E94CC1F0817190738F4CE01C2
:102620000E94F811CE0106960E941612F394D5CF9F
:10263000DF91CF911F910F91FF90EF9008959093AC
:10264000D7018093D6010895E091D601F091D7018A
:10265000309721F00190F081E02D099480E00895F9
:10266000E091D601F091D701309721F00280F381FB
:10267000E02D09940895E091D601F091D7013097AB
:1026800021F00480F581E02D099408952091D40172
:102690003091D5018217930771F09093D501809303
:1026A000D401E091D601F091D701309721F0068056
:1026B000F781E02D099408952091D2013091D30142
:1026C0008217930771F09093D3018093D201E09128
:1026D000D601F091D701309721F00084F185E02DEB
:1026E000099408950C947F0A81E008950E94B71F11
:1026F0000E94D2080C944020CF92DF92EF92FF927A
:102700000F931F93CF93DF93CDB7DEB72B970FB601
:10271000F894DEBF0FBECDBF0E94040A0E9474135E
:10272000811111C08FEF89838A831B820E94C01F91
:102730008160782F9D838C8349815A816B818D8143
:102740000E94241456C039EDE32E31E0F32E00E050
:1027500010E0C02E802F0E944F0AF701D1907F0118
:10276000D82631F40F5F1F4F0E30110591F7DACFE5
:102770009091340291FF04C08B870E94550A8B858B
:1027800020E030E04D2D50E0922FBA01022E02C021
:10279000759567950A94E2F760FF25C02E83CF8276
:1027A000EE24E394F12C02C0EE0CFF1C9A95E2F7A4
:1027B00090E08E219F2121E0892B09F420E02887D9
:1027C0000E94C01F8160782F9A8789874E815F8120
:1027D00068858A850E942414F801E752FE4F8081A3
:1027E0008E25808306C02F5F3F4F2630310561F66E
:1027F000B9CF0E94D2211091D8010E94241318173A
:10280000A1F00E9424138093D8012B960FB6F89460
:10281000DEBF0FBECDBFDF91CF911F910F91FF9013
:10282000EF90DF90CF900C94480F2B960FB6F89452
:10283000DEBF0FBECDBFDF91CF911F910F91FF90F3
:10284000EF90DF90CF900895CF93DF93CDB7DEB7B1
:102850002B970FB6F894DEBF0FBECDBF4F835887BE
:1028600069877A878B87DE01119686E0FD011192D8
:102870008A95E9F785E0FE01379601900D928A95D9
:10288000E1F749815A816B817C818D819E810E9413
:10289000AB1B2B960FB6F894DEBF0FBECDBFDF91FA
:1028A000CF910895FC01808191810E940F1E0895AF
:1028B000CF93DF931F92CDB7DEB7682F882309F43B
:1028C00002C18238C1F40E94241381FDFCC069E377
:1028D00080915201909153010E94381F0E944F1E17
:1028E0002FEF81EE94E0215080409040E1F700C04E
:1028F000000069E319C0833811F50E94241380FD9C
:10290000E2C063E580915201909153010E94381F0B
:102910000E944F1EEFEFF1EE24E0E150F040204026
:10292000E1F700C0000063E58091520190915301EE
:102930000E943A1F0F90DF91CF910C944F1E843864
:10294000C1F40E94241382FDBEC067E4809152014D
:10295000909153010E94381F0E944F1E8FEF91EEFD
:10296000E4E081509040E040E1F700C0000067E4FF
:10297000DBCF8CEF860F813A70F4862F69830E943B
:10298000DE23698181119FC0809152019091530192
:102990000E94381FCFCF80E2860F883048F46770DE
:1029A00081E001C0880F6A95EAF70E94851EC2CFB8
:1029B0008BE5860F833088F4653A29F0663A31F466
:1029C00082E890E005C081E890E002C083E890E0F2
:1029D0000F90DF91CF910C94461388E5860F8531D7
:1029E00008F071C0683A61F1693A69F16A3A71F1C7
:1029F0006B3A79F16C3A81F16B3B89F16C3B91F167
:102A00006D3A99F1603BA1F16E3AA9F16F3AB1F1DB
:102A1000613BB9F1623BC1F1633BC9F1643BD1F168
:102A2000653BD9F1663BE1F1673BE9F1683BF1F1C8
:102A3000693BF9F16A3B09F03FC08AE292E03EC08F
:102A400082EE90E03BC089EE90E038C08AEE90E0E4
:102A500035C085EB90E032C086EB90E02FC083EB71
:102A600090E02CC084EB90E029C087EB90E026C07A
:102A70008CEC90E023C08DEC90E020C083E891E0E6
:102A80001DC08AE891E01AC082E991E017C084E98C
:102A900091E014C081E292E011C083E292E00EC0A6
:102AA00084E292E00BC085E292E008C086E292E008
:102AB00005C087E292E002C080E090E00F90DF91D5
:102AC000CF910C945C130F90DF91CF9108958823E0
:102AD00009F45DC0823879F40E94241381FF57C045
:102AE00069E380915201909153010E94381F0E9426
:102AF0004F1E69E310C08338B1F40E94241380FF95
:102B000046C063E580915201909153010E94381FA5
:102B10000E944F1E63E580915201909153010E94E3
:102B20003A1F0C944F1E843879F40E94241382FFBC
:102B30002EC067E480915201909153010E94381F8A
:102B40000E944F1E67E4E7CF9CEF980F913A10F474
:102B5000682FE1CF90E2980F983050F4877091E0A1
:102B600001C0990F8A95EAF7892F0E948B1ED9CF51
:102B70009BE5980F933020F480E090E00C9446138E
:102B8000885A853120F480E090E00C945C1308951D
:102B9000882321F00E94851E0C944F1E08958823DF
:102BA00021F00E948B1E0C944F1E08958F929F92CD
:102BB000BF92CF92DF92EF92FF920F931F93CF932A
:102BC000DF9300D0CDB7DEB74C01472FFC01C580A5
:102BD000C2949FE0C922D280DD2031F079836A83DC
:102BE0000E94A51E6A81498149836A830E94481E0A
:102BF00049816A81882389F0DD2079F080E2860F9F
:102C0000883058F082E00E94311E0E94481EBB248A
:102C1000B394B82649816A8101C0B12CE42EE294B4
:102C20008FE0E822F12CF701E858FF4F0C94812B3C
:102C3000842F807F142F1F70882311F01295107F2E
:102C4000DD20C1F0112309F4E0C180E2860F883055
:102C500010F0611105C0812F6A830E94851E04C097
:102C6000812F6A830E94981E6A816A830E944F1E88
:102C70006A81CBC1862F6A830E9467156A811123FE
:102C800009F4E4C180E2860F883010F0611104C0BD
:102C9000812F0E948B1E03C0812F0E949E1E0E94C6
:102CA0004F1ED4C1842F807F142F1F70803211F0EB
:102CB0001295107F662319F06130D9F026C0DD200F
:102CC00079F0CC2049F0F1E0CF1206C00E94BE1E80
:102CD000812B0E94B81EBAC10E94BE1E812B4AC120
:102CE000CC2021F021E0C21609F4B0C10E94BB1E25
:102CF00046C1DD2029F085E08C1508F4A7C139C153
:102D000094E09C1508F4A2C13AC1DD2051F0CC201A
:102D100009F42FC1F401858180FF77C18F7085830D
:102D200028C1CC2009F42BC181C1242F26952695DA
:102D3000237030E02115310521F02130310561F09B
:102D400085C1DD2021F0862F942F937002C080E092
:102D500090E00E9446138AC1DD2021F0862F942F37
:102D6000937002C080E090E00E945C137FC1DD2080
:102D7000F9F0653F51F0663F71F0643FA9F480912E
:102D80004C0290914D0281600BC080914C02909159
:102D90004D02826005C080914C0290914D0284608A
:102DA00090934D0280934C02862F0E94DA2022C01D
:102DB000653F51F0663F91F0643FC9F480914C0249
:102DC00090914D028E7F05C080914C0290914D02F2
:102DD0008D7F90934D0280934C0209C020914C024C
:102DE00030914D022B7F30934D0220934C02862F61
:102DF0000E9442210E94C72139C1842F837009F0AB
:102E00004EC0D1102FC1262F229526952770220F54
:102E1000220F862F8F70C82ED12CE12CF12C022E80
:102E200004C0CC0CDD1CEE1CFF1C0A94D2F764FF1E
:102E300010C06FE070E080E090E004C0660F771F84
:102E4000881F991F2A95D2F7609570958095909567
:102E500003C060E070E0CB01242F269526952370F7
:102E600030E02230310569F02330310589F06C29DA
:102E70007D298E299F292130310571F00E94FC1C8B
:102E8000F1C06C297D298E299F290E940E1DEAC060
:102E90000E94FC1CC701B6010E94EA1CE3C0DD20B1
:102EA00019F0842F817001C08695882309F4DAC057
:102EB000262F229526952770220F220F862F8F709E
:102EC000C82ED12CE12CF12C022E04C0CC0CDD1C20
:102ED000EE1CFF1C0A94D2F764FF10C06FE070E094
:102EE00080E090E004C0660F771F881F991F2A9525
:102EF000D2F7609570958095909503C060E070E082
:102F0000CB01242F26952695237030E02230310501
:102F100069F02330310589F06C297D298E299F299C
:102F20002130310571F00E94AA1D9CC06C297D29B9
:102F30008E299F290E94BC1D95C00E94AA1DC70111
:102F4000B6010E94981D8EC0062F10E0F801E05EC9
:102F5000F109E531F10508F054C0E857FF4F0C9432
:102F6000812B162F1F70842F8F71DD2031F00E946E
:102F7000431D812F0E94C81569C00E945E1D812FCC
:102F80000E94CF1563C0DD2049F0F4E0FC1508F481
:102F90005DC0842F8F710E947D1D58C025E02C15C7
:102FA00008F454C0F6CFDD2039F0842F8F710E94D1
:102FB000431D4CC0DD20C9F3842F8F710E945E1D1C
:102FC00045C0DD2029F0842F8F710E94341D3EC042
:102FD0000E942F1D3BC0DD2051F0142F1F71812F47
:102FE0000E94431D63E0812F0E94281E2FC081E0B4
:102FF0000E94311E81E08C1548F582E00E94311E4E
:1030000025C0DD2031F0CC2081F2862F0E9458149B
:103010001DC0CC2089F2693349F49FEFE7EEF3E05D
:103020009150E040F040E1F700C00000862F0E9480
:1030300067150CC04F70C4010E94F50B0E94581C0C
:1030400015C04F70C4010E944A0F10C028E0E2165C
:10305000F10441F05CF09AE0E91AF108E2E0EE16C2
:10306000F10420F40E9424130E94480FBB20F1F0C9
:103070000E94241E80FD1AC0F40112820E941E1EAE
:103080000E94431DC4010E9464180E941E1E0F90DE
:103090000F90DF91CF911F910F91FF90EF90DF90F4
:1030A000CF90BF909F908F900C945E1D0F900F90CB
:1030B000DF91CF911F910F91FF90EF90DF90CF9014
:1030C000BF909F908F9008950F931F93CF93DF939E
:1030D000EC01288139818B819C81892B31F03F3F24
:1030E00011F080E003C02F3FE1F781E0811113C0B0
:1030F000CE010E94E60C882371F0688179818A8173
:103100000E941A1E8C010E94CE1D0E94E71CB8016D
:10311000CE010E94D615DF91CF911F910F91089596
:103120000E94A51E0E94B51E8091520190915301EC
:103130000E943C1F0E944F1E0E945B220E94C721DA
:1031400080E090E00E94461380E090E00C945C13D5
:103150000E94921E0C9490180E940F1EE92FE29577
:10316000EF70F0E03297EE30F105B8F4E356FF4F20
:103170000C94812B803F59F018F4803E70F407C006
:10318000843F59F404C0803E10F0813F31F481E067
:10319000089593FB882780F9089580E00895CF93E0
:1031A000DF9300D000D01F92CDB7DEB70F900F9005
:1031B0000F900F900F90DF91CF910895CF93DF93F1
:1031C00000D000D000D0CDB7DEB726960FB6F89469
:1031D000DEBF0FBECDBFDF91CF9108951F93CF9378
:1031E000DF93C091E70116E08091E801C81799F0DC
:1031F000D0E01C9FF0011D9FF00D1124E751FE4F00
:103200004081518162817381848195810E94DE18A1
:103210002196C770E9CFDF91CF911F91089540911A
:10322000190250911A0260911B0270911C02809148
:103230001D0290911E020C94DE182091E7019091DE
:10324000E80156E02917A9F030E0529FF001539FA2
:10325000F00D1124E751FE4F7181671306C0708194
:10326000871303C07281471306C02F5F3F4F27703B
:10327000E9CF80E0089581E00895CF9380911E0208
:1032800082958F7009F05FC080911B02882309F43A
:103290005AC02091E701A091E80160911902709154
:1032A0001A0280911C0290911D0231E06F3F09F0DB
:1032B00030E0B32FC6E02A1709F445C0009721F08B
:1032C0007F3F21F44B2F03C041E001C040E030E0DC
:1032D00040FD35C0C29FF001C39FF00D1124E7519E
:1032E000FE4F418174132BC04081641328C042817A
:1032F000411125C0438154814817590710F44150AA
:103300005109481B590B46395105C8F480911E02DA
:103310008F70806180931E0286E0829FF001839F00
:10332000F00D1124E251FE4F80818F708061808307
:1033300089E192E00E946418CF910C94EE182F5FFF
:103340003F4F2770B8CFCF910895BF92CF92DF92B1
:10335000EF92FF920F931F93CF93DF93CDB7DEB71A
:1033600062970FB6F894DEBF0FBECDBF8C0185E02B
:10337000F801DE011D9601900D928A95E1F7D801C2
:10338000CC9011965C9111971296BC90129713965F
:10339000ED90FC9014978091190290911A0220915F
:1033A0001C0230911D022115310531F09F3F31F48F
:1033B00041E08F3F19F403C041E001C040E040FD0F
:1033C0009CC1D0901B02DD2009F424C140911E0253
:1033D000E216F30628F0F701E21BF30B9F0104C08D
:1033E000209530952E0D3F1D2639310508F0C5C0BA
:1033F000242F207F09F087C0951315C08C1113C0AE
:10340000DB2CB11010C04F70406140931E020E942F
:103410000F1989E192E00E94641880911E02D80180
:1034200015968C9387C1E114F10439F05F3F39F4AC
:1034300081E0BFEFCB1203C003C081E001C080E098
:1034400080FD03C081E08B2501C080E080FF09C0C2
:103450004B2D652F8C2D5A8B0E941D195A89811175
:1034600097C0EF2839F05F3F39F481E0BFEFCB120E
:1034700003C003C081E001C080E080FD03C081E0A3
:103480008B2501C080E0E82FE170FE2E80FF31C067
:103490004B2D652F8C2D5A8B0E941D19D82E5A89C1
:1034A000811127C0CD865E878D859E850E940F1E67
:1034B000292F22952F7030E02230310524F024305E
:1034C000310534F011C09F7059F0811109C032C12B
:1034D0009F7031F0D80115969C91907F09F42AC114
:1034E000805E883008F426C1C8010E946418DF2C71
:1034F00021C1DB2CBB2009F41DC180911E0281601B
:1035000080931E0252C0951307C08C1105C0B110E4
:1035100003C0F8014583ABC0CD865E878D859E854F
:103520000E94AC18882319F1DB2CBB2001F12091FB
:103530001E02822F82958F7090E002970CF461C07A
:103540008091190290911A0298878F831986FB86C1
:10355000EA862C87CE01079652C0951741F1CD8699
:103560005E878D859E850E94AC18811131C0C8018F
:103570000E946418DD24D394DDC0242F207F69F7D6
:103580007E2DF98AE88A4C2D6B2D89890E94CF18EF
:1035900089E192E00E946418E9E1F2E086E0DF014F
:1035A0001D928A95E9F70E940F19D12CC3C08C1186
:1035B000D6CFB110D4CFF8014583C8010E9464185A
:1035C000E9E1F2E086E0DF011D928A95E9F7B2C0F9
:1035D000DB2CBB2061F220911E02822F82958F701E
:1035E00090E0029774F08091190290911A029A83E8
:1035F00089831B82FD82EC822E83CE0101960E947C
:10360000641886E0F801A9E1B2E001900D928A9574
:10361000E1F78CC0E216F30628F0F701E21BF30B8A
:103620009F0104C0209530952E0D3F1D2639310590
:1036300008F053C0DB2CBB2009F499CF95132CC0A4
:103640008C112AC080911E0280FD1DC0982F92957A
:103650009F70C9F0D80115968C9315979F3039F05B
:103660009F5F9295907F8F70892B15968C93C801E0
:103670000E94641886E0F801A9E1B2E001900D9281
:103680008A95E1F755C086E0F801A9E1B2E0019022
:103690000D928A95E1F74EC0CD865E878D859E8519
:1036A0000E94AC18882381F096E0F801A9E1B2E00D
:1036B00001900D929A95E1F78A8B0E943D190E9424
:1036C0000F198A89D82E36C080911E02816080939E
:1036D0001E02C8010E9464182DC07E2DF98AE88A56
:1036E0004C2D6B2D89890E94CF18E9E1F2E086E02C
:1036F000DF011D928A95E9F71BC0BB2009F437CF83
:10370000CD865E878D859E850E94AC18D82E882335
:1037100009F42DCF86E0F801A9E1B2E001900D9205
:103720008A95E1F789E192E00E9452140E943D19C6
:103730000E940F198D2D62960FB6F894DEBF0FBE52
:10374000CDBFDF91CF911F910F91FF90EF90DF9050
:10375000CF90BF9008951F93CF93DF93CDB7DEB77F
:103760002C970FB6F894DEBF0FBECDBF4F8358879E
:1037700069877A878B879C87CE0107960E94A51957
:103780008823C1F02F8138858A859B85892B31F06C
:103790003F3F11F080E003C02F3FE1F781E081114E
:1037A00047C04F81588569857A858B859C850E94A5
:1037B000DE183EC086E0FE013796DE0111960190CC
:1037C0000D928A95E1F7FF81E8854A855B85411571
:1037D000510531F0EF3F31F481E0FF3F19F403C0B0
:1037E00081E001C080E080FD23C02091E80130E04D
:1037F000C9010196877099276091E70170E08617EB
:103800009707F1F1F983EA835D834C8396E0929FF9
:10381000D001939FB00D1124A751BE4FFE013196E8
:1038200001900D929A95E1F78093E8010E94EE18BD
:1038300016E08091E7019091E801891779F1189FCE
:10384000C001112487519E4F0E94A519882331F190
:10385000E091E7011E9FF0011124E751FE4F4081E6
:10386000518162817381848195810E94DE188091EB
:10387000E70190E00196877099278093E701D9CFFF
:103880000E94A8181092E8011092E701E9E1F2E025
:1038900086E0DF011D928A95E9F7CACF2C960FB614
:1038A000F894DEBF0FBECDBFDF91CF911F91089579
:1038B000EF92FF920F931F93CF93DF939C0100979A
:1038C00009F471C0F12CEE24E394E9012196F90189
:1038D0008491843740F4843008F056C0813081F000
:1038E000823021F160C0853709F449C0C0F19CE7FE
:1038F000980F903708F057C08F770E94671546C021
:1039000089010E5F1F4FFE01849190E2980F98305D
:1039100050F48770FE2D01C0FF0F8A95EAF78F2FB4
:103920000E94A81E15C00E94581414C089010E5F81
:103930001F4FFE01849190E2980F983068F48770D1
:10394000FE2D01C0FF0F8A95EAF78F2F0E94AE1E51
:103950000E944F1EE8011AC00E946715FBCF2E5F20
:103960003F4FFE01C491CC2341F08FE99FE00197C6
:10397000F1F700C00000C150F6CFE90107C0FE0119
:10398000F490E901229602C00E9458148F2D8823DA
:1039900041F0EFE9FFE03197F1F700C000008150FE
:1039A000F6CF9E0192CFDF91CF911F910F91FF90A3
:1039B000EF90089508950E94DA1C6093230270939B
:1039C000240280932502909326020C949018089567
:1039D0000C94DB1C0F931F9300912302109124027F
:1039E0002091250230912602602B712B822B932B84
:1039F0001F910F910C94DB1C0F931F9300912302D6
:103A00001091240220912502309126026023712317
:103A1000822393231F910F910C94DB1C0F931F9310
:103A20000091230210912402209125023091260258
:103A300060277127822793271F910F910C94DB1C1D
:103A400008950C94201D0E94211D60931F02709305
:103A5000200280932102909322020C94901860E03F
:103A600070E0CB010C94231D41E050E060E070E079
:103A700004C0440F551F661F771F8A95D2F7CB01EC
:103A8000BA010C94231D41E050E060E070E004C0F6
:103A9000440F551F661F771F8A95D2F780911F022A
:103AA00090912002A0912102B0912202482B592B23
:103AB0006A2B7B2BCB01BA010C94231D41E050E013
:103AC00060E070E004C0440F551F661F771F8A95A1
:103AD000D2F7409550956095709580911F02909116
:103AE0002002A0912102B0912202482359236A2387
:103AF0007B23CB01BA010C94231D41E050E060E030
:103B000070E004C0440F551F661F771F8A95D2F7D7
:103B100080911F0290912002A0912102B091220277
:103B2000482759276A277B27CB01BA010C94231D0C
:103B30000F931F9300911F021091200220912102E8
:103B400030912202602B712B822B932B1F910F91AE
:103B50000C94231D0F931F9300911F0210912002BC
:103B6000209121023091220260237123822393232A
:103B70001F910F910C94231D0F931F9300911F020F
:103B8000109120022091210230912202602771279A
:103B9000822793271F910F910C94231D0895CF9294
:103BA000DF92EF92FF920F931F93CF93DF93EC017D
:103BB000C0902302D0902402E0902502F0902602CB
:103BC00080911F0290912002A0912102B0912202C7
:103BD000C82AD92AEA2AFB2A0FE110E0B701A60178
:103BE000002E04C076956795579547950A94D2F7AD
:103BF00040FD05C00150110988F780E007C0BE01F3
:103C0000802F0E94650F0197A9F3802FDF91CF913C
:103C10001F910F91FF90EF90DF90CF900895CF9379
:103C2000DF93EC010E94CF1DBE010E94650FDF9162
:103C3000CF910895CB010E940F1E08958091270215
:103C400085958595859508958091270287700895BB
:103C500098E0899F90011124622B609327020C94B5
:103C6000431D409127028095842380932702982F3B
:103C7000977069F450E0282F332727FD30954217BD
:103C8000530729F08595859585950C945E1D0895BB
:103C900090912702977081E009F480E00895E09107
:103CA0005201F0915301809133028083E0915201DF
:103CB000F0915301808190913202892B8083E091B1
:103CC0005201F0915301808190913102892B8083C0
:103CD00090912802992381F0E0915201F0915301D3
:103CE0008081892B808380915201909153010E94A1
:103CF000FC1E811110922802809152019091530173
:103D00000C94301380913302089590913302982BD4
:103D10009093330208958095909133029823909365
:103D2000330208951092330208958091320208956B
:103D300090913202982B9093320208958095909141
:103D4000320298239093320208951092320208951D
:103D500090913102982B9093310208958095909123
:103D60003102982390933102089510923102089500
:103D700080932802089510922802089580912802C5
:103D800008956DEE7EEF80E090E00E94BB2B60E036
:103D900082E090E00E94A92B60E083E090E00E9426
:103DA000A92B60E084E090E00E94A92B60E085E010
:103DB00090E00C94A92B80E090E00E94A32B21E0DE
:103DC0008D3E9E4F09F020E0822F089582E090E022
:103DD0000C949B2B83E090E00C949B2B682F83E04A
:103DE00090E00C94A92B84E090E00C949B2B682F1E
:103DF00084E090E00C94A92B20E030E040E0FC014E
:103E0000E20FF31F518151114F5F2F5F3F4F27305A
:103E10003105A9F7842F089520E030E04FEFFC0131
:103E2000E20FF31F5281561799F04F3F19F45111C9
:103E300001C0422F2F5F3F4F2630310581F74F3FA2
:103E400039F0FC01E40FF11D47FDFA9562830895F6
:103E5000089520E030E0FC01E20FF31F4281461399
:103E600001C012822F5F3F4F26303105A1F7089520
:103E70000C940C1F0C94291F20E030E0FC01E20F91
:103E8000F31F11822F5F3F4F27303105B9F7089597
:103E900080915802843021F11092350220E488E1AB
:103EA00090E00FB6F894A895809360000FBE209321
:103EB000600080E00E94480F83B7817F846083BFE9
:103EC00083B7816083BF7894889583B78E7F83BFE3
:103ED00088E10FB6F89480936000109260000FBEE6
:103EE000089508950895CF930E94711F0E94040AB7
:103EF0000E94721FC0E08C2F0E944F0A811105C0E2
:103F0000CF5FCE30C1F780E001C081E0CF9108954E
:103F10000E94A8180E9424130C94480F1F920F921D
:103F20000FB60F9211248F939F93AF93BF938091FD
:103F30003502811113C080914E0290914F02A091E1
:103F40005002B09151024196A11DB11D80934E02C5
:103F500090934F02A0935002B0935102BF91AF9142
:103F60009F918F910F900FBE0F901F90189582E038
:103F700084BD93E095BD9AEF97BD80936E00089540
:103F80002FB7F89480914E0290914F02A091500269
:103F9000B09151022FBF0895CF92DF92EF92FF921E
:103FA0000F931F932FB7F89440914E0250914F02F8
:103FB00060915002709151022FBF6A017B01EE2483
:103FC000FF248C0120E030E0C016D106E206F306A3
:103FD00010F441505109481B590BCA011F910F9110
:103FE000FF90EF90DF90CF90089578941F920F92FA
:103FF0000FB60F9211248F939F93AF93BF9380912D
:104000004E0290914F02A0915002B0915102019640
:10401000A11DB11D80934E0290934F02A0935002B8
:10402000B0935102BF91AF919F918F910F900FBEAE
:104030000F901F90189581E08093E00080E28093BC
:10404000D8001092C9008FE19EE40197F1F700C0FB
:10405000000087E090EBDC018093610290936202A4
:10406000A0936302B09364022CE088E190E00FB665
:10407000F894A895809360000FBE20936000FFCF56
:104080000E94DB1E811102C00E94C11E0E94E61E1A
:10409000809334020E94F31E90E090935302809329
:1040A00052020E94EA1E682F70E080E090E00C94BB
:1040B000E81C8091380280FF0BC06091570185E0B9
:1040C000689FB001112475956795759567952AC00D
:1040D00081FF09C06091570185E0689FB0011124FC
:1040E000759567951FC082FF07C06091570185E0F5
:1040F000689FB001112416C0409139024423C9F0D1
:1041000060915601461788F72091570185E0289F56
:1041100090011124429FC001439F900D112470E033
:104120000E946D2B6038710540F46115710539F0FE
:1041300002C065E070E0862F08958FE7089581E062
:1041400008958091380280FF08C06091550170E0A9
:10415000759567957595679521C081FF06C060913B
:10416000550170E07595679519C082FF04C0609194
:10417000550170E010C0809139028823C1F0609130
:1041800054018617A0F790915501989FC001112402
:1041900070E00E946D2B6038710528F4611571057F
:1041A00021F0862F08958FE7089581E0089561E05A
:1041B00070E0F4CF803F21F40E945920819504C023
:1041C000813F29F40E94592080933C020895823F48
:1041D00021F40E945920819504C0833F29F40E9454
:1041E000592080933B020895893F19F40E94A12031
:1041F00005C08A3F31F40E94A120819580933D0241
:1042000008958B3F21F40E94A120819504C08C3F2A
:1042100029F40E94A12080933E020895843F21F456
:1042200080913A02816017C0853F21F480913A0263
:10423000826011C0863F21F480913A0284600BC0F5
:10424000873F21F480913A02886005C0883F31F4AD
:1042500080913A02806180933A0208958D3F21F463
:104260008091380281600BC08E3F21F4809138022A
:10427000826005C08F3F29F480913802846080936A
:1042800038020895803F39F480913C0287FF6CC06A
:1042900010923C0269C0813F29F480913C021816BB
:1042A000BCF362C090913B02823F29F497FF5CC04F
:1042B00010923B0259C0833F19F41916CCF354C035
:1042C000893F41F480913D0218160CF04DC01092C8
:1042D0003D024AC08A3F29F480913D0287FF44C0D5
:1042E000F6CF8B3F39F480913E0287FF3DC010929C
:1042F0003E023AC08C3F29F480913E021816BCF36E
:1043000033C0843F21F480913A028E7F17C0853FED
:1043100021F480913A028D7F11C0863F21F4809173
:104320003A028B7F0BC0873F21F480913A02877F4E
:1043300005C0883F31F480913A028F7E80933A0223
:1043400013C08D3F21F4809138028E7F0BC08E3FC9
:1043500021F4809138028D7F05C08F3F29F4809130
:1043600038028B7F8093380280913B0281110EC00E
:1043700080913C0281110AC080913D02811106C0EA
:1043800080913E02811102C01092390208958AE3A1
:1043900092E00E943B130E94C01F909337028093CB
:1043A000360208951F93CF93DF9380913602909148
:1043B00037020E94CC1F40913902442321F0209102
:1043C000580130E006C0209159015AE0259F900124
:1043D00011248217930708F46AC080913B02109160
:1043E0003C02D0913D02C0913E02811107C01111E3
:1043F00005C0D11103C0CC2309F459C04F3F19F0B7
:104400004F5F40933902181624F40E94592080937C
:104410003B0280913B0287FF05C00E945920819595
:1044200080933B02111624F40E94592080933C0291
:1044300080913C0287FF05C00E945920819580939E
:104440003C0220913B02222379F040913C0244231C
:1044500059F055EB25039001112430933B0245039D
:10446000C001112490933C021D1624F40E94A12047
:1044700080933D0280913D0287FF05C00E94A120EC
:10448000819580933D021C1624F40E94A120809304
:104490003E0280913E0287FF05C00E94A1208195C7
:1044A00080933E02DF91CF911F910C94C721DF9141
:1044B000CF911F910895EAE3F2E085E0DF011D92BC
:1044C0008A95E9F7109239021092380208958330E4
:1044D00081F128F4813059F08230D1F0089585308F
:1044E00009F449C0B8F1863009F456C00895209106
:1044F0005901862F90E0820F911D8F3F910520F486
:10450000620F6093590108958FEF809359010895C8
:1045100020915801862F90E0820F911D8F3F9105C9
:1045200020F4620F6093580108958FEF8093580133
:10453000089520915701862F90E0820F911D8F3FA3
:10454000910520F4620F6093570108958FEF8093D7
:104550005701089520915601862F90E0820F911DFA
:104560008F3F910520F4620F6093560108958FEFFD
:1045700080935601089520915501862F90E0820F77
:10458000911D8F3F910520F4620F609355010895AE
:104590008FEF80935501089520915401862F90E06C
:1045A000820F911D8F3F910520F4620F609354019B
:1045B00008958FEF809354010895833011F128F40A
:1045C000813049F0823091F00895853081F120F1F9
:1045D0008630C1F1089580915901681720F4861B37
:1045E00080935901089510925901089580915801BE
:1045F000681720F4861B8093580108951092580183
:10460000089580915701681720F4861B8093570105
:10461000089510925701089580915601681720F46B
:10462000861B80935601089510925601089580913B
:104630005501681720F4861B809355010895109248
:104640005501089580915401681720F4861B8093CA
:10465000540108951092540108958732F8F48E3170
:1046600008F085C08E3009F465C048F4873009F43D
:1046700047C08B3009F491C0863051F127C0863194
:1046800009F48BC020F4803109F45EC01FC0893169
:1046900009F483C08B3109F443C018C0883309F48E
:1046A0007CC050F4893209F470C0853309F46DC0C0
:1046B000873209F46AC00AC0833409F466C020F462
:1046C0008A3308F052C002C0883461F080E0089557
:1046D00080913402817F8E7F8093340281E08093C9
:1046E000400208950E94A8182FEF83ED90E3215017
:1046F00080409040E1F700C000000E941B204DC0A8
:1047000090913402892F8095817080FB90F990936D
:104710003402811142C0997F977F909334023DC04B
:104720009091340291FB882780F921E0822780FB59
:1047300091F913C09091340292FB882780F921E00F
:10474000822780FB92F909C09091340293FB88275D
:1047500080F921E0822780FB93F99093340288232B
:10476000E1F0916090933402089527EC01C023EEAC
:10477000280F61E070E080E090E004C0660F771FD2
:10478000881F991F2A95D2F704C061E070E080E08D
:1047900090E00E94E81C0E94A81881E0089580E043
:1047A000089580E008958E518A3030F4E82FF0E0CB
:1047B000E758FE4F8081089580E00895CF93C82F79
:1047C00080914002813069F018F08230B1F180C0F0
:1047D000E0915201F09153018081823209F07AC058
:1047E00007C0E0915201F09153018081823249F477
:1047F0008C2F0E94CF2381111DC08C2F0E942D234E
:104800001AC08C2F0E94D123811114C0C43179F0B9
:1048100048F4CB3079F0C03109F060C082E0809379
:10482000400208C0C93219F0C83321F057C01092B5
:10483000400254C081E0817053C0C93289F118F53B
:10484000C43171F1B0F4C73009F046C08EE18093F5
:10485000590182E3809358018AE08093570184E1F3
:104860008093560188E08093550188E2809354013B
:1048700033C082EE8C0F863078F58C2F0E94D323C4
:1048800080933F0229C0CE34E9F020F4CB3421F5E7
:104890006AE013C0C13579F0C235F1F461E00DC0B2
:1048A00080913F02882319F010923F0215C081E0E9
:1048B0008093400215C061E006C080913F020E94D3
:1048C00067220AC06AE080913F020E94DD2204C094
:1048D0001092400280E004C081E002C080E0ABCFD3
:1048E000CF9108958091490208950F931F93CF931C
:1048F000DF9300D01F92CDB7DEB78C010E94C12696
:10490000823011F0843019F583E089831B830A8398
:104910008093E9008FEF9091E800815095FD06C0EB
:1049200095ED9A95F1F700008111F5CF8091E8009F
:1049300085FF0DC040E050E063E070E0CE010196DD
:104940000E94DE268091E8008E778093E8000F9029
:104950000F900F90DF91CF911F910F910895CF93FA
:10496000DF9300D01F92CDB7DEB7209158022430DC
:1049700031F522E02983805891099B838A8383E063
:104980008093E9008FEF9091E800815095FD06C07B
:1049900095ED9A95F1F700008111F5CF8091E8002F
:1049A00085FF0DC040E050E063E070E0CE0101966D
:1049B0000E94DE268091E8008E778093E8000F90B9
:1049C0000F900F90DF91CF910895CF93DF93EC017B
:1049D0000E94C126823011F08430F9F482E0809385
:1049E000E9008FEF9091E800815095FD06C095EDAC
:1049F0009A95F1F700008111F5CF8091E80085FFCD
:104A00000CC040E050E065E070E0CE010E94DE2680
:104A10008091E8008E778093E800DF91CF91089530
:104A2000CF93DF93EC010E94C126823011F08430D5
:104A300039F581E08093E9008FEF9091E800815093
:104A400095FD06C095ED9A95F1F700008111F5CF1F
:104A50008091E80085FF14C040E050E068E070E01D
:104A6000CE010E94DE268091E8008E778093E800D8
:104A700088E0FE01A1E4B2E001900D928A95E1F791
:104A8000DF91CF91089580915702811109C00E9452
:104A900070280E94CD288091E20084608093E2001B
:104AA0000895109257020895089508950C94881F50
:104AB00042E061EC81E00E94EA2742E061EC82E0A2
:104AC0000E94EA2742E061EC83E00C94EA2780919F
:104AD0005A02833009F453C030F4813071F08230CF
:104AE00009F48CC008958A3009F478C08B3009F439
:104AF0005EC0893009F09AC020C080915902813A85
:104B000009F094C08091E800877F8093E80080914D
:104B10005D0290915E02892B21F060E080E090E0E0
:104B200003C068E081E492E070E00E942727809152
:104B3000E8008B778093E8000895809159028132D4
:104B400009F074C080915D0290915E02892B09F09A
:104B50006DC08091E800877F8093E8008091E80035
:104B600082FD05C0809158028111F8CF5FC080910D
:104B7000F100809349028091E8008B7753C08091C7
:104B80005902813A09F052C080915D0290915E0213
:104B9000892B09F04BC08091E800877F8093E80063
:104BA0008091E80080FFFCCF8091640136C0809145
:104BB00059028132D9F580915D0290915E02892B74
:104BC000A9F58091E800877F8093E8000E941F2864
:104BD00080915B02809364010C94A8188091590223
:104BE000813221F58091E800877F8093E8000E9460
:104BF0001F2880915C0280934A0208958091590297
:104C0000813AA1F48091E800877F8093E800809149
:104C1000E80080FFFCCF80914A028093F1008091F0
:104C2000E8008E778093E8000C941F28089584B7DD
:104C3000877F84BF88E10FB6F8948093600010925C
:104C400060000FBE80E880936100109261000E94B6
:104C500072130E9470280E94CD288091E200846027
:104C60008093E20078940E94502B0E9476138AE58C
:104C700091E00E941F1380915802853069F40E94D0
:104C8000481F809156028823B1F30E94731F882326
:104C900091F30E94C826EFCF0E947C13ECCF0C94B6
:104CA0005126292F332723303105A9F06CF4213008
:104CB000310509F448C02230310509F049C084E5C6
:104CC00090E02BEE3FE048C021323105F9F022326E
:104CD000310549F13DC099278130910571F02CF4DF
:104CE000892BB1F5E7EEFFE00DC08230910541F070
:104CF000039771F5E7EBFFE005C0EDECFFE002C0C4
:104D0000EDEBFFE0849190E09F0126C063307105D8
:104D1000F8F4FB01EE0FFF1FE457FE4F20813181B5
:104D200089E090E019C06330710590F4FB01EE0F4B
:104D3000FF1FEA57FE4F20813181FB01ED57FE4FE7
:104D4000808190E009C082E190E02FE330E104C06F
:104D500080E090E020E030E0FA0131832083089584
:104D60000895CF93C82F0E94B026C0934B02CF91D5
:104D7000089580915802843011F482E0089581E012
:104D8000089580914B02811102C00C94B9260895B8
:104D900080E189BD82E189BD09B400FEFDCF80912B
:104DA000D8008F7D8093D8008091E000826080934E
:104DB000E0008091E00081FDFCCF0895CF92DF926A
:104DC000EF92FF920F931F93CF93DF937C018B01A0
:104DD000EA010E944028811131C0209731F088817A
:104DE0009981081B190BE80EF91EC12CD12C011555
:104DF000110519F18091E80085FD14C08091E8004B
:104E00008E778093E800209741F0888199818C0DFE
:104E10009D1D9983888385E011C00E9440288823C6
:104E200031F30CC0F70181917F018093F1000150B3
:104E30001109FFEFCF1ADF0ADACF80E0DF91CF91BF
:104E40001F910F91FF90EF90DF90CF9008952091E8
:104E50005F02309160022617370748F0611571052F
:104E600039F42091E8002E772093E80001C0B901C1
:104E7000FC0120E061157105B9F180915802882389
:104E800009F440C0853009F43FC08091E80083FDFB
:104E90003DC08091E80082FF06C08091E80082FF5B
:104EA00026C080E008958091E80080FFE3CF209144
:104EB000F3008091F20090E0922B6115710551F0A2
:104EC0008830910538F421912093F10061507109E7
:104ED0000196F3CF21E0089709F020E08091E800E7
:104EE0008E778093E800C6CF2111C7CFD6CF8091AF
:104EF0005802882339F0853039F08091E80083FF2B
:104F0000CCCF04C082E0089583E0089581E0089545
:104F100020915F02309160022617370748F0611533
:104F2000710539F42091E8002E772093E80001C044
:104F3000B901FC0120E061157105C1F180915802B1
:104F4000882309F441C0853009F440C08091E8000D
:104F500083FD3EC08091E80082FF06C08091E8009A
:104F600082FF27C080E008958091E80080FFE3CFB2
:104F70002091F3008091F20090E0922B6115710571
:104F800059F08830910540F424912093F100319636
:104F9000615071090196F2CF21E0089709F020E0F5
:104FA0008091E8008E778093E800C5CF2111C6CFAD
:104FB000D5CF80915802882339F0853039F080911F
:104FC000E80083FFCBCF04C082E0089583E008951A
:104FD00081E00895982F973058F59093E90098173D
:104FE00039F07091EC002091ED005091F00003C079
:104FF000242F762F50E021FF19C03091EB003E7F27
:105000003093EB003091ED003D7F3093ED00309117
:10501000EB0031603093EB007093EC002093ED00D7
:105020005093F0002091EE0027FF07C09F5FD3CF81
:105030008F708093E90081E0089580E00895809169
:10504000590287FD05C08091E80080FF0EC012C0A4
:105050008091E80082FD05C0809158028111F8CF4F
:1050600008958091E8008B7708C0809158028111E3
:10507000EACF08958091E8008E778093E800089544
:105080008091E4009091E50045E62091EC0020FF3E
:1050900021C02091E80020FD21C020915802222348
:1050A00089F0253089F02091EB0025FD0FC020917B
:1050B000E4003091E5002817390739F3415041F0F9
:1050C000C901E3CF82E0089583E0089581E0089567
:1050D00084E008952091E80022FFDFCF80E008956A
:1050E0000E94DE280E94E628E0EEF0E080818160E8
:1050F0008083E8EDF0E080818F77808319BCA7ED95
:10510000B0E08C918E7F8C9380818F7E8083109213
:10511000570208950F931F93CF93DF930E94DE28C9
:105120000E94E628C8EDD0E088818F778883888147
:105130008068888388818F7D888319BC109258028B
:1051400010925402109256021092550200EE10E096
:10515000F80180818B7F808388818160888342E031
:1051600060E080E00E94EA27E1EEF0E080818E7F3F
:105170008083E2EEF0E080818160808380818860BE
:105180008083F80180818E7F80838881806188831D
:10519000DF91CF911F910F910895E8EDF0E08081AC
:1051A0008F7E8083E7EDF0E080818160808384E002
:1051B00082BF81E0809357020C948A28E8EDF0E0EA
:1051C00080818E7F80831092E20008951092DA0031
:1051D0001092E10008951F920F920FB60F921124C2
:1051E0002F933F934F935F936F937F938F939F93EF
:1051F000AF93BF93EF93FF938091E10082FF0BC0C9
:105200008091E20082FF07C08091E1008B7F809354
:10521000E1000E944F2B8091DA0080FF1FC0809137
:10522000D80080FF1BC08091DA008E7F8093DA0067
:105230008091D90080FF0DC080E189BD82E189BDE8
:1052400009B400FEFDCF81E0809358020E944325FF
:1052500005C019BC109258020E9451258091E100AE
:1052600080FF19C08091E20080FF15C08091E200AC
:105270008E7F8093E2008091E20080618093E20063
:105280008091D80080628093D80019BC85E080931B
:1052900058020E9455258091E10084FF30C0809122
:1052A000E20084FF2CC080E189BD82E189BD09B4A0
:1052B00000FEFDCF8091D8008F7D8093D800809133
:1052C000E1008F7E8093E1008091E2008F7E8093E9
:1052D000E2008091E20081608093E20080915402BC
:1052E000882311F084E007C08091E30087FF02C0AB
:1052F00083E001C081E0809358020E94562580918E
:10530000E10083FF29C08091E20083FF25C08091E6
:10531000E100877F8093E10082E080935802109241
:1053200054028091E1008E7F8093E1008091E20041
:105330008E7F8093E2008091E20080618093E200A2
:1053400042E060E080E00E94EA278091F0008860FF
:105350008093F0000E945425FF91EF91BF91AF918F
:105360009F918F917F916F915F914F913F912F917D
:105370000F900FBE0F901F9018951F920F920FB6AF
:105380000F9211242F933F934F935F936F937F93CB
:105390008F939F93AF93BF93CF93EF93FF93C0915E
:1053A000E900CF708091EC001092E9008091F0004C
:1053B000877F8093F00078940E94F9291092E90089
:1053C0008091F00088608093F000C093E900FF9125
:1053D000EF91CF91BF91AF919F918F917F916F91FD
:1053E0005F914F913F912F910F900FBE0F901F90A3
:1053F00018951F93CF93DF93CDB7DEB7AA970FB65B
:10540000F894DEBF0FBECDBFE9E5F2E08091F10078
:10541000819322E0E136F207C9F70E946725809167
:10542000E80083FF24C12091590230915A02832F52
:1054300090E08A30910508F01AC1FC01E555FF4F54
:105440000C94812B203821F0223809F010C108C0BB
:105450008091550290915602992389F082600FC085
:1054600080915D028F70873008F001C18093E90060
:105470008091EB0085FB882780F91092E9009091DC
:10548000E800977F9093E8008093F1001092F1007C
:10549000CCC0822F8D7F09F0EAC0222319F0223080
:1054A00061F0E5C080915B02813009F0E0C03330EB
:1054B00009F080E0809356022AC080915B0281113E
:1054C00026C020915D022F708FEF820F863008F08A
:1054D000CEC02093E9008091EB0080FF18C080913E
:1054E000EB00333011F4806210C080618093EB00D8
:1054F00081E090E001C0880F2A95EAF78093EA00E6
:105500001092EA008091EB0088608093EB0010928B
:10551000E9008091E800877F8093E8000E941F28BF
:10552000A6C02111A4C010915B021F778091E300F7
:105530008078812B8093E3008091E800877F8093BF
:10554000E8000E941F288091E80080FFFCCF809136
:10555000E30080688093E300112311F083E001C031
:1055600082E08093580283C02058223008F07FC028
:1055700080915B0290915C028C3D23E0920779F56B
:1055800083E08A838AE289834FB7F894DE01139619
:1055900020E03EE051E2E32FF0E050935700E49129
:1055A00020FF03C0E295EF703F5FEF708E2F90E019
:1055B000EA3010F0C79601C0C0968D939D932F5F7F
:1055C000243149F74FBF8091E800877F8093E8003E
:1055D0006AE270E0CE0101960E94272715C0609113
:1055E0005D0270915E02AE014F5F5F4F0E944F26D9
:1055F0000097E9F12091E800277F2093E800BC01A3
:1056000089819A810E9488278091E8008B77809316
:10561000E8002DC0203859F58091E800877F8093FD
:10562000E800809154028093F1008091E8008E7729
:1056300073CF21111CC090915B029230C0F4809115
:10564000E800877F8093E800909354020E941F280F
:1056500080915402811104C08091E30087FF02C051
:1056600084E001C081E0809358020E945825809117
:10567000E80083FF0AC08091E800877F8093E800FC
:105680008091EB0080628093EB00AA960FB6F894AD
:10569000DEBF0FBECDBFDF91CF911F91089508955A
:1056A000CF93809158028823B1F08091E9008F70E8
:1056B0009091EC0090FF02C090E801C090E0C92FEB
:1056C000C82B1092E9008091E80083FD0E94F9291F
:1056D000CF70C093E900CF91089597FB072E16F481
:1056E000009407D077FD09D00E94872B07FC05D0D6
:1056F0003EF4909581959F4F0895709561957F4FE9
:105700000895EE0FFF1F0590F491E02D0994AA1B58
:10571000BB1B51E107C0AA1FBB1FA617B70710F09C
:10572000A61BB70B881F991F5A95A9F780959095CE
:10573000BC01CD010895F999FECF92BD81BDF89AC3
:10574000992780B50895A8E1B0E042E050E00C94BC
:10575000C32B262FF999FECF92BD81BDF89A0197F0
:1057600000B4021639F01FBA20BD0FB6F894FA9AA9
:10577000F99A0FBE08950196272F0E94AA2B0C9428
:10578000A92BDC01CB01FC01F999FECF06C0F2BDCB
:10579000E1BDF89A319600B40D9241505040B8F7EF
:0657A0000895F894FFCF0C
:1057A600010000AC0B00000000000000000000003B
:1057B60000000000000000BC0B000000000000001C
:1057C6000000000000000000000000DA0B000000EE
:1057D600000000000000000000000000000000CCF7
:1057E6000B000000000000000000000000000000A8
:1057F60000FF29022808140A321E72241025E52407
:10580600AF247524013534C697669436323331F7A2
:10581600F6F500000000000000010203040506077B
:10582600080900404D36D41087105110FD0F161090
:025836002F1031
:00000001FF
