:100000000C940F050C946D070C9456050C94560532
:100010000C9456050C9456050C9456050C945605F4
:100020000C9456050C9456050C94DF240C94B125C1
:100030000C948D1B0C9456050C9456050C94560587
:100040000C9456050C9456050C9456050C945605C4
:100050000C9456050C94F51B0C9456050C945605FF
:100060000C9456050C9456050C9456050C945605A4
:100070000C9456050C9456050C9456050C94560594
:100080000C9456050C9456050C9456050C94560584
:100090000C9456050C9456050C9456050C94560574
:1000A0000C9456050C9456050C94560530083808E7
:1000B0004008480850085808600868087008780820
:1000C0008008880890089808A008A808B008BF0809
:1000D000C708CF08D70807093309410949090B0A9E
:1000E0000D0A180A0F0A110A130A150A170A1A0A22
:1000F0001C0A1E0A290A200A220A240A260A280A99
:100100002B0A2C122C125E125E129C12BA122014B0
:100110002014FC1220149F139F1310142014201479
:100120001914AC13AC13AC13AC13AC13AC13AC1369
:10013000AC13AC13AC13AC13AC13AC13AC13AC13C7
:10014000AC13BD13CB13D213D913E313B114B114F1
:10015000C314C314BA14C314C314C314B114B11414
:10016000BF14C314C314BF141E2645263D274526BD
:100170003D279126B4263D270B271A2703E003E1EC
:1001800003E003E203E30003E00002E00003E10018
:1001900002E10003E10003E100030903E003E100E1
:1001A00002E002E1020900031203E203E10002E2BD
:1001B00002E1021200030703E203E10002E202E1AE
:1001C000020700031B03E001290002E0021B0003F9
:1001D0000603E001290002E0020600030F03E0032A
:1001E000E20002E202E0020F00031D03E103E0006F
:1001F00002E102E0021D00032A03E00002E0022AFD
:1002000000034F03E00002E0024F00035003E00050
:1002100002E0025000034D03E10002E1024D000341
:100220004A03E10002E1024A00034E03E10002E159
:10023000024E00034B03E10002E1024B00034F03B7
:10024000E103E00002E002E1024F00035003E1039A
:10025000E00002E002E1025000035103E10002E18C
:10026000025100035203E10002E1025200034F0376
:10027000E10002E1024F00035003E10002E10250FD
:1002800003E10035001E001F002000210022002B8A
:100290000014001A0008001500170016300400169C
:1002A00000070009000A0015301D001B0006001998
:1002B0000005000751E000E3001530E20001004DA9
:1002C000004A003F002900000000002B7814300095
:1002D000000000000000002E00270026002500245A
:1002E0000023002D00130012000C0018001C003425
:1002F0000033000F000E000D000B002800380037FF
:100300000036001000110001003100390030002FCC
:100310000001004E004B000F064C00000000002AB8
:10032000002C00000000000000000001000100019E
:1003300000010001000100010001001A010C30154C
:10034000010100010004011604010009010100156A
:10035000301D011B0106011901010001000100010E
:100360000015300100010001000100010001000042
:10037000000000010001000000000000000000017A
:100380000001000100010001000100010001000B5B
:100390003052000A300100010001004F00510050AE
:1003A000004D0028040100010001000100010001CE
:1003B000000100010030042F0401000100010001D0
:1003C000000100000000004B014E01000000000091
:1003D00000000001000100010001002103010001F3
:1003E00000010001000100150601000100010001EB
:1003F0000007060906010001001D030100010001BC
:1004000000010001000100010001000100010001E4
:100410000001000100010000000000010014300094
:1004200000000000000000010001000100010001C7
:100430000001000100010012064B00010001000153
:1004400000010001004E0001004A0001000100010E
:100450000001000100010001000100010001000194
:100460000001000100010001000100000000000186
:100470000001000000000000000000010001000178
:100480000001000100010001000100010001000164
:100490000001000100010001000100010001000154
:1004A0000001000100010001000100010001000144
:1004B0000001000100010001000100010001000035
:1004C0000000000100010000000000000000000129
:1004D0000001000100010001000100010001000114
:1004E0000001000100010001000100010001000104
:1004F00000010001000100010001000100010001F4
:1005000000010001000100010001000100010001E3
:100510000001000000000001001730000000000092
:1005200000000001000100010001000100010001C4
:1005300000010001000100010001000100010001B3
:10054000000100010001001530010001000100015F
:10055000000100010001000100153001000100014F
:100560000001000100010000000000010014300043
:100570000000000000000001000100010001000176
:100580000001000100010001000100010001000163
:100590000001000100010001000100010001000153
:1005A0000001000100010001000100010001000143
:1005B0000001000100010001000100000000000135
:1005C0000001000000000000000000010001000127
:1005D0000001000100010001000100010001000113
:1005E00000010001000100010001000100010015EF
:1005F000301D0110300F3019010100010001000110
:10060000000651010001000100010001000100008D
:100610000000000100143000000000000000000194
:1006200000010001000100010001000100010005BE
:1006300030023004300100010001000130033000BD
:10064000300930010001000100010001000100013A
:100650000001000100010001000100010001000192
:100660000001000000000001000100000000000087
:100670000000000100010001000100010001000173
:100680000001000100010001000100010001000162
:100690000001000100010001000100010001000152
:1006A0000001000100010001000100010001000142
:1006B00000010001000100000000000100143000F2
:1006C0000000000000000001000100010001000125
:1006D00000010001000100010006300100010001DD
:1006E0000001000100073001000830010001000195
:1006F00000010001000100010001000100010001F2
:1007000000010001000100010001000000000001E3
:10071000000100000000000000000045003A003B1E
:10072000003C003D003E0001002000200020002091
:100730000020000100010052000100010001000042
:100740005C135C18304F00010001002961E200E3F6
:1007500000035701002A00010046004E004B000034
:1007600000000001002A000000000000000000441A
:100770000043004200410040003F00010001000131
:100780000001000100010001005200010001000110
:100790000001004F00510050000100010001004F16
:1007A0000051005000340052002C0001004C004D5C
:1007B000004A000000000028002C0000000000009B
:1007C00000000000000000000000002A2B280000AC
:1007D00000000000000000000000000000002900F0
:1007E0000000002C1E3420212224342627252E36FA
:1007F0002D3738271E1F2021222324252633333668
:100800002E37381F0405060708090A0B0C0D0E0FBA
:10081000101112131415161718191A1B1C1D2F313D
:1008200030232D350405060708090A0B0C0D0E0FA1
:10083000101112131415161718191A1B1C1D2F311D
:1008400030354C00000000000000000000000000F7
:100850000000000000000000000000000000000098
:10086000000000000101010101010001010101007E
:100870000000000000000000000000000001000176
:100880000001010101010101010101010101010159
:10089000010101010101010101010101010100004A
:1008A0000001010000000000000000000000000046
:1008B0000000000000000000000000000000010136
:1008C0000101000403300000000E034400610063D6
:1008D00000740079006C00000016034300480020FB
:1008E0000062006F0078004D006F0064007300002C
:1008F000000403090409025400030100A0FA0904DA
:100900000000010301010009211101000122400042
:100910000705810308000A09040100010301020020
:10092000092111010001224D000705820308000A78
:100930000904020001030000000921110100012245
:1009400036000705830308000A12011001000000A9
:1009500008EDFE603001000102030105010980A1DC
:100960000185021601002603001A81002A83007502
:100970001095018100C0050C0901A1018503160134
:1009800000269C021A01002A9C0275109501810024
:10099000C005010902A1010901A1000509190129E8
:1009A00005150025019505750181029501750381E5
:1009B000010501093009311581257F9502750881EE
:1009C0000609381581257F950175088106050C0AF1
:1009D00038021581257F950175088106C0C0050183
:1009E0000906A101050719E029E715002501950869
:1009F0007501810295017508810105081901290514
:100A0000950575019102950175039101050719007E
:100A100029FF150026FF00950675088100C01124E6
:100A20001FBECFEFDAE0DEBFCDBF04B603FE27C0A6
:100A30008091140290911502A0911602B0911702B4
:100A40008730904BA740B04BD1F410921402109213
:100A50001502109216021092170214BE84B7877FF7
:100A600084BF0FB6F894A895809160008861809348
:100A70006000109260000FBEE0E0F8E3099511E01D
:100A8000A0E0B1E0EEEAFFE402C005900D92A234CE
:100A9000B107D9F722E0A2E4B1E001C01D92A43170
:100AA000B207E1F70E940C220C94D5270C940000A9
:100AB00008950C9458050C945805CF93DF938091BA
:100AC000E701836088608093E701ABE1B1E042E237
:100AD00051E061E070E08D91E82FE295EF70F0E079
:100AE00021A18F70EB0102C0CC0FDD1F8A95E2F7C8
:100AF000CE019C2F9095922391A392A1892B82A342
:100B00004A175B0741F7A5E1B1E04BE151E061E035
:100B100070E08D91E82FE295EF70F0E021A18F70E9
:100B2000EB0102C0CC0FDD1F8A95E2F7CE019C2FAE
:100B30009095922391A392A1892B82A34A175B07D8
:100B400041F7559A209AE2E4F1E0A1E5B1E080E5B1
:100B500091E011921D928E179F07D9F7DF91CF91E7
:100B60000C94400B2F923F924F925F926F927F9224
:100B70008F929F92AF92BF92CF92DF92EF92FF92AD
:100B80000F931F93CF93DF9300D000D0CDB7DEB784
:100B900080910001811103C007E010E002C000E075
:100BA00010E08BE1C82E81E0D82E98012F5A3E4FDD
:100BB000790192E2892E91E0992E3C832B83AA241D
:100BC000A394B12C34E0732E6B817C81DB014C90BB
:100BD0001C92F60181916F01E82FE295EF70F0E031
:100BE00021A18F70A50102C0440F551F8A95E2F71D
:100BF000CA01242B21A322A1642E6094262122A3C2
:100C000050EA5A95F1F7A5E1B1E0BA83A98320E053
:100C100030E0A981BA815D90BA83A983452D4295C0
:100C20004F7050E0DA0190962C90AB81BC813C90E3
:100C3000452D4F70D50102C0AA0FBB1F4A95E2F7A0
:100C4000AD01422139F44A2D022E01C0440F0A940D
:100C5000EAF701C040E0342AAB81BC813C922F5FAF
:100C60003F4F26303105A9F691A1692261A292A1D8
:100C7000892B82A31196BC83AB83FB01808148162C
:100C800061F0F1E0F0935F010E94BF1B909361015E
:100C9000809360018BB187258BB98C149D0409F07A
:100CA00093CF80915F018823A9F08091600190919A
:100CB00061010E94CB1B069768F0F801EE5BFE4FC6
:100CC00080E0D7019D917D0191938F5F8730C9F7B7
:100CD00010925F0181E00F900F900F900F90DF91C5
:100CE000CF911F910F91FF90EF90DF90CF90BF9029
:100CF000AF909F908F907F906F905F904F903F90BC
:100D00002F900895CF93DF9380910001811103C04C
:100D1000C0E0D0E002C0C7E0D0E00E94D207009758
:100D200079F4CE5BDE4F20E030E0F901EC59FE4F64
:100D3000408149932F5F3F4F27303105B1F702C003
:100D400081E090E0DF91CF910895CF930E94B205AA
:100D5000C82F0E948206892BD9F05D98809150019E
:100D60008F5F809350018630B0F080910001811137
:100D700003C0E0E0F0E002C0E7E0F0E0EE5BFE4F31
:100D800080E090E01192019687309105D9F703C079
:100D90005D9A109250010E94420B8C2FCF910895C2
:100DA0000E94B20580910001811103C0E7E0F0E0EC
:100DB00002C0E0E0F0E0EE5BFE4F80E090E02191C9
:100DC000DC01AC59BE4F2C93019687309105B9F7E1
:100DD0000895E82FF0E0EE5BFE4F808108950895BE
:100DE000E8EDF0E08081806180838AE18A95F1F707
:100DF00000C08091D900817008950E94F006882378
:100E000019F00E94600704C00E94B61B0E9464078C
:100E1000789408950E945D050E94D006FDCF0E943F
:100E2000FD060E94F006811102C00E940A07089583
:100E3000509A08955098589A0895589A08950E9483
:100E40001A07489BFECF80E88A95F1F708950E9423
:100E50001A0798E080E029B1880F2170822B20E8E2
:100E60002A95F1F725E02A95F1F70000915099F7BE
:100E700008950F931F93CF93082F0E941807C8E07F
:100E800010E0C15088F0C8010C2E02C095958795DE
:100E90000A94E2F780FF03C00E941D0701C0589822
:100EA00080E88A95F1F7EDCFCF911F910F910895CA
:100EB0000E941807589880E88A95F1F70C941D074E
:100EC0000E9418070C941D070E941A07E89AE9E689
:100ED000F0E080818C7F808308951F920F920FB67F
:100EE0000F921124EF92FF921F932F933F934F93F2
:100EF0005F936F937F938F939F93AF93BF93CF93A2
:100F0000DF93EF93FF930E945807C0E0D0E010E01A
:100F1000CE018C599E4F7C01FC0180810E943907D3
:100F20000E945807F7018081180F2196C730D1051C
:100F300079F7812F0E9439070E945807F0E8FA9547
:100F4000F1F780E48A95F1F70E9427078093630107
:100F50000E945807C09163010E942707D82F0E9462
:100F600058070E941A0780916201DC1711F0816016
:100F700001C08E7F80936201FF91EF91DF91CF914D
:100F8000BF91AF919F918F917F916F915F914F91A1
:100F90003F912F911F91FF90EF900F900FBE0F90F8
:100FA0001F901895EF92FF921F93CF93DF93F894C1
:100FB0000E941807589825E02A95F1F700000E9432
:100FC0001A070E941D0730E83A95F1F7489930C09A
:100FD0000E941F07C0E0D0E010E00E942707FE013A
:100FE000EC59FE4F7F0180830E941F07F70180812B
:100FF000180F2196C730D10581F70E942707C82F07
:101000000E941F071C1314C0809163010E943907BE
:101010000E941F07809163010E9439070E941F07E9
:101020000E9418070E941D07789480E090E003C09A
:10103000789481E090E0DF91CF911F91FF90EF9045
:1010400008950C945905FC018281462F50E04931E6
:10105000510508F037C1FA01EA5AFF4F0C94852771
:10106000882319F08CE792E02BC187E792E028C132
:10107000882319F082E792E023C18DE692E020C137
:10108000882319F088E692E01BC183E692E018C13C
:10109000882319F08EE592E013C189E592E010C132
:1010A000882319F082E592E00BC18BE492E008C13D
:1010B000882319F084E492E003C18DE392E000C13B
:1010C000882319F088E392E0FBC083E392E0F8C044
:1010D000882319F08EE292E0F3C089E292E0F0C03A
:1010E000882319F084E292E0EBC08FE192E0E8C03F
:1010F000882319F08AE192E0E3C085E192E0E0C044
:10110000882319F080E192E0DBC08BE092E0D8C048
:10111000882319F086E092E0D3C081E092E0D0C04D
:10112000882319F08CEF91E0CBC087EF91E0C8C025
:10113000882319F080EF91E0C3C089EE91E0C0C030
:10114000882319F082EE91E0BBC08BED91E0B8C02E
:10115000882319F086ED91E0B3C08FEC91E007C0D1
:10116000882319F08AEC91E0ABC083EC91E00E94F7
:101170003D0B10926B0185E00E94601933C08823FB
:1011800019F08CEB91E09CC085EB91E099C088232D
:1011900019F08EEA91E094C087EA91E091C088232B
:1011A00019F080EA91E08CC089E991E089C0882338
:1011B000E9F081E080936C0190916B0180916D0169
:1011C000992349F0882329F086E991E00E943D0B9C
:1011D0002BC085E008C0882329F083E991E00E94B4
:1011E0003D0B24C081E00E943F196CC010926C013D
:1011F00010926B0181E00E94601982E00E946019E8
:1012000086E00E94601985E00E9460195BC0882317
:1012100091F081E080936D0180916C01882341F011
:1012200080916B01882311F086E0DDCF82E0DBCF77
:1012300080E991E045C010926D0186E00E9460193E
:1012400082E00E94601980916C01882349F08091AE
:101250006B01882311F085E001C081E00E943F19F5
:101260008DE891E02DC0882331F083E00E943F1982
:101270008AE891E025C083E00E94601987E891E048
:101280001FC0882331F090916B0181E08927809302
:101290006B0181E00E94601982E00E94601983E086
:1012A0000E94601984E00E94601985E00E94601924
:1012B00086E00E94601987E00E9460198CE791E047
:1012C0000E943D0B80E090E0089581E0089581E068
:1012D00008950C9467090E949D142FEF84E39CE00D
:1012E000215080409040E1F700C0000087E797E779
:1012F00090930108809300080C941B1C0F931F937C
:10130000CF93DF938C01FC01C081D181CE010E947B
:10131000DD19BE010E944C0BEC01B8010E945A0E6F
:10132000B801CE010E946909882309F448C1B801B7
:10133000CE010E949F0E882309F441C1B801CE015D
:101340000E94AB0D882309F43AC1C531FCE5DF07E3
:1013500039F50E948F1A982FF8018281209102019D
:1013600030910301882379F09A7A81E009F480E0D2
:1013700080936E01911102C069E201C065E3C90169
:101380000E94381B0AC080916E01811102C069E27F
:1013900001C065E3C9010E943A1B0E945C1A0FC19B
:1013A000C6318CE5D80708F07DC0C130ECE5DE071A
:1013B00059F4F8018281882309F401C18091E70181
:1013C00081608093E701FBC0C230FCE5DF0708F4D1
:1013D00052C0F8018281882309F455C00E94E81A9E
:1013E000811102C00E94CE1A0E94FB1A90E09093D5
:1013F000060280930502FE01E350FC45E231F1054F
:1014000030F4E159FF4F809105020C9485278091BB
:101410000502816027C0826025C0846023C080618E
:1014200021C080621FC080641DC080681BC08460B2
:10143000886018C08E7F16C08D7F14C08B7F12C04D
:101440008F7E10C08F7D0EC08F7B0CC08F770AC03F
:101450008B7F877F07C087FB222720F991E09227A7
:1014600090FB87F980930502809105020E94FF1A84
:101470000E949D14A4C0C115DC4561F081E08093F9
:10148000730180937401C801DF91CF911F910F9177
:101490000C946509F8018281882309F490C00E94A8
:1014A0006B098DC0C53DECE5DE0759F5F801828179
:1014B000882361F0109274010E94BF1B9093720107
:1014C0008093710180E20E94E91179C080917401DA
:1014D000882321F080E20E94F01171C08091710197
:1014E000909172010E94CB1B8639910598F780E29A
:1014F0000E94F01188E20E94881088E20E948A11FE
:101500005EC0C63DFCE5DF0708F044C0C33D8CE586
:10151000D80719F5F8018281882351F010927301E0
:101520000E94BF1B9093700180936F0182E0CBCF2C
:101530008091730181110FC080916F0190917001B2
:101540000E94CB1B8639910530F486E20E948810F8
:1015500086E20E948A1182E0BECFC43DDC4509F0DC
:101560008DCFF80182818111A5CF80917401811105
:10157000B1CF80917101909172010E94CB1B86398D
:10158000910508F0A7CF87E20E94881087E20E94A9
:101590008A11A0CFC83DFCE5DF0731F4F801828154
:1015A000882369F080E009C0C93DDC4509F066CFB9
:1015B000F8018281882319F082E00E94A62280E04F
:1015C000DF91CF911F910F910895CF9390E0FC018F
:1015D000ED53F84FC491FC01ED5BF74F84918823E4
:1015E00059F081EE0E9488108C2F0E9488108C2F59
:1015F0000E948A1181EE04C08C2F0E9488108C2FCB
:10160000CF910C948A110F931F93CF93DF93EC012A
:10161000062FFE018491882359F19E012F5F3F4FD1
:10162000813041F4E901F9011491812F0E94881061
:10163000812F0DC0823031F4E901F90184910E94BB
:1016400088100AC0833031F4E901F90184910E94C5
:101650008A1102C00E94E50A2196802F8823C9F2D0
:10166000EFE9FFE03197F1F700C000008150F6CFBD
:10167000DF91CF911F910F91089560E00C94030BBF
:101680000C9421080E94FB0E0C945B0508950C94A9
:10169000460B0C94470B089524E5829FC00111244A
:1016A000FC0126E0729FE00DF11D1124E60FF11DF3
:1016B000EE0FFF1FED57FD4F859194910895880F10
:1016C000991FFC01ED53F74F859194910895CF93A5
:1016D000DF930E944C0B0E940B0DEC01811590458D
:1016E00008F041C0C11580E4D80708F01CC1C83E0D
:1016F000D10510F5C03ED10508F089C1C83AD10521
:1017000078F4C53AD10508F09EC0C130D10509F47E
:101710007EC108F435C1C430D10508F078C130C1AC
:10172000CD3BD10508F49AC0C03CD10508F428C1CE
:10173000CE01805C9109E9C0C11590E2D90758F447
:10174000C11521E0D20708F062C1C03FD10508F4FD
:1017500017C1D0655CC1C11580E3D80708F0D9C0B6
:10176000CE019F70D2C0C11595E5D90708F044C0DD
:10177000C11524E5D20708F0EDC0C11582E5D807F0
:1017800010F5C11591E5D90708F0D0C0CE0174E07D
:10179000969587957A95E1F7282F23703C2F337023
:1017A00081E090E002C0880F991F3A95E2F79C68AB
:1017B000922BCF70C695C69520E2C29FE0011124FE
:1017C000C82BD92B24C19E01237033278C2F8695DB
:1017D0008695C115D34508F0AEC0C1E0D0E002C087
:1017E000CC0FDD1F2A95E2F720E2829FC001112471
:1017F000C82BD92BDC680BC1C11529E5D20780F4B1
:10180000C11588E5D80708F0AAC0C11596E5D90723
:1018100008F0B6C0CF71DD27DC2FCC27D062F7C02F
:10182000CE01C1152AE5D20708F49EC09056811555
:10183000904208F0A5C08D2F8F710E94870DDD2783
:10184000D0628F719BC0C53AD10509F49CC0C63ADD
:10185000D10509F09BC0C2E8D0E4D9C0C83AD1058F
:1018600009F497C0C93AD10509F496C0CA3AD1051E
:1018700009F495C0CB3AD10509F494C0CC3AD1050E
:1018800009F493C0CB3BD10509F492C0CC3BD10500
:1018900009F491C0CD3AD10509F490C0C03BD105FF
:1018A00009F48FC0CE3AD10509F48EC0CF3AD105E4
:1018B00009F48DC0C13BD10509F48CC0C23BD105F0
:1018C00009F48BC0C33BD10509F48AC0C43BD105E0
:1018D00009F489C0C53BD10509F488C0C63BD105D0
:1018E00009F487C0C73BD10509F486C0C83BD105C0
:1018F00009F485C0C93BD10509F484C0CA3BD105B0
:1019000009F483C0C0E0D4E482C00E945F0BEC0104
:101910007EC0CE019927D3FF03C0EC01D86C77C0FD
:10192000EC01D06C74C0DF70D06A71C0DC2FCC27A2
:10193000C16FD06A6CC0C1E0D0E002C0CC0FDD1F27
:101940002A95E2F720E2829FC0011124C82BD92BEF
:10195000DA685DC0DC2FCC27C46FD06A58C0DC2F9A
:10196000CC27C06FD06A53C024E0969587952A95FE
:10197000E1F78F70CF70C06ED0E0D06AD82B47C02F
:10198000C0E0D0E044C0C1E8D0E441C0C3E8D0E446
:101990003EC0C2EED4E43BC0C9EED4E438C0CAEEC7
:1019A000D4E435C0C5EBD4E432C0C6EBD4E42FC0D8
:1019B000C3EBD4E42CC0C4EBD4E429C0C7EBD4E41B
:1019C00026C0CCECD4E423C0CDECD4E420C0C3E8E2
:1019D000D5E41DC0CAE8D5E41AC0C2E9D5E417C0F1
:1019E000C4E9D5E414C0C1E2D6E411C0C3E2D6E430
:1019F0000EC0C4E2D6E40BC0C5E2D6E408C0C6E21D
:101A0000D6E405C0C7E2D6E402C0CAE2D6E4CE01FD
:101A1000DF91CF9108958238910549F1B0F4813377
:101A2000910509F459C048F48932910509F44FC071
:101A30008A32910509F455C008958533910509F45A
:101A400041C08933910599F00895833E910531F1A4
:101A500038F4803E910591F0823E9105A9F00895F9
:101A6000863E910501F1873E910539F10895209157
:101A7000050220FD3BC021FD39C00895809105027B
:101A800080FF34C089E341C08091050282FF30C0ED
:101A90008091050284FD2EC083EE37C0809105023F
:101AA00082FD26C0F5CF8091050283FF25C080917D
:101AB000050284FD1FC087EE28C08091050283FDCA
:101AC0001BC0F5CF8091050285FD18C019C080911B
:101AD000050285FD15C012C08091050286FD12C069
:101AE00013C08091050286FD0FC00CC080EE0DC0B2
:101AF00082EE0BC080E009C086EE07C089E205C017
:101B000085E303C08AE201C081E390E008959091EB
:101B1000050292FF0DC0282F2871283019F4877F05
:101B2000846006C0282F2471243011F48B7F8860D4
:101B300093FF0DC0282F2871283119F4877E846106
:101B400006C0282F2471243111F48B7E886194FD06
:101B5000877E089508950F931F93CF93FB012281F1
:101B6000211102C0C1E041C08C01C0918201C111AC
:101B700025C086319C45B1F70E94AA0D81E0809373
:101B800082010E94BF1B909381018093800110927B
:101B900075011092770110927601109279011092DE
:101BA000780110927B0110927A0110927D011092BF
:101BB0007C0110927F0110927E0117C080918001FC
:101BC000909181010E94CB1B8C32914058F69091EC
:101BD0007501E92FF0E0EE0FFF1FEA58FE4F118369
:101BE00000839F5F90937501C0E08C2FCF911F9170
:101BF0000F910895CF93DF93EC0181E08F878F8160
:101C00000E94921A88850E94A51A0E945C1AEA8195
:101C1000FB81CE010696309729F06A897B89DF9196
:101C2000CF910994DF91CF910895EF92FF920F9396
:101C30001F93CF93DF93FC012085211134C0EC0169
:101C4000E380F480F7E5FF1A24E12E9DC0012F9D6B
:101C5000900D1124DC01A559BE4F1496ED91FC9115
:101C600015978F589E4F309729F052966D917C9121
:101C70005397099584E18E9D80018F9D100D11244D
:101C800005591E4FF80187810E94981AF801808536
:101C90000E94AB1A0E945C1A18821F821986109249
:101CA000840110928301DF91CF911F910F91FF90DA
:101CB000EF900895DF92EF92FF920F931F93CF93CF
:101CC000DF93FB012281222391F1209101012F3F1B
:101CD00071F18C01CBE6D1E0E12CF12CDD24D39421
:101CE00080910101082E000C990B8E159F05FCF0C8
:101CF0008E818823B9F089859A858017910739F4F8
:101D000080918301909184010817190759F0DD86AD
:101D10008F85811103C0CE010E94FA0DCE01069677
:101D20000E94150EFFEFEF1AFF0A6496D9CFDF91DC
:101D3000CF911F910F91FF90EF90DF900895EF9258
:101D4000FF920F931F93CF93DF939C0137552F3F43
:101D5000310511F008F047C040910101042E000C3C
:101D6000550B4217530714F420930101FB017C012A
:101D7000828194E1929F8001939F100D1124E801CC
:101D8000C559DE4F8E8792818E81992311F1FA8693
:101D9000E9868F5F8E830E94BF1B9C878B870E9482
:101DA000CB1A8F830E948F1A88870E94A21A988567
:101DB000892B8887E881F981C8018F589E4F309719
:101DC00019F06A897B890995F0928401E092830178
:101DD0000AC0882341F08F85882329F0C8018F58D5
:101DE0009E4F0E94150E81E0DF91CF911F910F91C0
:101DF000FF90EF900895CF92DF92EF92FF920F93B2
:101E00001F93CF93DF93809101018F3FF1F1F12C6C
:101E100094E1E92E0F2D10E080910101082E000CB5
:101E2000990B801791078CF1E09EF001E19EF00D77
:101E30001124E559FE4FC088D188C114D10419F48A
:101E400086E9C82ED12CE09EE001E19ED00D112440
:101E5000C559DE4F8E818823B1F08B859C850E9409
:101E6000CB1BC816D90678F48F85811103C0CE012B
:101E70000E94FA0DE09EC001E19E900D11248F5842
:101E80009E4F0E94150EF394C5CFDF91CF911F9105
:101E90000F91FF90EF90DF90CF90089590938A017B
:101EA000809389010895E0918901F0918A0130972A
:101EB00021F00190F081E02D099480E00895E091F7
:101EC0008901F0918A01309721F00280F381E02DA1
:101ED00009940895E0918901F0918A01309721F0E9
:101EE0000480F581E02D09940895209187013091B7
:101EF00088012817390771F0909388018093870132
:101F0000E0918901F0918A01309721F00680F781F4
:101F1000E02D0994089520918501309186012817BC
:101F2000390771F09093860180938501E0918901D2
:101F3000F0918A01309721F00084F185E02D099419
:101F400008950C940F0781E008950E94B61B0E942B
:101F50005D050C942C1CBF92CF92DF92EF92FF9202
:101F60000F931F93CF93DF93CDB7DEB72A970FB6AA
:101F7000F894DEBF0FBECDBF0E94A5060E94A30F3E
:101F8000811111C08FEF89838A831B820E94BF1B3E
:101F90008160782F9D838C8349815A816B818D81EB
:101FA0000E94541054C08CE8C82E81E0D82E00E066
:101FB00010E0B02E802F0E94E906E82EF601219154
:101FC0006F01F82EF22631F40F5F1F4F0E3011050E
:101FD00081F7D8CF8091E70181FD0E94EF0680E074
:101FE00090E02F2D30E0482FB901082E02C07595E2
:101FF00067950A94E2F760FF25C08E83BF8281E077
:1020000090E06C0102C0CC0CDD1C4A95E2F72E2D4D
:1020100030E02C213D21232B09F480E088870E94A9
:10202000BF1B8160782F9A8789874E815F81688581
:102030008A850E945410F801E457FE4F80818C2558
:10204000808305C001968630910569F6BDCF0E9458
:10205000BF1D0E94530F90918B018917A9F00E9418
:10206000530F80938B012A960FB6F894DEBF0FBEF4
:10207000CDBFDF91CF911F910F91FF90EF90DF9037
:10208000CF90BF900C94490B2A960FB6F894DEBF00
:102090000FBECDBFDF91CF911F910F91FF90EF90B9
:1020A000DF90CF90BF900895CF93DF93CDB7DEB789
:1020B0002B970FB6F894DEBF0FBECDBF4F83588766
:1020C00069877A878B87DE01119686E0FD01119280
:1020D0008A95E9F785E0FE01379601900D928A9581
:1020E000E1F749815A816B817C818D819E810E94BB
:1020F000A4172B960FB6F894DEBF0FBECDBFDF91AD
:10210000CF910895FC01808191810E941C1A08954D
:10211000CF93882309F4FCC0C82F8238C1F40E94F1
:10212000530F81FDF5C069E3809102019091030195
:102130000E94381B0E945C1A2FEF81EE94E0215020
:1021400080409040E1F700C0000069E319C0833887
:1021500001F50E94530F80FDDBC063E58091020111
:10216000909103010E94381B0E945C1A2FEF81EEB0
:1021700094E0215080409040E1F700C0000063E50A
:1021800080910201909103010E943A1BCF910C941F
:102190005C1A8438C1F40E94530F82FDB9C067E411
:1021A00080910201909103010E94381B0E945C1AE9
:1021B0002FEF81EE94E0215080409040E1F700C085
:1021C000000067E4DDCF8CEF8C0F813A68F48C2F30
:1021D0000E94D01F81119CC06C2F809102019091B0
:1021E00003010E94381BD2CF80E28C0F883048F464
:1021F000C77081E001C0880FCA95EAF70E94921A61
:10220000C5CF8BE58C0F833078F4C53A29F0C63AF8
:1022100031F083E890E005C081E890E002C082E8F8
:1022200090E0CF910C94750F88E58C0F853108F004
:102230006FC0C83A61F1C93A69F1CA3A71F1CB3A53
:1022400079F1CC3A81F1CB3B89F1CC3B91F1CD3A9C
:1022500099F1C03BA1F1CE3AA9F1CF3AB1F1C13B1E
:10226000B9F1C23BC1F1C33BC9F1C43BD1F1C53B9C
:10227000D9F1C63BE1F1C73BE9F1C83BF1F1C93BFC
:10228000F9F1CA3B09F43FC080E090E03EC082EE25
:1022900090E03BC089EE90E038C08AEE90E035C017
:1022A00085EB90E032C086EB90E02FC083EB90E0AE
:1022B0002CC084EB90E029C087EB90E026C08CEC2A
:1022C00090E023C08DEC90E020C083E891E01DC039
:1022D0008AE891E01AC082E991E017C084E991E0B0
:1022E00014C081E292E011C083E292E00EC084E269
:1022F00092E00BC085E292E008C086E292E005C061
:1023000087E292E002C08AE292E0CF910C948B0FB8
:10231000CF910895882309F45BC0682F823879F43F
:102320000E94530F81FF54C069E380910201909194
:1023300003010E94381B0E945C1A69E310C08338B5
:10234000B1F40E94530F80FF43C063E58091020106
:10235000909103010E94381B0E945C1A63E58091F2
:102360000201909103010E943A1B0C945C1A84387C
:1023700079F40E94530F82FF2BC067E48091020121
:10238000909103010E94381B0E945C1A67E4E7CF1A
:102390008CEF860F813A18F380E2860F883048F47C
:1023A000677081E001C0880F6A95EAF70E94981A69
:1023B000DCCF8BE5860F833020F480E090E00C9436
:1023C000750F685A653120F480E090E00C948B0F13
:1023D0000895882321F00E94921A0C945C1A0895A3
:1023E000882321F00E94981A0C945C1A08958F9209
:1023F0009F92AF92BF92DF92EF92FF920F931F9343
:10240000CF93DF937C01D62FC72FFC010581029566
:102410000F70128111110E94B21A0E94551A88235E
:1024200079F0112369F080E28D0F883048F082E066
:102430000E943E1A0E94551A91E0D82ED92601C05A
:10244000D12CBC2EB2948FE0B8228B2D90E0FC01F1
:10245000EF57FF4F0C9485278C2F807FCF708823F8
:1024600011F0C295C07F112399F0CC2309F4C3C1A8
:1024700080E28D0F883010F0D11104C08C2F0E94A3
:10248000921A03C08C2F0E94A51A0E945C1AB3C135
:102490008D2F0E948A11CC2309F4D2C180E28D0FC6
:1024A000883010F0D11104C08C2F0E94981A03C0FC
:1024B0008C2F0E94AB1A0E945C1AC2C18C2F807FA5
:1024C000CF70803211F0C295C07FDD2319F0D1307A
:1024D000C9F022C0112371F0002341F0013031F422
:1024E0000E94CB1A8C2B0E94C51AAAC10E94CB1A3B
:1024F0008C2B3AC1002319F0013009F4A1C10E94CC
:10250000C81A18C0112321F0063008F099C10EC076
:10251000053008F095C10EC0112351F0002331F0B1
:10252000F701858180FF67C18F7085838C2F1CC167
:10253000011172C18C2F1EC18C2F869586958370D8
:1025400019F0813061F07CC1112321F08D2F9C2F77
:10255000937002C080E090E00E94750F7EC111234D
:1025600021F08D2F9C2F937002C080E090E00E949C
:102570008B0F73C11123F9F0D53F51F0D63F71F0A5
:10258000D43FA9F48091FF019091000281600BC0BB
:102590008091FF0190910002826005C08091FF014F
:1025A000909100028460909300028093FF018D2F30
:1025B0000E94C71C1EC0D53F51F0D63F71F0D43FDA
:1025C000A9F48091FF01909100028E7F0BC0809151
:1025D000FF01909100028D7F05C08091FF019091D5
:1025E00000028B7F909300028093FF018D2F0E9449
:1025F0002F1D0E94B41D31C18C2F837009F04CC077
:10260000111127C12D2F229526952770220F220FF9
:102610006D2F6F70862F90E0A0E0B0E04C015D015F
:10262000022E04C0880C991CAA1CBB1C0A94D2F769
:10263000D4FF12C08FE090E0A0E0B0E004C0880FAB
:10264000991FAA1FBB1F2A95D2F7BC01CD01609527
:1026500070958095909503C060E070E0CB01C695C1
:10266000C695C370C23051F080F4682979298A294F
:102670009B29C13071F00E94F318EBC068297929B9
:102680008A299B290E940519E4C00E94F318C501FC
:10269000B4010E94E118DDC0112319F08C2F817064
:1026A00001C08695882309F4D4C02D2F2295269544
:1026B0002770220F220F6D2F6F70862F90E0A0E001
:1026C000B0E04C015D01022E04C0880C991CAA1CCC
:1026D000BB1C0A94D2F7D4FF12C08FE090E0A0E0B8
:1026E000B0E004C0880F991FAA1FBB1F2A95D2F71C
:1026F000BC01CD01609570958095909503C060E018
:1027000070E0CB01C695C695C370C23051F080F41D
:10271000682979298A299B29C13071F00E94B8194A
:1027200098C0682979298A299B290E94CA1991C0D1
:102730000E94B819C501B4010E94A6198AC08D2F44
:1027400090E0FC01E05EF109E531F10508F04FC0D1
:10275000EF56FF4F0C948527DF708C2F8F7111235C
:1027600031F00E943F198D2F0E94E91169C00E942B
:1027700060198D2F0E94F01163C0112341F00530C4
:1027800008F05EC08C2F8F710E94851959C00630E9
:1027900008F056C0F7CF112339F08C2F8F710E94AB
:1027A0003F194EC01123C9F38C2F8F710E946019FD
:1027B00047C0112329F08C2F8F710E942A1940C025
:1027C0000E9425193DC0112349F0CF718C2F0E9422
:1027D0003F1963E08C2F0E94351A32C081E00E94BD
:1027E0003E1A023068F182E00E943E1A29C011238D
:1027F00031F0002391F28D2F0E94881021C0002318
:1028000099F2D93349F4FFEF27EE83E0F1502040ED
:102810008040E1F700C000008D2F0E948A1110C097
:102820004C2F4F706D2FC7010E9423080E94521831
:1028300014C04C2F4F706D2FC7010E944B0B0DC061
:1028400098E0B91631F0B91640F086EF8B0D823062
:1028500020F40E94530F0E94490BDD20E1F00E94FA
:10286000311A80FD18C0F70112820E942B1A0E94B3
:102870003F19C7010E9457140E942B1ADF91CF9174
:102880001F910F91FF90EF90DF90BF90AF909F90BE
:102890008F900C946019DF91CF911F910F91FF9051
:1028A000EF90DF90BF90AF909F908F9008950F931F
:1028B0001F93CF93DF93EC01988189812B813C8119
:1028C000232B31F08F3F31F481E09F3F19F403C097
:1028D00081E001C080E080FD13C0CE010E947E092E
:1028E000882371F0688179818A810E94271A8C017E
:1028F0000E94DC190E94CF18B801CE010E94F71186
:10290000DF91CF911F910F9108950E94B21A0E94FA
:10291000C21A80910201909103010E943C1B0E9407
:102920005C1A0E944D1E0E94B41D80E090E00E943F
:10293000750F80E090E00C948B0F0E949F1A0C940E
:1029400085140E941C1AE92FE295EF704E2F50E07B
:10295000FA013297EE30F105B0F4EA55FF4F0C94CE
:102960008527803F91F018F4803E68F40EC0843FC4
:1029700051F40BC0803E48F0813F29F406C093FB20
:10298000882780F9089580E0089581E00895CF9325
:10299000DF9300D000D01F92CDB7DEB70F900F901D
:1029A0000F900F900F90DF91CF910895CF93DF9309
:1029B00000D000D000D0CDB7DEB726960FB6F89481
:1029C000DEBF0FBECDBFDF91CF9108951F93CF9390
:1029D000DF93C0919A0116E080919B01C81799F08E
:1029E000D0E01C9FF0011D9FF00D1124E456FE4F16
:1029F0004081518162817381848195810E94D614C6
:102A00002196C770E9CFDF91CF911F910895409132
:102A1000CC015091CD016091CE017091CF01809198
:102A2000D0019091D1010C94D61420919A019091EB
:102A30009B0156E02917A9F030E0529FF001539F07
:102A4000F00D1124E456FE4F7181761306C070819B
:102A5000781303C07281741306C02F5F3F4F277035
:102A6000E9CF80E0089581E00895CF938091D1016E
:102A700082958F7009F05FC08091CE01882309F4A0
:102A80005AC080919A01B0919B017091CC01A091A4
:102A9000CD014091CF015091D00191E07F3F09F0ED
:102AA00090E0692FC6E08B1709F445C04115510528
:102AB00021F0AF3F21F020E003C021E001C0262F2C
:102AC00090E020FD35C0C89FF001C99FF00D112492
:102AD000E456FE4F21812A132BC02081271328C0E2
:102AE0002281211125C0238134812417350710F458
:102AF00021503109241B350B26393105C8F42091AA
:102B0000D1012F7020612093D10126E0289FF00190
:102B1000299FF00D1124EF55FE4F80818F70806149
:102B200080838CEC91E00E945714CF910C94E614B2
:102B300001968770B8CFCF9108959F92AF92BF92C0
:102B4000CF92DF92EF92FF920F931F93CF93DF9379
:102B5000CDB7DEB761970FB6F894DEBF0FBECDBF1D
:102B60007C0185E0F701DE011D9601900D928A95AA
:102B7000E1F7D701DC9011960C9111971296CC9049
:102B80003091CC014091CD018091CF019091D00145
:102B9000009731F04F3F31F421E03F3F19F403C07B
:102BA00021E001C020E020FD9FC1F701A380B48097
:102BB0009090CE01992009F42BC12091D101A81643
:102BC000B90628F0B501681B790BCB0104C08095CC
:102BD00090958A0D9B1D11E08639910590F010E0CB
:102BE000207F09F0DBC07A2DB98AA88A4D2D502F9D
:102BF0006C2D89890E94C7148CEC91E00E945714B7
:102C00006BC1822F807F09F091C0041315C0D312CD
:102C100013C01C2DC11010C02F7020612093D10152
:102C20000E9407158CEC91E00E9457148091D1010D
:102C3000D70115968C9375C1A114B10439F00F3FDB
:102C400039F481E0BFEFDB1203C003C081E001C0B3
:102C500080E080FD03C081E08C2502C080E090E030
:102C600080FF15C04C2D602F8D2D0E9415158823D7
:102C700071F08CEC91E00E945714ECECF1E086E0EE
:102C8000DF011D928A95E9F70E9407154DC0AB2818
:102C900039F00F3F39F481E0BFEFDB1203C003C00E
:102CA00081E001C080E080FD03C081E08C2502C08E
:102CB00080E090E0E82FE170BE2E80FF2CC04C2D0C
:102CC000602F8D2D0E941515182F811124C0DD86CF
:102CD0000E878D859E850E941C1A292F22952F70A4
:102CE000223018F0243090F405C09F7059F0811103
:102CF00009C017C19F7031F0D70115969C91907F44
:102D000009F40FC1805E883008F40BC1C7010E942E
:102D100057141B2D06C11C2DCC2009F402C1809133
:102D2000D10181608093D10110E0FBC0041309C080
:102D3000D31207C0C11005C08091D101F70185836E
:102D4000A5C0DD860E878D859E850E94A1148823EF
:102D500079F1CC2069F12091D101822F82958F7079
:102D600090E0029774F08091CC019091CD0198870A
:102D70008F831986BB86AA862C87CE0107960E9470
:102D8000571486E0F701ACECB1E001900D928A9502
:102D9000E1F70E9435150E9407150DC0041769F070
:102DA000DD860E878D859E850E94A114811119C034
:102DB000C7010E94571411E0B4C0D312F1CFC11063
:102DC000EFCF8091D101F7018583C7010E9457148D
:102DD00086E0ECECF1E0DF011D928A95E9F7192D10
:102DE000A0C0CC2029F32091D101822F82958F7031
:102DF00090E0029734F28091CC019091CD019A83BA
:102E000089831B82BD82AC822E83CE010196B7CF0F
:102E1000A816B90628F0F501E81BF90BCF0104C08C
:102E2000809590958A0D9B1D8639910558F010E08C
:102E30007A2DB98AA88A4D2D502F6C2D89890E9430
:102E4000C7144AC01C2DCC2009F4B2CF041333C0E0
:102E5000D31231C02091D10120FD24C0822F829550
:102E60008F70482F50E041155105E1F0D7011596BC
:102E70002C9315974F30510549F08F5F982F9295FD
:102E8000907F822F8F70892B15968C93C7010E949B
:102E9000571486E0F701ACECB1E001900D928A95F1
:102EA000E1F73DC086E0F701ACECB1E001900D9296
:102EB0008A95E1F736C0DD860E878D859E850E9456
:102EC000A11481115ECF8091D10181608093D101E5
:102ED000C7010E94571425C0ECECF1E086E0DF0149
:102EE0001D928A95E9F71BC0CC2009F461CFDD86DD
:102EF0000E878D859E850E94A114182F882309F4C2
:102F000057CF86E0F701ACECB1E001900D928A95C5
:102F1000E1F78CEC91E00E9482100E9435150E942E
:102F20000715812F61960FB6F894DEBF0FBECDBF97
:102F3000DF91CF911F910F91FF90EF90DF90CF9095
:102F4000BF90AF909F9008951F93CF93DF93CDB71D
:102F5000DEB72C970FB6F894DEBF0FBECDBF4F8300
:102F6000588769877A878B879C87CE0107960E944E
:102F70009D158823D1F09F8188852A853B85232B49
:102F800031F08F3F31F481E09F3F19F403C081E0BD
:102F900001C080E080FD47C04F81588569857A85F2
:102FA0008B859C850E94D6143EC086E0FE01379634
:102FB000DE01119601900D928A95E1F7FF81E88577
:102FC0006A857B856115710531F0EF3F31F481E051
:102FD000FF3F19F403C081E001C080E080FD23C001
:102FE00020919B0130E0C90101968770992740919B
:102FF0009A0150E084179507F1F1F983EA837D8304
:103000006C8396E0929FD001939FB00D1124A4563B
:10301000BE4FFE01319601900D929A95E1F7809393
:103020009B010E94E61416E080919A0190919B0109
:10303000891771F1189FC001112484569E4F0E9478
:103040009D15882329F1E0919A011E9FF00111241A
:10305000E456FE4F40815181628173818481958164
:103060000E94D61480919A0190E00196877099276A
:1030700080939A01D9CF0E949D1410929B011092C7
:103080009A01ECECF1E086E0DF011D928A95E9F708
:103090002C960FB6F894DEBF0FBECDBFDF91CF9157
:1030A0001F910895EF92FF920F931F93CF93DF9399
:1030B0008C01892B09F46CC0F12CEE24E394E80117
:1030C0002196F8018491843740F4843008F051C08F
:1030D000813081F0823019F15BC0853709F444C03A
:1030E000A8F19CE7980F903708F052C08F770E94A4
:1030F0008A1141C00E5F1F4FFE01849190E2980F2C
:10310000983050F48770FE2D01C0FF0F8A95EAF7C2
:103110008F2F0E94B51A14C00E9488102DC00E5F18
:103120001F4FFE01849190E2980F983060F48770F1
:10313000FE2D01C0FF0F8A95EAF78F2F0E94BB1A60
:103140000E945C1A19C00E948A1116C00E5F1F4FA0
:10315000FE01C491CC2381F08FE99FE00197F1F744
:1031600000C00000C150F6CF0E5F1F4FFE01F4906B
:1031700003C00E9488108E018F2D882309F49FCFF1
:10318000EFE9FFE03197F1F700C000008150F5CF83
:10319000DF91CF911F910F91FF90EF9008950895C7
:1031A00008950C94D0180E94D1186093D6017093A2
:1031B000D7018093D8019093D9010C9485140C9475
:1031C000D3180F931F930091D6011091D70120912E
:1031D000D8013091D901602B712B822B932B1F9139
:1031E0000F910C94D3180F931F930091D601109157
:1031F000D7012091D8013091D90160237123822316
:1032000093231F910F910C94D3180F931F93009148
:10321000D6011091D7012091D8013091D9016027B2
:103220007127822793271F910F910C94D3180C9428
:10323000D0180E9417196093D2017093D301809324
:10324000D4019093D5010C94851460E070E0CB011B
:103250000C9419190F931F9341E050E060E070E067
:103260008A019B0104C0000F111F221F331F8A9582
:10327000D2F7C901B8011F910F910C9419190F933E
:103280001F9341E050E060E070E004C0440F551F20
:10329000661F771F8A95D2F78091D2019091D30152
:1032A000A091D401B091D5018A019B01082B192B63
:1032B0002A2B3B2BC901B8011F910F910C941919AE
:1032C0000F931F9341E050E060E070E004C0440FB2
:1032D000551F661F771F8A95D2F7409550956095C8
:1032E00070958091D2019091D301A091D401B091B9
:1032F000D5018A019B01082319232A233B23C901F5
:10330000B8011F910F910C9419190F931F9341E06D
:1033100050E060E070E004C0440F551F661F771F47
:103320008A95D2F78091D2019091D301A091D401D6
:10333000B091D5018A019B01082719272A273B272D
:10334000C901B8011F910F910C9419190F931F9384
:103350000091D2011091D3012091D4013091D50177
:10336000602B712B822B932B1F910F910C941919A9
:103370000F931F930091D2011091D3012091D4019A
:103380003091D50160237123822393231F910F91E4
:103390000C9419190F931F930091D2011091D3012E
:1033A0002091D4013091D50160277127822793277E
:1033B0001F910F910C9419190895CF92DF92EF92FB
:1033C000FF920F931F93CF93DF938C01C090D20194
:1033D000D090D301E090D401F090D5018091D60136
:1033E0009091D701A091D801B091D901C82AD92ACA
:1033F000EA2AFB2ACFE1D0E0D701C6010C2E04C097
:10340000B695A795979587950A94D2F780FD04C045
:10341000219790F780E007C0B8018C2F0E94670BBE
:103420000197B1F38C2FDF91CF911F910F91FF90F6
:10343000EF90DF90CF900895CF93DF93EC010E943F
:10344000DD19BE010E94670BDF91CF910895CB017A
:103450000E941C1A08958091DA01859585958595BD
:1034600008958091DA018770089598E0899F90010E
:103470001124262B2093DA010C943F192091DA01B4
:10348000809582238093DA01982F977069F430E059
:10349000482F082E000C550B2417350729F0859569
:1034A000859585950C94601908959091DA0197702F
:1034B00081E009F480E00895E0910201F0910301B8
:1034C0008091E6018083E0910201F09103019081F7
:1034D0008091E501892B8083E0910201F091030145
:1034E00090818091E401892B80838091DB01882386
:1034F00081F0E0910201F09103019081892B80839A
:1035000080910201909103010E94041B811110928D
:10351000DB0180910201909103010C945F0F809177
:10352000E60108959091E601892B8093E6010895C4
:1035300080959091E60189238093E6010895109289
:10354000E60108958091E50108959091E501892BA8
:103550008093E501089580959091E50189238093FA
:10356000E50108951092E50108959091E401892BF9
:103570008093E401089580959091E40189238093DC
:10358000E40108951092E40108958093DB01089509
:103590001092DB0108958091DB0108956DEE7EEFBE
:1035A00080E090E00E94BF2760E082E090E00E940F
:1035B000AD2760E083E090E00E94AD2760E084E00A
:1035C00090E00E94AD2760E085E090E00C94AD278C
:1035D00080E090E00E94A72721E08D3E9E4F09F0F9
:1035E00020E0822F089582E090E00C949F2783E0F2
:1035F00090E00C949F2784E090E00C949F27682F24
:1036000084E090E00C94AD27FC0131969C01285F8A
:103610003F4F80E0919191118F5FE217F307D1F74F
:1036200008959C01FC0132969FEF80E0419146177E
:1036300089F09F3F19F4411101C0982F8F5F8630A8
:10364000A9F79F3F39F0F901E90FF11D97FDFA95B0
:103650006283089508959C012A5F3F4FFC014281D7
:10366000461301C01282019682179307B9F7089595
:103670000C94111B0C942B1BFC0131960896119293
:10368000E817F907E1F7089580910B02843039F1CA
:103690001092E80120E488E190E00FB6F894A89534
:1036A000809360000FBE2093600080E00E94490B71
:1036B00083B7817F846083BF83B7816083BF789441
:1036C000889583B78E7F83BF0FB6F894A8958091B5
:1036D0006000886180936000109260000FBE0895C2
:1036E00008950C94701BCF930E94711B0E94A50635
:1036F0000E94701BC0E08C2F0E94E906811104C05B
:10370000CF5FCE30C1F701C081E0CF9108950E9414
:103710009D140E94530F0C94490B1F920F920FB6E9
:103720000F9211248F939F93AF93BF938091E801E1
:10373000811113C08091010290910202A0910302B5
:10374000B09104024196A11DB11D80930102909396
:103750000202A0930302B0930402BF91AF919F9124
:103760008F910F900FBE0F901F90189582E084BD2F
:1037700093E095BD9AEF97BD80936E0008952FB7A3
:10378000F8948091010290910202A0910302B091FD
:1037900004022FBF0895CF92DF92EF92FF920F9312
:1037A0001F932FB7F894409101025091020260914B
:1037B0000302709104022FBF6A017B01EE24FF24F3
:1037C0008C0120E030E0C016D106E206F30610F4CA
:1037D000415051099A01281B390BC9011F910F91C2
:1037E000FF90EF90DF90CF90089578941F920F9202
:1037F0000FB60F9211248F939F93AF93BF93809135
:10380000010290910202A0910302B091040201967C
:10381000A11DB11D8093010290930202A0930302A7
:10382000B0930402BF91AF919F918F910F900FBE03
:103830000F901F90189587E797E790930108809362
:1038400000089AE088E10FB6F894A895809360008C
:103850000FBE90936000FFCF0E94E81A811102C052
:103860000E94CE1A0E94F31A8093E7010E94FB1A6D
:1038700090E090930602809305020E94F71A682F49
:1038800070E080E090E00C94DF188091EB0180FF05
:103890000BC06091070185E0689FB0011124759508
:1038A0006795759567952BC081FF09C060910701E9
:1038B00085E0689FB00111247595679520C082FF4F
:1038C00007C06091070185E0689FB001112417C00F
:1038D0009091EC019923D1F060910601961788F739
:1038E0002091070185E0289F90011124929FA0015B
:1038F000939F500D112470E0CA010E947127603817
:10390000710540F46115710519F406C065E070E0B9
:10391000862F08958FE7089581E008958091EB0147
:1039200080FF08C06091050170E0759567957595F9
:10393000679521C081FF06C06091050170E0759513
:10394000679519C082FF04C06091050170E010C046
:103950009091EC01992399F0609104019617A0F7DA
:1039600080910501899FC001112470E00E94712798
:103970006038710540F46115710519F406C061E005
:1039800070E0862F08958FE7089581E00895803FC5
:1039900021F40E94451C819504C0813F29F40E94B6
:1039A000451C8093EF010895823F21F40E94451C3D
:1039B000819504C0833F29F40E94451C8093EE0149
:1039C0000895893F19F40E948E1C05C08A3F31F486
:1039D0000E948E1C81958093F00108958B3F21F405
:1039E0000E948E1C819504C08C3F29F40E948E1C7D
:1039F0008093F1010895843F21F48091ED0181606D
:103A000017C0853F21F48091ED01826011C0863F8F
:103A100021F48091ED0184600BC0873F21F48091F7
:103A2000ED01886005C0883F31F48091ED0180612F
:103A30008093ED0108958D3F21F48091EB01816029
:103A40000BC08E3F21F48091EB01826005C08F3F57
:103A500029F48091EB0184608093EB010895803F0D
:103A600039F48091EF0187FF6CC01092EF0169C0BB
:103A7000813F29F48091EF011816BCF362C0909148
:103A8000EE01823F29F497FF5CC01092EE0159C00D
:103A9000833F19F41916CCF354C0893F41F4809147
:103AA000F00118160CF04DC01092F0014AC08A3F88
:103AB00029F48091F00187FF44C0F6CF8B3F39F4A1
:103AC0008091F10187FF3DC01092F1013AC08C3F17
:103AD00029F48091F1011816BCF333C0843F21F41E
:103AE0008091ED018E7F17C0853F21F48091ED011B
:103AF0008D7F11C0863F21F48091ED018B7F0BC03B
:103B0000873F21F48091ED01877F05C0883F31F424
:103B10008091ED018F7E8093ED0113C08D3F21F4E4
:103B20008091EB018E7F0BC08E3F21F48091EB01E1
:103B30008D7F05C08F3F29F48091EB018B7F8093AF
:103B4000EB018091EE0181110EC08091EF01811196
:103B50000AC08091F001811106C08091F1018111AC
:103B600002C01092EC0108958DEE91E00E946A0F60
:103B70000E94BF1B9093EA018093E90108951F936F
:103B8000CF93DF938091E9019091EA010E94CB1BD2
:103B9000AC019091EC01992321F02091080130E0D3
:103BA00006C0209109018AE0289F90011124421744
:103BB000530708F46EC08091EE01C091EF01D091DF
:103BC000F0011091F101811107C0C1115EC0D11146
:103BD0005CC011115AC05DC09F3F19F09F5F909368
:103BE000EC01181624F40E94451C8093EE0180918C
:103BF000EE0187FF05C00E94451C81958093EE0170
:103C00001C1624F40E94451C8093EF018091EF0163
:103C100087FF05C00E94451C81958093EF0140916C
:103C2000EE01442379F03091EF01332359F025EB75
:103C30004203A00111245093EE013203C00111246C
:103C40009093EF011D1624F40E948E1C8093F001C6
:103C50008091F00187FF05C00E948E1C81958093A2
:103C6000F001111624F40E948E1C8093F1018091C2
:103C7000F10187FF05C00E948E1C81958093F101A0
:103C8000DF91CF911F910C94B41D9F3F09F0A6CFF7
:103C9000B7CFDF91CF911F910895EDEEF1E085E070
:103CA000DF011D928A95E9F71092EC011092EB0169
:103CB0000895833081F128F4813059F08230D1F0B9
:103CC0000895853009F449C0B8F1863009F456C02A
:103CD000089580910901262F30E0280F311D2F3FD4
:103CE000310524F4680F6093090108958FEF8093E4
:103CF0000901089580910801262F30E0280F311D19
:103D00002F3F310524F4680F6093080108958FEF69
:103D100080930801089580910701262F30E0280F35
:103D2000311D2F3F310524F4680F6093070108957A
:103D30008FEF80930701089580910601262F30E0D0
:103D4000280F311D2F3F310524F4680F60930601C1
:103D500008958FEF80930601089580910501262F25
:103D600030E0280F311D2F3F310524F4680F609398
:103D7000050108958FEF8093050108958091040156
:103D8000262F30E0280F311D2F3F310524F4680F16
:103D90006093040108958FEF8093040108958330A8
:103DA00011F128F4813049F0823091F00895853086
:103DB00081F120F18630C1F10895809109016817E1
:103DC00020F4861B8093090108951092090108953B
:103DD00080910801681720F4861B809308010895DC
:103DE00010920801089580910701681720F4861B3E
:103DF00080930701089510920701089580910601AC
:103E0000681720F4861B809306010895109206011E
:103E1000089580910501681720F4861B80930501A1
:103E2000089510920501089580910401681720F407
:103E3000861B8093040108951092040108950F9346
:103E40001F9341E050E060E070E08A019B0104C0F4
:103E5000000F111F221F331F8A95D2F7C901B80125
:103E60000E94DF181F910F910C949D148732D8F592
:103E70008E3108F07DC08E3009F467C098F4873029
:103E800009F455C08B3009F476C0863009F077C04C
:103E90008091E701817F8E7F8093E70181E08093AD
:103EA000F3010895863109F466C068F4803109F0A1
:103EB00066C08091E70183FB222720F991E09227D9
:103EC00090FB83F94BC0893109F455C08B3109F05F
:103ED00056C08091E70181FB222720F991E09227CB
:103EE00090FB81F93BC0883309F445C048F489321E
:103EF00009F443C0853309F440C08732F1F13FC073
:103F00008334D9F120F48A33D0F1895332C0883414
:103F1000B1F50E949D142FEF83ED90E32150804076
:103F20009040E1F700C000000E941B1C24C080915B
:103F3000E701982F9095917090FB80F98093E701AD
:103F4000911119C0897F877F10C08091E70182FBA2
:103F5000222720F991E0922790FB82F98093E701D4
:103F6000992349F08091E70181608093E70103C0C4
:103F70008D510E941F1F81E0089580E0FACF80E0FC
:103F8000089580E008950C94C11F8E518A3030F45A
:103F9000E82FF0E0E75DFE4F8081089580E008950E
:103FA000CF93C82F8091F301813069F018F08230EF
:103FB000C9F183C0E0910201F09103018081823256
:103FC00009F07DC007C0E0910201F09103018081FA
:103FD000823261F48C2F0E94C31F811104C08C2F88
:103FE0000E94361F1DC081E090E01AC08C2F0E94F5
:103FF000C11F811114C0C43179F048F4CB3079F07D
:10400000C03109F060C082E08093F30108C0C9327A
:1040100019F0C83321F057C01092F30154C081E069
:10402000817053C0C93289F118F5C43171F1B0F40F
:10403000C73009F046C08EE18093090182E3809386
:1040400008018AE08093070184E18093060188E0FB
:104050008093050188E28093040133C082EE8C0FC7
:10406000863078F58C2F0E94C51F8093F20129C0FD
:10407000CE34E9F020F4CB3421F56AE013C0C13529
:1040800079F0C235F1F461E00DC08091F20188232E
:1040900019F01092F20115C081E08093F30115C070
:1040A00061E006C08091F2010E94591E0AC06AE0D8
:1040B0008091F2010E94CF1E04C01092F30180E0B3
:1040C00004C081E002C080E0ABCFCF910895809121
:1040D000FC0108950F931F93CF93DF9300D01F929D
:1040E000CDB7DEB78C010E94B622823011F0843049
:1040F00019F583E089831B830A838093E9008FEF9E
:104100009091E800815095FD06C095ED9A95F1F7E4
:1041100000008111F5CF8091E80085FF0DC040E0DF
:1041200050E063E070E0CE0101960E94D3228091BE
:10413000E8008E778093E8000F900F900F90DF914A
:10414000CF911F910F910895CF93DF9300D01F92CD
:10415000CDB7DEB720910B02243031F522E0298360
:10416000805891099B838A8383E08093E9008FEFD5
:104170009091E800815095FD06C095ED9A95F1F774
:1041800000008111F5CF8091E80085FF0DC040E06F
:1041900050E063E070E0CE0101960E94D32280914E
:1041A000E8008E778093E8000F900F900F90DF91DA
:1041B000CF910895CF93DF93EC010E94B622823015
:1041C00011F08430F9F482E08093E9008FEF909150
:1041D000E800815095FD06C095ED9A95F1F7000035
:1041E0008111F5CF8091E80085FF0CC040E050E0E0
:1041F00065E070E0CE010E94D3228091E8008E77C6
:104200008093E800DF91CF910895CF93DF93EC0185
:104210000E94B622823011F0843039F581E080931B
:10422000E9008FEF9091E800815095FD06C095ED73
:104230009A95F1F700008111F5CF8091E80085FF94
:1042400014C040E050E068E070E0CE010E94D3224C
:104250008091E8008E778093E80088E0FE01A4EF6B
:10426000B1E001900D928A95E1F7DF91CF91089529
:1042700080910A02811109C00E9464240E94C12415
:104280008091E20084608093E200089510920A0217
:104290000895089508950C94871B42E061EC81E035
:1042A0000E94DD2342E061EC82E00E94DD2342E0D7
:1042B00061EC83E00C94DD2380910D02833009F4DE
:1042C00053C030F4813071F0823009F48CC008950D
:1042D0008A3009F478C08B3009F45EC0893009F067
:1042E0009AC020C080910C02813A09F094C080915C
:1042F000E800877F8093E80080911002909111027E
:10430000892B21F468E084EF91E003C060E080E055
:1043100090E070E00E941E238091E8008B778093EC
:10432000E800089580910C02813209F074C08091F8
:10433000100290911102892B09F06DC08091E80064
:10434000877F8093E8008091E80082FD05C080911E
:104350000B028111F8CF5FC08091F1008093FC01C6
:104360008091E8008B7753C080910C02813A09F06C
:1043700052C08091100290911102892B09F04BC01C
:104380008091E800877F8093E8008091E80080FFBB
:10439000FCCF8091140136C080910C028132D9F596
:1043A0008091100290911102892BA9F58091E8006B
:1043B000877F8093E8000E94122480910E028093F0
:1043C00014010C949D1480910C02813221F580918E
:1043D000E800877F8093E8000E94122480910F02FA
:1043E0008093FD01089580910C02813AA1F480919F
:1043F000E800877F8093E8008091E80080FFFCCF91
:104400008091FD018093F1008091E8008E77809388
:10441000E8000C941224089584B7877F84BF0FB6F8
:10442000F894A89580916000886180936000109254
:1044300060000FBE80E880936100109261000E94CE
:10444000A10F0E9464240E94C1248091E200846034
:104450008093E20078940E9456270E94A50F8AE07C
:1044600091E00E944E0F80910B02853069F40E940A
:10447000441B809109028823B1F30E94731B882397
:1044800091F30E94BD22EFCF0E94AB0FECCF0C94B2
:104490004922292F332723303105C9F060F4213018
:1044A000310581F02230310509F047C084E590E004
:1044B00025EF38E046C02132310511F122323105B5
:1044C00061F13BC082E190E029E439E03AC09927EC
:1044D0008130910561F040F08230910559F00397E9
:1044E00061F5E3ECF8E008C0E1EFF8E005C0E9EDC4
:1044F000F8E002C0E9ECF8E0849190E09F0121C06F
:1045000063307105D0F4660F771FFB01E45CFE4F4A
:104510002081318189E090E014C06330710568F436
:10452000FB01EE0FFF1FEA5CFE4F20813181FB0192
:10453000ED5CFE4F808190E004C080E090E020E0E0
:1045400030E0FA013183208308950895CF93C82F76
:104550000E94A522C093FE01CF91089580910B0285
:10456000843011F081E0089582E008958091FE0189
:10457000811102C00C94AE22089580E189BD82E1D0
:1045800089BD09B400FEFDCF8091D8008F7D809356
:10459000D8008091E00082608093E0008091E0008C
:1045A00081FDFCCF0895CF92DF92EF92FF920F939F
:1045B0001F93CF93DF93EC018B017A010E9431248A
:1045C000811133C0E114F10439F0F7018081918148
:1045D000081B190BC80FD91FC12CD12C01151105AF
:1045E00019F18091E80085FD16C08091E8008E7772
:1045F0008093E800E114F10449F0F7018081918192
:10460000C80ED91ED182C08285E00FC00E9431241D
:10461000882321F30AC089918093F1000150110988
:10462000FFEFCF1ADF0ADACF80E0DF91CF911F9141
:104630000F91FF90EF90DF90CF900895209112029C
:10464000309113022617370748F06115710539F4C8
:104650002091E8002E772093E80001C0B901FC0109
:1046600020E06115710579F180910B028823F1F149
:104670008530F1F18091E80083FD3CC08091E80035
:1046800082FD2EC08091E80080FFEBCF2091F300E7
:104690008091F20090E0922B6115710551F0883005
:1046A000910538F421912093F10061507109019630
:1046B000F3CF21E0089709F020E08091E8008E77A1
:1046C0008093E800CECF2111CFCF0AC080910B029A
:1046D000882361F0853061F08091E80083FD0AC095
:1046E0008091E80082FFF2CF80E0089582E0089593
:1046F00083E0089581E00895209112023091130221
:104700002617370748F06115710539F42091E80044
:104710002E772093E80001C0B901FC0120E061156B
:10472000710591F180910B02882309F440C0853016
:1047300009F43FC08091E80083FD3DC08091E8000E
:1047400082FD2FC08091E80080FFE9CF2091F30027
:104750008091F20090E0922B6115710559F088303C
:10476000910540F424912093F10031966150710934
:104770000196F2CF21E0089709F020E08091E8004F
:104780008E778093E800CBCF2111CCCF0AC08091E7
:104790000B02882361F0853061F08091E80083FD91
:1047A0000AC08091E80082FFF2CF80E0089582E0A5
:1047B000089583E0089581E00895982F973068F573
:1047C0009093E900981739F07091EC002091ED007A
:1047D0005091F00003C0242F762F50E021FD02C03D
:1047E0009F5FECCF3091EB003E7F3093EB00309138
:1047F000ED003D7F3093ED003091EB003160309360
:10480000EB007093EC002093ED005093F0002091AA
:10481000EE0027FDE5CF80E008958F708093E900DA
:1048200081E0089580910C0287FF11C08091E8001B
:1048300082FD05C080910B028111F8CF11C08091DB
:10484000E8008B770BC080910B02882349F08091A0
:10485000E80080FFF8CF8091E8008E778093E80031
:1048600008952091E4003091E50095E64091EC0038
:10487000842F817040FF23C08091E80080FD1DC01F
:1048800080910B02882399F0853099F08091EB009C
:1048900085FD11C04091E4005091E50024173507D3
:1048A00029F3915011F09A01E1CF84E0089582E05C
:1048B000089583E0089581E0089580E0089540918F
:1048C000E80042FFDDCF08950E94D2240E94DA243E
:1048D000E0EEF0E0808181608083E8EDF0E08081AF
:1048E0008F77808319BCA7EDB0E08C918E7F8C937D
:1048F00080818F7E808310920A0208950F931F9308
:10490000CF93DF930E94D2240E94DA24C8EDD0E036
:1049100088818F77888388818068888388818F7D6C
:10492000888319BC10920B021092070210920902A0
:104930001092080200EE10E0F80180818B7F8083E6
:1049400088818160888342E060E080E00E94DD230E
:10495000E1EEF0E080818E7F8083E2EEF0E0808106
:1049600081608083808188608083F80180818E7F70
:104970008083888180618883DF91CF911F910F911F
:104980000895E8EDF0E080818F7E8083E7EDF0E030
:1049900080818160808384E082BF81E080930A020D
:1049A0000C947E24E8EDF0E080818E7F808310926D
:1049B000E20008951092DA001092E10008951F922B
:1049C0000F920FB60F9211242F933F934F935F9343
:1049D0006F937F938F939F93AF93BF93EF93FF93C7
:1049E0008091E10082FF0BC08091E20082FF07C04E
:1049F0008091E1008B7F8093E1000E945527809198
:104A0000DA0080FF1FC08091D80080FF1BC080911A
:104A1000DA008E7F8093DA008091D90080FF0DC08C
:104A200080E189BD82E189BD09B400FEFDCF81E04E
:104A300080930B020E94382105C019BC10920B0212
:104A40000E9446218091E10080FF19C08091E20020
:104A500080FF15C08091E2008E7F8093E2008091FC
:104A6000E20080618093E2008091D80080628093B0
:104A7000D80019BC85E080930B020E944A218091E6
:104A8000E10084FF30C08091E20084FF2CC080E10F
:104A900089BD82E189BD09B400FEFDCF8091D800B7
:104AA0008F7D8093D8008091E1008F7E8093E1001C
:104AB0008091E2008F7E8093E2008091E20081602D
:104AC0008093E20080910702882311F084E007C000
:104AD0008091E30087FD02C081E001C083E0809304
:104AE0000B020E944B218091E10083FF29C080913D
:104AF000E20083FF25C08091E100877F8093E10081
:104B000082E080930B02109207028091E1008E7F79
:104B10008093E1008091E2008E7F8093E20080919B
:104B2000E20080618093E20042E060E080E00E9469
:104B3000DD238091F00088608093F0000E9449217D
:104B4000FF91EF91BF91AF919F918F917F916F9165
:104B50005F914F913F912F910F900FBE0F901F903B
:104B600018951F920F920FB60F9211242F933F9317
:104B70004F935F936F937F938F939F93AF93BF9365
:104B8000CF93DF93EF93FF93C091E900CF708091B3
:104B9000EC00D82FD17080FDD0E81092E900809110
:104BA000F000877F8093F00078940E94F5251092A2
:104BB000E9008091F00088608093F000CD2BCF70E9
:104BC000C093E900FF91EF91DF91CF91BF91AF9139
:104BD0009F918F917F916F915F914F913F912F9115
:104BE0000F900FBE0F901F9018951F93CF93DF93D8
:104BF000CDB7DEB7AA970FB6F894DEBF0FBECDBF14
:104C0000ECE0F2E08091F100819322E0E431F207E0
:104C1000C9F70E945C218091E80083FF2EC180913A
:104C20000C0290910D02492F50E04A30510508F0D6
:104C300024C1FA01EC54FF4F0C948527803821F0F1
:104C4000823809F01AC108C08091080290910902C7
:104C5000992389F082600FC0809110028F70873095
:104C600008F00BC18093E9008091EB0085FB882759
:104C700080F91092E9009091E800977F9093E80006
:104C80008093F1001092F100D1C0282F2D7F09F000
:104C9000F4C0882319F0823061F0EFC080910E02D9
:104CA000813009F0EAC0933009F080E08093090276
:104CB0002EC080910E0281112AC0809110028F7047
:104CC0002FEF280F263008F0D8C08093E9002091FC
:104CD000EB0020FF1CC0933021F48091EB00806238
:104CE00014C09091EB0090619093EB0021E030E0D4
:104CF000A90102C0440F551F8A95E2F74093EA00CC
:104D00001092EA008091EB0088608093EB00109293
:104D1000E9008091E800877F8093E8000E941224D8
:104D2000ACC08111AAC010910E021F778091E300E0
:104D30008078812B8093E3008091E800877F8093C7
:104D4000E8000E9412248091E80080FFFCCF80914F
:104D5000E30080688093E300111102C082E001C08B
:104D600083E080930B0289C08058823008F085C0B0
:104D700080910E0290910F028C3D53E0950779F5DA
:104D800083E08A838AE289834FB7F894DE01139621
:104D900020E03EE051E2E32FF0E050935700E49131
:104DA00020FF03C0E295EF703F5FEF708E2F90E021
:104DB000EA3010F0C79601C0C0968D939D932F5F87
:104DC000243149F74FBF8091E800877F8093E80046
:104DD0006AE270E0CE0101960E941E2316C0609127
:104DE000100270911102AE014F5F5F4F0E94472287
:104DF000BC01892B09F441C09091E800977F909302
:104E0000E80089819A810E947C238091E8008B7759
:104E10008093E80032C0803881F58091E800877F78
:104E20008093E800809107028093F1008091E80070
:104E30008E7772CF811121C080910E0290910F0266
:104E400099270297D4F48091E800877F8093E80047
:104E500080910E02809307020E9412248091070223
:104E6000811106C08091E30087FD02C081E001C08E
:104E700084E080930B020E944D218091E80083FF23
:104E80000AC08091E800877F8093E8008091EB0062
:104E900080628093EB00AA960FB6F894DEBF0FBE37
:104EA000CDBFDF91CF911F9108950895CF93809149
:104EB0000B028823A1F0C091E900CF709091EC0023
:104EC000892F817090FD80E8C82B1092E9008091B5
:104ED000E80083FD0E94F525CF70C093E900CF91D3
:104EE000089597FB072E16F4009407D077FD09D09C
:104EF0000E948B2707FC05D03EF4909581959F4F2B
:104F00000895709561957F4F0895EE0FFF1F0590EE
:104F1000F491E02D0994AA1BBB1B51E107C0AA1F05
:104F2000BB1FA617B70710F0A61BB70B881F991F4A
:104F30005A95A9F780959095BC01CD010895F999EE
:104F4000FECF92BD81BDF89A992780B50895A8E15A
:104F5000B0E042E050E00C94C727262FF999FECF2D
:104F600092BD81BDF89A019700B4021639F01FBABC
:104F700020BD0FB6F894FA9AF99A0FBE08950196DB
:104F8000272F0E94AE270C94AD27DC01CB01FC013A
:104F9000F999FECF06C0F2BDE1BDF89A319600B492
:0E4FA0000D9241505040B8F70895F894FFCF9D
:104FAE0001FFDC012808140A321E67200521DA20D1
:104FBE00A4206A20013534C697669436323331F711
:104FCE00F6F50000000000000001020304050607CC
:104FDE00080900404D36DE0991095B0907092009D1
:024FEE0039097F
:00000001FF
