:100000000C944C070C947A090C9493070C94930766
:100010000C9493070C9493070C9493070C949307F8
:100020000C9493070C9493070C94D3250C94A62658
:100030000C949D1C0C9493070C9493070C949307B9
:100040000C9493070C9493070C9493070C949307C8
:100050000C9493070C94051D0C9493070C94930730
:100060000C9493070C9493070C9493070C949307A8
:100070000C9493070C9493070C9493070C94930798
:100080000C9493070C9493070C9493070C94930788
:100090000C9493070C9493070C9493070C94930778
:1000A0000C9493070C9493070C94930702E202E1DB
:1000B000015003E103E2012A0002E2014F03E200E2
:1000C00002E2015003E20002E1014D03E10002E11E
:1000D000014A03E10002E1014E03E10002E1014BAC
:1000E00003E10002E202E1014F03E103E20002E268
:1000F00002E1015003E103E20002E1015103E100EA
:1001000002E1015203E10002E1014F03E10002E1DB
:10011000015003E10004001E001F00200021002206
:1001200000040014001A0008001500170005000460
:10013000001600070009000A0006001D001B00064B
:1001400000190005000700080009000A000B000163
:10015000000F000E000D000C000000000010001148
:100160000000000000000000000400270026002519
:1001700000240023000500130012000C0018001CCE
:1001800000070006000F000E000D000B000B000A18
:1001900000090008001000110001000F000E000D02
:1001A000000C00010005001200100011000000000A
:1001B0000005000500000000000000000001000133
:1001C0000001000100010001000100010001000C1C
:1001D00030010001000100010001000100010001E7
:1001E00000025101001B0806081908010010510106
:1001F00000010001000100010001000100010001F7
:1002000000000000000100010000000000000000EC
:1002100000010001000100010001000100010001D6
:10022000000B3052000A300100010001004F005164
:100230000050004D0001000100010001000100011B
:1002400000010001000100010001000100010001A6
:10025000000100010000000000010001000000009A
:100260000000000000010001000100010001000188
:100270000001000100010001000100010001000176
:100280000001000100010001000100010001000166
:100290000001000100010001000100010001000156
:1002A0000001000100010001000000000001000148
:1002B000000000000000000000010001000100013A
:1002C00000010001000100010001004B00010001DC
:1002D000000100010001004E0001004A0001000180
:1002E0000001000100010001000100010001000106
:1002F00000010001000100010001000100000000F8
:1003000000010001000000000000000000010001E9
:1003100000010001000100010001000100010001D5
:1003200000010001000100010001000100010001C5
:1003300000010001000100010001000100010001B5
:1003400000010001000100010001000100010001A5
:10035000000000000001000100000000000000009B
:100360000001000100010001000100010001000185
:100370000001000100010001000100010001000175
:100380000001000100010001000100010001000165
:100390000001000100010001000100010001000155
:1003A00000010001000000000001000454000000F2
:1003B0000000000000010001000100010001000137
:1003C0000001000100010001000100010001000125
:1003D00000010001000100010006510100010001BF
:1003E0000001000100010001000100010001000105
:1003F00000010001000100010000000000010028D0
:1004000045000000000000000001000100010001A3
:1004100000010001000100010001000100010001D4
:1004200000010001000100010001000100010001C4
:1004300000010001000100010001000100010001B4
:1004400000010001000100010001000100000000A6
:100450000001000100000000000000000001000198
:100460000001000100010001000100010001000184
:100470000001000100010001000100010001000174
:100480000001000100010001000100010001000164
:100490000001000100010001000100010001000154
:1004A000000000000001000100000000000000004A
:1004B0000001000100010001000100010001000134
:1004C000000530023004300100010001000130035A
:1004D000300030093001000100010001000100017D
:1004E0000001000100010001000100010001000104
:1004F00000010001000000000001000100000000F8
:1005000000000000000100010001000100010001E5
:1005100000010001000100010001000100010001D3
:1005200000010001000100010001000100010001C3
:1005300000010001000100010001000100010001B3
:1005400000010001000100010000000000010001A5
:100550000000000000000000000100010001000197
:100560000001000100010001000100010001000183
:10057000000100010001000100010008300100013C
:100580000001000100010001000100010001000163
:100590000001000100010001000100010000000055
:1005A0000001000100000000000000000045003ACA
:1005B000003B003C003D003E0001002000200020E8
:1005C0000020002000010001005200010001000194
:1005D000000100500051004F00010001002961E2BC
:1005E00000E300035701002A00010046004E004BC3
:1005F000000000000001002A0000000000000000D0
:1006000000440043004200410040003F000100015F
:100610000001000100010001000100520001000181
:1006200000010001004F00510050000100010001D5
:10063000004F0051005000340052002C0001004CCB
:10064000004D004A000000000028002C00000000BF
:10065000000000000000000000000000000000009A
:10066000000000000000000000000000000000008A
:10067000000000000000000000000000000000007A
:10068000000000000000000000000000000000006A
:100B90000000000000005C000001000100010001F5
:100BA00000005C00000100010001000100005C0188
:100BB000000100010001000100005C0100010001D2
:100BC0000001000100005C010001000100010001C2
:100BD000000100010001000100000000000100010F
:100BE0000000000000000000000100010001000101
:100BF00000010001000100010001000100000001EE
:100C000000010001000100010001000100010001DC
:100C1000000100010001000100005C010001000171
:100C200000010001000100010001000100000000BE
:100C300000010001000000000000000000000000B2
:100C400000000000002A2B28000000000000000027
:100C5000000000000000000029000000002C1E34ED
:100C600020212224342627252E362D3738271E1FF3
:100C7000202122232425263333362E37381F04051E
:100C8000060708090A0B0C0D0E0F1011121314158C
:100C9000161718191A1B1C1D2F3130232D3504056A
:100CA000060708090A0B0C0D0E0F1011121314156C
:100CB000161718191A1B1C1D2F3130354C00000057
:100CC0000000000000000000000000000000000024
:100CD0000000000000000000000000000000010112
:100CE00001010101000101010100000000000000FC
:100CF00000000000000000010001000101010101ED
:100D000001010101010101010101010101010101D3
:100D100001010101010101010000000101000000C9
:100D200000000000000000000000000000000000C3
:100D30000000000000000000010101010004033078
:100D40000000000E03440061006300740079006C31
:100D5000000000160343004800200062006F007886
:100D6000004D006F006400730000000403090409D3
:100D7000025400030100A0FA09040000010301016C
:100D8000000921110100012240000705810308002C
:100D90000A090401000103010200092111010001F7
:100DA000224D000705820308000A0904020001031E
:100DB000000000092111010001223600070583030C
:100DC00008000A1201100100000008EDFE60300169
:100DD000000102030105010980A10185021601003D
:100DE0002603001A81002A8300751095018100C036
:100DF000050C0901A1018503160100269C021A01B8
:100E0000002A9C02751095018100C005010902A10C
:100E1000010901A100050919012905150025019500
:100E200005750181029501750381010501093009EC
:100E3000311581257F9502750881060938158125B0
:100E40007F950175088106050C0A38021581257FFA
:100E5000950175088106C0C005010906A1010507B5
:100E600019E029E715002501950875018102950112
:100E7000750881010508190129059505750191027B
:100E80009501750391010507190029FF150026FF3B
:100E900000950675088100C011241FBECFEFDAE06F
:100EA000DEBFCDBF04B603FE27C080911102909132
:100EB0001202A0911302B09114028730904BA74008
:100EC000B04BD1F410921102109212021092130240
:100ED0001092140214BE84B7877F84BF0FB6F894B3
:100EE000A8958091600088618093600010926000F6
:100EF0000FBEE0E0F8E3099511E0A0E0B1E0E0E822
:100F0000F1E502C005900D92A234B107D9F722E0B5
:100F1000A2E4B1E001C01D92A131B207E1F70E9445
:100F200002230C94BE280C940000089508950C949C
:100F300096078091E401836088608093E401ABE1CF
:100F4000B1E061E070E08D91E82FE295EF70F0E0A4
:100F500041A18F709B0101C0220F8A95EAF7922F61
:100F60009095942391A382A1822B82A381E0A23247
:100F7000B80749F7A5E1B1E061E070E08D91E82F95
:100F8000E295EF70F0E041A18F709B0101C0220F4C
:100F90008A95EAF7922F9095942391A382A1822BB0
:100FA00082A381E0AB31B80749F7559A209AE2E471
:100FB000F1E0A1E5B1E080E591E011921D928E177C
:100FC0009F07D9F70C946D0C4F925F926F927F92AE
:100FD0008F929F92AF92BF92CF92DF92EF92FF9249
:100FE0000F931F93CF93DF938091000107E010E0F0
:100FF000882311F010E000E0C8018F5A9E4F7C0159
:101000008BE1C82E81E0D82EE701AA24A394B12C4D
:101010008824839424E0922E78801882D6018D91C2
:101020006D01E82FE295EF70F0E091A18F709501CE
:1010300001C0220F8A95EAF7892F822B81A382A112
:10104000622E6094862182A3B0EABA95F1F745E159
:1010500051E090E080E0DA017D91AD01A72FA295EB
:10106000AF70B0E09096BC91A8817F70250102C05E
:10107000440C551C7A95E2F7B2016B2309F052C07B
:101080006A2D082E01C0660F0A94EAF76A2B68835E
:10109000019686309105F9F681A1862181A382A16E
:1010A000282B22A38881781659F080925F010E9434
:1010B000CF1C90936101809360018BB189258BB91E
:1010C000219682E2C81681E0D80609F0A5CF80916A
:1010D0005F018823A9F080916001909161010E94D5
:1010E000DB1C069768F0F801EE5BFE4F80E0D7014D
:1010F0009D917D0191938F5F8730C9F710925F01B9
:1011000081E0DF91CF911F910F91FF90EF90DF90E1
:10111000CF90BF90AF909F908F907F906F905F9097
:101120004F90089560E0B2CFCF93DF93809100019C
:10113000D0E0C0E0882311F0C7E0D0E00E94DF09D2
:10114000009789F4CE5BDE4F30E020E0F901EC59E6
:10115000FE4F408149932F5F3F4F27303105B1F754
:10116000DF91CF91089581E090E0FACFCF930E9474
:10117000E407C82F0E949408892BE1F05D988091C4
:1011800050018F5F80935001863078F0809100018C
:10119000F0E0E0E0882311F0E7E0F0E0EE5BFE4FE6
:1011A00087E090E011920197E9F70E946F0C8C2F75
:1011B000CF9108955D9A10925001F7CF0E94E407F5
:1011C00080910001E7E0F0E0882311F0F0E0E0E03A
:1011D000EE5BFE4F90E080E02191DC01AC59BE4F08
:1011E0002C93019687309105B9F70895E82FF0E028
:1011F000EE5BFE4F808108950895E8EDF0E0808178
:10120000806180838AE18A95F1F700C08091D900DE
:10121000817008950E94FD08882321F00E946D09C5
:10122000789408950E94C61C0E947109F9CF0E940B
:1012300099070E94DE08FDCF0E940A090E94FD085E
:10124000811102C00E9417090895509A089550987C
:10125000589A0895589A08950E942709489BFECFEE
:1012600080E88A95F1F708950E94270998E080E0C8
:1012700029B1880F2170822B20E82A95F1F725E00B
:101280002A95F1F70000915099F708950F931F9355
:10129000CF93082F0E942509C8E010E0C15020F428
:1012A000CF911F910F910895C8010C2E02C0959502
:1012B00087950A94E2F780FF06C00E942A0980E819
:1012C0008A95F1F7EBCF5898FACF0E9425095898E4
:1012D00080E88A95F1F70C942A090E9425090C945C
:1012E0002A090E942709E89AE9E6F0E080818C7FCC
:1012F000808308951F920F920FB60F921124EF92E0
:10130000FF921F932F933F934F935F936F937F931E
:101310008F939F93AF93BF93CF93DF93EF93FF93FD
:101320000E946509D0E0C0E010E0CE018C599E4FCC
:101330007C01FC0180810E9446090E946509F70139
:101340008081180F2196C730D10579F7812F0E942F
:1013500046090E946509F0E8FA95F1F780E48A955C
:10136000F1F70E943409809363010E946509C091DE
:1013700063010E943409D82F0E9465090E94270941
:1013800080916201DC17C9F0816080936201FF9156
:10139000EF91DF91CF91BF91AF919F918F917F910D
:1013A0006F915F914F913F912F911F91FF90EF901F
:1013B0000F900FBE0F901F9018958E7FE6CFEF9283
:1013C000FF921F93CF93DF93F8940E9425095898BA
:1013D00025E02A95F1F700000E9427090E942A09BA
:1013E00030E83A95F1F7489B09C0789481E090E0A5
:1013F000DF91CF911F91FF90EF9008950E942C09EB
:10140000D0E0C0E010E00E943409FE01EC59FE4F2C
:101410007F0180830E942C09F7018081180F21969B
:10142000C730D10581F70E943409C82F0E942C09CA
:10143000C113DBCF809163010E9446090E942C09F1
:10144000809163010E9446090E942C090E9425098F
:101450000E942A09789490E080E0CACF0C94950706
:10146000FC0182818823C9F06D30B8F4E62FF0E0EA
:10147000E45CF54F0C946E28490A500A530A560A48
:10148000590A5C0A5F0A620A650A680A6B0A6E0AF0
:10149000710A8EE091E00E946A0C90E080E008956D
:1014A00087E091E0F8CF80E091E0F5CF89EF90E020
:1014B000F2CF8EEE90E0EFCF83EE90E0ECCF8CEDAC
:1014C00090E0E9CF85ED90E0E6CF8EEC90E0E3CFC1
:1014D00087EC90E0E0CF80EC90E0DDCF89EB90E00E
:1014E000DACF8CEA90E0D7CF81E0089581E00895CB
:1014F0000C94760A0E94B1152FEF84E39CE02150F2
:1015000080409040E1F700C0000087E797E79093A4
:101510000108809300080C942B1D0F931F93CF9309
:10152000DF938C01FC01C081D181CE010E94D61ACB
:10153000BE010E94790CEC01B8010E948A0FB8012B
:10154000CE010E94780A882309F459C0B801CE015F
:101550000E94CE0F882309F452C0B801CE010E9428
:10156000DD0E882309F44BC0C531FCE5DF0709F423
:1015700039C1B0F4C130ECE5DE0709F446C008F02B
:1015800056C0C115DC45B1F181E0809370018093B4
:101590007101C801DF91CF911F910F910C94740AD2
:1015A000C53DECE5DE0709F402C1B8F4C33D8CE5A6
:1015B000D80709F4C0C0C43DDC4531F7F801828189
:1015C000882309F4DFC0109271010E94CF1C909310
:1015D0006F0180936E0180E2BBC0C83DFCE5DF0770
:1015E000F1F0C93DDC4581F6F8018281882339F0AC
:1015F00082E01AC0F801828181110E947A0A80E09B
:10160000DF91CF911F910F910895F8018281882376
:10161000B1F38091E40181608093E401F0CFF8019F
:101620008281882361F380E00E949B23E8CFF80148
:101630008281882309F4ADCF0E94F81B811102C07A
:101640000E94DE1B0E940B1C90E09093030280938B
:101650000202FE01E350FC45809102028160E2310A
:10166000F105C8F4EA5CF44F0C946E28480B540B57
:10167000580B5C0B600B640B680B6C0B700B740BE2
:10168000780B7C0B800B840B880B8C0B900B940BD2
:1016900080910202826080930202809102020E9485
:1016A0000F1C0E94B115ABCF809102028460F3CF72
:1016B000809102028860EFCF809102028061EBCFBF
:1016C000809102028062E7CF809102028064E3CFC2
:1016D000809102028068DFCF809102028460EACFAD
:1016E000809102028E7FD7CF809102028D7FD3CF6F
:1016F000809102028B7FCFCF80910202877FCBCF78
:10170000809102028F7EC7CF809102028F7DC3CF6E
:10171000809102028F7BBFCF809102028F77BBCF77
:10172000809102028B7FEACF90910202892F97FB72
:1017300087F98058B0CFF8018281882361F0109238
:1017400070010E94CF1C90936D0180936C0182E028
:101750000E94D71254CF8091700181110FC08091E7
:101760006C0190916D010E94DB1C8639910530F46B
:1017700086E20E94AD1186E20E94881282E00E94F9
:10178000DE123DCF8091710181110FC080916E01F9
:1017900090916F010E94DB1C8639910530F487E23D
:1017A0000E94AD1187E20E94881280E2E8CFF80122
:1017B0008281811108CF809171018111F6CF8091D2
:1017C0006E0190916F010E94DB1C8639910568F7CC
:1017D00080E20E94DE1288E20E94AD1188E20E943F
:1017E00088120DCF0E949C1BF8019281992381F0F1
:1017F0008A7A91E009F490E090936B01811106C020
:1018000089E20E94251B0E94691BF9CE85E3F9CF6E
:1018100080916B01811104C089E20E942C1BF3CFDF
:1018200085E3FBCFCF9390E0FC01E35CF34FC491E1
:101830008354934FFC018491882369F081EE0E94C8
:10184000AD118C2F0E94AD118C2F0E94881281EE59
:10185000CF910C9488128C2F0E94AD118C2FF8CF51
:10186000FF920F931F93CF93DF938C01F62EF80115
:101870008491882349F1E8012196813049F4FE01E1
:101880001491812F0E94AD11812F0E94881206C0F1
:10189000823089F4FE0184910E94AD118E010F5FA8
:1018A0001F4F8F2D815018F3EFE9FFE03197F1F7CB
:1018B00000C00000F7CF833019F4FE018491E5CF1A
:1018C0000E94120CE801EACFDF91CF911F910F9196
:1018D000FF90089560E00C94300C0C942E0A0E9446
:1018E00028100C94970708950C94730C0C94740CA6
:1018F0000895972F70E026E0929F600D711D1124CE
:10190000FB0194E5899FE00DF11D1124EE0FFF1FEF
:10191000EB5EFE4F859194910895FC01EE0FFF1F41
:10192000E35CF24F859194910895CF93DF930E94E9
:10193000790C0E94390EEC018115904508F043C0E6
:10194000C11580E4D80708F00AC1C83ED10528F5C2
:10195000C03ED10508F09EC0C83AD10580F4C53A12
:10196000D10508F08DC0C130D10509F493C020F035
:10197000C430D10508F08EC0D0E0C0E08BC0CD3BB4
:10198000D10508F48BC0CE01805C9109C03CD10523
:1019900098F30E948D0CEC017DC0C11520E2D207A6
:1019A00050F4C11581E0D80708F074C0C03FD105DC
:1019B00018F3D0656FC0C11520E3D20708F0C5C089
:1019C000CE019F70E6CFC11585E5D80760F5C1153A
:1019D00024E5D20708F0F1C0C11582E5D80750F41C
:1019E000C11521E5D20708F4BDC0DC2FCC27C16F9B
:1019F000D06A50C09C2F969596959E0123703327F0
:101A0000C115D34508F0CAC0C1E0D0E002C0CC0F78
:101A1000DD1F2A95E2F720E2929FC0011124C82B16
:101A2000D92BDC6837C0C11529E5D20780F4C11570
:101A300088E5D80708F0C6C0C11526E5D20708F02A
:101A40009BCFDC2FCC27CC27DF71D06223C0C11500
:101A50008AE5D80708F4BBC0CE01905681159042A4
:101A600008F08ACF8D2F8F710E94B90EDD27D062CA
:101A700090E0982F882788279F71C82BD92B0AC000
:101A8000C53AD10509F4B0C0C63AD10509F4AFC0D2
:101A9000C3E8D0E4CE01DF91CF910895C83AD105D3
:101AA00009F4A8C0C93AD10509F4A7C0CA3AD105BA
:101AB00009F4A6C0CB3AD10509F4A5C0CC3AD105AA
:101AC00009F4A4C0CB3BD10509F4A3C0CC3BD1059C
:101AD00009F4A2C0CD3AD10509F4A1C0C03BD1059B
:101AE00009F4A0C0CE3AD10509F49FC0CF3AD10580
:101AF00009F49EC0C13BD10509F49DC0C23BD1058C
:101B000009F49CC0C33BD10509F49BC0C43BD1057B
:101B100009F49AC0C53BD10509F499C0C63BD1056B
:101B200009F498C0C73BD10509F497C0C83BD1055B
:101B300009F496C0C93BD10509F495C0CA3BD1054B
:101B400009F094C0CAE2D6E4A5CFCE019927D3FF0D
:101B500003C0EC01D86C9ECFEC01D06C9BCFDF7042
:101B6000D06A98CFCE01E4E096958795EA95E1F7A3
:101B700083709C2F937021E030E002C0220F331F4E
:101B80009A95E2F73C68382BC695C695C37080E2FB
:101B9000C89FE0011124C22BD32B7CCFC1E0D0E041
:101BA00002C0CC0FDD1F2A95E2F720E2929FC00110
:101BB0001124C82BD92BDA686DCFDC2FCC27C46F4A
:101BC000D06A68CFDC2FCC27C06FD06A63CFCE013C
:101BD00034E0969587953A95E1F78F70CF70C06E97
:101BE000D0E0D06AD82B56CFC1E8D0E453CFC2E8BA
:101BF000D0E450CFC2EED4E44DCFC9EED4E44ACF06
:101C0000CAEED4E447CFC5EBD4E444CFC6EBD4E46A
:101C100041CFC3EBD4E43ECFC4EBD4E43BCFC7EB1E
:101C2000D4E438CFCCECD4E435CFCDECD4E432CF0F
:101C3000C3E8D5E42FCFCAE8D5E42CCFC2E9D5E478
:101C400029CFC4E9D5E426CFC1E2D6E423CFC3E24D
:101C5000D6E420CFC4E2D6E41DCFC5E2D6E41ACF45
:101C6000C6E2D6E417CFC7E2D6E414CFC0E0D4E48E
:101C700011CF8238910549F1B0F48133910509F40F
:101C80005CC048F48932910509F452C08A3291054A
:101C900009F458C008958533910509F444C0893387
:101CA000910599F00895833E910531F138F4803E15
:101CB000910591F0823E9105B1F00895863E91051F
:101CC00011F1873E910541F10895209102022370A0
:101CD000C9F080EE90E008952091020220FF12C02A
:101CE00089E390E008952091020222FF0BC024FFB7
:101CF0002EC090E080E008952091020222FD2AC0CB
:101D000024FDF7CF08952091020223FFFBCF24FD8D
:101D1000F0CF87EE90E008952091020223FFF0CFEC
:101D200086EE90E008952091020225FD16C00895E8
:101D30002091020225FD14C008952091020226FD83
:101D400012C008952091020226FD10C0089583EE6E
:101D500090E0089582EE90E0089589E290E0089581
:101D600085E390E008958AE290E0089581E390E0B1
:101D7000C9CF9091020292FF06C0282F2871283007
:101D800069F4877F846093FF06C0282F287128316B
:101D900061F4877E846194FD877E0895282F2471E5
:101DA000243089F78B7F8860EECF282F247124316F
:101DB00091F78B7E8861EFCF08950F931F93CF9398
:101DC0008C01FB018281811106C0C1E08C2FCF9173
:101DD0001F910F910895C0917F01C11125C0063157
:101DE0001C4599F70E94DC0E81E080937F010E94E0
:101DF000CF1C90937E0180937D011092720110920E
:101E00007401109273011092760110927501109274
:101E100078011092770110927A0110927901109254
:101E20007C0110927B01D2CF80917D0190917E0147
:101E30000E94DB1C8C32914040F680917201E82FA9
:101E4000F0E0EE0FFF1FED58FE4F118300838F5F10
:101E500080937201C0E0BACFCF93DF93EC0181E0B1
:101E60008F878F810E949F1B88850E94B31B0E94D1
:101E7000691BEA81FB816A897B89CE0106963097CE
:101E800019F0DF91CF910994DF91CF910895EF92EE
:101E9000FF920F931F93CF93DF93EC0188858111FD
:101EA00032C0EB80FC8087E5F81A24E12E9DC0014A
:101EB0002F9D900D1124DC01A559BE4F1496ED9174
:101EC000FC91159752966D917C918F589E4F30974B
:101ED00009F0099584E18E9D80018F9D100D1124DC
:101EE00005591E4FF80187810E94A51BF8018085C6
:101EF0000E94B91B0E94691B18821F8219861092CA
:101F0000810110928001DF91CF911F910F91FF907D
:101F1000EF900895DF92EF92FF920F931F93CF936C
:101F2000DF937C01FB018281882391F08091010184
:101F30008F3F71F0CBE6D1E010E000E0DD24D394D8
:101F400080910101082E000C990B8017910744F431
:101F5000DF91CF911F910F91FF90EF90DF90089547
:101F60008E818823B9F089859A858E159F0539F46D
:101F70008091800190918101E816F90659F0DD8683
:101F80008F85811103C0CE010E942C0FCE010696D1
:101F90000E94470F0F5F1F4F6496D2CFEF92FF92C0
:101FA0000F931F93CF93DF937C0197558F3F91053C
:101FB00009F0D8F520910101022E000C330B2817EF
:101FC000390714F480930101FB01228134E1389F29
:101FD0008001399F100D1124E801C559DE4F2E876D
:101FE00092818E81992349F1FA86E9868F5F8E83EB
:101FF0000E94CF1C9C878B870E94DB1B8F830E94D3
:102000009C1B88870E94B01B9885892B8887E88154
:10201000F9816A897B89C8018F589E4F309709F0F2
:102020000995F0928101E092800181E0DF91CF91EA
:102030001F910F91FF90EF9008958823B1F38F8542
:10204000882399F3C8018F589E4F0E94470FEDCF08
:10205000EF92FF920F931F93CF93DF938091010133
:1020600010E004E18F3FC1F5DF91CF911F910F91F7
:10207000FF90EF900895029FF001039FF00D11244F
:10208000E559FE4FE088F188E114F10419F486E97E
:10209000E82EF12C029FE001039FD00D1124C559B9
:1020A000DE4F8E818823B9F08B859C850E94DB1CD6
:1020B000E816F90680F4109F700111248F858111B4
:1020C00005C0C70185599E4F0E942C0FC7018F582C
:1020D0009E4F0E94470F1F5F212F30E0809101012A
:1020E000082E000C990B821793072CF6BDCF909306
:1020F0008701809386010895E0918601F091870120
:10210000309721F00190F081E02D099480E008954E
:10211000E0918601F0918701309721F00280F381F0
:10212000E02D09940895E0918601F09187013097A0
:1021300021F00480F581E02D099408952091840117
:10214000309185012817390771F0909385018093AC
:102150008401E0918601F0918701309721F006809B
:10216000F781E02D09940895209182013091830137
:102170002817390771F09093830180938201E091D1
:102180008601F0918701309721F00084F185E02DE0
:10219000099408950C941C0981E008950E94C61CBE
:1021A0000E9499070C943C1DBF92CF92DF92EF9250
:1021B000FF920F931F93CF93DF93CDB7DEB72A978C
:1021C0000FB6F894DEBF0FBECDBF0E94B6080E94C6
:1021D000CC10882309F471C089E8C82E81E0D82E7C
:1021E00010E000E0B02E802F0E94F608E82EF601E5
:1021F000F1906F01F81609F45AC08091E40181FD55
:102200000E94FC0890E080E0FE242F2D30E0482F53
:10221000B901082E02C0759567950A94E2F760FF30
:1022200041C08E83BF8281E090E06C0102C0CC0C83
:10223000DD1C4A95E2F72E2D30E02C213D21232B89
:1022400009F480E088870E94CF1C8160782F9A87EC
:1022500089874E815F8168858A850E947E11F80199
:10226000E757FE4F80818C2580830E94CF1E0E94FD
:102270007C1090918801891789F10E947C108093CD
:1022800088012A960FB6F894DEBF0FBECDBFDF914E
:10229000CF911F910F91FF90EF90DF90CF90BF9063
:1022A0000C94760C01968630910509F0B0CF0F5F43
:1022B0001F4F0E30110509F095CF8FEF89838A8368
:1022C0001B820E94CF1C8160782F9D838C83498163
:1022D0005A816B818D810E947E11C7CF2A960FB6DD
:1022E000F894DEBF0FBECDBFDF91CF911F910F914C
:1022F000FF90EF90DF90CF90BF900895CF93DF9342
:10230000CDB7DEB72B970FB6F894DEBF0FBECDBFAB
:102310004F83588769877A878B871E821D8285E065
:10232000FE013796DE01119601900D928A95E1F734
:1023300049815A816B817C818D819E812B960FB65C
:10234000F894DEBF0FBECDBFDF91CF910C94A918DA
:10235000FC01808191810C94181BCF93C82F882396
:1023600009F4D4C08238C1F40E947C1081FDCEC033
:1023700089E30E94251B0E94691B2FEF81EE94E0E8
:10238000215080409040E1F700C0000089E30E94A6
:102390002C1BCF910C94691B8338A1F40E947C10F4
:1023A00080FDB4C083E50E94251B0E94691B2FEFAE
:1023B00081EE94E0215080409040E1F700C00000A1
:1023C00083E5E5CF8438A1F40E947C1082FD9EC095
:1023D00087E40E94251B0E94691B2FEF81EE94E089
:1023E000215080409040E1F700C0000087E4CFCF4B
:1023F0008CEF8C0F813A48F48C2F0E94D4208111ED
:1024000085C08C2F0E94251BC4CF80E28C0F8830A2
:1024100048F4C77081E001C0880FCA95EAF70E94AE
:102420009F1BB7CF8BE58C0F833068F481E890E079
:10243000C53A31F083E890E0C63A11F482E890E0C2
:10244000CF910C949E1088E58C0F853108F05EC00A
:1024500082EE90E0C83A09F456C089EE90E0C93A9D
:1024600009F451C08AEE90E0CA3A09F44CC085EBF9
:1024700090E0CB3A09F447C086EB90E0CC3A09F4FF
:1024800042C083EB90E0CB3BF1F184EB90E0CC3B9E
:10249000D1F187EB90E0CD3AB1F18CEC90E0C03B0C
:1024A00091F18DEC90E0CE3A71F183E891E0CF3A72
:1024B00051F18AE891E0C13B31F182E991E0C23B00
:1024C00011F184E991E0C33BF1F081E292E0C43B79
:1024D000D1F083E292E0C53BB1F084E292E0C63BEA
:1024E00091F085E292E0C73B71F086E292E0C83B52
:1024F00051F087E292E0C93B31F090E080E0CA3BC6
:1025000011F48AE292E0CF910C94B410CF91089527
:10251000882309F44BC0823871F40E947C1081FF3B
:1025200045C089E30E94251B0E94691B89E30E9424
:102530002C1B0C94691B833859F40E947C1080FF7B
:1025400035C083E50E94251B0E94691B83E5EFCF00
:10255000843859F40E947C1082FF28C087E40E94CE
:10256000251B0E94691B87E4E2CF9CEF980F913AEC
:10257000F0F290E2980F983050F4877091E001C02B
:10258000990F8A95EAF7892F0E94A51BD2CF9BE568
:10259000980F933020F490E080E00C949E10885ABD
:1025A000853120F490E080E00C94B41008958823E5
:1025B00021F00E949F1B0C94691B0895882321F031
:1025C0000E94A51B0C94691B08958F929F92AF9255
:1025D000BF92DF92EF92FF920F931F93CF93DF93FF
:1025E0007C01D62FC72FFC01058102950F70128147
:1025F00011110E94C11B0E94621BD82E882371F00A
:10260000112331F180E28D0F883010F182E00E94B9
:102610004C1B0E94621B91E0D82ED926BC2EB2948E
:102620009FE0B922EB2DF0E0E85EFC4E0C946E28A2
:102630002A132A137A137A13C113E913C813C81380
:102640002B14C813C614C6145015C813C813591533
:10265000D12CE4CF0C2F0F70C07F11F00295007FBA
:102660001123A9F0002359F080E28D0F883010F07B
:10267000D11109C0802F0E949F1B0E94691B8D2FC2
:102680000E94AD1114C0802F0E94B31BF6CF8D2F76
:102690000E948812002359F080E28D0F883010F0DC
:1026A000D11124C0802F0E94A51B0E94691BDD2030
:1026B00009F406C20E943F1B80FD02C2F70112828C
:1026C0000E94391B0E943A1AC7010E946C150E9491
:1026D000391BDF91CF911F910F91FF90EF90DF9009
:1026E000BF90AF909F908F900C945B1A802F0E94A8
:1026F000B91BDBCFFC2FFF70BF2EC07FC03219F09B
:10270000B29480EFB822DD2369F0D13049F1112372
:1027100091F1002351F1F701858180FFB0CF8F70D7
:10272000858323C0112381F0011106C00E94DB1BA9
:102730008B290E94D712BBCF0130C1F70E94DB1B4F
:102740008B290E94D51BB3CF011106C00E94D81B54
:102750008B2D0E94DE12ABCF013009F4A8CFF6CF4B
:10276000112329F0063008F0A2CF8B2DE2CF0530DF
:1027700008F09DCFEDCF002359F38D2F0E948812D2
:1027800096CF8C2F86958695837079F08130B9F03D
:1027900098E0B91609F49BC0B91608F488CF86EF03
:1027A0008B0D823008F493C082CF8D2F9C2F9370B5
:1027B000111102C090E080E00E949E1078CF8D2F12
:1027C0009C2F9370111102C090E080E00E94B41021
:1027D0006ECF112309F1D53F99F0D63FB9F0D43F20
:1027E00049F48091FC019091FD0181609093FD017D
:1027F0008093FC018D2F0E94D81D0E94C41E57CFCC
:102800008091FC019091FD018260F0CF8091FC01EC
:102810009091FD018460EACFD53F89F0D63FA9F0C1
:10282000D43F49F48091FC019091FD018E7F9093FB
:10283000FD018093FC018D2F0E94401EDECF809110
:10284000FC019091FD018D7FF2CF8091FC01909170
:10285000FD018B7FECCF8C2F837009F04BC01111E1
:1028600036C02D2F229526952770220F220F6D2F0F
:102870006F70862E912CB12CA12C022E04C0880CD6
:10288000991CAA1CBB1C0A94D2F760E070E0CB0133
:10289000D4FF0FC06FE070E080E090E004C0660FEE
:1028A000771F881F991F2A95D2F76095709580959C
:1028B0009095C695C695C370C23071F0A0F4682992
:1028C00079298A299B29C13091F00E94EC190E9434
:1028D0007C100E94760CEBCE682979298A299B29E5
:1028E0000E94FE19F4CF0E94EC19C501B4010E94A8
:1028F000DA19EDCF8695112311F08C2F8170882382
:1029000031F32D2F229526952770220F220F6D2F40
:102910006F70862E912CB12CA12C022E04C0880C35
:10292000991CAA1CBB1C0A94D2F760E070E0CB0192
:10293000D4FF0FC06FE070E080E090E004C0660F4D
:10294000771F881F991F2A95D2F7609570958095FB
:102950009095C695C695C370C23051F080F4682931
:1029600079298A299B29C13071F00E94B11AAFCF11
:10297000682979298A299B290E94C31AA8CF0E9415
:10298000B11AC501B4010E949F1AA1CFE0E2ED0F78
:10299000E53108F066C0F0E0E053FB4E0C946E2881
:1029A000E514E514E514E514E514E514E514E5145F
:1029B000E514E514E514E514E514E514E514E5144F
:1029C000F61404150B1512151C15DF708C2F8F7162
:1029D000112331F00E943A1A8D2F0E94D712D8CEBF
:1029E0000E945B1A8D2F0E94DE12D2CE112341F07D
:1029F000053008F0CDCE8C2F8F710E947E1AC8CE84
:102A0000063008F0C5CEF7CF8C2F8F71112339F027
:102A10000E943A1ABDCE8C2F8F711123C9F30E94E8
:102A20005B1AB6CE112329F08C2F8F710E94251AC4
:102A3000AFCE0E94201AACCE112349F0CF718C2F5B
:102A40000E943A1A63E08C2F0E94431BA1CE81E0C2
:102A50000E944C1B023008F49BCE82E00E944C1B6B
:102A600097CE112349F0002321F08D2F0E94AD1144
:102A70008FCE8C2F8F71CCCF002379F0D93349F4CE
:102A8000FFEF27EE83E0F15020408040E1F700C0E7
:102A900000008D2F0E9488127BCE8C2F8F71BFCFAC
:102AA0004C2F4F706D2FC7010E94300A0E9452199F
:102AB000FECD4C2F4F706D2FC7010E94780CF7CDC3
:102AC000DF91CF911F910F91FF90EF90DF90BF901A
:102AD000AF909F908F9008950F931F93CF93DF93A4
:102AE000EC01988189812B813C81232B39F08F3F28
:102AF00019F481E09F3F19F080E001C081E080FD82
:102B000017C0CE010E948D0A882391F068817981D7
:102B10008A810E94221B8C010E94D51A0E94D7191B
:102B2000B801CE01DF91CF911F910F910C94E51266
:102B3000DF91CF911F910F9108950E94C11B0E94B8
:102B4000D21B0E94331B0E94691B0E945A1F0E94C5
:102B5000C41E90E080E00E949E1090E080E00C9403
:102B6000B4100E94AD1B0C949D150E94181BE92FF8
:102B7000E295EF70E250EE30E0F4F0E0EE53FA4E02
:102B80000C946E28D015D015D915D915DB15D9158B
:102B9000D915D915D015D015E015D915D915E015C9
:102BA000803F19F020F4803E20F481E00895843FB6
:102BB000E1F380E00895803EC0F3813FD1F7F5CF87
:102BC00093FB882780F90895CF93DF9300D000D03E
:102BD0001F92CDB7DEB70F900F900F900F900F9010
:102BE000DF91CF910895CF93DF9300D000D000D034
:102BF000CDB7DEB726960FB6F894DEBF0FBECDBFB9
:102C0000DF91CF9108951F93CF93DF93C0919701E8
:102C100016E0809198018C1304C0DF91CF911F9131
:102C20000895D0E01C9FF0011D9FF00D1124E75680
:102C3000FE4F4081518162817381848195810E9420
:102C4000F3152196C770E5CF4091C9015091CA0193
:102C50006091CB017091CC018091CD019091CE011A
:102C60000C94F315209197019091980156E0291347
:102C700002C080E0089530E0529FF001539FF00DB4
:102C80001124E756FE4F7181761306C070817813C8
:102C900003C07281741304C02F5F3F4F2770E7CFCA
:102CA00081E008951F93CF93DF938091CE01807FC1
:102CB000D1F48091CB018823B1F080919701D0911C
:102CC0009801B091C901C091CA014091CC015091C5
:102CD000CD01A1E0BF3F09F0A0E0BA016095709579
:102CE00016E0D81304C0DF91CF911F91089521E021
:102CF0004115510521F02A2FCF3F09F020E090E047
:102D000020FD38C0189FF001199FF00D1124E756DF
:102D1000FE4F21812C132EC020812B132BC022812A
:102D2000211128C0238134812417350700F1241B89
:102D3000350B26393105F0F42091CE012F7020613A
:102D40002093CE0126E0289FF001299FF00D112449
:102D5000E256FE4F80818F708061808389EC91E024
:102D60000E946C15DF91CF911F910C940316260FD2
:102D7000371FDFCF01968770B4CF9F92AF92BF927B
:102D8000CF92DF92EF92FF920F931F93CF93DF9337
:102D9000CDB7DEB761970FB6F894DEBF0FBECDBFDB
:102DA0008C0185E0F801DE011D9601900D928A9557
:102DB000E1F7D801DC901196EC9011971296CC9027
:102DC0003091C9014091CA018091CC019091CD010F
:102DD00021E0009731F04F3F19F421E03F3F09F027
:102DE00020E020FD9AC1F801A380B4809090CB012F
:102DF000992009F43FC1A816B906E0F1B501681B96
:102E0000790BCB01FF24F3948639910508F0F12C5E
:102E10008091CE01982F907FFF2009F4E4C091119A
:102E20009DC0FC2C4E112BC03D1129C0C11027C0E4
:102E30008F7080618093CE010E94241689EC91E00E
:102E40000E946C158091CE01D80115968C938F2D20
:102E500061960FB6F894DEBF0FBECDBFDF91CF9164
:102E60001F910F91FF90EF90DF90CF90BF90AF90A8
:102E70009F900895809590958A0D9B1DC3CF81E00A
:102E8000A114B10431F0BFEFEB1202C081E0DB12FC
:102E900080E080FD1AC081E08C2580FF18C04C2D99
:102EA0006E2D8D2D0E943216882389F089EC91E0D9
:102EB0000E946C1586E0E9ECF1E0DF011D928A9535
:102EC000E9F70E942416F12CC2CF80E0E6CF81E022
:102ED000AB2831F0BFEFEB1202C081E0DB1280E0E3
:102EE00080FD25C081E08C25E82FE170AE2E80FFAB
:102EF0002CC04C2D6E2D8D2D0E943216B82E8111B6
:102F000024C0DD86EE868D859E850E94181B292FA4
:102F100022952F70223068F0243090F49F7069F071
:102F2000D80115969C91907F41F4FB2C90CF80E0C6
:102F3000DBCF9F7011F08823C1F3805E8830A8F347
:102F4000C8010E946C15BA2CF0CFCC2009F47FCFB9
:102F50008091CE0181608093CE01B5CF4E1114C017
:102F60003D1112C0C11010C0F8018583C8010E9434
:102F70006C1586E0F801A9ECB1E001900D928A95FC
:102F8000E1F70E94241663CFDD86EE868D859E854F
:102F90000E94B515882319F1CC2009F18091CE014A
:102FA000803270F02091C9013091CA0138872F8397
:102FB0001986BB86AA868C87CE0107960E946C155F
:102FC00086E0F801A9ECB1E001900D928A95E1F755
:102FD0000E9452160E942416FF24F39438CFC80191
:102FE0000E946C15F9CF911115C07A2DB98AA88A63
:102FF0004D2D5E2D6C2D89890E94E41589EC91E0A0
:103000000E946C1586E0E9ECF1E0DF011D928A95E3
:10301000E9F7B7CF4E1112C03D1110C0C1100EC05C
:10302000F8018583C8010E946C15E9ECF1E086E0A7
:10303000DF011D928A95E9F7F92C09CFDD86EE862E
:103040008D859E850E94B515882349F2CC2039F2E2
:103050008091CE01803208F4B3CF2091C901309124
:10306000CA013A8329831B82BD82AC828E83CE0142
:103070000196A4CFA816B90638F1F501E81BF90BA3
:10308000CF01F12C8639910508F03DC0FC2CCC20F5
:1030900009F4A5CF4E1126C03D1124C08091CE0168
:1030A00080FD17C0982F907FA1F0D80115968C93C2
:1030B0001597903F09F45ACF982F907F905F8F70AB
:1030C000892B15968C9352CF809590958A0D9B1DD8
:1030D000D8CF86E0F801A9ECB1E001900D928A9575
:1030E000E1F7B5CEDD86EE868D859E850E94B5150D
:1030F000811166CF8091CE0181608093CE01C8019D
:103100000E946C15A4CE7A2DB98AA88A4D2D5E2D09
:103110006C2D89890E94E41575CFCC2009F45FCF0E
:10312000DD86EE868D859E850E94B515F82E882356
:1031300009F455CF86E0F801A9ECB1E001900D92B9
:103140008A95E1F789EC91E00E94A8110E9452163D
:1031500018CF1F93CF93DF93CDB7DEB72C970FB661
:10316000F894DEBF0FBECDBF4F83588769877A873B
:103170008B879C87CE0107960E94BD16882309F491
:1031800042C09F8188852A853B85232B39F08F3F5C
:1031900019F481E09F3F19F080E001C081E080FDDB
:1031A00008C04F81588569857A858B859C850E94EA
:1031B000F31516E08091970190919801891709F411
:1031C00067C0819FC001112487569E4F0E94BD1683
:1031D000882309F45DC0E09197011E9FF00111243E
:1031E000E756FE4F408151816281738184819581D0
:1031F0000E94F3158091970190E0019687709927BE
:1032000080939701D7CF86E0FE013796DE011196B5
:1032100001900D928A95E1F79F8188852A853B85EB
:10322000232B39F08F3F19F481E09F3F19F080E0A4
:1032300001C081E080FDBDCF2091980130E0C9013F
:10324000019687709927409197014817190699F0C0
:1032500096E0929FD001939FB00D1124A756BE4FC8
:10326000FE01319601900D929A95E1F780939801B5
:103270000E9403169ECF0E94B115109298011092E1
:10328000970186E0E9ECF1E0DF011D928A95E9F70C
:103290002C960FB6F894DEBF0FBECDBFDF91CF9155
:1032A0001F910895EF92FF920F931F93CF93DF9397
:1032B0008C01892B81F0F12CEE24E394E801219616
:1032C000F8018491843770F4843008F05FC0813055
:1032D000B1F08230A1F1DF91CF911F910F91FF905A
:1032E000EF900895853709F44CC008F43DC09CE781
:1032F000980F903780F78F770E94881249C00E5F31
:103300001F4FFE01849190E2980F983060F487700F
:10331000FE2D01C0FF0F8A95EAF78F2F0E94C41B74
:103320000E94691B02C00E94AD118F2D815030F2A6
:10333000EFE9FFE03197F1F700C00000F7CF0E5F33
:103340001F4FFE01849190E2980F983050F48770DF
:10335000FE2D01C0FF0F8A95EAF78F2F0E94CA1B2E
:10336000DFCF0E948812E1CF0E5F1F4FFE01C49194
:10337000C150D8F28FE99FE00197F1F700C000003B
:10338000F7CF0E5F1F4FFE01F490CFCF0E94AD111B
:103390008E01CBCF08950E94CA196093D301709318
:1033A000D4018093D5019093D6010C949D15089576
:1033B0000C94CB190F931F930091D3011091D4015A
:1033C0002091D5013091D601602B712B822B932B4C
:1033D0001F910F910C94CB190F931F930091D30160
:1033E0001091D4012091D5013091D6016023712331
:1033F000822393231F910F910C94CB190F931F934A
:103400000091D3011091D4012091D5013091D601C2
:1034100060277127822793271F910F910C94CB1956
:103420000C94CA190C94101A0E94121A6093CF01BE
:103430007093D0018093D1019093D2010C949D158B
:1034400060E070E0CB010C94141A0F931F9341E0DD
:1034500050E060E070E08A019B0104C0000F111F82
:10346000221F331F8A95D2F7C901B8011F910F910E
:103470000C94141A0F931F9341E050E060E070E049
:1034800004C0440F551F661F771F8A95D2F780919D
:10349000CF019091D001A091D101B091D2018A01C8
:1034A0009B01082B192B2A2B3B2BC901B8011F911B
:1034B0000F910C94141A0F931F9341E050E060E0B9
:1034C00070E004C0440F551F661F771F8A95D2F71E
:1034D000CB01BA0160957095809590950091CF01D0
:1034E0001091D0012091D1013091D201602371233C
:1034F000822393231F910F910C94141A0F931F93FF
:1035000041E050E060E070E004C0440F551F661FCA
:10351000771F8A95D2F78091CF019091D001A09129
:10352000D101B091D2018A019B01082719272A27CE
:103530003B27C901B8011F910F910C94141A0F93E6
:103540001F930091CF011091D0012091D1013091B2
:10355000D201602B712B822B932B1F910F910C9416
:10356000141A0F931F930091CF011091D001209155
:10357000D1013091D20160237123822393231F91C3
:103580000F910C94141A0F931F930091CF01109177
:10359000D0012091D1013091D2016027712782277B
:1035A00093271F910F910C94141A0895BF92CF92F4
:1035B000DF92EF92FF920F931F93CF93DF938C01D3
:1035C000C090CF01D090D001E090D101F090D20115
:1035D0008091D3019091D401A091D501B091D601F1
:1035E000C82AD92AEA2AFB2ACFE1D0E0BC2ED7018B
:1035F000C6010C2E04C0B695A795979587950A9499
:10360000D2F780FD0EC0219788F7B12C8B2DDF916A
:10361000CF911F910F91FF90EF90DF90CF90BF90CF
:103620000895B8018C2F0E94950C019761F3EECF9D
:10363000CF93DF93EC010E94D61ABE01DF91CF91A8
:103640000C94950CCB010C94181B682F80910201EF
:10365000909103010C94481C682F80910201909175
:1036600003010C944A1C80910201909103010C9477
:103670004C1C8091D70185958595859508958091FD
:10368000D7018770089598E0899F90011124622BDB
:103690006093D7010C943A1A9091D70180958923B1
:1036A0008093D701282F277061F4282F082E000C53
:1036B000330B9217130629F08595859585950C9403
:1036C0005B1A08959091D701977081E009F480E02A
:1036D0000895E0910201F09103018091E30180835C
:1036E000E0910201F091030180819091E201892B28
:1036F0008083E0910201F091030180819091E101CA
:10370000892B80839091D801992381F0E091020167
:10371000F09103018081892B808380910201909137
:1037200003010E94141C81111092D80180910201A2
:10373000909103010C9488108091E3010895909179
:10374000E301892B8093E3010895982F9095809150
:10375000E30189238093E30108951092E301089522
:103760008091E20108959091E201892B8093E2011A
:103770000895982F90958091E20189238093E2012A
:1037800008951092E20108959091E101892B8093B0
:10379000E1010895982F90958091E101892380930C
:1037A000E10108951092E10108958093D8010895F0
:1037B0001092D80108958091D80108956DEE7EEFA2
:1037C00090E080E00E94A82860E082E090E00E9403
:1037D000962860E083E090E00E94962860E084E014
:1037E00090E00E94962860E085E090E00C94962896
:1037F00090E080E00E94902821E08D3E9E4F09F0ED
:1038000020E0822F089582E090E00C94882883E0E5
:1038100090E00C94882884E090E00C948828682F2D
:1038200084E090E00C949628FC0131969C01285F7E
:103830003F4F80E0919191118F5FE217F307D1F72D
:1038400008959C01FC0132969FEF80E0419146175C
:1038500051F09F3F19F4411101C0982F8F5F8630BE
:10386000A9F79F3F09F40895290F311D97FD3A9557
:10387000F90162830895FC0132960896219126137E
:1038800003C0DF0111971C92E817F907B9F70895F3
:103890000C94211C0C943B1CFC011182128213829B
:1038A000148215821682178208958091080284304E
:1038B00039F11092E50188E190E020E40FB6F89428
:1038C000A895809360000FBE2093600080E00E9466
:1038D000760C83B7817F846083BF83B7816083BFA9
:1038E0007894889583B78E7F83BF0FB6F894A89598
:1038F00080916000886180936000109260000FBE2C
:10390000089508950895CF930E94811C0E94B608DF
:103910000E94821CC0E08C2F0E94F608811105C015
:10392000CF5FCE30C1F7CF91089581E0FCCF0E94E8
:10393000B1150E947C100C94760C1F920F920FB65A
:103940000F9211248F939F93AF93BF938091E501C2
:10395000811113C08091FE019091FF01A09100029E
:10396000B09101024196A11DB11D8093FE0190937B
:10397000FF01A0930002B0930102BF91AF919F910C
:103980008F910F900FBE0F901F90189582E084BD0D
:1039900093E095BD9AEF97BD80936E0008952FB781
:1039A000F8948091FE019091FF01A0910002B091E6
:1039B00001022FBF0895CF92DF92EF92FF920F93F3
:1039C0001F932FB7F8944091FE015091FF01609131
:1039D0000002709101022FBF6A017B01EE24FF24D7
:1039E0008C0130E020E0C016D106E206F30650F06C
:1039F000481B590BCA011F910F91FF90EF90DF9068
:103A0000CF90089541505109F3CF78941F920F92AF
:103A10000FB60F9211248F939F93AF93BF93809112
:103A2000FE019091FF01A0910002B0910102019668
:103A3000A11DB11D8093FE019093FF01A093000290
:103A4000B0930102BF91AF919F918F910F900FBEE4
:103A50000F901F90189587E797E790930108809340
:103A6000000888E19AE00FB6F894A895809360006A
:103A70000FBE90936000FFCF0E94F81B811102C01F
:103A80000E94DE1B0E94031C8093E4010E940B1C19
:103A900090E090930302809302020E94071C682F1B
:103AA00070E090E080E00C94D8198091E80180FFEC
:103AB00012C06091070185E0689FB00111247595DF
:103AC00067957595679560387105A8F5611571055D
:103AD000A1F1862F089581FF09C06091070185E05B
:103AE000689FB001112475956795EDCF82FF07C0DF
:103AF0006091070185E0689FB0011124E4CF209117
:103B0000E9012223A9F0909106016091070185E067
:103B1000689FB00111242917B0F6269FA001279FA6
:103B2000500D1124692F70E0CA010E945A28CBCF92
:103B300065E070E0CECF8FE7089581E00895809131
:103B4000E80180FF0CC06091050170E075956795F4
:103B5000759567956115710549F1862F089581FF67
:103B600006C06091050170E075956795F3CF60918F
:103B7000050182FD0BC09091E9019923A1F06091AC
:103B8000040180910501961738F0682F70E06038C5
:103B9000710500F38FE70895899FC001112470E03B
:103BA0000E945A28F4CF61E070E0D7CF81E00895F9
:103BB000803F31F40E94551D81958093EC0108955A
:103BC000813F19F40E94551DF8CF823F31F40E94C5
:103BD000551D81958093EB010895833F19F40E9450
:103BE000551DF8CF893F29F40E949F1D8093ED0158
:103BF00008958A3F21F40E949F1D8195F7CF8B3F46
:103C000031F40E949F1D81958093EE0108958C3FB1
:103C100019F40E949F1DF8CF843F31F48091EA018E
:103C200081608093EA010895853F21F48091EA0143
:103C30008260F7CF863F21F48091EA018460F1CF62
:103C4000873F21F48091EA018860EBCF883F21F41F
:103C50008091EA018061E5CF8D3F31F48091E801E8
:103C600081608093E80108958E3F21F48091E801FE
:103C70008260F7CF8F3FB9F78091E8018460F1CF80
:103C8000803FC1F48091EC0187FD1092EC0180919E
:103C9000EB0181110EC08091EC0181110AC080916D
:103CA000ED01811106C08091EE01811102C01092D8
:103CB000E9010895813F29F48091EC0118162CF355
:103CC000E6CF9091EB01823F29F497FFE0CF10926D
:103CD000EB01DDCF833F19F41916CCF3D8CF893F20
:103CE00039F48091ED01181694F61092ED01CFCFC2
:103CF0008A3F29F48091ED0187FFC9CFF6CF8B3F32
:103D000039F48091EE0187FFC2CF1092EE01BFCF50
:103D10008C3F29F48091EE011816BCF3B8CF843F94
:103D200031F48091EA018E7F8093EA01B0CF853F24
:103D300021F48091EA018D7FF7CF863F21F48091B5
:103D4000EA018B7FF1CF873F21F48091EA01877FE1
:103D5000EBCF883F21F48091EA018F7EE5CF8D3F44
:103D600031F48091E8018E7F8093E80190CF8E3FFF
:103D700021F48091E8018D7FF7CF8F3F09F087CF45
:103D80008091E8018B7FF0CF8AEE91E00E94931042
:103D90000E94CF1C9093E7018093E60108951F9342
:103DA000CF93DF938091E6019091E7010E94DB1CA5
:103DB000AC019091E9012091080130E0911106C019
:103DC000209109018AE0289F90011124421753078E
:103DD00080F08091EB011091EC01D091ED01C09148
:103DE000EE0181110AC0111161C0D1115FC0C11172
:103DF0005DC0DF91CF911F9108959F3F19F09F5FA4
:103E00009093E901181624F40E94551D8093EB014C
:103E10008091EB0187FF05C00E94551D819580931D
:103E2000EB01111624F40E94551D8093EC01809142
:103E3000EC0187FF05C00E94551D81958093EC0120
:103E40004091EB01442379F03091EC01332359F098
:103E500025EB4203A00111245093EB0132039001A2
:103E600011243093EC011D1624F40E949F1D8093B1
:103E7000ED018091ED0187FF05C00E949F1D819596
:103E80008093ED011C1624F40E949F1D8093EE0187
:103E90008091EE0187FF05C00E949F1D8195809350
:103EA000EE01DF91CF911F910C94C41E9F3F09F04A
:103EB000A6CFB7CF85E0EAEEF1E0DF011D928A954B
:103EC000E9F71092E9011092E8010895833081F139
:103ED00028F4813059F08230D1F00895853009F40A
:103EE00049C0B8F1863009F456C00895809109019F
:103EF000482F460F5527551F4F3F510524F4680F93
:103F00006093090108958FEF8093090108958091CE
:103F10000801482F460F5527551F4F3F510524F4E0
:103F2000680F6093080108958FEF8093080108954A
:103F300080910701482F460F5527551F4F3F5105C8
:103F400024F4680F6093070108958FEF80930701B1
:103F5000089580910601482F460F5527551F4F3F62
:103F6000510524F4680F6093060108958FEF809344
:103F70000601089580910501482F460F5527551FCA
:103F80004F3F510524F4680F6093050108958FEFAA
:103F900080930501089580910401482F460F55270D
:103FA000551F4F3F510524F4680F60930401089595
:103FB0008FEF809304010895833011F128F481304C
:103FC00049F0823091F00895853081F120F18630FA
:103FD000C1F1089580910901681720F4861B809330
:103FE0000901089510920901089580910801681748
:103FF00020F4861B8093080108951092080108950B
:1040000080910701681720F4861B809307010895AB
:1040100010920701089580910601681720F4861B0D
:10402000809306010895109206010895809105017C
:10403000681720F4861B80930501089510920501EE
:10404000089580910401681720F4861B8093040171
:1040500008951092040108950F931F9341E050E0DA
:1040600060E070E08A019B0104C0000F111F221F55
:10407000331F8A95D2F7C901B8010E94D8191F9140
:104080000F910C94B1158732A8F58E3108F07BC0E2
:104090008E3009F46DC058F4873009F45AC08B3063
:1040A00009F44BC0863009F44AC080E00895863197
:1040B00009F443C068F48031C1F79091E401892F7D
:1040C000877F93FF88608093E40183FD0FC035C034
:1040D000893199F18B3149F79091E401892F8D7FD6
:1040E00091FF82608093E40181FF27C08091E40109
:1040F00081603BC0883309F150F4893221F0853367
:1041000011F0873291F680E00E942C2016C0833493
:10411000D1F320F48A3348F28953F6CF883429F654
:104120000E94B1152FEF83ED90E321508040904025
:10413000E1F700C000000E942B1D81E008958091EE
:10414000E401817F8E7F8093E40181E08093F00120
:1041500008959091E401892F8E7F90FF8160809374
:10416000E40180FDEACF897F877F8093E401E5CF7A
:104170009091E401892F8B7F92FF84608093E4010A
:1041800082FDB4CFDACF8D51BFCF80E008950C947B
:10419000C5208E518A3030F4E82FF0E0E75DFE4F05
:1041A0008081089580E00895CF93C82F8091F00119
:1041B0008130C9F030F08230D9F11092F00180E006
:1041C00010C0E0910201F091030180818232B9F7C1
:1041D0008C2F0E94C52081111BC08C2F0E94432070
:1041E0008170CF910895E0910201F09103018081E7
:1041F000823271F38C2F0E94C720811110C0C4310C
:1042000081F048F4CB3059F0C03171F080E0E8CF54
:1042100081E090E0E5CFC93221F0C833B9F781E001
:10422000DFCF1092F001F2CF82E08093F001F7CF60
:10423000C93219F188F4C43101F120F4C73081F199
:1042400081E0CFCF82EE8C0F8630D0F78C2F0E948A
:10425000C9208093EF01F4CFCE3401F140F46AE03D
:10426000CB3471F78091EF010E94661FE9CFC13511
:1042700079F061E0C235B1F3E3CF8091EF0188239B
:1042800019F01092EF01DCCF81E08093F001A9CF0B
:1042900061E08091EF010E94DC1FD2CF6AE0F9CF8C
:1042A0008EE18093090182E3809308018AE0809384
:1042B000070184E18093060188E08093050188E28C
:1042C00080930401BDCF8091F90108950F931F934E
:1042D000CF93DF9300D01F92CDB7DEB78C010E9441
:1042E000AB23823011F0843019F583E089831B837E
:1042F0000A838093E9008FEF9091E800815095FD4B
:1043000006C095ED9A95F1F700008111F5CF8091E7
:10431000E80085FF0DC050E040E063E070E0CE01B2
:1043200001960E94C8238091E8008E778093E80070
:104330000F900F900F90DF91CF911F910F910895E3
:10434000CF93DF9300D01F92CDB7DEB72091080244
:10435000243031F522E02983805891099B838A8398
:1043600083E08093E9008FEF9091E800815095FD04
:1043700006C095ED9A95F1F700008111F5CF809177
:10438000E80085FF0DC050E040E063E070E0CE0142
:1043900001960E94C8238091E8008E778093E80000
:1043A0000F900F900F90DF91CF910895CF93DF93EF
:1043B000EC010E94AB23823011F08430F9F482E0EA
:1043C0008093E9008FEF9091E800815095FD06C041
:1043D00095ED9A95F1F700008111F5CF8091E800F5
:1043E00085FF0CC050E040E065E070E0CE010E9427
:1043F000C8238091E8008E778093E800DF91CF9109
:104400000895CF93DF93EC010E94AB23823011F02B
:10441000843039F581E08093E9008FEF9091E800D6
:10442000815095FD06C095ED9A95F1F70000811138
:10443000F5CF8091E80085FF14C050E040E068E0CF
:1044400070E0CE010E94C8238091E8008E778093AF
:10445000E80088E0FE01A1EFB1E001900D928A959D
:10446000E1F7DF91CF91089580910702811109C092
:104470000E9458250E94B5258091E20084608093B7
:10448000E2000895109207020895089508950C948B
:10449000971C42E061EC81E00E94D62442E061EC8E
:1044A00082E00E94D62442E061EC83E00C94D624A2
:1044B00080910A02833009F452C030F4813059F1FE
:1044C000823009F48EC008958A3009F47AC08B30A6
:1044D00009F460C0893009F041C08091090281323D
:1044E000E9F580910D0290910E02892BB9F580912A
:1044F000E800877F8093E8008091E80082FF2AC06F
:104500008091F1008093F9018091E8008B7780938E
:10451000E8000C940A2580910902813AF9F480910F
:10452000E800877F8093E80080910D0290910E0251
:10453000892B61F468E081EF91E070E00E9417241C
:104540008091E8008B778093E800089560E090E028
:1045500080E0F3CF809108028111CECF0895809141
:104560000902813AD9F780910D0290910E02892BB0
:10457000A9F78091E800877F8093E8008091E800A8
:1045800080FFFCCF809114018093F1008091E800BE
:104590008E77BDCF80910902813201F780910D02A3
:1045A00090910E02892BD1F68091E800877F80934D
:1045B000E8000E940A2580910B02809314010C945C
:1045C000B11580910902813249F68091E800877F18
:1045D0008093E8000E940A2580910C028093FA01E2
:1045E000089580910902813A09F0B8CF8091E800DE
:1045F000877F8093E8008091E80080FFFCCF809166
:10460000FA01C2CF84B7877F84BF0FB6F894A8950C
:1046100080916000886180936000109260000FBEFE
:1046200080E880936100109261000E94CA100E948D
:1046300058250E94B5258091E20084608093E200B5
:1046400078940E943E280E94CE108AE091E00E9459
:10465000771080910802853019F00E94D410F9CFAC
:104660000E94551C80910602882399F30E94831CA6
:10467000882379F30E94B223ECCF0C943F23292F97
:1046800033272330310579F158F421303105F1F029
:104690002230310519F190E080E030E020E01AC0CE
:1046A00021323105C9F122323105A9F76330710594
:1046B00090F7FB01EE0FFF1FEA5CFE4F2081318176
:1046C0006D5C7E4FFB01808190E004C082E190E050
:1046D00023EC3DE0FA0131832083089584E590E0E6
:1046E0002FE63DE0F7CF99278130910579F040F032
:1046F0008230910571F0039771F6EDE3FDE002C0A1
:10470000EBE6FDE0849190E09F01E4CFE3E5FDE07E
:10471000F9CFE3E4FDE0F6CF6330710508F0BBCFDD
:10472000660F771FFB01E45CFE4F2081318189E039
:1047300090E0D0CF0895CF93C82F0E949A23C093C2
:10474000FB01CF91089580910802843011F081E03F
:10475000089582E008958091FB01811102C00C94BC
:10476000A323089580E189BD82E189BD09B400FEDB
:10477000FDCF8091D8008F7D8093D8008091E0009C
:1047800082608093E0008091E00081FDFCCF08957D
:10479000AF92BF92CF92DF92FF920F931F93CF936E
:1047A000DF936C01EB018A010E942925F82E81110B
:1047B00023C00115110539F0F80180819181C81BD2
:1047C000D90BC80ED91EB12CA12C2097A9F080912D
:1047D000E80085FD22C08091E8008E778093E80094
:1047E00001151105A1F0F80180819181A80EB91E73
:1047F000B182A08285E0F82E8F2DDF91CF911F919D
:104800000F91FF90DF90CF90BF90AF9008950E94DE
:1048100029258823D1F2F82EEFCFF60181916F017F
:104820008093F1002197FFEFAF1ABF0ACECFFC01B2
:1048300080910F029091100286179707A0F06115E2
:10484000710529F49091E8009E779093E80090E03C
:104850006115710551F4911108C08091E80082FF43
:1048600035C080E00895BC01F2CF80910802882312
:10487000C9F18530C9F18091E80083FD31C0809194
:10488000E80082FDEACF8091E80080FFE1CF20912F
:10489000F3008091F200322F282F6115710519F075
:1048A0002830310558F091E02830310509F090E0CA
:1048B0002091E8002E772093E800CACF8191809361
:1048C000F100615071092F5F3F4FE7CF80910802DF
:1048D000882341F0853041F08091E80083FFBDCF0F
:1048E00081E0089582E0089583E00895FC018091BD
:1048F0000F029091100286179707A0F061157105BD
:1049000029F48091E8008E778093E80090E06115AB
:10491000710551F4911108C08091E80082FF36C002
:1049200080E00895BC01F2CF809108028823D1F184
:104930008530D1F18091E80083FD32C08091E8009C
:1049400082FDEACF8091E80080FFE1CF2091F30063
:104950008091F200322F282F6115710519F028304F
:10496000310558F091E02830310509F090E0809150
:10497000E8008E778093E800CACF84918093F1009D
:104980003196615071092F5F3F4FE6CF8091080249
:10499000882341F0853041F08091E80083FFBCCF4F
:1049A00081E0089582E0089583E00895982F97307C
:1049B00028F08F708093E90081E008959093E900DA
:1049C000242F762F50E0981731F07091EC00209151
:1049D000ED005091F00021FD02C09F5FE8CF3091C3
:1049E000EB003E7F3093EB003091ED003D7F309344
:1049F000ED003091EB0031603093EB007093EC00F0
:104A00002093ED005093F0002091EE0027FDE5CFBC
:104A100080E008958091090287FF13C08091E8002B
:104A200082FF06C08091E8008B778093E80004C085
:104A3000809108028111F2CF0895809108028823A5
:104A4000D9F38091E80080FFF8CF8091E8008E775D
:104A5000ECCF2091E4003091E50085E69091EC00E8
:104A600090FF06C09091E80090FF06C080E0089596
:104A70009091E80092FDFACF90910802992391F06D
:104A8000953091F09091EB0095FD10C04091E400BD
:104A90005091E5002417350709F381509A01F1F68A
:104AA00084E0089582E0089583E0089581E0089508
:104AB0000E94C6250E94CE25E0EEF0E08081816054
:104AC0008083E8EDF0E080818F77808319BCA7EDCB
:104AD000B0E08C918E7F8C9380818F7E808310924A
:104AE000070208950F931F93CF93DF930E94C6256B
:104AF0000E94CE25C8EDD0E088818F778883888199
:104B00008068888388818F7D888319BC1092080211
:104B100010920402109206021092050200EE10E0BC
:104B2000F80180818B7F808388818160888342E067
:104B300060E080E00E94D624E1EEF0E080818E7F8C
:104B40008083E2EEF0E080818160808380818860F4
:104B50008083F80180818E7F808388818061888353
:104B6000DF91CF911F910F910895E8EDF0E08081E2
:104B70008F7E8083E7EDF0E080818160808384E038
:104B800082BF81E0809307020C947225E8EDF0E08B
:104B900080818E7F80831092E20008951092DA0067
:104BA0001092E10008951F920F920FB60F921124F8
:104BB0002F933F934F935F936F937F938F939F9325
:104BC000AF93BF93EF93FF938091E10082FF0BC0FF
:104BD0008091E20082FF07C08091E1008B7F80938B
:104BE000E1000E943D288091DA0080FF19C0809189
:104BF000D80080FF15C08091DA008E7F8093DA00A4
:104C00008091D90080FF94C080E189BD82E189BD97
:104C100009B400FEFDCF81E0809308020E94342297
:104C20008091E10080FF19C08091E20080FF15C0F3
:104C30008091E2008E7F8093E2008091E2008061AB
:104C40008093E2008091D80080628093D80019BCE4
:104C500085E0809308020E9446228091E10084FF53
:104C600029C08091E20084FF25C080E189BD82E1F6
:104C700089BD09B400FEFDCF8091D8008F7D80935F
:104C8000D8008091E1008F7E8093E1008091E20066
:104C90008F7E8093E2008091E20081608093E20049
:104CA00080910402882309F449C084E080930802BB
:104CB0000E9447228091E10083FF29C08091E20099
:104CC00083FF25C08091E100877F8093E10082E02F
:104CD00080930802109204028091E1008E7F8093FD
:104CE000E1008091E2008E7F8093E2008091E200FB
:104CF00080618093E20042E060E080E00E94D62480
:104D00008091F00088608093F0000E944522FF911E
:104D1000EF91BF91AF919F918F917F916F915F9133
:104D20004F913F912F910F900FBE0F901F901895AC
:104D300019BC109208020E94422272CF8091E300B7
:104D400087FD02C081E0B2CF83E0B0CF1F920F9207
:104D50000FB60F9211242F933F934F935F936F934E
:104D60007F938F939F93AF93BF93CF93EF93FF93D3
:104D7000C091E900CF708091EC001092E900809121
:104D8000F000877F8093F00078940E94E2261092D2
:104D9000E9008091F00088608093F000C093E90002
:104DA000FF91EF91CF91BF91AF919F918F917F91A3
:104DB0006F915F914F913F912F910F900FBE0F9088
:104DC0001F9018951F93CF93DF93CDB7DEB7AA97A7
:104DD0000FB6F894DEBF0FBECDBFE9E0F2E08091E0
:104DE000F100819322E0E131F207C9F70E945822D5
:104DF0008091E80083FF44C08091090290910A02EB
:104E00009A3008F03DC0E92FF0E0E75FF84D0C94D0
:104E10006E28132739274027392740279727B92796
:104E2000402710281D28803889F0823849F5809164
:104E30000D028F70873020F58093E9008091EB00A0
:104E400085FB882780F91092E90006C08091050251
:104E500090910602911182609091E800977F909363
:104E6000E8008093F1001092F1008091E8008E77C5
:104E70002DC0282F2D7F21F48823D1F0823059F1C5
:104E80008091E80083FF0AC08091E800877F8093CB
:104E9000E8008091EB0080628093EB00AA960FB649
:104EA000F894DEBF0FBECDBFDF91CF911F91089563
:104EB00080910B02813021F7933009F080E08093DC
:104EC00006021092E9008091E800877F8093E80055
:104ED0000E940A25D5CF80910B028111F2CF8091DB
:104EE0000D028F702FEF280F263050F68093E900C7
:104EF0002091EB0020FFE5CF933031F48091EB005F
:104F000080628093EB00DDCF9091EB0090619093F5
:104F1000EB0021E030E001C0220F8A95EAF72093F0
:104F2000EA001092EA008091EB008860EACF8111DC
:104F3000A7CF10910B021F778091E3008078812B1F
:104F40008093E3008091E800877F8093E8000E94CF
:104F50000A258091E80080FFFCCF8091E300806803
:104F60008093E30083E0111101C082E08093080286
:104F700087CF8058823008F083CF80910B029091C8
:104F80000C028C3D23E09207A1F583E08A838AE23C
:104F900089834FB7F894DE01139620E03EE051E29A
:104FA000E32FF0E050935700E49120FF03C0E29517
:104FB000EF703F5FEF708E2F90E0EA30C0F0C79641
:104FC0008D939D932F5F243159F74FBF8091E80057
:104FD000877F8093E8006AE270E0CE0101960E942C
:104FE00017248091E8008B778093E80049CFC09622
:104FF000E7CF60910D0270910E02AE014F5F5F4FDF
:105000000E943D23BC01892B09F43ACF9091E8001E
:10501000977F9093E80089819A810E947624E1CF5E
:10502000803809F02DCF8091E800877F8093E800D9
:10503000809104028093F10018CF811121CF9091CB
:105040000B02923008F01CCF8091E800877F80939C
:10505000E800909304020E940A25809104028823AC
:1050600031F084E0809308020E94492209CF8091A8
:10507000E30087FDF6CF81E0F5CF0895CF938091CF
:105080000802882399F0C091E900CF708091EC006C
:1050900080FD0EC080E0C82B1092E9008091E800EE
:1050A00083FD0E94E226CF70C093E900CF9108955E
:1050B00080E8F1CF97FB072E16F4009407D077FD18
:1050C00009D00E94742807FC05D03EF49095819584
:1050D0009F4F0895709561957F4F0895EE0FFF1FC4
:1050E0000590F491E02D0994AA1BBB1B51E107C068
:1050F000AA1FBB1FA617B70710F0A61BB70B881F68
:10510000991F5A95A9F780959095BC01CD010895F6
:10511000F999FECF92BD81BDF89A992780B508957F
:10512000A8E1B0E042E050E00C94B028262FF999B5
:10513000FECF92BD81BDF89A019700B4021639F0F6
:105140001FBA20BD0FB6F894FA9AF99A0FBE0895C7
:105150000196272F0E9497280C949628DC01CB01FA
:10516000FC01F999FECF06C0F2BDE1BDF89A319677
:1051700000B40D9241505040B8F70895F894FFCF15
:1051800001FFD9012808140A321E63210122D62109
:10519000A0216621013534C697669436323331F743
:1051A000F6F50000000000000001020304050607F8
:1051B000080900404D36580E0B0ED50D810D9A0D85
:0251C000B30D2D
:00000001FF
