:100000000C941D050C947B070C9464050C946405FA
:100010000C9464050C9464050C9464050C946405BC
:100020000C9464050C9464050C94F5250C94C72677
:100030000C94A31C0C9464050C9464050C94640546
:100040000C9464050C9464050C9464050C9464058C
:100050000C9464050C940B1D0C9464050C946405BD
:100060000C9464050C9464050C9464050C9464056C
:100070000C9464050C9464050C9464050C9464055C
:100080000C9464050C9464050C9464050C9464054C
:100090000C9464050C9464050C9464050C9464053C
:1000A0000C9464050C9464050C94640594089C08F5
:1000B000A608AE08B608BE08C608CE08D608DE08F0
:1000C000E608EE08F608FE0806090E0916092509D5
:1000D0002D0935093D096E099A09A709B109CD090C
:1000E000A70AA90AB40AAB0AAD0AAF0AB10AB30A51
:1000F000B60AB80ABA0AC50ABC0ABE0AC00AC20AC7
:10010000C40AC70ACA12CA12FC12FC123A135813C4
:10011000BE14BE149A13BE143D143D14AE14BE1486
:10012000BE14B7144A144A144A144A144A144A14FE
:100130004A144A144A144A144A144A144A144A14CF
:100140004A144A145B1469147014771481144F15FF
:100150004F156115611558156115611561154F151C
:100160004F155D15611561155D1534275B27532803
:100170005B275328A727CA27532821283028200087
:1001800003E10002E10003E003E103E003E203E333
:100190000003E30002E30003E10002E10003E100E9
:1001A00003E100030903E003E10002E002E10209C8
:1001B00000031203E203E10002E202E10212000383
:1001C0000703E203E10002E202E1020700031B036E
:1001D000E001290002E0021B00030603E001290000
:1001E00002E0020600030F03E003E20002E202E085
:1001F000020F00031D03E103E00002E102E0021D23
:1002000000032A03E00002E0022A00034F03E0009B
:1002100002E0024F00035003E00002E0025000033E
:100220004D03E10002E1024D00034A03E10002E157
:10023000024A00034E03E10002E1024E00034B03B9
:10024000E10002E1024B00034F03E103E00002E0A2
:1002500002E1024F00035003E103E00002E002E18B
:10026000025000035103E10002E102510003520376
:10027000E10002E1025200034F03E10002E1024FFC
:1002800000035003E10002E1025003E100012B00F2
:1002900003E30002E300200003E10002E100350077
:1002A0001E001F002000210022002B0014001A0055
:1002B00008001500170039000400160007000900A7
:1002C0000A0015301D001B0006001900050007512B
:1002D000E000E3001530E20001004D004A003F005D
:1002E000290000000000DB5C14300000000000006A
:1002F00000002E00270026002500240023002D00EA
:10030000130012000C0018001C00340033000F0012
:100310000E000D000B0028003800370036001000DA
:10032000110001003100E00030002F0001004E00FC
:100330004B000F064C00000000002A00DA5C0000B1
:100340000000000000000100010001000100210484
:100350000100010001001A010C301501010001002B
:100360000401160101000901010015301D011B01E6
:100370000601190101000100010001001530010012
:100380000100010001000100010000000000010067
:100390000100000000000000000001000100010059
:1003A000010001000100010001000B3052000A3081
:1003B0000100010001004F00510050004D002804D1
:1003C0000100010001000100010001000100010025
:1003D00030042F040100010001001505070500008D
:1003E00000000100173000000000000000000100C4
:1003F00001000100010021060100010001000100CF
:1004000001001506010001000100010007060906B0
:10041000010001001D030100010015050705010091
:1004200001000100010001000100010001000100C4
:100430000100000000000100143000000000000076
:1004400000000100010001000100010001000100A5
:10045000010012064B000100010001000100010033
:100460004E0001004A0001000100010001000100EE
:100470000100010001000100010001000100010074
:100480000100150507050000000001000100000043
:100490000000000000000100010001000100010057
:1004A0000100010001000100010001000100010044
:1004B0000100010001000100010001000100010034
:1004C0000100010001000100010001000100010024
:1004D0000100010001000100010000000000010016
:1004E0000100000000000000000001000100010008
:1004F00001000100010001000100010001000100F4
:1005000001000100160401000100010001000100CA
:1005100001000100010001000100010001000100D3
:1005200001000100010001000100010001000000C4
:1005300000004B014E01000000000000000001001F
:1005400001000100010001000100010001000100A3
:100550000100010001000100010001000100010093
:10056000010015300100010001000100010001003F
:10057000010001001530010001000100010001002F
:100580000100000000000100143000000000000025
:100590000000010001000100010001000100010054
:1005A0000100010001000100010001000100010043
:1005B0000100010001000100010001000100010033
:1005C0000100010001000100010001000100010023
:1005D0000100010001000000000001000100000016
:1005E0000000000000000100010001000100010006
:1005F00001000100010001000100010001000100F3
:100600000100010001000100010015301D01103042
:100610000F30190101000100010001000651010025
:1006200001000100010001000100000000000100C4
:100630001430000000000000000001000100010073
:10064000010001000100010001000530023004300A
:1006500001000100010001300330003009300100C9
:100660000100010001000100010001000100010082
:100670000100010001000100010001000100000073
:100680000000010001000000000000000000010067
:100690000100010001000100010001000100010052
:1006A0000100010001000100010001000100010042
:1006B0000100010001000100010001000100010032
:1006C0000100010001000100010001000100010022
:1006D00001000000000001001430000000000000D4
:1006E0000000010001000100010001000100010003
:1006F00001000100063001000100010001000100BD
:100700000730010008300100010001000100010074
:1007100001000100010001000100010001000100D1
:1007200001000100010000000000010001000000C4
:1007300000000000000045003A003B003C003D0086
:100740003E00010001000100010001000100010064
:1007500001000100010001000100005C135C183081
:100760000100010001000100010001000100010081
:100770000100010001000100010000000000010073
:10078000010000000000000000004400430042009F
:10079000410040003F000100010001000100010094
:1007A0000100010001000100010001000100010041
:1007B0000100010001000100010001000100010031
:1007C0000100010001000100010001000100000022
:1007D00000002C002C0000000000000000000000C1
:1007E0000000000000002A2B28000000000000008C
:1007F00000000000000000000029000000002C1E86
:100800003420212224342627252E362D3738271E42
:100810001F202122232425263333362E37381F0468
:1008200005060708090A0B0C0D0E0F101112131400
:1008300015161718191A1B1C1D2F3130232D3504BE
:1008400005060708090A0B0C0D0E0F1011121314E0
:1008500015161718191A1B1C1D2F3130354C0000A6
:100860000000000000000000000000000000000088
:100870000000000000000000000000000000000177
:10088000010101010100010101010000000000005F
:100890000000000000000000010001000101010152
:1008A0000101010101010101010101010101010138
:1008B000010101010101010101000000010100002D
:1008C0000000000000000000000000000000000028
:1008D000000000000000000000010101010004030D
:1008E000300000000E0344006100630074007900D2
:1008F0006C000000160343004800200062006F00F7
:1009000078004D006F0064007300000004030904C8
:1009100009025400030100A0FA09040000010301C8
:10092000010009211101000122400007058103088F
:10093000000A09040100010301020009211101005C
:1009400001224D000705820308000A090402000184
:100950000300000009211101000122360007058370
:100960000308000A1201100100000008EDFE6030CB
:1009700001000102030105010980A10185021601A0
:10098000002603001A81002A83007510950181005A
:10099000C0050C0901A1018503160100269C021A5D
:1009A00001002A9C02751095018100C00501090211
:1009B000A1010901A1000509190129051500250159
:1009C00095057501810295017503810105010930C5
:1009D00009311581257F9502750881060938158131
:1009E000257F950175088106050C0A3802158125B9
:1009F0007F950175088106C0C005010906A10105A2
:100A00000719E029E7150025019508750181029570
:100A100001750881010508190129059505750191E0
:100A2000029501750391010507190029FF1500269C
:100A3000FF00950675088100C00011241FBECFEF8E
:100A4000DAE0DEBFCDBF04B603FE27C080915002BE
:100A500090915102A0915202B09153028730904B75
:100A6000A740B04BD1F41092500210925102109254
:100A700052021092530214BE84B7877F84BF0FB610
:100A8000F894A8958091600088618093600010922E
:100A900060000FBEE0E0F8E3099511E0A0E0B1E0EE
:100AA000EAEDF1E502C005900D92A234B107D9F745
:100AB00022E0A2E4B1E001C01D92A035B207E1F747
:100AC0000E9422230C94EB280C94000008950C94AF
:100AD00066050C946605CF93DF93809123028360B3
:100AE000886080932302ABE1B1E042E251E061E033
:100AF00070E08D91E82FE295EF70F0E021A18F700A
:100B0000EB0102C0CC0FDD1F8A95E2F7CE019C2FCE
:100B10009095922391A392A1892B82A34A175B07F8
:100B200041F7A5E1B1E04BE151E061E070E08D916A
:100B3000E82FE295EF70F0E021A18F70EB0102C089
:100B4000CC0FDD1F8A95E2F7CE019C2F9095922362
:100B500091A392A1892B82A34A175B0741F7559A6B
:100B6000209AE2E4F1E0A1E5B1E080E591E01192A4
:100B70001D928E179F07D9F7DF91CF910C94DE0B52
:100B80002F923F924F925F926F927F928F929F929D
:100B9000AF92BF92CF92DF92EF92FF920F931F938B
:100BA000CF93DF9300D000D0CDB7DEB780910001A6
:100BB000811103C007E010E002C000E010E08BE10B
:100BC000C82E81E0D82E98012F5A3E4F790192E22B
:100BD000892E91E0992E3C832B83AA24A394B12CD7
:100BE00034E0732E6B817C81DB014C901C92F6010A
:100BF00081916F01E82FE295EF70F0E021A18F70F5
:100C0000A50102C0440F551F8A95E2F7CA01242BA3
:100C100021A322A1642E6094262122A350EA5A9592
:100C2000F1F7A5E1B1E0BA83A98320E030E0A98122
:100C3000BA815D90BA83A983452D42954F7050E0EB
:100C4000DA0190962C90AB81BC813C90452D4F7081
:100C5000D50102C0AA0FBB1F4A95E2F7AD014221A0
:100C600039F44A2D022E01C0440F0A94EAF701C05C
:100C700040E0342AAB81BC813C922F5F3F4F26304D
:100C80003105A9F691A1692261A292A1892B82A3C3
:100C90001196BC83AB83FB018081481661F0F1E0C3
:100CA000F0935F010E94D51C9093610180936001D5
:100CB0008BB187258BB98C149D0409F093CF80915B
:100CC0005F018823A9F080916001909161010E94E9
:100CD000E11C069768F0F801EE5BFE4F80E0D7015B
:100CE0009D917D0191938F5F8730C9F710925F01CD
:100CF00081E00F900F900F900F90DF91CF911F9197
:100D00000F91FF90EF90DF90CF90BF90AF909F90AA
:100D10008F907F906F905F904F903F902F900895AD
:100D2000CF93DF9380910001811103C0C0E0D0E038
:100D300002C0C7E0D0E00E94E007009779F4CE5BE4
:100D4000DE4F20E030E0F901EC59FE4F408149933D
:100D50002F5F3F4F27303105B1F702C081E090E0AF
:100D6000DF91CF910895CF930E94C005C82F0E94B4
:100D70009006892BD9F05D98809150018F5F809308
:100D800050018630B0F080910001811103C0E0E095
:100D9000F0E002C0E7E0F0E0EE5BFE4F80E090E0C4
:100DA0001192019687309105D9F703C05D9A109290
:100DB00050010E94E00B8C2FCF9108950E94C00536
:100DC00080910001811103C0E7E0F0E002C0E0E0A3
:100DD000F0E0EE5BFE4F80E090E02191DC01AC5949
:100DE000BE4F2C93019687309105B9F70895E82FEF
:100DF000F0E0EE5BFE4F808108950895E8EDF0E0AD
:100E00008081806180838AE18A95F1F700C08091BA
:100E1000D900817008950E94FE06882319F00E946F
:100E20006E0704C00E94CC1C0E947207789408953B
:100E30000E946B050E94DE06FDCF0E940B070E94F8
:100E4000FE06811102C00E9418070895509A089565
:100E50005098589A0895589A08950E942807489BD8
:100E6000FECF80E88A95F1F708950E94280798E060
:100E700080E029B1880F2170822B20E82A95F1F7B4
:100E800025E02A95F1F70000915099F708950F9306
:100E90001F93CF93082F0E942607C8E010E0C1508F
:100EA00088F0C8010C2E02C0959587950A94E2F748
:100EB00080FF03C00E942B0701C0589880E88A95E4
:100EC000F1F7EDCFCF911F910F9108950E94260762
:100ED000589880E88A95F1F70C942B070E94260712
:100EE0000C942B070E942807E89AE9E6F0E080813D
:100EF0008C7F808308951F920F920FB60F9211245A
:100F0000EF92FF921F932F933F934F935F936F93B3
:100F10007F938F939F93AF93BF93CF93DF93EF9381
:100F2000FF930E946607C0E0D0E010E0CE018C592C
:100F30009E4F7C01FC0180810E9447070E9466074A
:100F4000F7018081180F2196C730D10579F7812FDD
:100F50000E9447070E946607F0E8FA95F1F780E4DF
:100F60008A95F1F70E943507809363010E94660716
:100F7000C09163010E943507D82F0E9466070E9426
:100F8000280780916201DC1711F0816001C08E7F1B
:100F900080936201FF91EF91DF91CF91BF91AF916B
:100FA0009F918F917F916F915F914F913F912F9181
:100FB0001F91FF90EF900F900FBE0F901F9018950C
:100FC000EF92FF921F93CF93DF93F8940E9426072E
:100FD000589825E02A95F1F700000E9428070E9402
:100FE0002B0730E83A95F1F7489930C00E942D0759
:100FF000C0E0D0E010E00E943507FE01EC59FE4F42
:101000007F0180830E942D07F7018081180F2196B0
:10101000C730D10581F70E943507C82F0E942D07E0
:101020001C1314C0809163010E9447070E942D0782
:10103000809163010E9447070E942D070E942607A6
:101040000E942B07789480E090E003C0789481E0C0
:1010500090E0DF91CF911F91FF90EF9008950C9455
:1010600067059C01FB0192812A3DFCE53F07D9F40D
:10107000992341F081E08093700110926C018BE91B
:1010800092E01DC01092700188E992E00E94DB0B93
:1010900080916C01811104C086E992E00E94DB0B13
:1010A00010926C0131C02B3D3C45E9F4992351F07D
:1010B00081E080936F0110926B0183E992E00E94BE
:1010C000DB0B22C010926F0180E992E00E94DB0BE3
:1010D00080916B01811104C08DE892E00E94DB0BCE
:1010E00010926B0111C0992379F0809170018823CF
:1010F00021F081E080936C0107C080916F0188230B
:1011000019F081E080936B0181E00895CF93FC0199
:10111000C281862F90E08A31910508F058C1FC0108
:10112000EA5AFF4F0C949B28CC2319F086E892E0F2
:1011300007C081E892E004C0CC2329F08CE792E05C
:101140000E94DB0B44C187E792E0FACFCC2319F071
:1011500082E792E0F5CF8DE692E0F2CFCC2319F052
:1011600088E692E0EDCF83E692E0EACFCC2319F057
:101170008CE592E0E5CF85E592E0E2CFCC2319F053
:101180008EE492E0DDCF87E492E0DACFCC2319F051
:1011900082E492E0D5CF8DE392E0D2CFCC2319F058
:1011A00088E392E0CDCF83E392E0CACFCC2319F05D
:1011B0008EE292E0C5CF89E292E0C2CFCC2319F053
:1011C00084E292E0BDCF8FE192E0BACFCC2319F058
:1011D0008AE192E0B5CF85E192E0B2CFCC2319F05D
:1011E00080E192E0ADCF8BE092E0AACFCC2319F062
:1011F00086E092E0A5CF81E092E0A2CFCC2319F067
:101200008AEF91E09DCF83EF91E09ACFCC2319F044
:101210008CEE91E095CF85EE91E092CFCC2319F042
:1012200080EE91E08DCF89ED91E007C0CC2319F0DD
:1012300084ED91E085CF8DEC91E00E94DB0B109264
:101240006D0185E00E94FE1934C0CC2319F086ECB4
:1012500091E076CF8FEB91E073CFCC2319F088EB40
:1012600091E06ECF81EB91E06BCFCC2319F08AEA4D
:1012700091E066CF83EA91E063CFCC23F1F081E087
:1012800080936E0180916D01882351F080917101EE
:10129000882309F464C080EA91E00E94DB0B2BC034
:1012A00080917101882329F08DE991E00E94DB0B88
:1012B00024C081E00E94DD198AC010926E01109254
:1012C0006D0181E00E94FE1982E00E94FE1986E015
:1012D0000E94FE1985E00E94FE1979C0CC2391F08E
:1012E00081E08093710180916E01882341F08091AB
:1012F0006D01882311F086E0DDCF82E0DBCF8AE943
:1013000091E01ECF1092710186E00E94FE1982E0EA
:101310000E94FE1980916E01882349F080916D0131
:10132000882311F085E001C081E00E94DD1987E982
:1013300091E006CF83E0CC2329F00E94DD1984E9F7
:1013400091E0FECE0E94FE1981E991E0F9CECC2316
:10135000F1F190916D0181E0892780936D0185E025
:10136000A9CF81E00E94FE1982E00E94FE1983E06D
:101370000E94FE1984E00E94FE1985E00E94FE1979
:1013800086E00E94FE1987E00E94FE1980E00E941C
:10139000DD1986E891E00E94DB0BCC2341F081E06F
:1013A0008093700110926C0183E891E0C9CE109295
:1013B000700180E891E00E94DB0B80916C01882332
:1013C00021F08EE791E00E94DB0B10926C0180E02F
:1013D00090E0CF91089581E008950C9431080E9427
:1013E0003B152FEF84E39CE0215080409040E1F7D3
:1013F00000C0000087E797E79093010880930008FA
:101400000C94311DFF920F931F93CF93DF938C01A8
:10141000FC01C081D18180919E01811113C0828124
:10142000882349F0CE010E94D41AF82E682FCE01ED
:101430000E947B1A04C0CE010E94A71AF82EBE019A
:101440008F2D04C0CE010E94D41ABE010E94EA0B67
:10145000EC01B8010E94F80EB801CE010E94ED091E
:10146000882309F449C1B801CE010E943D0F8823A9
:1014700009F442C1B801CE010E94490E882309F443
:101480003BC1C531FCE5DF0739F50E94A51B982F4C
:10149000F80182812091020130910301882379F0C3
:1014A0009A7A81E009F480E080937201911102C080
:1014B00069E201C065E3C9010E944E1C0AC0809127
:1014C0007201811102C069E201C065E3C9010E9495
:1014D000501C0E94721B10C1C6318CE5D80708F061
:1014E0007EC0C130ECE5DE0759F4F8018281882323
:1014F00009F402C180912302816080932302FCC021
:10150000C230FCE5DF0708F452C0F801828188236D
:1015100009F455C00E94FE1B811102C00E94E41B09
:101520000E94111C90E09093420280934102FE01C0
:10153000E350FC45E231F10530F4E059FF4F809172
:1015400041020C949B2880914102816027C08260F7
:1015500025C0846023C0806121C080621FC0806478
:101560001DC080681BC08460886018C08E7F16C054
:101570008D7F14C08B7F12C08F7E10C08F7D0EC0F8
:101580008F7B0CC08F770AC08B7F877F07C087FB5C
:10159000222720F991E0922790FB87F9809341025E
:1015A000809141020E94151C0E943B15A5C0C115E7
:1015B000DC4569F081E08093770180937801C80170
:1015C000DF91CF911F910F91FF900C94EB09F801DF
:1015D0008281882309F490C00E94EF098DC0C53D27
:1015E000ECE5DE0759F5F8018281882361F010925D
:1015F00078010E94D51C909376018093750180E25A
:101600000E94871279C080917801882321F080E2BE
:101610000E948E1271C080917501909176010E9496
:10162000E11C883C910598F780E20E948E1288E2C6
:101630000E94261188E20E9428125EC0C63DFCE589
:10164000DF0708F044C0C33D8CE5D80719F5F80161
:101650008281882351F0109277010E94D51C9093CB
:1016600074018093730182E0CBCF80917701811167
:101670000FC080917301909174010E94E11C883C1D
:10168000910530F486E20E94261186E20E9428121B
:1016900082E0BECFC43DDC4509F08CCFF8018281E9
:1016A0008111A5CF809178018111B1CF8091750111
:1016B000909176010E94E11C883C910508F0A7CF2B
:1016C00087E20E94261187E20E942812A0CFC83D1F
:1016D000FCE5DF0731F4F8018281882369F080E0BE
:1016E00009C0C93DDC4509F065CFF8018281882336
:1016F00019F082E00E94BC2380E0DF91CF911F911E
:101700000F91FF900895CF9390E0FC01E252F84FC3
:10171000C491FC01E25AF74F8491882359F081EE7D
:101720000E9426118C2F0E9426118C2F0E942812B5
:1017300081EE04C08C2F0E9426118C2FCF910C9427
:1017400028120F931F93CF93DF93EC01062FFE0116
:101750008491882359F19E012F5F3F4F813041F4DE
:10176000E901F9011491812F0E942611812F0DC0EA
:10177000823031F4E901F90184910E9426110AC0F6
:10178000833031F4E901F90184910E94281202C0EA
:101790000E94830B2196802F8823C9F2EFE9FFE096
:1017A0003197F1F700C000008150F6CFDF91CF9163
:1017B0001F910F91089560E00C94A10B0C942F08D9
:1017C0000E94990F0C94690508950C94E40B0C94F5
:1017D000E50B089524E5829FC0011124FC0126E059
:1017E000729FE00DF11D1124E60FF11DEE0FFF1F9A
:1017F000E256FD4F859194910895880F991FFC0141
:10180000E252F74F859194910895CF93DF930E9410
:10181000EA0B0E94A90DEC018115904508F041C02A
:10182000C11580E4D80708F01CC1C83ED10510F5E9
:10183000C03ED10508F089C1C83AD10578F4C53A4F
:10184000D10508F09EC0C130D10509F47EC108F46D
:1018500035C1C430D10508F078C130C1CD3BD105C8
:1018600008F49AC0C03CD10508F428C1CE01805CC0
:101870009109E9C0C11590E2D90758F4C11521E0DA
:10188000D20708F062C1C03FD10508F417C1D06586
:101890005CC1C11580E3D80708F0D9C0CE019F70A4
:1018A000D2C0C11595E5D90708F044C0C11524E59B
:1018B000D20708F0EDC0C11582E5D80710F5C115B3
:1018C00091E5D90708F0D0C0CE0174E096958795D0
:1018D0007A95E1F7282F23703C2F337081E090E058
:1018E00002C0880F991F3A95E2F79C68922BCF703F
:1018F000C695C69520E2C29FE0011124C82BD92BC2
:1019000024C19E01237033278C2F86958695C1159F
:10191000D34508F0AEC0C1E0D0E002C0CC0FDD1F5F
:101920002A95E2F720E2829FC0011124C82BD92B0F
:10193000DC680BC1C11529E5D20780F4C11588E523
:10194000D80708F0AAC0C11596E5D90708F0B6C0B7
:10195000CF71DD27DC2FCC27D062F7C0CE01C115B7
:101960002AE5D20708F49EC090568115904208F0EF
:10197000A5C08D2F8F710E94250EDD27D0628F713B
:101980009BC0C53AD10509F49CC0C63AD10509F0FF
:101990009BC0C2E8D0E4D9C0C83AD10509F497C0C9
:1019A000C93AD10509F496C0CA3AD10509F495C0DF
:1019B000CB3AD10509F494C0CC3AD10509F493C0CF
:1019C000CB3BD10509F492C0CC3BD10509F491C0C1
:1019D000CD3AD10509F490C0C03BD10509F48FC0C0
:1019E000CE3AD10509F48EC0CF3AD10509F48DC0A5
:1019F000C13BD10509F48CC0C23BD10509F48BC0B1
:101A0000C33BD10509F48AC0C43BD10509F489C0A0
:101A1000C53BD10509F488C0C63BD10509F487C090
:101A2000C73BD10509F486C0C83BD10509F485C080
:101A3000C93BD10509F484C0CA3BD10509F483C070
:101A4000C0E0D4E482C00E94FD0BEC017EC0CE0158
:101A50009927D3FF03C0EC01D86C77C0EC01D06CA0
:101A600074C0DF70D06A71C0DC2FCC27C16FD06A20
:101A70006CC0C1E0D0E002C0CC0FDD1F2A95E2F7B8
:101A800020E2829FC0011124C82BD92BDA685DC0E7
:101A9000DC2FCC27C46FD06A58C0DC2FCC27C06F96
:101AA000D06A53C024E0969587952A95E1F78F7008
:101AB000CF70C06ED0E0D06AD82B47C0C0E0D0E075
:101AC00044C0C1E8D0E441C0C3E8D0E43EC0C2EEA7
:101AD000D4E43BC0C9EED4E438C0CAEED4E435C087
:101AE000C5EBD4E432C0C6EBD4E42FC0C3EBD4E4DE
:101AF0002CC0C4EBD4E429C0C7EBD4E426C0CCECA2
:101B0000D4E423C0CDECD4E420C0C3E8D5E41DC0A8
:101B1000CAE8D5E41AC0C2E9D5E417C0C4E9D5E4DF
:101B200014C0C1E2D6E411C0C3E2D6E40EC0C4E2E0
:101B3000D6E40BC0C5E2D6E408C0C6E2D6E405C0D0
:101B4000C7E2D6E402C0CAE2D6E4CE01DF91CF916B
:101B500008958238910549F1B0F48133910509F473
:101B600059C048F48932910509F44FC08A32910571
:101B700009F455C008958533910509F441C08933AE
:101B8000910599F00895833E910531F138F4803E36
:101B9000910591F0823E9105A9F00895863E910548
:101BA00001F1873E910539F108952091410220FD10
:101BB0003BC021FD39C008958091410280FF34C0AF
:101BC00089E341C08091410282FF30C0809141028F
:101BD00084FD2EC083EE37C08091410282FD26C075
:101BE000F5CF8091410283FF25C08091410284FDA1
:101BF0001FC087EE28C08091410283FD1BC0F5CF36
:101C00008091410285FD18C019C08091410285FD77
:101C100015C012C08091410286FD12C013C0809190
:101C2000410286FD0FC00CC080EE0DC082EE0BC0DD
:101C300080E009C086EE07C089E205C085E303C0E5
:101C40008AE201C081E390E008959091410292FF01
:101C50000DC0282F2871283019F4877F846006C0B2
:101C6000282F2471243011F48B7F886093FF0DC0DE
:101C7000282F2871283119F4877E846106C0282F07
:101C80002471243111F48B7E886194FD877E089540
:101C900008950F931F93CF93FB012281211102C05E
:101CA000C1E041C08C01C0918601C11125C08631BF
:101CB0009C45B1F70E94480E81E0809386010E9406
:101CC000D51C909385018093840110927901109224
:101CD0007B0110927A0110927D0110927C0110928A
:101CE0007F0110927E01109281011092800110926A
:101CF00083011092820117C0809184019091850127
:101D00000E94E11C8C32914058F690917901E92FA4
:101D1000F0E0EE0FFF1FE658FE4F118300839F5F38
:101D200090937901C0E08C2FCF911F910F9108956E
:101D3000CF93DF93EC0181E08F878F810E94A81BF6
:101D400088850E94BB1B0E94721BEA81FB81CE0129
:101D50000696309729F06A897B89DF91CF910994A3
:101D6000DF91CF910895EF92FF920F931F93CF933E
:101D7000DF93FC012085211134C0EC01E380F48065
:101D8000F7E5FF1A24E12E9DC0012F9D900D11242F
:101D9000DC01A559BE4F1496ED91FC9115978F5813
:101DA0009E4F309729F052966D917C9153970995EB
:101DB00084E18E9D80018F9D100D112405591E4FC9
:101DC000F80187810E94AE1BF80180850E94C11B2B
:101DD0000E94721B18821F8219861092880110922D
:101DE0008701DF91CF911F910F91FF90EF900895A0
:101DF000DF92EF92FF920F931F93CF93DF93FB013C
:101E00002281222391F1209101012F3F71F18C0158
:101E1000CBE6D1E0E12CF12CDD24D39480910101BB
:101E2000082E000C990B8E159F05FCF08E818823DF
:101E3000B9F089859A858017910739F480918701D7
:101E4000909188010817190759F0DD868F85811157
:101E500003C0CE010E94980ECE0106960E94B30EDA
:101E6000FFEFEF1AFF0A6496D9CFDF91CF911F9150
:101E70000F91FF90EF90DF900895EF92FF920F93F4
:101E80001F93CF93DF939C0137552F3F310511F0FE
:101E900008F047C040910101042E000C550B421779
:101EA000530714F420930101FB017C01828194E12A
:101EB000929F8001939F100D1124E801C559DE4FB8
:101EC0008E8792818E81992311F1FA86E9868F5F40
:101ED0008E830E94D51C9C878B870E94E11B8F8379
:101EE0000E94A51B88870E94B81B9885892B88872C
:101EF000E881F981C8018F589E4F309719F06A899F
:101F00007B890995F0928801E09287010AC08823B5
:101F100041F08F85882329F0C8018F589E4F0E9479
:101F2000B30E81E0DF91CF911F910F91FF90EF9061
:101F30000895CF92DF92EF92FF920F931F93CF936A
:101F4000DF93809101018F3FF1F1F12C94E1E92EB3
:101F50000F2D10E080910101082E000C990B8017C5
:101F600091078CF1E09EF001E19EF00D1124E559FE
:101F7000FE4FC088D188C114D10419F488ECC82E52
:101F8000D12CE09EE001E19ED00D1124C559DE4F19
:101F90008E818823B1F08B859C850E94E11CC81638
:101FA000D90678F48F85811103C0CE010E94980E66
:101FB000E09EC001E19E900D11248F589E4F0E941B
:101FC000B30EF394C5CFDF91CF911F910F91FF9086
:101FD000EF90DF90CF90089590938E0180938D01C4
:101FE0000895E0918D01F0918E01309721F00190DC
:101FF000F081E02D099480E00895E0918D01F09149
:102000008E01309721F00280F381E02D099408952C
:10201000E0918D01F0918E01309721F00480F581DF
:10202000E02D0994089520918B0130918C0128179F
:10203000390771F090938C0180938B01E0918D01B1
:10204000F0918E01309721F00680F781E02D099400
:1020500008952091890130918A012817390771F07C
:1020600090938A0180938901E0918D01F0918E0116
:10207000309721F00084F185E02D099408950C94A7
:102080001D0781E008950E94CC1C0E946B050C94F2
:10209000421DBF92CF92DF92EF92FF920F931F9358
:1020A000CF93DF93CDB7DEB72A970FB6F894DEBF94
:1020B0000FBECDBF0E94B3060E944110811111C016
:1020C0008FEF89838A831B820E94D51C8160782FC1
:1020D0009D838C8349815A816B818D810E94F2108E
:1020E00054C080E9C82E81E0D82E00E010E0B02E68
:1020F000802F0E94F706E82EF60121916F01F82E3D
:10210000F22631F40F5F1F4F0E30110581F7D8CF43
:102110008091230281FD0E94FD0680E090E02F2D3A
:1021200030E0482FB901082E02C0759567950A94D2
:10213000E2F760FF25C08E83BF8281E090E06C01F2
:1021400002C0CC0CDD1C4A95E2F72E2D30E02C218C
:102150003D21232B09F480E088870E94D51C8160F3
:10216000782F9A8789874E815F8168858A850E944A
:10217000F210F801E057FE4F80818C25808305C066
:1021800001968630910569F6BDCF0E94D51E0E944A
:10219000F10F90918F018917A9F00E94F10F8093A0
:1021A0008F012A960FB6F894DEBF0FBECDBFDF9128
:1021B000CF911F910F91FF90EF90DF90CF90BF9044
:1021C0000C94E70B2A960FB6F894DEBF0FBECDBF76
:1021D000DF91CF911F910F91FF90EF90DF90CF9003
:1021E000BF900895CF93DF93CDB7DEB72B970FB68F
:1021F000F894DEBF0FBECDBF4F83588769877A87BB
:102200008B87DE01119686E0FD0111928A95E9F730
:1022100085E0FE01379601900D928A95E1F749819C
:102220005A816B817C818D819E810E9442182B9600
:102230000FB6F894DEBF0FBECDBFDF91CF910895EA
:10224000FC01808191810E94131B0895CF93882304
:1022500009F4FCC0C82F8238C1F40E94F10F81FD3F
:10226000F5C069E380910201909103010E944E1C28
:102270000E94721B2FEF81EE94E02150804090402D
:10228000E1F700C0000069E319C0833801F50E943E
:10229000F10F80FDDBC063E58091020190910301A5
:1022A0000E944E1C0E94721B2FEF81EE94E0215081
:1022B00080409040E1F700C0000063E5809102019A
:1022C000909103010E94501CCF910C94721B843892
:1022D000C1F40E94F10F82FDB9C067E48091020150
:1022E000909103010E944E1C0E94721B2FEF81EE01
:1022F00094E0215080409040E1F700C0000067E486
:10230000DDCF8CEF8C0F813A68F48C2F0E94E62091
:1023100081119CC06C2F80910201909103010E9459
:102320004E1CD2CF80E28C0F883048F4C77081E019
:1023300001C0880FCA95EAF70E94A81BC5CF8BE59C
:102340008C0F833078F4C53A29F0C63A31F083E82F
:1023500090E005C081E890E002C082E890E0CF9173
:102360000C94131088E58C0F853108F06FC0C83AC3
:1023700061F1C93A69F1CA3A71F1CB3A79F1CC3AD3
:1023800081F1CB3B89F1CC3B91F1CD3A99F1C03B46
:10239000A1F1CE3AA9F1CF3AB1F1C13BB9F1C23BBB
:1023A000C1F1C33BC9F1C43BD1F1C53BD9F1C63B37
:1023B000E1F1C73BE9F1C83BF1F1C93BF9F1CA3B97
:1023C00009F43FC080E090E03EC082EE90E03BC068
:1023D00089EE90E038C08AEE90E035C085EB90E061
:1023E00032C086EB90E02FC083EB90E02CC084EBF2
:1023F00090E029C087EB90E026C08CEC90E023C0F1
:102400008DEC90E020C083E891E01DC08AE891E067
:102410001AC082E991E017C084E991E014C081E21A
:1024200092E011C083E292E00EC084E292E00BC021
:1024300085E292E008C086E292E005C087E292E081
:1024400002C08AE292E0CF910C942910CF910895B6
:10245000882309F45BC0682F823879F40E94F10F59
:1024600081FF54C069E380910201909103010E94B1
:102470004E1C0E94721B69E310C08338B1F40E94A5
:10248000F10F80FF43C063E5809102019091030149
:102490000E944E1C0E94721B63E580910201909184
:1024A00003010E94501C0C94721B843879F40E9422
:1024B000F10F82FF2BC067E480910201909103012C
:1024C0000E944E1C0E94721B67E4E7CF8CEF860FC0
:1024D000813A18F380E2860F883048F4677081E013
:1024E00001C0880F6A95EAF70E94AE1BDCCF8BE52E
:1024F000860F833020F480E090E00C941310685A2B
:10250000653120F480E090E00C9429100895882330
:1025100021F00E94A81B0C94721B0895882321F0BF
:102520000E94AE1B0C94721B08958F929F92AF92E3
:10253000BF92DF92EF92FF920F931F93CF93DF939F
:102540007C01D62FC72FFC01058102950F701281E7
:1025500011110E94C81B0E946B1B882379F0112364
:1025600069F080E28D0F883048F082E00E94541BB1
:102570000E946B1B91E0D82ED92601C0D12CBC2E15
:10258000B2948FE0B8228B2D90E0FC01EE57FF4F04
:102590000C949B288C2F807FCF70882311F0C295DC
:1025A000C07F112399F0CC2309F4C3C180E28D0FC1
:1025B000883010F0D11104C08C2F0E94A81B03C0DA
:1025C0008C2F0E94BB1B0E94721BB3C18D2F0E94D7
:1025D0002812CC2309F4D2C180E28D0F883010F08C
:1025E000D11104C08C2F0E94AE1B03C08C2F0E94FF
:1025F000C11B0E94721BC2C18C2F807FCF708032A2
:1026000011F0C295C07FDD2319F0D130C9F022C08E
:10261000112371F0002341F0013031F40E94E11BDD
:102620008C2B0E94DB1BAAC10E94E11B8C2B3AC1A0
:10263000002319F0013009F4A1C10E94DE1B18C06B
:10264000112321F0063008F099C10EC0053008F0C2
:1026500095C10EC0112351F0002331F0F70185819F
:1026600080FF67C18F7085838C2F1CC1011172C1DF
:102670008C2F1EC18C2F86958695837019F0813022
:1026800061F07CC1112321F08D2F9C2F937002C02B
:1026900080E090E00E9413107EC1112321F08D2F65
:1026A0009C2F937002C080E090E00E94291073C1BB
:1026B0001123F9F0D53F51F0D63F71F0D43FA9F482
:1026C00080913B0290913C0281600BC080913B0263
:1026D00090913C02826005C080913B0290913C0247
:1026E000846090933C0280933B028D2F0E94DD1DFD
:1026F0001EC0D53F51F0D63F71F0D43FA9F4809170
:102700003B0290913C028E7F0BC080913B029091E6
:102710003C028D7F05C080913B0290913C028B7FF3
:1027200090933C0280933B028D2F0E94451E0E9495
:10273000CA1E31C18C2F837009F04CC0111127C102
:102740002D2F229526952770220F220F6D2F6F7047
:10275000862F90E0A0E0B0E04C015D01022E04C0A5
:10276000880C991CAA1CBB1C0A94D2F7D4FF12C077
:102770008FE090E0A0E0B0E004C0880F991FAA1F8E
:10278000BB1F2A95D2F7BC01CD016095709580954D
:10279000909503C060E070E0CB01C695C695C3700C
:1027A000C23051F080F4682979298A299B29C130E7
:1027B00071F00E949119EBC0682979298A299B2917
:1027C0000E94A319E4C00E949119C501B4010E949E
:1027D0007F19DDC0112319F08C2F817001C08695FF
:1027E000882309F4D4C02D2F229526952770220F17
:1027F000220F6D2F6F70862F90E0A0E0B0E04C01AB
:102800005D01022E04C0880C991CAA1CBB1C0A94F2
:10281000D2F7D4FF12C08FE090E0A0E0B0E004C097
:10282000880F991FAA1FBB1F2A95D2F7BC01CD01A3
:10283000609570958095909503C060E070E0CB0145
:10284000C695C695C370C23051F080F468297929C5
:102850008A299B29C13071F00E94561A98C06829B4
:1028600079298A299B290E94681A91C00E94561AC8
:10287000C501B4010E94441A8AC08D2F90E0FC016A
:10288000E05EF109E531F10508F04FC0EE56FF4F6B
:102890000C949B28DF708C2F8F71112331F00E94D4
:1028A000DD198D2F0E94871269C00E94FE198D2F9D
:1028B0000E948E1263C0112341F0053008F05EC003
:1028C0008C2F8F710E94231A59C0063008F056C011
:1028D000F7CF112339F08C2F8F710E94DD194EC074
:1028E0001123C9F38C2F8F710E94FE1947C0112349
:1028F00029F08C2F8F710E94C81940C00E94C31903
:102900003DC0112349F0CF718C2F0E94DD1963E087
:102910008C2F0E944B1B32C081E00E94541B02305E
:1029200068F182E00E94541B29C0112331F000237A
:1029300091F28D2F0E94261121C0002399F2D933E4
:1029400049F4FFEF27EE83E0F15020408040E1F7AB
:1029500000C000008D2F0E94281210C04C2F4F7015
:102960006D2FC7010E9486080E94F01814C04C2FDA
:102970004F706D2FC7010E94E90B0DC098E0B9168A
:1029800031F0B91640F086EF8B0D823020F40E94B2
:10299000F10F0E94E70BDD20E1F00E94471B80FD54
:1029A00018C0F70112820E94411B0E94DD19C70165
:1029B0000E94F5140E94411BDF91CF911F910F914E
:1029C000FF90EF90DF90BF90AF909F908F900C940E
:1029D000FE19DF91CF911F910F91FF90EF90DF9043
:1029E000BF90AF909F908F9008950F931F93CF93B8
:1029F000DF93EC01988189812B813C81232B31F07D
:102A00008F3F31F481E09F3F19F403C081E001C0A2
:102A100080E080FD13C0CE010E94020A882371F07D
:102A2000688179818A810E941E1B8C010E947A1A1A
:102A30000E946D19B801CE010E949512DF91CF91CD
:102A40001F910F9108950E94C81B0E94D81B80916E
:102A50000201909103010E94521C0E94721B0E946D
:102A6000631F0E94CA1E80E090E00E94131080E065
:102A700090E00C9429100E94B51B0C9423150E9421
:102A8000131BE92FE295EF704E2F50E0FA013297B9
:102A9000EE30F105B0F4E955FF4F0C949B28803FD0
:102AA00091F018F4803E68F40EC0843F51F40BC0DE
:102AB000803E48F0813F29F406C093FB882780F9C7
:102AC000089580E0089581E00895CF93DF9300D0CA
:102AD00000D01F92CDB7DEB70F900F900F900F90E0
:102AE0000F90DF91CF910895CF93DF9300D000D066
:102AF00000D0CDB7DEB726960FB6F894DEBF0FBE76
:102B0000CDBFDF91CF9108951F93CF93DF93C091F5
:102B10009F0116E08091A001C81799F0D0E01C9F9A
:102B2000F0011D9FF00D1124EF55FE4F40815181A2
:102B300062817381848195810E9474152196C7708A
:102B4000E9CFDF91CF911F9108954091D10150912C
:102B5000D2016091D3017091D4018091D5019091FF
:102B6000D6010C94741520919F019091A00156E01C
:102B70002917A9F030E0529FF001539FF00D112466
:102B8000EF55FE4F7181761306C07081781303C034
:102B90007281741306C02F5F3F4F2770E9CF80E02A
:102BA000089581E00895CF938091D60182958F702A
:102BB00009F05FC08091D301882309F45AC0809145
:102BC0009F01B091A0017091D101A091D2014091DB
:102BD000D4015091D50191E07F3F09F090E0692F39
:102BE000C6E08B1709F445C04115510521F0AF3FF0
:102BF00021F020E003C021E001C0262F90E020FD5D
:102C000035C0C89FF001C99FF00D1124EF55FE4F4C
:102C100021812A132BC02081271328C02281211152
:102C200025C0238134812417350710F42150310940
:102C3000241B350B283C3105C8F42091D6012F7098
:102C400020612093D60126E0289FF001299FF00DF6
:102C50001124EA55FE4F80818F708061808381ED61
:102C600091E00E94F514CF910C9484150196877021
:102C7000B8CFCF9108959F92AF92BF92CF92DF923B
:102C8000EF92FF920F931F93CF93DF93CDB7DEB7F1
:102C900061970FB6F894DEBF0FBECDBF7C0185E013
:102CA000F701DE011D9601900D928A95E1F7D7019B
:102CB000DC9011960C9111971296CC903091D10125
:102CC0004091D2018091D4019091D501009731F0CB
:102CD0004F3F31F421E03F3F19F403C021E001C030
:102CE00020E020FD9FC1F701A380B4809090D30124
:102CF000992009F42BC12091D601A816B90628F015
:102D0000B501681B790BCB0104C0809590958A0DA5
:102D10009B1D11E0883C910590F010E0207F09F0A8
:102D2000DBC07A2DB98AA88A4D2D502F6C2D898948
:102D30000E94651581ED91E00E94F5146BC1822F10
:102D4000807F09F091C0041315C0D31213C01C2D4D
:102D5000C11010C02F7020612093D6010E94A515CC
:102D600081ED91E00E94F5148091D601D70115966E
:102D70008C9375C1A114B10439F00F3F39F481E08F
:102D8000BFEFDB1203C003C081E001C080E080FD23
:102D900003C081E08C2502C080E090E080FF15C078
:102DA0004C2D602F8D2D0E94B315882371F081ED7D
:102DB00091E00E94F514E1EDF1E086E0DF011D9263
:102DC0008A95E9F70E94A5154DC0AB2839F00F3F51
:102DD00039F481E0BFEFDB1203C003C081E001C022
:102DE00080E080FD03C081E08C2502C080E090E09F
:102DF000E82FE170BE2E80FF2CC04C2D602F8D2D52
:102E00000E94B315182F811124C0DD860E878D8591
:102E10009E850E94131B292F22952F70223018F0B7
:102E2000243090F405C09F7059F0811109C017C17A
:102E30009F7031F0D70115969C91907F09F40FC1D6
:102E4000805E883008F40BC1C7010E94F5141B2D69
:102E500006C11C2DCC2009F402C18091D6018160ED
:102E60008093D60110E0FBC0041309C0D31207C041
:102E7000C11005C08091D601F7018583A5C0DD860C
:102E80000E878D859E850E943F15882379F1CC2081
:102E900069F12091D601822F82958F7090E0029780
:102EA00074F08091D1019091D20198878F83198617
:102EB000BB86AA862C87CE0107960E94F51486E071
:102EC000F701A1EDB1E001900D928A95E1F70E9422
:102ED000D3150E94A5150DC0041769F0DD860E8775
:102EE0008D859E850E943F15811119C0C7010E94E2
:102EF000F51411E0B4C0D312F1CFC110EFCF80911F
:102F0000D601F7018583C7010E94F51486E0E1ED43
:102F1000F1E0DF011D928A95E9F7192DA0C0CC20C0
:102F200029F32091D601822F82958F7090E002972D
:102F300034F28091D1019091D2019A8389831B82CE
:102F4000BD82AC822E83CE010196B7CFA816B906FA
:102F500028F0F501E81BF90BCF0104C0809590958E
:102F60008A0D9B1D883C910558F010E07A2DB98A96
:102F7000A88A4D2D502F6C2D89890E9465154AC055
:102F80001C2DCC2009F4B2CF041333C0D31231C0AE
:102F90002091D60120FD24C0822F82958F70482F6A
:102FA00050E041155105E1F0D70115962C93159786
:102FB0004F30510549F08F5F982F9295907F822F67
:102FC0008F70892B15968C93C7010E94F51486E0AB
:102FD000F701A1EDB1E001900D928A95E1F73DC0B6
:102FE00086E0F701A1EDB1E001900D928A95E1F73D
:102FF00036C0DD860E878D859E850E943F15811126
:103000005ECF8091D60181608093D601C7010E9476
:10301000F51425C0E1EDF1E086E0DF011D928A950F
:10302000E9F71BC0CC2009F461CFDD860E878D85C2
:103030009E850E943F15182F882309F457CF86E0FC
:10304000F701A1EDB1E001900D928A95E1F781EDD4
:1030500091E00E9420110E94D3150E94A515812F96
:1030600061960FB6F894DEBF0FBECDBFDF91CF9152
:103070001F910F91FF90EF90DF90CF90BF90AF9096
:103080009F9008951F93CF93DF93CDB7DEB72C9712
:103090000FB6F894DEBF0FBECDBF4F835887698748
:1030A0007A878B879C87CE0107960E943B168823E0
:1030B000D1F09F8188852A853B85232B31F08F3F76
:1030C00031F481E09F3F19F403C081E001C080E04A
:1030D00080FD47C04F81588569857A858B859C85A1
:1030E0000E9474153EC086E0FE013796DE011196FF
:1030F00001900D928A95E1F7FF81E8856A857B85CD
:103100006115710531F0EF3F31F481E0FF3F19F4B3
:1031100003C081E001C080E080FD23C02091A001B8
:1031200030E0C90101968770992740919F0150E0D6
:1031300084179507F1F1F983EA837D836C8396E028
:10314000929FD001939FB00D1124AF55BE4FFE0149
:10315000319601900D929A95E1F78093A0010E941B
:10316000841516E080919F019091A001891771F15B
:10317000189FC00111248F559E4F0E943B16882333
:1031800029F1E0919F011E9FF0011124EF55FE4FA0
:103190004081518162817381848195810E9474157F
:1031A00080919F0190E001968770992780939F01FD
:1031B000D9CF0E943B151092A00110929F01E1ED22
:1031C000F1E086E0DF011D928A95E9F72C960FB6B3
:1031D000F894DEBF0FBECDBFDF91CF911F91089550
:1031E000EF92FF920F931F93CF93DF938C01892B64
:1031F00009F46CC0F12CEE24E394E8012196F80167
:103200008491843740F4843008F051C0813081F0DB
:10321000823019F15BC0853709F444C0A8F19CE7FE
:10322000980F903708F052C08F770E94281241C043
:103230000E5F1F4FFE01849190E2980F983050F47A
:103240008770FE2D01C0FF0F8A95EAF78F2F0E942D
:10325000CB1B14C00E9426112DC00E5F1F4FFE0114
:10326000849190E2980F983060F48770FE2D01C031
:10327000FF0F8A95EAF78F2F0E94D11B0E94721BC5
:1032800019C00E94281216C00E5F1F4FFE01C49184
:10329000CC2381F08FE99FE00197F1F700C0000097
:1032A000C150F6CF0E5F1F4FFE01F49003C00E9485
:1032B00026118E018F2D882309F49FCFEFE9FFE0BF
:1032C0003197F1F700C000008150F5CFDF91CF9129
:1032D0001F910F91FF90EF900895089508950C9419
:1032E0006E190E946F1960931202709313028093FB
:1032F0001402909315020C9423150C9471190F93DA
:103300001F93009112021091130220911402309128
:103310001502602B712B822B932B1F910F910C9414
:1033200071190F931F9300911202109113022091B3
:1033300014023091150260237123822393231F917D
:103340000F910C9471190F931F9300911202109119
:1033500013022091140230911502602771278227F1
:1033600093271F910F910C9471190C946E190E9460
:10337000B51960930E0270930F0280931002909320
:1033800011020C94231560E070E0CB010C94B71986
:103390000F931F9341E050E060E070E08A019B01D1
:1033A00004C0000F111F221F331F8A95D2F7C901D5
:1033B000B8011F910F910C94B7190F931F9341E01F
:1033C00050E060E070E004C0440F551F661F771F97
:1033D0008A95D2F780910E0290910F02A09110026F
:1033E000B09111028A019B01082B192B2A2B3B2B30
:1033F000C901B8011F910F910C94B7190F931F9336
:1034000041E050E060E070E004C0440F551F661FCB
:10341000771F8A95D2F74095509560957095809169
:103420000E0290910F02A0911002B09111028A0138
:103430009B01082319232A233B23C901B8011F91AB
:103440000F910C94B7190F931F9341E050E060E087
:1034500070E004C0440F551F661F771F8A95D2F78E
:1034600080910E0290910F02A0911002B091110272
:103470008A019B01082719272A273B27C901B80180
:103480001F910F910C94B7190F931F9300910E0287
:1034900010910F022091100230911102602B712BBC
:1034A000822B932B1F910F910C94B7190F931F939D
:1034B00000910E0210910F02209110023091110222
:1034C00060237123822393231F910F910C94B719CA
:1034D0000F931F9300910E0210910F022091100282
:1034E0003091110260277127822793271F910F9136
:1034F0000C94B7190895292F220F920F990F890F55
:10350000E82FE695E695E695877051E001C0550FE6
:103510008A95EAF785E0E89FF0011124E952FE4F11
:1035200020E030E070E04081CB01022E02C0969591
:1035300087950A94E2F781708195842785238427F3
:1035400081932F5F3F4F2530310569F70895292F6B
:10355000220F920F990F890F682F669566956695D1
:10356000982F977085E0689FB001112440E050E0EB
:1035700080E0FB01E40FF51FE952FE4F208130E0AF
:10358000092E02C0369527950A94E2F72170332759
:10359000042E01C0220F0A94EAF7822B4F5F5F4F7F
:1035A0004530510531F70895CF92DF92EF92FF92A7
:1035B0000F931F93CF93DF938C01C0900E02D09096
:1035C0000F02E0901002F09011028091120290918F
:1035D0001302A0911402B0911502C82AD92AEA2A2E
:1035E000FB2ACFE1D0E0D701C6010C2E04C0B6956E
:1035F000A795979587950A94D2F780FD04C02197E7
:1036000090F780E007C0B8018C2F0E94050C01974D
:10361000B1F38C2FDF91CF911F910F91FF90EF901D
:10362000DF90CF900895CF93DF93EC010E94D41ADE
:10363000BE010E94050CDF91CF9108951F93CF9397
:10364000DF93EB0190919E01992321F0CB010E9421
:10365000131B13C0882349F0CB010E94D41A182FE2
:10366000682FCE010E947B1A04C0CB010E94A71ACA
:10367000182FBE01812F0E94050CDF91CF911F9161
:103680000895809116028595859585950895809178
:1036900016028770089598E0899F90011124262BC7
:1036A000209316020C94DD19209116028095822336
:1036B00080931602982F977069F430E0482F082EF7
:1036C000000C550B2417350729F0859585958595B0
:1036D0000C94FE19089590911602977081E009F4F8
:1036E00080E00895E0910201F091030180912202AF
:1036F0008083E0910201F091030190818091210289
:10370000892B8083E0910201F091030190818091E7
:103710002002892B808380911702882381F0E09119
:103720000201F09103019081892B80838091020135
:10373000909103010E941A1C81111092170280912E
:103740000201909103010C94FD0F809122020895D3
:1037500090912202892B8093220208958095909166
:103760002202892380932202089510922202089552
:1037700080912102089590912102892B809321024A
:1037800008958095909121028923809321020895C4
:1037900010922102089590912002892B809320029B
:1037A00008958095909120028923809320020895A6
:1037B0001092200208958093170208951092170224
:1037C00008958091170208956DEE7EEF80E090E0FD
:1037D0000E94D52860E082E090E00E94C32860E06B
:1037E00083E090E00E94C32860E084E090E00E94C3
:1037F000C32860E085E090E00C94C32880E090E06E
:103800000E94BD2821E08D3E9E4F09F020E0822FCE
:10381000089582E090E00C94B52883E090E00C9449
:10382000B52884E090E00C94B528682F84E090E0FF
:103830000C94C328FC0131969C01285F3F4F80E027
:10384000919191118F5FE217F307D1F708959C01D1
:10385000FC0132969FEF80E04191461789F09F3F2F
:1038600019F4411101C0982F8F5F8630A9F79F3F4F
:1038700039F0F901E90FF11D97FDFA95628308957A
:1038800008959C012A5F3F4FFC014281461301C00D
:103890001282019682179307B9F708950C94271C9A
:1038A0000C94411CFC01319608961192E817F90717
:1038B000E1F7089580914702843039F11092240293
:1038C00020E488E190E00FB6F894A895809360001A
:1038D0000FBE2093600080E00E94E70B83B7817FDA
:1038E000846083BF83B7816083BF7894889583B7F2
:1038F0008E7F83BF0FB6F894A89580916000886191
:1039000080936000109260000FBE089508950C949B
:10391000861CCF930E94871C0E94B3060E94861CBF
:10392000C0E08C2F0E94F706811104C0CF5FCE301B
:10393000C1F701C081E0CF9108950E943B150E941C
:10394000F10F0C94E70B1F920F920FB60F921124F8
:103950008F939F93AF93BF9380912402811113C0E3
:1039600080913D0290913E02A0913F02B0914002B1
:103970004196A11DB11D80933D0290933E02A093FC
:103980003F02B0934002BF91AF919F918F910F90F2
:103990000FBE0F901F90189582E084BD93E095BDF7
:1039A0009AEF97BD80936E0008952FB7F894809199
:1039B0003D0290913E02A0913F02B09140022FBF84
:1039C0000895CF92DF92EF92FF920F931F932FB73C
:1039D000F89440913D0250913E0260913F027091F7
:1039E00040022FBF6A017B01EE24FF248C0120E0FE
:1039F00030E0C016D106E206F30610F4415051093A
:103A00009A01281B390BC9011F910F91FF90EF906C
:103A1000DF90CF90089578941F920F920FB60F9277
:103A200011248F939F93AF93BF9380913D02909108
:103A30003E02A0913F02B09140020196A11DB11D2E
:103A400080933D0290933E02A0933F02B0934002C8
:103A5000BF91AF919F918F910F900FBE0F901F90CC
:103A6000189587E797E790930108809300089AE0FC
:103A700088E10FB6F894A895809360000FBE9093EC
:103A80006000FFCF0E94FE1B811102C00E94E41B58
:103A90000E94091C809323020E94111C90E09093C5
:103AA0004202809341020E940D1C682F70E080E06A
:103AB00090E00C947D198091270280FF0BC06091EB
:103AC000070185E0689FB00111247595679575958C
:103AD00067952BC081FF09C06091070185E0689F51
:103AE000B00111247595679520C082FF07C06091D1
:103AF000070185E0689FB001112417C0909128024A
:103B00009923D1F060910601961788F7209107015B
:103B100085E0289F90011124929FA001939F500D52
:103B2000112470E0CA010E9487286038710540F4B2
:103B30006115710519F406C065E070E0862F0895DF
:103B40008FE7089581E008958091270280FF08C0E3
:103B50006091050170E0759567957595679521C031
:103B600081FF06C06091050170E07595679519C0E9
:103B700082FF04C06091050170E010C0909128029E
:103B8000992399F0609104019617A0F7809105019F
:103B9000899FC001112470E00E9487286038710558
:103BA00040F46115710519F406C061E070E0862FDC
:103BB00008958FE7089581E00895803F21F40E94E1
:103BC0005B1D819504C0813F29F40E945B1D809399
:103BD0002B020895823F21F40E945B1D819504C051
:103BE000833F29F40E945B1D80932A020895893F38
:103BF00019F40E94A41D05C08A3F31F40E94A41D3F
:103C0000819580932C0208958B3F21F40E94A41D7E
:103C1000819504C08C3F29F40E94A41D80932D023D
:103C20000895843F21F480912902816017C0853F67
:103C300021F480912902826011C0863F21F4809195
:103C4000290284600BC0873F21F48091290288609B
:103C500005C0883F31F48091290280618093290258
:103C600008958D3F21F48091270281600BC08E3F23
:103C700021F480912702826005C08F3F29F4809152
:103C800027028460809327020895803F39F4809151
:103C90002B0287FF6CC010922B0269C0813F29F470
:103CA00080912B021816BCF362C090912A02823FC9
:103CB00029F497FF5CC010922A0259C0833F19F47F
:103CC0001916CCF354C0893F41F480912C02181688
:103CD0000CF04DC010922C024AC08A3F29F480910A
:103CE0002C0287FF44C0F6CF8B3F39F480912D0220
:103CF00087FF3DC010922D023AC08C3F29F480917D
:103D00002D021816BCF333C0843F21F480912902A0
:103D10008E7F17C0853F21F4809129028D7F11C0CD
:103D2000863F21F4809129028B7F0BC0873F21F4CD
:103D300080912902877F05C0883F31F48091290254
:103D40008F7E8093290213C08D3F21F4809127023A
:103D50008E7F0BC08E3F21F4809127028D7F05C09E
:103D60008F3F29F4809127028B7F809327028091D7
:103D70002A0281110EC080912B0281110AC080910C
:103D80002C02811106C080912D02811102C0109277
:103D90002802089589E292E00E9408100E94D51C32
:103DA000909326028093250208951F93CF93DF936B
:103DB00080912502909126020E94E11CAC01909115
:103DC0002802992321F02091080130E006C02091BB
:103DD00009018AE0289F900111244217530708F433
:103DE0006EC080912A02C0912B02D0912C021091BA
:103DF0002D02811107C0C1115EC0D1115CC011112B
:103E00005AC05DC09F3F19F09F5F9093280218161B
:103E100024F40E945B1D80932A0280912A0287FF6E
:103E200005C00E945B1D819580932A021C1624F414
:103E30000E945B1D80932B0280912B0287FF05C09F
:103E40000E945B1D819580932B0240912A0244239E
:103E500079F030912B02332359F025EB4203A00176
:103E6000112450932A023203C001112490932B0293
:103E70001D1624F40E94A41D80932C0280912C0214
:103E800087FF05C00E94A41D819580932C02111606
:103E900024F40E94A41D80932D0280912D0287FF9F
:103EA00005C00E94A41D819580932D02DF91CF91C2
:103EB0001F910C94CA1E9F3F09F0A6CFB7CFDF9188
:103EC000CF911F910895E9E2F2E085E0DF011D92B4
:103ED0008A95E9F7109228021092270208958330FC
:103EE00081F128F4813059F08230D1F00895853085
:103EF00009F449C0B8F1863009F456C0089580919C
:103F00000901262F30E0280F311D2F3F310524F401
:103F1000680F6093090108958FEF80930901089558
:103F200080910801262F30E0280F311D2F3F3105E9
:103F300024F4680F6093080108958FEF80930801BF
:103F4000089580910701262F30E0280F311D2F3F63
:103F5000310524F4680F6093070108958FEF809373
:103F60000701089580910601262F30E0280F311DAA
:103F70002F3F310524F4680F6093060108958FEFF9
:103F800080930601089580910501262F30E0280FC7
:103F9000311D2F3F310524F4680F6093050108950A
:103FA0008FEF80930501089580910401262F30E062
:103FB000280F311D2F3F310524F4680F6093040151
:103FC00008958FEF809304010895833011F128F450
:103FD000813049F0823091F00895853081F120F1EF
:103FE0008630C1F1089580910901681720F4861B7D
:103FF00080930901089510920901089580910801A4
:10400000681720F4861B8093080108951092080118
:10401000089580910701681720F4861B809307019B
:10402000089510920701089580910601681720F401
:10403000861B8093060108951092060108958091D1
:104040000501681720F4861B8093050108951092DE
:104050000501089580910401681720F4861B809360
:10406000040108951092040108950F931F9341E0F5
:1040700050E060E070E08A019B0104C0000F111F56
:10408000221F331F8A95D2F7C901B8010E947D19FA
:104090001F910F910C943B158732D8F58E3108F0A3
:1040A0007DC08E3009F467C098F4873009F455C09C
:1040B0008B3009F476C0863009F077C080912302F6
:1040C000817F8E7F8093230281E080932F02089569
:1040D000863109F466C068F4803109F066C08091C9
:1040E000230283FB222720F991E0922790FB83F99A
:1040F0004BC0893109F455C08B3109F056C080910D
:10410000230281FB222720F991E0922790FB81F97D
:104110003BC0883309F445C048F4893209F443C0F0
:10412000853309F440C08732F1F13FC08334D9F1BF
:1041300020F48A33D0F1895332C08834B1F50E941B
:104140003B152FEF83ED90E3215080409040E1F745
:1041500000C000000E94311D24C080912302982FCE
:104160009095917090FB80F980932302911119C072
:10417000897F877F10C08091230282FB222720F94C
:1041800091E0922790FB82F980932302992349F0D2
:104190008091230281608093230203C08D510E948D
:1041A000352081E0089580E0FACF80E0089580E036
:1041B00008950C94D7208E518A3030F4E82FF0E027
:1041C000E75DFE4F8081089580E00895CF93C82F6A
:1041D00080912F02813069F018F08230C9F183C0DC
:1041E000E0910201F09103018081823209F07DC0EB
:1041F00007C0E0910201F09103018081823261F4F5
:104200008C2F0E94D920811104C08C2F0E944C2039
:104210001DC081E090E01AC08C2F0E94D720811130
:1042200014C0C43179F048F4CB3079F0C03109F0D2
:1042300060C082E080932F0208C0C93219F0C833F1
:1042400021F057C010922F0254C081E0817053C0FA
:10425000C93289F118F5C43171F1B0F4C73009F0F1
:1042600046C08EE18093090182E3809308018AE0D1
:104270008093070184E18093060188E08093050123
:1042800088E28093040133C082EE8C0F863078F58B
:104290008C2F0E94DB2080932E0229C0CE34E9F0BF
:1042A00020F4CB3421F56AE013C0C13579F0C23572
:1042B000F1F461E00DC080912E02882319F0109274
:1042C0002E0215C081E080932F0215C061E006C068
:1042D00080912E020E946F1F0AC06AE080912E0218
:1042E0000E94E51F04C010922F0280E004C081E00C
:1042F00002C080E0ABCFCF9108958091380208953D
:104300000F931F93CF93DF9300D01F92CDB7DEB7EB
:104310008C010E94CC23823011F0843019F583E0A7
:1043200089831B830A838093E9008FEF9091E800D3
:10433000815095FD06C095ED9A95F1F70000811129
:10434000F5CF8091E80085FF0DC040E050E063E0CC
:1043500070E0CE0101960E94E9238091E8008E77FB
:104360008093E8000F900F900F90DF91CF911F91F5
:104370000F910895CF93DF9300D01F92CDB7DEB792
:1043800020914702243031F522E029838058910999
:104390009B838A8383E08093E9008FEF9091E8000C
:1043A000815095FD06C095ED9A95F1F700008111B9
:1043B000F5CF8091E80085FF0DC040E050E063E05C
:1043C00070E0CE0101960E94E9238091E8008E778B
:1043D0008093E8000F900F900F90DF91CF91089598
:1043E000CF93DF93EC010E94CC23823011F0843014
:1043F000F9F482E08093E9008FEF9091E80081501A
:1044000095FD06C095ED9A95F1F700008111F5CF65
:104410008091E80085FF0CC040E050E065E070E06E
:10442000CE010E94E9238091E8008E778093E80016
:10443000DF91CF910895CF93DF93EC010E94CC23BD
:10444000823011F0843039F581E08093E9008FEFFC
:104450009091E800815095FD06C095ED9A95F1F791
:1044600000008111F5CF8091E80085FF14C040E085
:1044700050E068E070E0CE010E94E9238091E800FE
:104480008E778093E80088E0FE01A0E3B2E001901F
:104490000D928A95E1F7DF91CF91089580914602C0
:1044A000811109C00E947A250E94D7258091E200DF
:1044B00084608093E2000895109246020895089562
:1044C00008950C949D1C42E061EC81E00E94F3246D
:1044D00042E061EC82E00E94F32442E061EC83E080
:1044E0000C94F32480914902833009F453C030F4D2
:1044F000813071F0823009F48CC008958A3009F45B
:1045000078C08B3009F45EC0893009F09AC020C0B1
:1045100080914802813A09F094C08091E800877F39
:104520008093E80080914C0290914D02892B21F4F8
:1045300068E080E392E003C060E080E090E070E03B
:104540000E9434248091E8008B778093E8000895DE
:1045500080914802813209F074C080914C029091A0
:104560004D02892B09F06DC08091E800877F809310
:10457000E8008091E80082FD05C08091470281112A
:10458000F8CF5FC08091F100809338028091E800FD
:104590008B7753C080914802813A09F052C08091D4
:1045A0004C0290914D02892B09F04BC08091E8009C
:1045B000877F8093E8008091E80080FFFCCF8091A6
:1045C000140136C0809148028132D9F580914C02A5
:1045D00090914D02892BA9F58091E800877F809307
:1045E000E8000E94282580914A02809314010C94CF
:1045F0003B1580914802813221F58091E800877F48
:104600008093E8000E94282580914B028093390214
:10461000089580914802813AA1F48091E800877F53
:104620008093E8008091E80080FFFCCF8091390200
:104630008093F1008091E8008E778093E8000C94DD
:104640002825089584B7877F84BF0FB6F894A8956E
:1046500080916000886180936000109260000FBEBE
:1046600080E880936100109261000E943F100E94D8
:104670007A250E94D7258091E20084608093E20031
:1046800078940E946C280E9443108AE091E00E9476
:10469000EC0F80914702853069F40E945A1C80918A
:1046A00045028823B1F30E94891C882391F30E945C
:1046B000D323EFCF0E944910ECCF0C945F23292F16
:1046C000332723303105C9F060F42130310581F002
:1046D0002230310509F047C084E590E020E139E05F
:1046E00046C02132310511F12232310561F13BC062
:1046F00082E190E024E639E03AC0992781309105C3
:1047000061F040F08230910559F0039761F5EEEDCC
:10471000F8E008C0ECE0F9E005C0E4EFF8E002C022
:10472000E4EEF8E0849190E09F0121C063307105D0
:10473000D0F4660F771FFB01E45CFE4F20813181CE
:1047400089E090E014C06330710568F4FB01EE0F5E
:10475000FF1FEA5CFE4F20813181FB01ED5CFE4FC3
:10476000808190E004C080E090E020E030E0FA0139
:104770003183208308950895CF93C82F0E94BB23CF
:10478000C0933A02CF91089580914702843011F08E
:1047900081E0089582E0089580913A02811102C07B
:1047A0000C94C423089580E189BD82E189BD09B4D8
:1047B00000FEFDCF8091D8008F7D8093D80080913E
:1047C000E00082608093E0008091E00081FDFCCFFA
:1047D0000895CF92DF92EF92FF920F931F93CF93A2
:1047E000DF93EC018B017A010E944725811133C0D0
:1047F000E114F10439F0F70180819181081B190B54
:10480000C80FD91FC12CD12C0115110519F18091A8
:10481000E80085FD16C08091E8008E778093E8005F
:10482000E114F10449F0F70180819181C80ED91E8D
:10483000D182C08285E00FC00E944725882321F3E2
:104840000AC089918093F10001501109FFEFCF1A3E
:10485000DF0ADACF80E0DF91CF911F910F91FF90B7
:10486000EF90DF90CF90089520914E0230914F024B
:104870002617370748F06115710539F42091E800D3
:104880002E772093E80001C0B901FC0120E06115FA
:10489000710579F1809147028823F1F18530F1F1BA
:1048A0008091E80083FD3CC08091E80082FD2EC02D
:1048B0008091E80080FFEBCF2091F3008091F2001F
:1048C00090E0922B6115710551F08830910538F414
:1048D00021912093F100615071090196F3CF21E0FD
:1048E000089709F020E08091E8008E778093E80037
:1048F000CECF2111CFCF0AC080914702882361F02B
:10490000853061F08091E80083FD0AC08091E80065
:1049100082FFF2CF80E0089582E0089583E0089559
:1049200081E0089520914E0230914F0226173707FB
:1049300048F06115710539F42091E8002E77209335
:10494000E80001C0B901FC0120E06115710591F199
:1049500080914702882309F440C0853009F43FC0A4
:104960008091E80083FD3DC08091E80082FD2FC06A
:104970008091E80080FFE9CF2091F3008091F20060
:1049800090E0922B6115710559F08830910540F443
:1049900024912093F1003196615071090196F2CF74
:1049A00021E0089709F020E08091E8008E7780935D
:1049B000E800CBCF2111CCCF0AC0809147028823D9
:1049C00061F0853061F08091E80083FD0AC080913C
:1049D000E80082FFF2CF80E0089582E0089583E04E
:1049E000089581E00895982F973068F59093E90035
:1049F000981739F07091EC002091ED005091F00083
:104A000003C0242F762F50E021FD02C09F5FECCF22
:104A10003091EB003E7F3093EB003091ED003D7F15
:104A20003093ED003091EB0031603093EB007093E8
:104A3000EC002093ED005093F0002091EE0027FD54
:104A4000E5CF80E008958F708093E90081E00895BC
:104A50008091480287FF11C08091E80082FD05C067
:104A6000809147028111F8CF11C08091E8008B77C7
:104A70000BC080914702882349F08091E80080FFB5
:104A8000F8CF8091E8008E778093E8000895209118
:104A9000E4003091E50095E64091EC00842F8170B0
:104AA00040FF23C08091E80080FD1DC08091470237
:104AB000882399F0853099F08091EB0085FD11C035
:104AC0004091E4005091E5002417350729F39150F7
:104AD00011F09A01E1CF84E0089582E0089583E027
:104AE000089581E0089580E008954091E80042FF34
:104AF000DDCF08950E94E8250E94F025E0EEF0E069
:104B0000808181608083E8EDF0E080818F77808311
:104B100019BCA7EDB0E08C918E7F8C9380818F7E45
:104B200080831092460208950F931F93CF93DF93D3
:104B30000E94E8250E94F025C8EDD0E088818F779B
:104B4000888388818068888388818F7D888319BC69
:104B500010924702109243021092450210924402B2
:104B600000EE10E0F80180818B7F80838881816076
:104B7000888342E060E080E00E94F324E1EEF0E010
:104B800080818E7F8083E2EEF0E08081816080838F
:104B9000808188608083F80180818E7F8083888116
:104BA00080618883DF91CF911F910F910895E8ED87
:104BB000F0E080818F7E8083E7EDF0E0808181608E
:104BC000808384E082BF81E0809346020C94942528
:104BD000E8EDF0E080818E7F80831092E2000895FE
:104BE0001092DA001092E10008951F920F920FB612
:104BF0000F9211242F933F934F935F936F937F9363
:104C00008F939F93AF93BF93EF93FF938091E100B6
:104C100082FF0BC08091E20082FF07C08091E1001B
:104C20008B7F8093E1000E946B288091DA0080FFE7
:104C30001FC08091D80080FF1BC08091DA008E7F5A
:104C40008093DA008091D90080FF0DC080E189BD9A
:104C500082E189BD09B400FEFDCF81E08093470267
:104C60000E944E2205C019BC109247020E945C228D
:104C70008091E10080FF19C08091E20080FF15C0A3
:104C80008091E2008E7F8093E2008091E20080615B
:104C90008093E2008091D80080628093D80019BC94
:104CA00085E0809347020E9460228091E10084FFAA
:104CB00030C08091E20084FF2CC080E189BD82E198
:104CC00089BD09B400FEFDCF8091D8008F7D80930F
:104CD000D8008091E1008F7E8093E1008091E20016
:104CE0008F7E8093E2008091E20081608093E200F9
:104CF00080914302882311F084E007C08091E30093
:104D000087FD02C081E001C083E0809347020E94DA
:104D100061228091E10083FF29C08091E20083FF3E
:104D200025C08091E100877F8093E10082E080933D
:104D30004702109243028091E1008E7F8093E10050
:104D40008091E2008E7F8093E2008091E20080619A
:104D50008093E20042E060E080E00E94F3248091D2
:104D6000F00088608093F0000E945F22FF91EF9135
:104D7000BF91AF919F918F917F916F915F914F9173
:104D80003F912F910F900FBE0F901F9018951F927B
:104D90000F920FB60F9211242F933F934F935F936F
:104DA0006F937F938F939F93AF93BF93CF93DF9333
:104DB000EF93FF93C091E900CF708091EC00D82F62
:104DC000D17080FDD0E81092E9008091F000877FDB
:104DD0008093F00078940E940B271092E900809154
:104DE000F00088608093F000CD2BCF70C093E90075
:104DF000FF91EF91DF91CF91BF91AF919F918F91F3
:104E00007F916F915F914F913F912F910F900FBEC6
:104E10000F901F9018951F93CF93DF93CDB7DEB7F8
:104E2000AA970FB6F894DEBF0FBECDBFE8E4F2E05C
:104E30008091F100819322E0E035F207C9F70E94EA
:104E400072228091E80083FF2EC1809148029091E8
:104E50004902492F50E04A30510508F024C1FA01B7
:104E6000EB54FF4F0C949B28803821F0823809F0D6
:104E70001AC108C08091440290914502992389F09B
:104E800082600FC080914C028F70873008F00BC198
:104E90008093E9008091EB0085FB882780F91092D0
:104EA000E9009091E800977F9093E8008093F100EB
:104EB0001092F100D1C0282F2D7F09F0F4C0882373
:104EC00019F0823061F0EFC080914A02813009F020
:104ED000EAC0933009F080E0809345022EC08091B3
:104EE0004A0281112AC080914C028F702FEF280F47
:104EF000263008F0D8C08093E9002091EB0020FF15
:104F00001CC0933021F48091EB00806214C090911A
:104F1000EB0090619093EB0021E030E0A90102C02A
:104F2000440F551F8A95E2F74093EA001092EA0079
:104F30008091EB0088608093EB001092E9008091F3
:104F4000E800877F8093E8000E942825ACC081118B
:104F5000AAC010914A021F778091E3008078812BCC
:104F60008093E3008091E800877F8093E8000E94AF
:104F700028258091E80080FFFCCF8091E3008068C5
:104F80008093E300111102C082E001C083E08093AE
:104F9000470289C08058823008F085C080914A025B
:104FA00090914B028C3D53E0950779F583E08A831D
:104FB0008AE289834FB7F894DE01139620E03EE041
:104FC00051E2E32FF0E050935700E49120FF03C03B
:104FD000E295EF703F5FEF708E2F90E0EA3010F0B7
:104FE000C79601C0C0968D939D932F5F243149F7DA
:104FF0004FBF8091E800877F8093E8006AE270E00D
:10500000CE0101960E94342416C060914C0270912A
:105010004D02AE014F5F5F4F0E945D23BC01892BA3
:1050200009F441C09091E800977F9093E80089814E
:105030009A810E9492248091E8008B778093E80007
:1050400032C0803881F58091E800877F8093E80046
:10505000809143028093F1008091E8008E7772CFB7
:10506000811121C080914A0290914B0299270297A9
:10507000D4F48091E800877F8093E80080914A0211
:10508000809343020E94282580914302811106C02B
:105090008091E30087FD02C081E001C084E080933D
:1050A00047020E9463228091E80083FF0AC080913A
:1050B000E800877F8093E8008091EB008062809316
:1050C000EB00AA960FB6F894DEBF0FBECDBFDF91FE
:1050D000CF911F9108950895CF938091470288231F
:1050E000A1F0C091E900CF709091EC00892F817000
:1050F00090FD80E8C82B1092E9008091E80083FDC4
:105100000E940B27CF70C093E900CF91089597FBC1
:10511000072E16F4009407D077FD09D00E94A1282D
:1051200007FC05D03EF4909581959F4F08957095AA
:1051300061957F4F0895EE0FFF1F0590F491E02DCC
:105140000994AA1BBB1B51E107C0AA1FBB1FA617CE
:10515000B70710F0A61BB70B881F991F5A95A9F720
:1051600080959095BC01CD010895F999FECF92BD2F
:1051700081BDF89A992780B50895A8E1B0E042E092
:1051800050E00C94DD28262FF999FECF92BD81BD09
:10519000F89A019700B4021639F01FBA20BD0FB675
:1051A000F894FA9AF99A0FBE08950196272F0E9453
:1051B000C4280C94C328DC01CB01FC01F999FECF73
:1051C00006C0F2BDE1BDF89A319600B40D9241508F
:0A51D0005040B8F70895F894FFCF9F
:1051DA0001FF18022808140A321E7D211B22F02121
:1051EA00BA218021013534C697669436323331F7B5
:1051FA00F6F500000000000000010203040506079E
:10520A00080900404D36F909AC09760922093B091B
:02521A00540935
:00000001FF
