:100000000C940F050C946D070C9456050C94560532
:100010000C9456050C9456050C9456050C945605F4
:100020000C9456050C9456050C94E4240C94B625B7
:100030000C94921B0C9456050C9456050C94560582
:100040000C9456050C9456050C9456050C945605C4
:100050000C9456050C94FA1B0C9456050C945605FA
:100060000C9456050C9456050C9456050C945605A4
:100070000C9456050C9456050C9456050C94560594
:100080000C9456050C9456050C9456050C94560584
:100090000C9456050C9456050C9456050C94560574
:1000A0000C9456050C9456050C94560530083808E7
:1000B0004008480850085808600868087008780820
:1000C0008008880890089808A008A808B008BF0809
:1000D000C708CF08D7080909350943094B09100A91
:1000E000120A1D0A140A160A180A1A0A1C0A1F0AFA
:1000F000210A230A2E0A250A270A290A2B0A2D0A71
:10010000300A3112311263126312A112BF12251488
:10011000251401132514A413A41315142514251450
:100120001E14B113B113B113B113B113B113B11341
:10013000B113B113B113B113B113B113B113B1139F
:10014000B113C213D013D713DE13E813B614B614C9
:10015000C814C814BF14C814C814C814B614B614EC
:10016000C414C814C814C41423264A2642274A2695
:1001700042279626B926422710271F2703E003E1CE
:1001800003E003E203E30003E00002E00003E10018
:1001900002E10003E10003E100030903E003E100E1
:1001A00002E002E1020900031203E203E10002E2BD
:1001B00002E1021200030703E203E10002E202E1AE
:1001C000020700031B03E001290002E0021B0003F9
:1001D0000603E001290002E0020600030F03E0032A
:1001E000E20002E202E0020F00031D03E103E0006F
:1001F00002E102E0021D00032A03E00002E0022AFD
:1002000000034F03E00002E0024F00035003E00050
:1002100002E0025000034D03E10002E1024D000341
:100220004A03E10002E1024A00034E03E10002E159
:10023000024E00034B03E10002E1024B00034F03B7
:10024000E103E00002E002E1024F00035003E1039A
:10025000E00002E002E1025000035103E10002E18C
:10026000025100035203E10002E1025200034F0376
:10027000E10002E1024F00035003E10002E10250FD
:1002800003E10035001E001F002000210022002B8A
:100290000014001A0008001500170016300400169C
:1002A00000070009000A0015301D001B0006001998
:1002B0000005000751E000E3001530E20001004DA9
:1002C000004A003F002900000000002B7814300095
:1002D000000000000000002E00270026002500245A
:1002E0000023002D00130012000C0018001C003425
:1002F0000033000F000E000D000B002800380037FF
:100300000036001000110001003100390030002FCC
:100310000001004E004B000F064C00000000002AB8
:10032000002C00000000000000000001000100019E
:1003300000010021040100010001001A010C301528
:10034000010100010004011604010009010100156A
:10035000301D011B0106011901010001000100010E
:100360000015300100010001000100010001000042
:10037000000000010001000000000000000000017A
:100380000001000100010001000100010001000B5B
:100390003052000A300100010001004F00510050AE
:1003A000004D0028040100010001000100010001CE
:1003B000000100010030042F0401000100010001D0
:1003C000000100000000004B014E01000000000091
:1003D00000000001000100010001002106010001F0
:1003E00000010001000100150601000100010001EB
:1003F0000007060906010001001D030100010001BC
:1004000000010001000100010001000100010001E4
:100410000001000100010000000000010014300094
:1004200000000000000000010001000100010001C7
:100430000001000100010012064B00010001000153
:1004400000010001004E0001004A0001000100010E
:100450000001000100010001000100010001000194
:100460000001000100010001000100000000000186
:100470000001000000000000000000010001000178
:100480000001000100010001000100010001000164
:100490000001000100010001000100010001000154
:1004A0000001000100010001000100010001000144
:1004B0000001000100010001000100010001000035
:1004C0000000000100010000000000000000000129
:1004D0000001000100010001000100010001000114
:1004E0000001000100010001000100010001000104
:1004F00000010001000100010001000100010001F4
:1005000000010001000100010001000100010001E3
:100510000001000000000001001730000000000092
:1005200000000001000100010001000100010001C4
:1005300000010001000100010001000100010001B3
:10054000000100010001001530010001000100015F
:10055000000100010001000100153001000100014F
:100560000001000100010000000000010014300043
:100570000000000000000001000100010001000176
:100580000001000100010001000100010001000163
:100590000001000100010001000100010001000153
:1005A0000001000100010001000100010001000143
:1005B0000001000100010001000100000000000135
:1005C0000001000000000000000000010001000127
:1005D0000001000100010001000100010001000113
:1005E00000010001000100010001000100010015EF
:1005F000301D0110300F3019010100010001000110
:10060000000651010001000100010001000100008D
:100610000000000100143000000000000000000194
:1006200000010001000100010001000100010005BE
:1006300030023004300100010001000130033000BD
:10064000300930010001000100010001000100013A
:100650000001000100010001000100010001000192
:100660000001000000000001000100000000000087
:100670000000000100010001000100010001000173
:100680000001000100010001000100010001000162
:100690000001000100010001000100010001000152
:1006A0000001000100010001000100010001000142
:1006B00000010001000100000000000100143000F2
:1006C0000000000000000001000100010001000125
:1006D00000010001000100010006300100010001DD
:1006E0000001000100073001000830010001000195
:1006F00000010001000100010001000100010001F2
:1007000000010001000100010001000000000001E3
:10071000000100000000000000000045003A003B1E
:10072000003C003D003E000100010001000100010D
:1007300000010001000100010001000100010000B2
:100740005C135C1830010001000100010001000190
:100750000001000100010001000100010001000092
:100760000000000100010000000000000000004443
:100770000043004200410040003F00010001000131
:100780000001000100010001000100010001000161
:100790000001000100010001000100010001000151
:1007A0000001000100010001000100010001000141
:1007B000000100000000002C002C000000000000E0
:1007C00000000000000000000000002A2B280000AC
:1007D00000000000000000000000000000002900F0
:1007E0000000002C1E3420212224342627252E36FA
:1007F0002D3738271E1F2021222324252633333668
:100800002E37381F0405060708090A0B0C0D0E0FBA
:10081000101112131415161718191A1B1C1D2F313D
:1008200030232D350405060708090A0B0C0D0E0FA1
:10083000101112131415161718191A1B1C1D2F311D
:1008400030354C00000000000000000000000000F7
:100850000000000000000000000000000000000098
:10086000000000000101010101010001010101007E
:100870000000000000000000000000000001000176
:100880000001010101010101010101010101010159
:10089000010101010101010101010101010100004A
:1008A0000001010000000000000000000000000046
:1008B0000000000000000000000000000000010136
:1008C0000101000403300000000E034400610063D6
:1008D00000740079006C00000016034300480020FB
:1008E0000062006F0078004D006F0064007300002C
:1008F000000403090409025400030100A0FA0904DA
:100900000000010301010009211101000122400042
:100910000705810308000A09040100010301020020
:10092000092111010001224D000705820308000A78
:100930000904020001030000000921110100012245
:1009400036000705830308000A12011001000000A9
:1009500008EDFE603001000102030105010980A1DC
:100960000185021601002603001A81002A83007502
:100970001095018100C0050C0901A1018503160134
:1009800000269C021A01002A9C0275109501810024
:10099000C005010902A1010901A1000509190129E8
:1009A00005150025019505750181029501750381E5
:1009B000010501093009311581257F9502750881EE
:1009C0000609381581257F950175088106050C0AF1
:1009D00038021581257F950175088106C0C0050183
:1009E0000906A101050719E029E715002501950869
:1009F0007501810295017508810105081901290514
:100A0000950575019102950175039101050719007E
:100A100029FF150026FF00950675088100C01124E6
:100A20001FBECFEFDAE0DEBFCDBF04B603FE27C0A6
:100A30008091140290911502A0911602B0911702B4
:100A40008730904BA740B04BD1F410921402109213
:100A50001502109216021092170214BE84B7877FF7
:100A600084BF0FB6F894A895809160008861809348
:100A70006000109260000FBEE0E0F8E3099511E01D
:100A8000A0E0B1E0E8EBFFE402C005900D92A234D3
:100A9000B107D9F722E0A2E4B1E001C01D92A43170
:100AA000B207E1F70E9411220C94DA270C9400009F
:100AB00008950C9458050C945805CF93DF938091BA
:100AC000E701836088608093E701ABE1B1E042E237
:100AD00051E061E070E08D91E82FE295EF70F0E079
:100AE00021A18F70EB0102C0CC0FDD1F8A95E2F7C8
:100AF000CE019C2F9095922391A392A1892B82A342
:100B00004A175B0741F7A5E1B1E04BE151E061E035
:100B100070E08D91E82FE295EF70F0E021A18F70E9
:100B2000EB0102C0CC0FDD1F8A95E2F7CE019C2FAE
:100B30009095922391A392A1892B82A34A175B07D8
:100B400041F7559A209AE2E4F1E0A1E5B1E080E5B1
:100B500091E011921D928E179F07D9F7DF91CF91E7
:100B60000C94450B2F923F924F925F926F927F921F
:100B70008F929F92AF92BF92CF92DF92EF92FF92AD
:100B80000F931F93CF93DF9300D000D0CDB7DEB784
:100B900080910001811103C007E010E002C000E075
:100BA00010E08BE1C82E81E0D82E98012F5A3E4FDD
:100BB000790192E2892E91E0992E3C832B83AA241D
:100BC000A394B12C34E0732E6B817C81DB014C90BB
:100BD0001C92F60181916F01E82FE295EF70F0E031
:100BE00021A18F70A50102C0440F551F8A95E2F71D
:100BF000CA01242B21A322A1642E6094262122A3C2
:100C000050EA5A95F1F7A5E1B1E0BA83A98320E053
:100C100030E0A981BA815D90BA83A983452D4295C0
:100C20004F7050E0DA0190962C90AB81BC813C90E3
:100C3000452D4F70D50102C0AA0FBB1F4A95E2F7A0
:100C4000AD01422139F44A2D022E01C0440F0A940D
:100C5000EAF701C040E0342AAB81BC813C922F5FAF
:100C60003F4F26303105A9F691A1692261A292A1D8
:100C7000892B82A31196BC83AB83FB01808148162C
:100C800061F0F1E0F0935F010E94C41B9093610159
:100C9000809360018BB187258BB98C149D0409F07A
:100CA00093CF80915F018823A9F08091600190919A
:100CB00061010E94D01B069768F0F801EE5BFE4FC1
:100CC00080E0D7019D917D0191938F5F8730C9F7B7
:100CD00010925F0181E00F900F900F900F90DF91C5
:100CE000CF911F910F91FF90EF90DF90CF90BF9029
:100CF000AF909F908F907F906F905F904F903F90BC
:100D00002F900895CF93DF9380910001811103C04C
:100D1000C0E0D0E002C0C7E0D0E00E94D207009758
:100D200079F4CE5BDE4F20E030E0F901EC59FE4F64
:100D3000408149932F5F3F4F27303105B1F702C003
:100D400081E090E0DF91CF910895CF930E94B205AA
:100D5000C82F0E948206892BD9F05D98809150019E
:100D60008F5F809350018630B0F080910001811137
:100D700003C0E0E0F0E002C0E7E0F0E0EE5BFE4F31
:100D800080E090E01192019687309105D9F703C079
:100D90005D9A109250010E94470B8C2FCF910895BD
:100DA0000E94B20580910001811103C0E7E0F0E0EC
:100DB00002C0E0E0F0E0EE5BFE4F80E090E02191C9
:100DC000DC01AC59BE4F2C93019687309105B9F7E1
:100DD0000895E82FF0E0EE5BFE4F808108950895BE
:100DE000E8EDF0E08081806180838AE18A95F1F707
:100DF00000C08091D900817008950E94F006882378
:100E000019F00E94600704C00E94BB1B0E94640787
:100E1000789408950E945D050E94D006FDCF0E943F
:100E2000FD060E94F006811102C00E940A07089583
:100E3000509A08955098589A0895589A08950E9483
:100E40001A07489BFECF80E88A95F1F708950E9423
:100E50001A0798E080E029B1880F2170822B20E8E2
:100E60002A95F1F725E02A95F1F70000915099F7BE
:100E700008950F931F93CF93082F0E941807C8E07F
:100E800010E0C15088F0C8010C2E02C095958795DE
:100E90000A94E2F780FF03C00E941D0701C0589822
:100EA00080E88A95F1F7EDCFCF911F910F910895CA
:100EB0000E941807589880E88A95F1F70C941D074E
:100EC0000E9418070C941D070E941A07E89AE9E689
:100ED000F0E080818C7F808308951F920F920FB67F
:100EE0000F921124EF92FF921F932F933F934F93F2
:100EF0005F936F937F938F939F93AF93BF93CF93A2
:100F0000DF93EF93FF930E945807C0E0D0E010E01A
:100F1000CE018C599E4F7C01FC0180810E943907D3
:100F20000E945807F7018081180F2196C730D1051C
:100F300079F7812F0E9439070E945807F0E8FA9547
:100F4000F1F780E48A95F1F70E9427078093630107
:100F50000E945807C09163010E942707D82F0E9462
:100F600058070E941A0780916201DC1711F0816016
:100F700001C08E7F80936201FF91EF91DF91CF914D
:100F8000BF91AF919F918F917F916F915F914F91A1
:100F90003F912F911F91FF90EF900F900FBE0F90F8
:100FA0001F901895EF92FF921F93CF93DF93F894C1
:100FB0000E941807589825E02A95F1F700000E9432
:100FC0001A070E941D0730E83A95F1F7489930C09A
:100FD0000E941F07C0E0D0E010E00E942707FE013A
:100FE000EC59FE4F7F0180830E941F07F70180812B
:100FF000180F2196C730D10581F70E942707C82F07
:101000000E941F071C1314C0809163010E943907BE
:101010000E941F07809163010E9439070E941F07E9
:101020000E9418070E941D07789480E090E003C09A
:10103000789481E090E0DF91CF911F91FF90EF9045
:1010400008950C945905FC018281462F50E04931E6
:10105000510508F03CC1FA01EA5AFF4F0C948A2767
:10106000882319F08CE792E030C187E792E02DC128
:10107000882319F082E792E028C18DE692E025C12D
:10108000882319F088E692E020C183E692E01DC132
:10109000882319F08EE592E018C189E592E015C128
:1010A000882319F082E592E010C18BE492E00DC133
:1010B000882319F084E492E008C18DE392E005C131
:1010C000882319F088E392E000C183E392E0FDC039
:1010D000882319F08EE292E0F8C089E292E0F5C030
:1010E000882319F084E292E0F0C08FE192E0EDC035
:1010F000882319F08AE192E0E8C085E192E0E5C03A
:10110000882319F080E192E0E0C08BE092E0DDC03E
:10111000882319F086E092E0D8C081E092E0D5C043
:10112000882319F08CEF91E0D0C087EF91E0CDC01B
:10113000882319F080EF91E0C8C089EE91E0C5C026
:10114000882319F082EE91E0C0C08BED91E0BDC024
:10115000882319F086ED91E0B8C08FEC91E007C0CC
:10116000882319F08AEC91E0B0C083EC91E00E94F2
:10117000420B10926B0185E00E94651935C08823EF
:1011800019F08CEB91E0A1C085EB91E09EC0882323
:1011900019F08EEA91E099C087EA91E096C0882321
:1011A00019F080EA91E091C089E991E08EC088232E
:1011B000F9F081E080936C0180916B01882359F0F4
:1011C00080916D01882329F086E991E00E94420B0D
:1011D0002DC085E00AC080916D01882329F083E944
:1011E00091E00E94420B24C081E00E9444196FC02C
:1011F00010926C0110926B0181E00E94651982E0EF
:101200000E94651986E00E94651985E00E946519B3
:101210005EC0882391F081E080936D0180916C0124
:10122000882341F080916B01882311F086E0DDCFA7
:1012300082E0DBCF80E991E048C010926D0186E04A
:101240000E94651982E00E94651980916C018823D3
:1012500049F080916B01882311F085E001C081E0A5
:101260000E9444198DE891E030C0882331F083E07A
:101270000E9444198AE891E028C083E00E94651921
:1012800087E891E022C0882331F090916B0181E0E2
:10129000892780936B0181E00E94651982E00E949A
:1012A000651983E00E94651984E00E94651985E054
:1012B0000E94651986E00E94651987E00E94651901
:1012C00080E00E9444198CE791E00E94420B80E08C
:1012D00090E0089581E0089581E008950C946C09F0
:1012E0000E94A2142FEF84E39CE0215080409040A4
:1012F000E1F700C0000087E797E79093010880932B
:1013000000080C94201C0F931F93CF93DF938C0144
:10131000FC01C081D181CE010E94E219BE010E9470
:10132000510BEC01B8010E945F0EB801CE010E9482
:101330006E09882309F448C1B801CE010E94A40EA9
:10134000882309F441C1B801CE010E94B00D882361
:1013500009F43AC1C531FCE5DF0739F50E94941A5A
:10136000982FF80182812091020130910301882396
:1013700079F09A7A81E009F480E080936E0191110E
:1013800002C069E201C065E3C9010E943D1B0AC0B9
:1013900080916E01811102C069E201C065E3C9015B
:1013A0000E943F1B0E94611A0FC1C6318CE5D8070D
:1013B00008F07DC0C130ECE5DE0759F4F801828108
:1013C000882309F401C18091E70181608093E701DE
:1013D000FBC0C230FCE5DF0708F452C0F80182818F
:1013E000882309F455C00E94ED1A811102C00E94A1
:1013F000D31A0E94001B90E090930602809305028E
:10140000FE01E350FC45E231F10530F4E159FF4FB4
:10141000809105020C948A2780910502816027C083
:10142000826025C0846023C0806121C080621FC0AB
:1014300080641DC080681BC08460886018C08E7F77
:1014400016C08D7F14C08B7F12C08F7E10C08F7D21
:101450000EC08F7B0CC08F770AC08B7F877F07C041
:1014600087FB222720F991E0922790FB87F9809350
:101470000502809105020E94041B0E94A214A4C0D0
:10148000C115DC4561F081E08093730180937401A4
:10149000C801DF91CF911F910F910C946A09F80157
:1014A0008281882309F490C00E9470098DC0C53DD7
:1014B000ECE5DE0759F5F8018281882361F010928E
:1014C00074010E94C41B909372018093710180E2A9
:1014D0000E94EE1179C080917401882321F080E28E
:1014E0000E94F51171C080917101909172010E946A
:1014F000D01B8639910598F780E20E94F51188E2A9
:101500000E948D1088E20E948F115EC0C63DFCE5EE
:10151000DF0708F044C0C33D8CE5D80719F5F80192
:101520008281882351F0109273010E94C41B909312
:10153000700180936F0182E0CBCF809173018111A4
:101540000FC080916F01909170010E94D01B86396D
:10155000910530F486E20E948D1086E20E948F1180
:1015600082E0BECFC43DDC4509F08DCFF801828119
:101570008111A5CF809174018111B1CF809171014A
:10158000909172010E94D01B8639910508F0A7CF77
:1015900087E20E948D1087E20E948F11A0CFC83D84
:1015A000FCE5DF0731F4F8018281882369F080E0EF
:1015B00009C0C93DDC4509F066CFF8018281882366
:1015C00019F082E00E94AB2280E0DF91CF911F9161
:1015D0000F910895CF9390E0FC01ED53F84FC49123
:1015E000FC01ED5BF74F8491882359F081EE0E9456
:1015F0008D108C2F0E948D108C2F0E948F1181EEE8
:1016000004C08C2F0E948D108C2FCF910C948F11C1
:101610000F931F93CF93DF93EC01062FFE0184916C
:10162000882359F19E012F5F3F4F813041F4E9013A
:10163000F9011491812F0E948D10812F0DC08230ED
:1016400031F4E901F90184910E948D100AC08330C0
:1016500031F4E901F90184910E948F1102C00E94C6
:10166000EA0A2196802F8823C9F2EFE9FFE031973B
:10167000F1F700C000008150F6CFDF91CF911F91AC
:101680000F91089560E00C94080B0C9421080E94BF
:10169000000F0C945B0508950C944B0B0C944C0BB1
:1016A000089524E5829FC0011124FC0126E0729F69
:1016B000E00DF11D1124E60FF11DEE0FFF1FED5798
:1016C000FD4F859194910895880F991FFC01ED536A
:1016D000F74F859194910895CF93DF930E94510B1A
:1016E0000E94100DEC018115904508F041C0C11514
:1016F00080E4D80708F01CC1C83ED10510F5C03EF3
:10170000D10508F089C1C83AD10578F4C53AD105A8
:1017100008F09EC0C130D10509F47EC108F435C17E
:10172000C430D10508F078C130C1CD3BD10508F4F3
:101730009AC0C03CD10508F428C1CE01805C910953
:10174000E9C0C11590E2D90758F4C11521E0D207CC
:1017500008F062C1C03FD10508F417C1D0655CC173
:10176000C11580E3D80708F0D9C0CE019F70D2C060
:10177000C11595E5D90708F044C0C11524E5D20785
:1017800008F0EDC0C11582E5D80710F5C11591E547
:10179000D90708F0D0C0CE0174E0969587957A9568
:1017A000E1F7282F23703C2F337081E090E002C0D6
:1017B000880F991F3A95E2F79C68922BCF70C695D7
:1017C000C69520E2C29FE0011124C82BD92B24C169
:1017D0009E01237033278C2F86958695C115D3459E
:1017E00008F0AEC0C1E0D0E002C0CC0FDD1F2A95EA
:1017F000E2F720E2829FC0011124C82BD92BDC68BC
:101800000BC1C11529E5D20780F4C11588E5D807B9
:1018100008F0AAC0C11596E5D90708F0B6C0CF7187
:10182000DD27DC2FCC27D062F7C0CE01C1152AE519
:10183000D20708F49EC090568115904208F0A5C0CA
:101840008D2F8F710E948C0DDD27D0628F719BC010
:10185000C53AD10509F49CC0C63AD10509F09BC030
:10186000C2E8D0E4D9C0C83AD10509F497C0C93A52
:10187000D10509F496C0CA3AD10509F495C0CB3A0E
:10188000D10509F494C0CC3AD10509F493C0CB3BFF
:10189000D10509F492C0CC3BD10509F491C0CD3AF1
:1018A000D10509F490C0C03BD10509F48FC0CE3AF0
:1018B000D10509F48EC0CF3AD10509F48DC0C13BE2
:1018C000D10509F48CC0C23BD10509F48BC0C33BE0
:1018D000D10509F48AC0C43BD10509F489C0C53BD0
:1018E000D10509F488C0C63BD10509F487C0C73BC0
:1018F000D10509F486C0C83BD10509F485C0C93BB0
:10190000D10509F484C0CA3BD10509F483C0C0E005
:10191000D4E482C00E94640BEC017EC0CE01992702
:10192000D3FF03C0EC01D86C77C0EC01D06C74C05D
:10193000DF70D06A71C0DC2FCC27C16FD06A6CC059
:10194000C1E0D0E002C0CC0FDD1F2A95E2F720E213
:10195000829FC0011124C82BD92BDA685DC0DC2F0F
:10196000CC27C46FD06A58C0DC2FCC27C06FD06A98
:1019700053C024E0969587952A95E1F78F70CF7034
:10198000C06ED0E0D06AD82B47C0C0E0D0E044C0E1
:10199000C1E8D0E441C0C3E8D0E43EC0C2EED4E424
:1019A0003BC0C9EED4E438C0CAEED4E435C0C5EBC0
:1019B000D4E432C0C6EBD4E42FC0C3EBD4E42CC0D3
:1019C000C4EBD4E429C0C7EBD4E426C0CCECD4E407
:1019D00023C0CDECD4E420C0C3E8D5E41DC0CAE8E0
:1019E000D5E41AC0C2E9D5E417C0C4E9D5E414C0EF
:1019F000C1E2D6E411C0C3E2D6E40EC0C4E2D6E42C
:101A00000BC0C5E2D6E408C0C6E2D6E405C0C7E212
:101A1000D6E402C0CAE2D6E4CE01DF91CF910895A8
:101A20008238910549F1B0F48133910509F459C028
:101A300048F48932910509F44FC08A32910509F4BE
:101A400055C008958533910509F441C08933910546
:101A500099F00895833E910531F138F4803E910567
:101A600091F0823E9105A9F00895863E910501F11D
:101A7000873E910539F108952091050220FD3BC074
:101A800021FD39C008958091050280FF34C089E3AB
:101A900041C08091050282FF30C08091050284FD23
:101AA0002EC083EE37C08091050282FD26C0F5CF9F
:101AB0008091050283FF25C08091050284FD1FC02F
:101AC00087EE28C08091050283FD1BC0F5CF809171
:101AD000050285FD18C019C08091050285FD15C05D
:101AE00012C08091050286FD12C013C080910502CC
:101AF00086FD0FC00CC080EE0DC082EE0BC080E0F2
:101B000009C086EE07C089E205C085E303C08AE20A
:101B100001C081E390E008959091050292FF0DC00D
:101B2000282F2871283019F4877F846006C0282F59
:101B30002471243011F48B7F886093FF0DC0282F0F
:101B40002871283119F4877E846106C0282F2471FA
:101B5000243111F48B7E886194FD877E0895089569
:101B60000F931F93CF93FB012281211102C0C1E08B
:101B700041C08C01C0918201C11125C086319C45B4
:101B8000B1F70E94AF0D81E0809382010E94C41BD7
:101B900090938101809380011092750110927701DA
:101BA00010927601109279011092780110927B01C7
:101BB00010927A0110927D0110927C0110927F01A7
:101BC00010927E0117C080918001909181010E9446
:101BD000D01B8C32914058F690917501E92FF0E0BE
:101BE000EE0FFF1FEA58FE4F118300839F5F909313
:101BF0007501C0E08C2FCF911F910F910895CF9365
:101C0000DF93EC0181E08F878F810E94971A88858E
:101C10000E94AA1A0E94611AEA81FB81CE010696EF
:101C2000309729F06A897B89DF91CF910994DF9100
:101C3000CF910895EF92FF920F931F93CF93DF936D
:101C4000FC012085211134C0EC01E380F480F7E52C
:101C5000FF1A24E12E9DC0012F9D900D1124DC015F
:101C6000A559BE4F1496ED91FC9115978F589E4F34
:101C7000309729F052966D917C915397099584E1A4
:101C80008E9D80018F9D100D112405591E4FF80166
:101C900087810E949D1AF80180850E94B01A0E94D7
:101CA000611A18821F821986109284011092830192
:101CB000DF91CF911F910F91FF90EF900895DF92E8
:101CC000EF92FF920F931F93CF93DF93FB0122813B
:101CD000222391F1209101012F3F71F18C01CBE67C
:101CE000D1E0E12CF12CDD24D39480910101082E68
:101CF000000C990B8E159F05FCF08E818823B9F09E
:101D000089859A858017910739F480918301909194
:101D100084010817190759F0DD868F85811103C0EA
:101D2000CE010E94FF0DCE0106960E941A0EFFEF13
:101D3000EF1AFF0A6496D9CFDF91CF911F910F91CF
:101D4000FF90EF90DF900895EF92FF920F931F9313
:101D5000CF93DF939C0137552F3F310511F008F0E9
:101D600047C040910101042E000C550B4217530748
:101D700014F420930101FB017C01828194E1929F84
:101D80008001939F100D1124E801C559DE4F8E8705
:101D900092818E81992311F1FA86E9868F5F8E8375
:101DA0000E94C41B9C878B870E94D01A8F830E943D
:101DB000941A88870E94A71A9885892B8887E881BA
:101DC000F981C8018F589E4F309719F06A897B8935
:101DD0000995F0928401E09283010AC0882341F0C2
:101DE0008F85882329F0C8018F589E4F0E941A0EB4
:101DF00081E0DF91CF911F910F91FF90EF900895B7
:101E0000CF92DF92EF92FF920F931F93CF93DF93C6
:101E1000809101018F3FF1F1F12C94E1E92E0F2D1A
:101E200010E080910101082E000C990B801791079A
:101E30008CF1E09EF001E19EF00D1124E559FE4F7A
:101E4000C088D188C114D10419F486E9C82ED12CD8
:101E5000E09EE001E19ED00D1124C559DE4F8E8138
:101E60008823B1F08B859C850E94D01BC816D906AB
:101E700078F48F85811103C0CE010E94FF0DE09E92
:101E8000C001E19E900D11248F589E4F0E941A0EA2
:101E9000F394C5CFDF91CF911F910F91FF90EF90F9
:101EA000DF90CF90089590938A01809389010895DF
:101EB000E0918901F0918A01309721F00190F08141
:101EC000E02D099480E00895E0918901F0918A0164
:101ED000309721F00280F381E02D09940895E0917C
:101EE0008901F0918A01309721F00480F581E02D7D
:101EF00009940895209187013091880128173907A6
:101F000071F09093880180938701E0918901F091AD
:101F10008A01309721F00680F781E02D0994089519
:101F200020918501309186012817390771F090932F
:101F3000860180938501E0918901F0918A013097B3
:101F400021F00084F185E02D099408950C940F0789
:101F500081E008950E94BB1B0E945D050C94311C1A
:101F6000BF92CF92DF92EF92FF920F931F93CF9386
:101F7000DF93CDB7DEB72A970FB6F894DEBF0FBE5A
:101F8000CDBF0E94A5060E94A80F811111C08FEF3E
:101F900089838A831B820E94C41B8160782F9D8362
:101FA0008C8349815A816B818D810E94591054C064
:101FB0008CE8C82E81E0D82E00E010E0B02E802FF3
:101FC0000E94E906E82EF60121916F01F82EF22613
:101FD00031F40F5F1F4F0E30110581F7D8CF80917C
:101FE000E70181FD0E94EF0680E090E02F2D30E0B8
:101FF000482FB901082E02C0759567950A94E2F73B
:1020000060FF25C08E83BF8281E090E06C0102C03A
:10201000CC0CDD1C4A95E2F72E2D30E02C213D2121
:10202000232B09F480E088870E94C41B8160782FED
:102030009A8789874E815F8168858A850E945910B9
:10204000F801E457FE4F80818C25808305C00196FE
:102050008630910569F6BDCF0E94C41D0E94580FBD
:1020600090918B018917A9F00E94580F80938B01E2
:102070002A960FB6F894DEBF0FBECDBFDF91CF9189
:102080001F910F91FF90EF90DF90CF90BF900C9435
:102090004E0B2A960FB6F894DEBF0FBECDBFDF9170
:1020A000CF911F910F91FF90EF90DF90CF90BF9055
:1020B0000895CF93DF93CDB7DEB72B970FB6F89483
:1020C000DEBF0FBECDBF4F83588769877A878B8766
:1020D000DE01119686E0FD0111928A95E9F785E00F
:1020E000FE01379601900D928A95E1F749815A8158
:1020F0006B817C818D819E810E94A9172B960FB6E2
:10210000F894DEBF0FBECDBFDF91CF910895FC01E3
:10211000808191810E94211A0895CF93882309F428
:10212000FCC0C82F8238C1F40E94580F81FDF5C051
:1021300069E380910201909103010E943D1B0E947E
:10214000611A2FEF81EE94E0215080409040E1F73A
:1021500000C0000069E319C0833801F50E94580FE0
:1021600080FDDBC063E580910201909103010E9434
:102170003D1B0E94611A2FEF81EE94E021508040B8
:102180009040E1F700C0000063E58091020190916A
:1021900003010E943F1BCF910C94611A8438C1F453
:1021A0000E94580F82FDB9C067E4809102019091AE
:1021B00003010E943D1B0E94611A2FEF81EE94E003
:1021C000215080409040E1F700C0000067E4DDCF7F
:1021D0008CEF8C0F813A68F48C2F0E94D51F8111EF
:1021E0009CC06C2F80910201909103010E943D1BC5
:1021F000D2CF80E28C0F883048F4C77081E001C0F4
:10220000880FCA95EAF70E94971AC5CF8BE58C0F05
:10221000833078F4C53A29F0C63A31F083E890E08B
:1022200005C081E890E002C082E890E0CF910C9474
:102230007A0F88E58C0F853108F06FC0C83A61F1DC
:10224000C93A69F1CA3A71F1CB3A79F1CC3A81F1E4
:10225000CB3B89F1CC3B91F1CD3A99F1C03BA1F157
:10226000CE3AA9F1CF3AB1F1C13BB9F1C23BC1F1CC
:10227000C33BC9F1C43BD1F1C53BD9F1C63BE1F148
:10228000C73BE9F1C83BF1F1C93BF9F1CA3B09F49D
:102290003FC080E090E03EC082EE90E03BC089EE1F
:1022A00090E038C08AEE90E035C085EB90E032C017
:1022B00086EB90E02FC083EB90E02CC084EB90E0A5
:1022C00029C087EB90E026C08CEC90E023C08DEC19
:1022D00090E020C083E891E01DC08AE891E01AC038
:1022E00082E991E017C084E991E014C081E292E0B4
:1022F00011C083E292E00EC084E292E00BC085E25E
:1023000092E008C086E292E005C087E292E002C057
:102310008AE292E0CF910C94900FCF910895882398
:1023200009F45BC0682F823879F40E94580F81FF4E
:1023300054C069E380910201909103010E943D1B0A
:102340000E94611A69E310C08338B1F40E94580FEB
:1023500080FF43C063E580910201909103010E94D8
:102360003D1B0E94611A63E5809102019091030177
:102370000E943F1B0C94611A843879F40E94580F14
:1023800082FF2BC067E480910201909103010E94BB
:102390003D1B0E94611A67E4E7CF8CEF860F813AFC
:1023A00018F380E2860F883048F4677081E001C03E
:1023B000880F6A95EAF70E949D1ADCCF8BE5860F9D
:1023C000833020F480E090E00C947A0F685A6531F5
:1023D00020F480E090E00C94900F0895882321F081
:1023E0000E94971A0C94611A0895882321F00E9484
:1023F0009D1A0C94611A08958F929F92AF92BF928A
:10240000DF92EF92FF920F931F93CF93DF937C01A4
:10241000D62FC72FFC01058102950F701281111173
:102420000E94B71A0E945A1A882379F0112369F082
:1024300080E28D0F883048F082E00E94431A0E94AB
:102440005A1A91E0D82ED92601C0D12CBC2EB294B4
:102450008FE0B8228B2D90E0FC01EF57FF4F0C94DA
:102460008A278C2F807FCF70882311F0C295C07F80
:10247000112399F0CC2309F4C3C180E28D0F883079
:1024800010F0D11104C08C2F0E94971A03C08C2F1A
:102490000E94AA1A0E94611AB3C18D2F0E948F1147
:1024A000CC2309F4D2C180E28D0F883010F0D11115
:1024B00004C08C2F0E949D1A03C08C2F0E94B01A5A
:1024C0000E94611AC2C18C2F807FCF70803211F0C0
:1024D000C295C07FDD2319F0D130C9F022C011238D
:1024E00071F0002341F0013031F40E94D01A8C2B9E
:1024F0000E94CA1AAAC10E94D01A8C2B3AC100238A
:1025000019F0013009F4A1C10E94CD1A18C011239D
:1025100021F0063008F099C10EC0053008F095C1D1
:102520000EC0112351F0002331F0F701858180FFA7
:1025300067C18F7085838C2F1CC1011172C18C2FD4
:102540001EC18C2F86958695837019F0813061F0BD
:102550007CC1112321F08D2F9C2F937002C080E04D
:1025600090E00E947A0F7EC1112321F08D2F9C2FC5
:10257000937002C080E090E00E94900F73C111231D
:10258000F9F0D53F51F0D63F71F0D43FA9F48091D6
:10259000FF019091000281600BC08091FF0190913A
:1025A0000002826005C08091FF019091000284606A
:1025B000909300028093FF018D2F0E94CC1C1EC0BF
:1025C000D53F51F0D63F71F0D43FA9F48091FF017F
:1025D000909100028E7F0BC08091FF0190910002CC
:1025E0008D7F05C08091FF01909100028B7F9093B9
:1025F00000028093FF018D2F0E94341D0E94B91D9F
:1026000031C18C2F837009F04CC0111127C12D2FBF
:10261000229526952770220F220F6D2F6F70862F1F
:1026200090E0A0E0B0E04C015D01022E04C0880CF7
:10263000991CAA1CBB1C0A94D2F7D4FF12C08FE0CD
:1026400090E0A0E0B0E004C0880F991FAA1FBB1F54
:102650002A95D2F7BC01CD01609570958095909533
:1026600003C060E070E0CB01C695C695C370C23070
:1026700051F080F4682979298A299B29C13071F0A9
:102680000E94F818EBC0682979298A299B290E94A1
:102690000A19E4C00E94F818C501B4010E94E618A6
:1026A000DDC0112319F08C2F817001C0869588231D
:1026B00009F4D4C02D2F229526952770220F220FC2
:1026C0006D2F6F70862F90E0A0E0B0E04C015D01AF
:1026D000022E04C0880C991CAA1CBB1C0A94D2F7B9
:1026E000D4FF12C08FE090E0A0E0B0E004C0880FFB
:1026F000991FAA1FBB1F2A95D2F7BC01CD01609577
:1027000070958095909503C060E070E0CB01C69510
:10271000C695C370C23051F080F4682979298A299E
:102720009B29C13071F00E94BD1998C06829792990
:102730008A299B290E94CF1991C00E94BD19C50109
:10274000B4010E94AB198AC08D2F90E0FC01E05EBD
:10275000F109E531F10508F04FC0EF56FF4F0C9439
:102760008A27DF708C2F8F71112331F00E9444195A
:102770008D2F0E94EE1169C00E9465198D2F0E9455
:10278000F51163C0112341F0053008F05EC08C2FB5
:102790008F710E948A1959C0063008F056C0F7CFD1
:1027A000112339F08C2F8F710E9444194EC01123D0
:1027B000C9F38C2F8F710E94651947C0112329F02E
:1027C0008C2F8F710E942F1940C00E942A193DC082
:1027D000112349F0CF718C2F0E94441963E08C2F94
:1027E0000E943A1A32C081E00E94431A023068F116
:1027F00082E00E94431A29C0112331F0002391F294
:102800008D2F0E948D1021C0002399F2D93349F4F5
:10281000FFEF27EE83E0F15020408040E1F700C059
:1028200000008D2F0E948F1110C04C2F4F706D2F04
:10283000C7010E9423080E94571814C04C2F4F70E4
:102840006D2FC7010E94500B0DC098E0B91631F0F2
:10285000B91640F086EF8B0D823020F40E94580F9D
:102860000E944E0BDD20E1F00E94361A80FD18C058
:10287000F70112820E94301A0E944419C7010E9477
:102880005C140E94301ADF91CF911F910F91FF903D
:10289000EF90DF90BF90AF909F908F900C94651950
:1028A000DF91CF911F910F91FF90EF90DF90BF903C
:1028B000AF909F908F9008950F931F93CF93DF93C6
:1028C000EC01988189812B813C81232B31F08F3F52
:1028D00031F481E09F3F19F403C081E001C080E042
:1028E00080FD13C0CE010E948309882371F06881A6
:1028F00079818A810E942C1A8C010E94E1190E9420
:10290000D418B801CE010E94FC11DF91CF911F9124
:102910000F9108950E94B71A0E94C71A8091020170
:10292000909103010E94411B0E94611A0E94521E55
:102930000E94B91D80E090E00E947A0F80E090E054
:102940000C94900F0E94A41A0C948A140E94211ACD
:10295000E92FE295EF704E2F50E0FA013297EE30FA
:10296000F105B0F4EA55FF4F0C948A27803F91F0AF
:1029700018F4803E68F40EC0843F51F40BC0803ED2
:1029800048F0813F29F406C093FB882780F9089519
:1029900080E0089581E00895CF93DF9300D000D0C8
:1029A0001F92CDB7DEB70F900F900F900F900F9042
:1029B000DF91CF910895CF93DF9300D000D000D066
:1029C000CDB7DEB726960FB6F894DEBF0FBECDBFEB
:1029D000DF91CF9108951F93CF93DF93C0919A0118
:1029E00016E080919B01C81799F0D0E01C9FF00180
:1029F0001D9FF00D1124E456FE4F408151816281EC
:102A00007381848195810E94DB142196C770E9CF80
:102A1000DF91CF911F9108954091CC015091CD014C
:102A20006091CE017091CF018091D0019091D10140
:102A30000C94DB1420919A0190919B0156E0291788
:102A4000A9F030E0529FF001539FF00D1124E4569D
:102A5000FE4F7181761306C07081781303C07281B6
:102A6000741306C02F5F3F4F2770E9CF80E00895B1
:102A700081E00895CF938091D10182958F7009F004
:102A80005FC08091CE01882309F45AC080919A01D9
:102A9000B0919B017091CC01A091CD014091CF01EB
:102AA0005091D00191E07F3F09F090E0692FC6E09E
:102AB0008B1709F445C04115510521F0AF3F21F0B6
:102AC00020E003C021E001C0262F90E020FD35C0AA
:102AD000C89FF001C99FF00D1124E456FE4F2181DB
:102AE0002A132BC02081271328C02281211125C041
:102AF000238134812417350710F421503109241B18
:102B0000350B26393105C8F42091D1012F70206191
:102B10002093D10126E0289FF001299FF00D112478
:102B2000EF55FE4F80818F70806180838CEC91E047
:102B30000E945C14CF910C94EB1401968770B8CF6F
:102B4000CF9108959F92AF92BF92CF92DF92EF9272
:102B5000FF920F931F93CF93DF93CDB7DEB76197AB
:102B60000FB6F894DEBF0FBECDBF7C0185E0F70144
:102B7000DE011D9601900D928A95E1F7D701DC9058
:102B800011960C9111971296CC903091CC014091F6
:102B9000CD018091CF019091D001009731F04F3F4E
:102BA00031F421E03F3F19F403C021E001C020E0EF
:102BB00020FD9FC1F701A380B4809090CE019920A1
:102BC00009F42BC12091D101A816B90628F0B5014E
:102BD000681B790BCB0104C0809590958A0D9B1DD5
:102BE00011E08639910590F010E0207F09F0DBC0FC
:102BF0007A2DB98AA88A4D2D502F6C2D89890E9473
:102C0000CC148CEC91E00E945C146BC1822F807F0D
:102C100009F091C0041315C0D31213C01C2DC110AC
:102C200010C02F7020612093D1010E940C158CECF4
:102C300091E00E945C148091D101D70115968C938C
:102C400075C1A114B10439F00F3F39F481E0BFEF31
:102C5000DB1203C003C081E001C080E080FD03C03F
:102C600081E08C2502C080E090E080FF15C04C2DF3
:102C7000602F8D2D0E941A15882371F08CEC91E045
:102C80000E945C14ECECF1E086E0DF011D928A9575
:102C9000E9F70E940C154DC0AB2839F00F3F39F40D
:102CA00081E0BFEFDB1203C003C081E001C080E020
:102CB00080FD03C081E08C2502C080E090E0E82F19
:102CC000E170BE2E80FF2CC04C2D602F8D2D0E94F8
:102CD0001A15182F811124C0DD860E878D859E85DB
:102CE0000E94211A292F22952F70223018F02430AB
:102CF00090F405C09F7059F0811109C017C19F70F1
:102D000031F0D70115969C91907F09F40FC1805E38
:102D1000883008F40BC1C7010E945C141B2D06C14A
:102D20001C2DCC2009F402C18091D10181608093D7
:102D3000D10110E0FBC0041309C0D31207C0C110B9
:102D400005C08091D101F7018583A5C0DD860E877E
:102D50008D859E850E94A614882379F1CC2069F187
:102D60002091D101822F82958F7090E0029774F0AC
:102D70008091CC019091CD0198878F831986BB8675
:102D8000AA862C87CE0107960E945C1486E0F70184
:102D9000ACECB1E001900D928A95E1F70E943A15F2
:102DA0000E940C150DC0041769F0DD860E878D8515
:102DB0009E850E94A614811119C0C7010E945C144F
:102DC00011E0B4C0D312F1CFC110EFCF8091D10187
:102DD000F7018583C7010E945C1486E0ECECF1E00A
:102DE000DF011D928A95E9F7192DA0C0CC2029F3A7
:102DF0002091D101822F82958F7090E0029734F25A
:102E00008091CC019091CD019A8389831B82BD82F0
:102E1000AC822E83CE010196B7CFA816B90628F052
:102E2000F501E81BF90BCF0104C0809590958A0D40
:102E30009B1D8639910558F010E07A2DB98AA88A31
:102E40004D2D502F6C2D89890E94CC144AC01C2D09
:102E5000CC2009F4B2CF041333C0D31231C0209177
:102E6000D10120FD24C0822F82958F70482F50E021
:102E700041155105E1F0D70115962C9315974F3068
:102E8000510549F08F5F982F9295907F822F8F7018
:102E9000892B15968C93C7010E945C1486E0F7017C
:102EA000ACECB1E001900D928A95E1F73DC086E06F
:102EB000F701ACECB1E001900D928A95E1F736C0D4
:102EC000DD860E878D859E850E94A61481115ECFBA
:102ED0008091D10181608093D101C7010E945C146F
:102EE00025C0ECECF1E086E0DF011D928A95E9F760
:102EF0001BC0CC2009F461CFDD860E878D859E85B1
:102F00000E94A614182F882309F457CF86E0F701F2
:102F1000ACECB1E001900D928A95E1F78CEC91E078
:102F20000E9487100E943A150E940C15812F61960D
:102F30000FB6F894DEBF0FBECDBFDF91CF911F91CA
:102F40000F91FF90EF90DF90CF90BF90AF909F9048
:102F500008951F93CF93DF93CDB7DEB72C970FB6AD
:102F6000F894DEBF0FBECDBF4F83588769877A873D
:102F70008B879C87CE0107960E94A2158823D1F0EB
:102F80009F8188852A853B85232B31F08F3F31F443
:102F900081E09F3F19F403C081E001C080E080FD23
:102FA00047C04F81588569857A858B859C850E94AD
:102FB000DB143EC086E0FE013796DE0111960190DB
:102FC0000D928A95E1F7FF81E8856A857B85611519
:102FD000710531F0EF3F31F481E0FF3F19F403C098
:102FE00081E001C080E080FD23C020919B0130E0A2
:102FF000C90101968770992740919A0150E0841782
:103000009507F1F1F983EA837D836C8396E0929FC3
:10301000D001939FB00D1124A456BE4FFE013196EE
:1030200001900D929A95E1F780939B010E94EB1419
:1030300016E080919A0190919B01891771F1189F78
:10304000C001112484569E4F0E94A215882329F1A5
:10305000E0919A011E9FF0011124E456FE4F408139
:10306000518162817381848195810E94DB148091FA
:103070009A0190E001968770992780939A01D9CFA1
:103080000E94A21410929B0110929A01ECECF1E0C4
:1030900086E0DF011D928A95E9F72C960FB6F89429
:1030A000DEBF0FBECDBFDF91CF911F910895EF928C
:1030B000FF920F931F93CF93DF938C01892B09F419
:1030C0006CC0F12CEE24E394E8012196F801849180
:1030D000843740F4843008F051C0813081F0823070
:1030E00019F15BC0853709F444C0A8F19CE7980F3B
:1030F000903708F052C08F770E948F1141C00E5F49
:103100001F4FFE01849190E2980F983050F4877021
:10311000FE2D01C0FF0F8A95EAF78F2F0E94BA1A81
:1031200014C00E948D102DC00E5F1F4FFE018491B0
:1031300090E2980F983060F48770FE2D01C0FF0F69
:103140008A95EAF78F2F0E94C01A0E94611A19C04F
:103150000E948F1116C00E5F1F4FFE01C491CC2339
:1031600081F08FE99FE00197F1F700C00000C150A6
:10317000F6CF0E5F1F4FFE01F49003C00E948D102A
:103180008E018F2D882309F49FCFEFE9FFE031975F
:10319000F1F700C000008150F5CFDF91CF911F9172
:1031A0000F91FF90EF900895089508950C94D5180D
:1031B0000E94D6186093D6017093D7018093D801EE
:1031C0009093D9010C948A140C94D8180F931F93E0
:1031D0000091D6011091D7012091D8013091D901E9
:1031E000602B712B822B932B1F910F910C94D8186D
:1031F0000F931F930091D6011091D7012091D80110
:103200003091D90160237123822393231F910F9161
:103210000C94D8180F931F930091D6011091D701E9
:103220002091D8013091D9016027712782279327F7
:103230001F910F910C94D8180C94D5180E941C194A
:103240006093D2017093D3018093D4019093D50100
:103250000C948A1460E070E0CB010C941E190F935B
:103260001F9341E050E060E070E08A019B0104C0E0
:10327000000F111F221F331F8A95D2F7C901B80111
:103280001F910F910C941E190F931F9341E050E072
:1032900060E070E004C0440F551F661F771F8A95D9
:1032A000D2F78091D2019091D301A091D401B09135
:1032B000D5018A019B01082B192B2A2B3B2BC90115
:1032C000B8011F910F910C941E190F931F9341E0A9
:1032D00050E060E070E004C0440F551F661F771F88
:1032E0008A95D2F740955095609570958091D2015E
:1032F0009091D301A091D401B091D5018A019B0195
:10330000082319232A233B23C901B8011F910F91D8
:103310000C941E190F931F9341E050E060E070E0A1
:1033200004C0440F551F661F771F8A95D2F78091FE
:10333000D2019091D301A091D401B091D5018A011D
:103340009B01082719272A273B27C901B8011F918C
:103350000F910C941E190F931F930091D20110919D
:10336000D3012091D4013091D501602B712B822B98
:10337000932B1F910F910C941E190F931F93009183
:10338000D2011091D3012091D4013091D501602355
:103390007123822393231F910F910C941E190F9375
:1033A0001F930091D2011091D3012091D40130914B
:1033B000D50160277127822793271F910F910C94C5
:1033C0001E190895CF92DF92EF92FF920F931F93F1
:1033D000CF93DF938C01C090D201D090D301E090C5
:1033E000D401F090D5018091D6019091D701A091A0
:1033F000D801B091D901C82AD92AEA2AFB2ACFE1FB
:10340000D0E0D701C6010C2E04C0B695A7959795BC
:1034100087950A94D2F780FD04C0219790F780E049
:1034200007C0B8018C2F0E946C0B0197B1F38C2F51
:10343000DF91CF911F910F91FF90EF90DF90CF9090
:103440000895CF93DF93EC010E94E219BE010E9420
:103450006C0BDF91CF910895CB010E94211A089542
:103460008091DA0185958595859508958091DA0199
:103470008770089598E0899F90011124262B20934E
:10348000DA010C9444192091DA018095822380930B
:10349000DA01982F977069F430E0482F082E000C5D
:1034A000550B2417350729F08595859585950C943E
:1034B000651908959091DA01977081E009F480E030
:1034C0000895E0910201F09103018091E60180836B
:1034D000E0910201F091030190818091E501892B37
:1034E0008083E0910201F091030190818091E401D9
:1034F000892B80838091DB01882381F0E091020198
:10350000F09103019081892B808380910201909139
:1035100003010E94091B81111092DB0180910201BD
:10352000909103010C94640F8091E60108959091AD
:10353000E601892B8093E601089580959091E6013C
:1035400089238093E60108951092E6010895809101
:10355000E50108959091E501892B8093E501089597
:1035600080959091E50189238093E501089510925B
:10357000E50108959091E401892B8093E401089579
:1035800080959091E40189238093E401089510923D
:10359000E40108958093DB0108951092DB01089502
:1035A0008091DB0108956DEE7EEF80E090E00E9457
:1035B000C42760E082E090E00E94B22760E083E0F0
:1035C00090E00E94B22760E084E090E00E94B22781
:1035D00060E085E090E00C94B22780E090E00E94EB
:1035E000AC2721E08D3E9E4F09F020E0822F089508
:1035F00082E090E00C94A42783E090E00C94A42750
:1036000084E090E00C94A427682F84E090E00C9470
:10361000B227FC0131969C01285F3F4F80E09191D9
:1036200091118F5FE217F307D1F708959C01FC0118
:1036300032969FEF80E04191461789F09F3F19F441
:10364000411101C0982F8F5F8630A9F79F3F39F055
:10365000F901E90FF11D97FDFA9562830895089528
:103660009C012A5F3F4FFC014281461301C0128238
:10367000019682179307B9F708950C94161B0C94C2
:10368000301BFC01319608961192E817F907E1F713
:10369000089580910B02843039F11092E80120E402
:1036A00088E190E00FB6F894A895809360000FBE73
:1036B0002093600080E00E944E0B83B7817F84607E
:1036C00083BF83B7816083BF7894889583B78E7FEB
:1036D00083BF0FB6F894A8958091600088618093AD
:1036E0006000109260000FBE089508950C94751B41
:1036F000CF930E94761B0E94A5060E94751BC0E016
:103700008C2F0E94E906811104C0CF5FCE30C1F733
:1037100001C081E0CF9108950E94A2140E94580F29
:103720000C944E0B1F920F920FB60F9211248F9391
:103730009F93AF93BF938091E801811113C0809153
:10374000010290910202A0910302B09104024196FD
:10375000A11DB11D8093010290930202A093030268
:10376000B0930402BF91AF919F918F910F900FBEC4
:103770000F901F90189582E084BD93E095BD9AEF5D
:1037800097BD80936E0008952FB7F8948091010241
:1037900090910202A0910302B09104022FBF0895FC
:1037A000CF92DF92EF92FF920F931F932FB7F8946F
:1037B0004091010250910202609103027091040253
:1037C0002FBF6A017B01EE24FF248C0120E030E052
:1037D000C016D106E206F30610F4415051099A01D1
:1037E000281B390BC9011F910F91FF90EF90DF90BB
:1037F000CF90089578941F920F920FB60F921124D4
:103800008F939F93AF93BF93809101029091020297
:10381000A0910302B09104020196A11DB11D8093F5
:10382000010290930202A0930302B0930402BF919D
:10383000AF919F918F910F900FBE0F901F90189591
:1038400087E797E790930108809300089AE088E162
:103850000FB6F894A895809360000FBE9093600017
:10386000FFCF0E94ED1A811102C00E94D31A0E945C
:10387000F81A8093E7010E94001B90E090930602E3
:10388000809305020E94FC1A682F70E080E090E0AF
:103890000C94E4188091EB0180FF0BC0609107014C
:1038A00085E0689FB00111247595679575956795BA
:1038B0002BC081FF09C06091070185E0689FB001BE
:1038C00011247595679520C082FF07C0609107019C
:1038D00085E0689FB001112417C09091EC019923F5
:1038E000D1F060910601961788F72091070185E0D5
:1038F000289F90011124929FA001939F500D1124A5
:1039000070E0CA010E9476276038710540F46115A5
:10391000710519F406C065E070E0862F08958FE701
:10392000089581E008958091EB0180FF08C06091C7
:10393000050170E0759567957595679521C081FFC4
:1039400006C06091050170E07595679519C082FF0A
:1039500004C06091050170E010C09091EC019923C2
:1039600099F0609104019617A0F780910501899F55
:10397000C001112470E00E9476276038710540F480
:103980006115710519F406C061E070E0862F089595
:103990008FE7089581E00895803F21F40E944A1C3A
:1039A000819504C0813F29F40E944A1C8093EF0155
:1039B0000895823F21F40E944A1C819504C0833FF0
:1039C00029F40E944A1C8093EE010895893F19F45E
:1039D0000E94931C05C08A3F31F40E94931C81957C
:1039E0008093F00108958B3F21F40E94931C8195F0
:1039F00004C08C3F29F40E94931C8093F101089528
:103A0000843F21F48091ED01816017C0853F21F44E
:103A10008091ED01826011C0863F21F48091ED011B
:103A200084600BC0873F21F48091ED01886005C060
:103A3000883F31F48091ED0180618093ED0108951C
:103A40008D3F21F48091EB0181600BC08E3F21F40A
:103A50008091EB01826005C08F3F29F48091EB01DA
:103A600084608093EB010895803F39F48091EF01E9
:103A700087FF6CC01092EF0169C0813F29F48091EB
:103A8000EF011816BCF362C09091EE01823F29F459
:103A900097FF5CC01092EE0159C0833F19F41916CC
:103AA000CCF354C0893F41F48091F00118160CF01A
:103AB0004DC01092F0014AC08A3F29F48091F00174
:103AC00087FF44C0F6CF8B3F39F48091F10187FF27
:103AD0003DC01092F1013AC08C3F29F48091F10170
:103AE0001816BCF333C0843F21F48091ED018E7F22
:103AF00017C0853F21F48091ED018D7F11C0863F75
:103B000021F48091ED018B7F0BC0873F21F48091E0
:103B1000ED01877F05C0883F31F48091ED018F7EF4
:103B20008093ED0113C08D3F21F48091EB018E7FD6
:103B30000BC08E3F21F48091EB018D7F05C08F3F3C
:103B400029F48091EB018B7F8093EB018091EE0152
:103B500081110EC08091EF0181110AC08091F001A6
:103B6000811106C08091F101811102C01092EC0117
:103B700008958DEE91E00E946F0F0E94C41B9093F8
:103B8000EA018093E90108951F93CF93DF93809119
:103B9000E9019091EA010E94D01BAC019091EC01E7
:103BA000992321F02091080130E006C020910901FD
:103BB0008AE0289F900111244217530708F46EC031
:103BC0008091EE01C091EF01D091F0011091F101CF
:103BD000811107C0C1115EC0D1115CC011115AC062
:103BE0005DC09F3F19F09F5F9093EC01181624F47D
:103BF0000E944A1C8093EE018091EE0187FF05C070
:103C00000E944A1C81958093EE011C1624F40E94A8
:103C10004A1C8093EF018091EF0187FF05C00E944D
:103C20004A1C81958093EF014091EE01442379F085
:103C30003091EF01332359F025EB4203A001112409
:103C40005093EE013203C00111249093EF011D1631
:103C500024F40E94931C8093F0018091F00187FF6F
:103C600005C00E94931C81958093F001111624F4E5
:103C70000E94931C8093F1018091F10187FF05C0A0
:103C80000E94931C81958093F101DF91CF911F9148
:103C90000C94B91D9F3F09F0A6CFB7CFDF91CF910C
:103CA0001F910895EDEEF1E085E0DF011D928A9508
:103CB000E9F71092EC011092EB010895833081F145
:103CC00028F4813059F08230D1F00895853009F41C
:103CD00049C0B8F1863009F456C0089580910901B1
:103CE000262F30E0280F311D2F3F310524F4680FB7
:103CF0006093090108958FEF8093090108958091E1
:103D00000801262F30E0280F311D2F3F310524F404
:103D1000680F6093080108958FEF8093080108955C
:103D200080910701262F30E0280F311D2F3F3105EC
:103D300024F4680F6093070108958FEF80930701C3
:103D4000089580910601262F30E0280F311D2F3F66
:103D5000310524F4680F6093060108958FEF809376
:103D60000601089580910501262F30E0280F311DAE
:103D70002F3F310524F4680F6093050108958FEFFC
:103D800080930501089580910401262F30E0280FCB
:103D9000311D2F3F310524F4680F6093040108950D
:103DA0008FEF809304010895833011F128F481305E
:103DB00049F0823091F00895853081F120F186300C
:103DC000C1F1089580910901681720F4861B809342
:103DD000090108951092090108958091080168175A
:103DE00020F4861B8093080108951092080108951D
:103DF00080910701681720F4861B809307010895BE
:103E000010920701089580910601681720F4861B1F
:103E1000809306010895109206010895809105018E
:103E2000681720F4861B8093050108951092050100
:103E3000089580910401681720F4861B8093040183
:103E400008951092040108950F931F9341E050E0EC
:103E500060E070E08A019B0104C0000F111F221F67
:103E6000331F8A95D2F7C901B8010E94E4181F9147
:103E70000F910C94A2148732D8F58E3108F07DC0D2
:103E80008E3009F467C098F4873009F455C08B3040
:103E900009F476C0863009F077C08091E701817F10
:103EA0008E7F8093E70181E08093F301089586314E
:103EB00009F466C068F4803109F066C08091E701BA
:103EC00083FB222720F991E0922790FB83F94BC0D6
:103ED000893109F455C08B3109F056C08091E70152
:103EE00081FB222720F991E0922790FB81F93BC0CA
:103EF000883309F445C048F4893209F443C0853356
:103F000009F440C08732F1F13FC08334D9F120F485
:103F10008A33D0F1895332C08834B1F50E94A2149B
:103F20002FEF83ED90E3215080409040E1F700C0F7
:103F300000000E94201C24C08091E701982F9095DA
:103F4000917090FB80F98093E701911119C0897FEE
:103F5000877F10C08091E70182FB222720F991E042
:103F6000922790FB82F98093E701992349F0809191
:103F7000E70181608093E70103C08D510E94241FF7
:103F800081E0089580E0FACF80E0089580E0089510
:103F90000C94C61F8E518A3030F4E82FF0E0E75DB4
:103FA000FE4F8081089580E00895CF93C82F8091BF
:103FB000F301813069F018F08230C9F183C0E091DB
:103FC0000201F09103018081823209F07DC007C0B7
:103FD000E0910201F09103018081823261F48C2F23
:103FE0000E94C81F811104C08C2F0E943B1F1DC05E
:103FF00081E090E01AC08C2F0E94C61F811114C06E
:10400000C43179F048F4CB3079F0C03109F060C0A8
:1040100082E08093F30108C0C93219F0C83321F05F
:1040200057C01092F30154C081E0817053C0C9326F
:1040300089F118F5C43171F1B0F4C73009F046C008
:104040008EE18093090182E3809308018AE08093E6
:10405000070184E18093060188E08093050188E2EE
:104060008093040133C082EE8C0F863078F58C2F5C
:104070000E94CA1F8093F20129C0CE34E9F020F4D7
:10408000CB3421F56AE013C0C13579F0C235F1F4C3
:1040900061E00DC08091F201882319F01092F201C5
:1040A00015C081E08093F30115C061E006C08091E6
:1040B000F2010E945E1E0AC06AE08091F2010E9435
:1040C000D41E04C01092F30180E004C081E002C05D
:1040D00080E0ABCFCF9108958091FC0108950F93BC
:1040E0001F93CF93DF9300D01F92CDB7DEB78C0123
:1040F0000E94BB22823011F0843019F583E089835D
:104100001B830A838093E9008FEF9091E800815030
:1041100095FD06C095ED9A95F1F700008111F5CF58
:104120008091E80085FF0DC040E050E063E070E062
:10413000CE0101960E94D8228091E8008E7780936C
:10414000E8000F900F900F90DF91CF911F910F918A
:104150000895CF93DF9300D01F92CDB7DEB72091A3
:104160000B02243031F522E02983805891099B838A
:104170008A8383E08093E9008FEF9091E80081507B
:1041800095FD06C095ED9A95F1F700008111F5CFE8
:104190008091E80085FF0DC040E050E063E070E0F2
:1041A000CE0101960E94D8228091E8008E778093FC
:1041B000E8000F900F900F90DF91CF910895CF936B
:1041C000DF93EC010E94BB22823011F08430F9F4BD
:1041D00082E08093E9008FEF9091E800815095FD97
:1041E00006C095ED9A95F1F700008111F5CF809109
:1041F000E80085FF0CC040E050E065E070E0CE01D3
:104200000E94D8228091E8008E778093E800DF91A9
:10421000CF910895CF93DF93EC010E94BB228230AF
:1042200011F0843039F581E08093E9008FEF9091AF
:10423000E800815095FD06C095ED9A95F1F70000D4
:104240008111F5CF8091E80085FF14C040E050E077
:1042500068E070E0CE010E94D8228091E8008E775D
:104260008093E80088E0FE01A4EFB1E001900D9298
:104270008A95E1F7DF91CF91089580910A0281112B
:1042800009C00E9469240E94C6248091E2008460D3
:104290008093E200089510920A0208950895089507
:1042A0000C948C1B42E061EC81E00E94E22342E02E
:1042B00061EC82E00E94E22342E061EC83E00C9436
:1042C000E22380910D02833009F453C030F4813031
:1042D00071F0823009F48CC008958A3009F478C0F6
:1042E0008B3009F45EC0893009F09AC020C08091FB
:1042F0000C02813A09F094C08091E800877F809396
:10430000E8008091100290911102892B21F468E05D
:1043100084EF91E003C060E080E090E070E00E94F4
:1043200023238091E8008B778093E80008958091A3
:104330000C02813209F074C0809110029091110238
:10434000892B09F06DC08091E800877F8093E80099
:104350008091E80082FD05C080910B028111F8CFA9
:104360005FC08091F1008093FC018091E8008B7721
:1043700053C080910C02813A09F052C08091100222
:1043800090911102892B09F04BC08091E800877F42
:104390008093E8008091E80080FFFCCF80911401B9
:1043A00036C080910C028132D9F580911002909133
:1043B0001102892BA9F58091E800877F8093E8009E
:1043C0000E94172480910E02809314010C94A21471
:1043D00080910C02813221F58091E800877F8093E3
:1043E000E8000E94172480910F028093FD01089538
:1043F00080910C02813AA1F48091E800877F80933C
:10440000E8008091E80080FFFCCF8091FD0180935F
:10441000F1008091E8008E778093E8000C941724D7
:10442000089584B7877F84BF0FB6F894A8958091CC
:104430006000886180936000109260000FBE80E889
:1044400080936100109261000E94A60F0E9469246F
:104450000E94C6248091E20084608093E2007894F8
:104460000E945B270E94AA0F8AE091E00E94530FEE
:1044700080910B02853069F40E94491B80910902EA
:104480008823B1F30E94781B882391F30E94C222F3
:10449000EFCF0E94B00FECCF0C944E22292F332780
:1044A00023303105C9F060F42130310581F022302C
:1044B000310509F047C084E590E025EF38E046C0BB
:1044C0002132310511F12232310561F13BC082E127
:1044D00090E029E439E03AC099278130910561F0F4
:1044E00040F08230910559F0039761F5E3ECF8E074
:1044F00008C0E1EFF8E005C0E9EDF8E002C0E9EC42
:10450000F8E0849190E09F0121C063307105D0F400
:10451000660F771FFB01E45CFE4F2081318189E04B
:1045200090E014C06330710568F4FB01EE0FFF1FCB
:10453000EA5CFE4F20813181FB01ED5CFE4F808102
:1045400090E004C080E090E020E030E0FA013183A8
:10455000208308950895CF93C82F0E94AA22C09364
:10456000FE01CF91089580910B02843011F081E01B
:10457000089582E008958091FE01811102C00C949B
:10458000B322089580E189BD82E189BD09B400FEAE
:10459000FDCF8091D8008F7D8093D8008091E0007E
:1045A00082608093E0008091E00081FDFCCF08955F
:1045B000CF92DF92EF92FF920F931F93CF93DF93EF
:1045C000EC018B017A010E943624811133C0E11481
:1045D000F10439F0F70180819181081B190BC80F94
:1045E000D91FC12CD12C0115110519F18091E800BA
:1045F00085FD16C08091E8008E778093E800E11475
:10460000F10449F0F70180819181C80ED91ED18251
:10461000C08285E00FC00E943624882321F30AC09F
:1046200089918093F10001501109FFEFCF1ADF0A41
:10463000DACF80E0DF91CF911F910F91FF90EF9043
:10464000DF90CF9008952091120230911302261727
:10465000370748F06115710539F42091E8002E778D
:104660002093E80001C0B901FC0120E0611571054B
:1046700079F180910B028823F1F18530F1F180917D
:10468000E80083FD3CC08091E80082FD2EC080914F
:10469000E80080FFEBCF2091F3008091F20090E0E2
:1046A000922B6115710551F08830910538F42191F4
:1046B0002093F100615071090196F3CF21E0089732
:1046C00009F020E08091E8008E778093E800CECF5B
:1046D0002111CFCF0AC080910B02882361F0853071
:1046E00061F08091E80083FD0AC08091E80082FFBC
:1046F000F2CF80E0089582E0089583E0089581E09C
:10470000089520911202309113022617370748F0BE
:104710006115710539F42091E8002E772093E800A7
:1047200001C0B901FC0120E06115710591F1809192
:104730000B02882309F440C0853009F43FC0809102
:10474000E80083FD3DC08091E80082FD2FC080918C
:10475000E80080FFE9CF2091F3008091F20090E023
:10476000922B6115710559F08830910540F4249120
:104770002093F1003196615071090196F2CF21E04A
:10478000089709F020E08091E8008E778093E80098
:10479000CBCF2111CCCF0AC080910B02882361F0CE
:1047A000853061F08091E80083FD0AC08091E800C7
:1047B00082FFF2CF80E0089582E0089583E00895BB
:1047C00081E00895982F973068F59093E900981745
:1047D00039F07091EC002091ED005091F00003C091
:1047E000242F762F50E021FD02C09F5FECCF309147
:1047F000EB003E7F3093EB003091ED003D7F309336
:10480000ED003091EB0031603093EB007093EC00E1
:104810002093ED005093F0002091EE0027FDE5CFAE
:1048200080E008958F708093E90081E00895809181
:104830000C0287FF11C08091E80082FD05C08091C5
:104840000B028111F8CF11C08091E8008B770BC06B
:1048500080910B02882349F08091E80080FFF8CF17
:104860008091E8008E778093E80008952091E4001D
:104870003091E50095E64091EC00842F817040FF77
:1048800023C08091E80080FD1DC080910B02882329
:1048900099F0853099F08091EB0085FD11C0409131
:1048A000E4005091E5002417350729F3915011F0E9
:1048B0009A01E1CF84E0089582E0089583E00895AD
:1048C00081E0089580E008954091E80042FFDDCF47
:1048D00008950E94D7240E94DF24E0EEF0E080815A
:1048E00081608083E8EDF0E080818F77808319BC60
:1048F000A7EDB0E08C918E7F8C9380818F7E80833A
:1049000010920A0208950F931F93CF93DF930E9492
:10491000D7240E94DF24C8EDD0E088818F77888378
:1049200088818068888388818F7D888319BC1092F4
:104930000B0210920702109209021092080200EE78
:1049400010E0F80180818B7F80838881816088837B
:1049500042E060E080E00E94E223E1EEF0E080814E
:104960008E7F8083E2EEF0E08081816080838081B1
:1049700088608083F80180818E7F80838881806158
:104980008883DF91CF911F910F910895E8EDF0E0BA
:1049900080818F7E8083E7EDF0E08081816080837D
:1049A00084E082BF81E080930A020C948324E8EDC6
:1049B000F0E080818E7F80831092E2000895109253
:1049C000DA001092E10008951F920F920FB60F9235
:1049D00011242F933F934F935F936F937F938F9304
:1049E0009F93AF93BF93EF93FF938091E10082FF7A
:1049F0000BC08091E20082FF07C08091E1008B7FB5
:104A00008093E1000E945A278091DA0080FF1FC046
:104A10008091D80080FF1BC08091DA008E7F809348
:104A2000DA008091D90080FF0DC080E189BD82E16C
:104A300089BD09B400FEFDCF81E080930B020E9486
:104A40003D2105C019BC10920B020E944B218091A0
:104A5000E10080FF19C08091E20080FF15C08091C5
:104A6000E2008E7F8093E2008091E200806180937B
:104A7000E2008091D80080628093D80019BC85E064
:104A800080930B020E944F218091E10084FF30C08F
:104A90008091E20084FF2CC080E189BD82E189BD64
:104AA00009B400FEFDCF8091D8008F7D8093D8009F
:104AB0008091E1008F7E8093E1008091E2008F7E03
:104AC0008093E2008091E20081608093E200809117
:104AD0000702882311F084E007C08091E30087FD7E
:104AE00002C081E001C083E080930B020E9450214C
:104AF0008091E10083FF29C08091E20083FF25C0FF
:104B00008091E100877F8093E10082E080930B0237
:104B1000109207028091E1008E7F8093E1008091E6
:104B2000E2008E7F8093E2008091E20080618093BA
:104B3000E20042E060E080E00E94E2238091F00029
:104B400088608093F0000E944E21FF91EF91BF9109
:104B5000AF919F918F917F916F915F914F913F9115
:104B60002F910F900FBE0F901F9018951F920F92CC
:104B70000FB60F9211242F933F934F935F936F9330
:104B80007F938F939F93AF93BF93CF93DF93EF93D5
:104B9000FF93C091E900CF708091EC00D82FD170C5
:104BA00080FDD0E81092E9008091F000877F80932B
:104BB000F00078940E94FA251092E9008091F000AC
:104BC00088608093F000CD2BCF70C093E900FF91F7
:104BD000EF91DF91CF91BF91AF919F918F917F9195
:104BE0006F915F914F913F912F910F900FBE0F905A
:104BF0001F9018951F93CF93DF93CDB7DEB7AA9779
:104C00000FB6F894DEBF0FBECDBFECE0F2E08091AE
:104C1000F100819322E0E431F207C9F70E9461219B
:104C20008091E80083FF2EC180910C0290910D02CB
:104C3000492F50E04A30510508F024C1FA01EC54E4
:104C4000FF4F0C948A27803821F0823809F01AC16E
:104C500008C08091080290910902992389F082602E
:104C60000FC0809110028F70873008F00BC18093C5
:104C7000E9008091EB0085FB882780F91092E9001C
:104C80009091E800977F9093E8008093F100109254
:104C9000F100D1C0282F2D7F09F0F4C0882319F02E
:104CA000823061F0EFC080910E02813009F0EAC0DD
:104CB000933009F080E0809309022EC080910E02AB
:104CC00081112AC0809110028F702FEF280F26309B
:104CD00008F0D8C08093E9002091EB0020FF1CC0B1
:104CE000933021F48091EB00806214C09091EB002E
:104CF00090619093EB0021E030E0A90102C0440FE5
:104D0000551F8A95E2F74093EA001092EA008091DD
:104D1000EB0088608093EB001092E9008091E8003E
:104D2000877F8093E8000E941724ACC08111AAC03D
:104D300010910E021F778091E3008078812B809381
:104D4000E3008091E800877F8093E8000E941724A9
:104D50008091E80080FFFCCF8091E3008068809321
:104D6000E300111102C082E001C083E080930B02D6
:104D700089C08058823008F085C080910E029091E1
:104D80000F028C3D53E0950779F583E08A838AE230
:104D900089834FB7F894DE01139620E03EE051E29C
:104DA000E32FF0E050935700E49120FF03C0E29519
:104DB000EF703F5FEF708E2F90E0EA3010F0C796F3
:104DC00001C0C0968D939D932F5F243149F74FBF4B
:104DD0008091E800877F8093E8006AE270E0CE016E
:104DE00001960E94232316C0609110027091110257
:104DF000AE014F5F5F4F0E944C22BC01892B09F42A
:104E000041C09091E800977F9093E80089819A8152
:104E10000E9481238091E8008B778093E80032C064
:104E2000803881F58091E800877F8093E800809149
:104E300007028093F1008091E8008E7772CF811194
:104E400021C080910E0290910F0299270297D4F40D
:104E50008091E800877F8093E80080910E02809324
:104E600007020E94172480910702811106C08091D9
:104E7000E30087FD02C081E001C084E080930B0263
:104E80000E9452218091E80083FF0AC08091E800CF
:104E9000877F8093E8008091EB0080628093EB0035
:104EA000AA960FB6F894DEBF0FBECDBFDF91CF91AB
:104EB0001F9108950895CF9380910B028823A1F04C
:104EC000C091E900CF709091EC00892F817090FD26
:104ED00080E8C82B1092E9008091E80083FD0E94D1
:104EE000FA25CF70C093E900CF91089597FB072E64
:104EF00016F4009407D077FD09D00E94902707FC94
:104F000005D03EF4909581959F4F089570956195D9
:104F10007F4F0895EE0FFF1F0590F491E02D099447
:104F2000AA1BBB1B51E107C0AA1FBB1FA617B707CF
:104F300010F0A61BB70B881F991F5A95A9F78095EB
:104F40009095BC01CD010895F999FECF92BD81BD28
:104F5000F89A992780B50895A8E1B0E042E050E0C2
:104F60000C94CC27262FF999FECF92BD81BDF89ADB
:104F7000019700B4021639F01FBA20BD0FB6F8949D
:104F8000FA9AF99A0FBE08950196272F0E94B32727
:104F90000C94B227DC01CB01FC01F999FECF06C0CD
:104FA000F2BDE1BDF89A319600B40D9241505040E7
:084FB000B8F70895F894FFCF53
:104FB80001FFDC012808140A321E6C200A21DF20B8
:104FC800A9206F20013534C697669436323331F7FD
:104FD800F6F50000000000000001020304050607C2
:104FE800080900404D36DE0991095B0907092009C7
:024FF800390975
:00000001FF
