:100000000C94D5070C94280A0C9419080C94190820
:100010000C9419080C9419080C9419080C941908DC
:100020000C9419080C9419080C942B280C94FD2896
:100030000C94E11E0C9419080C9419080C941908DE
:100040000C9419080C9419080C9419080C941908AC
:100050000C9419080C94481F0C9419080C94190856
:100060000C9419080C9419080C9419080C9419088C
:100070000C9419080C9419080C9419080C9419087C
:100080000C9419080C9419080C9419080C9419086C
:100090000C9419080C9419080C9419080C9419085C
:1000A0000C9419080C9419080C9419084C0B510B5A
:1000B000560B5E0B660B6B0B860BCB0BCB0BCB0B7C
:1000C0008B0B930B9B0BA00BA50BAA0BC20CC80CA4
:1000D000CC0CCF0CD30CD70CDB0CDF0CE40CE80CF5
:1000E000EC0CF00CF30CF70CFB0CFF0C030D080DE3
:1000F0006B156B15A515A515E8150A16791779174F
:1001000050167917F716F7166D17791779177417B0
:100110000417041704170417041704170417041707
:1001200004170417041704170417041704170417F7
:10013000161726172D1734173E170D180D182018EF
:10014000201816182018201820180D180D181C1823
:10015000201820181C1862298929772A8929772ACA
:10016000D129F429772A4A2A592A01E301E0014FCB
:10017000024F02E002E30001E301E00150025002FD
:10018000E002E30001E30115021574FF02E374FFCE
:1001900001060206011002100107020701280228C9
:1001A00074FF01130213010C020C01110211010A68
:1001B000020A012C022C01E00119021902E00001DF
:1001C000E30115021502E301060206011002100107
:1001D0000702070128022874FF74FF010C020C01BA
:1001E000130213010602060112021201110211018B
:1001F000090209010C020C010A020A012C022C015D
:1002000038023801040204010F020F010F020F012E
:100210002802280001E30115021574FF02E374FFB0
:100220000106020601100210010702070128022838
:100230000001E0010402040106020602E00001E000
:100240000119021902E00001E00106020602E000C5
:1002500041436C6F7567685061657A404753422D22
:10026000496E63012B4973376623306E245A012B84
:10027000012800750A012B022B010C020C0111024E
:1002800011012B022B01280228012B022B012B022A
:100290002B012B022B010C020C01110211012B026C
:1002A0002B0128022800750A012B022B01120212D1
:1002B00001170217012B022B01280228012B022B08
:1002C000012B022B012B022B011D021D0115021512
:1002D000012B022B0128022800750A012B022B0199
:1002E00012021201130213012B022B012802280112
:1002F0002B022B012B022B012B022B011D021D01B6
:10030000150215012B022B01280228006970636F6A
:100310006E666967202F616C6C004D79646F67634E
:1003200033727269333500750A012702270106020C
:1003300006012B022B012B022B01040204012B02CC
:100340002B00011B021B00750A01E00117021701B7
:100350001902190128022802E0007777772E7375B9
:1003600070706F72742E7865726F782E636F6D0186
:100370002800617061657A40676F746F636F732ED8
:10038000636F6D00750A0104020401070207011082
:100390000210010C020C01110211744B012B022BF3
:1003A000011E021E011E021E011E021E011E021E51
:1003B000012802280001E3012B022B02E3002E009A
:1003C0001E001F002000210022002B4514001A00EF
:1003D0000800150017002840040016000700090057
:1003E0000A00E1001D001B0006001900050029613C
:1003F000E200E30050004F002A0001004B004E00D5
:1004000046000030DD5C2D0027002600250024007A
:1004100023003100130012000C0018001C002800FB
:1004200033000F000E000D000B00350038003700C0
:100430003600100011003400510052004F005000EF
:100440002C0001004D004A004C00DE5C28002E000C
:100450001E001F002000210022002B4514001A005E
:10046000090013000A0028400400150016001700B8
:100470000700E1001D001B000600190005002961AE
:10048000E200E30050004F002A0001004B004E0044
:1004900046000030DD5C2D002700260025002400EA
:1004A0002300310033001C0018000F000D0028004D
:1004B00012000C00080011000B0035003800370056
:1004C000360010000E003400510052004F00500062
:1004D0002C0001004D004A004C00DE5C28002E007C
:1004E0001E001F002000210022002B0034003600D7
:1004F000370013001C0029610400120008001800D6
:100500000C00E100330014000D000E001B002B4511
:10051000E000E200E300DD5C2C002B451E001F0024
:100520002000210022002D002700260025002400A5
:1005300023002D000F00150006000A0009003800F6
:100540001600110017000B00070028401D001900BD
:100550001A00100005004F005200510050005200D8
:100560002A002D001F001F001F001F001F00005C3D
:100570000C300D300E30010001000100010003308D
:10058000023001000F3001000630010001000100BF
:100590000100010001000130010001000100005CC8
:1005A0000100010001000100010001000100010043
:1005B00001000100DD5C010030002F00010001009E
:1005C000010001000A3001000100010001000100EA
:1005D00001000B30520001000100010001004F003A
:1005E000510050000100005C010001000100010009
:1005F00001000100010001000100DE5CDE5C35004D
:100600001E001F0020002100220025001E000330D4
:100610001E001E001E0025001E001E001E001E00E3
:100620001E0025001E001E001E001E001E00005C95
:100630001E001E001E001E0001000100010001003E
:1006400001000100DD5C2D002700260025002400AC
:1006500023000000560023002200210000000000BB
:10066000570020001F001E0000000000000037009F
:10067000270027000000005C000000005500540027
:1006800000000100010001004C00DE5CDE5C450062
:100690003A003B003C003D003E00010020002000ED
:1006A0002000200020000100010052000100010094
:1006B00001000100500051004F00010001002961BC
:1006C000E200E3000357DD5C2A002B451E001F00FB
:1006D000200021002200440043004200410040006D
:1006E0003F000100010001000100010001000100C4
:1006F000520001000100010001004F0051005000B4
:100700000100010001004F00510050003400520070
:100710002C002D00270026002500240023000000C7
:1007200000000000000000000000000000000000C9
:1007300000000000000000000000000000000000B9
:1007400000000000000000000000000000000000A9
:100750000000000000000000000000000000000099
:100CB0000000000000000000000000000000010033
:100CC000DA5CDB5CC15CC45CC35C0100DB5C010022
:100CD0001D5C1E5C135C01001E001E000100010073
:100CE0000100010001000100DA5C010001000100C7
:100CF00001000100010001000100010001000100EC
:100D00000100010001000100005CC75CC85CC55C1B
:100D1000C65C01000100DC5CDA5CDB5C0A5C0100A3
:100D200001000100010001000100010001000100BB
:100D300001000100010001000100010001000100AB
:100D4000010001000100010001000100010000009C
:100D50000000000000002A2B280000000000000016
:100D600000000000000000000029000000002C1E10
:100D70003420212224342627252E362D3738271ECD
:100D80001F202122232425263333362E37381F04F3
:100D900005060708090A0B0C0D0E0F10111213148B
:100DA00015161718191A1B1C1D2F3130232D350449
:100DB00005060708090A0B0C0D0E0F10111213146B
:100DC00015161718191A1B1C1D2F3130354C000031
:100DD0000000000000000000000000000000000013
:100DE0000000000000000000000000000000000102
:100DF00001010101010001010101000000000000EA
:100E000000000000000000000100010001010101DC
:100E100001010101010101010101010101010101C2
:100E200001010101010101010100000001010000B7
:100E300000000000000000000000000000000000B2
:100E40000000000000000000000101010100040397
:100E5000300000000E03440061006300740079005C
:100E60006C000000160343004800200062006F0081
:100E700078004D006F006400730000000403090453
:100E800009025400030100A0FA0904000001030153
:100E9000010009211101000122400007058103081A
:100EA000000A0904010001030102000921110100E7
:100EB00001224D000705820308000A09040200010F
:100EC00003000000092111010001223600070583FB
:100ED0000308000A1201100100000008EDFE603056
:100EE00001000102030105010980A101850216012B
:100EF000002603001A81002A8300751095018100E5
:100F0000C0050C0901A1018503160100269C021AE7
:100F100001002A9C02751095018100C0050109029B
:100F2000A1010901A10005091901290515002501E3
:100F3000950575018102950175038101050109304F
:100F400009311581257F95027508810609381581BB
:100F5000257F950175088106050C0A380215812543
:100F60007F950175088106C0C005010906A101052C
:100F70000719E029E71500250195087501810295FB
:100F8000017508810105081901290595057501916B
:100F9000029501750391010507190029FF15002627
:100FA000FF00950675088100C00011241FBECFEF19
:100FB000DAE0DEBFCDBF04B603FE24C08091580244
:100FC00090915902A0915A02B0915B028730904BE8
:100FD000A740B04BB9F410925802109259021092E7
:100FE0005A0210925B0214BE84B7877F84BF88E1E7
:100FF0000FB6F89480936000109260000FBEE0E09E
:10100000F8E3099511E0A0E0B1E0E6E2F6E502C000
:1010100005900D92A039B107D9F712E0A0E9B1E02F
:1010200001C01D92A835B107E1F70E9457250C9425
:10103000112B0C9400000C94CF0B80912B02836039
:10104000886080932B02ABE6B1E021E030E08D9127
:10105000E82FE295EF70F0E041A18F70B90102C076
:10106000660F771F8A95E2F7CB01962F909549235B
:1010700041A392A1982B92A371E0A137B70739F74A
:10108000A5E6B1E021E030E08D91E82FE295EF7028
:10109000F0E041A18F70B90102C0660F771F8A95F9
:1010A000E2F7CB01962F9095492341A392A1982B6B
:1010B00092A371E0AB36B70739F7559A209AE0E969
:1010C000F1E0ADE9B1E011921D9281E0EC39F80751
:1010D000D1F70C94920E2F923F924F925F926F92A3
:1010E0007F928F929F92AF92BF92CF92DF92EF92B8
:1010F000FF920F931F93CF93DF938091000188237A
:1011000019F000E010E002C006E010E09BE6E92ED6
:1011100091E0F92EA80143565E4F6A01EA01AA2424
:10112000A394B12C6624639434E0732E4E0158804E
:101130001882D7012D917D01E22FE295EF70F0E04A
:1011400081A12F70A50102C0440F551F2A95E2F717
:101150009A01842B81A382A1442E4094842182A3EE
:1011600050EA5A95F1F785E6282E81E0382E80E086
:1011700090E0D1015D911D01652F62956F7070E067
:10118000DB0190966C9178815F70D50102C0AA0F47
:10119000BB1F5A95E2F76A2339F44A2D082E01C085
:1011A000440F0A94EAF701C040E0472B48830196B8
:1011B00086309105F1F681A1842181A382A1822B41
:1011C00082A32196F4018081581659F06092A901FA
:1011D0000E94131F9093AB018093AA018BB18725C6
:1011E0008BB9F1E7EF16F1E0FF0609F09FCF809190
:1011F000A9018823D1F08091AA019091AB010E94AE
:101200001F1F069790F080E090E000571E4FF801F6
:10121000E80FF91FD601A80FB91F2C912083019662
:1012200086309105A1F71092A90181E0DF91CF915D
:101230001F910F91FF90EF90DF90CF90BF90AF90F4
:101240009F908F907F906F905F904F903F902F90E6
:101250000895CF93DF9380910001882319F0C6E0B1
:10126000D0E002C0C0E0D0E00E949A0A009791F45A
:1012700020E030E0C057DE4FF901E255FE4F4081DB
:10128000FE01E20FF31F40832F5F3F4F26303105F1
:1012900099F702C081E090E0DF91CF910895CF935C
:1012A0000E946B08C82F0E942909892BF9F05D98CC
:1012B00090919C019F5F90939C019630D0F080911B
:1012C0000001882319F046E050E002C040E050E001
:1012D00020E030E040575E4FFA01E20FF31F10822A
:1012E0002F5F3F4F26303105B9F703C05D9A10924A
:1012F0009C010E94940E8C2FCF9108950E946B0840
:1013000080910001882319F020E030E002C026E03F
:1013100030E080E090E020573E4FF901E80FF91FE0
:101320004081FC01E255FE4F4083019686309105D5
:10133000A1F70895E82FF0E0E057FE4F808108956F
:101340000895E8EDF0E08081806180838AE18A95EC
:10135000F1F700C08091D900817008958EE090E08F
:101360000E94DB2A91E0811101C090E0909300017E
:101370000E94A109882319F00E941B0A04C00E9440
:101380000A1F0E941F0A789408950E941D080E9457
:101390007E09FDCF0E94AE090E94A109811102C001
:1013A0000E94C5090895509A08955098589A089532
:1013B000589A08951F93CF93DF93C82F0E94D309A3
:1013C00018E0D0E0115088F0CE01012E02C09595B2
:1013D00087950A94E2F780FF03C00E94D80901C0F4
:1013E000589880E88A95F1F7EDCFDF91CF911F9162
:1013F00008950E94D509489BFECF80E88A95F1F7B1
:1014000008950E94D50998E080E029B12170880FE5
:10141000822B20E82A95F1F725E02A95F1F70000C4
:10142000915099F708950E94D309589880E88A95B9
:10143000F1F70C94D8090E94D3090C94D8090E94A2
:10144000D509E89AE9E6F0E080818C7F80830895F1
:101450001F920F920FB60F921124CF92DF92FF923C
:101460000F931F932F933F934F935F936F937F93AC
:101470008F939F93AF93BF93EF93FF93CF93DF939C
:101480001F92CDB7DEB70E94130AC12CD12CF12CCC
:10149000860102551E4FF80180810E94DA090E94E0
:1014A000130AF8018081F80EFFEFCF1ADF0A86E0F9
:1014B000C816D10469F78F2D0E94DA090E94130A19
:1014C000E0E8EA95F1F7F0E4FA95F1F70E94010AF5
:1014D0008093AD010E94130A1091AD010E94010A90
:1014E00089830E94130A0E94D5098981181721F067
:1014F0008091AC01816003C08091AC018E7F8093AC
:10150000AC010F90DF91CF91FF91EF91BF91AF911F
:101510009F918F917F916F915F914F913F912F910B
:101520001F910F91FF90DF90CF900F900FBE0F9003
:101530001F901895CF92DF92FF920F931F93CF9336
:10154000DF931F92CDB7DEB7F8940E94D309589865
:1015500085E08A95F1F700000E94D5090E94D8091C
:10156000E0E8EA95F1F7489934C00E94F909C12CE6
:10157000D12CF12C0E94010A860102551E4FF80160
:1015800080830E94F909F8018081F80EFFEFCF1ADD
:10159000DF0A86E0C816D10469F70E94010A898330
:1015A0000E94F9098981F81214C08091AD010E944E
:1015B000DA090E94F9098091AD010E94DA090E94BE
:1015C000F9090E94D3090E94D809789480E090E03C
:1015D00003C0789481E090E00F90DF91CF911F914C
:1015E0000F91FF90DF90CF9008950C94CE0BFC01EB
:1015F0008081813019F487E492E007C0823019F4C9
:101600008EE392E002C081E392E00C94AB1BFC01FC
:101610008081813019F484E192E007C0823019F4AE
:101620008FEB91E002C084E891E00C94AB1BFC01CD
:101630008081813019F487E791E004C0823021F481
:101640008AE691E00C94AB1B0895FC018081813007
:1016500029F488E30E94AB1388E304C081E30E946D
:10166000AB1381E30C94BA14CF93DF93EC010E9487
:10167000411EBE0180E090E0DF91CF910C943B1CB5
:10168000DC01462F50E04031510508F084C04A5A31
:101690005F4FFA010C94C12A12968C911297811116
:1016A00062C012968C911297811160C012968C9133
:1016B0001297882319F082E793E052C012968C911A
:1016C0001297882319F08AE593E04AC012968C910C
:1016D000129781114EC012969C91129715968C917B
:1016E000992351F0982F92959F7011F080FF53C06D
:1016F00083E00E94961C4FC0982F92959F7011F026
:1017000080FF3AC083E00E94B11C45C012968C91C4
:101710001297811134C012968C911297882319F078
:101720008AE193E01DC012968C911297882319F0DC
:101730008CE093E015C012968C911297811122C013
:1017400012968C911297811120C012968C9112974B
:1017500081111EC012968C918823E9F080E592E0F9
:101760000E941D0E18C085EB93E0089584E893E075
:10177000089587E493E0089582E493E0089587E272
:1017800093E0089589ED92E0089586EA92E0089545
:1017900083E792E0089580E090E008950895089529
:1017A000CF93FB018C3D2CE5920701F140F48A3D7B
:1017B0002CE5920799F08B3D9C4551F03FC08E3D42
:1017C0002CE59207E1F0C0F0803E9C4561F136C007
:1017D000C281CC23A1F181E090E005C0C281CC237D
:1017E00071F182E090E00E94340B23C0C281CC23CF
:1017F00031F184E090E0F7CFC28183E002C0C28182
:1018000084E0CC2341F00E94961C40E164E083E038
:101810000E94800E0EC00E94B11C40E164E083E093
:101820000E94800E0CC0C28180E1CC2321F00E9476
:10183000961CC0E004C00E94B11C01C0C1E08C2F06
:10184000CF91089581E008950C94D00B0E94FB176E
:101850002FEF84E39CE0215080409040E1F700C0EE
:10186000000087E797E790930108809300080C94A5
:101870006E1F0F931F93CF93DF938C01FC01C081E8
:10188000D181CE010E94221DBE010E949E0EEC015C
:10189000B8010E949B11B801CE010E94240C88233C
:1018A00009F46CC1B801CE010E94DC11882309F44F
:1018B00065C1B801CE010E94FF10882309F45EC102
:1018C000C531FCE5DF0729F50E94D51D382FF80149
:1018D00022818091520190915301222371F03A7A32
:1018E00021E009F420E02093B401222311F065E304
:1018F00001C069E20E948B1E09C02091B40122231D
:1019000011F065E301C069E20E948D1E0E94A21DD4
:1019100035C1C6318CE5D80708F0A3C0C130ECE56D
:10192000DE0759F4F8018281882309F427C18091E8
:101930002B02816080932B0221C1C230FCE5DF07BE
:1019400008F478C0F8018281882309F47BC00E94E2
:101950002E1E811102C00E94141E0E94461E90E09D
:1019600090934A0280934902FE01E350FC45E23124
:10197000F10520F4EA59FF4F0C94C12A80914902E5
:10198000816003C0809149028260809349024BC00C
:10199000809149028460F9CF8091490213C08091FF
:1019A00049028061F2CF809149028062EECF80913E
:1019B00049028064EACF809149028068E6CF809135
:1019C000490284608860E1CF809149028E7FDDCF3B
:1019D000809149028D7FD9CF809149028B7FD5CFED
:1019E0008091490213C0809149028F7ECECF8091B1
:1019F00049028F7DCACF809149028F7BC6CF8091EB
:101A000049028F77C2CF809149028B7F877FBDCFFC
:101A10009091490297FB882780F921E0822780FB7B
:101A200097F990934902809149020E944A1E0E94B0
:101A3000FB17A4C0C115DC4561F081E08093B901BA
:101A40008093BA01C801DF91CF911F910F910C943F
:101A5000220CF8018281882309F490C00E94260C90
:101A60008DC0C53DECE5DE0759F5F801828188237C
:101A700061F01092BA010E94131F9093B8018093F5
:101A8000B70180E20E941B1579C08091BA018823BA
:101A900021F080E20E94221571C08091B7019091DF
:101AA000B8010E941F1F8639910598F780E20E94B5
:101AB000221588E20E94AB1388E20E94BA145EC02D
:101AC000C63DFCE5DF0708F044C0C33D8CE5D80700
:101AD00019F5F8018281882351F01092B9010E9412
:101AE000131F9093B6018093B50182E0CBCF809114
:101AF000B90181110FC08091B5019091B6010E948A
:101B00001F1F8639910530F486E20E94AB1386E2EE
:101B10000E94BA1482E0BECFC43DDC4509F08DCFEF
:101B2000F80182818111A5CF8091BA018111B1CFD5
:101B30008091B7019091B8010E941F1F86399105CD
:101B400008F0A7CF87E20E94AB1387E20E94BA1485
:101B5000A0CFC83DFCE5DF0731F4F801828188237E
:101B600069F080E009C0C93DDC4509F066CFF801A5
:101B70008281882319F082E00E94F12580E0DF91C4
:101B8000CF911F910F910895CF93282F30E0F90145
:101B9000E25BF24FC491F901E253F24F2491222308
:101BA00059F081EE0E94AB138C2F0E94AB138C2F47
:101BB0000E94BA1481EE04C08C2F0E94AB138C2FAC
:101BC000CF910C94BA140F931F93CF93DF93EC0132
:101BD000062FFE018491882359F19E012F5F3F4F0C
:101BE000813041F4E901F9011491812F0E94AB1376
:101BF000812F0DC0823031F4E901F90184910E94F6
:101C0000AB130AC0833031F4E901F90184910E94D9
:101C1000BA1402C00E94C40D2196802F8823C9F2F5
:101C2000EFE9FFE03197F1F700C000008150F6CFF7
:101C3000DF91CF911F910F91089560E00C94E30D17
:101C40004F925F926F927F928F929F92AF92BF92CC
:101C5000CF92DF92EF92FF920F931F932B013C01E3
:101C6000C12CD12C7601C394D701C60104C0880FC2
:101C7000991FAA1FBB1F4A95D2F7AC01BD014601AF
:101C8000570104C0880C991CAA1CBB1C2A95D2F7CA
:101C9000482959296A297B29D701C60104C0880F20
:101CA000991FAA1FBB1F0A95D2F76A017B01C420A6
:101CB000D520E620F720C416D506E606F70639F447
:101CC000BC01CD0164297529862997290AC0BC0168
:101CD000CD01609570958095909564217521862140
:101CE00097211F910F91FF90EF90DF90CF90BF90C1
:101CF000AF909F908F907F906F905F904F900895DE
:101D00000F93382F262F6091160270911702809141
:101D1000180290911902042F432F0E94200E0F9158
:101D20000C94761C0C94F50A0E9433120C941B0838
:101D300008950C94980E0C94990E089596E0799F4E
:101D4000F001112498E4899FE00DF11D1124E60FA4
:101D5000F11DEE0FFF1FE254FC4F85919491089501
:101D6000880F991F825B914FFC0185919491089592
:101D7000CF93DF930E949E0E0E945F10EC018115AD
:101D800020E5920708F040C0811530E4930708F081
:101D90001BC1883E910508F5803E910508F08BC176
:101DA000883A910578F4853A910508F09DC0813014
:101DB000910509F480C108F437C18430910508F019
:101DC0007AC132C18D3B910508F499C0803C9105E0
:101DD00008F42AC1805C9109E9C0C11580E2D807E6
:101DE00058F4C11591E0D90708F065C1C03FD1058D
:101DF00008F41AC1D0655FC1C11520E3D20708F00D
:101E0000D9C0CE019F70D2C0811535E5930708F087
:101E100043C0C11584E5D80708F0EDC0C11592E5AF
:101E2000D90708F5C11521E5D20708F0D0C02C2F3D
:101E3000237081E090E002C0880F991F2A95E2F795
:101E40009C689E01E4E036952795EA95E1F72370BA
:101E5000922BCF70C695C69530E2C39FE001112446
:101E6000C82BD92B28C18C2F869586959E0123706F
:101E70003327C115D34508F0AFC090E2899FE00138
:101E8000112481E090E002C0880F991F2A95E2F7A3
:101E9000C82BD92BDC680FC1811529E5920780F486
:101EA000811538E5930708F0ABC0C11586E5D80762
:101EB00008F0BAC0CF71DD27DC2FCC27D062FBC081
:101EC000C1159AE5D90708F4A0C0CE019056811536
:101ED000904208F0A9C08D2F8F710E94DB10DD2782
:101EE000D0628F71D82BE7C0853A910509F49FC065
:101EF000863A910509F49EC0C3E8D0E4DCC0883A74
:101F0000910509F49AC0893A910509F499C08A3A71
:101F1000910509F498C08B3A910509F497C08C3A61
:101F2000910509F496C08B3B910509F495C08C3B53
:101F3000910509F494C08D3A910509F493C0803B52
:101F4000910509F492C08E3A910509F491C08F3A37
:101F5000910509F490C0813B910509F48FC0823B43
:101F6000910509F48EC0833B910509F48DC0843B33
:101F7000910509F48CC0853B910509F48BC0863B23
:101F8000910509F48AC0873B910509F489C0883B13
:101F9000910509F488C0893B910509F487C08A3B03
:101FA000910509F086C0CAE2D6E485C00E94B00E51
:101FB000EC0181C0CE019927D3FF03C0EC01D86C9E
:101FC0007AC0EC01D06C77C0DF70D06A74C0DC2FAF
:101FD000CC27C16FD06A6FC090E2899FE0011124C5
:101FE00081E090E002C0880F991F2A95E2F7C82B84
:101FF000D92BDA6860C0DC2FCC27C46FD06A5BC0F5
:10200000D82FCC27C06FD06A56C08C2F8F70806EAF
:1020100090E0906A34E0D695C7953A95E1F7CF7095
:102020009C013C2BE90147C0C0E0D0E044C0C1E8BE
:10203000D0E441C0C2E8D0E43EC0C2EED4E43BC02C
:10204000C9EED4E438C0CAEED4E435C0C5EBD4E45C
:1020500032C0C6EBD4E42FC0C3EBD4E42CC0C4EB35
:10206000D4E429C0C7EBD4E426C0CCECD4E423C02C
:10207000CDECD4E420C0C3E8D5E41DC0CAE8D5E463
:102080001AC0C2E9D5E417C0C4E9D5E414C0C1E25E
:10209000D6E411C0C3E2D6E40EC0C4E2D6E40BC05D
:1020A000C5E2D6E408C0C6E2D6E405C0C7E2D6E47D
:1020B00002C0C0E0D4E4CE01DF91CF910895823810
:1020C000910549F1B0F48133910509F459C048F400
:1020D0008932910509F44FC08A32910509F455C03F
:1020E00008958533910509F441C08933910599F02C
:1020F0000895833E910531F138F4803E910591F0C9
:10210000823E9105A9F00895863E910501F1873E32
:10211000910539F108952091490220FD3BC021FD30
:1021200039C008958091490280FF34C089E341C0DD
:102130008091490282FF32C08091490284FF2CC005
:1021400080E037C08091490282FD28C0F5CF8091A0
:10215000490283FF25C08091490284FDF1CF87EEBB
:1021600028C08091490283FD1BC0F5CF80914902B0
:1021700085FF18C019C08091490285FF15C012C0A3
:102180008091490286FF12C013C08091490286FFE8
:102190000FC00CC080EE0DC083EE0BC082EE09C0F4
:1021A00086EE07C085E305C089E203C081E301C074
:1021B0008AE290E008959091490292FF0DC0282F85
:1021C0002871283019F4877F846006C0282F247175
:1021D000243011F48B7F886093FF0DC0282F287165
:1021E000283119F4877E846106C0282F2471243198
:1021F00011F48B7E886194FD877E08950895CF93B6
:10220000DF93EC01FB018281811102C081E040C0BB
:102210008091C801811125C0C631DC45B9F70E9403
:10222000FE1081E08093C8010E94131F9093C701A4
:102230008093C6011092BB011092BD011092BC01A7
:102240001092BF011092BE011092C1011092C00104
:102250001092C3011092C2011092C5011092C401E4
:1022600016C08091C6019091C7010E941F1F8C3239
:10227000914060F68091BB01E82FF0E0EE0FFF1F68
:10228000E454FE4FD183C0838F5F8093BB0180E015
:10229000DF91CF910895CF93DF93EC018F8581116A
:1022A00015C081E08F878F810E94D81D88850E948C
:1022B000EB1D0E94A21DEA81FB816A897B89CE0108
:1022C0000696309719F0DF91CF910994DF91CF9165
:1022D00008950F931F93CF93DF938C01FC018085AA
:1022E000811124C083819481975524E1289FE001C6
:1022F000299FD00D1124CF5FDE4FEC81FD816A89CB
:102300007B89CE010696309709F009958F810E944E
:10231000DE1D88850E94F11D0E94A21DF801108219
:10232000178211861092CA011092C901DF91CF91D4
:102330001F910F910895DF92EF92FF920F931F93D9
:10234000CF93DF937C01FB018281882369F1809127
:1023500051018F3F49F1C7E0D1E000E010E0DD24FA
:10236000D39480915101992787FD9095801791070B
:10237000DCF0CE0106972881222391F02B813C814D
:10238000E216F30639F42091C9013091CA01E21630
:10239000F30631F0DF820E944B11CE010E946911D9
:1023A0000F5F1F4F6496DDCFDF91CF911F910F918B
:1023B000FF90EF90DF900895FF920F931F93CF93BC
:1023C000DF938C019C0137552F3F310511F008F048
:1023D00043C080915101992787FD909582179307FB
:1023E00014F42093510184E1829FE001839FD00D7A
:1023F0001124CF5FDE4FFB0182818E8792818E8117
:10240000992309F11A8709878F5F8E830E94131F12
:102410009C878B870E94111E8F830E94D51DF82EEA
:1024200088870E94E81D8F298887E881F9816A8959
:102430007B89CE010696309709F009951093CA0161
:102440000093C90109C0882339F08F85882321F0C2
:10245000CE0106960E94691181E0DF91CF911F9114
:102460000F91FF900895EF92FF920F931F93CF93D8
:10247000DF93809151018F3F71F1F12C84E1E82EBF
:102480008F2D90E020915101332727FD309528179B
:1024900039070CF1E89EE001E99ED00D1124CF5FD1
:1024A000DE4F088919890115110511F406E910E0BC
:1024B0008E81882371F08B859C850E941F1F0817D1
:1024C000190738F4CE010E944B11CE0106960E94E6
:1024D0006911F394D5CFDF91CF911F910F91FF90A8
:1024E000EF9008959093D0018093CF010895E091EB
:1024F000CF01F091D001309721F00190F081E02DD3
:10250000099480E00895E091CF01F091D0013097D7
:1025100021F00280F381E02D09940895E091CF012C
:10252000F091D001309721F00480F581E02D0994DD
:1025300008952091CD013091CE018217930771F05B
:102540009093CE018093CD01E091CF01F091D00125
:10255000309721F00680F781E02D099408952091AD
:10256000CB013091CC018217930771F09093CC018D
:102570008093CB01E091CF01F091D001309721F011
:102580000084F185E02D099408950C94CA0981E036
:1025900008950E940A1F0E941D080C94801FCF926C
:1025A000DF92EF92FF920F931F93CF93DF93CDB7FC
:1025B000DEB72B970FB6F894DEBF0FBECDBF0E94DB
:1025C0004F090E94C712811111C08FEF89838A833E
:1025D0001B820E94131F8160782F9D838C83498109
:1025E0005A816B818D810E94771356C032EDE32EA4
:1025F00031E0F32E00E010E0C02E802F0E949A09F7
:10260000F701D1907F01D82631F40F5F1F4F0C30B6
:10261000110591F7DACF90912B0291FF04C08B87BF
:102620000E94A0098B8520E030E04D2D50E0922FD4
:10263000BA01022E02C0759567950A94E2F760FF11
:1026400025C02E83CF82EE24E394F12C02C0EE0C41
:10265000FF1C9A95E2F790E08E219F2121E0892BC3
:1026600009F420E028870E94131F8160782F9A8741
:1026700089874E815F8168858A850E947713F8017A
:10268000EE52FE4F80818E25808306C02F5F3F4F24
:102690002630310561F6B9CF0E9412211091D10187
:1026A0000E9477121817A1F00E9477128093D1012F
:1026B0002B960FB6F894DEBF0FBECDBFDF91CF9142
:1026C0001F910F91FF90EF90DF90CF900C949B0E95
:1026D0002B960FB6F894DEBF0FBECDBFDF91CF9122
:1026E0001F910F91FF90EF90DF90CF900895CF93BF
:1026F000DF93CDB7DEB72B970FB6F894DEBF0FBED2
:10270000CDBF4F83588769877A878B87DE01119603
:1027100086E0FD0111928A95E9F785E0FE01379682
:1027200001900D928A95E1F749815A816B817C81F4
:102730008D819E810E94FE1A2B960FB6F894DEBF03
:102740000FBECDBFDF91CF910895FC0180819181B3
:102750000E94621D0895CF93DF931F92CDB7DEB71D
:10276000682F882309F402C18238C1F40E947712CD
:1027700081FDFCC069E380915201909153010E9458
:102780008B1E0E94A21D2FEF81EE94E0215080400D
:102790009040E1F700C0000069E319C0833811F5EB
:1027A0000E94771280FDE2C063E580915201909112
:1027B00053010E948B1E0E94A21DEFEFF1EE24E058
:1027C000E150F0402040E1F700C0000063E5809157
:1027D0005201909153010E948D1E0F90DF91CF9175
:1027E0000C94A21D8438C1F40E94771282FDBEC0F1
:1027F00067E480915201909153010E948B1E0E94C8
:10280000A21D8FEF91EEE4E081509040E040E1F7AF
:1028100000C0000067E4DBCF8CEF860F813A70F4D4
:10282000862F69830E941E23698181119FC0809138
:102830005201909153010E948B1ECFCF80E2860FF0
:10284000883048F4677081E001C0880F6A95EAF724
:102850000E94D81DC2CF8BE5860F833088F4653A7D
:1028600029F0663A31F482E890E005C081E890E012
:1028700002C083E890E00F90DF91CF910C94991201
:1028800088E5860F853108F071C0683A61F1693AD0
:1028900069F16A3A71F16B3A79F16C3A81F16B3B0B
:1028A00089F16C3B91F16D3A99F1603BA1F16E3A7F
:1028B000A9F16F3AB1F1613BB9F1623BC1F1633B00
:1028C000C9F1643BD1F1653BD9F1663BE1F1673B6E
:1028D000E9F1683BF1F1693BF9F16A3B09F03FC06E
:1028E0008AE292E03EC082EE90E03BC089EE90E04A
:1028F00038C08AEE90E035C085EB90E032C086EBC0
:1029000090E02FC083EB90E02CC084EB90E029C0D6
:1029100087EB90E026C08CEC90E023C08DEC90E03B
:1029200020C083E891E01DC08AE891E01AC082E9E6
:1029300091E017C084E991E014C081E292E011C0F7
:1029400083E292E00EC084E292E00BC085E292E066
:1029500008C086E292E005C087E292E002C080E013
:1029600090E00F90DF91CF910C94AF120F90DF9118
:10297000CF910895882309F45DC0823879F40E94CC
:10298000771281FF57C069E3809152019091530102
:102990000E948B1E0E94A21D69E310C08338B1F40F
:1029A0000E94771280FF46C063E5809152019091AA
:1029B00053010E948B1E0E94A21D63E5809152016B
:1029C000909153010E948D1E0C94A21D843879F4BD
:1029D0000E94771282FF2EC067E48091520190918D
:1029E00053010E948B1E0E94A21D67E4E7CF9CEF5B
:1029F000980F913A10F4682FE1CF90E2980F983039
:102A000050F4877091E001C0990F8A95EAF7892FF9
:102A10000E94DE1DD9CF9BE5980F933020F480E013
:102A200090E00C949912885A853120F480E090E06F
:102A30000C94AF120895882321F00E94D81D0C94A5
:102A4000A21D0895882321F00E94DE1D0C94A21D72
:102A500008958F929F92BF92CF92DF92EF92FF9252
:102A60000F931F93CF93DF9300D0CDB7DEB74C0108
:102A7000472FFC01C580C2949FE0C922D280DD208F
:102A800031F079836A830E94F81D6A814981498304
:102A90006A830E949B1D49816A81882389F0DD2019
:102AA00079F080E2860F883058F082E00E94841D21
:102AB0000E949B1DBB24B394B82649816A8101C042
:102AC000B12CE42EE2948FE0E822F12CF701E858D3
:102AD000FF4F0C94C12A842F807F142F1F708823EE
:102AE00011F01295107FDD20C1F0112309F4E0C12F
:102AF00080E2860F883010F0611105C0812F6A8353
:102B00000E94D81D04C0812F6A830E94EB1D6A8138
:102B10006A830E94A21D6A81CBC1862F6A830E94AC
:102B2000BA146A81112309F4E4C180E2860F883067
:102B300010F0611104C0812F0E94DE1D03C0812F9F
:102B40000E94F11D0E94A21DD4C1842F807F142FEA
:102B50001F70803211F01295107F662319F06130DA
:102B6000D9F026C0DD2079F0CC2049F0F1E0CF1279
:102B700006C00E94111E812B0E940B1EBAC10E942A
:102B8000111E812B4AC1CC2021F021E0C21609F48C
:102B9000B0C10E940E1E46C1DD2029F085E08C15D3
:102BA00008F4A7C139C194E09C1508F4A2C13AC148
:102BB000DD2051F0CC2009F42FC1F401858180FF84
:102BC00077C18F70858328C1CC2009F42BC181C1C6
:102BD000242F26952695237030E02115310521F00C
:102BE0002130310561F085C1DD2021F0862F942F41
:102BF000937002C080E090E00E9499128AC1DD20AB
:102C000021F0862F942F937002C080E090E00E9404
:102C1000AF127FC1DD20F9F0653F51F0663F71F0E2
:102C2000643FA9F4809143029091440281600BC0FB
:102C30008091430290914402826005C080914302DA
:102C40009091440284609093440280934302862FC3
:102C50000E941A2022C0653F51F0663F91F0643F08
:102C6000C9F480914302909144028E7F05C0809107
:102C70004302909144028D7F9093440280934302DB
:102C800009C020914302309144022B7F30934402CB
:102C900020934302862F0E9482200E94072139C17F
:102CA000842F837009F04EC0D1102FC1262F22959A
:102CB00026952770220F220F862F8F70C82ED12CB9
:102CC000E12CF12C022E04C0CC0CDD1CEE1CFF1CF0
:102CD0000A94D2F764FF10C06FE070E080E090E0EB
:102CE00004C0660F771F881F991F2A95D2F7609539
:102CF00070958095909503C060E070E0CB01242F23
:102D000026952695237030E02230310569F0233076
:102D1000310589F06C297D298E299F2921303105C3
:102D200071F00E944F1CF1C06C297D298E299F29CA
:102D30000E94611CEAC00E944F1CC701B6010E949C
:102D40003D1CE3C0DD2019F0842F817001C0869501
:102D5000882309F4DAC0262F229526952770220FA2
:102D6000220F862F8F70C82ED12CE12CF12C022E31
:102D700004C0CC0CDD1CEE1CFF1C0A94D2F764FFCF
:102D800010C06FE070E080E090E004C0660F771F35
:102D9000881F991F2A95D2F7609570958095909518
:102DA00003C060E070E0CB01242F269526952370A8
:102DB00030E02230310569F02330310589F06C298B
:102DC0007D298E299F292130310571F00E94FD1C3B
:102DD0009CC06C297D298E299F290E940F1D95C0BA
:102DE0000E94FD1CC701B6010E94EB1C8EC0062F7D
:102DF00010E0F801E05EF109E531F10508F054C09A
:102E0000E857FF4F0C94C12A162F1F70842F8F7123
:102E1000DD2031F00E94961C812F0E941B1569C095
:102E20000E94B11C812F0E94221563C0DD2049F051
:102E3000F4E0FC1508F45DC0842F8F710E94D01C53
:102E400058C025E02C1508F454C0F6CFDD2039F029
:102E5000842F8F710E94961C4CC0DD20C9F3842FF3
:102E60008F710E94B11C45C0DD2029F0842F8F7125
:102E70000E94871C3EC00E94821C3BC0DD2051F096
:102E8000142F1F71812F0E94961C63E0812F0E94D6
:102E90007B1D2FC081E00E94841D81E08C1548F5C8
:102EA00082E00E94841D25C0DD2031F0CC2081F21B
:102EB000862F0E94AB131DC0CC2089F2693349F4E0
:102EC0009FEFE7EEF3E09150E040F040E1F700C003
:102ED0000000862F0E94BA140CC04F70C4010E94DB
:102EE000400B0E94AB1B15C04F70C4010E949D0E89
:102EF00010C028E0E216F10441F05CF09AE0E91A13
:102F0000F108E2E0EE16F10420F40E9477120E942C
:102F10009B0EBB20F1F00E94771D80FD1AC0F401CA
:102F200012820E94711D0E94961CC4010E94B71754
:102F30000E94711D0F900F90DF91CF911F910F9103
:102F4000FF90EF90DF90CF90BF909F908F900C9468
:102F5000B11C0F900F90DF91CF911F910F91FF90B7
:102F6000EF90DF90CF90BF909F908F9008950F9338
:102F70001F93CF93DF93EC01288139818B819C8152
:102F8000892B31F03F3F11F080E003C02F3FE1F784
:102F900081E0811113C0CE010E94390C882371F0A9
:102FA000688179818A810E946D1D8C010E94211D9A
:102FB0000E943A1CB801CE010E942915DF91CF91E1
:102FC0001F910F9108950E94F81D0E94081E809184
:102FD0005201909153010E948F1E0E94A21D0E94D7
:102FE0009B210E94072180E090E00E94991280E0DE
:102FF00090E00C94AF120E94E51D0C94E3170E9420
:10300000621DE92FE295EF70F0E03297EE30F105A6
:10301000B8F4E356FF4F0C94C12A803F59F018F4DE
:10302000803E70F407C0843F59F404C0803E10F025
:10303000813F31F481E0089593FB882780F908955A
:1030400080E00895CF93DF9300D000D01F92CDB7DA
:10305000DEB70F900F900F900F900F90DF91CF91F0
:103060000895CF93DF9300D000D000D0CDB7DEB766
:1030700026960FB6F894DEBF0FBECDBFDF91CF917D
:1030800008951F93CF93DF93C091DE0116E08091E6
:10309000DF01C81799F0D0E01C9FF0011D9FF00DD3
:1030A0001124E052FE4F40815181628173818481FD
:1030B00095810E9431182196C770E9CFDF91CF9199
:1030C0001F910895409110025091110260911202D7
:1030D0007091130280911402909115020C94311892
:1030E0002091DE019091DF0156E02917A9F030E030
:1030F000529FF001539FF00D1124E052FE4F718159
:10310000671306C07081871303C07281471306C01E
:103110002F5F3F4F2770E9CF80E0089581E0089549
:10312000CF938091150282958F7009F05FC08091D6
:103130001202882309F45AC02091DE01A091DF0118
:10314000609110027091110280911302909114020B
:1031500031E06F3F09F030E0B32FC6E02A1709F4E1
:1031600045C0009721F07F3F21F44B2F03C041E081
:1031700001C040E030E040FD35C0C29FF001C39F78
:10318000F00D1124E052FE4F418174132BC0408199
:10319000641328C04281411125C0438154814817DE
:1031A000590710F441505109481B590B4639510534
:1031B000C8F4809115028F7080618093150286E0BB
:1031C000829FF001839FF00D1124EB51FE4F80810F
:1031D0008F708061808380E192E00E94B717CF9169
:1031E0000C9441182F5F3F4F2770B8CFCF910895AF
:1031F000BF92CF92DF92EF92FF920F931F93CF93E4
:10320000DF93CDB7DEB762970FB6F894DEBF0FBE7F
:10321000CDBF8C0185E0F801DE011D9601900D9275
:103220008A95E1F7D801CC9011965C91119712968E
:10323000BC9012971396ED90FC9014978091100219
:103240009091110220911302309114022115310541
:1032500031F09F3F31F441E08F3F19F403C041E06A
:1032600001C040E040FD9CC1D0901202DD2009F475
:1032700024C140911502E216F30628F0F701E21B83
:10328000F30B9F0104C0209530952E0D3F1D26396C
:10329000310508F0C5C0242F207F09F087C09513A1
:1032A00015C08C1113C0DB2CB11010C04F704061E1
:1032B000409315020E94621880E192E00E94B717C5
:1032C00080911502D80115968C9387C1E114F10401
:1032D00039F05F3F39F481E0BFEFCB1203C003C088
:1032E00081E001C080E080FD03C081E08B2501C04A
:1032F00080E080FF09C04B2D652F8C2D5A8B0E94DA
:1033000070185A89811197C0EF2839F05F3F39F45E
:1033100081E0BFEFCB1203C003C081E001C080E0B9
:1033200080FD03C081E08B2501C080E0E82FE170C3
:10333000FE2E80FF31C04B2D652F8C2D5A8B0E94A5
:103340007018D82E5A89811127C0CD865E878D8549
:103350009E850E94621D292F22952F7030E0223019
:10336000310524F02430310534F011C09F7059F03C
:10337000811109C032C19F7031F0D80115969C911E
:10338000907F09F42AC1805E883008F426C1C80104
:103390000E94B717DF2C21C1DB2CBB2009F41DC113
:1033A0008091150281608093150252C0951307C069
:1033B0008C1105C0B11003C0F8014583ABC0CD86A8
:1033C0005E878D859E850E94FF17882319F1DB2C6F
:1033D000BB2001F120911502822F82958F7090E021
:1033E00002970CF461C080911002909111029887AD
:1033F0008F831986FB86EA862C87CE01079652C0FA
:10340000951741F1CD865E878D859E850E94FF17B9
:10341000811131C0C8010E94B717DD24D394DDC0EB
:10342000242F207F69F77E2DF98AE88A4C2D6B2D99
:1034300089890E94221880E192E00E94B717E0E19A
:10344000F2E086E0DF011D928A95E9F70E9462189A
:10345000D12CC3C08C11D6CFB110D4CFF801458385
:10346000C8010E94B717E0E1F2E086E0DF011D929B
:103470008A95E9F7B2C0DB2CBB2061F220911502DE
:10348000822F82958F7090E0029774F080911002E5
:10349000909111029A8389831B82FD82EC822E8394
:1034A000CE0101960E94B71786E0F801A0E1B2E0D4
:1034B00001900D928A95E1F78CC0E216F30628F090
:1034C000F701E21BF30B9F0104C0209530952E0DF0
:1034D0003F1D2639310508F053C0DB2CBB2009F411
:1034E00099CF95132CC08C112AC08091150280FDB4
:1034F0001DC0982F92959F70C9F0D80115968C9396
:1035000015979F3039F09F5F9295907F8F70892B30
:1035100015968C93C8010E94B71786E0F801A0E1C8
:10352000B2E001900D928A95E1F755C086E0F8016E
:10353000A0E1B2E001900D928A95E1F74EC0CD86F0
:103540005E878D859E850E94FF17882381F096E017
:10355000F801A0E1B2E001900D929A95E1F78A8B13
:103560000E9490180E9462188A89D82E36C08091D5
:103570001502816080931502C8010E94B7172DC003
:103580007E2DF98AE88A4C2D6B2D89890E9422189C
:10359000E0E1F2E086E0DF011D928A95E9F71BC0C9
:1035A000BB2009F437CFCD865E878D859E850E942E
:1035B000FF17D82E882309F42DCF86E0F801A0E16B
:1035C000B2E001900D928A95E1F780E192E00E94CD
:1035D000A5130E9490180E9462188D2D62960FB656
:1035E000F894DEBF0FBECDBFDF91CF911F910F9139
:1035F000FF90EF90DF90CF90BF9008951F93CF93EF
:10360000DF93CDB7DEB72C970FB6F894DEBF0FBEB1
:10361000CDBF4F83588769877A878B879C87CE0178
:1036200007960E94F8188823C1F02F8138858A8573
:103630009B85892B31F03F3F11F080E003C02F3F85
:10364000E1F781E0811147C04F81588569857A850E
:103650008B859C850E9431183EC086E0FE0137961E
:10366000DE01119601900D928A95E1F7FF81E885C0
:103670004A855B854115510531F0EF3F31F481E01A
:10368000FF3F19F403C081E001C080E080FD23C04A
:103690002091DF0130E0C901019687709927609180
:1036A000DE0170E086179707F1F1F983EA835D8305
:1036B0004C8396E0929FD001939FB00D1124A052AD
:1036C000BE4FFE01319601900D929A95E1F78093DD
:1036D000DF010E94411816E08091DE019091DF0128
:1036E000891779F1189FC001112480529E4F0E94C2
:1036F000F818882331F1E091DE011E9FF0011124BA
:10370000E052FE4F408151816281738184819581B5
:103710000E9431188091DE0190E001968770992710
:103720008093DE01D9CF0E94FB171092DF01109227
:10373000DE01E0E1F2E086E0DF011D928A95E9F723
:10374000CACF2C960FB6F894DEBF0FBECDBFDF9167
:10375000CF911F910895EF92FF920F931F93CF93F4
:10376000DF939C01009709F471C0F12CEE24E394DF
:10377000E9012196F9018491843740F4843008F0FE
:1037800056C0813081F0823021F160C0853709F464
:1037900049C0C0F19CE7980F903708F057C08F7769
:1037A0000E94BA1446C089010E5F1F4FFE0184912A
:1037B00090E2980F983050F48770FE2D01C0FF0FF3
:1037C0008A95EAF78F2F0E94FB1D15C00E94AB134C
:1037D00014C089010E5F1F4FFE01849190E2980F83
:1037E000983068F48770FE2D01C0FF0F8A95EAF7C4
:1037F0008F2F0E94011E0E94A21DE8011AC00E9484
:10380000BA14FBCF2E5F3F4FFE01C491CC2341F091
:103810008FE99FE00197F1F700C00000C150F6CF9B
:10382000E90107C0FE01F490E901229602C00E945E
:10383000AB138F2D882341F0EFE9FFE03197F1F7CB
:1038400000C000008150F6CF9E0192CFDF91CF9152
:103850001F910F91FF90EF90089508950E942D1CE5
:1038600060931A0270931B0280931C0290931D02B6
:103870000C94E31708950C942E1C0F931F93009142
:103880001A0210911B0220911C0230911D02602B24
:10389000712B822B932B1F910F910C942E1C0F9345
:1038A0001F9300911A0210911B0220911C0230916B
:1038B0001D0260237123822393231F910F910C9487
:1038C0002E1C0F931F9300911A0210911B0220913E
:1038D0001C0230911D0260277127822793271F91B8
:1038E0000F910C942E1C08950C94731C0E94741C50
:1038F0006093160270931702809318029093190236
:103900000C94E31760E070E0CB010C94761C41E06E
:1039100050E060E070E004C0440F551F661F771F41
:103920008A95D2F7CB01BA010C94761C41E050E0A5
:1039300060E070E004C0440F551F661F771F8A9532
:10394000D2F78091160290911702A0911802B091BF
:103950001902482B592B6A2B7B2BCB01BA010C94F3
:10396000761C41E050E060E070E004C0440F551F59
:10397000661F771F8A95D2F7409550956095709590
:103980008091160290911702A0911802B09119022D
:10399000482359236A237B23CB01BA010C94761C5C
:1039A00041E050E060E070E004C0440F551F661F26
:1039B000771F8A95D2F78091160290911702A091F5
:1039C0001802B0911902482759276A277B27CB0193
:1039D000BA010C94761C0F931F930091160210915C
:1039E00017022091180230911902602B712B822B43
:1039F000932B1F910F910C94761C0F931F930091A2
:103A000016021091170220911802309119026023BA
:103A10007123822393231F910F910C94761C0F9393
:103A20001F930091160210911702209118023091F5
:103A3000190260277127822793271F910F910C94F9
:103A4000761C0895CF92DF92EF92FF920F931F930F
:103A5000CF93DF93EC01C0901A02D0901B02E0904C
:103A60001C02F0901D028091160290911702A09105
:103A70001802B0911902C82AD92AEA2AFB2A0FE1B2
:103A800010E0B701A601002E04C076956795579502
:103A900047950A94D2F740FD05C00150110988F7F7
:103AA00080E007C0BE01802F0E94B80E0197A9F3E5
:103AB000802FDF91CF911F910F91FF90EF90DF90BA
:103AC000CF900895CF93DF93EC010E94221DBE0199
:103AD0000E94B80EDF91CF910895CB010E94621D24
:103AE000089580911E02859585958595089580910C
:103AF0001E028770089598E0899F90011124622B1F
:103B000060931E020C94961C40911E0280958423A3
:103B100080931E02982F977069F450E0282F332766
:103B200027FD30954217530729F085958595859592
:103B30000C94B11C089590911E02977081E009F4D5
:103B400080E00895E0915201F091530180912A02A2
:103B50008083E0915201F09153018081909129027C
:103B6000892B8083E0915201F091530180819091E3
:103B70002802892B808390911F02992381F0E09184
:103B80005201F09153018081892B808380915201F1
:103B9000909153010E944F1E811110921F0280913B
:103BA0005201909153010C94831280912A0208953E
:103BB00090912A02982B90932A02089580959091D3
:103BC0002A02982390932A02089510922A020895B7
:103BD00080912902089590912902982B90932902AF
:103BE0000895809590912902982390932902089531
:103BF00010922902089590912802982B9093280200
:103C00000895809590912802982390932802089512
:103C100010922802089580931F02089510921F02A7
:103C2000089580911F0208956DEE7EEF80E090E090
:103C30000E94FB2A60E082E090E00E94E92A60E0B6
:103C400083E090E00E94E92A60E084E090E00E9436
:103C5000E92A60E085E090E00C94E92A80E090E0B9
:103C60000E94E32A21E08D3E9E4F09F020E0822F42
:103C7000089582E090E00C94DB2A83E090E00C94BD
:103C8000DB2A682F83E090E00C94E92A84E090E03E
:103C90000C94DB2A682F84E090E00C94E92A20E061
:103CA00030E040E0FC01E20FF31F518151114F5F02
:103CB0002F5F3F4F27303105A9F7842F089520E06B
:103CC00030E04FEFFC01E20FF31F5281561799F0DD
:103CD0004F3F19F4511101C0422F2F5F3F4F263043
:103CE000310581F74F3F39F0FC01E40FF11D47FD2D
:103CF000FA9562830895089520E030E0FC01E20F18
:103D0000F31F4281461301C012822F5F3F4F2630BE
:103D10003105A1F708950C945F1E0C947C1E20E0E1
:103D200030E0FC01E20FF31F11822F5F3F4F27307D
:103D30003105B9F7089580914F02843021F1109236
:103D40002C0220E488E190E00FB6F894A8958093C7
:103D500060000FBE2093600080E00E949B0E83B73E
:103D6000817F846083BF83B7816083BF78948895A7
:103D700083B78E7F83BF88E10FB6F894809360008D
:103D8000109260000FBE089508950895CF930E9489
:103D9000C41E0E944F090E94C51EC0E08C2F0E94C5
:103DA0009A09811105C0CF5FCC30C1F780E001C016
:103DB00081E0CF9108950E94FB170E9477120C9426
:103DC0009B0E1F920F920FB60F9211248F939F9309
:103DD000AF93BF9380912C02811113C08091450253
:103DE00090914602A0914702B09148024196A11DD0
:103DF000B11D8093450290934602A0934702B09371
:103E00004802BF91AF919F918F910F900FBE0F907D
:103E10001F90189582E084BD93E095BD9AEF97BD01
:103E200080936E0008952FB7F89480914502909189
:103E30004602A0914702B09148022FBF0895CF9249
:103E4000DF92EF92FF920F931F932FB7F894409158
:103E500045025091460260914702709148022FBF7F
:103E60006A017B01EE24FF248C0120E030E0C016C3
:103E7000D106E206F30610F441505109481B590BD4
:103E8000CA011F910F91FF90EF90DF90CF9008959E
:103E900078941F920F920FB60F9211248F939F93D5
:103EA000AF93BF938091450290914602A091470243
:103EB000B09148020196A11DB11D809345029093D7
:103EC0004602A0934702B0934802BF91AF919F91E1
:103ED0008F910F900FBE0F901F90189587E797E76F
:103EE00090930108809300082AE088E190E00FB6E3
:103EF000F894A895809360000FBE20936000FFCFD8
:103F00000E942E1E811102C00E94141E0E94391EA2
:103F100080932B020E94461E90E090934A02809369
:103F200049020E943D1E682F70E080E090E00C94F2
:103F30003B1C80912F0280FF0BC06091570185E0F0
:103F4000689FB001112475956795759567952AC08E
:103F500081FF09C06091570185E0689FB00111247D
:103F6000759567951FC082FF07C06091570185E076
:103F7000689FB001112416C0409130024423C9F05B
:103F800060915601461788F72091570185E0289FD8
:103F900090011124429FC001439F900D112470E0B5
:103FA0000E94AD2A6038710540F46115710539F041
:103FB00002C065E070E0862F08958FE7089581E0E4
:103FC000089580912F0280FF08C06091550170E034
:103FD000759567957595679521C081FF06C06091BD
:103FE000550170E07595679519C082FF04C0609116
:103FF000550170E010C0809130028823C1F06091BB
:1040000054018617A0F790915501989FC001112483
:1040100070E00E94AD2A6038710528F461157105C1
:1040200021F0862F08958FE7089581E0089561E0DB
:1040300070E0F4CF803F21F40E94991F819504C065
:10404000813F29F40E94991F809333020895823F93
:1040500021F40E94991F819504C0833F29F40E9496
:10406000991F809332020895893F19F40E94E11F3D
:1040700005C08A3F31F40E94E11F8195809334028C
:1040800008958B3F21F40E94E11F819504C08C3F6D
:1040900029F40E94E11F809335020895843F21F4A2
:1040A00080913102816017C0853F21F480913102F7
:1040B000826011C0863F21F48091310284600BC080
:1040C000873F21F480913102886005C0883F31F438
:1040D0008091310280618093310208958D3F21F4F7
:1040E00080912F0281600BC08E3F21F480912F02BE
:1040F000826005C08F3F29F480912F0284608093F5
:104100002F020895803F39F48091330287FF6CC0FD
:104110001092330269C0813F29F48091330218164E
:10412000BCF362C090913202823F29F497FF5CC0D9
:104130001092320259C0833F19F41916CCF354C0BF
:10414000893F41F48091340218160CF04DC0109252
:1041500034024AC08A3F29F48091340287FF44C068
:10416000F6CF8B3F39F48091350287FF3DC0109226
:1041700035023AC08C3F29F4809135021816BCF301
:1041800033C0843F21F4809131028E7F17C0853F78
:1041900021F4809131028D7F11C0863F21F48091FE
:1041A00031028B7F0BC0873F21F480913102877FE2
:1041B00005C0883F31F4809131028F7E80933102B7
:1041C00013C08D3F21F480912F028E7F0BC08E3F54
:1041D00021F480912F028D7F05C08F3F29F48091BB
:1041E0002F028B7F80932F028091320281110EC0AB
:1041F0008091330281110AC080913402811106C07E
:1042000080913502811102C010923002089581E33D
:1042100092E00E948E120E94131F90932E028093B0
:104220002D0208951F93CF93DF9380912D029091DB
:104230002E020E941F1F40913002442321F0209142
:10424000580130E006C0209159015AE0259F9001A5
:1042500011248217930708F46AC0809132021091EA
:104260003302D0913402C0913502811107C011117F
:1042700005C0D11103C0CC2309F459C04F3F19F038
:104280004F5F40933002181624F40E94991F8093C8
:1042900032028091320287FF05C00E94991F8195EA
:1042A00080933202111624F40E94991F80933302E6
:1042B0008091330287FF05C00E94991F81958093EA
:1042C000330220913202222379F0409133024423B9
:1042D00059F055EB25039001112430933202450328
:1042E000C0011124909333021D1624F40E94E11F93
:1042F000809334028091340287FF05C00E94E11F41
:104300008195809334021C1624F40E94E11F80934F
:1043100035028091350287FF05C00E94E11F81951B
:1043200080933502DF91CF911F910C940721DF918B
:10433000CF911F910895E1E3F2E085E0DF011D9246
:104340008A95E9F71092300210922F020895833077
:1043500081F128F4813059F08230D1F00895853010
:1043600009F449C0B8F1863009F456C00895209187
:104370005901862F90E0820F911D8F3F910520F407
:10438000620F6093590108958FEF8093590108954A
:1043900020915801862F90E0820F911D8F3F91054B
:1043A00020F4620F6093580108958FEF80935801B5
:1043B000089520915701862F90E0820F911D8F3F25
:1043C000910520F4620F6093570108958FEF809359
:1043D0005701089520915601862F90E0820F911D7C
:1043E0008F3F910520F4620F6093560108958FEF7F
:1043F00080935601089520915501862F90E0820FF9
:10440000911D8F3F910520F4620F6093550108952F
:104410008FEF80935501089520915401862F90E0ED
:10442000820F911D8F3F910520F4620F609354011C
:1044300008958FEF809354010895833011F128F48B
:10444000813049F0823091F00895853081F120F17A
:104450008630C1F1089580915901681720F4861BB8
:10446000809359010895109259010895809158013F
:10447000681720F4861B8093580108951092580104
:10448000089580915701681720F4861B8093570187
:10449000089510925701089580915601681720F4ED
:1044A000861B8093560108951092560108958091BD
:1044B0005501681720F4861B8093550108951092CA
:1044C0005501089580915401681720F4861B80934C
:1044D000540108951092540108958732F8F48E31F2
:1044E00008F085C08E3009F465C048F4873009F4BF
:1044F00047C08B3009F491C0863051F127C0863116
:1045000009F48BC020F4803109F45EC01FC08931EA
:1045100009F483C08B3109F443C018C0883309F40F
:104520007CC050F4893209F470C0853309F46DC041
:10453000873209F46AC00AC0833409F466C020F4E3
:104540008A3308F052C002C0883461F080E00895D8
:1045500080912B02817F8E7F80932B0281E080935C
:10456000370208950E94FB172FEF83ED90E321504F
:1045700080409040E1F700C000000E946E1F4DC0D7
:1045800090912B02892F8095817080FB90F99093F8
:104590002B02811142C0997F977F90932B023DC0DF
:1045A00090912B0291FB882780F921E0822780FBE4
:1045B00091F913C090912B0292FB882780F921E09A
:1045C000822780FB92F909C090912B0293FB8827E8
:1045D00080F921E0822780FB93F990932B028823B6
:1045E000E1F0916090932B02089527EC01C023EE37
:1045F000280F61E070E080E090E004C0660F771F54
:10460000881F991F2A95D2F704C061E070E080E00E
:1046100090E00E943B1C0E94FB1781E0089580E01F
:10462000089580E008958E518A3030F4E82FF0E04C
:10463000E958FE4F8081089580E00895CF93C82FF8
:1046400080913702813069F018F08230B1F180C07A
:10465000E0915201F09153018081823209F07AC0D9
:1046600007C0E0915201F09153018081823249F4F8
:104670008C2F0E940F2381111DC08C2F0E946D2250
:104680001AC08C2F0E941123811114C0C43179F0FB
:1046900048F4CB3079F0C03109F060C082E08093FB
:1046A000370208C0C93219F0C83321F057C0109240
:1046B000370254C081E0817053C0C93289F118F5C6
:1046C000C43171F1B0F4C73009F046C08EE1809377
:1046D000590182E3809358018AE08093570184E175
:1046E0008093560188E08093550188E280935401BD
:1046F00033C082EE8C0F863078F58C2F0E94132306
:104700008093360229C0CE34E9F020F4CB3421F571
:104710006AE013C0C13579F0C235F1F461E00DC033
:1047200080913602882319F01092360215C081E07C
:104730008093370215C061E006C0809136020E9466
:10474000A7210AC06AE0809136020E941D2204C09F
:104750001092370280E004C081E002C080E0ABCF5D
:10476000CF9108958091400208950F931F93CF93A6
:10477000DF9300D01F92CDB7DEB78C010E940126D7
:10478000823011F0843019F583E089831B830A831A
:104790008093E9008FEF9091E800815095FD06C06D
:1047A00095ED9A95F1F700008111F5CF8091E80021
:1047B00085FF0DC040E050E063E070E0CE0101965F
:1047C0000E941E268091E8008E778093E8000F906B
:1047D0000F900F90DF91CF911F910F910895CF937C
:1047E000DF9300D01F92CDB7DEB720914F02243067
:1047F00031F522E02983805891099B838A8383E0E5
:104800008093E9008FEF9091E800815095FD06C0FC
:1048100095ED9A95F1F700008111F5CF8091E800B0
:1048200085FF0DC040E050E063E070E0CE010196EE
:104830000E941E268091E8008E778093E8000F90FA
:104840000F900F90DF91CF910895CF93DF93EC01FC
:104850000E940126823011F08430F9F482E08093C6
:10486000E9008FEF9091E800815095FD06C095ED2D
:104870009A95F1F700008111F5CF8091E80085FF4E
:104880000CC040E050E065E070E0CE010E941E26C2
:104890008091E8008E778093E800DF91CF910895B2
:1048A000CF93DF93EC010E940126823011F0843017
:1048B00039F581E08093E9008FEF9091E800815015
:1048C00095FD06C095ED9A95F1F700008111F5CFA1
:1048D0008091E80085FF14C040E050E068E070E09F
:1048E000CE010E941E268091E8008E778093E8001A
:1048F00088E0FE01A8E3B2E001900D928A95E1F70D
:10490000DF91CF91089580914E02811109C00E94DC
:10491000B0270E940D288091E20084608093E2001D
:10492000089510924E020895089508950C94DB1E88
:1049300042E061EC81E00E942A2742E061EC82E0E3
:104940000E942A2742E061EC83E00C942A278091A0
:104950005102833009F453C030F4813071F0823059
:1049600009F48CC008958A3009F478C08B3009F4BA
:104970005EC0893009F09AC020C080915002813A0F
:1049800009F094C08091E800877F8093E8008091CF
:10499000540290915502892B21F060E080E090E074
:1049A00003C068E088E392E070E00E94672680918F
:1049B000E8008B778093E80008958091500281325F
:1049C00009F074C08091540290915502892B09F02E
:1049D0006DC08091E800877F8093E8008091E800B7
:1049E00082FD05C080914F028111F8CF5FC0809198
:1049F000F100809340028091E8008B7753C0809152
:104A00005002813A09F052C08091540290915502AF
:104A1000892B09F04BC08091E800877F8093E800E4
:104A20008091E80080FFFCCF8091640136C08091C6
:104A300050028132D9F58091540290915502892B10
:104A4000A9F58091E800877F8093E8000E945F27A6
:104A500080915202809364010C94FB178091500264
:104A6000813221F58091E800877F8093E8000E94E1
:104A70005F278091530280934102089580915002F4
:104A8000813AA1F48091E800877F8093E8008091CB
:104A9000E80080FFFCCF809141028093F10080917B
:104AA000E8008E778093E8000C945F27089584B720
:104AB000877F84BF88E10FB6F894809360001092DE
:104AC00060000FBE80E880936100109261000E9438
:104AD000C5120E94B0270E940D288091E2008460D8
:104AE0008093E20078940E94902A0E94C9128AE57D
:104AF00091E00E94721280914F02853069F40E9409
:104B00009B1E80914D028823B1F30E94C61E88230C
:104B100091F30E940826EFCF0E94CF12ECCF0C94A5
:104B20009125292F332723303105A9F06CF421304A
:104B3000310509F448C02230310509F049C084E547
:104B400090E020E83EE048C021323105F9F0223201
:104B5000310549F13DC099278130910571F02CF460
:104B6000892BB1F5ECE7FEE00DC08230910541F0F4
:104B7000039771F5EEE4FEE005C0E4E6FEE002C056
:104B8000E4E5FEE0849190E09F0126C0633071056A
:104B9000F8F4FB01EE0FFF1FE657FE4F2081318135
:104BA00089E090E019C06330710590F4FB01EE0FCD
:104BB000FF1FEC57FE4F20813181FB01EF57FE4F65
:104BC000808190E009C082E190E024ED3EE004C0E5
:104BD00080E090E020E030E0FA0131832083089506
:104BE0000895CF93C82F0E94F025C0934202CF9121
:104BF000089580914F02843011F482E0089581E09D
:104C0000089580914202811102C00C94F925089503
:104C100080E189BD82E189BD09B400FEFDCF8091AC
:104C2000D8008F7D8093D8008091E00082608093CF
:104C3000E0008091E00081FDFCCF0895CF92DF92EB
:104C4000EF92FF920F931F93CF93DF937C018B0121
:104C5000EA010E948027811131C0209731F08881BC
:104C60009981081B190BE80EF91EC12CD12C0115D6
:104C7000110519F18091E80085FD14C08091E800CC
:104C80008E778093E800209741F0888199818C0D80
:104C90009D1D9983888385E011C00E948027882309
:104CA00031F30CC0F70181917F018093F100015035
:104CB0001109FFEFCF1ADF0ADACF80E0DF91CF9141
:104CC0001F910F91FF90EF90DF90CF90089520916A
:104CD0005602309157022617370748F061157105C3
:104CE00039F42091E8002E772093E80001C0B90143
:104CF000FC0120E061157105B9F180914F02882314
:104D000009F440C0853009F43FC08091E80083FD7C
:104D10003DC08091E80082FF06C08091E80082FFDC
:104D200026C080E008958091E80080FFE3CF2091C5
:104D3000F3008091F20090E0922B6115710551F023
:104D40008830910538F421912093F1006150710968
:104D50000196F3CF21E0089709F020E08091E80068
:104D60008E778093E800C6CF2111C7CFD6CF809130
:104D70004F02882339F0853039F08091E80083FFB5
:104D8000CCCF04C082E0089583E0089581E00895C7
:104D900020915602309157022617370748F06115C7
:104DA000710539F42091E8002E772093E80001C0C6
:104DB000B901FC0120E061157105C1F180914F023C
:104DC000882309F441C0853009F440C08091E8008F
:104DD00083FD3EC08091E80082FF06C08091E8001C
:104DE00082FF27C080E008958091E80080FFE3CF34
:104DF0002091F3008091F20090E0922B61157105F3
:104E000059F08830910540F424912093F1003196B7
:104E1000615071090196F2CF21E0089709F020E076
:104E20008091E8008E778093E800C5CF2111C6CF2E
:104E3000D5CF80914F02882339F0853039F08091A9
:104E4000E80083FFCBCF04C082E0089583E008959B
:104E500081E00895982F973058F59093E9009817BE
:104E600039F07091EC002091ED005091F00003C0FA
:104E7000242F762F50E021FF19C03091EB003E7FA8
:104E80003093EB003091ED003D7F3093ED00309199
:104E9000EB0031603093EB007093EC002093ED0059
:104EA0005093F0002091EE0027FF07C09F5FD3CF03
:104EB0008F708093E90081E0089580E008958091EB
:104EC000500287FD05C08091E80080FF0EC012C02F
:104ED0008091E80082FD05C080914F028111F8CFDA
:104EE00008958091E8008B7708C080914F0281116E
:104EF000EACF08958091E8008E778093E8000895C6
:104F00008091E4009091E50045E62091EC0020FFBF
:104F100021C02091E80020FD21C020914F022223D2
:104F200089F0253089F02091EB0025FD0FC02091FC
:104F3000E4003091E5002817390739F3415041F07A
:104F4000C901E3CF82E0089583E0089581E00895E8
:104F500084E008952091E80022FFDFCF80E00895EB
:104F60000E941E280E942628E0EEF0E080818160E9
:104F70008083E8EDF0E080818F77808319BCA7ED16
:104F8000B0E08C918E7F8C9380818F7E8083109295
:104F90004E0208950F931F93CF93DF930E941E2814
:104FA0000E942628C8EDD0E088818F778883888189
:104FB0008068888388818F7D888319BC10924F0216
:104FC00010924B0210924D0210924C0200EE10E033
:104FD000F80180818B7F808388818160888342E0B3
:104FE00060E080E00E942A27E1EEF0E080818E7F81
:104FF0008083E2EEF0E08081816080838081886040
:105000008083F80180818E7F80838881806188839E
:10501000DF91CF911F910F910895E8EDF0E080812D
:105020008F7E8083E7EDF0E080818160808384E083
:1050300082BF81E080934E020C94CA27E8EDF0E035
:1050400080818E7F80831092E20008951092DA00B2
:105050001092E10008951F920F920FB60F92112443
:105060002F933F934F935F936F937F938F939F9370
:10507000AF93BF93EF93FF938091E10082FF0BC04A
:105080008091E20082FF07C08091E1008B7F8093D6
:10509000E1000E948F2A8091DA0080FF1FC080917A
:1050A000D80080FF1BC08091DA008E7F8093DA00E9
:1050B0008091D90080FF0DC080E189BD82E189BD6A
:1050C00009B400FEFDCF81E080934F020E9483244B
:1050D00005C019BC10924F020E9491248091E100FA
:1050E00080FF19C08091E20080FF15C08091E2002E
:1050F0008E7F8093E2008091E20080618093E200E5
:105100008091D80080628093D80019BC85E080939C
:105110004F020E9495248091E10084FF30C080916D
:10512000E20084FF2CC080E189BD82E189BD09B421
:1051300000FEFDCF8091D8008F7D8093D8008091B4
:10514000E1008F7E8093E1008091E2008F7E80936A
:10515000E2008091E20081608093E20080914B0246
:10516000882311F084E007C08091E30087FF02C02C
:1051700083E001C081E080934F020E9496248091D9
:10518000E10083FF29C08091E20083FF25C0809168
:10519000E100877F8093E10082E080934F021092CC
:1051A0004B028091E1008E7F8093E1008091E200CC
:1051B0008E7F8093E2008091E20080618093E20024
:1051C00042E060E080E00E942A278091F000886041
:1051D0008093F0000E949424FF91EF91BF91AF91D2
:1051E0009F918F917F916F915F914F913F912F91FF
:1051F0000F900FBE0F901F9018951F920F920FB631
:105200000F9211242F933F934F935F936F937F934C
:105210008F939F93AF93BF93CF93EF93FF93C091DF
:10522000E900CF708091EC001092E9008091F000CD
:10523000877F8093F00078940E9439291092E900CA
:105240008091F00088608093F000C093E900FF91A6
:10525000EF91CF91BF91AF919F918F917F916F917E
:105260005F914F913F912F910F900FBE0F901F9024
:1052700018951F93CF93DF93CDB7DEB7AA970FB6DC
:10528000F894DEBF0FBECDBFE0E5F2E08091F10003
:10529000819322E0E835F207C9F70E94A7248091A4
:1052A000E80083FF24C12091500230915102832FE6
:1052B00090E08A30910508F01AC1FC01E555FF4FD6
:1052C0000C94C12A203821F0223809F010C108C0FE
:1052D00080914C0290914D02992389F082600FC019
:1052E000809154028F70873008F001C18093E900EB
:1052F0008091EB0085FB882780F91092E90090915E
:10530000E800977F9093E8008093F1001092F100FD
:10531000CCC0822F8D7F09F0EAC0222319F0223001
:1053200061F0E5C080915202813009F0E0C0333075
:1053300009F080E080934D022AC0809152028111D1
:1053400026C0209154022F708FEF820F863008F014
:10535000CEC02093E9008091EB0080FF18C08091BF
:10536000EB00333011F4806210C080618093EB0059
:1053700081E090E001C0880F2A95EAF78093EA0067
:105380001092EA008091EB0088608093EB0010920D
:10539000E9008091E800877F8093E8000E945F2702
:1053A000A6C02111A4C0109152021F778091E30082
:1053B0008078812B8093E3008091E800877F809341
:1053C000E8000E945F278091E80080FFFCCF809179
:1053D000E30080688093E300112311F083E001C0B3
:1053E00082E080934F0283C02058223008F07FC0B3
:1053F00080915202909153028C3D23E0920779F5FF
:1054000083E08A838AE289834FB7F894DE0113969A
:1054100020E03EE051E2E32FF0E050935700E491AA
:1054200020FF03C0E295EF703F5FEF708E2F90E09A
:10543000EA3010F0C79601C0C0968D939D932F5F00
:10544000243149F74FBF8091E800877F8093E800BF
:105450006AE270E0CE0101960E94672615C0609155
:10546000540270915502AE014F5F5F4F0E948F252D
:105470000097E9F12091E800277F2093E800BC0124
:1054800089819A810E94C8268091E8008B77809359
:10549000E8002DC0203859F58091E800877F80937F
:1054A000E80080914B028093F1008091E8008E77B4
:1054B00073CF21111CC0909152029230C0F48091A0
:1054C000E800877F8093E80090934B020E945F275B
:1054D00080914B02811104C08091E30087FF02C0DC
:1054E00084E001C081E080934F020E949824809163
:1054F000E80083FF0AC08091E800877F8093E8007E
:105500008091EB0080628093EB00AA960FB6F8942E
:10551000DEBF0FBECDBFDF91CF911F9108950895DB
:10552000CF9380914F028823B1F08091E9008F7072
:105530009091EC0090FF02C090E801C090E0C92F6C
:10554000C82B1092E9008091E80083FD0E94392960
:10555000CF70C093E900CF91089597FB072E16F402
:10556000009407D077FD09D00E94C72A07FC05D018
:105570003EF4909581959F4F0895709561957F4F6A
:105580000895EE0FFF1F0590F491E02D0994AA1BDA
:10559000BB1B51E107C0AA1FBB1FA617B70710F01E
:1055A000A61BB70B881F991F5A95A9F78095909550
:1055B000BC01CD010895F999FECF92BD81BDF89A45
:1055C000992780B50895A8E1B0E042E050E00C943E
:1055D000032B262FF999FECF92BD81BDF89A019732
:1055E00000B4021639F01FBA20BD0FB6F894FA9A2B
:1055F000F99A0FBE08950196272F0E94EA2A0C946B
:10560000E92ADC01CB01FC01F999FECF06C0F2BD0D
:10561000E1BDF89A319600B40D9241505040B8F770
:065620000895F894FFCF8D
:10562600010000F70A000000000000000000000072
:1056360000000000000000070B0000000000000052
:105646000000000000000000000000250B00000024
:10565600000000000000000000000000000000172D
:105666000B00000000000000000000000000000029
:1056760000FF20022808140A321EB22350242524D3
:10568600EF23B52301F6F73133323697C63435F4B6
:10569600F5000000000000010203040506070809E2
:1056A60000404D36690F1C0FE60E920EAB0EC40E6F
:00000001FF
