:100000000C94EB030C942F040C942F040C942F04E9
:100010000C942F040C942F040C942F040C942F0494
:100020000C942F040C942F040C945C290C942E2A0D
:100030000C94641E0C942F040C942F040C942F0425
:100040000C942F040C942F040C942F040C942F0464
:100050000C942F040C94CB1E0C942F040C942F049E
:100060000C942F040C942F040C942F040C942F0444
:100070000C942F040C942F040C942F040C942F0434
:100080000C942F040C942F040C942F040C942F0424
:100090000C942F040C942F040C942F040C942F0414
:1000A0000C942F040C942F040C942F045C0562050F
:1000B000660569056D057105750579057E0582057D
:1000C00086058A058D059105950599059D05A2056D
:1000D000D114D1140B150B154E157015DF16DF1644
:1000E000B615DF165D165D16D316DF16DF16DA16A7
:1000F0006A166A166A166A166A166A166A166A1600
:100100006A166A166A166A166A166A166A166A16EF
:100110007C168C1693169A16A416731773178617E7
:1001200086177C178617861786177317731782171B
:10013000861786178217932ABA2AA82BBA2AA82BC1
:10014000022B252BA82B7B2B8A2B07634236B79BD0
:10015000D8A71A39685618AEBAAB558C1D3CB7CC27
:100160005763BD6DEDFD753EF6177231BF0000009F
:10017000803F05A84CCDB2D44EB93836A9020C50F8
:10018000B9918688083CA6AAAA2ABE000000803F32
:1001900001E3012B022B02E30035001E001F0020AB
:1001A0000021002200380025022D00230024002514
:1001B00000260027002D002B0014001A0009001350
:1001C000000A002400250026000D000F0018001C66
:1001D0000033003100280004001500160017000746
:1001E000002100220023000B00110008000C001267
:1001F000002800E1001D001B000600190005001E7C
:10020000001F0020000E001000360037003800E10B
:10021000002961E000E200013004512A0027006358
:10022000002E022C00035150004F005200510035A7
:10023000001E001F002000210022002300240025B2
:1002400000260027002D002E002A002A002B001473
:10025000001A00090013000A000D000F0018001C0E
:100260000033002F00300031004C0028000400153E
:10027000001600170007000B00110008000C001208
:10028000003400280028004B00E1001D001B000680
:1002900000190005000E001000360037003800E598
:1002A00000E50052004E002961E000E200E3000496
:1002B000512C002C000351E700E60004510351507B
:1002C0000051004F0000000000000000000000008E
:1002D000000000000000000000000000000000001E
:1002E000000000000000000000000000000000000E
:1002F00000000000000000000000000000000000FE
:1003000000000000000000000000000000000000ED
:1003100000000000000000000000000000000000DD
:1003200000000000000000000000000000000000CD
:1003300000000000000000000000000000000000BD
:1003400000000000000000000000000000000000AD
:10035000000000000000000000000001003A003B27
:10036000003C003D003E003F004000410042004391
:1003700000440045000100C05C01001E021F022075
:100380000221022202230224022502260227020160
:10039000000100C45CC35C01003A003B003C003D2E
:1003A000003E003F002D022E022F023002310201DA
:1003B00000C65CC55CCB5CCC5CCD5CCE5CCF5CD05D
:1003C0005CD15CD25C01000100010001000100C8A9
:1003D0005CC75CC05CC15CC25C0100010001000143
:1003E0000001000100010001000100010001000105
:1003F00000005C3A003B003C003D003E003F0040F6
:10040000004100420043004400450001000100019A
:10041000001E001F002000210022002300240025D0
:100420000026002700010001000100490001003AF8
:10043000003B003C003D003E003F002D002E002F01
:1004400000300031000100010001000100400041C6
:10045000004200430044004500010001000100018A
:1004600000010001000100010001520052010001E1
:100470000001000100010001000100010001000174
:10048000000100010001003A003B003C003D003E3D
:10049000003F005300380025024000410042004365
:1004A0000044004500AF00B200B300B100C45CC31B
:1004B0005C5F00600061002D000100010046004704
:1004C000004800AC00AE00AB00AD00C65CC55C5C93
:1004D000005D005E002E020100005C0100010001D1
:1004E00000AA00A800A9006500C85CC75C59005AB2
:1004F000005B005800010001000100010001000143
:10050000000100C05C0100C25CC15C6200010063CC
:10051000005800580001000100010001006801F0CE
:1005200000B40078005A007F3F1F64321464321414
:10053000783C1E1E140A05000000000001010101A4
:10054000010101010102020202020202020203038E
:10055000030303030303040404040404050505055D
:10056000050606060606070707070808080809091A
:10057000090A0A0A0A0B0B0B0C0C0C0D0D0D0E0EC2
:100580000F0F0F101011111112121313141415154F
:1005900016161717181819191A1A1B1C1C1D1D1EC0
:1005A0001F1F202021222223242525262727282912
:1005B0002A2B2B2C2D2E2F2F30313233343536363B
:1005C0003738393A3B3C3D3E3F4041424344464741
:1005D00048494A4B4C4D4F50515253555657585A13
:1005E0005B5C5E5F606263646667696A6C6D6E70B7
:1005F0007173747678797B7C7E8081838486888A27
:100600008B8D8F91929496989A9B9D9FA1A3A5A75D
:10061000A9ABADAFB1B3B5B7B9BBBDBFC1C4C6C857
:10062000CACCCFD1D3D6D8DADCDFE1E4E6E8EBED13
:10063000F0F2F5F7FAFCFF0403300000000A03585B
:100640000044003700350000000C03780069007595
:10065000006400690000000403090409026D00043D
:100660000100A0FA090400000103010100092111A1
:100670000100012240000705810308000A09040166
:10068000000103010200092111010001224D0007B0
:1006900005820308000A09040200010300000009A2
:1006A00021110100012236000705830308000A0911
:1006B0000403000103000000092111010001223997
:1006C000000705840320000112011001000000084A
:1006D000CDCD757501000102030105010906A101D7
:1006E000050719E029E71500250195087501810224
:1006F00005081901290595057501910295017503F4
:1007000091010507190029F71500250195F87501D4
:100710008102C005010980A101850216010026039E
:10072000001A81002A8300751095018100C0050C14
:100730000901A1018503160100269C021A01002A65
:100740009C02751095018100C005010902A10109F3
:1007500001A1000509190129051500250195057557
:1007600001810295017503810105010930093115E7
:1007700081257F95027508810609381581257F95A9
:100780000175088106050C0A38021581257F95013F
:1007900075088106C0C005010906A101050719E019
:1007A00029E7150025019508750181029501750855
:1007B0008101050819012905950575019102950129
:1007C000750391010507190029FF150026FF009503
:1007D0000675088100C011241FBECFEFDAE0DEBF2E
:1007E000CDBF04B603FE24C08091620290916302E3
:1007F000A0916402B09165028730904BA740B04B46
:10080000B9F4109262021092630210926402109284
:10081000650214BE84B7877F84BF88E10FB6F89461
:1008200080936000109260000FBEE0E0F8E309954D
:1008300011E0A0E0B1E0E8ECFEE502C005900D9209
:10084000A834B107D9F712E0A8E4B1E001C01D92C5
:10085000A236B107E1F70E9486260C94622F0C9411
:1008600000000C94AB0A0C9461040C94F9072A9ACA
:100870000895229A0C9437048F9A0895879A0C94BD
:100880003C048C980895849A0C9441048D9A0895A0
:10089000859A0C9446040E9439040E943E040E94EA
:1008A00043040E9448040C94AA0ACF93DF93EC01FE
:1008B0000E94871DBE0180E090E0DF91CF910C94F3
:1008C000781BCF93FB018C3D2CE59207F9F040F4A7
:1008D0008A3D2CE5920791F08B3D9C4549F038C04C
:1008E0008D3D2CE59207A9F08E3D9C4531F130C03D
:1008F000C281CC2371F182E090E005C0C281CC239B
:1009000041F181E090E00E9455041DC0C28183E066
:1009100002C0C28184E0CC2341F00E94D31B45E099
:1009200064E083E00E94E3070EC00E94EE1B45E0F6
:1009300064E083E00E94E3070CC0C28185E0CC2321
:1009400021F00E94D31BC0E004C00E94EE1B01C036
:10095000C1E08C2FCF910895CF93DF93EC016623F4
:1009600019F0613039F00CC08A81882319F085EEC6
:100970000E9411138A81811106C085EE0E94201405
:1009800080E090E002C080E991E0DF91CF9108958E
:1009900081E008950E9461172FEF84E39CE02150CD
:1009A00080409040E1F700C000000C94F11E0F93CE
:1009B0001F93CF93DF938C01FC01C081D181CE01C5
:1009C0000E945F1CBE010E94FD07EC01B8010E945D
:1009D0003304882309F491C2B801CE010E945E0A53
:1009E000882309F48AC2C93CFCE5DF0741F4F80119
:1009F0008281882309F481C20E94530C7EC2CA3CC2
:100A00008CE5D80708F036C1C13C9CE5D90761F4F4
:100A1000F8018281882309F470C20E94121D82723B
:100A2000F1F00E94CE0E69C2C23CECE5DE07D0F0C8
:100A3000F8018281C53CFCE5DF0709F4F0C008F04D
:100A400000C1C33CECE5DE0709F4EFC008F0F3C0D9
:100A5000882309F452C20E94121D827211F30E946F
:100A6000C40E4BC2C531FCE5DF0708F0A3C0C2309D
:100A70008CE5D80708F478C0F8018281882309F44E
:100A80007FC00E946F1D811102C00E944E1D0E94F6
:100A90008C1D90E09093540280935302FE01E3502A
:100AA000FC45E231F10520F4EA5AFF4F0C94142F73
:100AB00080915302816003C08091530282608093D1
:100AC00053024BC0809153028460F9CF809153024E
:100AD00013C0809153028061F2CF809153028062F3
:100AE000EECF809153028064EACF809153028068F8
:100AF000E6CF8091530284608860E1CF80915302F9
:100B00008E7FDDCF809153028D7FD9CF80915302AC
:100B10008B7FD5CF8091530213C0809153028F7E7B
:100B2000CECF809153028F7DCACF809153028F7BAD
:100B3000C6CF809153028F77C2CF809153028B7FB3
:100B4000877FBDCF9091530297FB882780F921E0E2
:100B5000822780FB97F990935302809153020E9461
:100B6000901D0E946117C9C1C1159CE5D90779F094
:100B7000C130DC45A1F081E080934D0180934E01AE
:100B8000C801DF91CF911F910F910C94C804F80117
:100B90008281882309F4B1C10E94CA04AEC1F80160
:100BA0008281882309F4A9C1809101028160809328
:100BB0000102A3C1C531FCE5DF0729F50E94121D22
:100BC000382FF801228180910201909103012223A4
:100BD00071F03A7A21E009F420E0209348012223C1
:100BE00011F065E301C069E20E94FC1D09C020917B
:100BF0004801222311F065E301C069E20E94071E4B
:100C00000E94DF1C7AC1C03CDC4509F0B4CFF8017A
:100C10008281882309F471C10E94030F6EC1882369
:100C200009F46BC10E94DD0D68C1882309F465C118
:100C30000E94A50D62C1882309F45FC10E94BE0D08
:100C40005CC1C73C9CE5D90731F4882309F455C140
:100C50000E94120E52C1C83CDC4530F4882309F4CE
:100C60004CC10E94F80D49C1882309F446C10E9475
:100C70002D0E43C1C03DFCE5DF07C1F4F8018281C0
:100C8000882309F43AC10E94450C6531710581053C
:100C9000910540F00E94450C673171058105910571
:100CA00008F4DDCE85E10E94470E27C1C13D8CE5E9
:100CB000D80708F07AC0CC3C9CE5D907B1F4F8011C
:100CC0008281882309F419C10E94450C62307105A4
:100CD0008105910540F00E94450C65307105810544
:100CE000910508F4BCCE82E0DECFCD3CECE5DE071A
:100CF000B8F4CA3CFCE5DF0741F4F801828188239F
:100D000009F4FBC00E94680CF8C0CB3CDC4509F03C
:100D100032CFF8018281882309F4EFC081E0C3CF8C
:100D2000F8018281CE3CFCE5DF07A1F4882309F4B9
:100D3000E4C00E94450C693071058105910540F0C1
:100D40000E94450C6E3071058105910508F487CE2F
:100D500089E0A9CFCF3CDC45A0F4882309F4CDC0BD
:100D60000E94450C663071058105910540F00E9496
:100D7000450C683071058105910508F470CE86E058
:100D800092CF882309F4B9C00E94450C6F307105D9
:100D90008105910540F00E94450C64317105810583
:100DA000910508F45CCE8FE07ECFC43DECE5DE0714
:100DB00039F5F8018281882361F010924E010E947A
:100DC000961E90934C0180934B0180E20E94811407
:100DD00094C080914E0181110FC080914B01909180
:100DE0004C010E94A21E883C910530F487E20E94CB
:100DF000111387E20E94201480E20E9488147DC0B3
:100E0000C53DFCE5DF0708F043C0F8018281C23D23
:100E1000FCE5DF07A1F4882309F46FC00E94450CAC
:100E2000693171058105910540F00E94450C6232DF
:100E300071058105910508F412CE89E134CFC33DD7
:100E4000DC4528F4882309F458C088E12CCF882396
:100E500051F010924D010E94961E90934A0180938A
:100E6000490182E0B3CF80914D0181110FC0809183
:100E7000490190914A010E94A21E883C910530F4DC
:100E800086E20E94111386E20E94201482E0B5CF10
:100E9000C83DECE5DE0731F4F8018281882369F171
:100EA00080E009C0C93DFCE5DF0741F4F80182811B
:100EB000882319F182E00E9422271FC0C53DDC452E
:100EC00009F059CEF8018281811177CF80914E01CE
:100ED000811192CF80914B0190914C010E94A21EF2
:100EE000883C910508F088CF80E20E94881488E24F
:100EF0000E94111388E20E94201480E0DF91CF91BC
:100F00001F910F9108954F925F926F927F928F92EF
:100F10009F92AF92BF92CF92DF92EF92FF920F9388
:100F20001F932B013C01C12CD12C7601C394D70116
:100F3000C60104C0880F991FAA1FBB1F4A95D2F78C
:100F4000AC01BD014601570104C0880C991CAA1CC4
:100F5000BB1C2A95D2F7482959296A297B29D70130
:100F6000C60104C0880F991FAA1FBB1F0A95D2F79C
:100F70006A017B01C420D520E620F720C416D506DF
:100F8000E606F70639F4BC01CD01642975298629E6
:100F900097290AC0BC01CD01609570958095909508
:100FA00064217521862197211F910F91FF90EF9069
:100FB000DF90CF90BF90AF909F908F907F906F9079
:100FC0005F904F9008950F93382F262F6091D40192
:100FD0007091D5018091D6019091D701042F432FB4
:100FE0000E9483070F910C94B31B0C944B040C9438
:100FF000310408950C94350408959FE0799FF00121
:1010000011249BE4899FE00DF11D1124E60FF11DD1
:10101000EE0FFF1FE756FE4F859194910895880FBC
:10102000991F87569E4FFC01859194910895CF9307
:10103000DF930E94FD070E94BE09EC01811520E5A7
:10104000920708F040C0811530E4930708F01BC1F7
:10105000883E910508F5803E910508F08BC1883ADD
:10106000910578F4853A910508F09DC0813091058D
:1010700009F480C108F437C18430910508F07AC1C1
:1010800032C18D3B910508F499C0803C910508F46C
:101090002AC1805C9109E9C0C11580E2D80758F4E3
:1010A000C11591E0D90708F065C1C03FD10508F42A
:1010B0001AC1D0655FC1C11520E3D20708F0D9C0BD
:1010C000CE019F70D2C0811535E5930708F043C06B
:1010D000C11584E5D80708F0EDC0C11592E5D90720
:1010E00008F5C11521E5D20708F0D0C02C2F2370D8
:1010F00081E090E002C0880F991F2A95E2F79C6872
:101100009E01E4E036952795EA95E1F72370922B4E
:10111000CF70C695C69530E2C39FE0011124C82B5D
:10112000D92B28C18C2F869586959E012370332755
:10113000C115D34508F0AFC090E2899FE0011124AA
:1011400081E090E002C0880F991F2A95E2F7C82B32
:10115000D92BDC680FC1811529E5920780F4811530
:1011600038E5930708F0ABC0C11586E5D80708F04D
:10117000BAC0CF71DD27DC2FCC27D062FBC0C115F0
:101180009AE5D90708F4A0C0CE0190568115904287
:1011900008F0A9C08D2F8F710E943A0ADD27D06216
:1011A0008F71D82BE7C0853A910509F49FC0863A24
:1011B000910509F49EC0C3E8D0E4DCC0883A9105EB
:1011C00009F49AC0893A910509F499C08A3A9105BF
:1011D00009F498C08B3A910509F497C08C3A9105AF
:1011E00009F496C08B3B910509F495C08C3B9105A1
:1011F00009F494C08D3A910509F493C0803B9105A0
:1012000009F492C08E3A910509F491C08F3A910584
:1012100009F490C0813B910509F48FC0823B910590
:1012200009F48EC0833B910509F48DC0843B910580
:1012300009F48CC0853B910509F48BC0863B910570
:1012400009F48AC0873B910509F489C0883B910560
:1012500009F488C0893B910509F487C08A3B910550
:1012600009F086C0CAE2D6E485C00E940F08EC01EE
:1012700081C0CE019927D3FF03C0EC01D86C7AC09E
:10128000EC01D06C77C0DF70D06A74C0DC2FCC2743
:10129000C16FD06A6FC090E2899FE001112481E0A4
:1012A00090E002C0880F991F2A95E2F7C82BD92B2E
:1012B000DA6860C0DC2FCC27C46FD06A5BC0D82F3F
:1012C000CC27C06FD06A56C08C2F8F70806E90E094
:1012D000906A34E0D695C7953A95E1F7CF709C01B6
:1012E0003C2BE90147C0C0E0D0E044C0C1E8D0E4F5
:1012F00041C0C2E8D0E43EC0C2EED4E43BC0C9EE77
:10130000D4E438C0CAEED4E435C0C5EBD4E432C06E
:10131000C6EBD4E42FC0C3EBD4E42CC0C4EBD4E4BC
:1013200029C0C7EBD4E426C0CCECD4E423C0CDEC78
:10133000D4E420C0C3E8D5E41DC0CAE8D5E41AC08F
:10134000C2E9D5E417C0C4E9D5E414C0C1E2D6E4CB
:1013500011C0C3E2D6E40EC0C4E2D6E40BC0C5E2BD
:10136000D6E408C0C6E2D6E405C0C7E2D6E402C0AF
:10137000C0E0D4E4CE01DF91CF9108958238910589
:1013800049F1B0F48133910509F459C048F4893228
:10139000910509F44FC08A32910509F455C00895AA
:1013A0008533910509F441C08933910599F0089579
:1013B000833E910531F138F4803E910591F0823EF3
:1013C0009105A9F00895863E910501F1873E9105AA
:1013D00039F108952091530220FD3BC021FD39C011
:1013E00008958091530280FF34C089E341C0809109
:1013F000530282FF32C08091530284FF2CC080E0F0
:1014000037C08091530282FD28C0F5CF80915302EE
:1014100083FF25C08091530284FDF1CF87EE28C061
:101420008091530283FD1BC0F5CF8091530285FF4D
:1014300018C019C08091530285FF15C012C0809159
:10144000530286FF12C013C08091530286FF0FC063
:101450000CC080EE0DC083EE0BC082EE09C086EE9C
:1014600007C085E305C089E203C081E301C08AE2C9
:1014700090E008959091530292FF0DC0282F28719B
:10148000283019F4877F846006C0282F2471243007
:1014900011F48B7F886093FF0DC0282F28712831AD
:1014A00019F4877E846106C0282F2471243111F439
:1014B0008B7E886194FD877E08950895CF93DF9396
:1014C000EC01FB018281811102C081E040C080916A
:1014D0005C01811125C0C631DC45B9F70E945D0A67
:1014E00081E080935C010E94961E90935B01809343
:1014F0005A0110924F011092510110925001109216
:101500005301109252011092550110925401109201
:10151000570110925601109259011092580116C0AD
:1015200080915A0190915B010E94A21E8C329140E1
:1015300060F680914F01E82FF0E0EE0FFF1FE05BB7
:10154000FE4FD183C0838F5F80934F0180E0DF9196
:10155000CF9108950895089585B7806885BF85B7B0
:10156000806885BFA4E2B1E021E030E08D91E82FF2
:10157000E295EF70F0E041A18F70B90102C0660FF3
:10158000771F8A95E2F7CB01962F9095492341A3C7
:1015900092A1982B92A371E0A932B70739F7A5E180
:1015A000B1E021E030E08D91E82FE295EF70F0E0BE
:1015B00041A18F70B90102C0660F771F8A95E2F7CB
:1015C000CB01962F9095492341A392A1982B92A3EA
:1015D00071E0A432B70739F7E7E6F1E0ADE5B1E035
:1015E000119211921D921D9281E0E137F807C1F727
:1015F0000C94F5074F925F927F928F929F92AF92D9
:10160000BF92CF92DF92EF92FF920F931F93CF93EF
:10161000DF9304E211E0CDE5D1E0EE24E394F12C78
:1016200099249394BE01A880B98019821882D801A8
:101630002D918D01E22FE295EF70F0E081A12F70E6
:10164000A70102C0440F551F2A95E2F79A01842B87
:1016500081A382A1842E8094882182A350EA5A9586
:10166000F1F745E1442E41E0542E80E090E0D201B4
:101670004D912D01C42EC2943FE0C322D12CD6013E
:1016800090967C90C880D9804F70D70102C0AA0F75
:10169000BB1F4A95E2F77A2241F4A701082E02C047
:1016A000440F551F0A94E2F702C040E050E04C2975
:1016B0005D295983488301968F309105C1F681A138
:1016C000882181A382A1822B82A32296FB018081A3
:1016D0009181A816B90641F0909271010E94961E60
:1016E0009093730180937201F1E009321F0709F0B2
:1016F00099CF809171018823B1F08091720190910E
:1017000073010E94A21E069770F0EDE5F1E0A7E6D6
:10171000B1E0819191918D939D9341E0E736F4077B
:10172000C1F7109271010E94F70781E0DF91CF911C
:101730001F910F91FF90EF90DF90CF90BF90AF90EF
:101740009F908F907F905F904F900895E82FF0E0EA
:10175000EE0FFF1FE959FE4F808191810895089592
:10176000DF92EF92FF920F931F93CF93DF93662345
:1017700009F44AC0E42FF0E0AFEFB0E0A61BB109D6
:10178000BF01A69FE001A79FD00DB69FD00D1124E9
:10179000FD2FDD2E7B01ED1AF1080CE310E0B801FE
:1017A0000E94EC2EEB01BC01E69EC001E79E900D6D
:1017B000F69E900D1124B8010E94EC2EC230D10586
:1017C000B1F040F4209779F0219709F58F2FD42EAE
:1017D000461B20C0C430D10599F068F02597B9F4B4
:1017E000842F861B17C08F2FD62EDF0E13C0862F97
:1017F0008F0FD42E03C0D42ED61A842F4F2F0AC099
:10180000842F462F4F0F06C0842FD42E03C080E0B4
:10181000D12C40E0E42FF0E0E95CFA4F4491ED2D4B
:10182000F0E0E95CFA4F9491E82FF0E0E95CFA4FC0
:10183000E491D90111964C9311979C931296EC93D5
:10184000DF91CF911F910F91FF90EF90DF9008955E
:1018500088E090E00C94222FAB01BC0188E090E07E
:101860000C94402FE1E3F2E083E080831092320297
:101870008FEF80933302809334021092350260819F
:101880007181828193810C942C0C6091310260FFF4
:1018900006C066956F7370E080E090E0089560E0A8
:1018A00070E0CB0108958091350290E0019684307C
:1018B000910514F083E090E080933502609131024D
:1018C0007091320280913302909134020C942C0C6E
:1018D0008091350290E0019797FF02C080E090E090
:1018E0008430910514F083E090E08093350260919C
:1018F00031027091320280913302909134020C9443
:101900002C0C8091310280FF06C066E070E08BE312
:1019100092E00C94BC11EDE3F2E0DF0111971C9210
:10192000DF0112971C921082339682E0EF34F807A1
:10193000A1F7EBCF9091310290FF10C0EDE3F2E000
:10194000DF0111978C93DF0112976C9340833396DC
:1019500092E0EF34F907A1F70C94810C0895CF922F
:10196000DF92EF92FF920F931F93CF93DF9300D0FC
:101970001F92CDB7DEB7F82EC92ED62EE42E0091D9
:1019800031021091320220913302309134020093DF
:101990003602109337022093380230933902809137
:1019A000310280FF1EC09E012F5F3F4F8F2D0E948E
:1019B000B00B80913602F0FA87F980933602F694E4
:1019C0002091370220782F29C0FA27F92093370277
:1019D000D0923802E09239024B8169818A810E945B
:1019E0009A0C0F900F900F90DF91CF911F910F9154
:1019F000FF90EF90DF90CF9008958F929F92AF92DB
:101A0000BF92CF92DF92EF92FF920F931F93CF93EB
:101A1000DF93EC01862E942E8091310280FF88C0E6
:101A2000982F9E77923021F4CE010E94AF0C56C0C1
:101A3000E82FE695EF739EE39E0F9F73943018F4A2
:101A4000909034024BC09AE39E0F9F73993070F4CC
:101A5000881F8827881F90913202292F220FC22FBA
:101A6000C82B97FB992790F9D92F38C087E28E0FA2
:101A70008F738A3098F5F0E07997E0FF02C02FEF7E
:101A800001C021E0EE7FE35EFA4F8591949166E01C
:101A900070E00E94EC2E26036001279FD00C1124D9
:101AA0007E0188E9E81A8EEFF80A0BE312E088E677
:101AB000A82EBB24B394C701B5010E94EC2E980157
:101AC000492D682D0E94B00BEC0CFD1C0D5F1F4FC3
:101AD00092E00D34190779F70E94810C8091310250
:101AE0009C2FC0FB87F9809331029695809132023A
:101AF0008078892BD0FB87F9809332028092330261
:101B000090923402609131027091320280913302DE
:101B100090913402DF91CF911F910F91FF90EF9040
:101B2000DF90CF90BF90AF909F908F900C942C0C33
:101B3000DF91CF911F910F91FF90EF90DF90CF90A9
:101B4000BF90AF909F908F90089520913102221FF7
:101B50002227221F30913202432F440F842F822BE1
:101B600037FB992790F90C9668E671E00E94002FE8
:101B700040913402609133020C94FD0C20913102AB
:101B8000221F2227221F30913202432F440F842F1D
:101B9000822B37FB992790F98C3091051CF4845ADD
:101BA0009E4F01C00C9768E671E00E94002F4091A3
:101BB0003402609133020C94FD0C60913302862F45
:101BC00090E0873E910514F4675E01C06FEF80914D
:101BD0003102881F8827881F90913202292F220FF7
:101BE00097FB992790F940913402822B0C94FD0CBD
:101BF00060913302862F90E0499714F0695101C03B
:101C000060E080913102881F8827881F90913202FE
:101C1000292F220F97FB992790F940913402822BAC
:101C20000C94FD0C40913402842F90E0843F910588
:101C300014F4445F01C04FEF80913102881F882760
:101C4000881F90913202292F220F97FB992790F934
:101C500060913302822B0C94FD0C40913402842F4E
:101C600090E00C9714F04C5001C040E0809131029C
:101C7000881F8827881F90913202292F220F97FBF7
:101C8000992790F960913302822B0C94FD0C90916E
:101C9000310290FF44C09178811102C0926003C06C
:101CA000833220F094649093310205C08F73880FC3
:101CB000892B8093310260913102709132028091C0
:101CC0003302909134020E942C0C80913102982FA3
:101CD0009E77923019F41092890110C0982F969532
:101CE0009F732EE3290F2F73273120F491E09093F7
:101CF000890104C0995D9F739A3068F3881F882713
:101D0000881F90913202292F220F97FB992790F973
:101D10004091340260913302822B0C94FD0C0895A3
:101D20008091010281608093010281E080938A01A9
:101D30000E946F1D811104C00E944E1D0E94320C32
:101D40000E94280C60933102709332028093330218
:101D5000909334026E7761F40E94320C0E94280C3A
:101D60006093310270933202809333029093340275
:101D700081E0809389018091310280FF04C08695C3
:101D80008F730C94470E08958091310286958F735E
:101D90008F5F833208F081E00C94470E809131020E
:101DA00086958F73815009F482E20C94470ECF938D
:101DB000DF93C1E3D2E08881816088836881798183
:101DC0008A819B810E942C0C888186958F73DF917C
:101DD000CF910C94470EE1E3F2E080818E7F808307
:101DE00060817181828193810E942C0C1092890103
:101DF0002FEF80E792E0215080409040E1F700C053
:101E000000000C94810C8091310280FD0C94EB0E4B
:101E10000C94D70ECF93C82F8091870190918801A1
:101E20000E94A21EEC2FF0E0ED5CFA4FE491F0E08E
:101E30008E179F0708F442C00E94961E9093880157
:101E4000809387016091860170E080E090E00E94BD
:101E50000A2D20E030E04FE753E40E94432C2BEDA5
:101E60003FE049E450E40E942B2E0E948E2E0E94F7
:101E7000B02C2BE43AE34EE25FE30E94DE2B20EF2E
:101E80003BEF48ED52E40E942B2E0E94DC2C462FA3
:101E900080913102881F8827881F90913202292F54
:101EA000220F97FB992790F960913302822B0E94B1
:101EB000AF0C809186018F5F80938601CF9108954A
:101EC000CF93C82F80918401909185010E94A21E1A
:101ED000EC2FF0E0E05DFA4FE491F0E08E179F0701
:101EE000E8F00E94961E90938501809384014091B2
:101EF00034026091330280918201909183010E94AB
:101F0000AF0C8091820190918301019668E671E0A7
:101F10000E94EC2E9093830180938201CF910895CB
:101F2000DF92EF92FF920F931F93CF93DF93D82E00
:101F300080918001909181010E94A21EED2DE69575
:101F4000F0E0E35DFA4FE491F0E08E179F07E8F1CF
:101F50000E94961E90938101809380010BE312E012
:101F6000C0E0D0E028E6E22EFF24F39480917E01C9
:101F700090917F018C0F9D1FB7010E94EC2E98015C
:101F800040913402609133020E94B00BEC960D5FD9
:101F90001F4FC83681E0D80749F70E94810C209175
:101FA0007E0130917F01D0FE0AC0C9010196BE01B9
:101FB0000E94EC2E90937F0180937E0106C02150F9
:101FC000310930937F0120937E01DF91CF911F91E2
:101FD0000F91FF90EF90DF900895AF92BF92CF9254
:101FE000DF92EF92FF920F931F93CF93DF93C82F4F
:101FF00080FD03C0BB24B39402C0BB24BA9480917B
:102000007C0190917D010E94A21EC695EC2FF0E00C
:10201000E65DFA4FE491F0E08E179F0708F466C082
:102020000E94961E90937D0180937C015BE3E52ED8
:1020300052E0F52E0DE312E0C0E0D0E0F801319758
:102040001082F7011082F801108244E0C42ED12CD6
:10205000A12C80917B018A0D87FD8A5F992787FDDE
:102060009095C817D907E9F4809134028C9DA0019E
:102070008D9D500D11245595479555954795809107
:102080003102881F8827881F90913202592F550FDF
:1020900097FB992790F9970160913302852B0E9455
:1020A000B00BAB0CF1E0CF1AD108C114D10489F602
:1020B000219683E0E80EF11C0D5F1F4FC630D1055D
:1020C00009F0BCCF0E94810C80917B0191E0B91294
:1020D00006C0811102C085E007C0815005C090E0B4
:1020E0000196BE010E94002F80937B01DF91CF916A
:1020F0001F910F91FF90EF90DF90CF90BF90AF9026
:1021000008950F931F93CF93DF93C82F8091790188
:1021100090917A010E94A21EEC2FF0E0E95DFA4F47
:10212000E491F0E08E179F0708F468C00E94961EA5
:1021300090937A0180937901EDE3F2E0DF0111974A
:102140001C92DF0112971C921082339682E0EF34CA
:10215000F807A1F7C0E0D0E006E010E0CE01B8013A
:102160000E94002F20917801332727FD3095FC0134
:10217000EE0FFF1FC217D3070CF120910101332787
:1021800027FD30952C173D07CCF09F01280F391FF4
:10219000255C3D4F80913102881F8827881F9091D0
:1021A0003202592F550F97FB992790F9409134022D
:1021B00060913302852B0E94B00B07C0E80FF91F16
:1021C000E55CFD4F1182108212822196C630D10546
:1021D00029F60E94810C2091000180917801820FE4
:1021E0008093780190910101920F9093010119164B
:1021F00014F485301CF0219520930001DF91CF91DC
:102200001F910F910895EF92FF920F931F93CF9319
:10221000DF9380917601909177010E94A21E883E03
:102220009340C8F10E94961E9093770180937601A7
:10223000C0917401D09175012196C170DD27D093B2
:102240007501C09374010BE312E0F12C78E7E72EDF
:102250008F2D8695FE01E80FF11DCF018170992722
:1022600098014091340260913302FC01EE9EC0015E
:10227000EF9E900D11240E94B00BF3940D5F1F4F41
:10228000F6E0FF12E5CFDF91CF911F910F91FF9004
:10229000EF900C94810CDF91CF911F910F91FF90E3
:1022A000EF90089580918901882391F12091310266
:1022B000822F86958F739EE3980F9F73943018F446
:1022C00082500C940A0F9AE3980F9F73933018F47E
:1022D00086500C94600F97E3980F9F73963018F414
:1022E00089500C94900F91E3980F9F73963018F4D7
:1022F0008F500C94ED0F9BE2980F9F73933018F45E
:1023000085510C9481102E77203311F40C94031115
:10231000089531B3242F2095232331B3342B4FB7A5
:10232000F894FC01680F791FE617F70789F081918F
:1023300098E031BB000000C087FF21BB880F000080
:1023400000C000C000C021BB00C09A9591F7ECCF3F
:102350004FBF089520B3242B20BB9B01220F331FB6
:10236000260F371FB9010E94891187EC90E0019771
:10237000F1F700C00000089540E40C94AA11909376
:10238000900180938F010895E0918F01F091900169
:10239000309721F00190F081E02D099480E00895BC
:1023A000E0918F01F0919001309721F00280F3814C
:1023B000E02D09940895E0918F01F09190013097FC
:1023C00021F00480F581E02D0994089520918D017C
:1023D00030918E018217930771F090938E01809354
:1023E0008D01E0918F01F0919001309721F00680EE
:1023F000F781E02D0994089520918B0130918C0193
:102400008217930771F090938C0180938B01E09178
:102410008F01F0919001309721F00084F185E02D3B
:102420000994089508950C94121281E008950E9471
:102430008D1E0E94AC0A0E94611F0C94900E5F9248
:102440006F927F928F929F92AF92BF92CF92DF92C4
:10245000EF92FF920F931F93CF93DF93CDB7DEB729
:102460002A970FB6F894DEBF0FBECDBF0E94FA0ABE
:102470000E941512811111C08FEF89838A831B82FC
:102480000E94961E8160782F9D838C8349815A819A
:102490006B818D810E94DD1257C092E9C92E91E0B7
:1024A000D92E00E010E0AA24A394B12C502E802F46
:1024B0000E94A60B3C01F601E190F1906F01E82625
:1024C000F926E114F10431F40F5F1F4F05301105B7
:1024D00069F7D2CF8091010281FD0E94AF0B20E00D
:1024E00030E04501022E02C0880C991C0A94E2F7E4
:1024F000C4018E219F21892B09F12E835F826820E0
:10250000792081E0672809F480E088870E94961E80
:102510008160782F9A8789874E815F8168858A8557
:102520000E94DD12F801EE0FFF1FEE56FE4F808174
:102530009181882599259183808306C02F5F3F4F25
:102540002F30310571F6C0CF0E9401221091910108
:102550000E94C4111817D9F00E94C41180939101F0
:102560002A960FB6F894DEBF0FBECDBFDF91CF9194
:102570001F910F91FF90EF90DF90CF90BF90AF90A1
:102580009F908F907F906F905F900C94FA072A969F
:102590000FB6F894DEBF0FBECDBFDF91CF911F9174
:1025A0000F91FF90EF90DF90CF90BF90AF909F90F2
:1025B0008F907F906F905F900895CF93DF93CDB70A
:1025C000DEB72B970FB6F894DEBF0FBECDBF4F839B
:1025D000588769877A878B87DE01119686E0FD012F
:1025E00011928A95E9F785E0FE01379601900D92E8
:1025F0008A95E1F749815A816B817C818D819E8129
:102600000E943B1A2B960FB6F894DEBF0FBECDBFCB
:10261000DF91CF910895FC01808191810E949F1CE0
:102620000895CF93DF931F92CDB7DEB7682F88232D
:1026300009F402C18238C1F40E94C41181FDFCC0BA
:1026400069E380910201909103010E94FC1D0E94A8
:10265000DF1C2FEF81EE94E0215080409040E1F7A5
:1026600000C0000069E319C0833811F50E94C4114D
:1026700080FDE2C063E580910201909103010E9418
:10268000FC1D0E94DF1CEFEFF1EE24E0E150F04072
:102690002040E1F700C0000063E5809102019091C5
:1026A00003010E94071E0F90DF91CF910C94DF1C55
:1026B0008438C1F40E94C41182FDBEC067E48091D9
:1026C0000201909103010E94FC1D0E94DF1C8FEF0C
:1026D00091EEE4E081509040E040E1F700C000005E
:1026E00067E4DBCF8CEF860F813A70F4862F698325
:1026F0000E942524698181119FC0809102019091DF
:1027000003010E94FC1DCFCF80E2860F883048F481
:10271000677081E001C0880F6A95EAF70E94151D75
:10272000C2CF8BE5860F833088F4653A29F0663A8C
:1027300031F482E890E005C081E890E002C083E8CF
:1027400090E00F90DF91CF910C94E61188E5860F11
:10275000853108F071C0683A61F1693A69F16A3A05
:1027600071F16B3A79F16C3A81F16B3B89F16C3B19
:1027700091F16D3A99F1603BA1F16E3AA9F16F3A8E
:10278000B1F1613BB9F1623BC1F1633BC9F1643B1B
:10279000D1F1653BD9F1663BE1F1673BE9F1683B7B
:1027A000F1F1693BF9F16A3B09F03FC08AE292E03E
:1027B0003EC082EE90E03BC089EE90E038C08AEEE9
:1027C00090E035C085EB90E032C086EB90E02FC002
:1027D00083EB90E02CC084EB90E029C087EB90E085
:1027E00026C08CEC90E023C08DEC90E020C083E804
:1027F00091E01DC08AE891E01AC082E991E017C01B
:1028000084E991E014C081E292E011C083E292E099
:102810000EC084E292E00BC085E292E008C086E23E
:1028200092E005C087E292E002C080E090E00F9065
:10283000DF91CF910C94FC110F90DF91CF9108950F
:10284000882309F45DC0823879F40E94C41181FFA5
:1028500057C069E380910201909103010E94FC1D21
:102860000E94DF1C69E310C08338B1F40E94C411D8
:1028700080FF46C063E580910201909103010E94B0
:10288000FC1D0E94DF1C63E5809102019091030111
:102890000E94071E0C94DF1C843879F40E94C41136
:1028A00082FF2EC067E480910201909103010E9493
:1028B000FC1D0E94DF1C67E4E7CF9CEF980F913A64
:1028C00010F4682FE1CF90E2980F983050F48770A1
:1028D00091E001C0990F8A95EAF7892F0E941B1D8C
:1028E000D9CF9BE5980F933020F480E090E00C94D2
:1028F000E611885A853120F480E090E00C94FC11B8
:102900000895882321F00E94151D0C94DF1C089562
:10291000882321F00E941B1D0C94DF1C08958F92C8
:102920009F92BF92CF92DF92EF92FF920F931F93ED
:10293000CF93DF9300D0CDB7DEB74C01472FFC011A
:10294000C580C2949FE0C922D280DD2031F0798316
:102950006A830E94321D6A81498149836A830E9489
:10296000D81C49816A81882389F0DD2079F080E2D2
:10297000860F883058F082E00E94C11C0E94D81C4B
:10298000BB24B394B82649816A8101C0B12CE42EDE
:10299000E2948FE0E822F12CF701E859FF4F0C9404
:1029A000142F842F807F142F1F70882311F012950D
:1029B000107FDD20C1F0112309F4E0C180E2860F11
:1029C000883010F0611105C0812F6A830E94151DA7
:1029D00004C0812F6A830E94251D6A816A830E9438
:1029E000DF1C6A81CBC1862F6A830E9420146A8112
:1029F000112309F4E4C180E2860F883010F06111E0
:102A000004C0812F0E941B1D03C0812F0E942B1D1B
:102A10000E94DF1CD4C1842F807F142F1F7080324E
:102A200011F01295107F662319F06130D9F026C09D
:102A3000DD2079F0CC2049F0F1E0CF1206C00E94F1
:102A40004B1D812B0E94451DBAC10E944B1D812B3D
:102A50004AC1CC2021F021E0C21609F4B0C10E9485
:102A6000481D46C1DD2029F085E08C1508F4A7C17A
:102A700039C194E09C1508F4A2C13AC1DD2051F09F
:102A8000CC2009F42FC1F401858180FF77C18F70BC
:102A9000858328C1CC2009F42BC181C1242F269520
:102AA0002695237030E02115310521F021303105C4
:102AB00061F085C1DD2021F0862F942F937002C034
:102AC00080E090E00E94E6118AC1DD2021F0862F8F
:102AD000942F937002C080E090E00E94FC117FC1AF
:102AE000DD20F9F0653F51F0663F71F0643FA9F4D5
:102AF00080914D0290914E0281600BC080914D02F9
:102B000090914E02826005C080914D0290914E02DC
:102B1000846090934E0280934D02862F0E9409217B
:102B200022C0653F51F0663F91F0643FC9F4809147
:102B30004D0290914E028E7F05C080914D02909182
:102B40004E028D7F90934E0280934D0209C02091DA
:102B50004D0230914E022B7F30934E0220934D0256
:102B6000862F0E9471210E94F62139C1842F837023
:102B700009F04EC0D1102FC1262F2295269527701F
:102B8000220F220F862F8F70C82ED12CE12CF12C12
:102B9000022E04C0CC0CDD1CEE1CFF1C0A94D2F7E4
:102BA00064FF10C06FE070E080E090E004C0660F4A
:102BB000771F881F991F2A95D2F760957095809589
:102BC000909503C060E070E0CB01242F26952695F8
:102BD000237030E02230310569F02330310589F06F
:102BE0006C297D298E299F292130310571F00E94A1
:102BF0008C1BF1C06C297D298E299F290E949E1B68
:102C0000EAC00E948C1BC701B6010E947A1BE3C078
:102C1000DD2019F0842F817001C08695882309F486
:102C2000DAC0262F229526952770220F220F862F95
:102C30008F70C82ED12CE12CF12C022E04C0CC0CAC
:102C4000DD1CEE1CFF1C0A94D2F764FF10C06FE07D
:102C500070E080E090E004C0660F771F881F991F26
:102C60002A95D2F7609570958095909503C060E0A5
:102C700070E0CB01242F26952695237030E022307A
:102C8000310569F02330310589F06C297D298E29C1
:102C90009F292130310571F00E943A1C9CC06C299B
:102CA0007D298E299F290E944C1C95C00E943A1CA8
:102CB000C701B6010E94281C8EC0062F10E0F80143
:102CC000E05EF109E531F10508F054C0E858FF4F26
:102CD0000C94142F162F1F70842F8F71DD2031F06C
:102CE0000E94D31B812F0E94811469C00E94EE1B99
:102CF000812F0E94881463C0DD2049F0F4E0FC15A8
:102D000008F45DC0842F8F710E940D1C58C025E00F
:102D10002C1508F454C0F6CFDD2039F0842F8F71C4
:102D20000E94D31B4CC0DD20C9F3842F8F710E94F9
:102D3000EE1B45C0DD2029F0842F8F710E94C41B3B
:102D40003EC00E94BF1B3BC0DD2051F0142F1F71FD
:102D5000812F0E94D31B63E0812F0E94B81C2FC0DB
:102D600081E00E94C11C81E08C1548F582E00E9440
:102D7000C11C25C0DD2031F0CC2081F2862F0E94BD
:102D800011131DC0CC2089F2693349F49FEFE7EE9F
:102D9000F3E09150E040F040E1F700C00000862FE2
:102DA0000E9420140CC04F70C4010E94AC040E9409
:102DB000E81A15C04F70C4010E94FC0710C028E03B
:102DC000E216F10441F05CF09AE0E91AF108E2E061
:102DD000EE16F10420F40E94C4110E94FA07BB20F1
:102DE000F1F00E94B41C80FD1AC0F40112820E940E
:102DF000AE1C0E94D31BC4010E941D170E94AE1C72
:102E00000F900F90DF91CF911F910F91FF90EF9056
:102E1000DF90CF90BF909F908F900C94EE1B0F90FF
:102E20000F90DF91CF911F910F91FF90EF90DF9066
:102E3000CF90BF909F908F9008950F931F93CF9343
:102E4000DF93EC01288139818B819C81892B31F0C2
:102E50003F3F11F080E003C02F3FE1F781E0811197
:102E600013C0CE010E94D704882371F06881798154
:102E70008A810E94AA1C8C010E945E1C0E94771B02
:102E8000B801CE010E948F14DF91CF911F910F9155
:102E900008950E94321D0E94421D8091020190916E
:102EA00003010E94121E0E94DF1C0E948A220E94BF
:102EB000F62180E090E00E94E61180E090E00C9422
:102EC000FC110E94221D0C9449170E949F1CE92F9F
:102ED000E295EF70F0E03297EE30F105B8F4E35789
:102EE000FF4F0C94142F803F59F018F4803E70F47B
:102EF00007C0843F59F404C0803E10F0813F31F494
:102F000081E0089593FB882780F9089580E0089573
:102F1000CF93DF9300D000D01F92CDB7DEB70F90D4
:102F20000F900F900F900F90DF91CF910895CF9356
:102F3000DF9300D000D000D0CDB7DEB726960FB615
:102F4000F894DEBF0FBECDBFDF91CF9108951F93E0
:102F5000CF93DF93C0919C0116E080919D01C8172B
:102F600099F0D0E01C9FF0011D9FF00D1124E25656
:102F7000FE4F4081518162817381848195810E94DD
:102F800097172196C770E9CFDF91CF911F910895D0
:102F90004091CE015091CF016091D0017091D1014B
:102FA0008091D2019091D3010C949717CF93809187
:102FB000D30182958F7009F05FC08091D001882382
:102FC00009F45AC020919C01A0919D016091CE010D
:102FD0007091CF018091D1019091D20131E06F3F8A
:102FE00009F030E0B32FC6E02A1709F445C0009776
:102FF00021F07F3F21F44B2F03C041E001C040E0AE
:1030000030E040FD35C0C29FF001C39FF00D112498
:10301000E256FE4F418174132BC04081641328C0D7
:103020004281411125C0438154814817590710F44A
:1030300041505109481B590B483C5105C8F4809137
:10304000D3018F7080618093D30186E0829FF0016D
:10305000839FF00D1124ED55FE4F80818F708061AC
:1030600080838EEC91E00E941D17CF910C94A717DE
:103070002F5F3F4F2770B8CFCF910895CF92DF9247
:10308000EF92FF920F931F93CF93DF93CDB7DEB7ED
:1030900062970FB6F894DEBF0FBECDBF8C0185E0FE
:1030A000F801DE011D9601900D928A95E1F7D80195
:1030B0004C9111965C91119712966C911297139600
:1030C000ED90FC9014977091CE01E091CF0120918A
:1030D000D1013091D2012115310531F0EF3F31F4AA
:1030E00081E07F3F19F403C081E001C080E0B82F88
:1030F000B170CB2E80FD6BC1D090D001DD2009F4E2
:10310000F5C0F091D301E216F30638F0C701821B37
:10311000930B883C910548F09DC0209530952E0D6D
:103120003F1D283C310508F095C08F2F807F09F0A6
:1031300052C0E51314C0741312C0D62E61110FC013
:10314000FF70F061F093D3010E94C8178EEC91E0FC
:103150000E941D178091D301F80185837CC1EF285F
:1031600031F05F3F31F481E04F3F19F403C081E05B
:1031700001C080E080FD03C081E0862701C080E0BF
:10318000F82FF170FF2E80FF1CC080919C012091D0
:103190009D0136E0821709F438C190E0389FF001B4
:1031A000399FF00D1124E256FE4F7181571306C06E
:1031B0007081471303C07281671303C00196877043
:1031C000E9CFD62E662309F446C18091D3018160F0
:1031D0008093D30155C0E51308C0741306C0611174
:1031E00004C0D8011596FC93AEC04D875E878D85CF
:1031F0009E856A8B0E9465176A89882329F1D62EDD
:10320000662311F12091D301822F82958F7090E077
:1032100002970CF462C08091CE019091CF01988703
:103220008F831986FB86EA862C87CE01079653C0CA
:10323000E51741F14D875E878D859E856A8B0E94DB
:1032400065176A89811130C0C8010E941D17DD24ED
:10325000D39401C18F2F807F59F77E2DF98AE88A98
:1032600089890E9488178EEC91E00E941D17EEEC70
:10327000F1E086E0DF011D928A95E9F70E94C81708
:10328000D12CE9C07413D6CF6111D4CFD8011596D3
:10329000FC93C8010E941D17EEECF1E086E0DF010F
:1032A0001D928A95E9F7D7C0D62E662369F2209140
:1032B000D301822F82958F7090E0029774F08091F5
:1032C000CE019091CF019A8389831B82FD82EC828B
:1032D0002E83CE0101960E941D1786E0F801AEEC08
:1032E000B1E001900D928A95E1F78AC0E216F306EB
:1032F00028F0C701821B930B9C0104C020953095D8
:103300002E0D3F1D283C310508F053C0D62E6623F4
:1033100009F49ACFE5132CC074132AC08091D3010D
:1033200080FD1DC0982F92959F70C9F0D801159609
:103330008C9315979F3039F09F5F9295907F8F7097
:10334000892B15968C93C8010E941D1786E0F80101
:10335000AEECB1E001900D928A95E1F753C086E0A2
:10336000F801AEECB1E001900D928A95E1F773C0DF
:103370004D875E878D859E850E946517882381F025
:1033800096E0F801AEECB1E001900D929A95E1F76C
:103390008A8B0E94D6170E94C8178A89D82E5BC0D4
:1033A0008091D30181608093D301C8010E941D17D1
:1033B00052C07E2DF98AE88A89890E948817EEEC2E
:1033C000F1E086E0DF011D928A95E9F71BC06623D4
:1033D00009F43ACF4D875E878D859E850E946517DB
:1033E000D82E882309F430CF86E0F801AEECB1E0A6
:1033F00001900D928A95E1F78EEC91E00E940B13FB
:103400000E94D6170E94C81726C04D875E878D85FB
:103410009E850E949F1C292F22952F7030E022301C
:1034200031052CF49F7041F0811106C00CC024308E
:1034300031052CF49F7049F4805E883020F0C8017B
:103440000E941D17CF2CDC2C06C0D80115969C912C
:10345000907F91F7F8CF8D2D62960FB6F894DEBF6E
:103460000FBECDBFDF91CF911F910F91FF90EF90D5
:10347000DF90CF9008951F93CF93DF93CDB7DEB742
:103480002C970FB6F894DEBF0FBECDBF4F83588781
:1034900069877A878B879C87CE0107960E943E18A2
:1034A0008823C1F02F8138858A859B85892B31F04F
:1034B0003F3F11F080E003C02F3FE1F781E0811131
:1034C00047C04F81588569857A858B859C850E9488
:1034D00097173EC086E0FE013796DE0111960190F7
:1034E0000D928A95E1F7FF81E8854A855B85411554
:1034F000510531F0EF3F31F481E0FF3F19F403C093
:1035000081E001C080E080FD23C020919D0130E07A
:10351000C90101968770992760919C0170E0861718
:103520009707F1F1F983EA835D834C8396E0929FDC
:10353000D001939FB00D1124A256BE4FFE013196CB
:1035400001900D929A95E1F780939D010E94A71733
:1035500016E080919C0190919D01891779F1189F47
:10356000C001112482569E4F0E943E18882331F1DB
:10357000E0919C011E9FF0011124E256FE4F408114
:10358000518162817381848195810E949717809116
:103590009C0190E001968770992780939C01D9CF78
:1035A0000E94611710929D0110929C01EEECF1E0D7
:1035B00086E0DF011D928A95E9F7CACF2C960FB6F7
:1035C000F894DEBF0FBECDBFDF91CF911F9108955C
:1035D000EF92FF920F931F93CF93DF939C0100977D
:1035E00009F471C0F12CEE24E394E9012196F9016C
:1035F0008491843740F4843008F056C0813081F0E3
:10360000823021F160C0853709F449C0C0F19CE7E0
:10361000980F903708F057C08F770E94201446C04B
:1036200089010E5F1F4FFE01849190E2980F983040
:1036300050F48770FE2D01C0FF0F8A95EAF78F2F97
:103640000E94351D15C00E94111314C089010E5F20
:103650001F4FFE01849190E2980F983068F48770B4
:10366000FE2D01C0FF0F8A95EAF78F2F0E943B1DA8
:103670000E94DF1CE8011AC00E942014FBCF2E5FBD
:103680003F4FFE01C491CC2341F08FE99FE00197A9
:10369000F1F700C00000C150F6CFE90107C0FE01FC
:1036A000F490E901229602C00E9411138F2D882305
:1036B00041F0EFE9FFE03197F1F700C000008150E1
:1036C000F6CF9E0192CFDF91CF911F910F91FF9086
:1036D000EF90089508950E946A1B6093D80170933B
:1036E000D9018093DA019093DB010C944917089576
:1036F0000C946B1B0F931F930091D8011091D9016B
:103700002091DA013091DB01602B712B822B932BFE
:103710001F910F910C946B1B0F931F930091D80175
:103720001091D9012091DA013091DB0160237123DE
:10373000822393231F910F910C946B1B0F931F9364
:103740000091D8011091D9012091DA013091DB016B
:1037500060277127822793271F910F910C946B1B71
:1037600008950C94B01B0E94B11B6093D401709318
:10377000D5018093D6019093D7010C94491760E04E
:1037800070E0CB010C94B31B41E050E060E070E0CE
:1037900004C0440F551F661F771F8A95D2F7CB01CF
:1037A000BA010C94B31B41E050E060E070E004C04B
:1037B000440F551F661F771F8A95D2F78091D40159
:1037C0009091D501A091D601B091D701482B592BEA
:1037D0006A2B7B2BCB01BA010C94B31B41E050E068
:1037E00060E070E004C0440F551F661F771F8A9584
:1037F000D2F740955095609570958091D401909145
:10380000D501A091D601B091D701482359236A234D
:103810007B23CB01BA010C94B31B41E050E060E084
:1038200070E004C0440F551F661F771F8A95D2F7BA
:103830008091D4019091D501A091D601B091D7018A
:10384000482759276A277B27CB01BA010C94B31B61
:103850000F931F930091D4011091D5012091D601AF
:103860003091D701602B712B822B932B1F910F91DD
:103870000C94B31B0F931F930091D4011091D501A9
:103880002091D6013091D7016023712382239323A5
:103890001F910F910C94B31B0F931F930091D401B0
:1038A0001091D5012091D6013091D7016027712761
:1038B000822793271F910F910C94B31B0895CF92E9
:1038C000DF92EF92FF920F931F93CF93DF93EC0160
:1038D000C090D801D090D901E090DA01F090DB01DE
:1038E0008091D4019091D501A091D601B091D701DA
:1038F000C82AD92AEA2AFB2A0FE110E0B701A6015B
:10390000002E04C076956795579547950A94D2F78F
:1039100040FD05C00150110988F780E007C0BE01D5
:10392000802F0E9417080197A9F3802FDF91CF9174
:103930001F910F91FF90EF90DF90CF900895CF935C
:10394000DF93EC010E945F1CBE010E941708DF910B
:10395000CF910895CB010E949F1C08958091DC01B6
:1039600085958595859508958091DC0187700895EA
:1039700098E0899F90011124622B6093DC010C94E4
:10398000D31B4091DC01809584238093DC01982F28
:10399000977069F450E0282F332727FD30954217A0
:1039A000530729F08595859585950C94EE1B089510
:1039B0009091DC01977081E009F480E00895E09136
:1039C0000201F0910301809100028083E0910201E5
:1039D000F091030180819091FF01892B8083E09118
:1039E0000201F091030180819091FE01892B808377
:1039F0009091DD01992381F0E0910201F0910301A2
:103A00008081892B808380910201909103010E9423
:103A1000951D81111092DD018091020190910301A9
:103A20000C94D01180910002089590910002982B7F
:103A300090930002089580959091000298239093AE
:103A4000000208951092000208959091FF01982BB2
:103A50009093FF01089580959091FF019823909392
:103A6000FF0108951092FF0108959091FE01982B97
:103A70009093FE01089580959091FE019823909374
:103A8000FE0108951092FE0108958093DD010895CE
:103A90001092DD0108958091DD0108956DEE7EEFB5
:103AA00080E090E00E944C2F60E082E090E00E9475
:103AB0002E2F60E083E090E00E942E2F60E084E0F3
:103AC00090E00E942E2F60E085E090E00E942E2F73
:103AD00040E050E0BA0188E090E00C94402F80E094
:103AE00090E00E94282F21E08D3E9E4F09F020E0BB
:103AF000822F089582E090E00C941A2F682F82E0C4
:103B000090E00C942E2F83E090E00C941A2F682FF5
:103B100083E090E00C942E2F84E090E00C941A2F18
:103B2000682F84E090E00C942E2F20E030E040E0FD
:103B3000FC01E20FF31F518151114F5F2F5F3F4F87
:103B40002F313105A9F7842F089520E030E04FEFA1
:103B5000FC01E20FF31F5281561799F04F3F19F401
:103B6000511101C0422F2F5F3F4F2E31310581F798
:103B70004F3F39F0FC01E40FF11D47FDFA956283D8
:103B80000895089520E030E0FC01E20FF31F428128
:103B9000461301C012822F5F3F4F2E313105A1F72E
:103BA0000895262F2695269526952F3170F4FC0131
:103BB000E20FF11D677021E030E0062E01C0220FF8
:103BC0000A94EAF78181822B81830895262F269516
:103BD000269526952F3178F4FC01E20FF11D6770D0
:103BE00021E030E0062E01C0220F0A94EAF720956A
:103BF000818128232183089520911401222329F013
:103C00002091530227FD0C94D11D0C94A51D2091E9
:103C10001401222329F02091530227FD0C94E61D64
:103C20000C94C21D20E030E0FC01E20FF31F118272
:103C30002F5F3F4F2F313105B9F708958091590219
:103C4000843021F11092020220E488E190E00FB666
:103C5000F894A895809360000FBE2093600080E0E8
:103C60000E94FA0783B7817F846083BF83B7816036
:103C700083BF7894889583B78E7F83BF88E10FB622
:103C8000F89480936000109260000FBE089508952C
:103C90000895CF930E94471E0E94FA0A0E94481E70
:103CA000C0E08C2F0E94A60B892B29F4CF5FC53072
:103CB000C1F780E001C081E0CF9108950E946117B3
:103CC0000E94C4110C94FA071F920F920FB60F9224
:103CD00011248F939F93AF93BF9380910202811120
:103CE00013C080914F0290915002A0915102B09167
:103CF00052024196A11DB11D80934F029093500234
:103D0000A0935102B0935202BF91AF919F918F91B6
:103D10000F900FBE0F901F90189582E084BD93E026
:103D200095BD9AEF97BD80936E0008952FB7F894D4
:103D300080914F0290915002A0915102B091520295
:103D40002FBF0895CF92DF92EF92FF920F931F93B0
:103D50002FB7F89440914F02509150026091510258
:103D6000709152022FBF6A017B01EE24FF248C0167
:103D700020E030E0C016D106E206F30610F4415010
:103D80005109481B590BCA011F910F91FF90EF90E9
:103D9000DF90CF90089578941F920F920FB60F92F4
:103DA00011248F939F93AF93BF9380914F02909173
:103DB0005002A0915102B09152020196A11DB11D75
:103DC00080934F0290935002A0935102B0935202FD
:103DD000BF91AF919F918F910F900FBE0F901F9049
:103DE000189581E08093E00080E28093D8001092E3
:103DF000C9008FE19EE40197F1F700C0000087E061
:103E000090EBDC018093620290936302A0936402C2
:103E1000B09365022CE088E190E00FB6F894A89585
:103E2000809360000FBE20936000FFCFBF92CF92BF
:103E3000DF92EF92FF920F931F93CF93DF93B12CFA
:103E400001E010E0E82EF12C8B2D0E94A60B6C01F6
:103E5000C0E0D0E098010C2E02C0220F331F0A945C
:103E6000E2F72C213D21232B29F42196CF30D105D7
:103E700089F70AC06C2F7B2D80E00E94FD07E816B1
:103E8000F90699F781E005C0B39485E0B812DCCF5C
:103E900080E0DF91CF911F910F91FF90EF90DF9025
:103EA000CF90BF900895CF93C82F8CE20E94161F29
:103EB000882321F08C2FCF910C94161F80E0CF9196
:103EC0000895CF930E946F1D811102C00E944E1D64
:103ED000C5E6C15049F00E94FA0A8FE39CE90197B8
:103EE000F1F700C00000F5CF89E20E94531F811155
:103EF0000DC18AE20E94531F81110E944E1D85E070
:103F00000E94531F81110E94F11E0E947A1D80930E
:103F1000010287E00E94531F882399F18BE10E94E0
:103F2000531F882351F09091010291FB882780F95B
:103F300021E0822780FB91F922C08EE00E94531F6E
:103F4000882351F09091010292FB882780F921E0AB
:103F5000822780FB92F913C080E10E94531F909149
:103F60000102882341F093FB882780F921E0822712
:103F700080FB93F904C0892F809580FB90F9909382
:103F80000102809101020E947E1D0E948C1D90E022
:103F9000909354028093530280EE0E94531F882313
:103FA00041F080915302982F909590FB80F9809377
:103FB000530289E30E94531F882359F090915302C2
:103FC00091FB882780F921E0822780FB91F990936B
:103FD000530282EE0E94531F882359F0909153029E
:103FE00092FB882780F921E0822780FB92F9909349
:103FF000530286EE0E94531F882359F0909153027A
:1040000093FB882780F921E0822780FB93F9909326
:10401000530283EE0E94531F882359F0909153025C
:1040200094FB882780F921E0822780FB94F9909304
:10403000530285E30E94531F882359F09091530245
:1040400095FB882780F921E0822780FB95F99093E2
:10405000530281E30E94531F882359F09091530229
:1040600096FB882780F921E0822780FB96F99093C0
:10407000530281E10E94531F882359F0909153020B
:1040800097FB882780F921E0822780FB97F990939E
:104090005302809153020E94901D87E20E94531F99
:1040A000C82F8EE10E94531F8111C2608FE10E94D0
:1040B000531F8111C46080E20E94531F8111C860A8
:1040C00081E20E94531F8111C06182E20E94531F4E
:1040D0008111C06283E20E94531F8111C06484E297
:1040E0000E94531F882311F0C06802C0CC2329F01E
:1040F0008C2F0E94871D6C2F03C00E94831D682F88
:1041000070E080E090E0CF910C94781BCF910895FF
:104110008091050280FF0BC06091070185E0689FD8
:10412000B001112475956795759567952AC081FF33
:1041300009C06091070185E0689FB0011124759561
:1041400067951FC082FF07C06091070185E0689FE7
:10415000B001112416C0409106024423C9F06091B9
:104160000601461788F72091070185E0289F9001F6
:104170001124429FC001439F900D112470E00E94C2
:10418000002F6038710540F46115710539F002C0E7
:1041900065E070E0862F08958FE7089581E0089527
:1041A0008091050280FF08C06091050170E075955F
:1041B00067957595679521C081FF06C060910501DF
:1041C00070E07595679519C082FF04C06091050184
:1041D00070E010C0809106028823C1F06091040154
:1041E0008617A0F790910501989FC001112470E0F7
:1041F0000E94002F6038710528F46115710521F0C7
:10420000862F08958FE7089581E0089561E070E0BA
:10421000F4CF803F21F40E948820819504C0813F23
:1042200029F40E948820809309020895823F21F496
:104230000E948820819504C0833F29F40E94882031
:10424000809308020895893F19F40E94D02005C088
:104250008A3F31F40E94D020819580930A0208950C
:104260008B3F21F40E94D020819504C08C3F29F41B
:104270000E94D02080930B020895843F21F4809106
:104280000702816017C0853F21F480910702826098
:1042900011C0863F21F48091070284600BC0873FE4
:1042A00021F480910702886005C0883F31F4809135
:1042B000070280618093070208958D3F21F4809169
:1042C000050281600BC08E3F21F48091050282605F
:1042D00005C08F3F29F48091050284608093050218
:1042E0000895803F39F48091090287FF6CC01092D5
:1042F000090269C0813F29F4809109021816BCF3B4
:1043000062C090910802823F29F497FF5CC010922E
:10431000080259C0833F19F41916CCF354C0893FE1
:1043200041F480910A0218160CF04DC010920A0256
:104330004AC08A3F29F480910A0287FF44C0F6CF21
:104340008B3F39F480910B0287FF3DC010920B0226
:104350003AC08C3F29F480910B021816BCF333C08D
:10436000843F21F4809107028E7F17C0853F21F49E
:10437000809107028D7F11C0863F21F48091070252
:104380008B7F0BC0873F21F480910702877F05C098
:10439000883F31F4809107028F7E8093070213C01B
:1043A0008D3F21F4809105028E7F0BC08E3F21F45A
:1043B000809105028D7F05C08F3F29F48091050211
:1043C0008B7F809305028091080281110EC080913D
:1043D000090281110AC080910A02811106C08091F0
:1043E0000B02811102C010920602089587E092E04C
:1043F0000E94DB110E94961E909304028093030298
:1044000008951F93CF93DF9380910302909104024C
:104410000E94A21E40910602442321F0209108012F
:1044200030E006C0209109015AE0259F9001112437
:104430008217930708F46AC080910802109109025C
:10444000D0910A02C0910B02811107C0111105C061
:10445000D11103C0CC2309F459C04F3F19F04F5F6D
:1044600040930602181624F40E94882080930802C4
:104470008091080287FF05C00E9488208195809363
:104480000802111624F40E9488208093090280916A
:10449000090287FF05C00E94882081958093090248
:1044A00020910802222379F040910902442359F017
:1044B00055EB250390011124309308024503C001F8
:1044C0001124909309021D1624F40E94D020809399
:1044D0000A0280910A0287FF05C00E94D0208195C0
:1044E00080930A021C1624F40E94D02080930B02B1
:1044F00080910B0287FF05C00E94D0208195809398
:104500000B02DF91CF911F910C94F621DF91CF9197
:104510001F910895E7E0F2E085E0DF011D928A95A2
:10452000E9F710920602109205020895833081F196
:1045300028F4813059F08230D1F00895853009F4A3
:1045400049C0B8F1863009F456C008952091090198
:10455000862F90E0820F911D8F3F910520F4620F0E
:104560006093090108958FEF8093090108952091C8
:104570000801862F90E0820F911D8F3F910520F456
:10458000620F6093080108958FEF809308010895EA
:1045900020910701862F90E0820F911D8F3F91059A
:1045A00020F4620F6093070108958FEF8093070155
:1045B000089520910601862F90E0820F911D8F3F74
:1045C000910520F4620F6093060108958FEF8093A8
:1045D0000601089520910501862F90E0820F911D1C
:1045E0008F3F910520F4620F6093050108958FEFCE
:1045F00080930501089520910401862F90E0820F99
:10460000911D8F3F910520F4620F6093040108957E
:104610008FEF809304010895833011F128F48130E5
:1046200049F0823091F00895853081F120F1863093
:10463000C1F1089580910901681720F4861B8093C9
:1046400009010895109209010895809108016817E1
:1046500020F4861B809308010895109208010895A4
:1046600080910701681720F4861B80930701089545
:1046700010920701089580910601681720F4861BA7
:104680008093060108951092060108958091050116
:10469000681720F4861B8093050108951092050188
:1046A000089580910401681720F4861B809304010B
:1046B00008951092040108958B3109F46AC008F539
:1046C0008E3009F470C070F4873009F452C018F4C9
:1046D0008630B9F134C0883009F4A6C08B3009F4B3
:1046E000A3C02DC0813109F479C020F4803109F4D0
:1046F00064C025C0863109F497C0893109F494C09B
:104700001EC0853309F488C060F4873209F484C080
:1047100020F48E3108F072C012C0893209F47CC0D6
:104720000EC0833438F48A3308F066C0883309F445
:104730007BC005C0833409F46FC0883461F080E029
:10474000089580910102817F8E7F8093010281E034
:1047500080930D0208950E9461172FEF83ED90E37F
:10476000215080409040E1F700C000000E94F11EFF
:104770005BC090910102892F8095817080FB90F938
:1047800090930102811150C0997F977F909301020D
:104790004BC09091010291FB882780F921E082278C
:1047A00080FB91F913C09091010292FB882780F958
:1047B00021E0822780FB92F909C09091010293FBCE
:1047C000882780F921E0822780FB93F990930102EA
:1047D000882351F191609093010208950E9461171E
:1047E0009091530297FB882780F921E0822780FB74
:1047F00097F99093530218C027EC01C023EE280FBD
:1048000061E070E080E090E004C0660F771F881FD1
:10481000991F2A95D2F704C061E070E080E090E033
:104820000E94781B0E94611781E0089580E008953E
:1048300080E008958E518A3030F4E82FF0E0E75D93
:10484000FE4F8081089580E00895CF93C82F809116
:104850000D02813069F018F08230B1F180C0E09132
:104860000201F09103018081823209F07AC007C011
:10487000E0910201F09103018081823249F48C2F92
:104880000E94162481111DC08C2F0E945C231AC027
:104890008C2F0E941824811114C0C43179F048F47F
:1048A000CB3079F0C03109F060C082E080930D0216
:1048B00008C0C93219F0C83321F057C010920D0258
:1048C00054C081E0817053C0C93289F118F5C431F8
:1048D00071F1B0F4C73009F046C08EE18093090150
:1048E00082E3809308018AE08093070184E180934A
:1048F000060188E08093050188E28093040133C0BB
:1049000082EE8C0F863078F58C2F0E941A248093CB
:104910000C0229C0CE34E9F020F4CB3421F56AE052
:1049200013C0C13579F0C235F1F461E00DC080915A
:104930000C02882319F010920C0215C081E08093BC
:104940000D0215C061E006C080910C020E94962203
:104950000AC06AE080910C020E940C2304C01092ED
:104960000D0280E004C081E002C080E0ABCFCF91B7
:10497000089580912E0208950F931F93CF93DF9394
:1049800000D01F92CDB7DEB78C010E943227823053
:1049900011F0843019F583E089831B830A838093A7
:1049A000E9008FEF9091E800815095FD06C095EDEC
:1049B0009A95F1F700008111F5CF8091E80085FF0D
:1049C0000DC040E050E063E070E0CE0101960E942F
:1049D0004F278091E8008E778093E8000F900F902A
:1049E0000F90DF91CF911F910F910895CF93DF9397
:1049F00000D01F92CDB7DEB720915902243031F597
:104A000022E02983805891099B838A8383E08093E5
:104A1000E9008FEF9091E800815095FD06C095ED7B
:104A20009A95F1F700008111F5CF8091E80085FF9C
:104A30000DC040E050E063E070E0CE0101960E94BE
:104A40004F278091E8008E778093E8000F900F90B9
:104A50000F90DF91CF910895CF93DF93EC010E94E7
:104A60003227823011F08430F9F482E08093E9003B
:104A70008FEF9091E800815095FD06C095ED9A95D5
:104A8000F1F700008111F5CF8091E80085FF0CC09F
:104A900040E050E065E070E0CE010E944F27809139
:104AA000E8008E778093E800DF91CF910895CF934F
:104AB000DF93EC010E943227823019F0843009F034
:104AC00047C0809114018823E1F08091530287FF51
:104AD00018C084E08093E9008FEF9091E800815046
:104AE00095FD06C095E19A95F1F700008111F5CF8B
:104AF0008091E80085FF2CC040E050E060E270E06B
:104B000017C081E08093E9008FEF9091E800815019
:104B100095FD06C095ED9A95F1F700008111F5CF4E
:104B20008091E80085FF14C040E050E068E070E04C
:104B3000CE010E944F278091E8008E778093E80095
:104B400080E2FE01AEE0B2E001900D928A95E1F7BD
:104B5000DF91CF91089580915802811109C00E9480
:104B6000E1280E943E298091E20084608093E20067
:104B70000895109258020895089508950C945E1EA9
:104B800042E061EC81E00E945B2842E061EC82E05F
:104B90000E945B2842E061EC83E00E945B2842E2D5
:104BA00061EC84E00C945B2880915B02833009F413
:104BB00055C030F4813071F0823009F48EC0089510
:104BC0008A3009F47AC08B3009F460C0893009F06A
:104BD0009CC020C080915A02813A09F096C0809111
:104BE000E800877F8093E80080915E0290915F02E9
:104BF000892B21F060E080E090E003C060E28EE06D
:104C000092E070E00E9498278091E8008B77809373
:104C1000E800089580915A02813209F076C08091AF
:104C20005E0290915F02009719F0039709F06DC042
:104C30008091E800877F8093E8008091E80082FD02
:104C400005C0809159028111F8CF5FC08091F100B9
:104C500080932E028091E8008B7753C080915A0296
:104C6000813A09F052C080915E0290915F02892BD7
:104C700009F04BC08091E800877F8093E800809125
:104C8000E80080FFFCCF8091140136C080915A0269
:104C90008132D9F580915E0290915F02892BA9F54E
:104CA0008091E800877F8093E8000E94902880919F
:104CB0005C02809314010C94611780915A02813236
:104CC00021F58091E800877F8093E8000E9490287A
:104CD00080915D0280932F02089580915A02813A5B
:104CE000A1F48091E800877F8093E8008091E8003C
:104CF00080FFFCCF80912F028093F1008091E8002B
:104D00008E778093E8000C949028089584B7877F6D
:104D100084BF88E10FB6F894809360001092600021
:104D20000FBE80E880936100109261000E94131210
:104D30000E94E1280E943E298091E20084608093D5
:104D4000E20078940E94C12B0E9417128AE091E041
:104D50000E94BF1180915902853069F40E941E1E85
:104D6000809157028823B1F30E94491E882391F352
:104D70000E943927EFCF0E941F120E945211EACFE2
:104D80000C94C226292F332723303105A9F06CF467
:104D90002130310509F448C02230310509F049C0FD
:104DA0008DE690E02BE536E048C021323105F9F080
:104DB0002232310549F13DC099278130910571F0CA
:104DC0002CF4892BB1F5E7E5F6E00DC082309105B2
:104DD00041F0039771F5E7E3F6E005C0E9E4F6E09A
:104DE00002C0EDE3F6E0849190E09F0126C06430BC
:104DF0007105F8F4FB01EE0FFF1FE15CFE4F20810F
:104E0000318189E090E019C06430710590F4FB01B4
:104E1000EE0FFF1FE95CFE4F20813181FB01ED5C4D
:104E2000FE4F808190E009C082E190E028EC36E0FE
:104E300004C080E090E020E030E0FA01318320837C
:104E400008950895CF93C82F0E942127C093300260
:104E5000CF91089580915902843011F482E0089531
:104E600081E0089580913002811102C00C942A27BC
:104E7000089580E189BD82E189BD09B400FEFDCFBE
:104E80008091D8008F7D8093D8008091E00082606F
:104E90008093E0008091E00081FDFCCF0895CF92E7
:104EA000DF92EF92FF920F931F93CF93DF937C01DA
:104EB0008B01EA010E94B128811131C0209731F0A5
:104EC00088819981081B190BE80EF91EC12CD12C81
:104ED0000115110519F18091E80085FD14C080913C
:104EE000E8008E778093E800209741F088819981CF
:104EF0008C0D9D1D9983888385E011C00E94B12887
:104F0000882331F30CC0F70181917F018093F10078
:104F100001501109FFEFCF1ADF0ADACF80E0DF91ED
:104F2000CF911F910F91FF90EF90DF90CF90089558
:104F300020916002309161022617370748F0611511
:104F4000710539F42091E8002E772093E80001C024
:104F5000B901FC0120E061157105B9F18091590298
:104F6000882309F440C0853009F43FC08091E800EF
:104F700083FD3DC08091E80082FF06C08091E8007B
:104F800082FF26C080E008958091E80080FFE3CF93
:104F90002091F3008091F20090E0922B6115710551
:104FA00051F08830910538F421912093F10061503F
:104FB00071090196F3CF21E0089709F020E0809174
:104FC000E8008E778093E800C6CF2111C7CFD6CFF7
:104FD00080915902882339F0853039F08091E800BA
:104FE00083FFCCCF04C082E0089583E0089581E080
:104FF000089520916002309161022617370748F02A
:105000006115710539F42091E8002E772093E800AE
:1050100001C0B901FC0120E061157105C1F1809169
:105020005902882309F441C0853009F440C08091B9
:10503000E80083FD3EC08091E80082FF06C08091B9
:10504000E80082FF27C080E008958091E80080FF9B
:10505000E3CF2091F3008091F20090E0922B611554
:10506000710559F08830910540F424912093F100A6
:105070003196615071090196F2CF21E0089709F04D
:1050800020E08091E8008E778093E800C5CF211161
:10509000C6CFD5CF80915902882339F0853039F0B9
:1050A0008091E80083FFCBCF04C082E0089583E0C5
:1050B000089581E00895982F973058F59093E9006E
:1050C000981739F07091EC002091ED005091F000AC
:1050D00003C0242F762F50E021FF19C03091EB0040
:1050E0003E7F3093EB003091ED003D7F3093ED003B
:1050F0003091EB0031603093EB007093EC00209323
:10510000ED005093F0002091EE0027FF07C09F5F55
:10511000D3CF8F708093E90081E0089580E00895F7
:1051200080915A0287FD05C08091E80080FF0EC083
:1051300012C08091E80082FD05C080915902811162
:10514000F8CF08958091E8008B7708C080915902CC
:105150008111EACF08958091E8008E778093E8006E
:1051600008958091E4009091E50045E62091EC00DF
:1051700020FF21C02091E80020FD21C0209159028C
:10518000222389F0253089F02091EB0025FD0FC006
:105190002091E4003091E5002817390739F3415098
:1051A00041F0C901E3CF82E0089583E0089581E0F2
:1051B000089584E008952091E80022FFDFCF80E089
:1051C00008950E944F290E945729E0EEF0E0808167
:1051D00081608083E8EDF0E080818F77808319BC67
:1051E000A7EDB0E08C918E7F8C9380818F7E808341
:1051F0001092580208950F931F93CF93DF930E944C
:105200004F290E945729C8EDD0E088818F77888385
:1052100088818068888388818F7D888319BC1092FB
:10522000590210925502109257021092560200EE47
:1052300010E0F80180818B7F808388818160888382
:1052400042E060E080E00E945B28E1EEF0E08081D7
:105250008E7F8083E2EEF0E08081816080838081B8
:1052600088608083F80180818E7F8083888180615F
:105270008883DF91CF911F910F910895E8EDF0E0C1
:1052800080818F7E8083E7EDF0E080818160808384
:1052900084E082BF81E0809358020C94FB28E8ED03
:1052A000F0E080818E7F80831092E200089510925A
:1052B000DA001092E10008951F920F920FB60F923C
:1052C00011242F933F934F935F936F937F938F930B
:1052D0009F93AF93BF93EF93FF938091E10082FF81
:1052E0000BC08091E20082FF07C08091E1008B7FBC
:1052F0008093E1000E94C02B8091DA0080FF1FC0E4
:105300008091D80080FF1BC08091DA008E7F80934F
:10531000DA008091D90080FF0DC080E189BD82E173
:1053200089BD09B400FEFDCF81E0809359020E943F
:10533000AB2505C019BC109259020E94B925809175
:10534000E10080FF19C08091E20080FF15C08091CC
:10535000E2008E7F8093E2008091E2008061809382
:10536000E2008091D80080628093D80019BC85E06B
:10537000809359020E94BD258091E10084FF30C0D6
:105380008091E20084FF2CC080E189BD82E189BD6B
:1053900009B400FEFDCF8091D8008F7D8093D800A6
:1053A0008091E1008F7E8093E1008091E2008F7E0A
:1053B0008093E2008091E20081608093E20080911E
:1053C0005502882311F084E007C08091E30087FF35
:1053D00002C083E001C081E0809359020E94BE2593
:1053E0008091E10083FF29C08091E20083FF25C006
:1053F0008091E100877F8093E10082E080935902F1
:10540000109255028091E1008E7F8093E10080919F
:10541000E2008E7F8093E2008091E20080618093C1
:10542000E20042E060E080E00E945B288091F000B2
:1054300088608093F0000E94BC25FF91EF91BF919E
:10544000AF919F918F917F916F915F914F913F911C
:105450002F910F900FBE0F901F9018951F920F92D3
:105460000FB60F9211242F933F934F935F936F9337
:105470007F938F939F93AF93BF93CF93EF93FF93BC
:10548000C091E900CF708091EC001092E90080910A
:10549000F000877F8093F00078940E946A2A10922F
:1054A000E9008091F00088608093F000C093E900EB
:1054B000FF91EF91CF91BF91AF919F918F917F918C
:1054C0006F915F914F913F912F910F900FBE0F9071
:1054D0001F9018951F93CF93DF93CDB7DEB7AA9790
:1054E0000FB6F894DEBF0FBECDBFEAE5F2E08091C3
:1054F000F100819322E0E236F207C9F70E94D42539
:105500008091E80083FF24C120915A0230915B0210
:10551000832F90E08A30910508F01AC1FC01E5560E
:10552000FF4F0C94142F203821F0223809F010C1BD
:1055300008C08091560290915702992389F08260A9
:105540000FC080915E028F70873008F001C1809398
:10555000E9008091EB0085FB882780F91092E90033
:105560009091E800977F9093E8008093F10010926B
:10557000F100CCC0822F8D7F09F0EAC0222319F000
:10558000223061F0E5C080915C02813009F0E0C01A
:10559000333009F080E0809357022AC080915C028A
:1055A000811126C020915E022F708FEF820F86300E
:1055B00008F0CEC02093E9008091EB0080FF18C076
:1055C0008091EB00333011F4806210C080618093D1
:1055D000EB0081E090E001C0880F2A95EAF7809304
:1055E000EA001092EA008091EB0088608093EB0063
:1055F0001092E9008091E800877F8093E8000E9484
:105600009028A6C02111A4C010915C021F77809140
:10561000E3008078812B8093E3008091E800877F0E
:105620008093E8000E9490288091E80080FFFCCFE2
:105630008091E30080688093E300112311F083E000
:1056400001C082E08093590283C02058223008F0C4
:105650007FC080915C0290915D028C3D23E09207B7
:1056600079F583E08A838AE289834FB7F894DE0173
:10567000139620E03EE051E2E32FF0E05093570014
:10568000E49120FF03C0E295EF703F5FEF708E2F33
:1056900090E0EA3010F0C79601C0C0968D939D93BC
:1056A0002F5F243149F74FBF8091E800877F8093B7
:1056B000E8006AE270E0CE0101960E94982715C0CA
:1056C00060915E0270915F02AE014F5F5F4F0E947A
:1056D000C0260097E9F12091E800277F2093E80099
:1056E000BC0189819A810E94F9278091E8008B771B
:1056F0008093E8002DC0203859F58091E800877F1D
:105700008093E800809155028093F1008091E80039
:105710008E7773CF21111CC090915C029230C0F43F
:105720008091E800877F8093E800909355020E9463
:10573000902880915502811104C08091E30087FF79
:1057400002C084E001C081E0809359020E94C0251C
:105750008091E80083FF0AC08091E800877F8093F2
:10576000E8008091EB0080628093EB00AA960FB670
:10577000F894DEBF0FBECDBFDF91CF911F9108958A
:105780000895CF93809159028823B1F08091E90068
:105790008F709091EC0090FF02C090E801C090E003
:1057A000C92FC82B1092E9008091E80083FD0E9468
:1057B0006A2ACF70C093E900CF9108955058BB2753
:1057C000AA270ED09EC18FD130F094D120F031F4B1
:1057D0009F3F11F41EF45FC10EF4E095E7FB55C145
:1057E000E92FA0D180F3BA176207730784079507E2
:1057F00018F071F49EF5B8C10EF4E0950B2EBA2F97
:10580000A02D0B01B90190010C01CA01A0011124C6
:10581000FF27591B99F0593F50F4503E68F11A1672
:10582000F040A22F232F342F4427585FF3CF469503
:1058300037952795A795F0405395C9F77EF41F1625
:10584000BA0B620B730B840BBAF09150A1F0FF0FEF
:10585000BB1F661F771F881FC2F70EC0BA0F621FDB
:10586000731F841F48F4879577956795B795F795CB
:105870009E3F08F0B3CF9395880F08F09927EE0F5D
:105880009795879508950CD03CC134D140F02BD129
:1058900030F021F45F3F19F0F8C0511166C1FBC030
:1058A00041D198F39923C9F35523B1F3951B550BB7
:1058B000BB27AA2762177307840738F09F5F5F4FE3
:1058C000220F331F441FAA1FA9F333D00E2E3AF024
:1058D000E0E830D091505040E695001CCAF729D03E
:1058E000FE2F27D0660F771F881FBB1F261737078D
:1058F0004807AB07B0E809F0BB0B802DBF01FF27BD
:1059000093585F4F2AF09E3F510568F0BEC02DC1ED
:105910005F3FECF3983EDCF3869577956795B795F6
:10592000F7959F5FC9F7880F911D9695879597F911
:105930000895E1E0660F771F881FBB1F621773078A
:105940008407BA0720F0621B730B840BBA0BEE1F9F
:1059500088F7E095089519F40EF097C005C19BC033
:10596000E9D0C8F39638C0F707F80F92E8942BE314
:105970003AEA48EB5FE77DD10F920F920F924DB755
:105980005EB70F9235D1EAE4F1E088D04F915F9194
:10599000EF91FF91E595EE1FFF1F49F0FE57E0687C
:1059A0004427EE0F441FFA95E1F74195550BECD0D3
:1059B0000F9007FEE0C00895BDD088F09F5790F08B
:1059C000B92F9927B751A0F0D1F0660F771F881F24
:1059D000991F1AF0BA95C9F712C0B13081F0C4D03E
:1059E000B1E00895C1C0672F782F8827B85F39F0DC
:1059F000B93FCCF3869577956795B395D9F73EF483
:105A000090958095709561957F4F8F4F9F4F08952A
:105A1000E89409C097FB3EF4909580957095619548
:105A20007F4F8F4F9F4F9923A9F0F92F96E9BB27FE
:105A30009395F695879577956795B795F111F8CF7A
:105A4000FAF4BB0F11F460FF1BC06F5F7F4F8F4FE5
:105A50009F4F16C0882311F096E911C0772321F0DB
:105A60009EE8872F762F05C0662371F096E8862F73
:105A700070E060E02AF09A95660F771F881FDAF7CA
:105A8000880F9695879597F9089597F99F6780E80D
:105A900070E060E008959FEF80EC0895DF93CF936E
:105AA0001F930F93FF92EF92DF927B018C0168941A
:105AB00005C0DA2EEF01DBD0FE01E894A591259117
:105AC000359145915591AEF3EF018ADEFE019701C4
:105AD000A801DA9479F7DF90EF90FF900F911F9172
