:100000000C943D090C94900B0C9481090C9481097B
:100010000C9481090C9481090C9481090C94810938
:100020000C9481090C9481090C94DC300C94AE3151
:100030000C9490270C9481090C9481090C948109EB
:100040000C9481090C9481090C9481090C94810908
:100050000C9481090C94F7270C9481090C94810964
:100060000C9481090C9481090C9481090C948109E8
:100070000C9481090C9481090C9481090C948109D8
:100080000C9481090C9481090C9481090C948109C8
:100090000C9481090C9481090C9481090C948109B8
:1000A0000C9481090C9481090C948109B40CB90C4D
:1000B000BE0CC60CCE0CD30CEE0C330D330D330D31
:1000C000F30CFB0C030D080D0D0D120D310E370E48
:1000D0003B0E3E0E420E460E4A0E4E0E530E570E6D
:1000E0005B0E5F0E620E660E6A0E6E0E720E770E5D
:1000F000131E131E4D1E4D1E901EB21E21202120C8
:10010000F81E21209F1F9F1F1520212021201C2029
:10011000AC1FAC1FAC1FAC1FAC1FAC1FAC1FAC1F87
:10012000AC1FAC1FAC1FAC1FAC1FAC1FAC1FAC1F77
:10013000BE1FCE1FD51FDC1FE61FB520B520C8206F
:10014000C820BE20C820C820C820B520B520C420A3
:10015000C820C820C42013323A3228333A32283318
:100160008232A5322833FB320A3307634236B79B0B
:10017000D8A71A39685618AEBAAB558C1D3CB7CC07
:100180005763BD6DEDFD753EF6177231BF0000007F
:10019000803F05A84CCDB2D44EB93836A9020C50D8
:1001A000B9918688083CA6AAAA2ABE000000803F12
:1001B00001E301E0014F024F02E002E30001E3012D
:1001C000E00150025002E002E30001E301150215D4
:1001D00074FF02E374FF010602060110021001071A
:1001E00002070128022874FF01130213010C020CFC
:1001F00001110211010A020A012C022C01E001196D
:10020000021902E00001E30115021502E3010602F2
:100210000601100210010702070128022874FF746A
:10022000FF010C020C011302130106020601120267
:10023000120111021101090209010C020C010A024A
:100240000A012C022C0138023801040204010F02B9
:100250000F010F020F012802280001E3011502150A
:1002600074FF02E374FF0106020601100210010789
:100270000207012802280001E0010402040106022D
:100280000602E00001E00119021902E00001E001AC
:1002900006020602E000757365726E616D65012BE2
:1002A00070617373012B012800750A012B022B0169
:1002B0000C020C01110211012B022B012802280152
:1002C0002B022B012B022B012B022B010C020C0108
:1002D000110211012B022B0128022800750A012BA3
:1002E000022B0112021201170217012B022B012807
:1002F0000228012B022B012B022B012B022B011DAB
:10030000021D01150215012B022B01280228007580
:100310000A012B022B0112021201130213012B02FC
:100320002B01280228012B022B012B022B012B026F
:100330002B011D021D01150215012B022B012802A4
:1003400028006970636F6E666967202F616C6C00AE
:1003500000750A0127022701060206012B022B0164
:100360002B022B01040204012B022B00011B021B98
:1003700000750A01E001170217011902190128028C
:100380002802E0007777772E737570706F72742E85
:100390007865726F782E636F6D012800656D6169F5
:1003A0006C00750A01040204010702070110021023
:1003B000010C020C01110211744B012B022B011EC6
:1003C000021E011E021E011E021E011E021E012827
:1003D00002280001E3012B022B02E3002E001E0085
:1003E0001F002000210022002B0014001A0008002A
:1003F00015001700280004001600070009000A0075
:10040000E1001D001B000600190005002961E20043
:10041000E30050004F000100DD5CE0004E004B00A7
:1004200000000000E1002A000000000000000000C1
:100430002D00270026002500240023003100130092
:1004400012000C0018001C00280033000F000E00E2
:100450000D000B0035003800370036001000110089
:100460003400510052004F0050000100DE5C4C008F
:100470004A0035000000000028002C0000000000A9
:10048000000000002E001E001F002000210022009E
:100490002B4514001A00090013000A00284004002C
:1004A0001500160017000700E1001D001B000600E4
:1004B000190005002961E200E30050004F002A0006
:1004C000DD5CE0004E004B0000000000E1002A006F
:1004D00000000000000000002D002700260025007D
:1004E00024002300310033001C0018000F000D0011
:1004F000280012000C00080011000B003500380025
:100500003700360010000E003400510052004F003A
:1005100050002C00DE5C4C004A003500000000005A
:1005200028002C0000000000000000002E001E002B
:100530001F002000210022002B003400360037006D
:1005400013001C00296104001200080018000C00B0
:10055000E100330014000D000E001B002B45E000ED
:10056000E200E300DD5C2C00DD5CE0004E004B00AF
:1005700000000000E1002A00000000000000000070
:100580002D00270026002500240023002D000F0049
:10059000150006000A0009003800160011001700B7
:1005A0000B00070028401D0019001A00100005006C
:1005B0004F0052005100500052002A00DE5C4C00F7
:1005C0004A0035000000000028002C000000000058
:1005D0000000000001003A003B003C003D003E00EE
:1005E00001001E021F022F02300231020100200210
:1005F00021022602270235000100220223022F00D9
:1006000030003502005C0100010001000100010022
:10061000DD5CE0004E004B0000000000E1002A001D
:1006200000000000000000004400430042004100C0
:1006300040003F004500250226002500240052000E
:1006400001002E0223002200210051000100310090
:1006500020001F001E00240201002E00270037008A
:1006600001000100DE5C4C004A0035000000000083
:1006700028002C00000000000000000035001E00D3
:100680001F0020002100220025001E0003301E0054
:100690001E001E0025001E001E001E001E00C15C64
:1006A00025001E001E001E001E00C05C005C1E0017
:1006B0001E001E001E000100DD5CE0004E004B002D
:1006C00000000000E1002A0000000000000000001F
:1006D0002D002700260025002400230000005600DE
:1006E00023002200210000000000570020001F000E
:1006F0001E00000000000000370027002700C05C3B
:10070000005C00000000550054000000DE5C4C005E
:100710004A0035000000000028002C000000000006
:1007200000000000000000000000000000000000C9
:1007300000000000000000000000000000000000B9
:1007400000000000000000000000000000000000A9
:100750000000000000000000000000000000000099
:100E5000000000000000000000000000DB5CC05C3F
:100E6000C15CC25CC45CC35CCB5CCC5CCD5CCE5C66
:100E700001000100CF5CD05CD15CD25C01000100BC
:100E80000100010001000100010001001E001F001F
:100E9000200021000100010001000100010001000B
:100EA0000000000001000100000000000000000040
:100EB00001000100C75CC85CC55CC65C01000100A4
:100EC000010001000100010001000100010001001A
:100ED000010001000100010001000100010001000A
:100EE0000100010025002400230022000100010070
:100EF00001000100000000000100010000000000EE
:100F00000000000000000000000000002A2B280064
:100F100000000000000000000000000000000029A8
:100F2000000000002C1E3420212224342627252EE8
:100F3000362D3738271E1F20212223242526333320
:100F4000362E37381F0405060708090A0B0C0D0E4C
:100F50000F101112131415161718191A1B1C1D2F18
:100F60003130232D350405060708090A0B0C0D0E38
:100F70000F101112131415161718191A1B1C1D2FF8
:100F80003130354C0000000000000000000000007F
:100F90000000000000000000000000000000000051
:100FA0000000000000010101010101000101010137
:100FB0000000000000000000000000000000010030
:100FC0000100010101010101010101010101010112
:100FD0000101010101010101010101010101010002
:100FE00000000101000000000000000000000000FF
:100FF00000000000000000000000000000000001F0
:10100000010101006801F000B40078005A007F3F40
:101010001F643214643214783C1E1E140A0500004A
:1010200000000001010101010101010102020202AF
:101030000202020202030303030303030304040482
:101040000404040505050505060606060607070748
:1010500007080808080909090A0A0A0A0B0B0B0CF9
:101060000C0C0D0D0D0E0E0F0F0F10101111111293
:101070001213131414151516161717181819191A10
:101080001A1B1C1C1D1D1E1F1F2020212222232471
:10109000252526272728292A2B2B2C2D2E2F2F30AC
:1010A000313233343536363738393A3B3C3D3E3FC2
:1010B0004041424344464748494A4B4C4D4F5051AA
:1010C0005253555657585A5B5C5E5F606263646664
:1010D00067696A6C6D6E707173747678797B7C7EEB
:1010E0008081838486888A8B8D8F91929496989A3A
:1010F0009B9D9FA1A3A5A7A9ABADAFB1B3B5B7B950
:10110000BBBDBFC1C4C6C8CACCCFD1D3D6D8DADC28
:10111000DFE1E4E6E8EBEDF0F2F5F7FAFCFF0403BB
:10112000300000000E034400610063007400790089
:101130006C000000160343004800200062006F00AE
:1011400078004D006F006400730000000403090480
:1011500009025400030100A0FA0904000001030180
:101160000100092111010001224000070581030847
:10117000000A090401000103010200092111010014
:1011800001224D000705820308000A09040200013C
:101190000300000009211101000122360007058328
:1011A0000308000A1201100100000008EDFE603083
:1011B00001000102030105010980A1018502160158
:1011C000002603001A81002A830075109501810012
:1011D000C0050C0901A1018503160100269C021A15
:1011E00001002A9C02751095018100C005010902C9
:1011F000A1010901A1000509190129051500250111
:10120000950575018102950175038101050109307C
:1012100009311581257F95027508810609381581E8
:10122000257F950175088106050C0A380215812570
:101230007F950175088106C0C005010906A1010559
:101240000719E029E7150025019508750181029528
:101250000175088101050819012905950575019198
:10126000029501750391010507190029FF15002654
:10127000FF00950675088100C00011241FBECFEF46
:10128000DAE0DEBFCDBF04B603FE24C08091B40215
:101290009091B502A091B602B091B7028730904B01
:1012A000A740B04BB9F41092B4021092B50210925C
:1012B000B6021092B70214BE84B7877F84BF88E15C
:1012C0000FB6F89480936000109260000FBEE0E0CB
:1012D000F8E3099511E0A0E0B1E0E8ECFDE602C01A
:1012E00005900D92A439B107D9F712E0A4E9B1E055
:1012F00001C01D92A43BB107E1F70E94062E0C9499
:10130000E2360C9400000C94370D80914D028360FE
:10131000886080934D02ADE6B1E021E030E08D9130
:10132000E82FE295EF70F0E041A18F70B90102C0A3
:10133000660F771F8A95E2F7CB01962F9095492388
:1013400041A392A1982B92A371E0A437B70739F774
:10135000A7E6B1E021E030E08D91E82FE295EF7053
:10136000F0E041A18F70B90102C0660F771F8A9526
:10137000E2F7CB01962F9095492341A392A1982B98
:1013800092A371E0AD36B70739F7559A209AE4E990
:10139000F1E0A3EAB1E011921D9281E0E23AF80790
:1013A000D1F70C9426112F923F924F925F926F9239
:1013B0007F928F929F92AF92BF92CF92DF92EF92E5
:1013C000FF920F931F93CF93DF93809100018823A7
:1013D00019F000E010E002C007E010E09DE6E92E01
:1013E00091E0F92EA8014D555E4F6A01EA01AA2449
:1013F000A394B12C6624639434E0732E4E0158807C
:101400001882D7012D917D01E22FE295EF70F0E077
:1014100081A12F70A50102C0440F551F2A95E2F744
:101420009A01842B81A382A1442E4094842182A31B
:1014300050EA5A95F1F787E6282E81E0382E80E0B1
:1014400090E0D1015D911D01652F62956F7070E094
:10145000DB0190966C9178815F70D50102C0AA0F74
:10146000BB1F5A95E2F76A2339F44A2D082E01C0B2
:10147000440F0A94EAF701C040E0472B48830196E5
:1014800086309105F1F681A1842181A382A1822B6E
:1014900082A32196F4018081581659F06092B1011F
:1014A0000E94C2279093B3018093B2018BB187252C
:1014B0008BB9F4E7EF16F1E0FF0609F09FCF8091BA
:1014C000B1018823D1F08091B2019091B3010E94C3
:1014D000CE27069790F080E090E00C561E4FF80162
:1014E000E80FF91FD601A80FB91F2C912083019690
:1014F00087309105A1F71092B10181E0DF91CF9182
:101500001F910F91FF90EF90DF90CF90BF90AF9021
:101510009F908F907F906F905F904F903F902F9013
:101520000895CF93DF9380910001882319F0C7E0DD
:10153000D0E002C0C0E0D0E00E94020C009791F41D
:1015400020E030E0CC56DE4FF901EA54FE4F4081F6
:10155000FE01E20FF31F40832F5F3F4F273031051D
:1015600099F702C081E090E0DF91CF910895CF9389
:101570000E94D309C82F0E94910A892BF9F05D9827
:101580009091A2019F5F9093A2019630D0F080913C
:101590000001882319F047E050E002C040E050E02D
:1015A00020E030E04C565E4FFA01E20FF31F10824C
:1015B0002F5F3F4F27303105B9F703C05D9A109276
:1015C000A2010E9428118C2FCF9108950E94D30967
:1015D00080910001882319F020E030E002C027E06C
:1015E00030E080E090E02C563E4FF901E80FF91F03
:1015F0004081FC01EA54FE4F4083019687309105FB
:10160000A1F70895E82FF0E0EC56FE4F8081089591
:101610000895E8EDF0E08081806180838AE18A9519
:10162000F1F700C08091D900817008958EE090E0BC
:101630000E949A3691E0811101C090E090930001E0
:101640000E94090B882319F00E94830B04C00E949A
:10165000B9270E94870B789408950E9485090E94FB
:10166000E60AFDCF0E94160B0E94090B811102C0F1
:101670000E942D0B0895509A08955098589A0895F5
:10168000589A08951F93CF93DF93C82F0E943B0B66
:1016900018E0D0E0115088F0CE01012E02C09595DF
:1016A00087950A94E2F780FF03C00E94400B01C0B7
:1016B000589880E88A95F1F7EDCFDF91CF911F918F
:1016C00008950E943D0B489BFECF80E88A95F1F774
:1016D00008950E943D0B98E080E029B12170880FA9
:1016E000822B20E82A95F1F725E02A95F1F70000F2
:1016F000915099F708950E943B0B589880E88A957D
:10170000F1F70C94400B0E943B0B0C94400B0E9491
:101710003D0BE89AE9E6F0E080818C7F80830895B4
:101720001F920F920FB60F921124CF92DF92FF9269
:101730000F931F932F933F934F935F936F937F93D9
:101740008F939F93AF93BF93EF93FF93CF93DF93C9
:101750001F92CDB7DEB70E947B0BC12CD12CF12C90
:1017600086010A541E4FF80180810E94420B0E949C
:101770007B0BF8018081F80EFFEFCF1ADF0A87E0BC
:10178000C816D10469F78F2D0E94420B0E947B0B73
:10179000E0E8EA95F1F7F0E4FA95F1F70E94690BB9
:1017A0008093B5010E947B0B1091B5010E94690BDB
:1017B00089830E947B0B0E943D0B8981181721F0C1
:1017C0008091B401816003C08091B4018E7F8093C9
:1017D000B4010F90DF91CF91FF91EF91BF91AF9145
:1017E0009F918F917F916F915F914F913F912F9139
:1017F0001F910F91FF90DF90CF900F900FBE0F9031
:101800001F901895CF92DF92FF920F931F93CF9363
:10181000DF931F92CDB7DEB7F8940E943B0B589828
:1018200085E08A95F1F700000E943D0B0E94400B75
:10183000E0E8EA95F1F7489934C00E94610BC12CA9
:10184000D12CF12C0E94690B86010A541E4FF8011D
:1018500080830E94610BF8018081F80EFFEFCF1AA0
:10186000DF0A87E0C816D10469F70E94690B8983F3
:101870000E94610B8981F81214C08091B5010E9409
:10188000420B0E94610B8091B5010E94420B0E94A5
:10189000610B0E943B0B0E94400B789480E090E02B
:1018A00003C0789481E090E00F90DF91CF911F9179
:1018B0000F91FF90DF90CF9008950C94360DFC01AE
:1018C0008081813019F48DE892E007C0823019F4EC
:1018D00084E892E002C087E792E00C945324FC0174
:1018E0008081813019F48AE592E007C0823019F4D2
:1018F00085E092E002C08AEC91E00C945324FC0154
:101900008081813019F48DEB91E004C0823021F4A4
:1019100080EB91E00C9453240895FC018081813088
:1019200029F488E30E94531C88E304C081E30E94E9
:10193000531C81E30C94621DCF93DF93EC010E9452
:10194000F026BE0180E090E0DF91CF910C94E3247B
:10195000DC01462F50E04031510508F084C04A5A5E
:101960005F4FFA010C94943612968C911297811164
:1019700062C012968C911297811160C012968C9160
:101980001297882319F08CE993E052C012968C913B
:101990001297882319F084E893E04AC012968C913C
:1019A000129781114EC012969C91129715968C91A8
:1019B000992351F0982F92959F7011F080FF53C09A
:1019C00083E00E943E254FC0982F92959F7011F0A2
:1019D00080FF3AC083E00E94592545C012968C9141
:1019E0001297811134C012968C911297882319F0A6
:1019F00080E593E01DC012968C911297882319F010
:101A000082E493E015C012968C911297811122C046
:101A100012968C911297811120C012968C91129778
:101A200081111EC012968C918823E9F086E992E01C
:101A30000E94B11018C083ED93E0089582EA93E00C
:101A4000089581E793E008958CE693E0089581E599
:101A500093E008958FE093E008958CED92E008956F
:101A600089EA92E0089580E090E00895089508954D
:101A7000CF93FB018C3D2CE5920701F140F48A3DA8
:101A80002CE5920799F08B3D9C4551F03FC08E3D6F
:101A90002CE59207E1F0C0F0803E9C4561F136C034
:101AA000C281CC23A1F181E090E005C0C281CC23AA
:101AB00071F182E090E00E949C0C23C0C281CC2393
:101AC00031F184E090E0F7CFC28183E002C0C281AF
:101AD00084E0CC2341F00E943E2540E164E083E0B5
:101AE0000E9414110EC00E94592540E164E083E079
:101AF0000E9414110CC0C28180E1CC2321F00E940D
:101B00003E25C0E004C00E94592501C0C1E08C2FD1
:101B1000CF91089581E008950C94380D0E94A32080
:101B20002FEF84E39CE0215080409040E1F700C01B
:101B3000000087E797E790930108809300080C94D2
:101B40001D280F931F93CF93DF938C01FC01C0815D
:101B5000D181CE010E94CA25BE010E943211EC0142
:101B6000B8010E94411AB801CE010E948C0D882351
:101B700009F498C2B801CE010E94821A882309F4A0
:101B800091C2B801CE010E949313882309F48AC23E
:101B9000C93CFCE5DF0741F4F8018281882309F4A0
:101BA00081C20E9482147EC2CA3C8CE5D80708F02C
:101BB00036C1C13C9CE5D90761F4F80182818823D4
:101BC00009F470C20E947D268272F1F00E94FE1616
:101BD00069C2C23CECE5DE07D0F0F8018281C53C69
:101BE000FCE5DF0709F4F0C008F000C1C33CECE5F8
:101BF000DE0709F4EFC008F0F3C0882309F452C2ED
:101C00000E947D26827211F30E94F4164BC2C531E8
:101C1000FCE5DF0708F0A3C0C2308CE5D80708F464
:101C200078C0F8018281882309F47FC00E94DD26F4
:101C3000811102C00E94BC260E94F52690E090937C
:101C4000A6028093A502FE01E350FC45E231F105B6
:101C500020F4EA59FF4F0C9494368091A5028160DC
:101C600003C08091A50282608093A5024BC0809141
:101C7000A5028460F9CF8091A50213C08091A502CE
:101C80008061F2CF8091A5028062EECF8091A502A3
:101C90008064EACF8091A5028068E6CF8091A5029A
:101CA00084608860E1CF8091A5028E7FDDCF809136
:101CB000A5028D7FD9CF8091A5028B7FD5CF809152
:101CC000A50213C08091A5028F7ECECF8091A50280
:101CD0008F7DCACF8091A5028F7BC6CF8091A50250
:101CE0008F77C2CF8091A5028B7F877FBDCF9091E8
:101CF000A50297FB882780F921E0822780FB97F9CE
:101D00009093A5028091A5020E94F9260E94A3202B
:101D1000C9C1C1159CE5D90779F0C130DC45A1F0F6
:101D200081E08093C2018093C301C801DF91CF910C
:101D30001F910F910C948A0DF8018281882309F478
:101D4000B1C10E948E0DAEC1F8018281882309F4D1
:101D5000A9C180914D02816080934D02A3C1C5311C
:101D6000FCE5DF0729F50E947D26382FF801228146
:101D70008091540190915501222371F03A7A21E02B
:101D800009F420E02093BD01222311F065E301C096
:101D900069E20E943A2709C02091BD01222311F077
:101DA00065E301C069E20E943C270E944A267AC18D
:101DB000C03CDC4509F0B4CFF8018281882309F4E6
:101DC00071C10E9433176EC1882309F46BC10E9450
:101DD0000D1668C1882309F465C10E94D51562C13A
:101DE000882309F45FC10E94EE155CC1C73C9CE5E5
:101DF000D90731F4882309F455C10E94421652C113
:101E0000C83CDC4530F4882309F44CC10E942816F4
:101E100049C1882309F446C10E945D1643C1C03DF3
:101E2000FCE5DF07C1F4F8018281882309F43AC197
:101E30000E947414653171058105910540F00E947E
:101E40007414673171058105910508F4DDCE85E1D3
:101E50000E94771627C1C13D8CE5D80708F07AC0EB
:101E6000CC3C9CE5D907B1F4F8018281882309F4C0
:101E700019C10E947414623071058105910540F00A
:101E80000E947414653071058105910508F4BCCE7B
:101E900082E0DECFCD3CECE5DE07B8F4CA3CFCE5E1
:101EA000DF0741F4F8018281882309F4FBC00E9416
:101EB0009714F8C0CB3CDC4509F032CFF8018281A1
:101EC000882309F4EFC081E0C3CFF8018281CE3CC2
:101ED000FCE5DF07A1F4882309F4E4C00E94741430
:101EE000693071058105910540F00E9474146E30CF
:101EF00071058105910508F487CE89E0A9CFCF3C13
:101F0000DC45A0F4882309F4CDC00E947414663027
:101F100071058105910540F00E94741468307105C7
:101F20008105910508F470CE86E092CF882309F4EC
:101F3000B9C00E9474146F3071058105910540F09D
:101F40000E947414643171058105910508F45CCE1A
:101F50008FE07ECFC43DECE5DE0739F5F8018281E4
:101F6000882361F01092C3010E94C2279093C1019F
:101F70008093C00180E20E94C31D94C08091C30180
:101F800081110FC08091C0019091C1010E94CE27A4
:101F90008639910530F487E20E94531C87E20E9443
:101FA000621D80E20E94CA1D7DC0C53DFCE5DF07C1
:101FB00008F043C0F8018281C23DFCE5DF07A1F4CF
:101FC000882309F46FC00E9474146931710581057A
:101FD000910540F00E9474146232710581059105EB
:101FE00008F412CE89E134CFC33DDC4528F48823C0
:101FF00009F458C088E12CCF882351F01092C20117
:102000000E94C2279093BF018093BE0182E0B3CFAC
:102010008091C20181110FC08091BE019091BF01DA
:102020000E94CE278639910530F486E20E94531C27
:1020300086E20E94621D82E0B5CFC83DECE5DE0776
:1020400031F4F8018281882369F180E009C0C93D3B
:10205000FCE5DF0741F4F8018281882319F182E071
:102060000E94A22E1FC0C53DDC4509F059CEF801E3
:102070008281811177CF8091C301811192CF8091AC
:10208000C0019091C1010E94CE278639910508F0C8
:1020900088CF80E20E94CA1D88E20E94531C88E219
:1020A0000E94621D80E0DF91CF911F910F910895F2
:1020B000CF93282F30E0F901EC5FF04FC491F90184
:1020C000EC57F04F2491222359F081EE0E94531CCB
:1020D0008C2F0E94531C8C2F0E94621D81EE04C025
:1020E0008C2F0E94531C8C2FCF910C94621D0F9348
:1020F0001F93CF93DF93EC01062FFE018491882379
:1021000059F19E012F5F3F4F813041F4E901F90100
:102110001491812F0E94531C812F0DC0823031F405
:10212000E901F90184910E94531C0AC0833031F403
:10213000E901F90184910E94621D02C00E945810B9
:102140002196802F8823C9F2EFE9FFE03197F1F75C
:1021500000C000008150F6CFDF91CF911F910F9109
:10216000089560E00C9477104F925F926F927F9287
:102170008F929F92AF92BF92CF92DF92EF92FF9297
:102180000F931F932B013C01C12CD12C7601C394DA
:10219000D701C60104C0880F991FAA1FBB1F4A950B
:1021A000D2F7AC01BD014601570104C0880C991C4F
:1021B000AA1CBB1C2A95D2F7482959296A297B29D0
:1021C000D701C60104C0880F991FAA1FBB1F0A951B
:1021D000D2F76A017B01C420D520E620F720C4167F
:1021E000D506E606F70639F4BC01CD016429752948
:1021F000862997290AC0BC01CD016095709580950C
:10220000909564217521862197211F910F91FF9050
:10221000EF90DF90CF90BF90AF909F908F907F9086
:102220006F905F904F9008950F93382F262F6091F5
:1022300038027091390280913A0290913B02042F4A
:10224000432F0E94B4100F910C941E250C945D0C2A
:102250000E94D91A0C94830908950C942C110C94A3
:102260002D11089596E0799FF001112494E5899F3E
:10227000E00DF11D1124E60FF11DEE0FFF1FE452DA
:10228000FC4F859194910895880F991F8C5F9F4E04
:10229000FC01859194910895CF93DF930E943211B0
:1022A0000E94F312EC01811520E5920708F040C06E
:1022B000811530E4930708F01BC1883E910508F5AD
:1022C000803E910508F08BC1883A910578F4853AF3
:1022D000910508F09DC08130910509F480C108F492
:1022E00037C18430910508F07AC132C18D3B910528
:1022F00008F499C0803C910508F42AC1805C9109DA
:10230000E9C0C11580E2D80758F4C11591E0D9079A
:1023100008F065C1C03FD10508F41AC1D0655FC19E
:10232000C11520E3D20708F0D9C0CE019F70D2C0FA
:10233000811535E5930708F043C0C11584E5D8073A
:1023400008F0EDC0C11592E5D90708F5C11521E5E2
:10235000D20708F0D0C02C2F237081E090E002C09B
:10236000880F991F2A95E2F79C689E01E4E0369554
:102370002795EA95E1F72370922BCF70C695C69505
:1023800030E2C39FE0011124C82BD92B28C18C2F28
:10239000869586959E0123703327C115D34508F095
:1023A000AFC090E2899FE001112481E090E002C07B
:1023B000880F991F2A95E2F7C82BD92BDC680FC12B
:1023C000811529E5920780F4811538E5930708F017
:1023D000ABC0C11586E5D80708F0BAC0CF71DD27BC
:1023E000DC2FCC27D062FBC0C1159AE5D90708F4D1
:1023F000A0C0CE0190568115904208F0A9C08D2F43
:102400008F710E946F13DD27D0628F71D82BE7C0C8
:10241000853A910509F49FC0863A910509F49EC05A
:10242000C3E8D0E4DCC0883A910509F49AC0893A3F
:10243000910509F499C08A3A910509F498C08B3A3C
:10244000910509F497C08C3A910509F496C08B3B2D
:10245000910509F495C08C3B910509F494C08D3A1F
:10246000910509F493C0803B910509F492C08E3A1E
:10247000910509F491C08F3A910509F490C0813B10
:10248000910509F48FC0823B910509F48EC0833B0E
:10249000910509F48DC0843B910509F48CC0853BFE
:1024A000910509F48BC0863B910509F48AC0873BEE
:1024B000910509F489C0883B910509F488C0893BDE
:1024C000910509F487C08A3B910509F086C0CAE2EC
:1024D000D6E485C00E944411EC0181C0CE01992749
:1024E000D3FF03C0EC01D86C7AC0EC01D06C77C08C
:1024F000DF70D06A74C0DC2FCC27C16FD06A6FC088
:1025000090E2899FE001112481E090E002C0880FF1
:10251000991F2A95E2F7C82BD92BDA6860C0DC2F07
:10252000CC27C46FD06A5BC0D82FCC27C06FD06ACD
:1025300056C08C2F8F70806E90E0906A34E0D695F4
:10254000C7953A95E1F7CF709C013C2BE90147C054
:10255000C0E0D0E044C0C1E8D0E441C0C2E8D0E46B
:102560003EC0C2EED4E43BC0C9EED4E438C0CAEEEB
:10257000D4E435C0C5EBD4E432C0C6EBD4E42FC0FC
:10258000C3EBD4E42CC0C4EBD4E429C0C7EBD4E43F
:1025900026C0CCECD4E423C0CDECD4E420C0C3E806
:1025A000D5E41DC0CAE8D5E41AC0C2E9D5E417C015
:1025B000C4E9D5E414C0C1E2D6E411C0C3E2D6E454
:1025C0000EC0C4E2D6E40BC0C5E2D6E408C0C6E241
:1025D000D6E405C0C7E2D6E402C0C0E0D4E4CE0130
:1025E000DF91CF9108958238910549F1B0F481339C
:1025F000910509F459C048F48932910509F44FC096
:102600008A32910509F455C008958533910509F47E
:1026100041C08933910599F00895833E910531F1C8
:1026200038F4803E910591F0823E9105A9F008951D
:10263000863E910501F1873E910539F1089520917B
:10264000A50220FD3BC021FD39C008958091A5025F
:1026500080FF34C089E341C08091A50282FF32C06F
:102660008091A50284FF2CC080E037C08091A50234
:1026700082FD28C0F5CF8091A50283FF25C08091FF
:10268000A50284FDF1CF87EE28C08091A50283FDCD
:102690001BC0F5CF8091A50285FF18C019C080919D
:1026A000A50285FF15C012C08091A50286FF12C049
:1026B00013C08091A50286FF0FC00CC080EE0DC034
:1026C00083EE0BC082EE09C086EE07C085E305C02D
:1026D00089E203C081E301C08AE290E0089590910D
:1026E000A50292FF0DC0282F2871283019F4877F8A
:1026F000846006C0282F2471243011F48B7F8860F9
:1027000093FF0DC0282F2871283119F4877E84612A
:1027100006C0282F2471243111F48B7E886194FD2A
:10272000877E08950895CF93DF93EC01FB018281AA
:10273000811102C081E040C08091D101811125C08A
:10274000C631DC45B9F70E94921381E08093D10134
:102750000E94C2279093D0018093CF011092C401B0
:102760001092C6011092C5011092C8011092C701C3
:102770001092CA011092C9011092CC011092CB01A3
:102780001092CE011092CD0116C08091CF01909190
:10279000D0010E94CE278C32914060F68091C40116
:1027A000E82FF0E0EE0FFF1FEB53FE4FD183C08305
:1027B0008F5F8093C40180E0DF91CF910895DF9215
:1027C000EF92FF920F931F93CF93DF93662309F449
:1027D0004AC0E42FF0E0AFEFB0E0A61BB109BF01A3
:1027E000A69FE001A79FD00DB69FD00D1124FD2F0D
:1027F000DD2E7B01ED1AF1080CE310E0B8010E9418
:102800006C36EB01BC01E69EC001E79E900DF69E82
:10281000900D1124B8010E946C36C230D105B1F080
:1028200040F4209779F0219709F58F2FD42E461B7D
:1028300020C0C430D10599F068F02597B9F4842FF1
:10284000861B17C08F2FD62EDF0E13C0862F8F0F3B
:10285000D42E03C0D42ED61A842F4F2F0AC0842F13
:10286000462F4F0F06C0842FD42E03C080E0D12CFA
:1028700040E0E42FF0E0E25EFF4E4491ED2DF0E009
:10288000E25EFF4E9491E82FF0E0E25EFF4EE491AD
:10289000D90111964C9311979C931296EC93DF916A
:1028A000CF911F910F91FF90EF90DF90089588E0F6
:1028B00090E00C94A236AB01BC0188E090E00C944F
:1028C000C036E5E6F2E083E08083109266028FEF87
:1028D000809367028093680210926902608171811F
:1028E000828193810C945B146091650260FF06C045
:1028F00066956F7370E080E090E0089560E070E0AE
:10290000CB0108958091690290E001968430910591
:1029100014F083E090E08093690260916502709109
:10292000660280916702909168020C945B1480911A
:10293000690290E0019797FF02C080E090E0843048
:10294000910514F083E090E0809369026091650244
:102950007091660280916702909168020C945B14FA
:102960008091650280FF06C060E170E08FE692E032
:102970000C94EE19E1E7F2E0DF0111971C92DF0100
:1029800012971C921082339682E0E13AF807A1F781
:10299000EBCF9091650290FF10C0E1E7F2E0DF011C
:1029A00011978C93DF0112976C934083339692E0DA
:1029B000E13AF907A1F70C94B0140895CF92DF9291
:1029C000EF92FF920F931F93CF93DF9300D01F924C
:1029D000CDB7DEB7F82EC92ED62EE42E00916502B3
:1029E00010916602209167023091680200936A029A
:1029F00010936B0220936C0230936D0280916502FC
:102A000080FF1EC09E012F5F3F4F8F2D0E94DF135E
:102A100080916A02F0FA87F980936A02F694209115
:102A20006B0220782F29C0FA27F920936B02D092ED
:102A30006C02E0926D024B8169818A810E94C91407
:102A40000F900F900F90DF91CF911F910F91FF90FA
:102A5000EF90DF90CF9008958F929F92AF92BF92A8
:102A6000CF92DF92EF92FF920F931F93CF93DF935A
:102A7000EC01862E942E8091650280FF89C0982FEC
:102A80009E77923021F4CE010E94DE1457C0E82FC9
:102A9000E695EF739EE39E0F9F73943018F4909029
:102AA00068024CC09AE39E0F9F73993070F4881FA0
:102AB0008827881F90916602292F220FC22FC82BCA
:102AC00097FB992790F9D92F39C087E28E0F8F7322
:102AD0008A30A0F5F0E07997E0FF02C04FEF01C027
:102AE00041E0EE7FEC5FFF4E2591349184E0369516
:102AF00027958A95E1F742036001439FD00C11248A
:102B00007E0188E9E81A8EEFF80A0FE612E098E6EF
:102B1000A92EBB24B394C701B5010E946C3698015D
:102B2000492D682D0E94DF13EC0CFD1C0D5F1F4F1B
:102B300092E00F39190779F70E94B014809165026D
:102B40009C2FC0FB87F98093650296958091660261
:102B50008078892BD0FB87F9809366028092670288
:102B6000909268026091650270916602809167029E
:102B700090916802DF91CF911F910F91FF90EF909C
:102B8000DF90CF90BF90AF909F908F900C945B148C
:102B9000DF91CF911F910F91FF90EF90DF90CF9039
:102BA000BF90AF909F908F90089520916502221F53
:102BB0002227221F30916602432F440F842F822B3D
:102BC00037FB992790F9089668E671E00E948036F5
:102BD00040916802609167020C942C152091650267
:102BE000221F2227221F30916602432F440F842F79
:102BF000822B37FB992790F9883091051CF4805A75
:102C00009E4F01C0089768E671E00E9480364091AF
:102C10006802609167020C942C1560916702862F00
:102C200090E0883F910514F4685F01C06FEF8091D8
:102C30006502881F8827881F90916602292F220F1E
:102C400097FB992790F940916802822B0C942C15E0
:102C500060916702862F90E0089714F0685001C0D9
:102C600060E080916502881F8827881F9091660226
:102C7000292F220F97FB992790F940916802822B08
:102C80000C942C1540916802842F90E0883F9105A8
:102C900014F4485F01C04FEF80916502881F8827B8
:102CA000881F90916602292F220F97FB992790F990
:102CB00060916702822B0C942C1540916802842F3E
:102CC00090E0089714F0485001C040E08091650200
:102CD000881F8827881F90916602292F220F97FB53
:102CE000992790F960916702822B0C942C15909192
:102CF000650290FF44C09178811102C0926003C0C8
:102D0000833220F094649093650205C08F73880F1E
:102D1000892B8093650260916502709166028091B3
:102D20006702909168020E945B1480916502982F5F
:102D30009E77923019F41092E70110C0982F969563
:102D40009F732EE3290F2F73273120F491E0909386
:102D5000E70104C0995D9F739A3068F3881F882744
:102D6000881F90916602292F220F97FB992790F9CF
:102D70004091680260916702822B0C942C15089593
:102D800080914D02816080934D0281E08093E80143
:102D90000E94DD26811104C00E94BC260E9461149D
:102DA0000E945714609365027093660280936702D5
:102DB000909368026E7761F40E9461140E94571428
:102DC0006093650270936602809367029093680235
:102DD00081E08093E7018091650280FF04C08695C1
:102DE0008F730C94771608958091650286958F7382
:102DF0008F5F833208F081E00C9477168091650232
:102E000086958F73815009F482E20C947716CF93E4
:102E1000DF93C5E6D2E0888181608883688179810B
:102E20008A819B810E945B14888186958F73DF91D4
:102E3000CF910C947716E5E6F2E080818E7F808357
:102E400060817181828193810E945B141092E701FD
:102E50002FEF80E792E0215080409040E1F700C0E2
:102E600000000C94B0148091650280FD0C941B1737
:102E70000C940717CF93C82F8091E5019091E6013C
:102E80000E94CE27EC2FF0E0E65EFF4EE491F0E0EA
:102E90008E179F0708F442C00E94C2279093E60154
:102EA0008093E5016091E40170E080E090E00E9491
:102EB0008A3420E030E04FE753E40E94C3332BED27
:102EC0003FE049E450E40E94AB350E940E360E9478
:102ED00030342BE43AE34EE25FE30E945E3320EFAE
:102EE0003BEF48ED52E40E94AB350E945C34462F24
:102EF00080916502881F8827881F90916602292F7C
:102F0000220F97FB992790F960916702822B0E940C
:102F1000DE148091E4018F5F8093E401CF910895E6
:102F2000CF93C82F8091E2019091E3010E94CE27B8
:102F3000EC2FF0E0E95EFF4EE491F0E08E179F0782
:102F4000E8F00E94C2279093E3018093E201409150
:102F50006802609167028091E0019091E1010E9416
:102F6000DE148091E0019091E101019668E671E044
:102F70000E946C369093E1018093E001CF91089517
:102F8000DF92EF92FF920F931F93CF93DF93D82E90
:102F90008091DE019091DF010E94CE27ED2DE69514
:102FA000F0E0EC5EFF4EE491F0E08E179F07F0F149
:102FB0000E94C2279093DF018093DE010FE612E0AA
:102FC000C0E0D0E068E6E62EFF24F3948091DC01B7
:102FD0009091DD018C0F9D1FB7010E946C36980106
:102FE00040916802609167020E94DF1366960D5F50
:102FF0001F4FC03681E0D80749F70E94B0142091D6
:10300000DC013091DD01D0FE0BC0C901019668E6FC
:1030100071E00E946C369093DD018093DC0106C064
:10302000215031093093DD012093DC01DF91CF91F4
:103030001F910F91FF90EF90DF900895AF92BF9294
:10304000CF92DF92EF92FF920F931F93CF93DF9374
:10305000C82F80FD03C0BB24B39402C0BB24BA9424
:103060008091DA019091DB010E94CE27C695EC2F6A
:10307000F0E0EF5EFF4EE491F0E08E179F0708F45A
:1030800065C00E94C2279093DB018093DA01FFE6BE
:10309000EF2EF2E0FF2E01E712E0C0E0D0E0F801F1
:1030A00031971082F7011082F8011082E4E0CE2EF1
:1030B000D12CA12C8091D9018A0D87FD805F9927A1
:1030C00087FD9095C817D907E9F4809168028C9D17
:1030D000A0018D9D500D1124559547955595479507
:1030E00080916502881F8827881F90916602592F5A
:1030F000550F97FB992790F9970160916702852BEF
:103100000E94DF13AB0CF1E0CF1AD108C114D10437
:1031100089F6219683E0E80EF11C0D5F1F4FC03148
:10312000D10509F0BCCF0E94B0148091D90191E083
:10313000B91206C0811102C08FE006C0815004C0E0
:1031400090E001968F7099278093D901DF91CF91FC
:103150001F910F91FF90EF90DF90CF90BF90AF90B5
:103160000895EF92FF920F931F93CF93DF93C82F91
:103170008091D7019091D8010E94CE27EC2FF0E0EA
:10318000E25FFF4EE491F0E08E179F0708F466C0FF
:103190000E94C2279093D8018093D701E1E7F2E023
:1031A000DF0111971C92DF0112971C921082339657
:1031B00082E0E13AF807A1F701E712E0AFE6EA2E74
:1031C000A2E0FA2EC0E0D0E08091D601992787FDD9
:1031D0009095C817D907ECF080915201992787FD87
:1031E00090958C179D07ACF080916502881F882709
:1031F000881F90916602592F550F97FB992790F9D8
:1032000097014091680260916702852B0E94DF134D
:1032100007C0F80131971082F7011082F80110827F
:103220002196F3E0EF0EF11C0D5F1F4FC031D10569
:1032300059F60E94B014209151018091D601820F5D
:103240008093D60190915201920F909352011916DA
:1032500014F48F301CF0219520935101DF91CF9110
:103260001F910F91FF90EF900895EF92FF920F93AF
:103270001F93CF93DF938091D4019091D5010E9449
:10328000CE27883E9340C8F10E94C2279093D50173
:103290008093D401C091D201D091D3012196C17005
:1032A000DD27D093D301C093D2010FE612E0F12CB9
:1032B000B8E7EB2E8F2D8695FE01E80FF11DCF01AB
:1032C0008170992798014091680260916702FC0122
:1032D000EE9EC001EF9E900D11240E94DF13F39427
:1032E0000D5F1F4FF0E1FF12E5CFDF91CF911F91EE
:1032F0000F91FF90EF900C94B014DF91CF911F913C
:103300000F91FF90EF9008958091E701882391F14C
:1033100020916502822F86958F739EE3980F9F738D
:10332000943018F482500C943A179AE3980F9F73D4
:10333000933018F486500C94901797E3980F9F736E
:10334000963018F489500C94C01791E3980F9F732E
:10335000963018F48F500C941E189BE2980F9F73B0
:10336000933018F485510C94B1182E77203311F452
:103370000C943519089531B3242F2095232331B3AC
:10338000342B4FB7F894FC01680F791FE617F70745
:1033900089F0819198E031BB000000C087FF21BB1C
:1033A000880F000000C000C000C021BB00C09A957B
:1033B00091F7ECCF4FBF089520B3242B20BB9B0186
:1033C000220F331F260F371FB9010E94BB1987EC4C
:1033D00090E00197F1F700C00000089540E10C94DF
:1033E000DC19CF93DF93EC018F85811115C081E04B
:1033F0008F878F810E94802688850E9493260E9455
:103400004A26EA81FB816A897B89CE01069630973C
:1034100019F0DF91CF910994DF91CF9108950F9327
:103420001F93CF93DF938C01FC018085811124C011
:1034300083819481975524E1289FE001299FD00D35
:103440001124CF5FDE4FEC81FD816A897B89CE013B
:103450000696309709F009958F810E948626888507
:103460000E9499260E944A26F8011082178211862E
:103470001092EA011092E901DF91CF911F910F9113
:103480000895DF92EF92FF920F931F93CF93DF93F4
:103490007C01FB018281882369F1809153018F3F78
:1034A00049F1C7E0D1E000E010E0DD24D394809141
:1034B0005301992787FD909580179107DCF0CE0185
:1034C00006972881222391F02B813C81E216F30696
:1034D00039F42091E9013091EA01E216F30631F066
:1034E000DF820E94F119CE010E940F1A0F5F1F4F59
:1034F0006496DDCFDF91CF911F910F91FF90EF90F8
:10350000DF900895FF920F931F93CF93DF938C0169
:103510009C0137552F3F310511F008F043C08091D1
:103520005301992787FD90958217930714F42093F0
:10353000530184E1829FE001839FD00D1124CF5F6E
:10354000DE4FFB0182818E8792818E81992309F162
:103550001A8709878F5F8E830E94C2279C878B877B
:103560000E94B9268F830E947D26F82E88870E94AC
:1035700090268F298887E881F9816A897B89CE0125
:103580000696309709F009951093EA010093E90136
:1035900009C0882339F08F85882321F0CE01069653
:1035A0000E940F1A81E0DF91CF911F910F91FF9040
:1035B0000895EF92FF920F931F93CF93DF93809123
:1035C00053018F3F71F1F12C84E1E82E8F2D90E0B3
:1035D00020915301332727FD3095281739070CF127
:1035E000E89EE001E99ED00D1124CF5FDE4F0889EF
:1035F00019890115110511F406E910E08E8188235F
:1036000071F08B859C850E94CE270817190738F426
:10361000CE010E94F119CE0106960E940F1AF39472
:10362000D5CFDF91CF911F910F91FF90EF9008952B
:103630009093F0018093EF010895E091EF01F091F4
:10364000F001309721F00190F081E02D099480E0A5
:103650000895E091EF01F091F001309721F00280A0
:10366000F381E02D09940895E091EF01F091F001CC
:10367000309721F00480F581E02D09940895209180
:10368000ED013091EE018217930771F09093EE01F6
:103690008093ED01E091EF01F091F001309721F07E
:1036A0000680F781E02D099408952091EB01309177
:1036B000EC018217930771F09093EC018093EB017A
:1036C000E091EF01F091F001309721F00084F18555
:1036D000E02D099408950C94320B81E008950E9426
:1036E000B9270E9485090E942F280C94C016CF92FA
:1036F000DF92EF92FF920F931F93CF93DF93CDB79B
:10370000DEB72B970FB6F894DEBF0FBECDBF0E9479
:10371000B70A0E946D1B811111C08FEF89838A83C4
:103720001B820E94C2278160782F9D838C834981F0
:103730005A816B818D810E941F1C56C032EFE32E8F
:1037400031E0F32E00E010E0C02E802F0E94020B2B
:10375000F701D1907F01D82631F40F5F1F4F0E3053
:10376000110591F7DACF90914D0291FF04C08B873C
:103770000E94080B8B8520E030E04D2D50E0922F09
:10378000BA01022E02C0759567950A94E2F760FFB0
:1037900025C02E83CF82EE24E394F12C02C0EE0CE0
:1037A000FF1C9A95E2F790E08E219F2121E0892B62
:1037B00009F420E028870E94C2278160782F9A8729
:1037C00089874E815F8168858A850E941F1CF80168
:1037D000EE50FE4F80818E25808306C02F5F3F4FC5
:1037E0002630310561F6B9CF0E94C1291091F1014F
:1037F0000E941D1B1817A1F00E941D1B8093F10150
:103800002B960FB6F894DEBF0FBECDBFDF91CF91E0
:103810001F910F91FF90EF90DF90CF900C942F119C
:103820002B960FB6F894DEBF0FBECDBFDF91CF91C0
:103830001F910F91FF90EF90DF90CF900895CF935D
:10384000DF93CDB7DEB72B970FB6F894DEBF0FBE70
:10385000CDBF4F83588769877A878B87DE011196A2
:1038600086E0FD0111928A95E9F785E0FE01379621
:1038700001900D928A95E1F749815A816B817C8193
:103880008D819E810E94A6232B960FB6F894DEBFF1
:103890000FBECDBFDF91CF910895FC018081918152
:1038A0000E940A260895CF93DF931F92CDB7DEB70B
:1038B000682F882309F402C18238C1F40E941D1BBD
:1038C00081FDFCC069E380915401909155010E94F3
:1038D0003A270E944A262FEF81EE94E02150804043
:1038E0009040E1F700C0000069E319C0833811F58A
:1038F0000E941D1B80FDE2C063E580915401909100
:1039000055010E943A270E944A26EFEFF1EE24E08B
:10391000E150F0402040E1F700C0000063E58091F5
:103920005401909155010E943C270F90DF91CF9157
:103930000C944A268438C1F40E941D1B82FDBEC02F
:1039400067E480915401909155010E943A270E94AA
:103950004A268FEF91EEE4E081509040E040E1F79D
:1039600000C0000067E4DBCF8CEF860F813A70F473
:10397000862F69830E94CD2B698181119FC0809120
:103980005401909155010E943A27CFCF80E2860FD3
:10399000883048F4677081E001C0880F6A95EAF7C3
:1039A0000E948026C2CF8BE5860F833088F4653A6B
:1039B00029F0663A31F482E890E005C081E890E0B1
:1039C00002C083E890E00F90DF91CF910C943F1BF1
:1039D00088E5860F853108F071C0683A61F1693A6F
:1039E00069F16A3A71F16B3A79F16C3A81F16B3BAA
:1039F00089F16C3B91F16D3A99F1603BA1F16E3A1E
:103A0000A9F16F3AB1F1613BB9F1623BC1F1633B9E
:103A1000C9F1643BD1F1653BD9F1663BE1F1673B0C
:103A2000E9F1683BF1F1693BF9F16A3B09F03FC00C
:103A30008AE292E03EC082EE90E03BC089EE90E0E8
:103A400038C08AEE90E035C085EB90E032C086EB5E
:103A500090E02FC083EB90E02CC084EB90E029C075
:103A600087EB90E026C08CEC90E023C08DEC90E0DA
:103A700020C083E891E01DC08AE891E01AC082E985
:103A800091E017C084E991E014C081E292E011C096
:103A900083E292E00EC084E292E00BC085E292E005
:103AA00008C086E292E005C087E292E002C080E0B2
:103AB00090E00F90DF91CF910C94551B0F90DF9108
:103AC000CF910895882309F45DC0823879F40E946B
:103AD0001D1B81FF57C069E38091540190915501EE
:103AE0000E943A270E944A2669E310C08338B1F445
:103AF0000E941D1B80FF46C063E580915401909198
:103B000055010E943A270E944A2663E5809154019C
:103B1000909155010E943C270C944A26843879F4F0
:103B20000E941D1B82FF2EC067E48091540190917A
:103B300055010E943A270E944A2667E4E7CF9CEF8E
:103B4000980F913A10F4682FE1CF90E2980F9830D7
:103B500050F4877091E001C0990F8A95EAF7892F98
:103B60000E948626D9CF9BE5980F933020F480E001
:103B700090E00C943F1B885A853120F480E090E05F
:103B80000C94551B0895882321F00E9480260C94E4
:103B90004A260895882321F00E9486260C944A26FE
:103BA00008958F929F92BF92CF92DF92EF92FF92F1
:103BB0000F931F93CF93DF9300D0CDB7DEB74C01A7
:103BC000472FFC01C580C2949FE0C922D280DD202E
:103BD00031F079836A830E94A0266A8149814983F2
:103BE0006A830E94432649816A81882389F0DD2007
:103BF00079F080E2860F883058F082E00E942C260F
:103C00000E944326BB24B394B82649816A8101C02F
:103C1000B12CE42EE2948FE0E822F12CF701E85871
:103C2000FF4F0C949436842F807F142F1F708823AD
:103C300011F01295107FDD20C1F0112309F4E0C1CD
:103C400080E2860F883010F0611105C0812F6A83F1
:103C50000E94802604C0812F6A830E9493266A8175
:103C60006A830E944A266A81CBC1862F6A830E949A
:103C7000621D6A81112309F4E4C180E2860F883055
:103C800010F0611104C0812F0E94862603C0812F8D
:103C90000E9499260E944A26D4C1842F807F142F27
:103CA0001F70803211F01295107F662319F0613079
:103CB000D9F026C0DD2079F0CC2049F0F1E0CF1218
:103CC00006C00E94B926812B0E94B326BAC10E9469
:103CD000B926812B4AC1CC2021F021E0C21609F47B
:103CE000B0C10E94B62646C1DD2029F085E08C15C2
:103CF00008F4A7C139C194E09C1508F4A2C13AC1E7
:103D0000DD2051F0CC2009F42FC1F401858180FF22
:103D100077C18F70858328C1CC2009F42BC181C164
:103D2000242F26952695237030E02115310521F0AA
:103D30002130310561F085C1DD2021F0862F942FDF
:103D4000937002C080E090E00E943F1B8AC1DD209A
:103D500021F0862F942F937002C080E090E00E94A3
:103D6000551B7FC1DD20F9F0653F51F0663F71F0D2
:103D7000643FA9F480919F029091A00281600BC0E2
:103D800080919F029091A002826005C080919F0265
:103D90009091A00284609093A00280939F02862F4E
:103DA0000E94C92822C0653F51F0663F91F0643FF0
:103DB000C9F480919F029091A0028E7F05C08091EE
:103DC0009F029091A0028D7F9093A00280939F020A
:103DD00009C020919F023091A0022B7F3093A00256
:103DE00020939F02862F0E9431290E94B62939C153
:103DF000842F837009F04EC0D1102FC1262F229539
:103E000026952770220F220F862F8F70C82ED12C57
:103E1000E12CF12C022E04C0CC0CDD1CEE1CFF1C8E
:103E20000A94D2F764FF10C06FE070E080E090E089
:103E300004C0660F771F881F991F2A95D2F76095D7
:103E400070958095909503C060E070E0CB01242FC1
:103E500026952695237030E02230310569F0233015
:103E6000310589F06C297D298E299F292130310562
:103E700071F00E94F724F1C06C297D298E299F29B9
:103E80000E940925EAC00E94F724C701B6010E94DA
:103E9000E524E3C0DD2019F0842F817001C08695F0
:103EA000882309F4DAC0262F229526952770220F41
:103EB000220F862F8F70C82ED12CE12CF12C022ED0
:103EC00004C0CC0CDD1CEE1CFF1C0A94D2F764FF6E
:103ED00010C06FE070E080E090E004C0660F771FD4
:103EE000881F991F2A95D2F76095709580959095B7
:103EF00003C060E070E0CB01242F26952695237047
:103F000030E02230310569F02330310589F06C2929
:103F10007D298E299F292130310571F00E94A52528
:103F20009CC06C297D298E299F290E94B72595C0A8
:103F30000E94A525C701B6010E9493258EC0062FB9
:103F400010E0F801E05EF109E531F10508F054C038
:103F5000E857FF4F0C949436162F1F70842F8F71E3
:103F6000DD2031F00E943E25812F0E94C31D69C0D3
:103F70000E945925812F0E94CA1D63C0DD2049F08F
:103F8000F4E0FC1508F45DC0842F8F710E94782541
:103F900058C025E02C1508F454C0F6CFDD2039F0C8
:103FA000842F8F710E943E254CC0DD20C9F3842FE1
:103FB0008F710E94592545C0DD2029F0842F8F7113
:103FC0000E942F253EC00E942A253BC0DD2051F0D3
:103FD000142F1F71812F0E943E2563E0812F0E94C4
:103FE00023262FC081E00E942C2681E08C1548F505
:103FF00082E00E942C2625C0DD2031F0CC2081F209
:10400000862F0E94531C1DC0CC2089F2693349F4CD
:104010009FEFE7EEF3E09150E040F040E1F700C0A1
:104020000000862F0E94621D0CC04F70C4010E94C8
:10403000A80C0E94532415C04F70C4010E94311176
:1040400010C028E0E216F10441F05CF09AE0E91AB1
:10405000F108E2E0EE16F10420F40E941D1B0E941C
:104060002F11BB20F1F00E941F2680FD1AC0F40121
:1040700012820E9419260E943E25C4010E945F20E0
:104080000E9419260F900F90DF91CF911F910F91F1
:10409000FF90EF90DF90CF90BF909F908F900C9407
:1040A00059250F900F90DF91CF911F910F91FF90A5
:1040B000EF90DF90CF90BF909F908F9008950F93D7
:1040C0001F93CF93DF93EC01288139818B819C81F1
:1040D000892B31F03F3F11F080E003C02F3FE1F723
:1040E00081E0811113C0CE010E94A10D882371F0DF
:1040F000688179818A810E9415268C010E94C925D8
:104100000E94E224B801CE010E94D11DDF91CF911F
:104110001F910F9108950E94A0260E94B0268091C1
:104120005401909155010E943E270E944A260E9408
:104130004A2A0E94B62980E090E00E943F1B80E05E
:1041400090E00C94551B0E948D260C948B200E94AD
:104150000A26E92FE295EF70F0E03297EE30F10594
:10416000B8F4E356FF4F0C949436803F59F018F49E
:10417000803E70F407C0843F59F404C0803E10F0C4
:10418000813F31F481E0089593FB882780F90895F9
:1041900080E00895CF93DF9300D000D01F92CDB779
:1041A000DEB70F900F900F900F900F90DF91CF918F
:1041B0000895CF93DF9300D000D000D0CDB7DEB705
:1041C00026960FB6F894DEBF0FBECDBFDF91CF911C
:1041D00008951F93CF93DF93C091000216E0809162
:1041E0000102C81799F0D0E01C9FF0011D9FF00D4F
:1041F0001124EE5FFD4F4081518162817381848182
:1042000095810E94D9202196C770E9CFDF91CF9187
:104210001F9108954091320250913302609134020F
:104220007091350280913602909137020C94D9201A
:10423000209100029091010256E02917A9F030E088
:10424000529FF001539FF00D1124EE5FFD4F7181DD
:10425000671306C07081871303C07281471306C0BD
:104260002F5F3F4F2770E9CF80E0089581E00895E8
:10427000CF938091370282958F7009F05FC0809153
:104280003402882309F45AC020910002A09101024F
:104290006091320270913302809135029091360222
:1042A00031E06F3F09F030E0B32FC6E02A1709F480
:1042B00045C0009721F07F3F21F44B2F03C041E020
:1042C00001C040E030E040FD35C0C29FF001C39F17
:1042D000F00D1124EE5FFD4F418174132BC040811E
:1042E000641328C04281411125C04381548148177D
:1042F000590710F441505109481B590B46395105D3
:10430000C8F4809137028F7080618093370286E015
:10431000829FF001839FF00D1124E95FFD4F8081A2
:104320008F708061808382E392E00E945F20CF9152
:104330000C94E9202F5F3F4F2770B8CFCF9108959D
:10434000BF92CF92DF92EF92FF920F931F93CF9382
:10435000DF93CDB7DEB762970FB6F894DEBF0FBE1E
:10436000CDBF8C0185E0F801DE011D9601900D9214
:104370008A95E1F7D801CC9011965C91119712962D
:10438000BC9012971396ED90FC9014978091320296
:10439000909133022091350230913602211531057A
:1043A00031F09F3F31F441E08F3F19F403C041E009
:1043B00001C040E040FD9CC1D0903402DD2009F4F2
:1043C00024C140913702E216F30628F0F701E21B00
:1043D000F30B9F0104C0209530952E0D3F1D26390B
:1043E000310508F0C5C0242F207F09F087C0951340
:1043F00015C08C1113C0DB2CB11010C04F70406180
:10440000409337020E940A2182E392E00E945F20DB
:1044100080913702D80115968C9387C1E114F1047D
:1044200039F05F3F39F481E0BFEFCB1203C003C026
:1044300081E001C080E080FD03C081E08B2501C0E8
:1044400080E080FF09C04B2D652F8C2D5A8B0E9478
:1044500018215A89811197C0EF2839F05F3F39F44C
:1044600081E0BFEFCB1203C003C081E001C080E058
:1044700080FD03C081E08B2501C080E0E82FE17062
:10448000FE2E80FF31C04B2D652F8C2D5A8B0E9444
:104490001821D82E5A89811127C0CD865E878D8537
:1044A0009E850E940A26292F22952F7030E0223007
:1044B000310524F02430310534F011C09F7059F0DB
:1044C000811109C032C19F7031F0D80115969C91BD
:1044D000907F09F42AC1805E883008F426C1C801A3
:1044E0000E945F20DF2C21C1DB2CBB2009F41DC101
:1044F0008091370281608093370252C0951307C0C4
:104500008C1105C0B11003C0F8014583ABC0CD8646
:104510005E878D859E850E94A720882319F1DB2C5C
:10452000BB2001F120913702822F82958F7090E09D
:1045300002970CF461C08091320290913302988707
:104540008F831986FB86EA862C87CE01079652C098
:10455000951741F1CD865E878D859E850E94A720A7
:10456000811131C0C8010E945F20DD24D394DDC0D9
:10457000242F207F69F77E2DF98AE88A4C2D6B2D38
:1045800089890E94CA2082E392E00E945F20E2E3D0
:10459000F2E086E0DF011D928A95E9F70E940A2188
:1045A000D12CC3C08C11D6CFB110D4CFF801458324
:1045B000C8010E945F20E2E3F2E086E0DF011D9285
:1045C0008A95E9F7B2C0DB2CBB2061F2209137025B
:1045D000822F82958F7090E0029774F08091320262
:1045E000909133029A8389831B82FD82EC822E8311
:1045F000CE0101960E945F2086E0F801A2E3B2E0BE
:1046000001900D928A95E1F78CC0E216F30628F02E
:10461000F701E21BF30B9F0104C0209530952E0D8E
:104620003F1D2639310508F053C0DB2CBB2009F4AF
:1046300099CF95132CC08C112AC08091370280FD30
:104640001DC0982F92959F70C9F0D80115968C9334
:1046500015979F3039F09F5F9295907F8F70892BCF
:1046600015968C93C8010E945F2086E0F801A2E3B2
:10467000B2E001900D928A95E1F755C086E0F8010D
:10468000A2E3B2E001900D928A95E1F74EC0CD868B
:104690005E878D859E850E94A720882381F096E005
:1046A000F801A2E3B2E001900D929A95E1F78A8BAE
:1046B0000E9438210E940A218A89D82E36C0809112
:1046C0003702816080933702C8010E945F202DC0AD
:1046D0007E2DF98AE88A4C2D6B2D89890E94CA208B
:1046E000E2E3F2E086E0DF011D928A95E9F71BC064
:1046F000BB2009F437CFCD865E878D859E850E94CD
:10470000A720D82E882309F42DCF86E0F801A2E354
:10471000B2E001900D928A95E1F782E392E00E9467
:104720004D1C0E9438210E940A218D2D62960FB6E1
:10473000F894DEBF0FBECDBFDF91CF911F910F91D7
:10474000FF90EF90DF90CF90BF9008951F93CF938D
:10475000DF93CDB7DEB72C970FB6F894DEBF0FBE50
:10476000CDBF4F83588769877A878B879C87CE0117
:1047700007960E94A0218823C1F02F8138858A8561
:104780009B85892B31F03F3F11F080E003C02F3F24
:10479000E1F781E0811147C04F81588569857A85AD
:1047A0008B859C850E94D9203EC086E0FE0137960D
:1047B000DE01119601900D928A95E1F7FF81E8855F
:1047C0004A855B854115510531F0EF3F31F481E0B9
:1047D000FF3F19F403C081E001C080E080FD23C0E9
:1047E0002091010230E0C9010196877099276091FC
:1047F000000270E086179707F1F1F983EA835D8381
:104800004C8396E0929FD001939FB00D1124AE5F30
:10481000BD4FFE01319601900D929A95E1F780937C
:1048200001020E94E92016E08091000290910102AD
:10483000891779F1189FC00111248E5F9D4F0E9446
:10484000A021882331F1E09100021E9FF001112484
:10485000EE5FFD4F4081518162817381848195813A
:104860000E94D9208091000290E0019687709927DC
:1048700080930002D9CF0E94A320109201021092CF
:104880000002E2E3F2E086E0DF011D928A95E9F79B
:10489000CACF2C960FB6F894DEBF0FBECDBFDF9106
:1048A000CF911F910895EF92FF920F931F93CF9393
:1048B000DF939C01009709F471C0F12CEE24E3947E
:1048C000E9012196F9018491843740F4843008F09D
:1048D00056C0813081F0823021F160C0853709F403
:1048E00049C0C0F19CE7980F903708F057C08F7708
:1048F0000E94621D46C089010E5F1F4FFE01849118
:1049000090E2980F983050F48770FE2D01C0FF0F91
:104910008A95EAF78F2F0E94A32615C00E94531C88
:1049200014C089010E5F1F4FFE01849190E2980F21
:10493000983068F48770FE2D01C0FF0F8A95EAF762
:104940008F2F0E94A9260E944A26E8011AC00E94C1
:10495000621DFBCF2E5F3F4FFE01C491CC2341F07F
:104960008FE99FE00197F1F700C00000C150F6CF3A
:10497000E90107C0FE01F490E901229602C00E94FD
:10498000531C8F2D882341F0EFE9FFE03197F1F7B9
:1049900000C000008150F6CF9E0192CFDF91CF91F1
:1049A0001F910F91FF90EF90089508950E94D524D4
:1049B00060933C0270933D0280933E0290933F02CD
:1049C0000C948B2008950C94D6240F931F93009180
:1049D0003C0210913D0220913E0230913F02602B3B
:1049E000712B822B932B1F910F910C94D6240F9334
:1049F0001F9300913C0210913D0220913E023091A4
:104A00003F0260237123822393231F910F910C9403
:104A1000D6240F931F9300913C0210913D022091E8
:104A20003E0230913F0260277127822793271F9112
:104A30000F910C94D62408950C941B250E941C25DC
:104A4000609338027093390280933A0290933B024C
:104A50000C948B2060E070E0CB010C941E2541E0AB
:104A600050E060E070E004C0440F551F661F771FE0
:104A70008A95D2F7CB01BA010C941E2541E050E093
:104A800060E070E004C0440F551F661F771F8A95D1
:104A9000D2F78091380290913902A0913A02B091F8
:104AA0003B02482B592B6A2B7B2BCB01BA010C9470
:104AB0001E2541E050E060E070E004C0440F551F47
:104AC000661F771F8A95D2F740955095609570952F
:104AD0008091380290913902A0913A02B0913B0244
:104AE000482359236A237B23CB01BA010C941E254A
:104AF00041E050E060E070E004C0440F551F661FC5
:104B0000771F8A95D2F78091380290913902A0914F
:104B10003A02B0913B02482759276A277B27CB01ED
:104B2000BA010C941E250F931F9300913802109127
:104B3000390220913A0230913B02602B712B822B7B
:104B4000932B1F910F910C941E250F931F9300918F
:104B500038021091390220913A0230913B026023D1
:104B60007123822393231F910F910C941E250F9381
:104B70001F93009138021091390220913A0230912E
:104B80003B0260277127822793271F910F910C9476
:104B90001E250895CF92DF92EF92FF920F931F93FD
:104BA000CF93DF93EC01C0903C02D0903D02E090A7
:104BB0003E02F0903F028091380290913902A0911C
:104BC0003A02B0913B02C82AD92AEA2AFB2A0FE10D
:104BD00010E0B701A601002E04C0769567955795A1
:104BE00047950A94D2F740FD05C00150110988F796
:104BF00080E007C0BE01802F0E944C110197A9F3ED
:104C0000802FDF91CF911F910F91FF90EF90DF9058
:104C1000CF900895CF93DF93EC010E94CA25BE0187
:104C20000E944C11DF91CF910895CB010E940A267A
:104C30000895809140028595859585950895809188
:104C400040028770089598E0899F90011124622B9B
:104C5000609340020C943E2540914002809584234D
:104C600080934002982F977069F450E0282F3327E3
:104C700027FD30954217530729F085958595859531
:104C80000C945925089590914002977081E009F4A1
:104C900080E00895E0915401F091550180914C021B
:104CA0008083E0915401F0915501808190914B02F5
:104CB000892B8083E0915401F0915501808190917E
:104CC0004A02892B808390914102992381F0E091DF
:104CD0005401F09155018081892B8083809154018A
:104CE000909155010E94FE268111109241028091FF
:104CF0005401909155010C94291B80914C02089508
:104D000090914C02982B90934C020895809590912D
:104D10004C02982390934C02089510924C020895EF
:104D200080914B02089590914B02982B90934B02E7
:104D30000895809590914B02982390934B0208958B
:104D400010924B02089590914A02982B90934A0238
:104D50000895809590914A02982390934A0208956D
:104D600010924A02089580934102089510924102E0
:104D700008958091410208956DEE7EEF80E090E00D
:104D80000E94CC3660E082E090E00E94AE3660E0A7
:104D900083E090E00E94AE3660E084E090E00E9404
:104DA000AE3660E085E090E00E94AE3640E050E034
:104DB000BA0188E090E00C94C03680E090E00E9458
:104DC000A83621E08D3E9E4F09F020E0822F089505
:104DD00082E090E00C949A3683E090E00C949A364E
:104DE000682F83E090E00C94AE3684E090E00C9461
:104DF0009A36682F84E090E00C94AE3620E030E0E4
:104E000040E0FC01E20FF31F518151114F5F2F5F12
:104E10003F4F27303105A9F7842F089520E030E077
:104E20004FEFFC01E20FF31F5281561799F04F3FED
:104E300019F4511101C0422F2F5F3F4F2630310529
:104E400081F74F3F39F0FC01E40FF11D47FDFA9562
:104E500062830895089520E030E0FC01E20FF31F23
:104E60004281461301C012822F5F3F4F2630310529
:104E7000A1F708950C940E270C942B2720E030E026
:104E8000FC01E20FF31F11822F5F3F4F27303105E6
:104E9000B9F708958091AB02843021F110924E024F
:104EA00020E488E190E00FB6F894A8958093600024
:104EB0000FBE2093600080E00E942F1183B7817F96
:104EC000846083BF83B7816083BF7894889583B7FC
:104ED0008E7F83BF88E10FB6F894809360001092B4
:104EE00060000FBE089508950895CF930E94732720
:104EF0000E94B70A0E947427C0E08C2F0E94020B08
:104F0000811105C0CF5FCE30C1F780E001C081E0E4
:104F1000CF9108950E94A3200E941D1B0C942F1175
:104F20001F920F920FB60F9211248F939F93AF93FE
:104F3000BF9380914E02811113C08091A102909184
:104F4000A202A091A302B091A4024196A11DB11D9D
:104F50008093A1029093A202A093A302B093A40213
:104F6000BF91AF919F918F910F900FBE0F901F90A7
:104F7000189582E084BD93E095BD9AEF97BD80932C
:104F80006E0008952FB7F8948091A1029091A2022B
:104F9000A091A302B091A4022FBF0895CF92DF92F7
:104FA000EF92FF920F931F932FB7F8944091A102B5
:104FB0005091A2026091A3027091A4022FBF6A01D6
:104FC0007B01EE24FF248C0120E030E0C016D106E6
:104FD000E206F30610F441505109481B590BCA016F
:104FE0001F910F91FF90EF90DF90CF9008957894EC
:104FF0001F920F920FB60F9211248F939F93AF932E
:10500000BF938091A1029091A202A091A302B091BE
:10501000A4020196A11DB11D8093A1029093A2024A
:10502000A093A302B093A402BF91AF919F918F91DF
:105030000F900FBE0F901F90189587E797E79093FA
:105040000108809300082AE088E190E00FB6F89408
:10505000A895809360000FBE20936000FFCF0E9450
:10506000DD26811102C00E94BC260E94E8268093A2
:105070004D020E94F52690E09093A6028093A5022F
:105080000E94EC26682F70E080E090E00C94E3240E
:105090008091510280FF0BC06091590185E0689FAB
:1050A000B001112475956795759567952AC081FFA4
:1050B00009C06091590185E0689FB0011124759580
:1050C00067951FC082FF07C06091590185E0689F06
:1050D000B001112416C0409152024423C9F06091DE
:1050E0005801461788F72091590185E0289F9001C3
:1050F0001124429FC001439F900D112470E00E9433
:1051000080366038710540F46115710539F002C0D0
:1051100065E070E0862F08958FE7089581E0089597
:105120008091510280FF08C06091570170E0759531
:1051300067957595679521C081FF06C060915701FD
:1051400070E07595679519C082FF04C060915701A2
:1051500070E010C0809152028823C1F06091560126
:105160008617A0F790915701989FC001112470E015
:105170000E9480366038710528F46115710521F0B0
:10518000862F08958FE7089581E0089561E070E02B
:10519000F4CF803F21F40E944828819504C0813FCC
:1051A00029F40E944828809355020895823F21F4F3
:1051B0000E944828819504C0833F29F40E94482812
:1051C000809354020895893F19F40E94902805C0E5
:1051D0008A3F31F40E949028819580935602089569
:1051E0008B3F21F40E949028819504C08C3F29F4C4
:1051F0000E949028809357020895843F21F4809163
:105200005302816017C0853F21F480915302826070
:1052100011C0863F21F48091530284600BC0873F08
:1052200021F480915302886005C0883F31F4809159
:10523000530280618093530208958D3F21F4809141
:10524000510281600BC08E3F21F480915102826037
:1052500005C08F3F29F480915102846080935102F0
:105260000895803F39F48091550287FF6CC01092F9
:10527000550269C0813F29F4809155021816BCF38C
:1052800062C090915402823F29F497FF5CC0109253
:10529000540259C0833F19F41916CCF354C0893F06
:1052A00041F48091560218160CF04DC0109256022F
:1052B0004AC08A3F29F48091560287FF44C0F6CF46
:1052C0008B3F39F48091570287FF3DC010925702FF
:1052D0003AC08C3F29F4809157021816BCF333C0B2
:1052E000843F21F4809153028E7F17C0853F21F4C3
:1052F000809153028D7F11C0863F21F4809153022B
:105300008B7F0BC0873F21F480915302877F05C0BC
:10531000883F31F4809153028F7E8093530213C0F3
:105320008D3F21F4809151028E7F0BC08E3F21F47E
:10533000809151028D7F05C08F3F29F480915102E9
:105340008B7F809351028091540281110EC0809115
:10535000550281110AC080915602811106C08091C8
:105360005702811102C010925202089583E592E023
:105370000E94341B0E94C2279093500280934F02D8
:1053800008951F93CF93DF9380914F029091500225
:105390000E94CE2740915202442321F020915A01CD
:1053A00030E006C020915B015AE0259F9001112456
:1053B0008217930708F46AC0809154021091550235
:1053C000D0915602C0915702811107C0111105C03A
:1053D000D11103C0CC2309F459C04F3F19F04F5FDE
:1053E00040935202181624F40E94482880935402D5
:1053F0008091540287FF05C00E94482881958093C0
:105400005402111624F40E9448288093550280917A
:10541000550287FF05C00E94482881958093550258
:1054200020915402222379F040915502442359F0EF
:1054300055EB250390011124309354024503C0011C
:105440001124909355021D1624F40E9490288093F5
:1054500056028091560287FF05C00E9490288195D0
:10546000809356021C1624F40E94902880935702C1
:105470008091570287FF05C00E94902881958093F4
:105480005702DF91CF911F910C94B629DF91CF91F4
:105490001F910895E3E5F2E085E0DF011D928A9512
:1054A000E9F710925202109251020895833081F16F
:1054B00028F4813059F08230D1F00895853009F414
:1054C00049C0B8F1863009F456C0089520915B01B7
:1054D000862F90E0820F911D8F3F910520F4620F7F
:1054E00060935B0108958FEF80935B010895209195
:1054F0005A01862F90E0820F911D8F3F910520F475
:10550000620F60935A0108958FEF80935A010895B6
:1055100020915901862F90E0820F911D8F3F9105B8
:1055200020F4620F6093590108958FEF8093590121
:10553000089520915801862F90E0820F911D8F3F92
:10554000910520F4620F6093580108958FEF8093C6
:105550005801089520915701862F90E0820F911DE8
:105560008F3F910520F4620F6093570108958FEFEC
:1055700080935701089520915601862F90E0820F65
:10558000911D8F3F910520F4620F6093560108959D
:105590008FEF809356010895833011F128F4813004
:1055A00049F0823091F00895853081F120F1863004
:1055B000C1F1089580915B01681720F4861B8093E8
:1055C0005B01089510925B01089580915A0168175C
:1055D00020F4861B80935A01089510925A01089571
:1055E00080915901681720F4861B80935901089512
:1055F00010925901089580915801681720F4861B74
:105600008093580108951092580108958091570190
:10561000681720F4861B8093570108951092570154
:10562000089580915601681720F4861B80935601D7
:1056300008951092560108958732F8F48E3108F0DB
:1056400085C08E3009F465C048F4873009F447C03E
:105650008B3009F491C0863051F127C0863109F4AE
:105660008BC020F4803109F45EC01FC0893109F479
:1056700083C08B3109F443C018C0883309F47CC05F
:1056800050F4893209F470C0853309F46DC0873253
:1056900009F46AC00AC0833409F466C020F48A336E
:1056A00008F052C002C0883461F080E00895809113
:1056B0004D02817F8E7F80934D0281E0809359025D
:1056C00008950E94A3202FEF83ED90E321508040A6
:1056D0009040E1F700C000000E941D284DC090914D
:1056E0004D02892F8095817080FB90F990934D0237
:1056F000811142C0997F977F90934D023DC0909158
:105700004D0291FB882780F921E0822780FB91F9E7
:1057100013C090914D0292FB882780F921E08227E7
:1057200080FB92F909C090914D0293FB882780F984
:1057300021E0822780FB93F990934D028823E1F0CA
:10574000916090934D02089527EC01C023EE280F3D
:1057500061E070E080E090E004C0660F771F881F72
:10576000991F2A95D2F704C061E070E080E090E0D4
:105770000E94E3240E94A32081E0089580E0089520
:1057800080E008958E518A3030F4E82FF0E0E5583B
:10579000FE4F8081089580E00895CF93C82F8091B7
:1057A0005902813069F018F08230B1F180C0E09187
:1057B0005401F09155018081823209F07AC007C00E
:1057C000E0915401F09155018081823249F48C2F8F
:1057D0000E94BE2B81111DC08C2F0E941C2B1AC051
:1057E0008C2F0E94C02B811114C0C43179F048F471
:1057F000CB3079F0C03109F060C082E0809359026B
:1058000008C0C93219F0C83321F057C010925902AC
:1058100054C081E0817053C0C93289F118F5C43198
:1058200071F1B0F4C73009F046C08EE180935B019E
:1058300082E380935A018AE08093590184E1809346
:10584000580188E08093570188E28093560133C065
:1058500082EE8C0F863078F58C2F0E94C22B8093BD
:10586000580229C0CE34E9F020F4CB3421F56AE0A7
:1058700013C0C13579F0C235F1F461E00DC08091FB
:105880005802882319F01092580215C081E08093C5
:10589000590215C061E006C0809158020E94562A44
:1058A0000AC06AE0809158020E94CC2A04C010927B
:1058B000590280E004C081E002C080E0ABCFCF910C
:1058C00008958091620208950F931F93CF93DF9301
:1058D00000D01F92CDB7DEB78C010E94B22E82306D
:1058E00011F0843019F583E089831B830A83809348
:1058F000E9008FEF9091E800815095FD06C095ED8D
:105900009A95F1F700008111F5CF8091E80085FFAD
:105910000DC040E050E063E070E0CE0101960E94CF
:10592000CF2E8091E8008E778093E8000F900F9043
:105930000F90DF91CF911F910F910895CF93DF9337
:1059400000D01F92CDB7DEB72091AB02243031F5E5
:1059500022E02983805891099B838A8383E0809386
:10596000E9008FEF9091E800815095FD06C095ED1C
:105970009A95F1F700008111F5CF8091E80085FF3D
:105980000DC040E050E063E070E0CE0101960E945F
:10599000CF2E8091E8008E778093E8000F900F90D3
:1059A0000F90DF91CF910895CF93DF93EC010E9488
:1059B000B22E823011F08430F9F482E08093E90055
:1059C0008FEF9091E800815095FD06C095ED9A9576
:1059D000F1F700008111F5CF8091E80085FF0CC040
:1059E00040E050E065E070E0CE010E94CF2E809153
:1059F000E8008E778093E800DF91CF910895CF93F0
:105A0000DF93EC010E94B22E823011F0843039F520
:105A100081E08093E9008FEF9091E800815095FD3F
:105A200006C095ED9A95F1F700008111F5CF8091B0
:105A3000E80085FF14C040E050E068E070E0CE016F
:105A40000E94CF2E8091E8008E778093E80088E056
:105A5000FE01AAE5B2E001900D928A95E1F7DF918F
:105A6000CF9108958091AA02811109C00E946130EE
:105A70000E94BE308091E20084608093E20008952D
:105A80001092AA020895089508950C948A2742E07E
:105A900061EC81E00E94DB2F42E061EC82E00E9439
:105AA000DB2F42E061EC83E00C94DB2F8091AD02B0
:105AB000833009F453C030F4813071F0823009F43E
:105AC0008CC008958A3009F478C08B3009F45EC028
:105AD000893009F09AC020C08091AC02813A09F067
:105AE00094C08091E800877F8093E8008091B002A5
:105AF0009091B102892B21F060E080E090E003C03A
:105B000068E08AE592E070E00E94182F8091E8003A
:105B10008B778093E80008958091AC02813209F080
:105B200074C08091B0029091B102892B09F06DC0D0
:105B30008091E800877F8093E8008091E80082FDF3
:105B400005C08091AB028111F8CF5FC08091F10058
:105B5000809362028091E8008B7753C08091AC0201
:105B6000813A09F052C08091B0029091B102892B24
:105B700009F04BC08091E800877F8093E800809116
:105B8000E80080FFFCCF8091660136C08091AC02B6
:105B90008132D9F58091B0029091B102892BA9F59B
:105BA0008091E800877F8093E8000E941030809108
:105BB000AE02809366010C94A3208091AC028132E6
:105BC00021F58091E800877F8093E8000E941030E3
:105BD0008091AF028093630208958091AC02813A74
:105BE000A1F48091E800877F8093E8008091E8002D
:105BF00080FFFCCF809163028093F1008091E800E8
:105C00008E778093E8000C941030089584B7877FD6
:105C100084BF88E10FB6F894809360001092600012
:105C20000FBE80E880936100109261000E946B1BA0
:105C30000E9461300E94BE308091E20084608093B7
:105C4000E20078940E9441330E946F1B8CE591E042
:105C50000E94181B8091AB02853069F40E944A278C
:105C60008091A9028823B1F30E947527882391F3BC
:105C70000E94B92EEFCF0E94771B0E948419EACFB1
:105C80000C94422E292F332723303105A9F06CF4D0
:105C90002130310509F448C02230310509F049C0EE
:105CA00084E590E020E531E148C021323105F9F08A
:105CB0002232310549F13DC099278130910571F0BB
:105CC0002CF4892BB1F5ECE4F1E10DC082309105A3
:105CD00041F0039771F5EEE1F1E105C0E4E3F1E194
:105CE00002C0E4E2F1E1849190E09F0126C06330BC
:105CF0007105F8F4FB01EE0FFF1FE257FE4F208104
:105D0000318189E090E019C06330710590F4FB01A6
:105D1000EE0FFF1FE857FE4F20813181FB01EB574B
:105D2000FE4F808190E009C082E190E024EA31E1F9
:105D300004C080E090E020E030E0FA01318320836D
:105D400008950895CF93C82F0E94A12EC093640296
:105D5000CF9108958091AB02843011F482E00895D0
:105D600081E0089580916402811102C00C94AA2EF2
:105D7000089580E189BD82E189BD09B400FEFDCFAF
:105D80008091D8008F7D8093D8008091E000826060
:105D90008093E0008091E00081FDFCCF0895CF92D8
:105DA000DF92EF92FF920F931F93CF93DF937C01CB
:105DB0008B01EA010E943130811131C0209731F00E
:105DC00088819981081B190BE80EF91EC12CD12C72
:105DD0000115110519F18091E80085FD14C080912D
:105DE000E8008E778093E800209741F088819981C0
:105DF0008C0D9D1D9983888385E011C00E943130F0
:105E0000882331F30CC0F70181917F018093F10069
:105E100001501109FFEFCF1ADF0ADACF80E0DF91DE
:105E2000CF911F910F91FF90EF90DF90CF90089549
:105E30002091B2023091B3022617370748F061155E
:105E4000710539F42091E8002E772093E80001C015
:105E5000B901FC0120E061157105B9F18091AB0237
:105E6000882309F440C0853009F43FC08091E800E0
:105E700083FD3DC08091E80082FF06C08091E8006C
:105E800082FF26C080E008958091E80080FFE3CF84
:105E90002091F3008091F20090E0922B6115710542
:105EA00051F08830910538F421912093F100615030
:105EB00071090196F3CF21E0089709F020E0809165
:105EC000E8008E778093E800C6CF2111C7CFD6CFE8
:105ED0008091AB02882339F0853039F08091E80059
:105EE00083FFCCCF04C082E0089583E0089581E071
:105EF00008952091B2023091B3022617370748F077
:105F00006115710539F42091E8002E772093E8009F
:105F100001C0B901FC0120E061157105C1F180915A
:105F2000AB02882309F441C0853009F440C0809158
:105F3000E80083FD3EC08091E80082FF06C08091AA
:105F4000E80082FF27C080E008958091E80080FF8C
:105F5000E3CF2091F3008091F20090E0922B611545
:105F6000710559F08830910540F424912093F10097
:105F70003196615071090196F2CF21E0089709F03E
:105F800020E08091E8008E778093E800C5CF211152
:105F9000C6CFD5CF8091AB02882339F0853039F058
:105FA0008091E80083FFCBCF04C082E0089583E0B6
:105FB000089581E00895982F973058F59093E9005F
:105FC000981739F07091EC002091ED005091F0009D
:105FD00003C0242F762F50E021FF19C03091EB0031
:105FE0003E7F3093EB003091ED003D7F3093ED002C
:105FF0003091EB0031603093EB007093EC00209314
:10600000ED005093F0002091EE0027FF07C09F5F46
:10601000D3CF8F708093E90081E0089580E00895E8
:106020008091AC0287FD05C08091E80080FF0EC022
:1060300012C08091E80082FD05C08091AB02811101
:10604000F8CF08958091E8008B7708C08091AB026B
:106050008111EACF08958091E8008E778093E8005F
:1060600008958091E4009091E50045E62091EC00D0
:1060700020FF21C02091E80020FD21C02091AB022B
:10608000222389F0253089F02091EB0025FD0FC0F7
:106090002091E4003091E5002817390739F3415089
:1060A00041F0C901E3CF82E0089583E0089581E0E3
:1060B000089584E008952091E80022FFDFCF80E07A
:1060C00008950E94CF300E94D730E0EEF0E080814A
:1060D00081608083E8EDF0E080818F77808319BC58
:1060E000A7EDB0E08C918E7F8C9380818F7E808332
:1060F0001092AA0208950F931F93CF93DF930E94EB
:10610000CF300E94D730C8EDD0E088818F77888368
:1061100088818068888388818F7D888319BC1092EC
:10612000AB021092A7021092A9021092A80200EEF0
:1061300010E0F80180818B7F808388818160888373
:1061400042E060E080E00E94DB2FE1EEF0E0808141
:106150008E7F8083E2EEF0E08081816080838081A9
:1061600088608083F80180818E7F80838881806150
:106170008883DF91CF911F910F910895E8EDF0E0B2
:1061800080818F7E8083E7EDF0E080818160808375
:1061900084E082BF81E08093AA020C947B30E8ED1A
:1061A000F0E080818E7F80831092E200089510924B
:1061B000DA001092E10008951F920F920FB60F922D
:1061C00011242F933F934F935F936F937F938F93FC
