:100000000C94E0040C943E070C9427050C942705EF
:100010000C9427050C9427050C9427050C942705B0
:100020000C9427050C9427050C94BE230C94902463
:100030000C946C1A0C9427050C9427050C94270536
:100040000C9427050C9427050C9427050C94270580
:100050000C9427050C94D41A0C9427050C942705AE
:100060000C9427050C9427050C9427050C94270560
:100070000C9427050C9427050C9427050C94270550
:100080000C9427050C9427050C9427050C94270540
:100090000C9427050C9427050C9427050C94270530
:1000A0000C9427050C9427050C94270504080708D1
:1000B0000A080D0810081308160819081C081F085C
:1000C0002208250828082B082E083108340837088C
:1000D0003A083D08EA08EC08F708EE08F008F208CC
:1000E000F408F608F908FB08FD080809FF080109EB
:1000F0000309050907090A090B110B113D113D11EF
:100100007B119911FF12FF12DB11FF127E127E127A
:10011000EF12FF12FF12F8128B128B128B128B123E
:100120008B128B128B128B128B128B128B128B12E7
:100130008B128B128B128B129C12AA12B112B81254
:10014000C21290139013A213A2139913A213A21315
:10015000A213901390139E13A213A2139E13FD24B7
:1001600024251C2624251C26702593251C26EA25DB
:10017000F92502E002E1010903E003E10002E202E5
:10018000E1011203E203E10002E202E1010703E2FE
:1001900003E10002E0011B03E001290002E0010687
:1001A00003E001290002E202E0010F03E003E200A4
:1001B00002E102E0011D03E103E00002E002E101CF
:1001C0005003E103E0012A0002E0014F03E00002D6
:1001D000E0015003E00002E1014D03E10002E10112
:1001E0004A03E10002E1014E03E10002E1014B0399
:1001F000E10002E002E1014F03E103E00002E0025E
:10020000E1015003E103E00002E1015103E10002DA
:10021000E1015203E10002E1014F03E10002E101CB
:100220005003E10035001E001F00200021002200C5
:100230002B0014001A0008001500170031590400A3
:100240001600070009000A00E1001D001B0006005F
:10025000190005000751E000E300E100E2000100A1
:100260004D004A003F002900000000002B7801519A
:1002700000000000000000002E00270026002500DE
:10028000240023002D00130012000C0018001C0095
:10029000340033000F000E000D000B002800380062
:1002A0003700360010001100010031003900300025
:1002B0002F0001004E004B000F064C000000000014
:1002C0002A002C00000000000000000001000100D6
:1002D00001000100010001000100010001000C30DB
:1002E00001000100010004011601010009010100E3
:1002F00002511D011B010601190101002804010022
:100300000100025101000100010001000100010093
:1003100000000000010001000000000000000000DB
:1003200001000100010001000100010001000100C5
:100330000B3052000A300100010001004F00510053
:1003400050004D000100010001000100010001000A
:1003500001000100010030042F0401000100010030
:1003600001000100000000004B014E0100000000F0
:100370000000000001000100010001000100010077
:100380000100010001000100010001000100010065
:10039000010007060906010001000100010001003B
:1003A0000100010001000D30010001000100010009
:1003B00001000100010001000000000001000151E6
:1003C0000000000000000000010001000100010029
:1003D000010001000100010012064B0001000100B4
:1003E0000100010001004E0001004A00010001006F
:1003F00001000100010001000100010001000100F5
:1004000001000100010001000100010000000000E6
:1004100001000100000000000000000001000100D8
:1004200001000100010001000100010001000100C4
:1004300001000100010001000100010001000100B4
:1004400001000100010001000100010001000100A4
:100450000100010001000100010001000100010094
:10046000000000000100010000000000000000008A
:100470000100010001000100010001000100010074
:100480000100010001000100010001000100010064
:100490000100010001000100010001000100010054
:1004A0000100010001000100010001000100010044
:1004B00001000100000000000100045400000000E1
:1004C0000000000001000100010001000100010026
:1004D0000100010001000100010001000100010014
:1004E00001000100010001000651010001000100AE
:1004F000010001000100010001000651010001009E
:100500000100010001000100000000000100E245BF
:1005100000000000000000000100010001000100D7
:1005200001000100010001000100010001000100C3
:1005300001000100010001000100010001000100B3
:1005400001000100010001000100010001000100A3
:100550000100010001000100010001000000000095
:100560000100010000000000000000000100010087
:100570000100010001000100010001000100010073
:100580000100010001000100010001000100010063
:1005900006511D0110300F3019010100010001004A
:1005A00001000651010001000100010001000100ED
:1005B000000000000100E245000000000000000013
:1005C0000100010001000100010001000100010023
:1005D0000530023004300100010001000130033019
:1005E000003009300100010001000100010001009C
:1005F00001000100010001000100010001000100F3
:1006000001000100000000000100010000000000E6
:1006100000000000010001000100010001000100D4
:1006200001000100010001000100010001000100C2
:1006300001000100010001000100010001000100B2
:1006400001000100010001000100010001000100A2
:100650000100010001000100000000000100E2456E
:100660000000000000000000010001000100010086
:10067000010001000100010001000630010001003D
:1006800001000100010007300100083001000100F5
:100690000100010001000100010001000100010052
:1006A0000100010001000100010001000000000044
:1006B00001000100000000000000000045003A00B9
:1006C0003B003C003D003E000100200020002000D7
:1006D0002000200001000100520001000100010083
:1006E000005C135C51004F00010001002961E20031
:1006F000E300035701002A00010046004E004B00B2
:100700000000000001002A000000000000000000BE
:10071000440043004200410040003F00010001004E
:100720000100010001000100010052000100010070
:10073000010001004F0051005000010001000100C4
:100740004F0051005000340052002C0001004C00BA
:100750004D004A000000000028002C0000000000AE
:100760000000000000000000000000002A2B28000C
:100770000000000000000000000000000000002950
:10078000000000002C1E3420212224342627252E90
:10079000362D3738271E1F202122232425263333C8
:1007A000362E37381F0405060708090A0B0C0D0EF4
:1007B0000F101112131415161718191A1B1C1D2FC0
:1007C0003130232D350405060708090A0B0C0D0EE0
:1007D0000F101112131415161718191A1B1C1D2FA0
:1007E0003130354C00000000000000000000000027
:1007F00000000000000000000000000000000000F9
:1008000000000000000101010101010001010101DE
:1008100000000000000000000000000000000100D7
:1008200001000101010101010101010101010101B9
:1008300001010101010101010101010101010100A9
:1008400000000101000000000000000000000000A6
:100850000000000000000000000000000000000197
:10086000010101000403300000000E034400610098
:100870006300740079006C00000016034300480018
:10088000200062006F0078004D006F00640073006C
:1008900000000403090409025400030100A0FA093E
:1008A000040000010301010009211101000122409F
:1008B000000705810308000A090401000103010281
:1008C00000092111010001224D00070582030800E3
:1008D0000A090402000103000000092111010001BE
:1008E0002236000705830308000A120110010000E8
:1008F0000008EDFE603001000102030105010980DE
:10090000A10185021601002603001A81002A830036
:10091000751095018100C0050C0901A10185031620
:100920000100269C021A01002A9C02751095018183
:1009300000C005010902A1010901A1000509190171
:10094000290515002501950575018102950175039D
:1009500081010501093009311581257F950275084E
:10096000810609381581257F950175088106050CDA
:100970000A38021581257F950175088106C0C005DA
:10098000010906A101050719E029E71500250195D0
:100990000875018102950175088101050819012971
:1009A00005950575019102950175039101050719DA
:1009B0000029FF150026FF00950675088100C0007C
:1009C00011241FBECFEFDAE0DEBFCDBF04B603FEB9
:1009D00027C08091110290911202A0911302B09150
:1009E00014028730904BA740B04BD1F41092110203
:1009F00010921202109213021092140214BE84B7C5
:100A0000877F84BF0FB6F894A895809160008861B5
:100A100080936000109260000FBEE0E0F8E309955B
:100A200011E0A0E0B1E0ECE6FDE402C005900D921B
:100A3000A234B107D9F722E0A2E4B1E001C01D92CF
:100A4000A131B207E1F70E94EB200C94B4260C947C
:100A5000000008950C9429050C942905CF93DF9389
:100A60008091E401836088608093E401ABE1B1E0B0
:100A700042E251E061E070E08D91E82FE295EF7085
:100A8000F0E021A18F70EB0102C0CC0FDD1F8A9531
:100A9000E2F7CE019C2F9095922391A392A1892BEE
:100AA00082A34A175B0741F7A5E1B1E04BE151E0B2
:100AB00061E070E08D91E82FE295EF70F0E021A108
:100AC0008F70EB0102C0CC0FDD1F8A95E2F7CE01DB
:100AD0009C2F9095922391A392A1892B82A34A17D0
:100AE0005B0741F7559A209AE2E4F1E0A1E5B1E015
:100AF00080E591E011921D928E179F07D9F7DF9143
:100B0000CF910C941F0A2F923F924F925F926F9257
:100B10007F928F929F92AF92BF92CF92DF92EF928D
:100B2000FF920F931F93CF93DF9300D000D0CDB7E8
:100B3000DEB780910001811103C007E010E002C020
:100B400000E010E08BE1C82E81E0D82E98012F5AEA
:100B50003E4F790192E2892E91E0992E3C832B83BE
:100B6000AA24A394B12C34E0732E6B817C81DB0129
:100B70004C901C92F60181916F01E82FE295EF7085
:100B8000F0E021A18F70A50102C0440F551F8A9586
:100B9000E2F7CA01242B21A322A1642E609426210E
:100BA00022A350EA5A95F1F7A5E1B1E0BA83A983EF
:100BB00020E030E0A981BA815D90BA83A983452DF8
:100BC00042954F7050E0DA0190962C90AB81BC8139
:100BD0003C90452D4F70D50102C0AA0FBB1F4A950E
:100BE000E2F7AD01422139F44A2D022E01C0440F33
:100BF0000A94EAF701C040E0342AAB81BC813C9200
:100C00002F5F3F4F26303105A9F691A1692261A2DD
:100C100092A1892B82A31196BC83AB83FB018081B7
:100C2000481661F0F1E0F0935F010E949E1A9093E4
:100C30006101809360018BB187258BB98C149D0471
:100C400009F093CF80915F018823A9F08091600122
:100C5000909161010E94AA1A069768F0F801EE5B74
:100C6000FE4F80E0D7019D917D0191938F5F87308A
:100C7000C9F710925F0181E00F900F900F900F90D5
:100C8000DF91CF911F910F91FF90EF90DF90CF9068
:100C9000BF90AF909F908F907F906F905F904F909C
:100CA0003F902F900895CF93DF93809100018111A1
:100CB00003C0C0E0D0E002C0C7E0D0E00E94A307BC
:100CC000009779F4CE5BDE4F20E030E0F901EC597B
:100CD000FE4F408149932F5F3F4F27303105B1F7D9
:100CE00002C081E090E0DF91CF910895CF930E9400
:100CF0008305C82F0E945306892BD9F05D988091F7
:100D000050018F5F809350018630B0F080910001D8
:100D1000811103C0E0E0F0E002C0E7E0F0E0EE5B4C
:100D2000FE4F80E090E01192019687309105D9F74F
:100D300003C05D9A109250010E94210A8C2FCF911E
:100D400008950E94830580910001811103C0E7E0AE
:100D5000F0E002C0E0E0F0E0EE5BFE4F80E090E00B
:100D60002191DC01AC59BE4F2C930196873091053F
:100D7000B9F70895E82FF0E0EE5BFE4F808108950B
:100D80000895E8EDF0E08081806180838AE18A95B2
:100D9000F1F700C08091D900817008950E94C106CA
:100DA000882319F00E94310704C00E94951A0E94FE
:100DB0003507789408950E942E050E94A106FDCF64
:100DC0000E94CE060E94C106811102C00E94DB066D
:100DD0000895509A08955098589A0895589A0895E9
:100DE0000E94EB06489BFECF80E88A95F1F70895B4
:100DF0000E94EB0698E080E029B1880F2170822BD9
:100E000020E82A95F1F725E02A95F1F700009150A6
:100E100099F708950F931F93CF93082F0E94E90627
:100E2000C8E010E0C15088F0C8010C2E02C09595B2
:100E300087950A94E2F780FF03C00E94EE0601C086
:100E4000589880E88A95F1F7EDCFCF911F910F91D7
:100E500008950E94E906589880E88A95F1F70C9465
:100E6000EE060E94E9060C94EE060E94EB06E89A54
:100E7000E9E6F0E080818C7F808308951F920F92D5
:100E80000FB60F921124EF92FF921F932F933F936F
:100E90004F935F936F937F938F939F93AF93BF9382
:100EA000CF93DF93EF93FF930E942907C0E0D0E038
:100EB00010E0CE018C599E4F7C01FC0180810E9484
:100EC0000A070E942907F7018081180F2196C73071
:100ED000D10579F7812F0E940A070E942907F0E8BF
:100EE000FA95F1F780E48A95F1F70E94F80680936D
:100EF00063010E942907C09163010E94F806D82F60
:100F00000E9429070E94EB0680916201DC1711F014
:100F1000816001C08E7F80936201FF91EF91DF912C
:100F2000CF91BF91AF919F918F917F916F915F9181
:100F30004F913F912F911F91FF90EF900F900FBE17
:100F40000F901F901895EF92FF921F93CF93DF930E
:100F5000F8940E94E906589825E02A95F1F70000D8
:100F60000E94EB060E94EE0630E83A95F1F74899A8
:100F700030C00E94F006C0E0D0E010E00E94F80609
:100F8000FE01EC59FE4F7F0180830E94F006F701BD
:100F90008081180F2196C730D10581F70E94F8068D
:100FA000C82F0E94F0061C1314C0809163010E9498
:100FB0000A070E94F006809163010E940A070E94BE
:100FC000F0060E94E9060E94EE06789480E090E028
:100FD00003C0789481E090E0DF91CF911F91FF9062
:100FE000EF9008950C942A05FC018281882309F46E
:100FF00048C0862F90E08431910508F042C0FC0182
:10100000EA5AFF4F0C9464268DE192E038C086E1E5
:1010100092E035C08FE092E032C088E092E02FC0CD
:101020008DEF91E02CC082EF91E029C08BEE91E032
:1010300026C084EE91E023C08DED91E020C086EDC6
:1010400091E01DC08FEC91E01AC088EC91E017C0D0
:101050008BEB91E014C080EB91E011C085EA91E048
:101060000EC08CE991E00BC083E991E008C088E8EC
:1010700091E005C08DE791E002C082E791E00E9417
:101080001C0A80E090E0089581E0089581E00895D1
:101090000C9446080E947C132FEF84E39CE02150BF
:1010A00080409040E1F700C0000087E797E7909309
:1010B0000108809300080C94FA1A0F931F93CF93A2
:1010C000DF938C01FC01C081D181CE010E94BC184C
:1010D000BE010E942B0AEC01B8010E94390DB80133
:1010E000CE010E944808882309F448C1B801CE0106
:1010F0000E947E0D882309F441C1B801CE010E94EF
:101100008A0C882309F43AC1C531FCE5DF0739F5BB
:101110000E946E19982FF80182812091020130916E
:101120000301882379F09A7A81E009F480E08093C2
:101130006B01911102C069E201C065E3C9010E941F
:10114000171A0AC080916B01811102C069E201C0C7
:1011500065E3C9010E94191A0E943B190FC1C631EB
:101160008CE5D80708F07DC0C130ECE5DE0759F406
:10117000F8018281882309F401C18091E401816032
:101180008093E401FBC0C230FCE5DF0708F452C0E5
:10119000F8018281882309F455C00E94C719811182
:1011A00002C00E94AD190E94DA1990E090930302E8
:1011B00080930202FE01E350FC45E231F10530F478
:1011C000E659FF4F809102020C946426809102023E
:1011D000816027C0826025C0846023C0806121C0F7
:1011E00080621FC080641DC080681BC084608860EE
:1011F00018C08E7F16C08D7F14C08B7F12C08F7E6B
:1012000010C08F7D0EC08F7B0CC08F770AC08B7F84
:10121000877F07C087FB222720F991E0922790FB68
:1012200087F980930202809102020E94DE190E94D7
:101230007C13A4C0C115DC4561F081E0809370018E
:1012400080937101C801DF91CF911F910F910C9490
:101250004408F8018281882309F490C00E944A085A
:101260008DC0C53DECE5DE0759F5F8018281882384
:1012700061F0109271010E949E1A90936F01809309
:101280006E0180E20E94C81079C0809171018823AC
:1012900021F080E20E94CF1071C080916E01909188
:1012A0006F010E94AA1A8639910598F780E20E9480
:1012B000CF1088E20E94670F88E20E9469105EC02A
:1012C000C63DFCE5DF0708F044C0C33D8CE5D80708
:1012D00019F5F8018281882351F0109270010E9463
:1012E0009E1A90936D0180936C0182E0CBCF809128
:1012F000700181110FC080916C0190916D010E946D
:10130000AA1A8639910530F486E20E94670F86E2B8
:101310000E94691082E0BECFC43DDC4509F08DCF4C
:10132000F80182818111A5CF809171018111B1CF26
:1013300080916E0190916F010E94AA1A86399105E1
:1013400008F0A7CF87E20E94670F87E20E9469102A
:10135000A0CFC83DFCE5DF0731F4F8018281882386
:1013600069F080E009C0C93DDC4509F066CFF801AD
:101370008281882319F082E00E94852180E0DF913C
:10138000CF911F910F910895CF9390E0FC01EC59FC
:10139000F84FC491FC01EC51F84F8491882359F027
:1013A00081EE0E94670F8C2F0E94670F8C2F0E9486
:1013B000691081EE04C08C2F0E94670F8C2FCF9193
:1013C0000C9469100F931F93CF93DF93EC01062FBA
:1013D000FE018491882359F19E012F5F3F4F813098
:1013E00041F4E901F9011491812F0E94670F812FC7
:1013F0000DC0823031F4E901F90184910E94670F38
:101400000AC0833031F4E901F90184910E94691026
:1014100002C00E94C4092196802F8823C9F2EFE9F7
:10142000FFE03197F1F700C000008150F6CFDF9167
:10143000CF911F910F91089560E00C94E2090C94F4
:10144000F2070E94DA0D0C942C0508950C94250ADD
:101450000C94260A089524E5829FC0011124FC0102
:1014600026E0729FE00DF11D1124E60FF11DEE0F35
:10147000FF1FEC5DFD4F859194910895880F991F92
:10148000FC01EC59F74F859194910895CF93DF9328
:101490000E942B0A0E94EA0BEC018115904508F08E
:1014A00041C0C11580E4D80708F01CC1C83ED10571
:1014B00010F5C03ED10508F089C1C83AD10578F4CD
:1014C000C53AD10508F09EC0C130D10509F47EC1EE
:1014D00008F435C1C430D10508F078C130C1CD3B26
:1014E000D10508F49AC0C03CD10508F428C1CE014A
:1014F000805C9109E9C0C11590E2D90758F4C11583
:1015000021E0D20708F062C1C03FD10508F417C13D
:10151000D0655CC1C11580E3D80708F0D9C0CE0101
:101520009F70D2C0C11595E5D90708F044C0C11518
:1015300024E5D20708F0EDC0C11582E5D80710F503
:10154000C11591E5D90708F0D0C0CE0174E0969599
:1015500087957A95E1F7282F23703C2F337081E02F
:1015600090E002C0880F991F3A95E2F79C68922B91
:10157000CF70C695C69520E2C29FE0011124C82B0A
:10158000D92B24C19E01237033278C2F86958695F5
:10159000C115D34508F0AEC0C1E0D0E002C0CC0F09
:1015A000DD1F2A95E2F720E2829FC0011124C82B9B
:1015B000D92BDC680BC1C11529E5D20780F4C11510
:1015C00088E5D80708F0AAC0C11596E5D90708F044
:1015D000B6C0CF71DD27DC2FCC27D062F7C0CE019B
:1015E000C1152AE5D20708F49EC090568115904295
:1015F00008F0A5C08D2F8F710E94660CDD27D06288
:101600008F719BC0C53AD10509F49CC0C63AD1057B
:1016100009F09BC0C2E8D0E4D9C0C83AD10509F4AA
:1016200097C0C93AD10509F496C0CA3AD10509F460
:1016300095C0CB3AD10509F494C0CC3AD10509F450
:1016400093C0CB3BD10509F492C0CC3BD10509F442
:1016500091C0CD3AD10509F490C0C03BD10509F441
:101660008FC0CE3AD10509F48EC0CF3AD10509F426
:101670008DC0C13BD10509F48CC0C23BD10509F432
:101680008BC0C33BD10509F48AC0C43BD10509F422
:1016900089C0C53BD10509F488C0C63BD10509F412
:1016A00087C0C73BD10509F486C0C83BD10509F402
:1016B00085C0C93BD10509F484C0CA3BD10509F4F2
:1016C00083C0C0E0D4E482C00E943E0AEC017EC028
:1016D000CE019927D3FF03C0EC01D86C77C0EC0191
:1016E000D06C74C0DF70D06A71C0DC2FCC27C16FA2
:1016F000D06A6CC0C1E0D0E002C0CC0FDD1F2A95DB
:10170000E2F720E2829FC0011124C82BD92BDA68AE
:101710005DC0DC2FCC27C46FD06A58C0DC2FCC272B
:10172000C06FD06A53C024E0969587952A95E1F75B
:101730008F70CF70C06ED0E0D06AD82B47C0C0E0A9
:10174000D0E044C0C1E8D0E441C0C3E8D0E43EC02A
:10175000C2EED4E43BC0C9EED4E438C0CAEED4E44F
:1017600035C0C5EBD4E432C0C6EBD4E42FC0C3EB24
:10177000D4E42CC0C4EBD4E429C0C7EBD4E426C025
:10178000CCECD4E423C0CDECD4E420C0C3E8D5E451
:101790001DC0CAE8D5E41AC0C2E9D5E417C0C4E93F
:1017A000D5E414C0C1E2D6E411C0C3E2D6E40EC051
:1017B000C4E2D6E40BC0C5E2D6E408C0C6E2D6E473
:1017C00005C0C7E2D6E402C0CAE2D6E4CE01DF918A
:1017D000CF9108958238910549F1B0F48133910594
:1017E00009F459C048F48932910509F44FC08A328E
:1017F000910509F455C008958533910509F441C058
:101800008933910599F00895833E910531F138F4BB
:10181000803E910591F0823E9105A9F00895863EA3
:10182000910501F1873E910539F108952091020259
:1018300020FD3BC021FD39C008958091020280FF48
:1018400034C089E341C08091020282FF30C08091A0
:10185000020284FD2EC083EE37C08091020282FD19
:1018600026C0F5CF8091020283FF25C0809102023D
:1018700084FD1FC087EE28C08091020283FD1BC03B
:10188000F5CF8091020285FD18C019C08091020237
:1018900085FD15C012C08091020286FD12C013C0E2
:1018A0008091020286FD0FC00CC080EE0DC082EE5A
:1018B0000BC080E009C086EE07C089E205C085E361
:1018C00003C08AE201C081E390E008959091020292
:1018D00092FF0DC0282F2871283019F4877F84606B
:1018E00006C0282F2471243011F48B7F886093FF69
:1018F0000DC0282F2871283119F4877E846106C015
:10190000282F2471243111F48B7E886194FD877E09
:10191000089508950F931F93CF93FB012281211106
:1019200002C0C1E041C08C01C0917F01C11125C03E
:1019300086319C45B1F70E94890C81E080937F013C
:101940000E949E1A90937E0180937D0110927201F5
:101950001092740110927301109276011092750129
:10196000109278011092770110927A011092790109
:1019700010927C0110927B0117C080917D019091A3
:101980007E010E94AA1A8C32914058F69091720101
:10199000E92FF0E0EE0FFF1FED58FE4F118300839B
:1019A0009F5F90937201C0E08C2FCF911F910F9198
:1019B0000895CF93DF93EC0181E08F878F810E94A0
:1019C000711988850E9484190E943B19EA81FB8164
:1019D000CE010696309729F06A897B89DF91CF91F5
:1019E0000994DF91CF910895EF92FF920F931F9387
:1019F000CF93DF93FC012085211134C0EC01E380FB
:101A0000F480F7E5FF1A24E12E9DC0012F9D900D73
:101A10001124DC01A559BE4F1496ED91FC91159748
:101A20008F589E4F309729F052966D917C91539725
:101A3000099584E18E9D80018F9D100D112405591B
:101A40001E4FF80187810E947719F80180850E9456
:101A50008A190E943B1918821F82198610928101EF
:101A600010928001DF91CF911F910F91FF90EF9025
:101A70000895DF92EF92FF920F931F93CF93DF931E
:101A8000FB012281222391F1209101012F3F71F16D
:101A90008C01CBE6D1E0E12CF12CDD24D3948091B4
:101AA0000101082E000C990B8E159F05FCF08E810C
:101AB0008823B9F089859A858017910739F4809138
:101AC0008001909181010817190759F0DD868F85F3
:101AD000811103C0CE010E94D90CCE0106960E944E
:101AE000F40CFFEFEF1AFF0A6496D9CFDF91CF9184
:101AF0001F910F91FF90EF90DF900895EF92FF926A
:101B00000F931F93CF93DF939C0137552F3F3105E0
:101B100011F008F047C040910101042E000C550B54
:101B20004217530714F420930101FB017C018281C9
:101B300094E1929F8001939F100D1124E801C559F3
:101B4000DE4F8E8792818E81992311F1FA86E98684
:101B50008F5F8E830E949E1A9C878B870E94AA1992
:101B60008F830E946E1988870E9481199885892B1E
:101B70008887E881F981C8018F589E4F309719F006
:101B80006A897B890995F0928101E09280010AC0FF
:101B9000882341F08F85882329F0C8018F589E4FF4
:101BA0000E94F40C81E0DF91CF911F910F91FF9083
:101BB000EF900895CF92DF92EF92FF920F931F93D1
:101BC000CF93DF93809101018F3FF1F1F12C94E1EC
:101BD000E92E0F2D10E080910101082E000C990BC9
:101BE000801791078CF1E09EF001E19EF00D112429
:101BF000E559FE4FC088D188C114D10419F486E993
:101C0000C82ED12CE09EE001E19ED00D1124C559D3
:101C1000DE4F8E818823B1F08B859C850E94AA1AA5
:101C2000C816D90678F48F85811103C0CE010E94B1
:101C3000D90CE09EC001E19E900D11248F589E4F5B
:101C40000E94F40CF394C5CFDF91CF911F910F91B7
:101C5000FF90EF90DF90CF9008959093870180934D
:101C600086010895E0918601F0918701309721F077
:101C70000190F081E02D099480E00895E0918601C3
:101C8000F0918701309721F00280F381E02D0994D3
:101C90000895E0918601F0918701309721F004804A
:101CA000F581E02D099408952091840130918501FA
:101CB0002817390771F09093850180938401E09192
:101CC0008601F0918701309721F00680F781E02DA1
:101CD00009940895209182013091830128173907D2
:101CE00071F09093830180938201E0918601F091DD
:101CF0008701309721F00084F185E02D0994089543
:101D00000C94E00681E008950E94951A0E942E0529
:101D10000C940B1BBF92CF92DF92EF92FF920F9326
:101D20001F93CF93DF93CDB7DEB72A970FB6F89402
:101D3000DEBF0FBECDBF0E9476060E94820E8111CB
:101D400011C08FEF89838A831B820E949E1A816053
:101D5000782F9D838C8349815A816B818D810E946C
:101D6000330F54C089E8C82E81E0D82E00E010E07F
:101D7000B02E802F0E94BA06E82EF60121916F0145
:101D8000F82EF22631F40F5F1F4F0E30110581F748
:101D9000D8CF8091E40181FD0E94C00680E090E0F0
:101DA0002F2D30E0482FB901082E02C07595679598
:101DB0000A94E2F760FF25C08E83BF8281E090E045
:101DC0006C0102C0CC0CDD1C4A95E2F72E2D30E0F0
:101DD0002C213D21232B09F480E088870E949E1A44
:101DE0008160782F9A8789874E815F8168858A858F
:101DF0000E94330FF801E757FE4F80818C258083C6
:101E000005C001968630910569F6BDCF0E949E1CE3
:101E10000E94320E909188018917A9F00E94320E1B
:101E2000809388012A960FB6F894DEBF0FBECDBF0F
:101E3000DF91CF911F910F91FF90EF90DF90CF90A6
:101E4000BF900C94280A2A960FB6F894DEBF0FBEF6
:101E5000CDBFDF91CF911F910F91FF90EF90DF9059
:101E6000CF90BF900895CF93DF93CDB7DEB72B9778
:101E70000FB6F894DEBF0FBECDBF4F83588769877A
:101E80007A878B87DE01119686E0FD0111928A9593
:101E9000E9F785E0FE01379601900D928A95E1F70A
:101EA00049815A816B817C818D819E810E9483163C
:101EB0002B960FB6F894DEBF0FBECDBFDF91CF914A
:101EC0000895FC01808191810E94FB180895CF93B1
:101ED000882309F4FCC0C82F8238C1F40E94320E56
:101EE00081FDF5C069E380910201909103010E9498
:101EF000171A0E943B192FEF81EE94E02150804089
:101F00009040E1F700C0000069E319C0833801F593
:101F10000E94320E80FDDBC063E58091020190914A
:101F200003010E94171A0E943B192FEF81EE94E0E3
:101F3000215080409040E1F700C0000063E58091AF
:101F40000201909103010E94191ACF910C943B1940
:101F50008438C1F40E94320E82FDB9C067E48091DA
:101F60000201909103010E94171A0E943B192FEF62
:101F700081EE94E0215080409040E1F700C00000E5
:101F800067E4DDCF8CEF8C0F813A68F48C2F0E94D0
:101F9000AF1E81119CC06C2F8091020190910301B2
:101FA0000E94171AD2CF80E28C0F883048F4C77095
:101FB00081E001C0880FCA95EAF70E947119C5CF68
:101FC0008BE58C0F833078F4C53A29F0C63A31F0AE
:101FD00083E890E005C081E890E002C082E890E0EC
:101FE000CF910C94540E88E58C0F853108F06FC0AA
:101FF000C83A61F1C93A69F1CA3A71F1CB3A79F15B
:10200000CC3A81F1CB3B89F1CC3B91F1CD3A99F1BE
:10201000C03BA1F1CE3AA9F1CF3AB1F1C13BB9F140
:10202000C23BC1F1C33BC9F1C43BD1F1C53BD9F1BE
:10203000C63BE1F1C73BE9F1C83BF1F1C93BF9F11E
:10204000CA3B09F43FC080E090E03EC082EE90E0E1
:102050003BC089EE90E038C08AEE90E035C085EB59
:1020600090E032C086EB90E02FC083EB90E02CC074
:1020700084EB90E029C087EB90E026C08CEC90E0E8
:1020800023C08DEC90E020C083E891E01DC08AE879
:1020900091E01AC082E991E017C084E991E014C090
:1020A00081E292E011C083E292E00EC084E292E00D
:1020B0000BC085E292E008C086E292E005C087E2AC
:1020C00092E002C08AE292E0CF910C946A0ECF9126
:1020D0000895882309F45BC0682F823879F40E9440
:1020E000320E81FF54C069E3809102019091030197
:1020F0000E94171A0E943B1969E310C08338B1F49B
:102100000E94320E80FF43C063E5809102019091EE
:1021100003010E94171A0E943B1963E58091020196
:10212000909103010E94191A0C943B19843879F498
:102130000E94320E82FF2BC067E4809102019091D1
:1021400003010E94171A0E943B1967E4E7CF8CEF46
:10215000860F813A18F380E2860F883048F4677062
:1021600081E001C0880F6A95EAF70E947719DCCFF9
:102170008BE5860F833020F480E090E00C94540EC1
:10218000685A653120F480E090E00C946A0E08955E
:10219000882321F00E9471190C943B19089588231B
:1021A00021F00E9477190C943B1908958F929F9209
:1021B000AF92BF92DF92EF92FF920F931F93CF9354
:1021C000DF937C01D62FC72FFC01058102950F708C
:1021D000128111110E9491190E943419882379F0FB
:1021E000112369F080E28D0F883048F082E00E9470
:1021F0001D190E94341991E0D82ED92601C0D12C86
:10220000BC2EB2948FE0B8228B2D90E0FC01E458F4
:10221000FF4F0C9464268C2F807FCF70882311F0A1
:10222000C295C07F112399F0CC2309F4C3C180E289
:102230008D0F883010F0D11104C08C2F0E947119BD
:1022400003C08C2F0E9484190E943B19B3C18D2FAB
:102250000E946910CC2309F4D2C180E28D0F88302E
:1022600010F0D11104C08C2F0E94771903C08C2F5D
:102270000E948A190E943B19C2C18C2F807FCF70A7
:10228000803211F0C295C07FDD2319F0D130C9F042
:1022900022C0112371F0002341F0013031F40E947B
:1022A000AA198C2B0E94A419AAC10E94AA198C2BCE
:1022B0003AC1002319F0013009F4A1C10E94A71905
:1022C00018C0112321F0063008F099C10EC0053066
:1022D00008F095C10EC0112351F0002331F0F70131
:1022E000858180FF67C18F7085838C2F1CC1011190
:1022F00072C18C2F1EC18C2F86958695837019F024
:10230000813061F07CC1112321F08D2F9C2F9370BF
:1023100002C080E090E00E94540E7EC1112321F0A3
:102320008D2F9C2F937002C080E090E00E946A0E77
:1023300073C11123F9F0D53F51F0D63F71F0D43F6E
:10234000A9F48091FC019091FD0181600BC0809106
:10235000FC019091FD01826005C08091FC0190918B
:10236000FD0184609093FD018093FC018D2F0E94FC
:10237000A61B1EC0D53F51F0D63F71F0D43FA9F443
:102380008091FC019091FD018E7F0BC08091FC013A
:102390009091FD018D7F05C08091FC019091FD0120
:1023A0008B7F9093FD018093FC018D2F0E940E1C6A
:1023B0000E94931C31C18C2F837009F04CC0111105
:1023C00027C12D2F229526952770220F220F6D2FC2
:1023D0006F70862F90E0A0E0B0E04C015D01022E0E
:1023E00004C0880C991CAA1CBB1C0A94D2F7D4FF09
:1023F00012C08FE090E0A0E0B0E004C0880F991F09
:10240000AA1FBB1F2A95D2F7BC01CD01609570951C
:102410008095909503C060E070E0CB01C695C695AD
:10242000C370C23051F080F4682979298A299B2928
:10243000C13071F00E94D217EBC0682979298A292E
:102440009B290E94E417E4C00E94D217C501B40181
:102450000E94C017DDC0112319F08C2F817001C0BC
:102460008695882309F4D4C02D2F229526952770B0
:10247000220F220F6D2F6F70862F90E0A0E0B0E04A
:102480004C015D01022E04C0880C991CAA1CBB1CC7
:102490000A94D2F7D4FF12C08FE090E0A0E0B0E041
:1024A00004C0880F991FAA1FBB1F2A95D2F7BC0131
:1024B000CD01609570958095909503C060E070E0C7
:1024C000CB01C695C695C370C23051F080F468291F
:1024D00079298A299B29C13071F00E94971898C0E8
:1024E000682979298A299B290E94A91891C00E94EC
:1024F0009718C501B4010E9485188AC08D2F90E0FD
:10250000FC01E05EF109E531F10508F04FC0E45748
:10251000FF4F0C946426DF708C2F8F71112331F0E4
:102520000E941E188D2F0E94C81069C00E943F187B
:102530008D2F0E94CF1063C0112341F0053008F0A9
:102540005EC08C2F8F710E94641859C0063008F04D
:1025500056C0F7CF112339F08C2F8F710E941E18AF
:102560004EC01123C9F38C2F8F710E943F1847C0B2
:10257000112329F08C2F8F710E94091840C00E94EE
:1025800004183DC0112349F0CF718C2F0E941E18F2
:1025900063E08C2F0E94141932C081E00E941D1943
:1025A000023068F182E00E941D1929C0112331F028
:1025B000002391F28D2F0E94670F21C0002399F212
:1025C000D93349F4FFEF27EE83E0F15020408040FB
:1025D000E1F700C000008D2F0E94691010C04C2F41
:1025E0004F706D2FC7010E94F4070E94311714C06D
:1025F0004C2F4F706D2FC7010E942A0A0DC098E022
:10260000B91631F0B91640F086EF8B0D823020F408
:102610000E94320E0E94280ADD20E1F00E9410196B
:1026200080FD18C0F70112820E940A190E941E182C
:10263000C7010E9436130E940A19DF91CF911F91A2
:102640000F91FF90EF90DF90BF90AF909F908F9091
:102650000C943F18DF91CF911F910F91FF90EF9055
:10266000DF90BF90AF909F908F9008950F931F932E
:10267000CF93DF93EC01988189812B813C81232BBF
:1026800031F08F3F31F481E09F3F19F403C081E0C6
:1026900001C080E080FD13C0CE010E945D08882348
:1026A00071F0688179818A810E9406198C010E94EB
:1026B000BB180E94AE17B801CE010E94D610DF9160
:1026C000CF911F910F9108950E9491190E94A11915
:1026D00080910201909103010E941B1A0E943B19F4
:1026E0000E942C1D0E94931C80E090E00E94540EDA
:1026F00080E090E00C946A0E0E947E190C946413A2
:102700000E94FB18E92FE295EF704E2F50E0FA017E
:102710003297EE30F105B0F4EF55FF4F0C9464267C
:10272000803F91F018F4803E68F40EC0843F51F46D
:102730000BC0803E48F0813F29F406C093FB8827F8
:1027400080F9089580E0089581E00895CF93DF93A4
:1027500000D000D01F92CDB7DEB70F900F900F9032
:102760000F900F90DF91CF910895CF93DF9300D01A
:1027700000D000D0CDB7DEB726960FB6F894DEBFF6
:102780000FBECDBFDF91CF9108951F93CF93DF93FD
:10279000C091970116E080919801C81799F0D0E098
:1027A0001C9FF0011D9FF00D1124E756FE4F408144
:1027B000518162817381848195810E94B513219634
:1027C000C770E9CFDF91CF911F9108954091C90162
:1027D0005091CA016091CB017091CC018091CD01E3
:1027E0009091CE010C94B51320919701909198018E
:1027F00056E02917A9F030E0529FF001539FF00DE9
:102800001124E756FE4F7181761306C0708178134C
:1028100003C07281741306C02F5F3F4F2770E9CF4A
:1028200080E0089581E00895CF938091CE01829554
:102830008F7009F05FC08091CB01882309F45AC0E2
:1028400080919701B09198017091C901A091CA013E
:102850004091CC015091CD0191E07F3F09F090E093
:10286000692FC6E08B1709F445C04115510521F0C9
:10287000AF3F21F020E003C021E001C0262F90E00F
:1028800020FD35C0C89FF001C99FF00D1124E75607
:10289000FE4F21812A132BC02081271328C02281BB
:1028A000211125C0238134812417350710F42150CC
:1028B0003109241B350B26393105C8F42091CE018E
:1028C0002F7020612093CE0126E0289FF001299FE0
:1028D000F00D1124E256FE4F80818F70806180835D
:1028E00089EC91E00E943613CF910C94C5130196A8
:1028F0008770B8CFCF9108959F92AF92BF92CF9239
:10290000DF92EF92FF920F931F93CF93DF93CDB798
:10291000DEB761970FB6F894DEBF0FBECDBF7C0166
:1029200085E0F701DE011D9601900D928A95E1F791
:10293000D701DC9011960C9111971296CC903091A2
:10294000C9014091CA018091CC019091CD010097BD
:1029500031F04F3F31F421E03F3F19F403C021E053
:1029600001C020E020FD9FC1F701A380B4809090BA
:10297000CB01992009F42BC12091CE01A816B906EC
:1029800028F0B501681B790BCB0104C080959095A8
:102990008A0D9B1D11E08639910590F010E0207F93
:1029A00009F0DBC07A2DB98AA88A4D2D502F6C2DE5
:1029B00089890E94A61389EC91E00E9436136BC1AD
:1029C000822F807F09F091C0041315C0D31213C069
:1029D0001C2DC11010C02F7020612093CE010E94C9
:1029E000E61389EC91E00E9436138091CE01D70165
:1029F00015968C9375C1A114B10439F00F3F39F4C9
:102A000081E0BFEFDB1203C003C081E001C080E0C2
:102A100080FD03C081E08C2502C080E090E080FF53
:102A200015C04C2D602F8D2D0E94F413882371F05A
:102A300089EC91E00E943613E9ECF1E086E0DF01D9
:102A40001D928A95E9F70E94E6134DC0AB2839F034
:102A50000F3F39F481E0BFEFDB1203C003C081E018
:102A600001C080E080FD03C081E08C2502C080E0D1
:102A700090E0E82FE170BE2E80FF2CC04C2D602F1F
:102A80008D2D0E94F413182F811124C0DD860E872E
:102A90008D859E850E94FB18292F22952F7022304C
:102AA00018F0243090F405C09F7059F0811109C0CE
:102AB00017C19F7031F0D70115969C91907F09F452
:102AC0000FC1805E883008F40BC1C7010E94361325
:102AD0001B2D06C11C2DCC2009F402C18091CE0112
:102AE00081608093CE0110E0FBC0041309C0D312B3
:102AF00007C0C11005C08091CE01F7018583A5C034
:102B0000DD860E878D859E850E948013882379F14E
:102B1000CC2069F12091CE01822F82958F7090E0B8
:102B2000029774F08091C9019091CA0198878F83B0
:102B30001986BB86AA862C87CE0107960E9436137B
:102B400086E0F701A9ECB1E001900D928A95E1F7DA
:102B50000E9414140E94E6130DC0041769F0DD866C
:102B60000E878D859E850E948013811119C0C70133
:102B70000E94361311E0B4C0D312F1CFC110EFCFD1
:102B80008091CE01F7018583C7010E94361386E04C
:102B9000E9ECF1E0DF011D928A95E9F7192DA0C05B
:102BA000CC2029F32091CE01822F82958F7090E066
:102BB000029734F28091C9019091CA019A83898366
:102BC0001B82BD82AC822E83CE010196B7CFA816A0
:102BD000B90628F0F501E81BF90BCF0104C0809578
:102BE00090958A0D9B1D8639910558F010E07A2D3D
:102BF000B98AA88A4D2D502F6C2D89890E94A61361
:102C00004AC01C2DCC2009F4B2CF041333C0D31218
:102C100031C02091CE0120FD24C0822F82958F707B
:102C2000482F50E041155105E1F0D70115962C933E
:102C300015974F30510549F08F5F982F9295907FEF
:102C4000822F8F70892B15968C93C7010E943613A3
:102C500086E0F701A9ECB1E001900D928A95E1F7C9
:102C60003DC086E0F701A9ECB1E001900D928A9594
:102C7000E1F736C0DD860E878D859E850E94801324
:102C800081115ECF8091CE0181608093CE01C7011A
:102C90000E94361325C0E9ECF1E086E0DF011D92C9
:102CA0008A95E9F71BC0CC2009F461CFDD860E8739
:102CB0008D859E850E948013182F882309F457CF95
:102CC00086E0F701A9ECB1E001900D928A95E1F759
:102CD00089EC91E00E94610F0E9414140E94E61397
:102CE000812F61960FB6F894DEBF0FBECDBFDF9186
:102CF000CF911F910F91FF90EF90DF90CF90BF90F9
:102D0000AF909F9008951F93CF93DF93CDB7DEB719
:102D10002C970FB6F894DEBF0FBECDBF4F835887F8
:102D200069877A878B879C87CE0107960E947C14DF
:102D30008823D1F09F8188852A853B85232B31F01C
:102D40008F3F31F481E09F3F19F403C081E001C05F
:102D500080E080FD47C04F81588569857A858B85E5
:102D60009C850E94B5133EC086E0FE013796DE01C9
:102D7000119601900D928A95E1F7FF81E8856A85A9
:102D80007B856115710531F0EF3F31F481E0FF3F44
:102D900019F403C081E001C080E080FD23C02091D0
:102DA000980130E0C90101968770992740919701F9
:102DB00050E084179507F1F1F983EA837D836C83F2
:102DC00096E0929FD001939FB00D1124A756BE4F5D
:102DD000FE01319601900D929A95E1F7809398014A
:102DE0000E94C51316E08091970190919801891770
:102DF00071F1189FC001112487569E4F0E947C14C8
:102E0000882329F1E09197011E9FF0011124E756D4
:102E1000FE4F4081518162817381848195810E943E
:102E2000B5138091970190E0019687709927809360
:102E30009701D9CF0E947C131092980110929701AC
:102E4000E9ECF1E086E0DF011D928A95E9F72C9626
:102E50000FB6F894DEBF0FBECDBFDF91CF911F91AB
:102E60000895EF92FF920F931F93CF93DF938C01FE
:102E7000892B09F46CC0F12CEE24E394E80121962F
:102E8000F8018491843740F4843008F051C08130D7
:102E900081F0823019F15BC0853709F444C0A8F194
:102EA0009CE7980F903708F052C08F770E94691006
:102EB00041C00E5F1F4FFE01849190E2980F983041
:102EC00050F48770FE2D01C0FF0F8A95EAF78F2F0F
:102ED0000E94941914C00E94670F2DC00E5F1F4FEF
:102EE000FE01849190E2980F983060F48770FE2D77
:102EF00001C0FF0F8A95EAF78F2F0E949A190E944E
:102F00003B1919C00E94691016C00E5F1F4FFE01C9
:102F1000C491CC2381F08FE99FE00197F1F700C0C5
:102F20000000C150F6CF0E5F1F4FFE01F49003C0AA
:102F30000E94670F8E018F2D882309F49FCFEFE940
:102F4000FFE03197F1F700C000008150F5CFDF912D
:102F5000CF911F910F91FF90EF90089508950895DC
:102F60000C94AF170E94B0176093D3017093D401F3
:102F70008093D5019093D6010C9464130C94B217EE
:102F80000F931F930091D3011091D4012091D5018B
:102F90003091D601602B712B822B932B1F910F91B7
:102FA0000C94B2170F931F930091D3011091D40189
:102FB0002091D5013091D601602371238223932380
:102FC0001F910F910C94B2170F931F930091D3018F
:102FD0001091D4012091D5013091D601602771273D
:102FE000822793271F910F910C94B2170C94AF175F
:102FF0000E94F6176093CF017093D0018093D101A6
:103000009093D2010C94641360E070E0CB010C94B7
:10301000F8170F931F9341E050E060E070E08A01E1
:103020009B0104C0000F111F221F331F8A95D2F786
:10303000C901B8011F910F910C94F8170F931F93BA
:1030400041E050E060E070E004C0440F551F661F8F
:10305000771F8A95D2F78091CF019091D001A091EE
:10306000D101B091D2018A019B01082B192B2A2B87
:103070003B2BC901B8011F910F910C94F8170F93C6
:103080001F9341E050E060E070E004C0440F551F22
:10309000661F771F8A95D2F7409550956095709579
:1030A0008091CF019091D001A091D101B091D20136
:1030B0008A019B01082319232A233B23C901B80154
:1030C0001F910F910C94F8170F931F9341E050E05C
:1030D00060E070E004C0440F551F661F771F8A959B
:1030E000D2F78091CF019091D001A091D101B09100
:1030F000D2018A019B01082719272A273B27C901EA
:10310000B8011F910F910C94F8170F931F93009122
:10311000CF011091D0012091D1013091D201602BCB
:10312000712B822B932B1F910F910C94F8170F93F7
:103130001F930091CF011091D0012091D1013091C6
:10314000D20160237123822393231F910F910C944A
:10315000F8170F931F930091CF011091D001209188
:10316000D1013091D20160277127822793271F91C7
:103170000F910C94F8170895CF92DF92EF92FF927F
:103180000F931F93CF93DF938C01C090CF01D0900A
:10319000D001E090D101F090D2018091D3019091C3
:1031A000D401A091D501B091D601C82AD92AEA2A22
:1031B000FB2ACFE1D0E0D701C6010C2E04C0B695A2
:1031C000A795979587950A94D2F780FD04C021971B
:1031D00090F780E007C0B8018C2F0E94460A019743
:1031E000B1F38C2FDF91CF911F910F91FF90EF9052
:1031F000DF90CF900895CF93DF93EC010E94BC182D
:10320000BE010E94460ADF91CF910895CB010E9432
:10321000FB1808958091D70185958595859508952A
:103220008091D7018770089598E0899F90011124BB
:10323000262B2093D7010C941E182091D70180953E
:1032400082238093D701982F977069F430E0482F3C
:10325000082E000C550B2417350729F08595859508
:1032600085950C943F1808959091D701977081E04F
:1032700009F480E00895E0910201F091030180914A
:10328000E3018083E0910201F0910301908180913C
:10329000E201892B8083E0910201F091030190818A
:1032A0008091E101892B80838091D801882381F06E
:1032B000E0910201F09103019081892B808380913C
:1032C0000201909103010E94E31981111092D8012B
:1032D00080910201909103010C943E0E8091E301D4
:1032E00008959091E301892B8093E30108958095DF
:1032F0009091E30189238093E30108951092E30103
:1033000008958091E20108959091E201892B8093C4
:10331000E201089580959091E20189238093E20172
:1033200008951092E20108959091E101892B809314
:10333000E101089580959091E10189238093E10155
:1033400008951092E10108958093D8010895109294
:10335000D80108958091D80108956DEE7EEF80E048
:1033600090E00E949E2660E082E090E00E948C2621
:1033700060E083E090E00E948C2660E084E090E0D2
:103380000E948C2660E085E090E00C948C2680E022
:1033900090E00E94862621E08D3E9E4F09F020E0BD
:1033A000822F089582E090E00C947E2683E090E0E6
:1033B0000C947E2684E090E00C947E26682F84E0B6
:1033C00090E00C948C26FC0131969C01285F3F4FC5
:1033D00080E0919191118F5FE217F307D1F7089583
:1033E0009C01FC0132969FEF80E04191461789F0E5
:1033F0009F3F19F4411101C0982F8F5F8630A9F7C4
:103400009F3F39F0F901E90FF11D97FDFA956283AD
:10341000089508959C012A5F3F4FFC0142814613A5
:1034200001C01282019682179307B9F708950C9490
:10343000F0190C940A1AFC01319608961192E817BB
:10344000F907E1F7089580910802843039F110926C
:10345000E50120E488E190E00FB6F894A895809308
:1034600060000FBE2093600080E00E94280A83B7AE
:10347000817F846083BF83B7816083BF78948895A0
:1034800083B78E7F83BF0FB6F894A89580916000B4
:10349000886180936000109260000FBE08950895C7
:1034A0000C944F1ACF930E94501A0E9476060E94E5
:1034B0004F1AC0E08C2F0E94BA06811104C0CF5F62
:1034C000CE30C1F701C081E0CF9108950E947C13F6
:1034D0000E94320E0C94280A1F920F920FB60F9280
:1034E00011248F939F93AF93BF938091E501811136
:1034F00013C08091FE019091FF01A0910002B09154
:1035000001024196A11DB11D8093FE019093FF0120
:10351000A0930002B0930102BF91AF919F918F9150
:103520000F900FBE0F901F90189582E084BD93E01E
:1035300095BD9AEF97BD80936E0008952FB7F894CC
:103540008091FE019091FF01A0910002B0910102D3
:103550002FBF0895CF92DF92EF92FF920F931F93A8
:103560002FB7F8944091FE015091FF016091000245
:10357000709101022FBF6A017B01EE24FF248C01B0
:1035800020E030E0C016D106E206F30610F4415008
:1035900051099A01281B390BC9011F910F91FF9006
:1035A000EF90DF90CF90089578941F920F920FB60E
:1035B0000F9211248F939F93AF93BF938091FE013D
:1035C0009091FF01A0910002B09101020196A11D0E
:1035D000B11D8093FE019093FF01A0930002B09370
:1035E0000102BF91AF919F918F910F900FBE0F90ED
:1035F0001F90189587E797E790930108809300083C
:103600009AE088E10FB6F894A895809360000FBE09
:1036100090936000FFCF0E94C719811102C00E94E1
:10362000AD190E94D2198093E4010E94DA1990E04A
:1036300090930302809302020E94D619682F70E0D3
:1036400080E090E00C94BE178091E80180FF0BC0F1
:103650006091070185E0689FB00111247595679519
:10366000759567952BC081FF09C06091070185E0C2
:10367000689FB00111247595679520C082FF07C02F
:103680006091070185E0689FB001112417C09091F7
:10369000E9019923D1F060910601961788F72091EE
:1036A000070185E0289F90011124929FA001939F1C
:1036B000500D112470E0CA010E9450266038710537
:1036C00040F46115710519F406C065E070E0862FBD
:1036D00008958FE7089581E008958091E80180FFC3
:1036E00008C06091050170E07595679575956795BF
:1036F00021C081FF06C06091050170E07595679556
:1037000019C082FF04C06091050170E010C0909163
:10371000E901992399F0609104019617A0F780912F
:103720000501899FC001112470E00E945026603875
:10373000710540F46115710519F406C061E070E08F
:10374000862F08958FE7089581E00895803F21F442
:103750000E94241B819504C0813F29F40E94241BF0
:103760008093EC010895823F21F40E94241B8195EF
:1037700004C0833F29F40E94241B8093EB01089529
:10378000893F19F40E946D1B05C08A3F31F40E94E5
:103790006D1B81958093ED0108958B3F21F40E946C
:1037A0006D1B819504C08C3F29F40E946D1B809392
:1037B000EE010895843F21F48091EA01816017C0F1
:1037C000853F21F48091EA01826011C0863F21F497
:1037D0008091EA0184600BC0873F21F48091EA0167
:1037E000886005C0883F31F48091EA018061809350
:1037F000EA0108958D3F21F48091E80181600BC0BA
:103800008E3F21F48091E801826005C08F3F29F44A
:103810008091E80184608093E8010895803F39F445
:103820008091EC0187FF6CC01092EC0169C0813F70
:1038300029F48091EC011816BCF362C09091EB0161
:10384000823F29F497FF5CC01092EB0159C0833F7F
:1038500019F41916CCF354C0893F41F48091ED015D
:1038600018160CF04DC01092ED014AC08A3F29F4A1
:103870008091ED0187FF44C0F6CF8B3F39F48091F2
:10388000EE0187FF3DC01092EE013AC08C3F29F453
:103890008091EE011816BCF333C0843F21F480916F
:1038A000EA018E7F17C0853F21F48091EA018D7F68
:1038B00011C0863F21F48091EA018B7F0BC0873FC6
:1038C00021F48091EA01877F05C0883F31F480911F
:1038D000EA018F7E8093EA0113C08D3F21F480912D
:1038E000E8018E7F0BC08E3F21F48091E8018D7F2F
:1038F00005C08F3F29F48091E8018B7F8093E80118
:103900008091EB0181110EC08091EC0181110AC000
:103910008091ED01811106C08091EE01811102C0FC
:103920001092E90108958AEE91E00E94490E0E94EA
:103930009E1A9093E7018093E60108951F93CF9319
:10394000DF938091E6019091E7010E94AA1AAC01F1
:103950009091E901992321F02091080130E006C0FF
:10396000209109018AE0289F9001112442175307F2
:1039700008F46EC08091EB01C091EC01D091ED0193
:103980001091EE01811107C0C1115EC0D1115CC060
:1039900011115AC05DC09F3F19F09F5F9093E901DC
:1039A000181624F40E94241B8093EB018091EB01F4
:1039B00087FF05C00E94241B81958093EB011C1694
:1039C00024F40E94241B8093EC018091EC0187FF7A
:1039D00005C00E94241B81958093EC014091EB016E
:1039E000442379F03091EC01332359F025EB420365
:1039F000A00111245093EB013203C00111249093D4
:103A0000EC011D1624F40E946D1B8093ED01809142
:103A1000ED0187FF05C00E946D1B81958093ED012C
:103A2000111624F40E946D1B8093EE018091EE012B
:103A300087FF05C00E946D1B81958093EE01DF9189
:103A4000CF911F910C94931C9F3F09F0A6CFB7CF45
:103A5000DF91CF911F910895EAEEF1E085E0DF015B
:103A60001D928A95E9F71092E9011092E8010895F4
:103A7000833081F128F4813059F08230D1F00895FB
:103A8000853009F449C0B8F1863009F456C008956C
:103A900080910901262F30E0280F311D2F3F31057D
:103AA00024F4680F6093090108958FEF8093090152
:103AB000089580910801262F30E0280F311D2F3FF7
:103AC000310524F4680F6093080108958FEF809307
:103AD0000801089580910701262F30E0280F311D3D
:103AE0002F3F310524F4680F6093070108958FEF8D
:103AF00080930701089580910601262F30E0280F5A
:103B0000311D2F3F310524F4680F6093060108959D
:103B10008FEF80930601089580910501262F30E0F4
:103B2000280F311D2F3F310524F4680F60930501E4
:103B300008958FEF80930501089580910401262F49
:103B400030E0280F311D2F3F310524F4680F6093BA
:103B5000040108958FEF809304010895833011F1DB
:103B600028F4813049F0823091F00895853081F158
:103B700020F18630C1F1089580910901681720F481
:103B8000861B809309010895109209010895809180
:103B90000801681720F4861B80930801089510928D
:103BA0000801089580910701681720F4861B80930F
:103BB0000701089510920701089580910601681782
:103BC00020F4861B80930601089510920601089543
:103BD00080910501681720F4861B809305010895E4
:103BE00010920501089580910401681720F4861B46
:103BF0008093040108951092040108950F931F9378
:103C000041E050E060E070E08A019B0104C0000FD9
:103C1000111F221F331F8A95D2F7C901B8010E94D4
:103C2000BE171F910F910C947C138732D8F58E31FB
:103C300008F07DC08E3009F467C098F4873009F42D
:103C400055C08B3009F476C0863009F077C080917A
:103C5000E401817F8E7F8093E40181E08093F00115
:103C60000895863109F466C068F4803109F066C0B1
:103C70008091E40183FB222720F991E0922790FBB9
:103C800083F94BC0893109F455C08B3109F056C016
:103C90008091E40181FB222720F991E0922790FB9B
:103CA00081F93BC0883309F445C048F4893209F4EE
:103CB00043C0853309F440C08732F1F13FC08334FB
:103CC000D9F120F48A33D0F1895332C08834B1F568
:103CD0000E947C132FEF83ED90E3215080409040B1
:103CE000E1F700C000000E94FA1A24C08091E401AC
:103CF000982F9095917090FB80F98093E401911139
:103D000019C0897F877F10C08091E40182FB222740
:103D100020F991E0922790FB82F98093E4019923A6
:103D200049F08091E40181608093E40103C08D51EA
:103D30000E94FE1D81E0089580E0FACF80E00895A2
:103D400080E008950C94A01E8E518A3030F4E82F44
:103D5000F0E0E75DFE4F8081089580E00895CF9305
:103D6000C82F8091F001813069F018F08230C9F1DC
:103D700083C0E0910201F09103018081823209F059
:103D80007DC007C0E0910201F09103018081823281
:103D900061F48C2F0E94A21E811104C08C2F0E94FE
:103DA000151E1DC081E090E01AC08C2F0E94A01E3D
:103DB000811114C0C43179F048F4CB3079F0C031AE
:103DC00009F060C082E08093F00108C0C93219F0A8
:103DD000C83321F057C01092F00154C081E08170C7
:103DE00053C0C93289F118F5C43171F1B0F4C7304C
:103DF00009F046C08EE18093090182E380930801B7
:103E00008AE08093070184E18093060188E0809333
:103E1000050188E28093040133C082EE8C0F863066
:103E200078F58C2F0E94A41E8093EF0129C0CE3418
:103E3000E9F020F4CB3421F56AE013C0C13579F004
:103E4000C235F1F461E00DC08091EF01882319F0D3
:103E50001092EF0115C081E08093F00115C061E080
:103E600006C08091EF010E94381D0AC06AE080916F
:103E7000EF010E94AE1D04C01092F00180E004C06A
:103E800081E002C080E0ABCFCF9108958091F9012D
:103E900008950F931F93CF93DF9300D01F92CDB758
:103EA000DEB78C010E949521823011F0843019F523
:103EB00083E089831B830A838093E9008FEF9091CD
:103EC000E800815095FD06C095ED9A95F1F7000048
:103ED0008111F5CF8091E80085FF0DC040E050E0F2
:103EE00063E070E0CE0101960E94B2218091E8006B
:103EF0008E778093E8000F900F900F90DF91CF9115
:103F00001F910F910895CF93DF9300D01F92CDB7EB
:103F1000DEB720910802243031F522E02983805851
:103F200091099B838A8383E08093E9008FEF9091CE
:103F3000E800815095FD06C095ED9A95F1F70000D7
:103F40008111F5CF8091E80085FF0DC040E050E081
:103F500063E070E0CE0101960E94B2218091E800FA
:103F60008E778093E8000F900F900F90DF91CF91A4
:103F70000895CF93DF93EC010E949521823011F0D8
:103F80008430F9F482E08093E9008FEF9091E800AB
:103F9000815095FD06C095ED9A95F1F700008111CD
:103FA000F5CF8091E80085FF0CC040E050E065E06F
:103FB00070E0CE010E94B2218091E8008E7780935C
:103FC000E800DF91CF910895CF93DF93EC010E9439
:103FD0009521823011F0843039F581E08093E90039
:103FE0008FEF9091E800815095FD06C095ED9A9570
:103FF000F1F700008111F5CF8091E80085FF14C032
:1040000040E050E068E070E0CE010E94B221809173
:10401000E8008E778093E80088E0FE01A1EFB1E030
:1040200001900D928A95E1F7DF91CF9108958091EB
:104030000702811109C00E9443230E94A02380919E
:10404000E20084608093E2000895109207020895D0
:10405000089508950C94661A42E061EC81E00E9494
:10406000BC2242E061EC82E00E94BC2242E061ECB2
:1040700083E00C94BC2280910A02833009F453C07F
:1040800030F4813071F0823009F48CC008958A30A8
:1040900009F478C08B3009F45EC0893009F09AC009
:1040A00020C080910902813A09F094C08091E80013
:1040B000877F8093E80080910D0290910E02892BFA
:1040C00021F468E081EF91E003C060E080E090E0DF
:1040D00070E00E94FD218091E8008B778093E800DA
:1040E000089580910902813209F074C080910D0217
:1040F00090910E02892B09F06DC08091E800877FB6
:104100008093E8008091E80082FD05C0809108025C
:104110008111F8CF5FC08091F1008093F901809107
:10412000E8008B7753C080910902813A09F052C0B0
:1041300080910D0290910E02892B09F04BC0809165
:10414000E800877F8093E8008091E80080FFFCCF43
:104150008091140136C0809109028132D9F5809195
:104160000D0290910E02892BA9F58091E800877FBE
:104170008093E8000E94F12280910B028093140149
:104180000C947C1380910902813221F58091E80022
:10419000877F8093E8000E94F12280910C02809337
:1041A000FA01089580910902813AA1F48091E80012
:1041B000877F8093E8008091E80080FFFCCF8091AA
:1041C000FA018093F1008091E8008E778093E800F7
:1041D0000C94F122089584B7877F84BF0FB6F894BA
:1041E000A8958091600088618093600010926000C3
:1041F0000FBE80E880936100109261000E94800EE3
:104200000E9443230E94A0238091E2008460809357
:10421000E20078940E9435260E94840E8AE091E0A4
:104220000E942D0E80910802853069F40E94231AA5
:10423000809106028823B1F30E94521A882391F3D9
:104240000E949C21EFCF0E948A0EECCF0C94282173
:10425000292F332723303105C9F060F4213031058F
:1042600081F02230310509F047C084E590E026E96D
:1042700038E046C02132310511F12232310561F1B9
:104280003BC082E190E02AEE38E03AC099278130C5
:10429000910561F040F08230910559F0039761F586
:1042A000E4E6F8E008C0E2E9F8E005C0EAE7F8E093
:1042B00002C0EAE6F8E0849190E09F0121C06330FB
:1042C0007105D0F4660F771FFB01E45CFE4F20817F
:1042D000318189E090E014C06330710568F4FB011E
:1042E000EE0FFF1FEA5CFE4F20813181FB01ED5C88
:1042F000FE4F808190E004C080E090E020E030E05C
:10430000FA013183208308950895CF93C82F0E9426
:104310008421C093FB01CF910895809108028430DD
:1043200011F081E0089582E008958091FB018111F0
:1043300002C00C948D21089580E189BD82E189BD80
:1043400009B400FEFDCF8091D8008F7D8093D80006
:104350008091E00082608093E0008091E00081FD28
:10436000FCCF0895CF92DF92EF92FF920F931F93AD
:10437000CF93DF93EC018B017A010E94102381110E
:1043800033C0E114F10439F0F70180819181081BF9
:10439000190BC80FD91FC12CD12C0115110519F10A
:1043A0008091E80085FD16C08091E8008E778093AB
:1043B000E800E114F10449F0F70180819181C80E11
:1043C000D91ED182C08285E00FC00E9410238823AD
:1043D00021F30AC089918093F10001501109FFEF88
:1043E000CF1ADF0ADACF80E0DF91CF911F910F91D2
:1043F000FF90EF90DF90CF90089520910F023091C1
:1044000010022617370748F06115710539F420911D
:10441000E8002E772093E80001C0B901FC0120E0FC
:104420006115710579F1809108028823F1F18530D9
:10443000F1F18091E80083FD3CC08091E80082FDAD
:104440002EC08091E80080FFEBCF2091F300809197
:10445000F20090E0922B6115710551F088309105C2
:1044600038F421912093F100615071090196F3CF46
:1044700021E0089709F020E08091E8008E77809392
:10448000E800CECF2111CFCF0AC080910802882347
:1044900061F0853061F08091E80083FD0AC0809171
:1044A000E80082FFF2CF80E0089582E0089583E083
:1044B000089581E0089520910F023091100226178F
:1044C000370748F06115710539F42091E8002E771F
:1044D0002093E80001C0B901FC0120E061157105DD
:1044E00091F180910802882309F440C0853009F4D5
:1044F0003FC08091E80083FD3DC08091E80082FDCF
:104500002FC08091E80080FFE9CF2091F3008091D7
:10451000F20090E0922B6115710559F088309105F9
:1045200040F424912093F100319661507109019675
:10453000F2CF21E0089709F020E08091E8008E7723
:104540008093E800CBCF2111CCCF0AC08091080224
:10455000882361F0853061F08091E80083FD0AC016
:104560008091E80082FFF2CF80E0089582E0089514
:1045700083E0089581E00895982F973068F590932F
:10458000E900981739F07091EC002091ED005091FE
:10459000F00003C0242F762F50E021FD02C09F5F62
:1045A000ECCF3091EB003E7F3093EB003091ED008B
:1045B0003D7F3093ED003091EB0031603093EB00A4
:1045C0007093EC002093ED005093F0002091EE00EA
:1045D00027FDE5CF80E008958F708093E90081E0AA
:1045E00008958091090287FF11C08091E80082FD43
:1045F00005C0809108028111F8CF11C08091E800B8
:104600008B770BC080910802882349F08091E800E5
:1046100080FFF8CF8091E8008E778093E8000895BE
:104620002091E4003091E50095E64091EC00842F64
:10463000817040FF23C08091E80080FD1DC0809103
:104640000802882399F0853099F08091EB0085FD70
:1046500011C04091E4005091E5002417350729F37B
:10466000915011F09A01E1CF84E0089582E008951D
:1046700083E0089581E0089580E008954091E80086
:1046800042FFDDCF08950E94B1230E94B923E0EEDE
:10469000F0E0808181608083E8EDF0E080818F77B9
:1046A000808319BCA7EDB0E08C918E7F8C938081C4
:1046B0008F7E80831092070208950F931F93CF93EC
:1046C000DF930E94B1230E94B923C8EDD0E0888116
:1046D0008F77888388818068888388818F7D8883AD
:1046E00019BC109208021092040210920602109255
:1046F000050200EE10E0F80180818B7F80838881C5
:104700008160888342E060E080E00E94BC22E1EEAC
:10471000F0E080818E7F8083E2EEF0E08081816036
:104720008083808188608083F80180818E7F808390
:10473000888180618883DF91CF911F910F910895C7
:10474000E8EDF0E080818F7E8083E7EDF0E080810E
:104750008160808384E082BF81E0809307020C94B3
:104760005D23E8EDF0E080818E7F80831092E2008F
:1047700008951092DA001092E10008951F920F92AE
:104780000FB60F9211242F933F934F935F936F9324
:104790007F938F939F93AF93BF93EF93FF938091FA
:1047A000E10082FF0BC08091E20082FF07C0809190
:1047B000E1008B7F8093E1000E9434268091DA0033
:1047C00080FF1FC08091D80080FF1BC08091DA005D
:1047D0008E7F8093DA008091D90080FF0DC080E148
:1047E00089BD82E189BD09B400FEFDCF81E08093DF
:1047F00008020E94172005C019BC109208020E94EE
:1048000025208091E10080FF19C08091E20080FFA7
:1048100015C08091E2008E7F8093E2008091E200DB
:1048200080618093E2008091D80080628093D800FC
:1048300019BC85E0809308020E9429208091E10044
:1048400084FF30C08091E20084FF2CC080E189BDEC
:1048500082E189BD09B400FEFDCF8091D8008F7D33
:104860008093D8008091E1008F7E8093E100809159
:10487000E2008F7E8093E2008091E200816080936D
:10488000E20080910402882311F084E007C0809147
:10489000E30087FD02C081E001C083E0809308024D
:1048A0000E942A208091E10083FF29C08091E200CC
:1048B00083FF25C08091E100877F8093E10082E043
:1048C00080930802109204028091E1008E7F809311
:1048D000E1008091E2008E7F8093E2008091E2000F
:1048E00080618093E20042E060E080E00E94BC22B0
:1048F0008091F00088608093F0000E942820FF9152
:10490000EF91BF91AF919F918F917F916F915F9147
:104910004F913F912F910F900FBE0F901F901895C0
:104920001F920F920FB60F9211242F933F934F9324
:104930005F936F937F938F939F93AF93BF93CF9327
:10494000DF93EF93FF93C091E900CF708091EC006B
:10495000D82FD17080FDD0E81092E9008091F0004E
:10496000877F8093F00078940E94D4241092E9000D
:104970008091F00088608093F000CD2BCF70C093C1
:10498000E900FF91EF91DF91CF91BF91AF919F919E
:104990008F917F916F915F914F913F912F910F90E8
:1049A0000FBE0F901F9018951F93CF93DF93CDB735
:1049B000DEB7AA970FB6F894DEBF0FBECDBFE9E011
:1049C000F2E08091F100819322E0E131F207C9F732
:1049D0000E943B208091E80083FF2EC18091090254
:1049E00090910A02492F50E04A30510508F024C145
:1049F000FA01E155FF4F0C946426803821F082388B
:104A000009F01AC108C0809105029091060299230D
:104A100089F082600FC080910D028F70873008F09E
:104A20000BC18093E9008091EB0085FB882780F91A
:104A30001092E9009091E800977F9093E8008093AE
:104A4000F1001092F100D1C0282F2D7F09F0F4C0A1
:104A5000882319F0823061F0EFC080910B02813021
:104A600009F0EAC0933009F080E0809306022EC07E
:104A700080910B0281112AC080910D028F702FEF5F
:104A8000280F263008F0D8C08093E9002091EB0071
:104A900020FF1CC0933021F48091EB00806214C091
:104AA0009091EB0090619093EB0021E030E0A90140
:104AB00002C0440F551F8A95E2F74093EA00109216
:104AC000EA008091EB0088608093EB001092E9008F
:104AD0008091E800877F8093E8000E94F122ACC0BB
:104AE0008111AAC010910B021F778091E30080789A
:104AF000812B8093E3008091E800877F8093E8001A
:104B00000E94F1228091E80080FFFCCF8091E300B9
:104B100080688093E300111102C082E001C083E04D
:104B20008093080289C08058823008F085C0809147
:104B30000B0290910C028C3D53E0950779F583E0D0
:104B40008A838AE289834FB7F894DE01139620E0C6
:104B50003EE051E2E32FF0E050935700E49120FF54
:104B600003C0E295EF703F5FEF708E2F90E0EA3068
:104B700010F0C79601C0C0968D939D932F5F24318E
:104B800049F74FBF8091E800877F8093E8006AE291
:104B900070E0CE0101960E94FD2116C060910D02C9
:104BA00070910E02AE014F5F5F4F0E942621BC0143
:104BB000892B09F441C09091E800977F9093E80019
:104BC00089819A810E945B228091E8008B77809393
:104BD000E80032C0803881F58091E800877F8093BB
:104BE000E800809104028093F1008091E8008E77C4
:104BF00072CF811121C080910B0290910C029927F4
:104C00000297D4F48091E800877F8093E800809138
:104C10000B02809304020E94F12280910402811110
:104C200006C08091E30087FD02C081E001C084E0FE
:104C3000809308020E942C208091E80083FF0AC024
:104C40008091E800877F8093E8008091EB0080628C
:104C50008093EB00AA960FB6F894DEBF0FBECDBFCF
:104C6000DF91CF911F9108950895CF93809108020D
:104C70008823A1F0C091E900CF709091EC00892FBA
:104C8000817090FD80E8C82B1092E9008091E800C7
:104C900083FD0E94D424CF70C093E900CF91089582
:104CA00097FB072E16F4009407D077FD09D00E94D9
:104CB0006A2607FC05D03EF4909581959F4F089594
:104CC000709561957F4F0895EE0FFF1F0590F49149
:104CD000E02D0994AA1BBB1B51E107C0AA1FBB1FF3
:104CE000A617B70710F0A61BB70B881F991F5A9578
:104CF000A9F780959095BC01CD010895F999FECF53
:104D000092BD81BDF89A992780B50895A8E1B0E0D9
:104D100042E050E00C94A626262FF999FECF92BDD2
:104D200081BDF89A019700B4021639F01FBA20BD70
:104D30000FB6F894FA9AF99A0FBE08950196272FA4
:104D40000E948D260C948C26DC01CB01FC01F99984
:104D5000FECF06C0F2BDE1BDF89A319600B40D92C7
:0C4D600041505040B8F70895F894FFCF80
:104D6C0001FFD9012808140A321E461FE41FB91F7F
:104D7C00831F491F013534C697669436323331F799
:104D8C00F6F5000000000000000102030405060710
:104D9C00080900404D367F093209FC08A808C108F3
:024DAC00DA0823
:00000001FF
