:100000000C9418050C9476070C945F050C945F050E
:100010000C945F050C945F050C945F050C945F05D0
:100020000C945F050C945F050C94E4260C94B627A1
:100030000C94921D0C945F050C945F050C945F0565
:100040000C945F050C945F050C945F050C945F05A0
:100050000C945F050C94FA1D0C945F050C945F05DD
:100060000C945F050C945F050C945F050C945F0580
:100070000C945F050C945F050C945F050C945F0570
:100080000C945F050C945F050C945F050C945F0560
:100090000C945F050C945F050C945F050C945F0550
:1000A0000C945F050C945F050C945F05A009A809EA
:1000B000B009B809C009C809D009D809E009E80998
:1000C000F009F809000A080A100A180A200A300A7A
:1000D000380A400A480A750AA10AAF0ABB0A960BF9
:1000E000980BA30B9A0B9C0B9E0BA00BA20BA50BC2
:1000F000A70BA90BB40BAB0BAD0BAF0BB10BB30B39
:10010000B60BB913B913EB13EB1329144714AD1540
:10011000AD158914AD152C152C159D15AD15AD1506
:10012000A6153915391539153915391539153915F2
:10013000391539153915391539153915391539154F
:1001400039154A1558155F15661570153E163E1679
:100150005016501647165016501650163E163E169C
:100160004C16501650164C1623284A2842294A2865
:1001700042299628B928422910291F2903E003E1C2
:1001800003E003E203E30003E30002E30003E10012
:1001900002E10003E10003E100030903E003E100E1
:1001A00002E002E1020900031203E203E10002E2BD
:1001B00002E1021200030703E203E10002E202E1AE
:1001C000020700031B03E001290002E0021B0003F9
:1001D0000603E001290002E0020600030F03E0032A
:1001E000E20002E202E0020F00031D03E103E0006F
:1001F00002E102E0021D00032A03E00002E0022AFD
:1002000000034F03E00002E0024F00035003E00050
:1002100002E0025000034D03E10002E1024D000341
:100220004A03E10002E1024A00034E03E10002E159
:10023000024E00034B03E10002E1024B00034F03B7
:10024000E103E00002E002E1024F00035003E1039A
:10025000E00002E002E1025000035103E10002E18C
:10026000025100035203E10002E1025200034F0376
:10027000E10002E1024F00035003E10002E10250FD
:1002800003E10002E300012B0003E300200003E18F
:100290000002E10035001E001F00200021002200A6
:1002A0002B0014001A000800150017003900040084
:1002B0001600070009000A0015301D001B0006008B
:1002C0001900050007510E00E3001530E20001009F
:1002D0004D004A003F00290000000000DB5C1430A4
:1002E00000000000000000002E002700260025006E
:1002F000240023002D00130012000C0018001C0025
:10030000340033000F000E000D000B0028003800F1
:10031000370036001000110001003100E00030000D
:100320002F0001004E004B000F064C0000000000A3
:100330002A00DA5C0000000000000000010001005B
:100340000100010021040100010001001A010C302C
:10035000150101000100040116010100090101005D
:1003600015301D011B0106011901010001000100EA
:100370000100153001000100010001000100010031
:10038000000000000100010000000000000000006B
:100390000100010001000100010001000100010055
:1003A0000B3052000A300100010001004F005100E3
:1003B00050004D002804010001000100010001006F
:1003C00001000100010030042F04010001000100C0
:1003D00015050705000000000100173000000000AF
:1003E00000000000010001000100010021060100E1
:1003F00001000100010001001506010001000100DB
:10040000010007060906010001001D0301000100AB
:1004100015050705010001000100010001000100B0
:100420000100010001000100000000000100143083
:1004300000000000000000000100010001000100B8
:10044000010001000100010012064B000100010043
:100450000100010001004E0001004A0001000100FE
:100460000100010001000100010001000100010084
:10047000010001000100010015070707000000004E
:100480000100010000000000000000000100010068
:100490000100010001000100010001000100010054
:1004A0000100010001000100010001000100010044
:1004B0000100010001000100010001000100010034
:1004C0000100010001000100010001000100010024
:1004D000000000000100010000000000000000001A
:1004E0000100010001000100010001000100010004
:1004F00001000100010001000100160401000100DB
:1005000001000100010001000100010001000100E3
:1005100001000100010001000100010001000100D3
:1005200001000100000000004B014E01000000002E
:1005300000000000010001000100010001000100B5
:1005400001000100010001000100010001000100A3
:10055000010001000100010015300100010001004F
:10056000010001000100010001001530010001003F
:100570000100010001000100000000000100143032
:100580000000000000000000010001000100010067
:100590000100010001000100010001000100010053
:1005A0000100010001000100010001000100010043
:1005B0000100010001000100010001000100010033
:1005C0000100010001000100010001000000000025
:1005D0000100010000000000000000000100010017
:1005E0000100010001000100010001000100010003
:1005F00001000100010001000100010001000100F3
:1006000015301D0110300F301901010001000100EB
:10061000010015300100010001000100010001008E
:100620000000000001001430000000000000000085
:1006300001000100010001000100010001000100B2
:1006400005300230043001000100010001300330A8
:10065000003009300100010001000100010001002B
:100660000100010001000100010001000100010082
:100670000100010000000000010001000000000076
:100680000000000001000100010001000100010064
:100690000100010001000100010001000100010052
:1006A0000100010001000100010001000100010042
:1006B0000100010001000100010001000100010032
:1006C00001000100010001000000000001001430E1
:1006D0000000000000000000010001000100010016
:1006E00001000100010001000100063001000100CD
:1006F0000100010001000730010008300100010085
:1007000001000100010001000100010001000100E1
:1007100001000100010001000100010000000000D3
:1007200001000100000000000000000045003A0048
:100730003B003C003D003E000100010001000100C3
:1007400001000100010001000100010001000100A1
:10075000005C135C18300100010001000100010081
:100760000100010001000100010001000100010081
:100770000000000001000100000000000000000077
:10078000440043004200410040003F0001000100DE
:100790000100010001000100010001000100010051
:1007A0000100010001000100010001000100010041
:1007B0000100010001000100010001000100010031
:1007C00001000100000000002C002C0000000000CF
:1007D0000000000000000000000000002A2B28009C
:1007E00000000000000000000000000000000029E0
:1007F000000000002C1E3420212224342627252E20
:10080000362D3738271E1F20212223242526333357
:10081000362E37381F0405060708090A0B0C0D0E83
:100820000F101112131415161718191A1B1C1D2F4F
:100830003130232D350405060708090A0B0C0D0E6F
:100840000F101112131415161718191A1B1C1D2F2F
:100850003130354C000000000000000000000000B6
:100860000000000000000000000000000000000088
:10087000000000000001010101010100010101016E
:100880000000000000000000000000000000010067
:100890000100010101010101010101010101010149
:1008A0000101010101010101010101010101010039
:1008B0000000010100000000000000000000000036
:1008C0000000000000000000000000000000000127
:1008D000010101000403300000000E034400610028
:1008E0006300740079006C000000160343004800A8
:1008F000200062006F0078004D006F0064007300FC
:1009000000000403090409025400030100A0FA09CD
:10091000040000010301010009211101000122402E
:10092000000705810308000A090401000103010210
:1009300000092111010001224D0007058203080072
:100940000A0904020001030000000921110100014D
:100950002236000705830308000A12011001000077
:100960000008EDFE6030010001020301050109806D
:10097000A10185021601002603001A81002A8300C6
:10098000751095018100C0050C0901A101850316B0
:100990000100269C021A01002A9C02751095018113
:1009A00000C005010902A1010901A1000509190101
:1009B000290515002501950575018102950175032D
:1009C00081010501093009311581257F95027508DE
:1009D000810609381581257F950175088106050C6A
:1009E0000A38021581257F950175088106C0C0056A
:1009F000010906A101050719E029E7150025019560
:100A00000875018102950175088101050819012900
:100A10000595057501910295017503910105071969
:100A20000029FF150026FF00950675088100C0000B
:100A300011241FBECFEFDAE0DEBFCDBF04B603FE48
:100A400027C080915E0290915F02A0916002B091F8
:100A500061028730904BA740B04BD1F410925E02F8
:100A600010925F02109260021092610214BE84B76D
:100A7000877F84BF0FB6F894A89580916000886145
:100A800080936000109260000FBEE0E0F8E30995EB
:100A900011E0A0E0B1E0EAEFF5E502C005900D92AB
:100AA000A834B107D9F722E0A8E4B1E001C01D9253
:100AB000AE35B207E1F70E9411240C94FB2A0C9486
:100AC000000008950C9461050C946105CF93DF93A9
:100AD00080912D028360886080932D02A1E2B1E0B5
:100AE00048E251E061E070E08D91E82FE295EF700F
:100AF000F0E021A18F70EB0102C0CC0FDD1F8A95C1
:100B0000E2F7CE019C2F9095922391A392A1892B7D
:100B100082A34A175B0741F7ABE1B1E041E251E044
:100B200061E070E08D91E82FE295EF70F0E021A197
:100B30008F70EB0102C0CC0FDD1F8A95E2F7CE016A
:100B40009C2F9095922391A392A1892B82A34A175F
:100B50005B0741F7559A209AE8E4F1E0A7E5B1E098
:100B600086E591E011921D928E179F07D9F7DF91CC
:100B7000CF910C94CD0C2F923F924F925F926F9237
:100B80007F928F929F92AF92BF92CF92DF92EF921D
:100B9000FF920F931F93CF93DF9300D000D0CDB778
:100BA000DEB780910601811103C007E010E002C0AA
:100BB00000E010E081E2C82E81E0D82E9801295A89
:100BC0003E4F790198E2892E91E0992E3C832B8348
:100BD000AA24A394B12C34E0732E6B817C81DB01B9
:100BE0004C901C92F60181916F01E82FE295EF7015
:100BF000F0E021A18F70A50102C0440F551F8A9516
:100C0000E2F7CA01242B21A322A1642E609426219D
:100C100022A350EA5A95F1F7ABE1B1E0BA83A98378
:100C200020E030E0A981BA815D90BA83A983452D87
:100C300042954F7050E0DA0190962C90AB81BC81C8
:100C40003C90452D4F70D50102C0AA0FBB1F4A959D
:100C5000E2F7AD01422139F44A2D022E01C0440FC2
:100C60000A94EAF701C040E0342AAB81BC813C928F
:100C70002F5F3F4F26303105A9F691A1692261A26D
:100C800092A1892B82A31196BC83AB83FB01808147
:100C9000481661F0F1E0F09365010E94C41D909345
:100CA0006701809366018BB187258BB98C149D04F5
:100CB00009F093CF809165018823A9F080916601A6
:100CC000909167010E94D01D069768F0F801E85BDB
:100CD000FE4F80E0D7019D917D0191938F5F87301A
:100CE000C9F71092650181E00F900F900F900F905F
:100CF000DF91CF911F910F91FF90EF90DF90CF90F8
:100D0000BF90AF909F908F907F906F905F904F902B
:100D10003F902F900895CF93DF938091060181112A
:100D200003C0C0E0D0E002C0C7E0D0E00E94DB0713
:100D3000009779F4C85BDE4F20E030E0F901E65916
:100D4000FE4F408149932F5F3F4F27303105B1F768
:100D500002C081E090E0DF91CF910895CF930E948F
:100D6000BB05C82F0E948B06892BD9F05D98809116
:100D700056018F5F809356018630B0F08091060156
:100D8000811103C0E0E0F0E002C0E7E0F0E0E85BE2
:100D9000FE4F80E090E01192019687309105D9F7DF
:100DA00003C05D9A109256010E94CF0C8C2FCF91F8
:100DB00008950E94BB0580910601811103C0E7E000
:100DC000F0E002C0E0E0F0E0E85BFE4F80E090E0A1
:100DD0002191DC01A659BE4F2C93019687309105D5
:100DE000B9F70895E82FF0E0E85BFE4F80810895A1
:100DF0000895E8EDF0E08081806180838AE18A9542
:100E0000F1F700C08091D900817008950E94F90621
:100E1000882319F00E94690704C00E94BB1D0E942C
:100E20006D07789408950E9466050E94D906FDCF4B
:100E30000E9406070E94F906811102C00E94130752
:100E40000895509A08955098589A0895589A089578
:100E50000E942307489BFECF80E88A95F1F708950A
:100E60000E94230798E080E029B1880F2170822B2F
:100E700020E82A95F1F725E02A95F1F70000915036
:100E800099F708950F931F93CF93082F0E9421077E
:100E9000C8E010E0C15088F0C8010C2E02C0959542
:100EA00087950A94E2F780FF03C00E94260701C0DD
:100EB000589880E88A95F1F7EDCFCF911F910F9167
:100EC00008950E942107589880E88A95F1F70C94BC
:100ED00026070E9421070C9426070E942307E89A00
:100EE000E9E6F0E080818C7F808308951F920F9265
:100EF0000FB60F921124EF92FF921F932F933F93FF
:100F00004F935F936F937F938F939F93AF93BF9311
:100F1000CF93DF93EF93FF930E946107C0E0D0E08F
:100F200010E0CE0186599E4F7C01FC0180810E9419
:100F300042070E946107F7018081180F2196C73090
:100F4000D10579F7812F0E9442070E946107F0E8DE
:100F5000FA95F1F780E48A95F1F70E9430078093C3
:100F600069010E946107C09169010E943007D82F72
:100F70000E9461070E94230780916801DC1711F02D
:100F8000816001C08E7F80936801FF91EF91DF91B6
:100F9000CF91BF91AF919F918F917F916F915F9111
:100FA0004F913F912F911F91FF90EF900F900FBEA7
:100FB0000F901F901895EF92FF921F93CF93DF939E
:100FC000F8940E942107589825E02A95F1F700002F
:100FD0000E9423070E94260730E83A95F1F74899C6
:100FE00030C00E942807C0E0D0E010E00E94300727
:100FF000FE01E659FE4F7F0180830E942807F7011A
:101000008081180F2196C730D10581F70E943007E3
:10101000C82F0E9428071C1314C0809169010E94E8
:1010200042070E942807809169010E9442070E949E
:1010300028070E9421070E942607789480E090E00C
:1010400003C0789481E090E0DF91CF911F91FF90F1
:10105000EF9008950C9462050F931F93CF93DF9345
:10106000EC018B0184E090E00E94A429009749F0F4
:10107000FC01118300832881398133832283998382
:101080008883DF91CF911F910F910895EF92FF9286
:101090000F931F93CF93DF93DC01ED91FC91309779
:1010A000D1F000E010E0228133812115310519F0E3
:1010B0008F01F901F8CFEC01E080F180CF010E94AF
:1010C0003C2A0115110521F0F8011382128206C095
:1010D0001982188203C0EE24EA94FE2CC701DF9126
:1010E000CF911F910F91FF90EF900895CF92DF92D3
:1010F000EF92FF920F931F93CF93DF93FC01C08178
:10110000D181209779F0C12CD12C08811981061743
:10111000170759F02A813B816E012115310511F025
:10112000E901F3CF0FEF1FEF10C07C01CE010E9449
:101130003C2AC114D10431F08A819B81F60193834A
:10114000828303C0F70111821082C801DF91CF9121
:101150001F910F91FF90EF90DF90CF900895DC01E9
:10116000ED91FC91309769F0808191818617970706
:1011700029F00280F381E02D3097B1F781E0EF2B69
:1011800009F480E008950F931F93CF93DF93EC0150
:101190008B018A3D2CE59207C1F5FB0182818823F2
:1011A000D1F00E94C41D909374018093730181E07B
:1011B00080937A011092760181E992E00E94CA0C34
:1011C00081E791E00E9446080196D1F710927201E2
:1011D0001092710179C010927A018EE892E00E941B
:1011E000CA0C8091760181110DC08091730190919C
:1011F00074010E94D01D8837910520F48CE892E09C
:101200000E94CA0C109276015FC08B3D2CE59207BC
:1012100009F5FB018281882349F081E080937901FF
:101220001092750183E00E94CC1A4EC01092790191
:1012300089E892E00E94CA0C83E00E94ED1A809136
:101240007501811104C086E892E00E94CA0C1092D8
:1012500075013AC084319043B9F180917301909146
:1012600074010E94D01DF80122814F9768F022235B
:10127000A9F080917A01882339F0BE0181E791E0DD
:101280000E942C0880E04AC0222341F080917A011C
:10129000882389F181E0809376012DC080917A01C5
:1012A000882391F0BE0181E791E00E94AF08882376
:1012B00059F08C2F0E941512BE0181E791E00E9427
:1012C000760881E08093760180917101909172019E
:1012D000892B11F481E022C080917A018111FACF2B
:1012E00081E791E00E9446088F3FEFEF9E0791F360
:1012F0000E941512F5CF80917901882329F381E0AE
:1013000080937501CB34F1E0DF07F1F2CE34D140A8
:10131000D9F283E892E00E94CA0CD6CFDF91CF9138
:101320001F910F910895FC018281462F50E04931B1
:10133000510508F03CC1FA01EA5AFF4F0C948A2982
:10134000882319F08CE792E030C187E792E02DC145
:10135000882319F082E792E028C18DE692E025C14A
:10136000882319F088E692E020C183E692E01DC14F
:10137000882319F08EE592E018C189E592E015C145
:10138000882319F082E592E010C18BE492E00DC150
:10139000882319F084E492E008C18DE392E005C14E
:1013A000882319F088E392E000C183E392E0FDC056
:1013B000882319F08EE292E0F8C089E292E0F5C04D
:1013C000882319F084E292E0F0C08FE192E0EDC052
:1013D000882319F08AE192E0E8C085E192E0E5C057
:1013E000882319F080E192E0E0C08BE092E0DDC05C
:1013F000882319F086E092E0D8C081E092E0D5C061
:10140000882319F08CEF91E0D0C087EF91E0CDC038
:10141000882319F080EF91E0C8C089EE91E0C5C043
:10142000882319F082EE91E0C0C08BED91E0BDC041
:10143000882319F086ED91E0B8C08FEC91E007C0E9
:10144000882319F08AEC91E0B0C083EC91E00E940F
:10145000CA0C1092770185E00E94ED1A81E088C0E5
:10146000882319F08CEB91E0A0C085EB91E09DC042
:10147000882319F08EEA91E098C087EA91E095C040
:10148000882319F080EA91E090C089E991E08DC04D
:101490008823D1F081E080937801809177018823BF
:1014A00051F080917B01882309F461C086E991E0C5
:1014B0000E94CA0C27C080917B01882379F283E9BE
:1014C00091E00E94CA0C20C010927801109277011E
:1014D00081E00E94ED1A82E00E94ED1A86E00E94EF
:1014E000ED1A85E00E94ED1A62C0882391F081E038
:1014F00080937B0180917801882341F0809177016E
:10150000882311F086E034C082E032C080E991E0A7
:101510004CC010927B0186E00E94ED1A82E00E948E
:10152000ED1A80917801882349F080917701882312
:1015300011F085E001C081E00E94CC1A8DE891E0B5
:1015400034C0882331F083E00E94CC1A8AE891E00D
:101550002CC083E00E94ED1A87E891E026C0882322
:1015600031F19091770181E089278093770185E0BF
:101570000E94CC1A1CC081E00E94ED1A82E00E94F9
:10158000ED1A83E00E94ED1A84E00E94ED1A85E0D6
:101590000E94ED1A86E00E94ED1A87E00E94ED1A83
:1015A00080E00E94CC1A8CE791E00E94CA0C80E097
:1015B00090E0089581E008950C94C3080E942A16D3
:1015C0002FEF84E39CE0215080409040E1F700C081
:1015D000000087E797E790930108809300080C9438
:1015E000201EFF920F931F93CF93DF938C01FC017A
:1015F000C081D1818091A801811113C0828188238B
:1016000049F0CE010E94C31BF82E682FCE010E9424
:101610006A1B04C0CE010E94961BF82EBE018F2DBE
:1016200004C0CE010E94C31BBE010E94D90CEC0174
:10163000B8010E94E70FB801CE010E94DC0A88239E
:1016400009F449C1B801CE010E942C10882309F485
:1016500042C1B801CE010E94380F882309F43BC172
:10166000C531FCE5DF0739F50E94941C982FF8017D
:1016700082812091080130910901882379F09A7ABA
:1016800081E009F480E080937C01911102C069E25D
:1016900001C065E3C9010E943D1D0AC080917C0123
:1016A000811102C069E201C065E3C9010E943F1DCA
:1016B0000E94611C10C1C6318CE5D80708F07EC0BD
:1016C000C130ECE5DE0759F4F8018281882309F482
:1016D00002C180912D02816080932D02FCC0C23036
:1016E000FCE5DF0708F452C0F8018281882309F481
:1016F00055C00E94ED1C811102C00E94D31C0E94A3
:10170000001D90E090934C0280934B02FE01E35049
:10171000FC45E231F10530F4E159FF4F80914B0275
:101720000C948A2980914B02816027C0826025C079
:10173000846023C0806121C080621FC080641DC09E
:1017400080681BC08460886018C08E7F16C08D7F43
:1017500014C08B7F12C08F7E10C08F7D0EC08F7B18
:101760000CC08F770AC08B7F877F07C087FB22273B
:1017700020F991E0922790FB87F980934B028091AA
:101780004B020E94041D0E942A16A5C0C115DC450B
:1017900069F081E08093810180938201C801DF912B
:1017A000CF911F910F91FF900C94DA0AF80182817A
:1017B000882309F490C00E94DE0A8DC0C53DECE587
:1017C000DE0759F5F8018281882361F010928201C9
:1017D0000E94C41D9093800180937F0180E20E944B
:1017E000761379C080918201882321F080E20E94E3
:1017F0007D1371C080917F01909180010E94D01D66
:10180000883C910598F780E20E947D1388E20E944F
:10181000151288E20E9417135EC0C63DFCE5DF0783
:1018200008F044C0C33D8CE5D80719F5F801828162
:10183000882351F0109281010E94C41D90937E0173
:1018400080937D0182E0CBCF8091810181110FC017
:1018500080917D0190917E010E94D01D883C910570
:1018600030F486E20E94151286E20E94171382E08D
:10187000BECFC43DDC4509F08CCFF80182818111D7
:10188000A5CF809182018111B1CF80917F0190918C
:1018900080010E94D01D883C910508F0A7CF87E207
:1018A0000E94151287E20E941713A0CFC83DFCE5E5
:1018B000DF0731F4F8018281882369F080E009C0F4
:1018C000C93DDC4509F065CFF8018281882319F014
:1018D00082E00E94AB2480E0DF91CF911F910F91B5
:1018E000FF900895CF9390E0FC01EC52F84FC49123
:1018F000FC01EC5AF74F8491882359F081EE0E9445
:1019000015128C2F0E9415128C2F0E94171381EE36
:1019100004C08C2F0E9415128C2FCF910C9417139A
:101920000F931F93CF93DF93EC01062FFE01849159
:10193000882359F19E012F5F3F4F813041F4E90127
:10194000F9011491812F0E941512812F0DC0823050
:1019500031F4E901F90184910E9415120AC0833023
:1019600031F4E901F90184910E94171302C00E9429
:10197000720C2196802F8823C9F2EFE9FFE031979E
:10198000F1F700C000008150F6CFDF91CF911F9199
:101990000F91089560E00C94900C0C942A080E941A
:1019A00088100C94640508950C94D30C0C94D40CFA
:1019B000089524E5829FC0011124FC0126E0729F56
:1019C000E00DF11D1124E60FF11DEE0FFF1FEC5687
:1019D000FD4F859194910895880F991FFC01EC5259
:1019E000F74F859194910895CF93DF930E94D90C7E
:1019F0000E94980EEC018115904508F041C0C11578
:101A000080E4D80708F01CC1C83ED10510F5C03EDF
:101A1000D10508F089C1C83AD10578F4C53AD10595
:101A200008F09EC0C130D10509F47EC108F435C16B
:101A3000C430D10508F078C130C1CD3BD10508F4E0
:101A40009AC0C03CD10508F428C1CE01805C910940
:101A5000E9C0C11590E2D90758F4C11521E0D207B9
:101A600008F062C1C03FD10508F417C1D0655CC160
:101A7000C11580E3D80708F0D9C0CE019F70D2C04D
:101A8000C11595E5D90708F044C0C11524E5D20772
:101A900008F0EDC0C11582E5D80710F5C11591E534
:101AA000D90708F0D0C0CE0174E0969587957A9555
:101AB000E1F7282F23703C2F337081E090E002C0C3
:101AC000880F991F3A95E2F79C68922BCF70C695C4
:101AD000C69520E2C29FE0011124C82BD92B24C156
:101AE0009E01237033278C2F86958695C115D3458B
:101AF00008F0AEC0C1E0D0E002C0CC0FDD1F2A95D7
:101B0000E2F720E2829FC0011124C82BD92BDC68A8
:101B10000BC1C11529E5D20780F4C11588E5D807A6
:101B200008F0AAC0C11596E5D90708F0B6C0CF7174
:101B3000DD27DC2FCC27D062F7C0CE01C1152AE506
:101B4000D20708F49EC090568115904208F0A5C0B7
:101B50008D2F8F710E94140FDD27D0628F719BC073
:101B6000C53AD10509F49CC0C63AD10509F09BC01D
:101B7000C2E8D0E4D9C0C83AD10509F497C0C93A3F
:101B8000D10509F496C0CA3AD10509F495C0CB3AFB
:101B9000D10509F494C0CC3AD10509F493C0CB3BEC
:101BA000D10509F492C0CC3BD10509F491C0CD3ADE
:101BB000D10509F490C0C03BD10509F48FC0CE3ADD
:101BC000D10509F48EC0CF3AD10509F48DC0C13BCF
:101BD000D10509F48CC0C23BD10509F48BC0C33BCD
:101BE000D10509F48AC0C43BD10509F489C0C53BBD
:101BF000D10509F488C0C63BD10509F487C0C73BAD
:101C0000D10509F486C0C83BD10509F485C0C93B9C
:101C1000D10509F484C0CA3BD10509F483C0C0E0F2
:101C2000D4E482C00E94EC0CEC017EC0CE01992766
:101C3000D3FF03C0EC01D86C77C0EC01D06C74C04A
:101C4000DF70D06A71C0DC2FCC27C16FD06A6CC046
:101C5000C1E0D0E002C0CC0FDD1F2A95E2F720E200
:101C6000829FC0011124C82BD92BDA685DC0DC2FFC
:101C7000CC27C46FD06A58C0DC2FCC27C06FD06A85
:101C800053C024E0969587952A95E1F78F70CF7021
:101C9000C06ED0E0D06AD82B47C0C0E0D0E044C0CE
:101CA000C1E8D0E441C0C3E8D0E43EC0C2EED4E411
:101CB0003BC0C9EED4E438C0CAEED4E435C0C5EBAD
:101CC000D4E432C0C6EBD4E42FC0C3EBD4E42CC0C0
:101CD000C4EBD4E429C0C7EBD4E426C0CCECD4E4F4
:101CE00023C0CDECD4E420C0C3E8D5E41DC0CAE8CD
:101CF000D5E41AC0C2E9D5E417C0C4E9D5E414C0DC
:101D0000C1E2D6E411C0C3E2D6E40EC0C4E2D6E418
:101D10000BC0C5E2D6E408C0C6E2D6E405C0C7E2FF
:101D2000D6E402C0CAE2D6E4CE01DF91CF91089595
:101D30008238910549F1B0F48133910509F459C015
:101D400048F48932910509F44FC08A32910509F4AB
:101D500055C008958533910509F441C08933910533
:101D600099F00895833E910531F138F4803E910554
:101D700091F0823E9105A9F00895863E910501F10A
:101D8000873E910539F1089520914B0220FD3BC01B
:101D900021FD39C0089580914B0280FF34C089E352
:101DA00041C080914B0282FF30C080914B0284FD84
:101DB0002EC083EE37C080914B0282FD26C0F5CF46
:101DC00080914B0283FF25C080914B0284FD1FC090
:101DD00087EE28C080914B0283FD1BC0F5CF809118
:101DE0004B0285FD18C019C080914B0285FD15C0BE
:101DF00012C080914B0286FD12C013C080914B022D
:101E000086FD0FC00CC080EE0DC082EE0BC080E0DE
:101E100009C086EE07C089E205C085E303C08AE2F7
:101E200001C081E390E0089590914B0292FF0DC0B4
:101E3000282F2871283019F4877F846006C0282F46
:101E40002471243011F48B7F886093FF0DC0282FFC
:101E50002871283119F4877E846106C0282F2471E7
:101E6000243111F48B7E886194FD877E0895089556
:101E70000F931F93CF93FB012281211102C0C1E078
:101E800041C08C01C0919001C11125C086319C4593
:101E9000B1F70E94370F81E0809390010E94C41D2A
:101EA00090938F0180938E0110928301109285018F
:101EB000109284011092870110928601109289017C
:101EC0001092880110928B0110928A0110928D015C
:101ED00010928C0117C080918E0190918F010E9409
:101EE000D01D8C32914058F690918301E92FF0E09B
:101EF000EE0FFF1FEC57FE4F118300839F5F9093FF
:101F00008301C0E08C2FCF911F910F910895CF9343
:101F1000DF93EC0181E08F878F810E94971C888579
:101F20000E94AA1C0E94611CEA81FB81CE010696D8
:101F3000309729F06A897B89DF91CF910994DF91ED
:101F4000CF910895EF92FF920F931F93CF93DF935A
:101F5000FC012085211134C0EC01E380F480F7E519
:101F6000FF1A24E12E9DC0012F9D900D1124DC014C
:101F7000AB58BE4F1496ED91FC91159785589E4F26
:101F8000309729F052966D917C915397099584E191
:101F90008E9D80018F9D100D11240B581E4FF8014E
:101FA00087810E949D1CF80180850E94B01C0E94C0
:101FB000611C18821F821986109292011092910161
:101FC000DF91CF911F910F91FF90EF900895DF92D5
:101FD000EF92FF920F931F93CF93DF93FB01228128
:101FE000222391F1209107012F3F71F18C01C5E768
:101FF000D1E0E12CF12CDD24D39480910701082E4F
:10200000000C990B8E159F05FCF08E818823B9F08A
:1020100089859A858017910739F480919101909173
:1020200092010817190759F0DD868F85811103C0C9
:10203000CE010E94870FCE0106960E94A20FFFEFED
:10204000EF1AFF0A6496D9CFDF91CF911F910F91BC
:10205000FF90EF90DF900895EF92FF920F931F9300
:10206000CF93DF939C0137552F3F310511F008F0D6
:1020700047C040910701042E000C550B421753072F
:1020800014F420930701FB017C01828194E1929F6B
:102090008001939F100D1124E801CB58DE4F8E87ED
:1020A00092818E81992311F1FA86E9868F5F8E8362
:1020B0000E94C41D9C878B870E94D01C8F830E9426
:1020C000941C88870E94A71C9885892B8887E881A3
:1020D000F981C80185589E4F309719F06A897B892C
:1020E0000995F0929201E09291010AC0882341F093
:1020F0008F85882329F0C80185589E4F0E94A20F22
:1021000081E0DF91CF911F910F91FF90EF900895A3
:10211000CF92DF92EF92FF920F931F93CF93DF93B3
:10212000809107018F3FF1F1F12C94E1E92E0F2D01
:1021300010E080910701082E000C990B8017910781
:102140008CF1E09EF001E19EF00D1124EB58FE4F62
:10215000C088D188C114D10419F488ECC82ED12CC0
:10216000E09EE001E19ED00D1124CB58DE4F8E8120
:102170008823B1F08B859C850E94D01DC816D90696
:1021800078F48F85811103C0CE010E94870FE09EF5
:10219000C001E19E900D112485589E4F0E94A20F10
:1021A000F394C5CFDF91CF911F910F91FF90EF90E6
:1021B000DF90CF90089590939801809397010895B0
:1021C000E0919701F0919801309721F00190F08112
:1021D000E02D099480E00895E0919701F091980135
:1021E000309721F00280F381E02D09940895E09169
:1021F0009701F0919801309721F00480F581E02D4E
:102200000994089520919501309196012817390776
:1022100071F09093960180939501E0919701F09170
:102220009801309721F00680F781E02D09940895F8
:1022300020919301309194012817390771F0909300
:10224000940180939301E0919701F0919801309768
:1022500021F00084F185E02D099408950C9418076D
:1022600081E008950E94BB1D0E9466050C94311EFA
:10227000BF92CF92DF92EF92FF920F931F93CF9373
:10228000DF93CDB7DEB72A970FB6F894DEBF0FBE47
:10229000CDBF0E94AE060E943011811111C08FEF98
:1022A00089838A831B820E94C41D8160782F9D834D
:1022B0008C8349815A816B818D810E94E11154C0C8
:1022C0008AE9C82E81E0D82E00E010E0B02E802FE1
:1022D0000E94F206E82EF60121916F01F82EF226F7
:1022E00031F40F5F1F4F0E30110581F7D8CF809169
:1022F0002D0281FD0E94F80680E090E02F2D30E055
:10230000482FB901082E02C0759567950A94E2F727
:1023100060FF25C08E83BF8281E090E06C0102C027
:10232000CC0CDD1C4A95E2F72E2D30E02C213D210E
:10233000232B09F480E088870E94C41D8160782FD8
:102340009A8789874E815F8168858A850E94E1111D
:10235000F801E656FE4F80818C25808305C00196EA
:102360008630910569F6BDCF0E94C41F0E94E0101F
:10237000909199018917A9F00E94E010809399012A
:102380002A960FB6F894DEBF0FBECDBFDF91CF9176
:102390001F910F91FF90EF90DF90CF90BF900C9422
:1023A000D60C2A960FB6F894DEBF0FBECDBFDF91D4
:1023B000CF911F910F91FF90EF90DF90CF90BF9042
:1023C0000895CF93DF93CDB7DEB72B970FB6F89470
:1023D000DEBF0FBECDBF4F83588769877A878B8753
:1023E000DE01119686E0FD0111928A95E9F785E0FC
:1023F000FE01379601900D928A95E1F749815A8145
:102400006B817C818D819E810E9431192B960FB644
:10241000F894DEBF0FBECDBFDF91CF910895FC01D0
:10242000808191810E94021C0895CF93882309F432
:10243000FCC0C82F8238C1F40E94E01081FDF5C0B5
:1024400069E380910801909109010E943D1D0E945D
:10245000611C2FEF81EE94E0215080409040E1F725
:1024600000C0000069E319C0833801F50E94E01044
:1024700080FDDBC063E580910801909109010E9415
:102480003D1D0E94611C2FEF81EE94E021508040A1
:102490009040E1F700C0000063E580910801909151
:1024A00009010E943F1DCF910C94611C8438C1F436
:1024B0000E94E01082FDB9C067E48091080190910C
:1024C00009010E943D1D0E94611C2FEF81EE94E0E6
:1024D000215080409040E1F700C0000067E4DDCF6C
:1024E0008CEF8C0F813A68F48C2F0E94D5218111DA
:1024F0009CC06C2F80910801909109010E943D1DA4
:10250000D2CF80E28C0F883048F4C77081E001C0E0
:10251000880FCA95EAF70E94971CC5CF8BE58C0FF0
:10252000833078F4C53A29F0C63A31F083E890E078
:1025300005C081E890E002C082E890E0CF910C9461
:10254000021188E58C0F853108F06FC0C83A61F13F
:10255000C93A69F1CA3A71F1CB3A79F1CC3A81F1D1
:10256000CB3B89F1CC3B91F1CD3A99F1C03BA1F144
:10257000CE3AA9F1CF3AB1F1C13BB9F1C23BC1F1B9
:10258000C33BC9F1C43BD1F1C53BD9F1C63BE1F135
:10259000C73BE9F1C83BF1F1C93BF9F1CA3B09F48A
:1025A0003FC080E090E03EC082EE90E03BC089EE0C
:1025B00090E038C08AEE90E035C085EB90E032C004
:1025C00086EB90E02FC083EB90E02CC084EB90E092
:1025D00029C087EB90E026C08CEC90E023C08DEC06
:1025E00090E020C083E891E01DC08AE891E01AC025
:1025F00082E991E017C084E991E014C081E292E0A1
:1026000011C083E292E00EC084E292E00BC085E24A
:1026100092E008C086E292E005C087E292E002C044
:102620008AE292E0CF910C941811CF9108958823FB
:1026300009F45BC0682F823879F40E94E01081FFB2
:1026400054C069E380910801909109010E943D1DE9
:102650000E94611C69E310C08338B1F40E94E0104D
:1026600080FF43C063E580910801909109010E94B9
:102670003D1D0E94611C63E5809108019091090154
:102680000E943F1D0C94611C843879F40E94E01074
:1026900082FF2BC067E480910801909109010E949C
:1026A0003D1D0E94611C67E4E7CF8CEF860F813AE5
:1026B00018F380E2860F883048F4677081E001C02B
:1026C000880F6A95EAF70E949D1CDCCF8BE5860F88
:1026D000833020F480E090E00C940211685A653158
:1026E00020F480E090E00C9418110895882321F0E4
:1026F0000E94971C0C94611C0895882321F00E946D
:102700009D1C0C94611C08958F929F92AF92BF9272
:10271000DF92EF92FF920F931F93CF93DF937C0191
:10272000D62FC72FFC01058102950F701281111160
:102730000E94B71C0E945A1C882379F0112369F06B
:1027400080E28D0F883048F082E00E94431C0E9496
:102750005A1C91E0D82ED92601C0D12CBC2EB2949F
:102760008FE0B8228B2D90E0FC01EF57FF4F0C94C7
:102770008A298C2F807FCF70882311F0C295C07F6B
:10278000112399F0CC2309F4C3C180E28D0F883066
:1027900010F0D11104C08C2F0E94971C03C08C2F05
:1027A0000E94AA1C0E94611CB3C18D2F0E941713A6
:1027B000CC2309F4D2C180E28D0F883010F0D11102
:1027C00004C08C2F0E949D1C03C08C2F0E94B01C43
:1027D0000E94611CC2C18C2F807FCF70803211F0AB
:1027E000C295C07FDD2319F0D130C9F022C011237A
:1027F00071F0002341F0013031F40E94D01C8C2B89
:102800000E94CA1CAAC10E94D01C8C2B3AC1002372
:1028100019F0013009F4A1C10E94CD1C18C0112388
:1028200021F0063008F099C10EC0053008F095C1BE
:102830000EC0112351F0002331F0F701858180FF94
:1028400067C18F7085838C2F1CC1011172C18C2FC1
:102850001EC18C2F86958695837019F0813061F0AA
:102860007CC1112321F08D2F9C2F937002C080E03A
:1028700090E00E9402117EC1112321F08D2F9C2F28
:10288000937002C080E090E00E94181173C1112380
:10289000F9F0D53F51F0D63F71F0D43FA9F48091C3
:1028A00045029091460281600BC080914502909153
:1028B0004602826005C08091450290914602846084
:1028C00090934602809345028D2F0E94CC1E1EC01D
:1028D000D53F51F0D63F71F0D43FA9F48091450225
:1028E000909146028E7F0BC08091450290914602E6
:1028F0008D7F05C080914502909146028B7F909319
:102900004602809345028D2F0E94341F0E94B91FFA
:1029100031C18C2F837009F04CC0111127C12D2FAC
:10292000229526952770220F220F6D2F6F70862F0C
:1029300090E0A0E0B0E04C015D01022E04C0880CE4
:10294000991CAA1CBB1C0A94D2F7D4FF12C08FE0BA
:1029500090E0A0E0B0E004C0880F991FAA1FBB1F41
:102960002A95D2F7BC01CD01609570958095909520
:1029700003C060E070E0CB01C695C695C370C2305D
:1029800051F080F4682979298A299B29C13071F096
:102990000E94801AEBC0682979298A299B290E9404
:1029A000921AE4C00E94801AC501B4010E946E1AF6
:1029B000DDC0112319F08C2F817001C0869588230A
:1029C00009F4D4C02D2F229526952770220F220FAF
:1029D0006D2F6F70862F90E0A0E0B0E04C015D019C
:1029E000022E04C0880C991CAA1CBB1C0A94D2F7A6
:1029F000D4FF12C08FE090E0A0E0B0E004C0880FE8
:102A0000991FAA1FBB1F2A95D2F7BC01CD01609563
:102A100070958095909503C060E070E0CB01C695FD
:102A2000C695C370C23051F080F4682979298A298B
:102A30009B29C13071F00E94451B98C068297929F3
:102A40008A299B290E94571B91C00E94451BC501E2
:102A5000B4010E94331B8AC08D2F90E0FC01E05E20
:102A6000F109E531F10508F04FC0EF56FF4F0C9426
:102A70008A29DF708C2F8F71112331F00E94CC1ABC
:102A80008D2F0E94761369C00E94ED1A8D2F0E942F
:102A90007D1363C0112341F0053008F05EC08C2F18
:102AA0008F710E94121B59C0063008F056C0F7CF34
:102AB000112339F08C2F8F710E94CC1A4EC0112334
:102AC000C9F38C2F8F710E94ED1A47C0112329F092
:102AD0008C2F8F710E94B71A40C00E94B21A3DC05D
:102AE000112349F0CF718C2F0E94CC1A63E08C2FF8
:102AF0000E943A1C32C081E00E94431C023068F1FF
:102B000082E00E94431C29C0112331F0002391F27E
:102B10008D2F0E94151221C0002399F2D93349F458
:102B2000FFEF27EE83E0F15020408040E1F700C046
:102B300000008D2F0E94171310C04C2F4F706D2F67
:102B4000C7010E9493090E94DF1914C04C2F4F70D7
:102B50006D2FC7010E94D80C0DC098E0B91631F056
:102B6000B91640F086EF8B0D823020F40E94E01001
:102B70000E94D60CDD20E1F00E94361C80FD18C0BA
:102B8000F70112820E94301C0E94CC1AC7010E94D9
:102B9000E4150E94301CDF91CF911F910F91FF909F
:102BA000EF90DF90BF90AF909F908F900C94ED1AB4
:102BB000DF91CF911F910F91FF90EF90DF90BF9029
:102BC000AF909F908F9008950F931F93CF93DF93B3
:102BD000EC01988189812B813C81232B31F08F3F3F
:102BE00031F481E09F3F19F403C081E001C080E02F
:102BF00080FD13C0CE010E94F10A882371F0688124
:102C000079818A810E940D1C8C010E94691B0E949F
:102C10005C1AB801CE010E948413DF91CF911F91FD
:102C20000F9108950E94B71C0E94C71C8091080153
:102C3000909109010E94411D0E94611C0E94522036
:102C40000E94B91F80E090E00E94021180E090E0B5
:102C50000C9418110E94A41C0C9412160E94021CC1
:102C6000E92FE295EF704E2F50E0FA013297EE30E7
:102C7000F105B0F4EA55FF4F0C948A29803F91F09A
:102C800018F4803E68F40EC0843F51F40BC0803EBF
:102C900048F0813F29F406C093FB882780F9089506
:102CA00080E0089581E00895CF93DF9300D000D0B5
:102CB0001F92CDB7DEB70F900F900F900F900F902F
:102CC000DF91CF910895CF93DF9300D000D000D053
:102CD000CDB7DEB726960FB6F894DEBF0FBECDBFD8
:102CE000DF91CF9108951F93CF93DF93C091A901F6
:102CF00016E08091AA01C81799F0D0E01C9FF0015E
:102D00001D9FF00D1124E555FE4F408151816281D8
:102D10007381848195810E9463162196C770E9CFE3
:102D2000DF91CF911F9108954091DB015091DC011B
:102D30006091DD017091DE018091DF019091E001F1
:102D40000C9463162091A9019091AA0156E02917CD
:102D5000A9F030E0529FF001539FF00D1124E5558A
:102D6000FE4F7181761306C07081781303C07281A3
:102D7000741306C02F5F3F4F2770E9CF80E008959E
:102D800081E00895CF938091E00182958F7009F0E2
:102D90005FC08091DD01882309F45AC08091A901A8
:102DA000B091AA017091DB01A091DC014091DE019C
:102DB0005091DF0191E07F3F09F090E0692FC6E07C
:102DC0008B1709F445C04115510521F0AF3F21F0A3
:102DD00020E003C021E001C0262F90E020FD35C097
:102DE000C89FF001C99FF00D1124E555FE4F2181C8
:102DF0002A132BC02081271328C02281211125C02E
:102E0000238134812417350710F421503109241B04
:102E1000350B283C3105C8F42091E0012F7020616A
:102E20002093E00126E0289FF001299FF00D112456
:102E3000E055FE4F80818F70806180838BED91E043
:102E40000E94E415CF910C94731601968770B8CF49
:102E5000CF9108959F92AF92BF92CF92DF92EF925F
:102E6000FF920F931F93CF93DF93CDB7DEB7619798
:102E70000FB6F894DEBF0FBECDBF7C0185E0F70131
:102E8000DE011D9601900D928A95E1F7D701DC9045
:102E900011960C9111971296CC903091DB014091D4
:102EA000DC018091DE019091DF01009731F04F3F0E
:102EB00031F421E03F3F19F403C021E001C020E0DC
:102EC00020FD9FC1F701A380B4809090DD0199207F
:102ED00009F42BC12091E001A816B90628F0B5012C
:102EE000681B790BCB0104C0809590958A0D9B1DC2
:102EF00011E0883C910590F010E0207F09F0DBC0E4
:102F00007A2DB98AA88A4D2D502F6C2D89890E945F
:102F100054168BED91E00E94E4156BC1822F807FE7
:102F200009F091C0041315C0D31213C01C2DC11099
:102F300010C02F7020612093E0010E9494168BED49
:102F400091E00E94E4158091E001D70115968C93E1
:102F500075C1A114B10439F00F3F39F481E0BFEF1E
:102F6000DB1203C003C081E001C080E080FD03C02C
:102F700081E08C2502C080E090E080FF15C04C2DE0
:102F8000602F8D2D0E94A216882371F08BED91E0A9
:102F90000E94E415EBEDF1E086E0DF011D928A95D9
:102FA000E9F70E9494164DC0AB2839F00F3F39F471
:102FB00081E0BFEFDB1203C003C081E001C080E00D
:102FC00080FD03C081E08C2502C080E090E0E82F06
:102FD000E170BE2E80FF2CC04C2D602F8D2D0E94E5
:102FE000A216182F811124C0DD860E878D859E853F
:102FF0000E94021C292F22952F70223018F02430B5
:1030000090F405C09F7059F0811109C017C19F70DD
:1030100031F0D70115969C91907F09F40FC1805E25
:10302000883008F40BC1C7010E94E4151B2D06C1AE
:103030001C2DCC2009F402C18091E00181608093B5
:10304000E00110E0FBC0041309C0D31207C0C11097
:1030500005C08091E001F7018583A5C0DD860E875C
:103060008D859E850E942E16882379F1CC2069F1EA
:103070002091E001822F82958F7090E0029774F08A
:103080008091DB019091DC0198878F831986BB8644
:10309000AA862C87CE0107960E94E41586E0F701E8
:1030A000ABEDB1E001900D928A95E1F70E94C21656
:1030B0000E9494160DC0041769F0DD860E878D8579
:1030C0009E850E942E16811119C0C7010E94E41529
:1030D00011E0B4C0D312F1CFC110EFCF8091E00165
:1030E000F7018583C7010E94E41586E0EBEDF1E06E
:1030F000DF011D928A95E9F7192DA0C0CC2029F394
:103100002091E001822F82958F7090E0029734F237
:103110008091DB019091DC019A8389831B82BD82BF
:10312000AC822E83CE010196B7CFA816B90628F03F
:10313000F501E81BF90BCF0104C0809590958A0D2D
:103140009B1D883C910558F010E07A2DB98AA88A19
:103150004D2D502F6C2D89890E9454164AC01C2D6C
:10316000CC2009F4B2CF041333C0D31231C0209164
:10317000E00120FD24C0822F82958F70482F50E0FF
:1031800041155105E1F0D70115962C9315974F3055
:10319000510549F08F5F982F9295907F822F8F7005
:1031A000892B15968C93C7010E94E41586E0F701E0
:1031B000ABEDB1E001900D928A95E1F73DC086E05C
:1031C000F701ABEDB1E001900D928A95E1F736C0C1
:1031D000DD860E878D859E850E942E1681115ECF1D
:1031E0008091E00181608093E001C7010E94E415B5
:1031F00025C0EBEDF1E086E0DF011D928A95E9F74D
:103200001BC0CC2009F461CFDD860E878D859E859D
:103210000E942E16182F882309F457CF86E0F70155
:10322000ABEDB1E001900D928A95E1F78BED91E065
:103230000E940F120E94C2160E949416812F61965E
:103240000FB6F894DEBF0FBECDBFDF91CF911F91B7
:103250000F91FF90EF90DF90CF90BF90AF909F9035
:1032600008951F93CF93DF93CDB7DEB72C970FB69A
:10327000F894DEBF0FBECDBF4F83588769877A872A
:103280008B879C87CE0107960E942A178823D1F04E
:103290009F8188852A853B85232B31F08F3F31F430
:1032A00081E09F3F19F403C081E001C080E080FD10
:1032B00047C04F81588569857A858B859C850E949A
:1032C00063163EC086E0FE013796DE01119601903E
:1032D0000D928A95E1F7FF81E8856A857B85611506
:1032E000710531F0EF3F31F481E0FF3F19F403C085
:1032F00081E001C080E080FD23C02091AA0130E080
:10330000C9010196877099274091A90150E084175F
:103310009507F1F1F983EA837D836C8396E0929FB0
:10332000D001939FB00D1124A555BE4FFE013196DB
:1033300001900D929A95E1F78093AA010E9473166D
:1033400016E08091A9019091AA01891771F1189F47
:10335000C001112485559E4F0E942A17882329F108
:10336000E091A9011E9FF0011124E555FE4F408117
:10337000518162817381848195810E94631680915D
:10338000A90190E00196877099278093A901D9CF70
:103390000E942A161092AA011092A901EBEDF1E009
:1033A00086E0DF011D928A95E9F72C960FB6F89416
:1033B000DEBF0FBECDBFDF91CF911F910895EF9279
:1033C000FF920F931F93CF93DF938C01892B09F406
:1033D0006CC0F12CEE24E394E8012196F80184916D
:1033E000843740F4843008F051C0813081F082305D
:1033F00019F15BC0853709F444C0A8F19CE7980F28
:10340000903708F052C08F770E94171341C00E5FAB
:103410001F4FFE01849190E2980F983050F487700E
:10342000FE2D01C0FF0F8A95EAF78F2F0E94BA1C6C
:1034300014C00E9415122DC00E5F1F4FFE01849113
:1034400090E2980F983060F48770FE2D01C0FF0F56
:103450008A95EAF78F2F0E94C01C0E94611C19C038
:103460000E94171316C00E5F1F4FFE01C491CC239C
:1034700081F08FE99FE00197F1F700C00000C15093
:10348000F6CF0E5F1F4FFE01F49003C00E9415128D
:103490008E018F2D882309F49FCFEFE9FFE031974C
:1034A000F1F700C000008150F5CFDF91CF911F915F
:1034B0000F91FF90EF900895089508950C945D1A70
:1034C0000E945E1A60931C0270931D0280931E027C
:1034D00090931F020C9412160C94601A0F931F9372
:1034E00000911C0210911D0220911E0230911F02BA
:1034F000602B712B822B932B1F910F910C94601AD0
:103500000F931F9300911C0210911D0220911E0227
:1035100030911F0260237123822393231F910F9107
:103520000C94601A0F931F9300911C0210911D02BE
:1035300020911E0230911F02602771278227932756
:103540001F910F910C94601A0C945D1A0E94A41A9A
:10355000609318027093190280931A0290931B02D1
:103560000C94121660E070E0CB010C94A61A0F9335
:103570001F9341E050E060E070E08A019B0104C0CD
:10358000000F111F221F331F8A95D2F7C901B801FE
:103590001F910F910C94A61A0F931F9341E050E0D6
:1035A00060E070E004C0440F551F661F771F8A95C6
:1035B000D2F78091180290911902A0911A02B0914D
:1035C0001B028A019B01082B192B2A2B3B2BC901BB
:1035D000B8011F910F910C94A61A0F931F9341E00D
:1035E00050E060E070E004C0440F551F661F771F75
:1035F0008A95D2F740955095609570958091180204
:1036000090911902A0911A02B0911B028A019B01AC
:10361000082319232A233B23C901B8011F910F91C5
:103620000C94A61A0F931F9341E050E060E070E005
:1036300004C0440F551F661F771F8A95D2F78091EB
:10364000180290911902A0911A02B0911B028A01EE
:103650009B01082719272A273B27C901B8011F9179
:103660000F910C94A61A0F931F93009118021091BA
:10367000190220911A0230911B02602B712B822BB0
:10368000932B1F910F910C94A61A0F931F930091E7
:1036900018021091190220911A0230911B02602326
:1036A0007123822393231F910F910C94A61A0F93D9
:1036B0001F93009118021091190220911A02309163
:1036C0001B0260277127822793271F910F910C946B
:1036D000A61A0895292F220F920F990F890FE82F0C
:1036E000E695E695E695877051E001C0550F8A95FD
:1036F000EAF785E0E89FF0011124EF51FE4F20E04A
:1037000030E070E04081CB01022E02C09695879593
:103710000A94E2F781708195842785238427819319
:103720002F5F3F4F2530310569F70895292F220F6C
:10373000920F990F890F682F669566956695982F59
:10374000977085E0689FB001112440E050E080E070
:10375000FB01E40FF51FEF51FE4F208130E0092EF1
:1037600002C0369527950A94E2F721703327042E7C
:1037700001C0220F0A94EAF7822B4F5F5F4F45305A
:10378000510531F70895CF92DF92EF92FF920F9398
:103790001F93CF93DF938C01C0901802D090190231
:1037A000E0901A02F0901B0280911C0290911D0281
:1037B000A0911E02B0911F02C82AD92AEA2AFB2A28
:1037C000CFE1D0E0D701C6010C2E04C0B695A79575
:1037D000979587950A94D2F780FD04C0219790F7BA
:1037E00080E007C0B8018C2F0E94F40C0197B1F360
:1037F0008C2FDF91CF911F910F91FF90EF90DF9071
:10380000CF900895CF93DF93EC010E94C31BBE01BC
:103810000E94F40CDF91CF9108951F93CF93DF9313
:10382000EB019091A801992321F0CB010E94021C89
:1038300013C0882349F0CB010E94C31B182F682FA7
:10384000CE010E946A1B04C0CB010E94961B182F58
:10385000BE01812F0E94F40CDF91CF911F9108953A
:103860008091200285958595859508958091200207
:103870008770089598E0899F90011124262B20934A
:1038800020020C94CC1A20912002809582238093F0
:103890002002982F977069F430E0482F082E000C12
:1038A000550B2417350729F08595859585950C943A
:1038B000ED1A089590912002977081E009F480E05C
:1038C0000895E0910801F091090180912C02808314
:1038D000E0910801F0910901908180912B02892BE0
:1038E0008083E0910801F0910901908180912A0282
:1038F000892B808380912102882381F0E091080147
:10390000F09109019081892B808380910801909129
:1039100009010E94091D8111109221028091080164
:10392000909109010C94EC1080912C0208959091D3
:103930002C02892B80932C020895809590912C0263
:10394000892380932C02089510922C02089580916F
:103950002B02089590912B02892B80932B020895BE
:10396000809590912B02892380932B0208951092C9
:103970002B02089590912A02892B80932A020895A0
:10398000809590912A02892380932A0208951092AB
:103990002A02089580932102089510922102089529
:1039A0008091210208956DEE7EEF80E090E00E940C
:1039B000E52A60E082E090E00E94D32A60E083E0A4
:1039C00090E00E94D32A60E084E090E00E94D32A35
:1039D00060E085E090E00C94D32A80E090E00E94C3
:1039E000CD2A21E08D3E9E4F09F020E0822F0895E0
:1039F00082E090E00C94C52A83E090E00C94C52A04
:103A000084E090E00C94C52A682F84E090E00C9448
:103A1000D32AFC0131969C01285F3F4F80E09191B1
:103A200091118F5FE217F307D1F708959C01FC0114
:103A300032969FEF80E04191461789F09F3F19F43D
:103A4000411101C0982F8F5F8630A9F79F3F39F051
:103A5000F901E90FF11D97FDFA9562830895089524
:103A60009C012A5F3F4FFC014281461301C0128234
:103A7000019682179307B9F708950C94161D0C94BC
:103A8000301DFC01319608961192E817F907E1F70D
:103A9000089580915102843039F110922E0220E471
:103AA00088E190E00FB6F894A895809360000FBE6F
:103AB0002093600080E00E94D60C83B7817F8460F1
:103AC00083BF83B7816083BF7894889583B78E7FE7
:103AD00083BF0FB6F894A8958091600088618093A9
:103AE0006000109260000FBE089508950C94751D3B
:103AF000CF930E94761D0E94AE060E94751DC0E005
:103B00008C2F0E94F206811104C0CF5FCE30C1F726
:103B100001C081E0CF9108950E942A160E94E01012
:103B20000C94D60C1F920F920FB60F9211248F9304
:103B30009F93AF93BF9380912E02811113C0809108
:103B4000470290914802A0914902B0914A024196E1
:103B5000A11DB11D8093470290934802A093490292
:103B6000B0934A02BF91AF919F918F910F900FBE7A
:103B70000F901F90189582E084BD93E095BD9AEF59
:103B800097BD80936E0008952FB7F89480914702F7
:103B900090914802A0914902B0914A022FBF089526
:103BA000CF92DF92EF92FF920F931F932FB7F8946B
:103BB00040914702509148026091490270914A0237
:103BC0002FBF6A017B01EE24FF248C0120E030E04E
:103BD000C016D106E206F30610F4415051099A01CD
:103BE000281B390BC9011F910F91FF90EF90DF90B7
:103BF000CF90089578941F920F920FB60F921124D0
:103C00008F939F93AF93BF93809147029091480207
:103C1000A0914902B0914A020196A11DB11D809365
:103C2000470290934802A0934902B0934A02BF9181
:103C3000AF919F918F910F900FBE0F901F9018958D
:103C400087E797E790930108809300089AE088E15E
:103C50000FB6F894A895809360000FBE9093600013
:103C6000FFCF0E94ED1C811102C00E94D31C0E9454
:103C7000F81C80932D020E94001D90E090934C024E
:103C800080934B020E94FC1C682F70E080E090E063
:103C90000C946C1A8091310280FF0BC060910D0171
:103CA00085E0689FB00111247595679575956795B6
:103CB0002BC081FF09C060910D0185E0689FB001B4
:103CC00011247595679520C082FF07C060910D0192
:103CD00085E0689FB001112417C0909132029923AA
:103CE000D1F060910C01961788F720910D0185E0C5
:103CF000289F90011124929FA001939F500D1124A1
:103D000070E0CA010E9476296038710540F461159F
:103D1000710519F406C065E070E0862F08958FE7FD
:103D2000089581E008958091310280FF08C060917C
:103D30000B0170E0759567957595679521C081FFBA
:103D400006C060910B0170E07595679519C082FF00
:103D500004C060910B0170E010C090913202992371
:103D600099F060910A019617A0F780910B01899F45
:103D7000C001112470E00E9476296038710540F47A
:103D80006115710519F406C061E070E0862F089591
:103D90008FE7089581E00895803F21F40E944A1E34
:103DA000819504C0813F29F40E944A1E8093350208
:103DB0000895823F21F40E944A1E819504C0833FEA
:103DC00029F40E944A1E809334020895893F19F411
:103DD0000E94931E05C08A3F31F40E94931E819574
:103DE0008093360208958B3F21F40E94931E8195A3
:103DF00004C08C3F29F40E94931E809337020895DB
:103E0000843F21F480913302816017C0853F21F403
:103E100080913302826011C0863F21F48091330289
:103E200084600BC0873F21F480913302886005C015
:103E3000883F31F48091330280618093330208958A
:103E40008D3F21F48091310281600BC08E3F21F4BF
:103E500080913102826005C08F3F29F48091310248
:103E60008460809331020895803F39F48091350257
:103E700087FF6CC01092350269C0813F29F48091A0
:103E800035021816BCF362C090913402823F29F4C7
:103E900097FF5CC01092340259C0833F19F4191681
:103EA000CCF354C0893F41F48091360218160CF0CF
:103EB0004DC0109236024AC08A3F29F480913602E2
:103EC00087FF44C0F6CF8B3F39F48091370287FFDC
:103ED0003DC0109237023AC08C3F29F480913702DE
:103EE0001816BCF333C0843F21F4809133028E7FD7
:103EF00017C0853F21F4809133028D7F11C0863F2A
:103F000021F4809133028B7F0BC0873F21F4809195
:103F10003302877F05C0883F31F4809133028F7E62
:103F20008093330213C08D3F21F4809131028E7F44
:103F30000BC08E3F21F4809131028D7F05C08F3FF1
:103F400029F4809131028B7F809331028091340279
:103F500081110EC08091350281110AC08091360214
:103F6000811106C080913702811102C01092320285
:103F7000089583E392E00E94F7100E94C41D90937D
:103F8000300280932F0208951F93CF93DF93809187
:103F90002F02909130020E94D01DAC01909132020C
:103FA000992321F020910E0130E006C020910F01ED
:103FB0008AE0289F900111244217530708F46EC02D
:103FC00080913402C0913502D091360210913702AF
:103FD000811107C0C1115EC0D1115CC011115AC05E
:103FE0005DC09F3F19F09F5F90933202181624F432
:103FF0000E944A1E809334028091340287FF05C0DC
:104000000E944A1E8195809334021C1624F40E945B
:104010004A1E809335028091350287FF05C00E94B9
:104020004A1E81958093350240913402442379F0F1
:1040300030913502332359F025EB4203A0011124BE
:10404000509334023203C0011124909335021D169F
:1040500024F40E94931E809336028091360287FFDB
:1040600005C00E94931E819580933602111624F498
:104070000E94931E809337028091370287FF05C00C
:104080000E94931E819580933702DF91CF911F91FB
:104090000C94B91F9F3F09F0A6CFB7CFDF91CF9106
:1040A0001F910895E3E3F2E085E0DF011D928A9518
:1040B000E9F710923202109231020895833081F1B3
:1040C00028F4813059F08230D1F00895853009F418
:1040D00049C0B8F1863009F456C0089580910F01A7
:1040E000262F30E0280F311D2F3F310524F4680FB3
:1040F00060930F0108958FEF80930F0108958091D1
:104100000E01262F30E0280F311D2F3F310524F4FA
:10411000680F60930E0108958FEF80930E0108954C
:1041200080910D01262F30E0280F311D2F3F3105E2
:1041300024F4680F60930D0108958FEF80930D01B3
:10414000089580910C01262F30E0280F311D2F3F5C
:10415000310524F4680F60930C0108958FEF80936C
:104160000C01089580910B01262F30E0280F311D9E
:104170002F3F310524F4680F60930B0108958FEFF2
:1041800080930B01089580910A01262F30E0280FBB
:10419000311D2F3F310524F4680F60930A01089503
:1041A0008FEF80930A010895833011F128F4813054
:1041B00049F0823091F00895853081F120F1863008
:1041C000C1F1089580910F01681720F4861B809338
:1041D0000F01089510920F01089580910E01681744
:1041E00020F4861B80930E01089510920E0108950D
:1041F00080910D01681720F4861B80930D010895AE
:1042000010920D01089580910C01681720F4861B0F
:1042100080930C01089510920C01089580910B0178
:10422000681720F4861B80930B01089510920B01F0
:10423000089580910A01681720F4861B80930A0173
:10424000089510920A0108950F931F9341E050E0E2
:1042500060E070E08A019B0104C0000F111F221F63
:10426000331F8A95D2F7C901B8010E946C1A1F91B9
:104270000F910C942A168732D8F58E3108F07DC044
:104280008E3009F467C098F4873009F455C08B303C
:1042900009F476C0863009F077C080912D02817FC5
:1042A0008E7F80932D0281E08093390208958631BC
:1042B00009F466C068F4803109F066C080912D026F
:1042C00083FB222720F991E0922790FB83F94BC0D2
:1042D000893109F455C08B3109F056C080912D0207
:1042E00081FB222720F991E0922790FB81F93BC0C6
:1042F000883309F445C048F4893209F443C0853352
:1043000009F440C08732F1F13FC08334D9F120F481
:104310008A33D0F1895332C08834B1F50E942A160D
:104320002FEF83ED90E3215080409040E1F700C0F3
:1043300000000E94201E24C080912D02982F90958D
:10434000917090FB80F980932D02911119C0897FA3
:10435000877F10C080912D0282FB222720F991E0F7
:10436000922790FB82F980932D02992349F0809146
:104370002D02816080932D0203C08D510E94242163
:1043800081E0089580E0FACF80E0089580E008950C
:104390000C94C6218E518A3030F4E82FF0E0E15DB4
:1043A000FE4F8081089580E00895CF93C82F8091BB
:1043B0003902813069F018F08230C9F183C0E09190
:1043C0000801F09109018081823209F07DC007C0A7
:1043D000E0910801F09109018081823261F48C2F13
:1043E0000E94C821811104C08C2F0E943B211DC056
:1043F00081E090E01AC08C2F0E94C621811114C068
:10440000C43179F048F4CB3079F0C03109F060C0A4
:1044100082E08093390208C0C93219F0C83321F014
:1044200057C01092390254C081E0817053C0C93224
:1044300089F118F5C43171F1B0F4C73009F046C004
:104440008EE180930F0182E380930E018AE08093D6
:104450000D0184E180930C0188E080930B0188E2D8
:1044600080930A0133C082EE8C0F863078F58C2F52
:104470000E94CA218093380229C0CE34E9F020F48A
:10448000CB3421F56AE013C0C13579F0C235F1F4BF
:1044900061E00DC080913802882319F01092380233
:1044A00015C081E08093390215C061E006C080919B
:1044B00038020E945E200AC06AE0809138020E94A1
:1044C000D42004C01092390280E004C081E002C010
:1044D00080E0ABCFCF9108958091420208950F9371
:1044E0001F93CF93DF9300D01F92CDB7DEB78C011F
:1044F0000E94BB24823011F0843019F583E0898357
:104500001B830A838093E9008FEF9091E80081502C
:1045100095FD06C095ED9A95F1F700008111F5CF54
:104520008091E80085FF0DC040E050E063E070E05E
:10453000CE0101960E94D8248091E8008E77809366
:10454000E8000F900F900F90DF91CF911F910F9186
:104550000895CF93DF9300D01F92CDB7DEB720919F
:104560005102243031F522E02983805891099B8340
:104570008A8383E08093E9008FEF9091E800815077
:1045800095FD06C095ED9A95F1F700008111F5CFE4
:104590008091E80085FF0DC040E050E063E070E0EE
:1045A000CE0101960E94D8248091E8008E778093F6
:1045B000E8000F900F900F90DF91CF910895CF9367
:1045C000DF93EC010E94BB24823011F08430F9F4B7
:1045D00082E08093E9008FEF9091E800815095FD93
:1045E00006C095ED9A95F1F700008111F5CF809105
:1045F000E80085FF0CC040E050E065E070E0CE01CF
:104600000E94D8248091E8008E778093E800DF91A3
:10461000CF910895CF93DF93EC010E94BB248230A9
:1046200011F0843039F581E08093E9008FEF9091AB
:10463000E800815095FD06C095ED9A95F1F70000D0
:104640008111F5CF8091E80085FF14C040E050E073
:1046500068E070E0CE010E94D8248091E8008E7757
:104660008093E80088E0FE01AAE3B2E001900D9299
:104670008A95E1F7DF91CF910895809150028111E1
:1046800009C00E9469260E94C6268091E2008460CB
:104690008093E200089510925002089508950895BD
:1046A0000C948C1D42E061EC81E00E94E22542E026
:1046B00061EC82E00E94E22542E061EC83E00C9430
:1046C000E22580915302833009F453C030F48130E5
:1046D00071F0823009F48CC008958A3009F478C0F2
:1046E0008B3009F45EC0893009F09AC020C08091F7
:1046F0005202813A09F094C08091E800877F80934C
:10470000E8008091560290915702892B21F468E0CD
:104710008AE392E003C060E080E090E070E00E94F5
:1047200023258091E8008B778093E800089580919D
:104730005202813209F074C0809156029091570262
:10474000892B09F06DC08091E800877F8093E80095
:104750008091E80082FD05C0809151028111F8CF5F
:104760005FC08091F100809342028091E8008B77D6
:1047700053C080915202813A09F052C08091560292
:1047800090915702892B09F04BC08091E800877FF8
:104790008093E8008091E80080FFFCCF80911A01AF
:1047A00036C0809152028132D9F5809156029091A3
:1047B0005702892BA9F58091E800877F8093E80054
:1047C0000E9417268091540280931A010C942A1695
:1047D00080915202813221F58091E800877F809399
:1047E000E8000E94172680915502809343020895A5
:1047F00080915202813AA1F48091E800877F8093F2
:10480000E8008091E80080FFFCCF80914302809314
:10481000F1008091E8008E778093E8000C941726D1
:10482000089584B7877F84BF0FB6F894A8958091C8
:104830006000886180936000109260000FBE80E885
:1048400080936100109261000E942E110E946926DF
:104850000E94C6268091E20084608093E2007894F2
:104860000E945B290E94321180E191E00E94DB10DE
:1048700080915102853069F40E94491D80914F0258
:104880008823B1F30E94781D882391F30E94C224EB
:10489000EFCF0E943811ECCF0C944E24292F3327F0
:1048A00023303105C9F060F42130310581F0223028
:1048B000310509F047C084E590E026E039E046C0C4
:1048C0002132310511F12232310561F13BC082E123
:1048D00090E02AE539E03AC099278130910561F0EE
:1048E00040F08230910559F0039761F5E4EDF8E06E
:1048F00008C0E2E0F9E005C0EAEEF8E002C0EAED47
:10490000F8E0849190E09F0121C063307105D0F4FC
:10491000660F771FFB01EE5BFE4F2081318189E03E
:1049200090E014C06330710568F4FB01EE0FFF1FC7
:10493000E45CFE4F20813181FB01E75CFE4F80810A
:1049400090E004C080E090E020E030E0FA013183A4
:10495000208308950895CF93C82F0E94AA24C0935E
:104960004402CF91089580915102843011F081E08A
:10497000089582E0089580914402811102C00C9450
:10498000B324089580E189BD82E189BD09B400FEA8
:10499000FDCF8091D8008F7D8093D8008091E0007A
:1049A00082608093E0008091E00081FDFCCF08955B
:1049B000CF92DF92EF92FF920F931F93CF93DF93EB
:1049C000EC018B017A010E943626811133C0E1147B
:1049D000F10439F0F70180819181081B190BC80F90
:1049E000D91FC12CD12C0115110519F18091E800B6
:1049F00085FD16C08091E8008E778093E800E11471
:104A0000F10449F0F70180819181C80ED91ED1824D
:104A1000C08285E00FC00E943626882321F30AC099
:104A200089918093F10001501109FFEFCF1ADF0A3D
:104A3000DACF80E0DF91CF911F910F91FF90EF903F
:104A4000DF90CF9008952091580230915902261797
:104A5000370748F06115710539F42091E8002E7789
:104A60002093E80001C0B901FC0120E06115710547
:104A700079F1809151028823F1F18530F1F1809133
:104A8000E80083FD3CC08091E80082FD2EC080914B
:104A9000E80080FFEBCF2091F3008091F20090E0DE
:104AA000922B6115710551F08830910538F42191F0
:104AB0002093F100615071090196F3CF21E008972E
:104AC00009F020E08091E8008E778093E800CECF57
:104AD0002111CFCF0AC080915102882361F0853027
:104AE00061F08091E80083FD0AC08091E80082FFB8
:104AF000F2CF80E0089582E0089583E0089581E098
:104B0000089520915802309159022617370748F02E
:104B10006115710539F42091E8002E772093E800A3
:104B200001C0B901FC0120E06115710591F180918E
:104B30005102882309F440C0853009F43FC08091B8
:104B4000E80083FD3DC08091E80082FD2FC0809188
:104B5000E80080FFE9CF2091F3008091F20090E01F
:104B6000922B6115710559F08830910540F424911C
:104B70002093F1003196615071090196F2CF21E046
:104B8000089709F020E08091E8008E778093E80094
:104B9000CBCF2111CCCF0AC080915102882361F084
:104BA000853061F08091E80083FD0AC08091E800C3
:104BB00082FFF2CF80E0089582E0089583E00895B7
:104BC00081E00895982F973068F59093E900981741
:104BD00039F07091EC002091ED005091F00003C08D
:104BE000242F762F50E021FD02C09F5FECCF309143
:104BF000EB003E7F3093EB003091ED003D7F309332
:104C0000ED003091EB0031603093EB007093EC00DD
:104C10002093ED005093F0002091EE0027FDE5CFAA
:104C200080E008958F708093E90081E0089580917D
:104C3000520287FF11C08091E80082FD05C080917B
:104C400051028111F8CF11C08091E8008B770BC021
:104C500080915102882349F08091E80080FFF8CFCD
:104C60008091E8008E778093E80008952091E40019
:104C70003091E50095E64091EC00842F817040FF73
:104C800023C08091E80080FD1DC0809151028823DF
:104C900099F0853099F08091EB0085FD11C040912D
:104CA000E4005091E5002417350729F3915011F0E5
:104CB0009A01E1CF84E0089582E0089583E00895A9
:104CC00081E0089580E008954091E80042FFDDCF43
:104CD00008950E94D7260E94DF26E0EEF0E0808152
:104CE00081608083E8EDF0E080818F77808319BC5C
:104CF000A7EDB0E08C918E7F8C9380818F7E808336
:104D00001092500208950F931F93CF93DF930E9448
:104D1000D7260E94DF26C8EDD0E088818F77888370
:104D200088818068888388818F7D888319BC1092F0
:104D3000510210924D0210924F0210924E0200EE5C
:104D400010E0F80180818B7F808388818160888377
:104D500042E060E080E00E94E225E1EEF0E0808148
:104D60008E7F8083E2EEF0E08081816080838081AD
:104D700088608083F80180818E7F80838881806154
:104D80008883DF91CF911F910F910895E8EDF0E0B6
:104D900080818F7E8083E7EDF0E080818160808379
:104DA00084E082BF81E0809350020C948326E8ED7A
:104DB000F0E080818E7F80831092E200089510924F
:104DC000DA001092E10008951F920F920FB60F9231
:104DD00011242F933F934F935F936F937F938F9300
:104DE0009F93AF93BF93EF93FF938091E10082FF76
:104DF0000BC08091E20082FF07C08091E1008B7FB1
:104E00008093E1000E945A298091DA0080FF1FC040
:104E10008091D80080FF1BC08091DA008E7F809344
:104E2000DA008091D90080FF0DC080E189BD82E168
:104E300089BD09B400FEFDCF81E0809351020E943C
:104E40003D2305C019BC109251020E944B23809152
:104E5000E10080FF19C08091E20080FF15C08091C1
:104E6000E2008E7F8093E2008091E2008061809377
:104E7000E2008091D80080628093D80019BC85E060
:104E8000809351020E944F238091E10084FF30C043
:104E90008091E20084FF2CC080E189BD82E189BD60
:104EA00009B400FEFDCF8091D8008F7D8093D8009B
:104EB0008091E1008F7E8093E1008091E2008F7EFF
:104EC0008093E2008091E20081608093E200809113
:104ED0004D02882311F084E007C08091E30087FD34
:104EE00002C081E001C083E0809351020E94502300
:104EF0008091E10083FF29C08091E20083FF25C0FB
:104F00008091E100877F8093E10082E080935102ED
:104F100010924D028091E1008E7F8093E10080919C
:104F2000E2008E7F8093E2008091E20080618093B6
:104F3000E20042E060E080E00E94E2258091F00023
:104F400088608093F0000E944E23FF91EF91BF9103
:104F5000AF919F918F917F916F915F914F913F9111
:104F60002F910F900FBE0F901F9018951F920F92C8
:104F70000FB60F9211242F933F934F935F936F932C
:104F80007F938F939F93AF93BF93CF93DF93EF93D1
:104F9000FF93C091E900CF708091EC00D82FD170C1
:104FA00080FDD0E81092E9008091F000877F809327
:104FB000F00078940E94FA271092E9008091F000A6
:104FC00088608093F000CD2BCF70C093E900FF91F3
:104FD000EF91DF91CF91BF91AF919F918F917F9191
:104FE0006F915F914F913F912F910F900FBE0F9056
:104FF0001F9018951F93CF93DF93CDB7DEB7AA9775
:105000000FB6F894DEBF0FBECDBFE2E5F2E08091AF
:10501000F100819322E0EA35F207C9F70E9461238B
:105020008091E80083FF2EC180915202909153023B
:10503000492F50E04A30510508F024C1FA01EC54E0
:10504000FF4F0C948A29803821F0823809F01AC168
:1050500008C080914E0290914F02992389F082609E
:105060000FC0809156028F70873008F00BC180937B
:10507000E9008091EB0085FB882780F91092E90018
:105080009091E800977F9093E8008093F100109250
:10509000F100D1C0282F2D7F09F0F4C0882319F02A
:1050A000823061F0EFC080915402813009F0EAC093
:1050B000933009F080E080934F022EC0809154021B
:1050C00081112AC0809156028F702FEF280F263051
:1050D00008F0D8C08093E9002091EB0020FF1CC0AD
:1050E000933021F48091EB00806214C09091EB002A
:1050F00090619093EB0021E030E0A90102C0440FE1
:10510000551F8A95E2F74093EA001092EA008091D9
:10511000EB0088608093EB001092E9008091E8003A
:10512000877F8093E8000E941726ACC08111AAC037
:10513000109154021F778091E3008078812B809337
:10514000E3008091E800877F8093E8000E941726A3
:105150008091E80080FFFCCF8091E300806880931D
:10516000E300111102C082E001C083E0809351028C
:1051700089C08058823008F085C080915402909197
:1051800055028C3D53E0950779F583E08A838AE2E6
:1051900089834FB7F894DE01139620E03EE051E298
:1051A000E32FF0E050935700E49120FF03C0E29515
:1051B000EF703F5FEF708E2F90E0EA3010F0C796EF
:1051C00001C0C0968D939D932F5F243149F74FBF47
:1051D0008091E800877F8093E8006AE270E0CE016A
:1051E00001960E94232516C06091560270915702C5
:1051F000AE014F5F5F4F0E944C24BC01892B09F424
:1052000041C09091E800977F9093E80089819A814E
:105210000E9481258091E8008B778093E80032C05E
:10522000803881F58091E800877F8093E800809145
:105230004D028093F1008091E8008E7772CF81114A
:1052400021C0809154029091550299270297D4F47D
:105250008091E800877F8093E800809154028093DA
:105260004D020E94172680914D02811106C0809147
:10527000E30087FD02C081E001C084E08093510219
:105280000E9452238091E80083FF0AC08091E800C9
:10529000877F8093E8008091EB0080628093EB0031
:1052A000AA960FB6F894DEBF0FBECDBFDF91CF91A7
:1052B0001F9108950895CF93809151028823A1F002
:1052C000C091E900CF709091EC00892F817090FD22
:1052D00080E8C82B1092E9008091E80083FD0E94CD
:1052E000FA27CF70C093E900CF91089597FB072E5E
:1052F00016F4009407D077FD09D00E94902907FC8E
:1053000005D03EF4909581959F4F089570956195D5
:105310007F4F0895EE0FFF1F0590F491E02D099443
:10532000AA1BBB1B51E107C0AA1FBB1FA617B707CB
:1053300010F0A61BB70B881F991F5A95A9F78095E7
:105340009095BC01CD0108950F931F93CF93DF93E8
:105350008230910510F482E090E0E0915C02F091DF
:105360005D0220E030E0A0E0B0E0309719F140812C
:1053700051810281138148175907C8F08417950796
:1053800069F4109731F012960C93129713961C93B0
:1053900027C000935C0210935D0222C021153105E5
:1053A00019F04217530718F49A01BD01EF01DF010C
:1053B000F801DBCF21153105F9F0281B390B24301A
:1053C000310580F48A819B816115710521F0FB0113
:1053D0009383828304C090935D0280935C02FE01FC
:1053E000329644C0FE01E20FF31F81939193225045
:1053F0003109398328833AC020915A0230915B02E7
:10540000232B41F4209102013091030130935B0280
:1054100020935A022091000130910101211531059C
:1054200041F42DB73EB74091040150910501241B72
:10543000350BE0915A02F0915B02E217F307A0F4FA
:105440002E1B3F0B2817390778F0AC014E5F5F4FDA
:105450002417350748F04E0F5F1F50935B024093AF
:105460005A028193919302C0E0E0F0E0CF01DF9116
:10547000CF911F910F910895CF93DF93009709F477
:1054800081C0FC01329713821282A0915C02B0911C
:105490005D02109781F420813181820F931F20914A
:1054A0005A0230915B022817390751F5F0935B02DD
:1054B000E0935A0267C0ED0120E030E0CE17DF072D
:1054C00040F44A815B819E0141155105F1F0EA01EA
:1054D000F5CFD383C28340815181840F951FC817B4
:1054E000D90759F488819981840F951F0296918379
:1054F00080838A819B81938382832115310529F4DE
:10550000F0935D02E0935C023DC0E901FB83EA8316
:1055100049915991C40FD51FEC17FD0761F48081A3
:105520009181840F951F0296E90199838883828176
:1055300093819B838A83E0E0F0E012968D919C91A9
:105540001397009719F0FD01DC01F7CF8D919C9125
:1055500011979D012E5F3F4F820F931F20915A029A
:1055600030915B022817390769F4309729F41092BB
:105570005D0210925C0202C013821282B0935B0241
:10558000A0935A02DF91CF910895F999FECF92BD71
:1055900081BDF89A992780B50895A8E1B0E042E06E
:1055A00050E00C94ED2A262FF999FECF92BD81BDD3
:1055B000F89A019700B4021639F01FBA20BD0FB651
:1055C000F894FA9AF99A0FBE08950196272F0E942F
:1055D000D42A0C94D32ADC01CB01FC01F999FECF2B
:1055E00006C0F2BDE1BDF89A319600B40D9241506B
:0A55F0005040B8F70895F894FFCF7B
:1055FA0000006202200001FF22022808140A321E5B
:10560A006C220A23DF22A9226F22013534C697664B
:10561A009436323331F7F6F500000000000000013D
:10562A00020304050607080900404D36EF09A209DE
:08563A006C09180931094A0945
:00000001FF
