:100000000C9418050C9476070C945F050C945F050E
:100010000C945F050C945F050C945F050C945F05D0
:100020000C945F050C945F050C94C8250C949A26DB
:100030000C94761C0C945F050C945F050C945F0582
:100040000C945F050C945F050C945F050C945F05A0
:100050000C945F050C94DE1C0C945F050C945F05FA
:100060000C945F050C945F050C945F050C945F0580
:100070000C945F050C945F050C945F050C945F0570
:100080000C945F050C945F050C945F050C945F0560
:100090000C945F050C945F050C945F050C945F0550
:1000A0000C945F050C945F050C945F0567086F085E
:1000B00079088108890891089908A108A908B10858
:1000C000B908C108C908D108D908E108E908F80841
:1000D00000090809100941096D097A098409A00974
:1000E0007A0A7C0A870A7E0A800A820A840A860AB9
:1000F000890A8B0A8D0A980A8F0A910A930A950A2F
:10010000970A9A0A9D129D12CF12CF120D132B132C
:10011000911491146D1391141014101481149114EE
:1001200091148A141D141D141D141D141D141D1466
:100130001D141D141D141D141D141D141D141D1437
:100140001D141D142E143C1443144A145414221567
:100150002215341534152B15341534153415221584
:100160002215301534153415301507272E2726286B
:100170002E2726287A279D272628F42703282000C3
:1001800003E10002E10003E003E103E003E203E333
:100190000003E30002E30003E10002E10003E100E9
:1001A00003E100030903E003E10002E002E10209C8
:1001B00000031203E203E10002E202E10212000383
:1001C0000703E203E10002E202E1020700031B036E
:1001D000E001290002E0021B00030603E001290000
:1001E00002E0020600030F03E003E20002E202E085
:1001F000020F00031D03E103E00002E102E0021D23
:1002000000032A03E00002E0022A00034F03E0009B
:1002100002E0024F00035003E00002E0025000033E
:100220004D03E10002E1024D00034A03E10002E157
:10023000024A00034E03E10002E1024E00034B03B9
:10024000E10002E1024B00034F03E103E00002E0A2
:1002500002E1024F00035003E103E00002E002E18B
:10026000025000035103E10002E102510003520376
:10027000E10002E1025200034F03E10002E1024FFC
:1002800000035003E10002E1025003E100200003FB
:10029000E10002E10035001E001F002000210022C5
:1002A000002B0014001A0008001500170039000484
:1002B000001600070009000A0015301D001B00068B
:1002C00000190005000751E000E3001530E20001CD
:1002D000004D004A003F00290000000000163014C5
:1002E0003000000000000000002E0027002600253E
:1002F00000240023002D00130012000C0018001C25
:1003000000340033000F000E000D000B00280038F1
:1003100000370036001000110001003100E000300D
:10032000002F0001004E004B000F064C00000000A3
:10033000002A00DA5C00000000000000000100015B
:10034000000100010021040100010001001A010C5C
:10035000301501010001000401160101000901012D
:100360000015301D011B01060119010100010001EA
:100370000001001530010001000100010001000131
:10038000000000000001000100000000000000006B
:100390000001000100010001000100010001000155
:1003A000000B3052000A300100010001004F0051E3
:1003B0000050004D0028040100010001000100016F
:1003C0000001000100010030042F040100010001C0
:1003D00000150507050000000001001730000000AF
:1003E00000000000000100010001000100210601E1
:1003F00000010001000100010015060100010001DB
:1004000000010007060906010001001D03010001AB
:1004100000150507050100010001000100010001B0
:1004200000010001000100010000000000010014B3
:100430003000000000000000000100010001000188
:1004400000010001000100010012064B0001000143
:10045000000100010001004E0001004A00010001FE
:100460000001000100010001000100010001000184
:100470000001000100010001001505070500000052
:100480000001000100000000000000000001000168
:100490000001000100010001000100010001000154
:1004A0000001000100010001000100010001000144
:1004B0000001000100010001000100010001000134
:1004C0000001000100010001000100010001000124
:1004D000000000000001000100000000000000001A
:1004E0000001000100010001000100010001000104
:1004F00000010001000100010001001604010001DB
:1005000000010001000100010001000100010001E3
:1005100000010001000100010001000100010001D3
:100520000001000100000000004B014E010000002E
:1005300000000000000100010001000100010001B5
:1005400000010001000100010001000100010001A3
:10055000000100010001000100153001000100014F
:10056000000100010001000100010015300100013F
:100570000001000100010001000000000001001462
:100580003000000000000000000100010001000137
:100590000001000100010001000100010001000153
:1005A0000001000100010001000100010001000143
:1005B0000001000100010001000100010001000133
:1005C0000001000100010001000100010000000025
:1005D0000001000100000000000000000001000117
:1005E0000001000100010001000100010001000103
:1005F00000010001000100010001000100010001F3
:100600000015301D0110300F3019010100010001EB
:10061000000100065101000100010001000100017C
:100620000000000000010014300000000000000085
:1006300000010001000100010001000100010001B2
:1006400000053002300430010001000100013003D8
:1006500030003009300100010001000100010001FB
:100660000001000100010001000100010001000182
:100670000001000100000000000100010000000076
:100680000000000000010001000100010001000164
:100690000001000100010001000100010001000152
:1006A0000001000100010001000100010001000142
:1006B0000001000100010001000100010001000132
:1006C0000001000100010001000000000001001411
:1006D00030000000000000000001000100010001E6
:1006E00000010001000100010001000630010001CD
:1006F0000001000100010007300100083001000185
:1007000000010001000100010001000100010001E1
:1007100000010001000100010001000100000000D3
:100720000001000100000000000000000045003A48
:10073000003B003C003D003E0001000100010001C3
:1007400000010001000100010001000100010001A1
:1007500000005C135C183001000100010001000181
:100760000001000100010001000100010001000181
:100770000000000000010001000000000000000077
:1007800000440043004200410040003F00010001DE
:100790000001000100010001000100010001000151
:1007A0000001000100010001000100010001000141
:1007B0000001000100010001000100010001000131
:1007C0000001000100000000002C002C00000000CF
:1007D000000000000000000000000000002A2B289C
:1007E0000000000000000000000000000000000009
:1007F00029000000002C1E34202122243426272525
:100800002E362D3738271E1F20212223242526335C
:1008100033362E37381F0405060708090A0B0C0D5E
:100820000E0F101112131415161718191A1B1C1D70
:100830002F3130232D350405060708090A0B0C0D4E
:100840000E0F101112131415161718191A1B1C1D50
:100850002F3130354C000000000000000000000087
:100860000000000000000000000000000000000088
:10087000000000000000010101010101000101016F
:100880000100000000000000000000000000000166
:10089000000100010101010101010101010101014A
:1008A0000101010101010101010101010101010138
:1008B0000000000101000000000000000000000036
:1008C0000000000000000000000000000000000028
:1008D00001010101000403300000000E0344006127
:1008E000006300740079006C0000001603430048A8
:1008F00000200062006F0078004D006F00640073FC
:100900000000000403090409025400030100A0FAD6
:100910000904000001030101000921110100012265
:1009200040000705810308000A09040100010301D2
:100930000200092111010001224D00070582030870
:10094000000A09040200010300000009211101004E
:10095000012236000705830308000A120110010076
:10096000000008EDFE6030010001020301050109ED
:1009700080A10185021601002603001A81002A8346
:1009800000751095018100C0050C0901A1018503C6
:10099000160100269C021A01002A9C02751095017E
:1009A0008100C005010902A1010901A10005091981
:1009B000012905150025019505750181029501752F
:1009C0000381010501093009311581257F950275E3
:1009D00008810609381581257F950175088106056E
:1009E0000C0A38021581257F950175088106C0C063
:1009F00005010906A101050719E029E715002501F0
:100A00009508750181029501750881010508190194
:100A10002905950575019102950175039101050759
:100A2000190029FF150026FF00950675088100C0F2
:100A300011241FBECFEFDAE0DEBFCDBF04B603FE48
:100A400027C080914E0290914F02A0915002B09128
:100A500051028730904BA740B04BD1F410924E0218
:100A600010924F02109250021092510214BE84B79D
:100A7000877F84BF0FB6F894A89580916000886145
:100A800080936000109260000FBEE0E0F8E30995EB
:100A900011E0A0E0B1E0E0E8F1E502C005900D92C0
:100AA000A234B107D9F722E0A2E4B1E001C01D925F
:100AB000AE34B207E1F70E94F5220C94BE280C94E4
:100AC000000008950C9461050C946105CF93DF93A9
:100AD000809121028360886080932102ABE1B1E0C4
:100AE00042E251E061E070E08D91E82FE295EF7015
:100AF000F0E021A18F70EB0102C0CC0FDD1F8A95C1
:100B0000E2F7CE019C2F9095922391A392A1892B7D
:100B100082A34A175B0741F7A5E1B1E04BE151E041
:100B200061E070E08D91E82FE295EF70F0E021A197
:100B30008F70EB0102C0CC0FDD1F8A95E2F7CE016A
:100B40009C2F9095922391A392A1892B82A34A175F
:100B50005B0741F7559A209AE2E4F1E0A1E5B1E0A4
:100B600080E591E011921D928E179F07D9F7DF91D2
:100B7000CF910C94B10B2F923F924F925F926F9254
:100B80007F928F929F92AF92BF92CF92DF92EF921D
:100B9000FF920F931F93CF93DF9300D000D0CDB778
:100BA000DEB780910001811103C007E010E002C0B0
:100BB00000E010E08BE1C82E81E0D82E98012F5A7A
:100BC0003E4F790192E2892E91E0992E3C832B834E
:100BD000AA24A394B12C34E0732E6B817C81DB01B9
:100BE0004C901C92F60181916F01E82FE295EF7015
:100BF000F0E021A18F70A50102C0440F551F8A9516
:100C0000E2F7CA01242B21A322A1642E609426219D
:100C100022A350EA5A95F1F7A5E1B1E0BA83A9837E
:100C200020E030E0A981BA815D90BA83A983452D87
:100C300042954F7050E0DA0190962C90AB81BC81C8
:100C40003C90452D4F70D50102C0AA0FBB1F4A959D
:100C5000E2F7AD01422139F44A2D022E01C0440FC2
:100C60000A94EAF701C040E0342AAB81BC813C928F
:100C70002F5F3F4F26303105A9F691A1692261A26D
:100C800092A1892B82A31196BC83AB83FB01808147
:100C9000481661F0F1E0F0935F010E94A81C909368
:100CA0006101809360018BB187258BB98C149D0401
:100CB00009F093CF80915F018823A9F080916001B2
:100CC000909161010E94B41C069768F0F801EE5BF8
:100CD000FE4F80E0D7019D917D0191938F5F87301A
:100CE000C9F710925F0181E00F900F900F900F9065
:100CF000DF91CF911F910F91FF90EF90DF90CF90F8
:100D0000BF90AF909F908F907F906F905F904F902B
:100D10003F902F900895CF93DF9380910001811130
:100D200003C0C0E0D0E002C0C7E0D0E00E94DB0713
:100D3000009779F4CE5BDE4F20E030E0F901EC590A
:100D4000FE4F408149932F5F3F4F27303105B1F768
:100D500002C081E090E0DF91CF910895CF930E948F
:100D6000BB05C82F0E948B06892BD9F05D98809116
:100D700050018F5F809350018630B0F08091000168
:100D8000811103C0E0E0F0E002C0E7E0F0E0EE5BDC
:100D9000FE4F80E090E01192019687309105D9F7DF
:100DA00003C05D9A109250010E94B30B8C2FCF911B
:100DB00008950E94BB0580910001811103C0E7E006
:100DC000F0E002C0E0E0F0E0EE5BFE4F80E090E09B
:100DD0002191DC01AC59BE4F2C93019687309105CF
:100DE000B9F70895E82FF0E0EE5BFE4F808108959B
:100DF0000895E8EDF0E08081806180838AE18A9542
:100E0000F1F700C08091D900817008950E94F90621
:100E1000882319F00E94690704C00E949F1C0E9449
:100E20006D07789408950E9466050E94D906FDCF4B
:100E30000E9406070E94F906811102C00E94130752
:100E40000895509A08955098589A0895589A089578
:100E50000E942307489BFECF80E88A95F1F708950A
:100E60000E94230798E080E029B1880F2170822B2F
:100E700020E82A95F1F725E02A95F1F70000915036
:100E800099F708950F931F93CF93082F0E9421077E
:100E9000C8E010E0C15088F0C8010C2E02C0959542
:100EA00087950A94E2F780FF03C00E94260701C0DD
:100EB000589880E88A95F1F7EDCFCF911F910F9167
:100EC00008950E942107589880E88A95F1F70C94BC
:100ED00026070E9421070C9426070E942307E89A00
:100EE000E9E6F0E080818C7F808308951F920F9265
:100EF0000FB60F921124EF92FF921F932F933F93FF
:100F00004F935F936F937F938F939F93AF93BF9311
:100F1000CF93DF93EF93FF930E946107C0E0D0E08F
:100F200010E0CE018C599E4F7C01FC0180810E9413
:100F300042070E946107F7018081180F2196C73090
:100F4000D10579F7812F0E9442070E946107F0E8DE
:100F5000FA95F1F780E48A95F1F70E9430078093C3
:100F600063010E946107C09163010E943007D82F7E
:100F70000E9461070E94230780916201DC1711F033
:100F8000816001C08E7F80936201FF91EF91DF91BC
:100F9000CF91BF91AF919F918F917F916F915F9111
:100FA0004F913F912F911F91FF90EF900F900FBEA7
:100FB0000F901F901895EF92FF921F93CF93DF939E
:100FC000F8940E942107589825E02A95F1F700002F
:100FD0000E9423070E94260730E83A95F1F74899C6
:100FE00030C00E942807C0E0D0E010E00E94300727
:100FF000FE01EC59FE4F7F0180830E942807F70114
:101000008081180F2196C730D10581F70E943007E3
:10101000C82F0E9428071C1314C0809163010E94EE
:1010200042070E942807809163010E9442070E94A4
:1010300028070E9421070E942607789480E090E00C
:1010400003C0789481E090E0DF91CF911F91FF90F1
:10105000EF9008950C946205FB0122818A3D9C4526
:10106000E9F4222351F081E080936E0110926B012C
:1010700082E992E00E94AE0B1AC010926E018FE8D6
:1010800092E00E94AE0B80916B01811104C08DE84B
:1010900092E00E94AE0B10926B0109C0222339F03E
:1010A00080916E01882319F081E080936B0181E0CB
:1010B0000895CF93FC01C281862F90E08A3191057B
:1010C00008F058C1FC01EA5AFF4F0C946E28CC235B
:1010D00019F086E892E007C081E892E004C0CC23D2
:1010E00029F08CE792E00E94AE0B44C187E792E0C2
:1010F000FACFCC2319F082E792E0F5CF8DE692E0AB
:10110000F2CFCC2319F088E692E0EDCF83E692E0AF
:10111000EACFCC2319F08CE592E0E5CF85E592E0AB
:10112000E2CFCC2319F08EE492E0DDCF87E492E0A9
:10113000DACFCC2319F082E492E0D5CF8DE392E0B0
:10114000D2CFCC2319F088E392E0CDCF83E392E0B5
:10115000CACFCC2319F08EE292E0C5CF89E292E0AB
:10116000C2CFCC2319F084E292E0BDCF8FE192E0B0
:10117000BACFCC2319F08AE192E0B5CF85E192E0B5
:10118000B2CFCC2319F080E192E0ADCF8BE092E0BA
:10119000AACFCC2319F086E092E0A5CF81E092E0BF
:1011A000A2CFCC2319F08AEF91E09DCF83EF91E09D
:1011B0009ACFCC2319F08CEE91E095CF85EE91E09B
:1011C00092CFCC2319F080EE91E08DCF89ED91E0A4
:1011D00007C0CC2319F084ED91E085CF8DEC91E030
:1011E0000E94AE0B10926C0185E00E94D11934C0B0
:1011F000CC2319F086EC91E076CF8FEB91E073CFA2
:10120000CC2319F088EB91E06ECF81EB91E06BCFAE
:10121000CC2319F08AEA91E066CF83EA91E063CFAC
:10122000CC23F1F081E080936D0180916C018823E3
:1012300051F080916F01882309F464C080EA91E045
:101240000E94AE0B2BC080916F01882329F08DE99D
:1012500091E00E94AE0B24C081E00E94B0198AC0C8
:1012600010926D0110926C0181E00E94D11982E010
:101270000E94D11986E00E94D11985E00E94D119FF
:1012800079C0CC2391F081E080936F0180916D0152
:10129000882341F080916C01882311F086E0DDCF36
:1012A00082E0DBCF8AE991E01ECF10926F0186E0E9
:1012B0000E94D11982E00E94D11980916D0188238A
:1012C00049F080916C01882311F085E001C081E034
:1012D0000E94B01987E991E006CF83E0CC2329F082
:1012E0000E94B01984E991E0FECE0E94D11981E9F3
:1012F00091E0F9CECC23F1F190916C0181E0892746
:1013000080936C0185E0A9CF81E00E94D11982E031
:101310000E94D11983E00E94D11984E00E94D11962
:1013200085E00E94D11986E00E94D11987E00E94D1
:10133000D11980E00E94B01986E891E00E94AE0BBE
:10134000CC2341F081E080936E0110926B0183E821
:1013500091E0C9CE10926E0180E891E00E94AE0B40
:1013600080916B01882321F08EE791E00E94AE0B03
:1013700010926B0180E090E0CF91089581E0089594
:101380000C942C080E940E152FEF84E39CE0215052
:1013900080409040E1F700C0000087E797E7909316
:1013A0000108809300080C94041DFF920F931F9373
:1013B000CF93DF938C01FC01C081D18180919C018E
:1013C000811113C08281882349F0CE010E94A71A9F
:1013D000F82E682FCE010E944E1A04C0CE010E9442
:1013E0007A1AF82EBE018F2D04C0CE010E94A71AD2
:1013F000BE010E94BD0BEC01B8010E94CB0EB801EA
:10140000CE010E94C009882309F449C1B801CE0168
:101410000E94100F882309F442C1B801CE010E9436
:101420001C0E882309F43BC1C531FCE5DF0739F503
:101430000E94781B982FF80182812091020130913F
:101440000301882379F09A7A81E009F480E080939F
:101450007001911102C069E201C065E3C9010E94F7
:10146000211C0AC080917001811102C069E201C093
:1014700065E3C9010E94231C0E94451B10C1C631AF
:101480008CE5D80708F07EC0C130ECE5DE0759F4E2
:10149000F8018281882309F402C1809121028160D0
:1014A00080932102FCC0C230FCE5DF0708F452C083
:1014B000F8018281882309F455C00E94D11B811153
:1014C00002C00E94B71B0E94E41B90E09093400270
:1014D00080933F02FE01E350FC45E231F10530F418
:1014E000E059FF4F80913F020C946E2880913F029B
:1014F000816027C0826025C0846023C0806121C0D4
:1015000080621FC080641DC080681BC084608860CA
:1015100018C08E7F16C08D7F14C08B7F12C08F7E47
:1015200010C08F7D0EC08F7B0CC08F770AC08B7F61
:10153000877F07C087FB222720F991E0922790FB45
:1015400087F980933F0280913F020E94E81B0E942E
:101550000E15A5C0C115DC4569F081E080937501C9
:1015600080937601C801DF91CF911F910F91FF9079
:101570000C94BE09F8018281882309F490C00E946E
:10158000C2098DC0C53DECE5DE0759F5F801828141
:10159000882361F0109276010E94A81C9093740138
:1015A0008093730180E20E945A1279C08091760183
:1015B000882321F080E20E94611271C08091730142
:1015C000909174010E94B41C883C910598F780E2C8
:1015D0000E94611288E20E94F91088E20E94FB11C9
:1015E0005EC0C63DFCE5DF0708F044C0C33D8CE5A6
:1015F000D80719F5F8018281882351F010927501FE
:101600000E94A81C909372018093710182E0CBCF5D
:101610008091750181110FC08091710190917201CB
:101620000E94B41C883C910530F486E20E94F910B7
:1016300086E20E94FB1182E0BECFC43DDC4509F08A
:101640008CCFF80182818111A5CF80917601811123
:10165000B1CF80917301909174010E94B41C883CB9
:10166000910508F0A7CF87E20E94F91087E20E9457
:10167000FB11A0CFC83DFCE5DF0731F4F801828102
:10168000882369F080E009C0C93DDC4509F065CFD9
:10169000F8018281882319F082E00E948F2380E084
:1016A000DF91CF911F910F91FF900895CF9390E01C
:1016B000FC01EB52F84FC491FC01EB5AF74F8491B7
:1016C000882359F081EE0E94F9108C2F0E94F910A6
:1016D0008C2F0E94FB1181EE04C08C2F0E94F91008
:1016E0008C2FCF910C94FB110F931F93CF93DF930B
:1016F000EC01062FFE018491882359F19E012F5F92
:101700003F4F813041F4E901F9011491812F0E948A
:10171000F910812F0DC0823031F4E901F901849173
:101720000E94F9100AC0833031F4E901F901849173
:101730000E94FB1102C00E94560B2196802F882325
:10174000C9F2EFE9FFE03197F1F700C000008150E6
:10175000F6CFDF91CF911F910F91089560E00C9427
:10176000740B0C942A080E946C0F0C946405089565
:101770000C94B70B0C94B80B089524E5829FC0011C
:101780001124FC0126E0729FE00DF11D1124E60FEB
:10179000F11DEE0FFF1FEB56FD4F859194910895BB
:1017A000880F991FFC01EB52F74F85919491089592
:1017B000CF93DF930E94BD0B0E947C0DEC0181153D
:1017C000904508F041C0C11580E4D80708F01CC15D
:1017D000C83ED10510F5C03ED10508F089C1C83A10
:1017E000D10578F4C53AD10508F09EC0C130D105C5
:1017F00009F47EC108F435C1C430D10508F078C1C0
:1018000030C1CD3BD10508F49AC0C03CD10508F4E5
:1018100028C1CE01805C9109E9C0C11590E2D907C9
:1018200058F4C11521E0D20708F062C1C03FD105CC
:1018300008F417C1D0655CC1C11580E3D80708F072
:10184000D9C0CE019F70D2C0C11595E5D90708F067
:1018500044C0C11524E5D20708F0EDC0C11582E5EA
:10186000D80710F5C11591E5D90708F0D0C0CE0111
:1018700074E0969587957A95E1F7282F23703C2F91
:10188000337081E090E002C0880F991F3A95E2F72B
:101890009C68922BCF70C695C69520E2C29FE0014E
:1018A0001124C82BD92B24C19E01237033278C2FE0
:1018B00086958695C115D34508F0AEC0C1E0D0E04D
:1018C00002C0CC0FDD1F2A95E2F720E2829FC00103
:1018D0001124C82BD92BDC680BC1C11529E5D2070F
:1018E00080F4C11588E5D80708F0AAC0C11596E5AF
:1018F000D90708F0B6C0CF71DD27DC2FCC27D06226
:10190000F7C0CE01C1152AE5D20708F49EC0905653
:101910008115904208F0A5C08D2F8F710E94F80D9F
:10192000DD27D0628F719BC0C53AD10509F49CC0F8
:10193000C63AD10509F09BC0C2E8D0E4D9C0C83A84
:10194000D10509F497C0C93AD10509F496C0CA3A3D
:10195000D10509F495C0CB3AD10509F494C0CC3A2D
:10196000D10509F493C0CB3BD10509F492C0CC3B1F
:10197000D10509F491C0CD3AD10509F490C0C03B1E
:10198000D10509F48FC0CE3AD10509F48EC0CF3A03
:10199000D10509F48DC0C13BD10509F48CC0C23B0F
:1019A000D10509F48BC0C33BD10509F48AC0C43BFF
:1019B000D10509F489C0C53BD10509F488C0C63BEF
:1019C000D10509F487C0C73BD10509F486C0C83BDF
:1019D000D10509F485C0C93BD10509F484C0CA3BCF
:1019E000D10509F483C0C0E0D4E482C00E94D00BCA
:1019F000EC017EC0CE019927D3FF03C0EC01D86C67
:101A000077C0EC01D06C74C0DF70D06A71C0DC2F7D
:101A1000CC27C16FD06A6CC0C1E0D0E002C0CC0F4F
:101A2000DD1F2A95E2F720E2829FC0011124C82B16
:101A3000D92BDA685DC0DC2FCC27C46FD06A58C0C0
:101A4000DC2FCC27C06FD06A53C024E096958795D1
:101A50002A95E1F78F70CF70C06ED0E0D06AD82B96
:101A600047C0C0E0D0E044C0C1E8D0E441C0C3E812
:101A7000D0E43EC0C2EED4E43BC0C9EED4E438C0EA
:101A8000CAEED4E435C0C5EBD4E432C0C6EBD4E42E
:101A90002FC0C3EBD4E42CC0C4EBD4E429C0C7EB03
:101AA000D4E426C0CCECD4E423C0CDECD4E420C0F4
:101AB000C3E8D5E41DC0CAE8D5E41AC0C2E9D5E43C
:101AC00017C0C4E9D5E414C0C1E2D6E411C0C3E232
:101AD000D6E40EC0C4E2D6E40BC0C5E2D6E408C02A
:101AE000C6E2D6E405C0C7E2D6E402C0CAE2D6E444
:101AF000CE01DF91CF9108958238910549F1B0F47C
:101B00008133910509F459C048F48932910509F4EB
:101B10004FC08A32910509F455C008958533910567
:101B200009F441C08933910599F00895833E9105E8
:101B300031F138F4803E910591F0823E9105A9F093
:101B40000895863E910501F1873E910539F108958A
:101B500020913F0220FD3BC021FD39C008958091B6
:101B60003F0280FF34C089E341C080913F0282FF81
:101B700030C080913F0284FD2EC083EE37C080913B
:101B80003F0282FD26C0F5CF80913F0283FF25C032
:101B900080913F0284FD1FC087EE28C080913F02E4
:101BA00083FD1BC0F5CF80913F0285FD18C019C091
:101BB00080913F0285FD15C012C080913F0286FDD5
:101BC00012C013C080913F0286FD0FC00CC080EE92
:101BD0000DC082EE0BC080E009C086EE07C089E22E
:101BE00005C085E303C08AE201C081E390E0089567
:101BF00090913F0292FF0DC0282F2871283019F4D0
:101C0000877F846006C0282F2471243011F48B7FD5
:101C1000886093FF0DC0282F2871283119F4877E22
:101C2000846106C0282F2471243111F48B7E8861D1
:101C300094FD877E089508950F931F93CF93FB0122
:101C40002281211102C0C1E041C08C01C0918401F8
:101C5000C11125C086319C45B1F70E941B0E81E061
:101C6000809384010E94A81C909383018093820139
:101C700010927701109279011092780110927B01F5
:101C800010927A0110927D0110927C0110927F01D6
:101C900010927E01109281011092800117C08091F4
:101CA0008201909183010E94B41C8C32914058F6BD
:101CB00090917701E92FF0E0EE0FFF1FE858FE4FFB
:101CC000118300839F5F90937701C0E08C2FCF91A9
:101CD0001F910F910895CF93DF93EC0181E08F87DF
:101CE0008F810E947B1B88850E948E1B0E94451B52
:101CF000EA81FB81CE010696309729F06A897B89BB
:101D0000DF91CF910994DF91CF910895EF92FF92E7
:101D10000F931F93CF93DF93FC012085211134C0D3
:101D2000EC01E380F480F7E5FF1A24E12E9DC00169
:101D30002F9D900D1124DC01A559BE4F1496ED91F5
:101D4000FC9115978F589E4F309729F052966D91C0
:101D50007C915397099584E18E9D80018F9D100D94
:101D6000112405591E4FF80187810E94811BF8013B
:101D700080850E94941B0E94451B18821F82198631
:101D80001092860110928501DF91CF911F910F91E2
:101D9000FF90EF900895DF92EF92FF920F931F93C1
:101DA000CF93DF93FB012281222391F12091010146
:101DB0002F3F71F18C01CBE6D1E0E12CF12CDD2439
:101DC000D39480910101082E000C990B8E159F056C
:101DD000FCF08E818823B9F089859A858017910758
:101DE00039F480918501909186010817190759F0FF
:101DF000DD868F85811103C0CE010E946B0ECE015E
:101E000006960E94860EFFEFEF1AFF0A6496D9CF5E
:101E1000DF91CF911F910F91FF90EF90DF90089588
:101E2000EF92FF920F931F93CF93DF939C0137554F
:101E30002F3F310511F008F047C040910101042EF9
:101E4000000C550B4217530714F420930101FB01BA
:101E50007C01828194E1929F8001939F100D112457
:101E6000E801C559DE4F8E8792818E81992311F149
:101E7000FA86E9868F5F8E830E94A81C9C878B87D9
:101E80000E94B41B8F830E94781B88870E948B1B43
:101E90009885892B8887E881F981C8018F589E4FE2
:101EA000309719F06A897B890995F0928601E09252
:101EB00085010AC0882341F08F85882329F0C80155
:101EC0008F589E4F0E94860E81E0DF91CF911F9127
:101ED0000F91FF90EF900895CF92DF92EF92FF92D3
:101EE0000F931F93CF93DF93809101018F3FF1F107
:101EF000F12C94E1E92E0F2D10E080910101082EC4
:101F0000000C990B801791078CF1E09EF001E19E87
:101F1000F00D1124E559FE4FC088D188C114D104B9
:101F200019F488ECC82ED12CE09EE001E19ED00D82
:101F30001124C559DE4F8E818823B1F08B859C8595
:101F40000E94B41CC816D90678F48F85811103C08D
:101F5000CE010E946B0EE09EC001E19E900D112407
:101F60008F589E4F0E94860EF394C5CFDF91CF917C
:101F70001F910F91FF90EF90DF90CF900895909375
:101F80008C0180938B010895E0918B01F0918C017D
:101F9000309721F00190F081E02D099480E00895C0
:101FA000E0918B01F0918C01309721F00280F38158
:101FB000E02D09940895E0918B01F0918C01309708
:101FC00021F00480F581E02D099408952091890184
:101FD00030918A012817390771F090938A01809314
:101FE0008901E0918B01F0918C01309721F00680FE
:101FF000F781E02D0994089520918701309188019F
:102000002817390771F09093880180938701E09138
:102010008B01F0918C01309721F00084F185E02D47
:10202000099408950C94180781E008950E949F1C5C
:102030000E9466050C94151DBF92CF92DF92EF921D
:10204000FF920F931F93CF93DF93CDB7DEB72A97FD
:102050000FB6F894DEBF0FBECDBF0E94AE060E9441
:102060001410811111C08FEF89838A831B820E9413
:10207000A81C8160782F9D838C8349815A816B8154
:102080008D810E94C51054C08EE8C82E81E0D82EE4
:1020900000E010E0B02E802F0E94F206E82EF6013C
:1020A00021916F01F82EF22631F40F5F1F4F0E3091
:1020B000110581F7D8CF8091210281FD0E94F80699
:1020C00080E090E02F2D30E0482FB901082E02C0AB
:1020D000759567950A94E2F760FF25C08E83BF82ED
:1020E00081E090E06C0102C0CC0CDD1C4A95E2F767
:1020F0002E2D30E02C213D21232B09F480E0888710
:102100000E94A81C8160782F9A8789874E815F8101
:1021100068858A850E94C510F801E257FE4F8081CC
:102120008C25808305C001968630910569F6BDCF68
:102130000E94A81E0E94C40F90918D018917A9F0DA
:102140000E94C40F80938D012A960FB6F894DEBFCB
:102150000FBECDBFDF91CF911F910F91FF90EF90F8
:10216000DF90CF90BF900C94BA0B2A960FB6F894DC
:10217000DEBF0FBECDBFDF91CF911F910F91FF90BA
:10218000EF90DF90CF90BF900895CF93DF93CDB7BE
:10219000DEB72B970FB6F894DEBF0FBECDBF4F83CF
:1021A000588769877A878B87DE01119686E0FD0163
:1021B00011928A95E9F785E0FE01379601900D921C
:1021C0008A95E1F749815A816B817C818D819E815D
:1021D0000E9415182B960FB6F894DEBF0FBECDBF28
:1021E000DF91CF910895FC01808191810E94E61AD0
:1021F0000895CF93882309F4FCC0C82F8238C1F416
:102200000E94C40F81FDF5C069E3809102019091A5
:1022100003010E94211C0E94451B2FEF81EE94E0D8
:10222000215080409040E1F700C0000069E319C0F0
:10223000833801F50E94C40F80FDDBC063E5809107
:102240000201909103010E94211C0E94451B2FEF67
:1022500081EE94E0215080409040E1F700C0000002
:1022600063E580910201909103010E94231CCF91AC
:102270000C94451B8438C1F40E94C40F82FDB9C080
:1022800067E480910201909103010E94211C0E9449
:10229000451B2FEF81EE94E0215080409040E1F704
:1022A00000C0000067E4DDCF8CEF8C0F813A68F44A
:1022B0008C2F0E94B92081119CC06C2F809102014B
:1022C000909103010E94211CD2CF80E28C0F8830B4
:1022D00048F4C77081E001C0880FCA95EAF70E94F0
:1022E0007B1BC5CF8BE58C0F833078F4C53A29F082
:1022F000C63A31F083E890E005C081E890E002C082
:1023000082E890E0CF910C94E60F88E58C0F853140
:1023100008F06FC0C83A61F1C93A69F1CA3A71F17F
:10232000CB3A79F1CC3A81F1CB3B89F1CC3B91F1BD
:10233000CD3A99F1C03BA1F1CE3AA9F1CF3AB1F132
:10234000C13BB9F1C23BC1F1C33BC9F1C43BD1F1BF
:10235000C53BD9F1C63BE1F1C73BE9F1C83BF1F11F
:10236000C93BF9F1CA3B09F43FC080E090E03EC0B0
:1023700082EE90E03BC089EE90E038C08AEE90E0BB
:1023800035C085EB90E032C086EB90E02FC083EB48
:1023900090E02CC084EB90E029C087EB90E026C051
:1023A0008CEC90E023C08DEC90E020C083E891E0BD
:1023B0001DC08AE891E01AC082E991E017C084E963
:1023C00091E014C081E292E011C083E292E00EC07D
:1023D00084E292E00BC085E292E008C086E292E0DF
:1023E00005C087E292E002C08AE292E0CF910C94AD
:1023F000FC0FCF910895882309F45BC0682F8238C1
:1024000079F40E94C40F81FF54C069E380910201F6
:10241000909103010E94211C0E94451B69E310C09A
:102420008338B1F40E94C40F80FF43C063E58091FC
:102430000201909103010E94211C0E94451B63E54B
:1024400080910201909103010E94231C0C94451B72
:10245000843879F40E94C40F82FF2BC067E4809116
:102460000201909103010E94211C0E94451B67E418
:10247000E7CF8CEF860F813A18F380E2860F883021
:1024800048F4677081E001C0880F6A95EAF70E94FE
:10249000811BDCCF8BE5860F833020F480E090E059
:1024A0000C94E60F685A653120F480E090E00C94BB
:1024B000FC0F0895882321F00E947B1B0C94451B80
:1024C0000895882321F00E94811B0C94451B0895D8
:1024D0008F929F92AF92BF92DF92EF92FF920F93F3
:1024E0001F93CF93DF937C01D62FC72FFC0105816B
:1024F00002950F70128111110E949B1B0E943E1BBE
:10250000882379F0112369F080E28D0F883048F03C
:1025100082E00E94271B0E943E1B91E0D82ED92604
:1025200001C0D12CBC2EB2948FE0B8228B2D90E04C
:10253000FC01EE57FF4F0C946E288C2F807FCF70DC
:10254000882311F0C295C07F112399F0CC2309F4A0
:10255000C3C180E28D0F883010F0D11104C08C2FE0
:102560000E947B1B03C08C2F0E948E1B0E94451B68
:10257000B3C18D2F0E94FB11CC2309F4D2C180E29C
:102580008D0F883010F0D11104C08C2F0E94811B58
:1025900003C08C2F0E94941B0E94451BC2C18C2F2C
:1025A000807FCF70803211F0C295C07FDD2319F09B
:1025B000D130C9F022C0112371F0002341F0013065
:1025C00031F40E94B41B8C2B0E94AE1BAAC10E9446
:1025D000B41B8C2B3AC1002319F0013009F4A1C1BE
:1025E0000E94B11B18C0112321F0063008F099C1D8
:1025F0000EC0053008F095C10EC0112351F0002324
:1026000031F0F701858180FF67C18F7085838C2F42
:102610001CC1011172C18C2F1EC18C2F869586950D
:10262000837019F0813061F07CC1112321F08D2F6E
:102630009C2F937002C080E090E00E94E60F7EC164
:10264000112321F08D2F9C2F937002C080E090E029
:102650000E94FC0F73C11123F9F0D53F51F0D63F12
:1026600071F0D43FA9F48091390290913A028160CF
:102670000BC08091390290913A02826005C080912E
:10268000390290913A02846090933A028093390221
:102690008D2F0E94B01D1EC0D53F51F0D63F71F066
:1026A000D43FA9F48091390290913A028E7F0BC0F9
:1026B0008091390290913A028D7F05C08091390254
:1026C00090913A028B7F90933A02809339028D2F3A
:1026D0000E94181E0E949D1E31C18C2F837009F02C
:1026E0004CC0111127C12D2F229526952770220F3E
:1026F000220F6D2F6F70862F90E0A0E0B0E04C01AC
:102700005D01022E04C0880C991CAA1CBB1C0A94F3
:10271000D2F7D4FF12C08FE090E0A0E0B0E004C098
:10272000880F991FAA1FBB1F2A95D2F7BC01CD01A4
:10273000609570958095909503C060E070E0CB0146
:10274000C695C695C370C23051F080F468297929C6
:102750008A299B29C13071F00E946419EBC0682955
:1027600079298A299B290E947619E4C00E9464195C
:10277000C501B4010E945219DDC0112319F08C2F3C
:10278000817001C08695882309F4D4C02D2F22952D
:1027900026952770220F220F6D2F6F70862F90E0E5
:1027A000A0E0B0E04C015D01022E04C0880C991C31
:1027B000AA1CBB1C0A94D2F7D4FF12C08FE090E091
:1027C000A0E0B0E004C0880F991FAA1FBB1F2A9584
:1027D000D2F7BC01CD01609570958095909503C0AE
:1027E00060E070E0CB01C695C695C370C23051F071
:1027F00080F4682979298A299B29C13071F00E94C7
:10280000291A98C0682979298A299B290E943B1A8C
:1028100091C00E94291AC501B4010E94171A8AC0EA
:102820008D2F90E0FC01E05EF109E531F10508F043
:102830004FC0EE56FF4F0C946E28DF708C2F8F71B7
:10284000112331F00E94B0198D2F0E945A1269C0D5
:102850000E94D1198D2F0E94611263C0112341F093
:10286000053008F05EC08C2F8F710E94F61959C098
:10287000063008F056C0F7CF112339F08C2F8F7136
:102880000E94B0194EC01123C9F38C2F8F710E9482
:10289000D11947C0112329F08C2F8F710E949B19E9
:1028A00040C00E9496193DC0112349F0CF718C2F72
:1028B0000E94B01963E08C2F0E941E1B32C081E081
:1028C0000E94271B023068F182E00E94271B29C06A
:1028D000112331F0002391F28D2F0E94F91021C0B5
:1028E000002399F2D93349F4FFEF27EE83E0F1504A
:1028F00020408040E1F700C000008D2F0E94FB11B6
:1029000010C04C2F4F706D2FC7010E9459080E94B4
:10291000C31814C04C2F4F706D2FC7010E94BC0B01
:102920000DC098E0B91631F0B91640F086EF8B0D66
:10293000823020F40E94C40F0E94BA0BDD20E1F027
:102940000E941A1B80FD18C0F70112820E94141BFE
:102950000E94B019C7010E94C8140E94141BDF9185
:10296000CF911F910F91FF90EF90DF90BF90AF90AC
:102970009F908F900C94D119DF91CF911F910F915F
:10298000FF90EF90DF90BF90AF909F908F90089551
:102990000F931F93CF93DF93EC01988189812B8153
:1029A0003C81232B31F08F3F31F481E09F3F19F4BC
:1029B00003C081E001C080E080FD13C0CE010E9411
:1029C000D509882371F0688179818A810E94F11A82
:1029D0008C010E944D1A0E944019B801CE010E943C
:1029E0006812DF91CF911F910F9108950E949B1B58
:1029F0000E94AB1B80910201909103010E94251C53
:102A00000E94451B0E94361F0E949D1E80E090E0A0
:102A10000E94E60F80E090E00C94FC0F0E94881B5F
:102A20000C94F6140E94E61AE92FE295EF704E2FEF
:102A300050E0FA013297EE30F105B0F4E955FF4F5E
:102A40000C946E28803F91F018F4803E68F40EC01C
:102A5000843F51F40BC0803E48F0813F29F406C00A
:102A600093FB882780F9089580E0089581E0089518
:102A7000CF93DF9300D000D01F92CDB7DEB70F9079
:102A80000F900F900F900F90DF91CF910895CF93FB
:102A9000DF9300D000D000D0CDB7DEB726960FB6BA
:102AA000F894DEBF0FBECDBFDF91CF9108951F9385
:102AB000CF93DF93C0919D0116E080919E01C817CE
:102AC00099F0D0E01C9FF0011D9FF00D1124E156FC
:102AD000FE4F4081518162817381848195810E9482
:102AE00047152196C770E9CFDF91CF911F910895C7
:102AF0004091CF015091D0016091D1017091D201EC
:102B00008091D3019091D4010C94471520919D019F
:102B100090919E0156E02917A9F030E0529FF001F4
:102B2000539FF00D1124E156FE4F7181761306C0BC
:102B30007081781303C07281741306C02F5F3F4FFA
:102B40002770E9CF80E0089581E00895CF938091C8
:102B5000D40182958F7009F05FC08091D1018823E4
:102B600009F45AC080919D01B0919E017091CF01EE
:102B7000A091D0014091D2015091D30191E07F3FCB
:102B800009F090E0692FC6E08B1709F445C04115A4
:102B9000510521F0AF3F21F020E003C021E001C04A
:102BA000262F90E020FD35C0C89FF001C99FF00D91
:102BB0001124E156FE4F21812A132BC020812713B7
:102BC00028C02281211125C0238134812417350793
:102BD00010F421503109241B350B283C3105C8F471
:102BE0002091D4012F7020612093D40126E0289FEA
:102BF000F001299FF00D1124EC55FE4F80818F705C
:102C0000806180838FEC91E00E94C814CF910C9476
:102C1000571501968770B8CFCF9108959F92AF92C4
:102C2000BF92CF92DF92EF92FF920F931F93CF93B9
:102C3000DF93CDB7DEB761970FB6F894DEBF0FBE56
:102C4000CDBF7C0185E0F701DE011D9601900D925C
:102C50008A95E1F7D701DC9011960C9111971296A5
:102C6000CC903091CF014091D0018091D2019091D0
:102C7000D301009731F04F3F31F421E03F3F19F489
:102C800003C021E001C020E020FD9FC1F701A38027
:102C9000B4809090D101992009F42BC12091D401E6
:102CA000A816B90628F0B501681B790BCB0104C042
:102CB000809590958A0D9B1D11E0883C910590F0C0
:102CC00010E0207F09F0DBC07A2DB98AA88A4D2D4B
:102CD000502F6C2D89890E9438158FEC91E00E944D
:102CE000C8146BC1822F807F09F091C0041315C0F6
:102CF000D31213C01C2DC11010C02F70206120935F
:102D0000D4010E9478158FEC91E00E94C814809144
:102D1000D401D70115968C9375C1A114B10439F073
:102D20000F3F39F481E0BFEFDB1203C003C081E045
:102D300001C080E080FD03C081E08C2502C080E0FE
:102D400090E080FF15C04C2D602F8D2D0E948615C0
:102D5000882371F08FEC91E00E94C814EFECF1E051
:102D600086E0DF011D928A95E9F70E9478154DC033
:102D7000AB2839F00F3F39F481E0BFEFDB1203C01D
:102D800003C081E001C080E080FD03C081E08C25AC
:102D900002C080E090E0E82FE170BE2E80FF2CC0E2
:102DA0004C2D602F8D2D0E948615182F811124C067
:102DB000DD860E878D859E850E94E61A292F229535
:102DC0002F70223018F0243090F405C09F7059F015
:102DD000811109C017C19F7031F0D70115969C91E0
:102DE000907F09F40FC1805E883008F40BC1C701E1
:102DF0000E94C8141B2D06C11C2DCC2009F402C151
:102E00008091D40181608093D40110E0FBC0041351
:102E100009C0D31207C0C11005C08091D401F701C9
:102E20008583A5C0DD860E878D859E850E9412153F
:102E3000882379F1CC2069F12091D401822F8295E9
:102E40008F7090E0029774F08091CF019091D00143
:102E500098878F831986BB86AA862C87CE01079612
:102E60000E94C81486E0F701AFECB1E001900D922A
:102E70008A95E1F70E94A6150E9478150DC00417E7
:102E800069F0DD860E878D859E850E941215811161
:102E900019C0C7010E94C81411E0B4C0D312F1CF09
:102EA000C110EFCF8091D401F7018583C7010E9443
:102EB000C81486E0EFECF1E0DF011D928A95E9F796
:102EC000192DA0C0CC2029F32091D401822F829506
:102ED0008F7090E0029734F28091CF019091D001F1
:102EE0009A8389831B82BD82AC822E83CE01019698
:102EF000B7CFA816B90628F0F501E81BF90BCF01EA
:102F000004C0809590958A0D9B1D883C910558F0D2
:102F100010E07A2DB98AA88A4D2D502F6C2D898901
:102F20000E9438154AC01C2DCC2009F4B2CF0413DE
:102F300033C0D31231C02091D40120FD24C0822F90
:102F400082958F70482F50E041155105E1F0D7016F
:102F500015962C9315974F30510549F08F5F982F98
:102F60009295907F822F8F70892B15968C93C70135
:102F70000E94C81486E0F701AFECB1E001900D9219
:102F80008A95E1F73DC086E0F701AFECB1E0019032
:102F90000D928A95E1F736C0DD860E878D859E8578
:102FA0000E94121581115ECF8091D40181608093BF
:102FB000D401C7010E94C81425C0EFECF1E086E0FF
:102FC000DF011D928A95E9F71BC0CC2009F461CF7F
:102FD000DD860E878D859E850E941215182F882309
:102FE00009F457CF86E0F701AFECB1E001900D9204
:102FF0008A95E1F78FEC91E00E94F3100E94A615EC
:103000000E947815812F61960FB6F894DEBF0FBE2F
:10301000CDBFDF91CF911F910F91FF90EF90DF9087
:10302000CF90BF90AF909F9008951F93CF93DF9361
:10303000CDB7DEB72C970FB6F894DEBF0FBECDBF6D
:103040004F83588769877A878B879C87CE0107963D
:103050000E940E168823D1F09F8188852A853B85A2
:10306000232B31F08F3F31F481E09F3F19F403C0EF
:1030700081E001C080E080FD47C04F8158856985AF
:103080007A858B859C850E9447153EC086E0FE01AF
:103090003796DE01119601900D928A95E1F7FF8136
:1030A000E8856A857B856115710531F0EF3F31F464
:1030B00081E0FF3F19F403C081E001C080E080FDA2
:1030C00023C020919E0130E0C901019687709927A5
:1030D00040919D0150E084179507F1F1F983EA834F
:1030E0007D836C8396E0929FD001939FB00D112455
:1030F000A156BE4FFE01319601900D929A95E1F7CF
:1031000080939E010E94571516E080919D01909139
:103110009E01891771F1189FC001112481569E4F9D
:103120000E940E16882329F1E0919D011E9FF00157
:103130001124E156FE4F4081518162817381848167
:1031400095810E94471580919D0190E001968770BE
:10315000992780939D01D9CF0E940E1510929E0150
:1031600010929D01EFECF1E086E0DF011D928A955F
:10317000E9F72C960FB6F894DEBF0FBECDBFDF91F6
:10318000CF911F910895EF92FF920F931F93CF93CA
:10319000DF938C01892B09F46CC0F12CEE24E394AD
:1031A000E8012196F8018491843740F4843008F0D6
:1031B00051C0813081F0823019F15BC0853709F44C
:1031C00044C0A8F19CE7980F903708F052C08F7761
:1031D0000E94FB1141C00E5F1F4FFE01849190E2DF
:1031E000980F983050F48770FE2D01C0FF0F8A951C
:1031F000EAF78F2F0E949E1B14C00E94F9102DC069
:103200000E5F1F4FFE01849190E2980F983060F49A
:103210008770FE2D01C0FF0F8A95EAF78F2F0E945D
:10322000A41B0E94451B19C00E94FB1116C00E5F13
:103230001F4FFE01C491CC2381F08FE99FE00197DD
:10324000F1F700C00000C150F6CF0E5F1F4FFE0126
:10325000F49003C00E94F9108E018F2D882309F489
:103260009FCFEFE9FFE03197F1F700C000008150F8
:10327000F5CFDF91CF911F910F91FF90EF900895BF
:10328000089508950C9441190E9442196093100208
:103290007093110280931202909313020C94F6140F
:1032A0000C9444190F931F93009110021091110276
:1032B0002091120230911302602B712B822B932BE1
:1032C0001F910F910C9444190F931F9300911002BA
:1032D0001091110220911202309113026023712388
:1032E000822393231F910F910C9444190F931F93E2
:1032F00000911002109111022091120230911302DC
:1033000060277127822793271F910F910C944419EE
:103310000C9441190E94881960930C0270930D025D
:1033200080930E0290930F020C94F61460E070E00C
:10333000CB010C948A190F931F9341E050E060E099
:1033400070E08A019B0104C0000F111F221F331F70
:103350008A95D2F7C901B8011F910F910C948A196F
:103360000F931F9341E050E060E070E004C0440F11
:10337000551F661F771F8A95D2F780910C02909196
:103380000D02A0910E02B0910F028A019B01082B41
:10339000192B2A2B3B2BC901B8011F910F910C94BB
:1033A0008A190F931F9341E050E060E070E004C081
:1033B000440F551F661F771F8A95D2F74095509589
:1033C0006095709580910C0290910D02A0910E0273
:1033D000B0910F028A019B01082319232A233B2362
:1033E000C901B8011F910F910C948A190F931F9373
:1033F00041E050E060E070E004C0440F551F661FDC
:10340000771F8A95D2F780910C0290910D02A091BE
:103410000E02B0910F028A019B01082719272A2763
:103420003B27C901B8011F910F910C948A190F9382
:103430001F9300910C0210910D0220910E02309109
:103440000F02602B712B822B932B1F910F910C94E9
:103450008A190F931F9300910C0210910D02209175
:103460000E0230910F0260237123822393231F9158
:103470000F910C948A190F931F9300910C021091D5
:103480000D0220910E0230910F02602771278227D2
:1034900093271F910F910C948A190895292F220FB9
:1034A000920F990F890FE82FE695E695E6958770BC
:1034B00051E001C0550F8A95EAF785E0E89FF001D9
:1034C0001124EB52FE4F20E030E070E04081CB0150
:1034D000022E02C0969587950A94E2F78170819535
:1034E00084278523842781932F5F3F4F2530310523
:1034F00069F70895292F220F920F990F890F682FCE
:10350000669566956695982F977085E0689FB001DF
:10351000112440E050E080E0FB01E40FF51FEB5286
:10352000FE4F208130E0092E02C0369527950A947F
:10353000E2F721703327042E01C0220F0A94EAF724
:10354000822B4F5F5F4F4530510531F70895CF9281
:10355000DF92EF92FF920F931F93CF93DF938C0133
:10356000C0900C02D0900D02E0900E02F0900F027D
:103570008091100290911102A0911202B091130259
:10358000C82AD92AEA2AFB2ACFE1D0E0D701C6010E
:103590000C2E04C0B695A795979587950A94D2F7F7
:1035A00080FD04C0219790F780E007C0B8018C2F00
:1035B0000E94D80B0197B1F38C2FDF91CF911F910F
:1035C0000F91FF90EF90DF90CF900895CF93DF930E
:1035D000EC010E94A71ABE010E94D80BDF91CF9187
:1035E00008951F93CF93DF93EB0190919C01992352
:1035F00021F0CB010E94E61A13C0882349F0CB01C9
:103600000E94A71A182F682FCE010E944E1A04C0DC
:10361000CB010E947A1A182FBE01812F0E94D80B6D
:10362000DF91CF911F910895809114028595859522
:1036300085950895809114028770089598E0899F78
:1036400090011124262B209314020C94B019209180
:1036500014028095822380931402982F977069F446
:1036600030E0482F082E000C550B2417350729F0A1
:103670008595859585950C94D1190895909114029E
:10368000977081E009F480E00895E0910201F091E3
:103690000301809120028083E0910201F0910301F7
:1036A000908180911F02892B8083E0910201F0912B
:1036B0000301908180911E02892B808380911502E5
:1036C000882381F0E0910201F09103019081892B20
:1036D000808380910201909103010E94ED1B811172
:1036E0001092150280910201909103010C94D00F69
:1036F00080912002089590912002892B80932002CE
:103700000895809590912002892380932002089546
:1037100010922002089580911F02089590911F0237
:10372000892B80931F020895809590911F02892311
:1037300080931F02089510921F02089590911E0217
:10374000892B80931E020895809590911E028923F3
:1037500080931E02089510921E0208958093150210
:1037600008951092150208958091150208956DEE46
:103770007EEF80E090E00E94A82860E082E090E088
:103780000E94962860E083E090E00E94962860E026
:1037900084E090E00E94962860E085E090E00C9440
:1037A000962880E090E00E94902821E08D3E9E4F78
:1037B00009F020E0822F089582E090E00C948828A0
:1037C00083E090E00C94882884E090E00C948828B2
:1037D000682F84E090E00C949628FC0131969C01BF
:1037E000285F3F4F80E0919191118F5FE217F307BF
:1037F000D1F708959C01FC0132969FEF80E0419142
:10380000461789F09F3F19F4411101C0982F8F5F2F
:103810008630A9F79F3F39F0F901E90FF11D97FDB7
:10382000FA956283089508959C012A5F3F4FFC0139
:103830004281461301C01282019682179307B9F79D
:1038400008950C94FA1B0C94141CFC0131960896F4
:103850001192E817F907E1F7089580914502843045
:1038600039F11092220220E488E190E00FB6F8943A
:10387000A895809360000FBE2093600080E00E94B6
:10388000BA0B83B7817F846083BF83B7816083BFB6
:103890007894889583B78E7F83BF0FB6F894A895E8
:1038A00080916000886180936000109260000FBE7C
:1038B000089508950C94591CCF930E945A1C0E949D
:1038C000AE060E94591CC0E08C2F0E94F2068111A6
:1038D00004C0CF5FCE30C1F701C081E0CF91089521
:1038E0000E940E150E94C40F0C94BA0B1F920F92E7
:1038F0000FB60F9211248F939F93AF93BF93809134
:103900002202811113C080913B0290913C02A09150
:103910003D02B0913E024196A11DB11D80933B0234
:1039200090933C02A0933D02B0933E02BF91AF91B1
:103930009F918F910F900FBE0F901F90189582E06E
:1039400084BD93E095BD9AEF97BD80936E00089576
:103950002FB7F89480913B0290913C02A0913D02D8
:10396000B0913E022FBF0895CF92DF92EF92FF9267
:103970000F931F932FB7F89440913B0250913C0254
:1039800060913D0270913E022FBF6A017B01EE24DF
:10399000FF248C0120E030E0C016D106E206F306D9
:1039A00010F4415051099A01281B390BC9011F918C
:1039B0000F91FF90EF90DF90CF90089578941F9231
:1039C0000F920FB60F9211248F939F93AF93BF93D3
:1039D00080913B0290913C02A0913D02B0913E0249
:1039E0000196A11DB11D80933B0290933C02A093D0
:1039F0003D02B0933E02BF91AF919F918F910F9086
:103A00000FBE0F901F90189587E797E790930108D6
:103A1000809300089AE088E10FB6F894A895809307
:103A200060000FBE90936000FFCF0E94D11B8111F8
:103A300002C00E94B71B0E94DC1B809321020E94DF
:103A4000E41B90E09093400280933F020E94E01BB1
:103A5000682F70E080E090E00C945019809125026E
:103A600080FF0BC06091070185E0689FB0011124C1
:103A700075956795759567952BC081FF09C0609115
:103A8000070185E0689FB00111247595679520C0F6
:103A900082FF07C06091070185E0689FB001112493
:103AA00017C0909126029923D1F0609106019617D4
:103AB00088F72091070185E0289F90011124929FAB
:103AC000A001939F500D112470E0CA010E945A2852
:103AD0006038710540F46115710519F406C065E0A0
:103AE00070E0862F08958FE7089581E00895809112
:103AF000250280FF08C06091050170E0759567950B
:103B00007595679521C081FF06C06091050170E041
:103B10007595679519C082FF04C06091050170E03A
:103B200010C090912602992399F060910401961794
:103B3000A0F780910501899FC001112470E00E94C7
:103B40005A286038710540F46115710519F406C0F2
:103B500061E070E0862F08958FE7089581E0089571
:103B6000803F21F40E942E1D819504C0813F29F4DD
:103B70000E942E1D809329020895823F21F40E9405
:103B80002E1D819504C0833F29F40E942E1D809331
:103B900028020895893F19F40E94771D05C08A3FC5
:103BA00031F40E94771D819580932A0208958B3FFE
:103BB00021F40E94771D819504C08C3F29F40E9456
:103BC000771D80932B020895843F21F48091270272
:103BD000816017C0853F21F480912702826011C067
:103BE000863F21F48091270284600BC0873F21F437
:103BF00080912702886005C0883F31F480912702B8
:103C000080618093270208958D3F21F480912502E1
:103C100081600BC08E3F21F480912502826005C037
:103C20008F3F29F4809125028460809325020895B6
:103C3000803F39F48091290287FF6CC010922902DD
:103C400069C0813F29F4809129021816BCF362C033
:103C500090912802823F29F497FF5CC010922802BD
:103C600059C0833F19F41916CCF354C0893F41F46D
:103C700080912A0218160CF04DC010922A024AC0F8
:103C80008A3F29F480912A0287FF44C0F6CF8B3FF8
:103C900039F480912B0287FF3DC010922B023AC06D
:103CA0008C3F29F480912B021816BCF333C0843F5B
:103CB00021F4809127028E7F17C0853F21F48091E7
:103CC00027028D7F11C0863F21F4809127028B7FD0
:103CD0000BC0873F21F480912702877F05C0883F72
:103CE00031F4809127028F7E8093270213C08D3F8D
:103CF00021F4809125028E7F0BC08E3F21F48091AC
:103D000025028D7F05C08F3F29F4809125028B7F8E
:103D1000809325028091280281110EC08091290292
:103D200081110AC080912A02811106C080912B0264
:103D3000811102C010922602089587E292E00E944B
:103D4000DB0F0E94A81C9093240280932302089505
:103D50001F93CF93DF9380912302909124020E94BE
:103D6000B41CAC0190912602992321F02091080106
:103D700030E006C0209109018AE0289F90011124BB
:103D80004217530708F46EC080912802C09129029F
:103D9000D0912A0210912B02811107C0C1115EC07F
:103DA000D1115CC011115AC05DC09F3F19F09F5FD7
:103DB00090932602181624F40E942E1D8093280248
:103DC0008091280287FF05C00E942E1D8195809357
:103DD00028021C1624F40E942E1D80932902809133
:103DE000290287FF05C00E942E1D8195809329021C
:103DF00040912802442379F030912902332359F06D
:103E000025EB4203A0011124509328023203C00184
:103E10001124909329021D1624F40E94771D80938B
:103E20002A0280912A0287FF05C00E94771D819592
:103E300080932A02111624F40E94771D80932B028E
:103E400080912B0287FF05C00E94771D819580938A
:103E50002B02DF91CF911F910C949D1E9F3F09F083
:103E6000A6CFB7CFDF91CF911F910895E7E2F2E09F
:103E700085E0DF011D928A95E9F7109226021092E3
:103E800025020895833081F128F4813059F0823081
:103E9000D1F00895853009F449C0B8F1863009F4AD
:103EA00056C0089580910901262F30E0280F311D5A
:103EB0002F3F310524F4680F6093090108958FEFB7
:103EC00080930901089580910801262F30E0280F82
:103ED000311D2F3F310524F4680F609308010895C8
:103EE0008FEF80930801089580910701262F30E01D
:103EF000280F311D2F3F310524F4680F609307010F
:103F000008958FEF80930701089580910601262F71
:103F100030E0280F311D2F3F310524F4680F6093E6
:103F2000060108958FEF80930601089580910501A1
:103F3000262F30E0280F311D2F3F310524F4680F64
:103F40006093050108958FEF809305010895809196
:103F50000401262F30E0280F311D2F3F310524F4B6
:103F6000680F6093040108958FEF80930401089512
:103F7000833011F128F4813049F0823091F00895B6
:103F8000853081F120F18630C1F1089580910901D9
:103F9000681720F4861B8093090108951092090187
:103FA000089580910801681720F4861B809308010A
:103FB000089510920801089580910701681720F470
:103FC000861B809307010895109207010895809140
:103FD0000601681720F4861B80930601089510924D
:103FE0000601089580910501681720F4861B8093CF
:103FF0000501089510920501089580910401681744
:1040000020F4861B80930401089510920401089502
:104010000F931F9341E050E060E070E08A019B0144
:1040200004C0000F111F221F331F8A95D2F7C90148
:10403000B8010E9450191F910F910C940E158732F0
:10404000D8F58E3108F07DC08E3009F467C098F441
:10405000873009F455C08B3009F476C0863009F0FA
:1040600077C080912102817F8E7F8093210281E041
:1040700080932D020895863109F466C068F480317A
:1040800009F066C08091210283FB222720F991E08C
:10409000922790FB83F94BC0893109F455C08B31CD
:1040A00009F056C08091210281FB222720F991E07E
:1040B000922790FB81F93BC0883309F445C048F44E
:1040C000893209F443C0853309F440C08732F1F1E5
:1040D0003FC08334D9F120F48A33D0F1895332C000
:1040E0008834B1F50E940E152FEF83ED90E3215037
:1040F00080409040E1F700C000000E94041D24C0F1
:1041000080912102982F9095917090FB80F9809377
:104110002102911119C0897F877F10C080912102EF
:1041200082FB222720F991E0922790FB82F980936D
:104130002102992349F0809121028160809321021C
:1041400003C08D510E94082081E0089580E0FACFDD
:1041500080E0089580E008950C94AA208E518A3062
:1041600030F4E82FF0E0E75DFE4F8081089580E0B5
:104170000895CF93C82F80912D02813069F018F0F7
:104180008230C9F183C0E0910201F0910301808186
:10419000823209F07DC007C0E0910201F091030175
:1041A0008081823261F48C2F0E94AC20811104C086
:1041B0008C2F0E941F201DC081E090E01AC08C2F20
:1041C0000E94AA20811114C0C43179F048F4CB3088
:1041D00079F0C03109F060C082E080932D0208C000
:1041E000C93219F0C83321F057C010922D0254C0C3
:1041F00081E0817053C0C93289F118F5C43171F181
:10420000B0F4C73009F046C08EE18093090182E323
:10421000809308018AE08093070184E1809306017E
:1042200088E08093050188E28093040133C082EE28
:104230008C0F863078F58C2F0E94AE2080932C0254
:1042400029C0CE34E9F020F4CB3421F56AE013C064
:10425000C13579F0C235F1F461E00DC080912C02D6
:10426000882319F010922C0215C081E080932D0252
:1042700015C061E006C080912C020E94421F0AC056
:104280006AE080912C020E94B81F04C010922D0297
:1042900080E004C081E002C080E0ABCFCF91089500
:1042A0008091360208950F931F93CF93DF9300D030
:1042B0001F92CDB7DEB78C010E949F23823011F090
:1042C000843019F583E089831B830A838093E90096
:1042D0008FEF9091E800815095FD06C095ED9A957D
:1042E000F1F700008111F5CF8091E80085FF0DC046
:1042F00040E050E063E070E0CE0101960E94BC23F4
:104300008091E8008E778093E8000F900F900F90D7
:10431000DF91CF911F910F910895CF93DF9300D03C
:104320001F92CDB7DEB720914502243031F522E04F
:104330002983805891099B838A8383E08093E900D5
:104340008FEF9091E800815095FD06C095ED9A950C
:10435000F1F700008111F5CF8091E80085FF0DC0D5
:1043600040E050E063E070E0CE0101960E94BC2383
:104370008091E8008E778093E8000F900F900F9067
:10438000DF91CF910895CF93DF93EC010E949F239B
:10439000823011F08430F9F482E08093E9008FEFED
:1043A0009091E800815095FD06C095ED9A95F1F742
:1043B00000008111F5CF8091E80085FF0CC040E03E
:1043C00050E065E070E0CE010E94BC238091E800DF
:1043D0008E778093E800DF91CF910895CF93DF939C
:1043E000EC010E949F23823011F0843039F581E086
:1043F0008093E9008FEF9091E800815095FD06C011
:1044000095ED9A95F1F700008111F5CF8091E800C4
:1044100085FF14C040E050E068E070E0CE010E94EB
:10442000BC238091E8008E778093E80088E0FE014D
:10443000AEE2B2E001900D928A95E1F7DF91CF9163
:10444000089580914402811109C00E944D250E9467
:10445000AA258091E20084608093E2000895109282
:1044600044020895089508950C94701C42E061EC94
:1044700081E00E94C62442E061EC82E00E94C624F2
:1044800042E061EC83E00C94C624809147028330C3
:1044900009F453C030F4813071F0823009F48CC0DB
:1044A00008958A3009F478C08B3009F45EC08930F1
:1044B00009F09AC020C080914602813A09F094C068
:1044C0008091E800877F8093E80080914A02909174
:1044D0004B02892B21F468E08EE292E003C060E099
:1044E00080E090E070E00E9407248091E8008B77E4
:1044F0008093E800089580914602813209F074C0EB
:1045000080914A0290914B02892B09F06DC08091F5
:10451000E800877F8093E8008091E80082FD05C075
:10452000809145028111F8CF5FC08091F1008093A6
:1045300036028091E8008B7753C080914602813A21
:1045400009F052C080914A0290914B02892B09F0E8
:104550004BC08091E800877F8093E8008091E8005D
:1045600080FFFCCF8091140136C0809146028132D9
:10457000D9F580914A0290914B02892BA9F580913F
:10458000E800877F8093E8000E94FB248091480226
:10459000809314010C940E1580914602813221F50E
:1045A0008091E800877F8093E8000E94FB2480913F
:1045B000490280933702089580914602813AA1F41E
:1045C0008091E800877F8093E8008091E80080FF79
:1045D000FCCF809137028093F1008091E8008E77C4
:1045E0008093E8000C94FB24089584B7877F84BFF0
:1045F0000FB6F894A8958091600088618093600060
:10460000109260000FBE80E88093610010926100FC
:104610000E9412100E944D250E94AA258091E2005E
:1046200084608093E20078940E943F280E941610D4
:104630008AE091E00E94BF0F80914502853069F4C5
:104640000E942D1C809143028823B1F30E945C1CC0
:10465000882391F30E94A623EFCF0E941C10ECCF79
:104660000C943223292F332723303105C9F060F40D
:104670002130310581F02230310509F047C084E551
:1046800090E027E039E046C02132310511F12232B5
:10469000310561F13BC082E190E02BE539E03AC0A1
:1046A00099278130910561F040F08230910559F0F1
:1046B000039761F5E5EDF8E008C0E3E0F9E005C037
:1046C000EBEEF8E002C0EBEDF8E0849190E09F01A2
:1046D00021C063307105D0F4660F771FFB01E45CE5
:1046E000FE4F2081318189E090E014C06330710574
:1046F00068F4FB01EE0FFF1FEA5CFE4F2081318161
:10470000FB01ED5CFE4F808190E004C080E090E012
:1047100020E030E0FA013183208308950895CF939B
:10472000C82F0E948E23C0933802CF9108958091A4
:104730004502843011F081E0089582E0089580916F
:104740003802811102C00C949723089580E189BD3D
:1047500082E189BD09B400FEFDCF8091D8008F7D34
:104760008093D8008091E00082608093E000809187
:10477000E00081FDFCCF0895CF92DF92EF92FF928F
:104780000F931F93CF93DF93EC018B017A010E946B
:104790001A25811133C0E114F10439F0F701808149
:1047A0009181081B190BC80FD91FC12CD12C0115E1
:1047B000110519F18091E80085FD16C08091E8008F
:1047C0008E778093E800E114F10449F0F7018081CD
:1047D0009181C80ED91ED182C08285E00FC00E948F
:1047E0001A25882321F30AC089918093F100015092
:1047F0001109FFEFCF1ADF0ADACF80E0DF91CF9106
:104800001F910F91FF90EF90DF90CF90089520912E
:104810004C0230914D022617370748F0611571059B
:1048200039F42091E8002E772093E80001C0B90107
:10483000FC0120E06115710579F180914502882322
:10484000F1F18530F1F18091E80083FD3CC0809169
:10485000E80082FD2EC08091E80080FFEBCF209120
:10486000F3008091F20090E0922B6115710551F0F8
:104870008830910538F421912093F100615071093D
:104880000196F3CF21E0089709F020E08091E8003D
:104890008E778093E800CECF2111CFCF0AC08091D0
:1048A0004502882361F0853061F08091E80083FD46
:1048B0000AC08091E80082FFF2CF80E0089582E094
:1048C000089583E0089581E0089520914C0230918D
:1048D0004D022617370748F06115710539F420910C
:1048E000E8002E772093E80001C0B901FC0120E028
:1048F0006115710591F180914502882309F440C04A
:10490000853009F43FC08091E80083FD3DC080916F
:10491000E80082FD2FC08091E80080FFE9CF209160
:10492000F3008091F20090E0922B6115710559F02F
:104930008830910540F424912093F1003196615024
:1049400071090196F2CF21E0089709F020E08091EB
:10495000E8008E778093E800CBCF2111CCCF0AC03E
:1049600080914502882361F0853061F08091E800F4
:1049700083FD0AC08091E80082FFF2CF80E00895B5
:1049800082E0089583E0089581E00895982F97309C
:1049900068F59093E900981739F07091EC00209138
:1049A000ED005091F00003C0242F762F50E021FD40
:1049B00002C09F5FECCF3091EB003E7F3093EB0065
:1049C0003091ED003D7F3093ED003091EB00316090
:1049D0003093EB007093EC002093ED005093F000C7
:1049E0002091EE0027FDE5CF80E008958F70809341
:1049F000E90081E008958091460287FF11C080910F
:104A0000E80082FD05C0809145028111F8CF11C0F8
:104A10008091E8008B770BC080914502882349F094
:104A20008091E80080FFF8CF8091E8008E77809336
:104A3000E80008952091E4003091E50095E640916A
:104A4000EC00842F817040FF23C08091E80080FD3E
:104A50001DC080914502882399F0853099F080919E
:104A6000EB0085FD11C04091E4005091E500241752
:104A7000350729F3915011F09A01E1CF84E00895B0
:104A800082E0089583E0089581E0089580E008952C
:104A90004091E80042FFDDCF08950E94BB250E94AF
:104AA000C325E0EEF0E0808181608083E8EDF0E0F6
:104AB00080818F77808319BCA7EDB0E08C918E7FC9
:104AC0008C9380818F7E80831092440208950F938F
:104AD0001F93CF93DF930E94BB250E94C325C8ED8F
:104AE000D0E088818F7788838881806888838881F7
:104AF0008F7D888319BC109245021092410210925A
:104B000043021092420200EE10E0F80180818B7F98
:104B1000808388818160888342E060E080E00E9439
:104B2000C624E1EEF0E080818E7F8083E2EEF0E04B
:104B3000808181608083808188608083F8018081AA
:104B40008E7F8083888180618883DF91CF911F91E0
:104B50000F910895E8EDF0E080818F7E8083E7ED8E
:104B6000F0E080818160808384E082BF81E0809377
:104B700044020C946725E8EDF0E080818E7F80830D
:104B80001092E20008951092DA001092E100089568
:104B90001F920F920FB60F9211242F933F934F93B2
:104BA0005F936F937F938F939F93AF93BF93EF9395
:104BB000FF938091E10082FF0BC08091E20082FFB1
:104BC00007C08091E1008B7F8093E1000E943E2826
:104BD0008091DA0080FF1FC08091D80080FF1BC049
:104BE0008091DA008E7F8093DA008091D90080FF77
:104BF0000DC080E189BD82E189BD09B400FEFDCF11
:104C000081E0809345020E94212205C019BC1092C8
:104C100045020E942F228091E10080FF19C08091FF
:104C2000E20080FF15C08091E2008E7F8093E20059
:104C30008091E20080618093E2008091D8008062E0
:104C40008093D80019BC85E0809345020E943322EE
:104C50008091E10084FF30C08091E20084FF2CC08D
:104C600080E189BD82E189BD09B400FEFDCF80915C
:104C7000D8008F7D8093D8008091E1008F7E809353
:104C8000E1008091E2008F7E8093E2008091E2005B
:104C900081608093E20080914102882311F084E0DA
:104CA00007C08091E30087FD02C081E001C083E07E
:104CB000809345020E9434228091E10083FF29C045
:104CC0008091E20083FF25C08091E100877F80937F
:104CD000E10082E080934502109241028091E10060
:104CE0008E7F8093E1008091E2008E7F8093E200CE
:104CF0008091E20080618093E20042E060E080E029
:104D00000E94C6248091F00088608093F0000E9489
:104D10003222FF91EF91BF91AF919F918F917F913F
:104D20006F915F914F913F912F910F900FBE0F9018
:104D30001F9018951F920F920FB60F9211242F9368
:104D40003F934F935F936F937F938F939F93AF9313
:104D5000BF93CF93DF93EF93FF93C091E900CF70A0
:104D60008091EC00D82FD17080FDD0E81092E9003E
:104D70008091F000877F8093F00078940E94DE2677
:104D80001092E9008091F00088608093F000CD2BB4
:104D9000CF70C093E900FF91EF91DF91CF91BF9168
:104DA000AF919F918F917F916F915F914F913F91C3
:104DB0002F910F900FBE0F901F9018951F93CF93B8
:104DC000DF93CDB7DEB7AA970FB6F894DEBF0FBE5C
:104DD000CDBFE6E4F2E08091F100819322E0EE3471
:104DE000F207C9F70E9445228091E80083FF2EC197
:104DF0008091460290914702492F50E04A30510578
:104E000008F024C1FA01EB54FF4F0C946E2880384F
:104E100021F0823809F01AC108C0809142029091B5
:104E20004302992389F082600FC080914A028F70FB
:104E3000873008F00BC18093E9008091EB0085FB7F
:104E4000882780F91092E9009091E800977F90936D
:104E5000E8008093F1001092F100D1C0282F2D7F3F
:104E600009F0F4C0882319F0823061F0EFC080911E
:104E70004802813009F0EAC0933009F080E0809365
:104E800043022EC08091480281112AC080914A02BB
:104E90008F702FEF280F263008F0D8C08093E900DC
:104EA0002091EB0020FF1CC0933021F48091EB0097
:104EB000806214C09091EB0090619093EB0021E030
:104EC00030E0A90102C0440F551F8A95E2F74093D4
:104ED000EA001092EA008091EB0088608093EB007A
:104EE0001092E9008091E800877F8093E8000E949B
:104EF000FB24ACC08111AAC0109148021F77809199
:104F0000E3008078812B8093E3008091E800877F25
:104F10008093E8000E94FB248091E80080FFFCCF92
:104F20008091E30080688093E300111102C082E069
:104F300001C083E08093450289C08058823008F028
:104F400085C080914802909149028C3D53E09507BD
:104F500079F583E08A838AE289834FB7F894DE018A
:104F6000139620E03EE051E2E32FF0E0509357002B
:104F7000E49120FF03C0E295EF703F5FEF708E2F4A
:104F800090E0EA3010F0C79601C0C0968D939D93D3
:104F90002F5F243149F74FBF8091E800877F8093CE
:104FA000E8006AE270E0CE0101960E94072416C074
:104FB00060914A0270914B02AE014F5F5F4F0E94B9
:104FC0003023BC01892B09F441C09091E800977F00
:104FD0009093E80089819A810E9465248091E8007D
:104FE0008B778093E80032C0803881F58091E800AB
:104FF000877F8093E800809141028093F100809147
:10500000E8008E7772CF811121C080914802909183
:10501000490299270297D4F48091E800877F809312
:10502000E80080914802809341020E94FB24809115
:105030004102811106C08091E30087FD02C081E03A
:1050400001C084E0809345020E9436228091E800EE
:1050500083FF0AC08091E800877F8093E8008091F9
:10506000EB0080628093EB00AA960FB6F894DEBF47
:105070000FBECDBFDF91CF911F9108950895CF93BB
:10508000809145028823A1F0C091E900CF709091F2
:10509000EC00892F817090FD80E8C82B1092E90008
:1050A0008091E80083FD0E94DE26CF70C093E90066
:1050B000CF91089597FB072E16F4009407D077FD43
:1050C00009D00E94742807FC05D03EF49095819584
:1050D0009F4F0895709561957F4F0895EE0FFF1FC4
:1050E0000590F491E02D0994AA1BBB1B51E107C068
:1050F000AA1FBB1FA617B70710F0A61BB70B881F68
:10510000991F5A95A9F780959095BC01CD010895F6
:10511000F999FECF92BD81BDF89A992780B508957F
:10512000A8E1B0E042E050E00C94B028262FF999B5
:10513000FECF92BD81BDF89A019700B4021639F0F6
:105140001FBA20BD0FB6F894FA9AF99A0FBE0895C7
:105150000196272F0E9497280C949628DC01CB01FA
:10516000FC01F999FECF06C0F2BDE1BDF89A319677
:1051700000B40D9241505040B8F70895F894FFCF15
:1051800001FF16022808140A321E5021EE21C32105
:105190008D215321013534C697669436323331F769
:1051A000F6F50000000000000001020304050607F8
:1051B000080900404D36F009A3096D0919093209A3
:0251C0004B0999
:00000001FF
