:100000000C942E080C94640A0C9475080C947508D2
:100010000C9475080C9475080C9475080C9475086C
:100020000C9475080C9475080C9416280C94E92807
:100030000C94E01E0C9475080C9475080C947508CB
:100040000C9475080C9475080C9475080C9475083C
:100050000C9475080C94481F0C9475080C94750842
:100060000C9475080C9475080C9475080C9475081C
:100070000C9475080C9475080C9475080C9475080C
:100080000C9475080C9475080C9475080C947508FC
:100090000C9475080C9475080C9475080C947508EC
:1000A0000C9475080C9475080C94750801E301E034
:1000B000014F024F02E002E30001E301E0015002C0
:1000C0005002E002E30001E30115021574FF02E3B0
:1000D00074FF010602060110021001070207012841
:1000E000022874FF01130213010C020C011102110A
:1000F000010A020A012C022C01E00119021902E096
:100100000001E30115021502E301060206011002D7
:1001100010010702070128022874FF74FF010C0276
:100120000C01130213010602060112021201110250
:100130001101090209010C020C010A020A012C0238
:100140002C0138023801040204010F020F010F02D2
:100150000F012802280001E30115021574FF02E3D4
:1001600074FF0106020601100210010702070128B0
:1001700002280001E0010402040106020602E00078
:1001800001E00119021902E00001E0010602060285
:10019000E000757365726E616D65012B706173733C
:1001A000012B012800750A012B022B010C020C0106
:1001B000110211012B022B01280228012B022B0115
:1001C0002B022B012B022B010C020C01110211013D
:1001D0002B022B0128022800750A012B022B011289
:1001E000021201170217012B022B01280228012BF2
:1001F000022B012B022B012B022B011D021D0115CD
:100200000215012B022B0128022800750A012B027E
:100210002B0112021201130213012B022B012802DF
:1002200028012B022B012B022B012B022B011D027B
:100230001D01150215012B022B01280228006970EF
:10024000636F6E666967202F616C6C0000750A0130
:1002500027022701060206012B022B012B022B018C
:10026000040204012B022B00011B021B00750A0172
:10027000E001170217011902190128022802E00003
:100280007777772E737570706F72742E7865726FD2
:10029000782E636F6D012800656D61696C00750AC9
:1002A000010402040107020701100210010C020CF4
:1002B00001110211744B012B022B011E021E011EA3
:1002C000021E011E021E011E021E0128022800013C
:1002D000E3012B022B02E3002E431E001F0020002F
:1002E000210022002B0014001A000800150017003E
:1002F000280004001600070009000A00E1001D00A4
:100300001B000600190005002961E200E30050000F
:100310004F002A00003046004E004B000000000055
:10032000E1002A0000000000000000002D0027006E
:1003300026002500240023003100130012000C00C9
:1003400018001C00280033000F000E000D000B00E9
:10035000350038003700360010001100340051001D
:1003600052004F0050002C00DE5C4C004A004D0053
:100370000000000028002C00000000000000000029
:100380002E431E001F002000210022002B0014001D
:100390001A00090013000A002800040015001600C6
:1003A00017000700E1001D001B00060019000500F2
:1003B0002961E200E30050004F002A0000304600AF
:1003C0004E004B0000000000E1002A000000000089
:1003D000000000002D002700260025002400230037
:1003E000310033001C0018000F000D00280012001F
:1003F0000C00080011000B003500380037003600F3
:1004000010000E003400510052004F0050002C002C
:10041000DE5C4C004A004D000000000028002C006B
:1004200000000000000000002E431E001F002000FE
:10043000210022002B0034003600370013001C007E
:10044000280004001200080018000C00E10033002E
:1004500014000D000E001B002961E200E3005000B3
:100460004F002A00003046004E004B000000000004
:10047000E1002A0000000000000000002D0027001D
:10048000260025002400230031000F00150006007F
:100490000A00090038001600110017000B000700C1
:1004A00035001D0019001A0010000500340051002D
:1004B00052004F0050002C00DE5C4C004A004D0002
:1004C0000000000028002C000000000000000000D8
:1004D0002E430C300D300E300100010001000100F0
:1004E0000330023001000F3001000630010001002E
:1004F00001000100010001000130010001000100C4
:10050000005C010001000100010001000030460014
:100510004E004B0000000000E1002A000000000037
:1005200000000000010030002F0001000100010068
:1005300001000A300100010001000100010001007A
:100540000B30520001000100010001004F0051007A
:1005500050000100005C01000100010001000100E9
:10056000DE5C4C004A004D000000000028002C001A
:1005700000000000000000002E431E001F002000AD
:100580002100220025001E0003301E001E001E0058
:1005900025001E001E001E001E001E0025001E005D
:1005A0001E001E001E001E00005C1E001E001E001D
:1005B0001E000100003046004E004B00000000000D
:1005C000E1002A0000000000000000002D002700CC
:1005D00026002500240023000000560023002200EE
:1005E000210000000000570020001F001E00000036
:1005F000000000003700270027000000005C00001A
:100600000000550054000000DE5C4C004A004D0024
:100610000000000028002C00000000000000000086
:1006200045003A003B003C003D003E000100200038
:1006300020002000200020000100010052000100E5
:10064000010001000100500051004F0001000100B5
:100650002961E200E3000357DD5C2A000030460018
:100660004E004B0000000000DD5C2A00000000008E
:1006700000000000440043004200410040003F00F1
:100680000100010001000100010001000100520011
:1006900001000100010001004F0051005000010065
:1006A000010001004F0051005000340052002C00A6
:1006B000DE5C4C004D004A000000000028002C00C9
:1006C000000000000000000000000000000000002A
:1006D000000000000000000000000000000000001A
:1006E000000000000000000000000000000000000A
:1006F00000000000000000000000000000000000FA
:100D500000000000000000000100DB5CDC5CDA5CED
:100D6000C15CC45C0100DB5C01001D5C1E5C135CAB
:100D700001001E001E000100010001000100010031
:100D80000100DA5C01000100005C010001000100CB
:100D9000010001000100010001000100000000004D
:100DA0000100010000000000000000000100C75C1D
:100DB000C85CC55CC65CC35C01000100DC5CDA5C3D
:100DC000DB5C0A5C01000100010001000100010080
:100DD000010001000100010001000100005C0100B0
:100DE00001000100010001000100010001000100FB
:100DF00000000000010001000000000000000000F1
:100E000000000000000000002A2B28000000000065
:100E100000000000000000000000002900000000A9
:100E20002C1E3420212224342627252E362D373817
:100E3000271E1F202122232425263333362E373820
:100E40001F0405060708090A0B0C0D0E0F101112DE
:100E5000131415161718191A1B1C1D2F3130232DAA
:100E6000350405060708090A0B0C0D0E0F101112A8
:100E7000131415161718191A1B1C1D2F3130354C59
:100E80000000000000000000000000000000000062
:100E90000000000000000000000000000000000052
:100EA0000001010101010100010101010000000038
:100EB000000000000000000000000100010001012E
:100EC0000101010101010101010101010101010112
:100ED0000101010101010101010101000000010105
:100EE0000000000000000000000000000000000002
:100EF00000000000000000000000000101010100EE
:100F00000403300000000E0344006100630074001D
:100F100079006C00000016034300480020006200C6
:100F20006F0078004D006F00640073000000040340
:100F3000090409025400030100A0FA090400000199
:100F40000301010009211101000122400007058170
:100F50000308000A0904010001030102000921112C
:100F6000010001224D000705820308000A0904025E
:100F700000010300000009211101000122360007D1
:100F800005830308000A1201100100000008EDFEAD
:100F9000603001000102030105010980A101850201
:100FA0001601002603001A81002A8300751095019E
:100FB0008100C0050C0901A1018503160100269CD2
:100FC000021A01002A9C02751095018100C00501DA
:100FD0000902A1010901A10005091901290515004E
:100FE00025019505750181029501750381010501B2
:100FF000093009311581257F950275088106093868
:101000001581257F950175088106050C0A380215A2
:1010100081257F950175088106C0C005010906A1DB
:1010200001050719E029E7150025019508750181DB
:1010300002950175088101050819012905950575B5
:101040000191029501750391010507190029FF150A
:101050000026FF00950675088100C00011241FBE00
:10106000CFEFDAE0DEBFCDBF04B603FE27C080912C
:10107000610290916202A0916302B0916402873094
:10108000904BA740B04BD1F41092610210926202D3
:10109000109263021092640214BE84B7877F84BFEB
:1010A0000FB6F894A89580916000886180936000E5
:1010B000109260000FBEE0E0F8E3099511E0A0E0B7
:1010C000B1E0E6E0F6E502C005900D92A239B10765
:1010D000D9F722E0A2E9B1E001C01D92A136B20722
:1010E000E1F70E9445250C94012B0C9400000C9410
:1010F000FD0B809134028360886080933402ABE6FC
:10110000B1E061E070E08D91E82FE295EF70F0E0E2
:1011100041A18F709B0101C0220F8A95EAF7922F9F
:101120009095942391A382A1822B82A381E0A23780
:10113000B80749F7A5E6B1E061E070E08D91E82FCE
:10114000E295EF70F0E041A18F709B0101C0220F8A
:101150008A95EAF7922F9095942391A382A1822BEE
:1011600082A381E0AB36B80749F7559A209AE2E9A5
:10117000F1E0A1EAB1E080EA91E011921D928E17B0
:101180009F07D9F70C94AB0E4F925F926F927F92AC
:101190008F929F92AF92BF92CF92DF92EF92FF9287
:1011A0000F931F93CF93DF938091000107E010E02E
:1011B000882311F010E000E0C8018F559E4F7C019C
:1011C0008BE6C82E81E0D82EE701AA24A394B12C87
:1011D0008824839424E0922E78801882D6018D9101
:1011E0006D01E82FE295EF70F0E091A18F7095010D
:1011F00001C0220F8A95EAF7892F822B81A382A151
:10120000622E6094862182A3B0EABA95F1F745E692
:1012100051E090E080E0DA017D91AD01A72FA29529
:10122000AF70B0E09096BC91A8817F70250102C09C
:10123000440C551C7A95E2F7B2016B2309F052C0B9
:101240006A2D082E01C0660F0A94EAF76A2B68839C
:10125000019686309105F9F681A1862181A382A1AC
:10126000282B22A38881781659F08092AF010E9422
:10127000121F9093B1018093B0018BB189258BB976
:10128000219682E7C81681E0D80609F0A5CF8091A3
:10129000AF018823A9F08091B0019091B1010E9423
:1012A0001E1F069768F0F801EE56FE4F80E0D7014A
:1012B0009D917D0191938F5F8730C9F71092AF01A7
:1012C00081E0DF91CF911F910F91FF90EF90DF9020
:1012D000CF90BF90AF909F908F907F906F905F90D6
:1012E0004F90089560E0B2CFCF93DF9380910001DB
:1012F000D0E0C0E0882311F0C7E0D0E00E94C90A26
:10130000009789F4CE56DE4F30E020E0F901EC542E
:10131000FE4F408149932F5F3F4F27303105B1F792
:10132000DF91CF91089581E090E0FACFCF930E94B2
:10133000C408C82F0E947409892BE1F05D98809140
:10134000A0018F5F8093A001863078F0809100012A
:10135000F0E0E0E0882311F0E7E0F0E0EE56FE4F29
:1013600087E090E011920197E9F70E94AD0E8C2F73
:10137000CF9108955D9A1092A001F7CF0E94C40802
:1013800080910001E7E0F0E0882311F0F0E0E0E078
:10139000EE56FE4F90E080E02191DC01AC54BE4F50
:1013A0002C93019687309105B9F70895E82FF0E066
:1013B000EE56FE4F808108950895E8EDF0E08081BB
:1013C000806180838AE18A95F1F700C08091D9001D
:1013D000817008958EE090E00E94CB2A91E0811107
:1013E00001C090E0909300010E94DD09882321F064
:1013F0000E94570A789408950E94091F0E945B0A70
:10140000F9CF0E9479080E94BE09FDCF0E94EA0927
:101410000E94DD09811102C00E94010A0895509ABC
:1014200008955098589A0895589A08950E94110A5C
:10143000489BFECF80E88A95F1F708950E94110A33
:1014400098E080E029B1880F2170822B20E82A954E
:10145000F1F725E02A95F1F70000915099F70895EA
:101460000F931F93CF93082F0E940F0AC8E010E03C
:10147000C15020F4CF911F910F910895C8010C2EF7
:1014800002C0959587950A94E2F780FF06C00E94F6
:10149000140A80E88A95F1F7EBCF5898FACF0E94AA
:1014A0000F0A589880E88A95F1F70C94140A0E9464
:1014B0000F0A0C94140A0E94110AE89AE9E6F0E077
:1014C00080818C7F808308951F920F920FB60F92B8
:1014D0001124EF92FF921F932F933F934F935F93AB
:1014E0006F937F938F939F93AF93BF93CF93DF932C
:1014F000EF93FF930E944F0AD0E0C0E010E0CE01CE
:101500008C549E4F7C01FC0180810E94300A0E9415
:101510004F0AF7018081180F2196C730D10579F75E
:10152000812F0E94300A0E944F0AF0E8FA95F1F7E5
:1015300080E48A95F1F70E941E0A8093B3010E940D
:101540004F0AC091B3010E941E0AD82F0E944F0A71
:101550000E94110A8091B201DC17C9F0816080936A
:10156000B201FF91EF91DF91CF91BF91AF919F9128
:101570008F917F916F915F914F913F912F911F912B
:10158000FF90EF900F900FBE0F901F9018958E7FD9
:10159000E6CFEF92FF921F93CF93DF93F8940E94D0
:1015A0000F0A589825E02A95F1F700000E94110AC9
:1015B0000E94140A30E83A95F1F7489B09C07894E4
:1015C00081E090E0DF91CF911F91FF90EF9008951F
:1015D0000E94160AD0E0C0E010E00E941E0AFE0140
:1015E000EC54FE4F7F0180830E94160AF701808130
:1015F000180F2196C730D10581F70E941E0AC82F07
:101600000E94160AC113DBCF8091B3010E94300AF9
:101610000E94160A8091B3010E94300A0E94160AA5
:101620000E940F0A0E94140A789490E080E0CACFCA
:101630000C94FC0BFC018081813021F489E891E05D
:101640000C94901B823019F480E891E0F9CF83E785
:1016500091E0F6CFFC018081813021F486E591E0B4
:101660000C94901B823019F481E091E0F9CF86EC64
:1016700090E0F6CFFC018081813021F489EB90E08D
:101680000C94901B823019F48CEA90E0F9CF089505
:10169000FC018081813031F488E30E94EB1388E300
:1016A0000C94C61481E30E94EB1381E3F9CFCF932E
:1016B000DF93EC010E94491EBE0190E080E0DF91C3
:1016C000CF910C94161CDC01603148F5E62FF0E058
:1016D000E459F44F0C94B12A7C0B810B860B920BCE
:1016E0009A0B9F0BB80B8F0B8F0B8F0BBD0BC50B82
:1016F000CD0BD20BD70BDC0B12968C91129781116C
:1017000063C012968C911297811161C012968C91D0
:101710001297882339F088E992E00E94420E90E007
:1017200080E0089512968C911297882319F080E832
:1017300092E0F3CF12968C91129781114BC01596BF
:101740008C911597982F907F12962C91222341F01F
:10175000992311F080FFE3CF83E00E94781CDFCF54
:10176000992311F080FF39C083E00E94991CD7CFE4
:1017700012968C911297811133C012968C91129708
:10178000882319F08CE492E0C8CF12968C911297BE
:10179000882319F08EE392E0C0CF12968C911297B5
:1017A000811121C012968C91129781111FC012963F
:1017B0008C91129781111DC012968C91882309F487
:1017C000AECF82E991E0A9CF8FEC92E008958EE947
:1017D00092E008958DE692E0089588E692E00895FB
:1017E0008DE492E008958BE092E0089588ED91E019
:1017F000089585EA91E0089508950895CF93FB0137
:101800008C3D2CE5920751F148F48A3D2CE5920776
:10181000A1F08B3D9C45C9F0C1E014C08E3D2CE584
:10182000920771F108F1803E9C45B1F7C28180E1D9
:10183000CC2389F10E94781C0FC0C28182E090E025
:10184000C11108C08C2FCF910895C281CC23D1F350
:1018500081E090E00E94570BC0E0F4CFC28184E0A9
:1018600090E0CC2379F3F6CFC28183E0CC2359F00A
:101870000E94781C40E164E083E00E94990EECCF66
:10188000C28184E0F3CF0E94991C40E164E083E0D0
:101890000E94990ED7CF0E94991CD4CF81E0089561
:1018A0000C94FE0B0E94EF172FEF84E39CE0215075
:1018B00080409040E1F700C0000087E797E79093F1
:1018C0000108809300080C946E1F0F931F93CF9311
:1018D000DF938C01FC01C081D181CE010E94141DD7
:1018E000BE010E94B70EEC01B8010E94C811B801F8
:1018F000CE010E94500C882309F459C0B801CE01D2
:101900000E940C12882309F452C0B801CE010E9433
:101910001B11882309F44BC0C531FCE5DF0709F42E
:1019200039C1B0F4C130ECE5DE0709F446C008F077
:1019300056C0C115DC45B1F181E08093C0018093B0
:10194000C101C801DF91CF911F910F910C944E0CF2
:10195000C53DECE5DE0709F402C1B8F4C33D8CE5F2
:10196000D80709F4C0C0C43DDC4531F7F8018281D5
:10197000882309F4DFC01092C1010E94121F9093C6
:10198000BF018093BE0180E2BBC0C83DFCE5DF071C
:10199000F1F0C93DDC4581F6F8018281882339F0F8
:1019A00082E01AC0F801828181110E94520C80E00D
:1019B000DF91CF911F910F910895F80182818823C3
:1019C000B1F380913402816080933402F0CFF8014A
:1019D0008281882361F380E00E94DE25E8CFF80150
:1019E0008281882309F4ADCF0E94361E811102C086
:1019F0000E941C1E0E944E1E90E090935302809302
:101A00005202FE01E350FC45809152028160E231B6
:101A1000F105C8F4E25FF24F0C94B12A200D2C0DB1
:101A2000300D340D380D3C0D400D440D480D4C0D5E
:101A3000500D540D580D5C0D600D640D680D6C0D4E
:101A400080915202826080935202809152020E94E1
:101A5000521E0E94EF17ABCF809152028460F3CFE9
:101A6000809152028860EFCF809152028061EBCF6B
:101A7000809152028062E7CF809152028064E3CF6E
:101A8000809152028068DFCF809152028460EACF59
:101A9000809152028E7FD7CF809152028D7FD3CF1B
:101AA000809152028B7FCFCF80915202877FCBCF24
:101AB000809152028F7EC7CF809152028F7DC3CF1B
:101AC000809152028F7BBFCF809152028F77BBCF24
:101AD000809152028B7FEACF90915202892F97FB1F
:101AE00087F98058B0CFF8018281882361F0109285
:101AF000C0010E94121F9093BD018093BC0182E03F
:101B00000E94151554CF8091C00181110FC08091A2
:101B1000BC019091BD010E941E1F8639910530F4D1
:101B200086E20E94EB1386E20E94C61482E00E94C5
:101B30001C153DCF8091C10181110FC08091BE0164
:101B40009091BF010E941E1F8639910530F487E2F3
:101B50000E94EB1387E20E94C61480E2E8CFF801EE
:101B60008281811108CF8091C1018111F6CF8091CE
:101B7000BE019091BF010E941E1F8639910568F732
:101B800080E20E941C1588E20E94EB1388E20E940A
:101B9000C6140DCF0E94DA1DF8019281992381F0BD
:101BA0008A7A91E009F490E09093BB01811106C01C
:101BB00089E20E94631D0E94A71DF9CE85E3F9CF3B
:101BC0008091BB01811104C089E20E946A1DF3CF9C
:101BD00085E3FBCFCF9390E0FC01E050F24FC4913E
:101BE0008058914FFC018491882369F081EE0E9416
:101BF000EB138C2F0E94EB138C2F0E94C61481EEE6
:101C0000CF910C94C6148C2F0E94EB138C2FF8CF1D
:101C1000FF920F931F93CF93DF938C01F62EF80161
:101C20008491882349F1E8012196813049F4FE012D
:101C30001491812F0E94EB13812F0E94C61406C0BD
:101C4000823089F4FE0184910E94EB138E010F5FB4
:101C50001F4F8F2D815018F3EFE9FFE03197F1F717
:101C600000C00000F7CF833019F4FE018491E5CF66
:101C70000E94EA0DE801EACFDF91CF911F910F9109
:101C8000FF90089560E00C94080E8F929F92AF929F
:101C9000BF92CF92DF92EF92FF920F931F936B014F
:101CA0007C0181E090E0A0E0B0E04C015D0104C067
:101CB000880C991CAA1CBB1C4A95D2F7B501A4013B
:101CC0004C015D0104C0880C991CAA1CBB1C2A9500
:101CD000D2F7482959296A297B2904C0880F991FFE
:101CE000AA1FBB1F0A95D2F78A019B010C211D2157
:101CF0002E213F21041715072607370789F48C2961
:101D00009D29AE29BF29BC01CD011F910F91FF90E4
:101D1000EF90DF90CF90BF90AF909F908F900895FD
:101D200080959095A095B0958C219D21AE21BF21E5
:101D3000EACF0F93382F262F60911F027091200257
:101D40008091210290912202042F432F0E94450E80
:101D50000F910C94521C0C94180B0E9466120C9458
:101D6000770808950C94B10E0C94B20E0895972F35
:101D700070E026E0929F600D711D1124FB0194E537
:101D8000899FE00DF11D1124EE0FFF1FE852FD4F5A
:101D9000859194910895FC01EE0FFF1FE050F14FE3
:101DA000859194910895CF93DF930E94B70E0E947E
:101DB0007710EC018115904508F043C0C11580E40F
:101DC000D80708F00AC1C83ED10528F5C03ED105A4
:101DD00008F09EC0C83AD10580F4C53AD10508F094
:101DE0008DC0C130D10509F493C020F0C430D105B5
:101DF00008F08EC0D0E0C0E08BC0CD3BD10508F428
:101E00008BC0CE01805C9109C03CD10598F30E9443
:101E1000CB0EEC017DC0C11520E2D20750F4C115F4
:101E200081E0D80708F074C0C03FD10518F3D06531
:101E30006FC0C11520E3D20708F0C5C0CE019F7066
:101E4000E6CFC11585E5D80760F5C11524E5D207B1
:101E500008F0F1C0C11582E5D80750F4C11521E59D
:101E6000D20708F4BDC0DC2FCC27C16FD06A50C0A8
:101E70009C2F969596959E0123703327C115D345C7
:101E800008F0CAC0C1E0D0E002C0CC0FDD1F2A9527
:101E9000E2F720E2929FC0011124C82BD92BDC6805
:101EA00037C0C11529E5D20780F4C11588E5D807E8
:101EB00008F0C6C0C11526E5D20708F09BCFDC2F7D
:101EC000CC27CC27DF71D06223C0C1158AE5D807A3
:101ED00008F4BBC0CE0190568115904208F08ACF1D
:101EE0008D2F8F710E94F710DD27D06290E0982F20
:101EF000882788279F71C82BD92B0AC0C53AD105DE
:101F000009F4B0C0C63AD10509F4AFC0C3E8D0E4C3
:101F1000CE01DF91CF910895C83AD10509F4A8C048
:101F2000C93AD10509F4A7C0CA3AD10509F4A6C037
:101F3000CB3AD10509F4A5C0CC3AD10509F4A4C027
:101F4000CB3BD10509F4A3C0CC3BD10509F4A2C019
:101F5000CD3AD10509F4A1C0C03BD10509F4A0C018
:101F6000CE3AD10509F49FC0CF3AD10509F49EC0FD
:101F7000C13BD10509F49DC0C23BD10509F49CC009
:101F8000C33BD10509F49BC0C43BD10509F49AC0F9
:101F9000C53BD10509F499C0C63BD10509F498C0E9
:101FA000C73BD10509F497C0C83BD10509F496C0D9
:101FB000C93BD10509F495C0CA3BD10509F094C0CD
:101FC000CAE2D6E4A5CFCE019927D3FF03C0EC0126
:101FD000D86C9ECFEC01D06C9BCFDF70D06A98CFCD
:101FE000CE01E4E096958795EA95E1F783709C2F02
:101FF000937021E030E002C0220F331F9A95E2F780
:102000003C68382BC695C695C37080E2C89FE00136
:102010001124C22BD32B7CCFC1E0D0E002C0CC0F67
:10202000DD1F2A95E2F720E2929FC0011124C82B00
:10203000D92BDA686DCFDC2FCC27C46FD06A68CF7C
:10204000DC2FCC27C06FD06A63CFCE0134E09695E9
:1020500087953A95E1F78F70CF70C06ED0E0D06A67
:10206000D82B56CFC1E8D0E453CFC2E8D0E450CF4C
:10207000C2EED4E44DCFC9EED4E44ACFCAEED4E4E4
:1020800047CFC5EBD4E444CFC6EBD4E441CFC3EB98
:10209000D4E43ECFC4EBD4E43BCFC7EBD4E438CF99
:1020A000CCECD4E435CFCDECD4E432CFC3E8D5E4E6
:1020B0002FCFCAE8D5E42CCFC2E9D5E429CFC4E9B3
:1020C000D5E426CFC1E2D6E423CFC3E2D6E420CFC5
:1020D000C4E2D6E41DCFC5E2D6E41ACFC6E2D6E408
:1020E00017CFC7E2D6E414CFC0E0D4E411CF8238D2
:1020F000910549F1B0F48133910509F45CC048F4CD
:102100008932910509F452C08A32910509F458C008
:1021100008958533910509F444C08933910599F0F8
:102120000895833E910531F138F4803E910591F098
:10213000823E9105B1F00895863E910511F1873EEA
:10214000910541F10895209152022370C9F080EE6B
:1021500090E008952091520220FF12C089E390E0A0
:1021600008952091520222FF0BC024FF2EC090E060
:1021700080E008952091520222FD2AC024FDF7CF6D
:1021800008952091520223FFFBCF24FDF0CF87EE6C
:1021900090E008952091520223FFF0CF86EE90E068
:1021A00008952091520225FD16C0089520915202F3
:1021B00025FD14C008952091520226FD12C00895F5
:1021C0002091520226FD10C0089583EE90E00895FC
:1021D00082EE90E0089589E290E0089585E390E032
:1021E00008958AE290E0089581E390E0C9CF90914C
:1021F000520292FF06C0282F2871283069F4877F89
:10220000846093FF06C0282F2871283161F4877EEF
:10221000846194FD877E0895282F2471243089F7E6
:102220008B7F8860EECF282F2471243191F78B7E2D
:102230008861EFCF08950F931F93CF938C01FB011B
:102240008281811106C0C1E08C2FCF911F910F9127
:102250000895C091CF01C11125C006311C4599F7E1
:102260000E941A1181E08093CF010E94121F909367
:10227000CE018093CD011092C2011092C401109240
:10228000C3011092C6011092C5011092C8011092AC
:10229000C7011092CA011092C9011092CC0110928C
:1022A000CB01D2CF8091CD019091CE010E941E1F13
:1022B0008C32914040F68091C201E82FF0E0EE0FA1
:1022C000FF1FED53FE4F118300838F5F8093C20188
:1022D000C0E0BACFCF93DF93EC0181E08F878F818D
:1022E0000E94DD1D88850E94F11D0E94A71DEA81C4
:1022F000FB816A897B89CE010696309719F0DF91C0
:10230000CF910994DF91CF910895EF92FF920F93AF
:102310001F93CF93DF93EC018885811132C0EB804E
:10232000FC8087E5F81A24E12E9DC0012F9D900DB9
:102330001124DC01AF5FBE4F1496ED91FC9115970F
:1023400052966D917C91895F9E4F309709F0099567
:1023500084E18E9D80018F9D100D11240F5F1E4F13
:10236000F80187810E94E31DF80180850E94F71D16
:102370000E94A71D18821F8219861092D101109207
:10238000D001DF91CF911F910F91FF90EF900895B1
:10239000DF92EF92FF920F931F93CF93DF937C0115
:1023A000FB018281882391F0809151018F3F71F070
:1023B000C1E0D1E010E000E0DD24D3948091510130
:1023C000082E000C990B8017910744F4DF91CF91F0
:1023D0001F910F91FF90EF90DF9008958E818823D9
:1023E000B9F089859A858E159F0539F48091D001C1
:1023F0009091D101E816F90659F0DD868F8581119B
:1024000003C0CE010E946A11CE0106960E9485117A
:102410000F5F1F4F6496D2CFEF92FF920F931F93DF
:10242000CF93DF937C0197558F3F910509F0D8F545
:1024300020915101022E000C330B2817390714F498
:1024400080935101FB01228134E1389F8001399F43
:10245000100D1124E801CF5FDE4F2E8792818E810F
:10246000992349F1FA86E9868F5F8E830E94121FB5
:102470009C878B870E94191E8F830E94DA1D888794
:102480000E94EE1D9885892B8887E881F9816A89E9
:102490007B89C801895F9E4F309709F00995F092BA
:1024A000D101E092D00181E0DF91CF911F910F9196
:1024B000FF90EF9008958823B1F38F85882399F3D7
:1024C000C801895F9E4F0E948511EDCFEF92FF9268
:1024D0000F931F93CF93DF938091510110E004E19C
:1024E0008F3FC1F5DF91CF911F910F91FF90EF903A
:1024F0000895029FF001039FF00D1124EF5FFE4F3E
:10250000E088F188E114F10419F486E9E82EF12C51
:10251000029FE001039FD00D1124CF5FDE4F8E811B
:102520008823B9F08B859C850E941E1FE816F9064A
:1025300080F4109F700111248F85811105C0C7019F
:102540008F5F9E4F0E946A11C701895F9E4F0E9454
:1025500085111F5F212F30E080915101082E000C62
:10256000990B821793072CF6BDCF9093D7018093D8
:10257000D6010895E091D601F091D701309721F06E
:102580000190F081E02D099480E00895E091D6015A
:10259000F091D701309721F00280F381E02D09946A
:1025A0000895E091D601F091D701309721F0048091
:1025B000F581E02D099408952091D4013091D50141
:1025C0002817390771F09093D5018093D401E091D9
:1025D000D601F091D701309721F00680F781E02DE8
:1025E000099408952091D2013091D3012817390719
:1025F00071F09093D3018093D201E091D601F091D4
:10260000D701309721F00084F185E02D09940895D9
:102610000C94060A81E008950E94091F0E9479081F
:102620000C947F1FBF92CF92DF92EF92FF920F9395
:102630001F93CF93DF93CDB7DEB72A970FB6F894E9
:10264000DEBF0FBECDBF0E9496090E940A138823E9
:1026500009F471C089EDC82E81E0D82E10E000E0A9
:10266000B02E802F0E94D609E82EF601F1906F015E
:10267000F81609F45AC08091340281FD0E94DC09E9
:1026800090E080E0FE242F2D30E0482FB901082E85
:1026900002C0759567950A94E2F760FF41C08E838A
:1026A000BF8281E090E06C0102C0CC0CDD1C4A9539
:1026B000E2F72E2D30E02C213D21232B09F480E080
:1026C00088870E94121F8160782F9A8789874E81A0
:1026D0005F8168858A850E94BC13F801E752FE4F2E
:1026E00080818C2580830E9412210E94BA129091D1
:1026F000D801891789F10E94BA128093D8012A96CD
:102700000FB6F894DEBF0FBECDBFDF91CF911F9102
:102710000F91FF90EF90DF90CF90BF900C94B40E8C
:1027200001968630910509F0B0CF0F5F1F4F0E3034
:10273000110509F095CF8FEF89838A831B820E9450
:10274000121F8160782F9D838C8349815A816B8110
:102750008D810E94BC13C7CF2A960FB6F894DEBFB6
:102760000FBECDBFDF91CF911F910F91FF90EF90E2
:10277000DF90CF90BF900895CF93DF93CDB7DEB7B2
:102780002B970FB6F894DEBF0FBECDBF4F8358878F
:1027900069877A878B871E821D8285E0FE013796C6
:1027A000DE01119601900D928A95E1F749815A81D7
:1027B0006B817C818D819E812B960FB6F894DEBF54
:1027C0000FBECDBFDF91CF910C94E71AFC01808141
:1027D00091810C94561DCF93C82F882309F4D4C03F
:1027E0008238C1F40E94BA1281FDCEC089E30E94F2
:1027F000631D0E94A71D2FEF81EE94E021508040C1
:102800009040E1F700C0000089E30E946A1DCF916B
:102810000C94A71D8338A1F40E94BA1280FDB4C0A5
:1028200083E50E94631D0E94A71D2FEF81EE94E0B7
:10283000215080409040E1F700C0000083E5E5CFE3
:102840008438A1F40E94BA1282FD9EC087E40E94DF
:10285000631D0E94A71D2FEF81EE94E02150804060
:102860009040E1F700C0000087E4CFCF8CEF8C0FE1
:10287000813A48F48C2F0E941723811185C08C2F38
:102880000E94631DC4CF80E28C0F883048F4C7706B
:1028900081E001C0880FCA95EAF70E94DD1DB7CF1D
:1028A0008BE58C0F833068F481E890E0C53A31F015
:1028B00083E890E0C63A11F482E890E0CF910C945E
:1028C000DC1288E58C0F853108F05EC082EE90E066
:1028D000C83A09F456C089EE90E0C93A09F451C0EB
:1028E0008AEE90E0CA3A09F44CC085EB90E0CB3A0E
:1028F00009F447C086EB90E0CC3A09F442C083EB80
:1029000090E0CB3BF1F184EB90E0CC3BD1F187EB55
:1029100090E0CD3AB1F18CEC90E0C03B91F18DECC0
:1029200090E0CE3A71F183E891E0CF3A51F18AE834
:1029300091E0C13B31F182E991E0C23B11F184E9C0
:1029400091E0C33BF1F081E292E0C43BD1F083E23D
:1029500092E0C53BB1F084E292E0C63B91F085E2A3
:1029600092E0C73B71F086E292E0C83B51F087E20B
:1029700092E0C93B31F090E080E0CA3B11F48AE27A
:1029800092E0CF910C94F212CF910895882309F42C
:102990004BC0823871F40E94BA1281FF45C089E3AE
:1029A0000E94631D0E94A71D89E30E946A1D0C946A
:1029B000A71D833859F40E94BA1280FF35C083E501
:1029C0000E94631D0E94A71D83E5EFCF843859F450
:1029D0000E94BA1282FF28C087E40E94631D0E94F1
:1029E000A71D87E4E2CF9CEF980F913AF0F290E2B6
:1029F000980F983050F4877091E001C0990F8A9534
:102A0000EAF7892F0E94E31DD2CF9BE5980F933000
:102A100020F490E080E00C94DC12885A853120F498
:102A200090E080E00C94F2120895882321F00E9437
:102A3000DD1D0C94A71D0895882321F00E94E31D3D
:102A40000C94A71D08958F929F92AF92BF92DF9230
:102A5000EF92FF920F931F93CF93DF937C01D62FBA
:102A6000C72FFC01058102950F70128111110E9480
:102A7000FF1D0E94A01DD82E882371F0112331F173
:102A800080E28D0F883010F182E00E948A1D0E9442
:102A9000A01D91E0D82ED926BC2EB2949FE0B92279
:102AA000EB2DF0E0EA5AFA4E0C94B12A681568153D
:102AB000B815B815FF152716061606166916061658
:102AC000041704178E17061606169717D12CE4CF95
:102AD0000C2F0F70C07F11F00295007F1123A9F019
:102AE000002359F080E28D0F883010F0D11109C019
:102AF000802F0E94DD1D0E94A71D8D2F0E94EB13C9
:102B000014C0802F0E94F11DF6CF8D2F0E94C61495
:102B1000002359F080E28D0F883010F0D11124C0CD
:102B2000802F0E94E31D0E94A71DDD2009F406C22C
:102B30000E947D1D80FD02C2F70112820E94771D56
:102B40000E94781CC7010E94AA170E94771DDF917E
:102B5000CF911F910F91FF90EF90DF90BF90AF90BA
:102B60009F908F900C94991C802F0E94F71DDBCFB3
:102B7000FC2FFF70BF2EC07FC03219F0B29480EFDF
:102B8000B822DD2369F0D13049F1112391F10023FE
:102B900051F1F701858180FFB0CF8F70858323C00D
:102BA000112381F0011106C00E94191E8B290E9479
:102BB0001515BBCF0130C1F70E94191E8B290E9449
:102BC000131EB3CF011106C00E94161E8B2D0E944A
:102BD0001C15ABCF013009F4A8CFF6CF112329F093
:102BE000063008F0A2CF8B2DE2CF053008F09DCF44
:102BF000EDCF002359F38D2F0E94C61496CF8C2F52
:102C000086958695837079F08130B9F098E0B91691
:102C100009F49BC0B91608F488CF86EF8B0D82307B
:102C200008F493C082CF8D2F9C2F9370111102C096
:102C300090E080E00E94DC1278CF8D2F9C2F937063
:102C4000111102C090E080E00E94F2126ECF1123B9
:102C500009F1D53F99F0D63FB9F0D43F49F48091BE
:102C60004C0290914D02816090934D0280934C02F2
:102C70008D2F0E941B200E94072157CF80914C026C
:102C800090914D028260F0CF80914C0290914D0264
:102C90008460EACFD53F89F0D63FA9F0D43F49F40C
:102CA00080914C0290914D028E7F90934D028093C3
:102CB0004C028D2F0E948320DECF80914C02909198
:102CC0004D028D7FF2CF80914C0290914D028B7F0F
:102CD000ECCF8C2F837009F04BC0111136C02D2F13
:102CE000229526952770220F220F6D2F6F70862E4A
:102CF000912CB12CA12C022E04C0880C991CAA1C6A
:102D0000BB1C0A94D2F760E070E0CB01D4FF0FC087
:102D10006FE070E080E090E004C0660F771F881FCE
:102D2000991F2A95D2F76095709580959095C695D4
:102D3000C695C370C23071F0A0F4682979298A2938
:102D40009B29C13091F00E942A1C0E94BA120E9455
:102D5000B40EEBCE682979298A299B290E943C1C54
:102D6000F4CF0E942A1CC501B4010E94181CEDCFAB
:102D70008695112311F08C2F8170882331F32D2F2C
:102D8000229526952770220F220F6D2F6F70862EA9
:102D9000912CB12CA12C022E04C0880C991CAA1CC9
:102DA000BB1C0A94D2F760E070E0CB01D4FF0FC0E7
:102DB0006FE070E080E090E004C0660F771F881F2E
:102DC000991F2A95D2F76095709580959095C69534
:102DD000C695C370C23051F080F4682979298A29D8
:102DE0009B29C13071F00E94EF1CAFCF682979296F
:102DF0008A299B290E94011DA8CF0E94EF1CC501B2
:102E0000B4010E94DD1CA1CFE0E2ED0FE53108F036
:102E100066C0F0E0E25FF84E0C94B12A2317231746
:102E200023172317231723172317231723172317D2
:102E30002317231723172317231723173417421792
:102E4000491750175A17DF708C2F8F71112331F0EB
:102E50000E94781C8D2F0E941515D8CE0E94991CB7
:102E60008D2F0E941C15D2CE112341F0053008F0A1
:102E7000CDCE8C2F8F710E94BC1CC8CE063008F0BE
:102E8000C5CEF7CF8C2F8F71112339F00E94781C9B
:102E9000BDCE8C2F8F711123C9F30E94991CB6CE21
:102EA000112329F08C2F8F710E94631CAFCE0E94DA
:102EB0005E1CACCE112349F0CF718C2F0E94781C80
:102EC00063E08C2F0E94811DA1CE81E00E948A1DAB
:102ED000023008F49BCE82E00E948A1D97CE112317
:102EE00049F0002321F08D2F0E94EB138FCE8C2F01
:102EF0008F71CCCF002379F0D93349F4FFEF27EE5F
:102F000083E0F15020408040E1F700C000008D2FA9
:102F10000E94C6147BCE8C2F8F71BFCF4C2F4F7069
:102F20006D2FC7010E94630B0E94901BFECD4C2F9A
:102F30004F706D2FC7010E94B60EF7CDDF91CF9174
:102F40001F910F91FF90EF90DF90BF90AF909F90F7
:102F50008F9008950F931F93CF93DF93EC01988187
:102F600089812B813C81232B39F08F3F19F481E03B
:102F70009F3F19F080E001C081E080FD17C0CE01C5
:102F80000E94650C882391F0688179818A810E9472
:102F9000601D8C010E94131D0E94151CB801CE01FA
:102FA000DF91CF911F910F910C942315DF91CF9159
:102FB0001F910F9108950E94FF1D0E94101E0E94F4
:102FC000711D0E94A71D0E949D210E94072190E073
:102FD00080E00E94DC1290E080E00C94F2120E94EB
:102FE000EB1D0C94DB170E94561DE92FE295EF7044
:102FF000E250EE30E0F4F0E0E050F84E0C94B12AEC
:103000000E180E1817181718191817181718171858
:103010000E180E181E18171817181E18803F19F0D2
:1030200020F4803E20F481E00895843FE1F380E0C5
:103030000895803EC0F3813FD1F7F5CF93FB8827F9
:1030400080F90895CF93DF9300D000D01F92CDB7C1
:10305000DEB70F900F900F900F900F90DF91CF91F0
:103060000895CF93DF9300D000D000D0CDB7DEB766
:1030700026960FB6F894DEBF0FBECDBFDF91CF917D
:1030800008951F93CF93DF93C091E70116E08091DD
:10309000E8018C1304C0DF91CF911F910895D0E017
:1030A0001C9FF0011D9FF00D1124E751FE4F408140
:1030B000518162817381848195810E9431182196AA
:1030C000C770E5CF4091190250911A0260911B021E
:1030D00070911C0280911D0290911E020C94311877
:1030E0002091E7019091E80156E0291302C080E0A9
:1030F000089530E0529FF001539FF00D1124E751E5
:10310000FE4F7181761306C07081781303C07281FF
:10311000741304C02F5F3F4F2770E7CF81E00895FD
:103120001F93CF93DF9380911E02807FD1F4809113
:103130001B028823B1F08091E701D091E801B091A2
:103140001902C0911A0240911C0250911D02A1E087
:10315000BF3F09F0A0E0BA016095709516E0D81362
:1031600004C0DF91CF911F91089521E041155105D1
:1031700021F02A2FCF3F09F020E090E020FD38C059
:10318000189FF001199FF00D1124E751FE4F218186
:103190002C132EC020812B132BC02281211128C07B
:1031A000238134812417350700F1241B350B263980
:1031B0003105F0F420911E022F70206120931E0231
:1031C00026E0289FF001299FF00D1124E251FE4FC7
:1031D00080818F708061808389E192E00E94AA17CC
:1031E000DF91CF911F910C944118260F371FDFCF2D
:1031F00001968770B4CF9F92AF92BF92CF92DF9229
:10320000EF92FF920F931F93CF93DF93CDB7DEB76B
:1032100061970FB6F894DEBF0FBECDBF8C0185E07D
:10322000F801DE011D9601900D928A95E1F7D80113
:10323000DC901196EC9011971296CC903091190277
:1032400040911A0280911C0290911D0221E000978A
:1032500031F04F3F19F421E03F3F09F020E020FD1D
:103260009AC1F801A380B48090901B02992009F4C0
:103270003FC1A816B906E0F1B501681B790BCB0177
:10328000FF24F3948639910508F0F12C80911E02F9
:10329000982F907FFF2009F4E4C091119DC0FC2C71
:1032A0004E112BC03D1129C0C11027C08F70806105
:1032B00080931E020E94621889E192E00E94AA1780
:1032C00080911E02D80115968C938F2D61960FB6B2
:1032D000F894DEBF0FBECDBFDF91CF911F910F914C
:1032E000FF90EF90DF90CF90BF90AF909F900895A8
:1032F000809590958A0D9B1DC3CF81E0A114B104E8
:1033000031F0BFEFEB1202C081E0DB1280E080FD04
:103310001AC081E08C2580FF18C04C2D6E2D8D2D9C
:103320000E947018882389F089E192E00E94AA1710
:1033300086E0E9E1F2E0DF011D928A95E9F70E945B
:103340006218F12CC2CF80E0E6CF81E0AB2831F0EB
:10335000BFEFEB1202C081E0DB1280E080FD25C0F0
:1033600081E08C25E82FE170AE2E80FF2CC04C2D23
:103370006E2D8D2D0E947018B82E811124C0DD860F
:10338000EE868D859E850E94561D292F22952F70D1
:10339000223068F0243090F49F7069F0D8011596BF
:1033A0009C91907F41F4FB2C90CF80E0DBCF9F700D
:1033B00011F08823C1F3805E8830A8F3C8010E9411
:1033C000AA17BA2CF0CFCC2009F47FCF80911E022F
:1033D000816080931E02B5CF4E1114C03D1112C002
:1033E000C11010C0F8018583C8010E94AA1786E0A9
:1033F000F801A9E1B2E001900D928A95E1F70E94EF
:10340000621863CFDD86EE868D859E850E94F31758
:10341000882319F1CC2009F180911E02803270F0CE
:103420002091190230911A0238872F831986BB86A2
:10343000AA868C87CE0107960E94AA1786E0F8011B
:10344000A9E1B2E001900D928A95E1F70E949018EF
:103450000E946218FF24F39438CFC8010E94AA1773
:10346000F9CF911115C07A2DB98AA88A4D2D5E2DFC
:103470006C2D89890E94221889E192E00E94AA1786
:1034800086E0E9E1F2E0DF011D928A95E9F7B7CF26
:103490004E1112C03D1110C0C1100EC0F80185833D
:1034A000C8010E94AA17E9E1F2E086E0DF011D925F
:1034B0008A95E9F7F92C09CFDD86EE868D859E8504
:1034C0000E94F317882349F2CC2039F280911E0222
:1034D000803208F4B3CF2091190230911A023A8356
:1034E00029831B82BD82AC828E83CE010196A4CF3C
:1034F000A816B90638F1F501E81BF90BCF01F12C3C
:103500008639910508F03DC0FC2CCC2009F4A5CFEC
:103510004E1126C03D1124C080911E0280FD17C0AF
:10352000982F907FA1F0D80115968C931597903F16
:1035300009F45ACF982F907F905F8F70892B159642
:103540008C9352CF809590958A0D9B1DD8CF86E0A5
:10355000F801A9E1B2E001900D928A95E1F7B5CEAC
:10356000DD86EE868D859E850E94F317811166CFDC
:1035700080911E02816080931E02C8010E94AA17DA
:10358000A4CE7A2DB98AA88A4D2D5E2D6C2D8989FD
:103590000E94221875CFCC2009F45FCFDD86EE861D
:1035A0008D859E850E94F317F82E882309F455CF48
:1035B00086E0F801A9E1B2E001900D928A95E1F769
:1035C00089E192E00E94E6130E94901818CF1F93A1
:1035D000CF93DF93CDB7DEB72C970FB6F894DEBF4D
:1035E0000FBECDBF4F83588769877A878B879C87AB
:1035F000CE0107960E94FB18882309F442C09F81E0
:1036000088852A853B85232B39F08F3F19F481E08B
:103610009F3F19F080E001C081E080FD08C04F812C
:10362000588569857A858B859C850E94311816E0BE
:103630008091E7019091E801891709F467C0819FA3
:10364000C001112487519E4F0E94FB18882309F462
:103650005DC0E091E7011E9FF0011124E751FE4F8C
:103660004081518162817381848195810E943118EA
:103670008091E70190E00196877099278093E70198
:10368000D7CF86E0FE013796DE01119601900D92AC
:103690008A95E1F79F8188852A853B85232B39F020
:1036A0008F3F19F481E09F3F19F080E001C081E075
:1036B00080FDBDCF2091E80130E0C90101968770FF
:1036C00099274091E7014817190699F096E0929FD3
:1036D000D001939FB00D1124A751BE4FFE0131962A
:1036E00001900D929A95E1F78093E8010E944118AC
:1036F0009ECF0E94EF171092E8011092E70186E03A
:10370000E9E1F2E0DF011D928A95E9F72C960FB608
:10371000F894DEBF0FBECDBFDF91CF911F9108950A
:10372000EF92FF920F931F93CF93DF938C01892B1E
:1037300081F0F12CEE24E394E8012196F8018491C4
:10374000843770F4843008F05FC08130B1F082308B
:10375000A1F1DF91CF911F910F91FF90EF9008950C
:10376000853709F44CC008F43DC09CE7980F9037AA
:1037700080F78F770E94C61449C00E5F1F4FFE016D
:10378000849190E2980F983060F48770FE2D01C00C
:10379000FF0F8A95EAF78F2F0E94021E0E94A71D35
:1037A00002C00E94EB138F2D815030F2EFE9FFE051
:1037B0003197F1F700C00000F7CF0E5F1F4FFE01F9
:1037C000849190E2980F983050F48770FE2D01C0DC
:1037D000FF0F8A95EAF78F2F0E94081EDFCF0E9405
:1037E000C614E1CF0E5F1F4FFE01C491C150D8F245
:1037F0008FE99FE00197F1F700C00000F7CF0E5F5F
:103800001F4FFE01F490CFCF0E94EB138E01CBCF60
:1038100008950E94081C60932302709324028093F1
:103820002502909326020C94DB1708950C94091C32
:103830000F931F93009123021091240220912502DF
:1038400030912602602B712B822B932B1F910F91AD
:103850000C94091C0F931F930091230210912402D2
:103860002091250230912602602371238223932325
:103870001F910F910C94091C0F931F930091230229
:103880001091240220912502309126026027712791
:10389000822793271F910F910C94091C0C94081CEC
:1038A0000C944E1C0E94501C60931F0270932002C7
:1038B00080932102909322020C94DB1760E070E069
:1038C000CB010C94521C0F931F9341E050E060E039
:1038D00070E08A019B0104C0000F111F221F331FDB
:1038E0008A95D2F7C901B8011F910F910C94521C0F
:1038F0000F931F9341E050E060E070E004C0440F7C
:10390000551F661F771F8A95D2F780911F029091ED
:103910002002A0912102B09122028A019B01082B72
:10392000192B2A2B3B2BC901B8011F910F910C9425
:10393000521C0F931F9341E050E060E070E004C020
:10394000440F551F661F771F8A95D2F7CB01BA0126
:10395000609570958095909500911F0210912002BE
:10396000209121023091220260237123822393232C
:103970001F910F910C94521C0F931F9341E050E044
:1039800060E070E004C0440F551F661F771F8A95E2
:10399000D2F780911F0290912002A0912102B09154
:1039A00022028A019B01082719272A273B27C901E0
:1039B000B8011F910F910C94521C0F931F9300910B
:1039C0001F02109120022091210230912202602BCF
:1039D000712B822B932B1F910F910C94521C0F93E0
:1039E0001F9300911F02109120022091210230911B
:1039F000220260237123822393231F910F910C9441
:103A0000521C0F931F9300911F02109120022091CE
:103A100021023091220260277127822793271F916C
:103A20000F910C94521C0895BF92CF92DF92EF92A7
:103A3000FF920F931F93CF93DF938C01C0901F02CF
:103A4000D0902002E0902102F09022028091230287
:103A500090912402A0912502B0912602C82AD92A69
:103A6000EA2AFB2ACFE1D0E0BC2ED701C6010C2EFA
:103A700004C0B695A795979587950A94D2F780FDCF
:103A80000EC0219788F7B12C8B2DDF91CF911F911C
:103A90000F91FF90EF90DF90CF90BF900895B80105
:103AA0008C2F0E94D30E019761F3EECFCF93DF935B
:103AB000EC010E94141DBE01DF91CF910C94D30E36
:103AC000CB010C94561D682F8091520190915301A7
:103AD0000C948B1E682F80915201909153010C948D
:103AE0008D1E80915201909153010C948F1E8091F4
:103AF0002702859585958595089580912702877081
:103B0000089598E0899F90011124622B6093270209
:103B10000C94781C9091270280958923809327022A
:103B2000282F277061F4282F082E000C330B9217D2
:103B3000130629F08595859585950C94991C089513
:103B400090912702977081E009F480E00895E09158
:103B50005201F0915301809133028083E091520130
:103B6000F0915301808190913202892B8083E09102
:103B70005201F0915301808190913102892B808311
:103B800090912802992381F0E0915201F091530124
:103B90008081892B808380915201909153010E94F2
:103BA000571E811110922802809152019091530169
:103BB0000C94C61280913302089590913302892BA0
:103BC000809333020895982F909580913302892332
:103BD0008093330208951092330208958091320247
:103BE000089590913202892B809332020895982F84
:103BF0009095809132028923809332020895109229
:103C00003202089590913102892B809331020895F8
:103C1000982F9095809131028923809331020895E5
:103C2000109231020895809328020895109228027C
:103C300008958091280208956DEE7EEF90E080E077
:103C40000E94EB2A60E082E090E00E94D92A60E0C6
:103C500083E090E00E94D92A60E084E090E00E9436
:103C6000D92A60E085E090E00C94D92A90E080E0C9
:103C70000E94D32A21E08D3E9E4F09F020E0822F42
:103C8000089582E090E00C94CB2A83E090E00C94BD
:103C9000CB2A682F83E090E00C94D92A84E090E04E
:103CA0000C94CB2A682F84E090E00C94D92AFC0174
:103CB00031969C01285F3F4F80E0919191118F5F79
:103CC000E217F307D1F708959C01FC0132969FEFAC
:103CD00080E04191461751F09F3F19F4411101C016
:103CE000982F8F5F8630A9F79F3F09F40895290F19
:103CF000311D97FD3A95F90162830895FC013296D2
:103D000008962191261303C0DF0111971C92E81732
:103D1000F907B9F708950C94641E0C947E1EFC01FB
:103D200011821282138214821582168217820895DC
:103D300080915802843039F11092350288E190E088
:103D400020E40FB6F894A895809360000FBE2093EE
:103D5000600080E00E94B40E83B7817F846083BFDF
:103D600083B7816083BF7894889583B78E7F83BF44
:103D70000FB6F894A89580916000886180936000E8
:103D8000109260000FBE089508950895CF930E9489
:103D9000C41E0E9496090E94C51EC0E08C2F0E947E
:103DA000D609811105C0CF5FCE30C1F7CF910895FC
:103DB00081E0FCCF0E94EF170E94BA120C94B40E5F
:103DC0001F920F920FB60F9211248F939F93AF9370
:103DD000BF9380913502811113C080914E02909162
:103DE0004F02A0915002B09151024196A11DB11D08
:103DF00080934E0290934F02A0935002B0935102D1
:103E0000BF91AF919F918F910F900FBE0F901F9018
:103E1000189582E084BD93E095BD9AEF97BD80939D
:103E20006E0008952FB7F89480914E0290914F0242
:103E3000A0915002B09151022FBF0895CF92DF920E
:103E4000EF92FF920F931F932FB7F89440914E0279
:103E500050914F0260915002709151022FBF6A0140
:103E60007B01EE24FF248C0130E020E0C016D10657
:103E7000E206F30650F0481B590BCA011F910F913F
:103E8000FF90EF90DF90CF90089541505109F3CF0C
:103E900078941F920F920FB60F9211248F939F93D5
:103EA000AF93BF9380914E0290914F02A091500228
:103EB000B09151020196A11DB11D80934E029093C5
:103EC0004F02A0935002B0935102BF91AF919F91C6
:103ED0008F910F900FBE0F901F90189587E797E76F
:103EE000909301088093000888E19AE00FB6F89457
:103EF000A895809360000FBE90936000FFCF0E9452
:103F0000361E811102C00E941C1E0E94411E809319
:103F100034020E944E1E90E090935302809352020E
:103F20000E94451E682F70E090E080E00C94161C03
:103F30008091380280FF12C06091570185E0689F30
:103F4000B001112475956795759567956038710571
:103F5000A8F561157105A1F1862F089581FF09C0AB
:103F60006091570185E0689FB001112475956795B0
:103F7000EDCF82FF07C06091570185E0689FB001D7
:103F80001124E4CF209139022223A9F09091560107
:103F90006091570185E0689FB00111242917B0F6A0
:103FA000269FA001279F500D1124692F70E0CA01A0
:103FB0000E949D2ACBCF65E070E0CECF8FE70895B9
:103FC00081E008958091380280FF0CC06091550116
:103FD00070E075956795759567956115710549F15F
:103FE000862F089581FF06C06091550170E0759598
:103FF0006795F3CF6091550182FD0BC09091390216
:104000009923A1F06091540180915501961738F0E1
:10401000682F70E06038710500F38FE70895899F7D
:10402000C001112470E00E949D2AF4CF61E070E08D
:10403000D7CF81E00895803F31F40E94981F819589
:1040400080933C020895813F19F40E94981FF8CF95
:10405000823F31F40E94981F819580933B0208951E
:10406000833F19F40E94981FF8CF893F29F40E94DA
:10407000E21F80933D0208958A3F21F40E94E21FCF
:104080008195F7CF8B3F31F40E94E21F8195809399
:104090003E0208958C3F19F40E94E21FF8CF843F3E
:1040A00031F480913A02816080933A020895853F0D
:1040B00021F480913A028260F7CF863F21F480910B
:1040C0003A028460F1CF873F21F480913A02886000
:1040D000EBCF883F21F480913A028061E5CF8D3F9C
:1040E00031F48091380281608093380208958E3FC8
:1040F00021F4809138028260F7CF8F3FB9F7809129
:1041000038028460F1CF803FC1F480913C0287FD8A
:1041100010923C0280913B0281110EC080913C02C2
:1041200081110AC080913D02811106C080913E023A
:10413000811102C0109239020895813F29F48091C3
:104140003C0218162CF3E6CF90913B02823F29F4F3
:1041500097FFE0CF10923B02DDCF833F19F4191691
:10416000CCF3D8CF893F39F480913D02181694F6EC
:1041700010923D02CFCF8A3F29F480913D0287FF04
:10418000C9CFF6CF8B3F39F480913E0287FFC2CF73
:1041900010923E02BFCF8C3F29F480913E02181648
:1041A000BCF3B8CF843F31F480913A028E7F809384
:1041B0003A02B0CF853F21F480913A028D7FF7CF4C
:1041C000863F21F480913A028B7FF1CF873F21F423
:1041D00080913A02877FEBCF883F21F480913A02A9
:1041E0008F7EE5CF8D3F31F4809138028E7F8093B2
:1041F000380290CF8E3F21F4809138028D7FF7CF27
:104200008F3F09F087CF809138028B7FF0CF8AE310
:1042100092E00E94D1120E94121F90933702809365
:10422000360208951F93CF93DF93809136029091C9
:1042300037020E941E1FAC01909139022091580153
:1042400030E0911106C0209159018AE0289F900129
:1042500011244217530780F080913B0210913C02D9
:10426000D0913D02C0913E0281110AC0111161C07E
:10427000D1115FC0C1115DC0DF91CF911F91089531
:104280009F3F19F09F5F90933902181624F40E9403
:10429000981F80933B0280913B0287FF05C00E94DC
:1042A000981F819580933B02111624F40E94981F59
:1042B00080933C0280913C0287FF05C00E94981FBA
:1042C000819580933C0240913B02442379F03091E8
:1042D0003C02332359F025EB4203A00111245093F3
:1042E0003B0232039001112430933C021D1624F44A
:1042F0000E94E21F80933D0280913D0287FF05C02E
:104300000E94E21F819580933D021C1624F40E94B6
:10431000E21F80933E0280913E0287FF05C00E940B
:10432000E21F819580933E02DF91CF911F910C9403
:1043300007219F3F09F0A6CFB7CF85E0EAE3F2E07F
:10434000DF011D928A95E9F7109239021092380226
:104350000895833081F128F4813059F08230D1F012
:104360000895853009F449C0B8F1863009F456C083
:10437000089580915901482F460F5527551F4F3FEB
:10438000510524F4680F6093590108958FEF8093CD
:104390005901089580915801482F460F5527551F00
:1043A0004F3F510524F4680F6093580108958FEF33
:1043B00080935801089580915701482F460F552743
:1043C000551F4F3F510524F4680F6093570108951E
:1043D0008FEF80935701089580915601482F460F23
:1043E0005527551F4F3F510524F4680F6093560120
:1043F00008958FEF80935601089580915501482FBD
:10440000460F5527551F4F3F510524F4680F609301
:10441000550108958FEF80935501089580915401BF
:10442000482F460F5527551F4F3F510524F4680F5D
:104430006093540108958FEF809354010895833061
:1044400011F128F4813049F0823091F008958530DF
:1044500081F120F18630C1F10895809159016817EA
:1044600020F4861B809359010895109259010895F4
:1044700080915801681720F4861B80935801089595
:1044800010925801089580915701681720F4861BF7
:104490008093570108951092570108958091560115
:1044A000681720F4861B80935601089510925601D8
:1044B000089580915501681720F4861B809355015B
:1044C000089510925501089580915401681720F4C1
:1044D000861B8093540108951092540108950F9300
:1044E0001F9341E050E060E070E08A019B0104C04E
:1044F000000F111F221F331F8A95D2F7C901B8017F
:104500000E94161C1F910F910C94EF178732A8F58B
:104510008E3108F07BC08E3009F46DC058F48730BE
:1045200009F45AC08B3009F44BC0863009F44AC0F4
:1045300080E00895863109F443C068F48031C1F702
:1045400090913402892F877F93FF88608093340293
:1045500083FD0FC035C0893199F18B3149F79091B6
:104560003402892F8D7F91FF82608093340281FF16
:1045700027C08091340281603BC0883309F150F438
:10458000893221F0853311F0873291F680E00E9464
:104590006F2216C08334D1F320F48A3348F2895352
:1045A000F6CF883429F60E94EF172FEF83ED90E3C2
:1045B000215080409040E1F700C000000E946E1F33
:1045C00081E0089580913402817F8E7F8093340250
:1045D00081E080934002089590913402892F8E7F6C
:1045E00090FF81608093340280FDEACF897F877FCE
:1045F00080933402E5CF90913402892F8B7F92FF14
:1046000084608093340282FDB4CFDACF8D51BFCF66
:1046100080E008950C9408238E518A3030F4E82FFE
:10462000F0E0E758FE4F8081089580E00895CF9331
:10463000C82F809140028130C9F030F08230D9F12A
:104640001092400280E010C0E0915201F0915301BD
:1046500080818232B9F78C2F0E94082381111BC000
:104660008C2F0E9486228170CF910895E091520193
:10467000F09153018081823271F38C2F0E940A23C2
:10468000811110C0C43181F048F4CB3059F0C031F1
:1046900071F080E0E8CF81E090E0E5CFC93221F011
:1046A000C833B9F781E0DFCF10924002F2CF82E049
:1046B00080934002F7CFC93219F188F4C43101F177
:1046C00020F4C73081F181E0CFCF82EE8C0F8630AD
:1046D000D0F78C2F0E940C2380933F02F4CFCE346E
:1046E00001F140F46AE0CB3471F780913F020E94FF
:1046F000A921E9CFC13579F061E0C235B1F3E3CF4B
:1047000080913F02882319F010923F02DCCF81E0B4
:1047100080934002A9CF61E080913F020E941F2256
:10472000D2CF6AE0F9CF8EE18093590182E3809382
:1047300058018AE08093570184E18093560188E014
:104740008093550188E280935401BDCF8091490246
:1047500008950F931F93CF93DF9300D01F92CDB78F
:10476000DEB78C010E94EE25823011F0843019F5FD
:1047700083E089831B830A838093E9008FEF909104
:10478000E800815095FD06C095ED9A95F1F700007F
:104790008111F5CF8091E80085FF0DC050E040E029
:1047A00063E070E0CE0101960E940B268091E80044
:1047B0008E778093E8000F900F900F90DF91CF914C
:1047C0001F910F910895CF93DF9300D01F92CDB723
:1047D000DEB720915802243031F522E02983805839
:1047E00091099B838A8383E08093E9008FEF909106
:1047F000E800815095FD06C095ED9A95F1F700000F
:104800008111F5CF8091E80085FF0DC050E040E0B8
:1048100063E070E0CE0101960E940B268091E800D3
:104820008E778093E8000F900F900F90DF91CF91DB
:104830000895CF93DF93EC010E94EE25823011F0B2
:104840008430F9F482E08093E9008FEF9091E800E2
:10485000815095FD06C095ED9A95F1F70000811104
:10486000F5CF8091E80085FF0CC050E040E065E0A6
:1048700070E0CE010E940B268091E8008E77809335
:10488000E800DF91CF910895CF93DF93EC010E9470
:10489000EE25823011F0843039F581E08093E90013
:1048A0008FEF9091E800815095FD06C095ED9A95A7
:1048B000F1F700008111F5CF8091E80085FF14C069
:1048C00050E040E068E070E0CE010E940B2680914D
:1048D000E8008E778093E80088E0FE01A1E4B2E072
:1048E00001900D928A95E1F7DF91CF910895809123
:1048F0005702811109C00E949B270E94F8278091CE
:10490000E20084608093E2000895109257020895B7
:10491000089508950C94DA1E42E061EC81E00E9453
:10492000192742E061EC82E00E94192742E061EC25
:1049300083E00C94192780915A02833009F452C005
:1049400030F4813059F1823009F48EC008958A30F4
:1049500009F47AC08B3009F460C0893009F041C095
:10496000809159028132E9F580915D0290915E0259
:10497000892BB9F58091E800877F8093E8008091CA
:10498000E80082FF2AC08091F10080934902809163
:10499000E8008B778093E8000C944D2780915902B2
:1049A000813AF9F48091E800877F8093E800809154
:1049B0005D0290915E02892B61F468E081E492E0EF
:1049C00070E00E945A268091E8008B778093E8007F
:1049D000089560E090E080E0F3CF8091580281116B
:1049E000CECF089580915902813AD9F780915D0226
:1049F00090915E02892BA9F78091E800877F8093D0
:104A0000E8008091E80080FFFCCF809164018093F2
:104A1000F1008091E8008E77BDCF809159028132FC
:104A200001F780915D0290915E02892BD1F6809111
:104A3000E800877F8093E8000E944D2780915B0209
:104A4000809364010C94EF1780915902813249F6EA
:104A50008091E800877F8093E8000E944D27809135
:104A60005C0280934A02089580915902813A09F0CC
:104A7000B8CF8091E800877F8093E8008091E800BC
:104A800080FFFCCF80914A02C2CF84B7877F84BF6A
:104A90000FB6F894A89580916000886180936000BB
:104AA000109260000FBE80E8809361001092610058
:104AB0000E9408130E949B270E94F8278091E20021
:104AC00084608093E20078940E94812A0E940C13F3
:104AD0008AE591E00E94B51280915802853019F064
:104AE0000E941213F9CF0E94981E809156028823CB
:104AF00099F30E94C61E882379F30E94F525ECCF16
:104B00000C948225292F33272330310579F158F46D
:104B100021303105F1F02230310519F190E080E0CB
:104B200030E020E01AC021323105C9F122323105CE
:104B3000A9F76330710590F7FB01EE0FFF1FEA57ED
:104B4000FE4F208131816D577E4FFB01808190E0C7
:104B500004C082E190E026E83FE0FA01318320833F
:104B6000089584E590E022E33FE0F7CF9927813074
:104B7000910579F040F08230910571F0039771F65C
:104B8000E0E0FFE002C0EEE2FFE0849190E09F01F0
:104B9000E4CFE6E1FFE0F9CFE6E0FFE0F6CF6330F7
:104BA000710508F0BBCF660F771FFB01E457FE4F7E
:104BB0002081318189E090E0D0CF0895CF93C82F34
:104BC0000E94DD25C0934B02CF9108958091580239
:104BD000843011F081E0089582E0089580914B02C5
:104BE000811102C00C94E625089580E189BD82E11F
:104BF00089BD09B400FEFDCF8091D8008F7D8093E0
:104C0000D8008091E00082608093E0008091E00015
:104C100081FDFCCF0895AF92BF92CF92DF92FF92B9
:104C20000F931F93CF93DF936C01EB018A010E94D6
:104C30006C27F82E811123C00115110539F0F801F8
:104C400080819181C81BD90BC80ED91EB12CA12C13
:104C50002097A9F08091E80085FD22C08091E800AE
:104C60008E778093E80001151105A1F0F80180818D
:104C70009181A80EB91EB182A08285E0F82E8F2DF9
:104C8000DF91CF911F910F91FF90DF90CF90BF9058
:104C9000AF9008950E946C278823D1F2F82EEFCFB1
:104CA000F60181916F018093F1002197FFEFAF1A18
:104CB000BF0ACECFFC0180915F02909160028617FF
:104CC0009707A0F06115710529F49091E8009E778F
:104CD0009093E80090E06115710551F4911108C0BE
:104CE0008091E80082FF35C080E00895BC01F2CFDA
:104CF000809158028823C9F18530C9F18091E8007C
:104D000083FD31C08091E80082FDEACF8091E80008
:104D100080FFE1CF2091F3008091F200322F282F05
:104D20006115710519F02830310558F091E02830EF
:104D3000310509F090E02091E8002E772093E800FB
:104D4000CACF81918093F100615071092F5F3F4F6D
:104D5000E7CF80915802882341F0853041F080915F
:104D6000E80083FFBDCF81E0089582E0089583E0ED
:104D70000895FC0180915F02909160028617970769
:104D8000A0F06115710529F48091E8008E77809379
:104D9000E80090E06115710551F4911108C080910F
:104DA000E80082FF36C080E00895BC01F2CF809118
:104DB00058028823D1F18530D1F18091E80083FD3C
:104DC00032C08091E80082FDEACF8091E80080FF48
:104DD000E1CF2091F3008091F200322F282F61154E
:104DE000710519F02830310558F091E0283031056F
:104DF00009F090E08091E8008E778093E800CACFB8
:104E000084918093F1003196615071092F5F3F4F7B
:104E1000E6CF80915802882341F0853041F080919F
:104E2000E80083FFBCCF81E0089582E0089583E02D
:104E30000895982F973028F08F708093E90081E0D3
:104E400008959093E900242F762F50E0981731F0C1
:104E50007091EC002091ED005091F00021FD02C016
:104E60009F5FE8CF3091EB003E7F3093EB003091B5
:104E7000ED003D7F3093ED003091EB0031603093D9
:104E8000EB007093EC002093ED005093F000209124
:104E9000EE0027FDE5CF80E008958091590287FF5D
:104EA00013C08091E80082FF06C08091E8008B77F4
:104EB0008093E80004C0809158028111F2CF0895D8
:104EC000809158028823D9F38091E80080FFF8CFC1
:104ED0008091E8008E77ECCF2091E4003091E500DE
:104EE00085E69091EC0090FF06C09091E80090FF5D
:104EF00006C080E008959091E80092FDFACF90916D
:104F00005802992391F0953091F09091EB0095FD26
:104F100010C04091E4005091E5002417350709F3D3
:104F200081509A01F1F684E0089582E0089583E0CB
:104F3000089581E008950E9409280E941128E0EE5A
:104F4000F0E0808181608083E8EDF0E080818F7700
:104F5000808319BCA7EDB0E08C918E7F8C9380810B
:104F60008F7E80831092570208950F931F93CF93E3
:104F7000DF930E9409280E941128C8EDD0E08881A3
:104F80008F77888388818068888388818F7D8883F4
:104F900019BC1092580210925402109256021092AC
:104FA000550200EE10E0F80180818B7F80838881BC
:104FB0008160888342E060E080E00E941927E1EE92
:104FC000F0E080818E7F8083E2EEF0E0808181607E
:104FD0008083808188608083F80180818E7F8083D8
:104FE000888180618883DF91CF911F910F9108950F
:104FF000E8EDF0E080818F7E8083E7EDF0E0808156
:105000008160808384E082BF81E0809357020C94AA
:10501000B527E8EDF0E080818E7F80831092E2007A
:1050200008951092DA001092E10008951F920F92F5
:105030000FB60F9211242F933F934F935F936F936B
:105040007F938F939F93AF93BF93EF93FF93809141
:10505000E10082FF0BC08091E20082FF07C08091D7
:10506000E1008B7F8093E1000E94802A8091DA002A
:1050700080FF19C08091D80080FF15C08091DA00B0
:105080008E7F8093DA008091D90080FF94C080E108
:1050900089BD82E189BD09B400FEFDCF81E0809326
:1050A00058020E9477248091E10080FF19C080910E
:1050B000E20080FF15C08091E2008E7F8093E200C5
:1050C0008091E20080618093E2008091D80080624C
:1050D0008093D80019BC85E0809358020E948924EF
:1050E0008091E10084FF29C08091E20084FF25C007
:1050F00080E189BD82E189BD09B400FEFDCF8091C8
:10510000D8008F7D8093D8008091E1008F7E8093BE
:10511000E1008091E2008F7E8093E2008091E200C6
:1051200081608093E20080915402882309F449C091
:1051300084E0809358020E948A248091E10083FFDA
:1051400029C08091E20083FF25C08091E100877F24
:105150008093E10082E08093580210925402809183
:10516000E1008E7F8093E1008091E2008E7F80934A
:10517000E2008091E20080618093E20042E060E022
:1051800080E00E9419278091F00088608093F000F1
:105190000E948824FF91EF91BF91AF919F918F91D1
:1051A0007F916F915F914F913F912F910F900FBE23
:1051B0000F901F90189519BC109258020E948524D8
:1051C00072CF8091E30087FD02C081E0B2CF83E01F
:1051D000B0CF1F920F920FB60F9211242F933F93CF
:1051E0004F935F936F937F938F939F93AF93BF93EF
:1051F000CF93EF93FF93C091E900CF708091EC00C3
:105200001092E9008091F000877F8093F0007894FD
:105210000E9425291092E9008091F0008860809317
:10522000F000C093E900FF91EF91CF91BF91AF9152
:105230009F918F917F916F915F914F913F912F91AE
:105240000F900FBE0F901F9018951F93CF93DF9371
:10525000CDB7DEB7AA970FB6F894DEBF0FBECDBFAD
:10526000E9E5F2E08091F100819322E0E136F20776
:10527000C9F70E949B248091E80083FF44C080917D
:10528000590290915A029A3008F03DC0E92FF0E09F
:10529000E45BF64D0C94B12A56297C2983297C299C
:1052A0008329DA29FC298329532A602A803889F046
:1052B000823849F580915D028F70873020F58093A8
:1052C000E9008091EB0085FB882780F91092E900C6
:1052D00006C0809155029091560291118260909182
:1052E000E800977F9093E8008093F1001092F1001E
:1052F0008091E8008E772DC0282F2D7F21F4882300
:10530000D1F0823059F18091E80083FF0AC080918A
:10531000E800877F8093E8008091EB0080628093B3
:10532000EB00AA960FB6F894DEBF0FBECDBFDF919B
:10533000CF911F91089580915B02813021F79330C6
:1053400009F080E0809356021092E9008091E80015
:10535000877F8093E8000E944D27D5CF80915B0224
:105360008111F2CF80915D028F702FEF280F2630D0
:1053700050F68093E9002091EB0020FFE5CF9330B9
:1053800031F48091EB0080628093EB00DDCF90914F
:10539000EB0090619093EB0021E030E001C0220F20
:1053A0008A95EAF72093EA001092EA008091EB00D8
:1053B0008860EACF8111A7CF10915B021F7780919F
:1053C000E3008078812B8093E3008091E800877F61
:1053D0008093E8000E944D278091E80080FFFCCF79
:1053E0008091E30080688093E30083E0111101C0A5
:1053F00082E08093580287CF8058823008F083CFB4
:1054000080915B0290915C028C3D23E09207A1F5B4
:1054100083E08A838AE289834FB7F894DE0113968A
:1054200020E03EE051E2E32FF0E050935700E4919A
:1054300020FF03C0E295EF703F5FEF708E2F90E08A
:10544000EA30C0F0C7968D939D932F5F243159F7B2
:105450004FBF8091E800877F8093E8006AE270E0A8
:10546000CE0101960E945A268091E8008B778093A6
:10547000E80049CFC096E7CF60915D0270915E026F
:10548000AE014F5F5F4F0E948025BC01892B09F45C
:105490003ACF9091E800977F9093E80089819A81B4
:1054A0000E94B926E1CF803809F02DCF8091E80025
:1054B000877F8093E800809154028093F10018CF99
:1054C000811121CF90915B02923008F01CCF809126
:1054D000E800877F8093E800909354020E944D2754
:1054E00080915402882331F084E0809358020E9416
:1054F0008C2409CF8091E30087FDF6CF81E0F5CFC2
:105500000895CF9380915802882399F0C091E900C3
:10551000CF708091EC0080FD0EC080E0C82B10920F
:10552000E9008091E80083FD0E942529CF70C09397
:10553000E900CF91089580E8F1CF97FB072E16F48C
:10554000009407D077FD09D00E94B72A07FC05D048
:105550003EF4909581959F4F0895709561957F4F8A
:105560000895EE0FFF1F0590F491E02D0994AA1BFA
:10557000BB1B51E107C0AA1FBB1FA617B70710F03E
:10558000A61BB70B881F991F5A95A9F78095909570
:10559000BC01CD010895F999FECF92BD81BDF89A65
:1055A000992780B50895A8E1B0E042E050E00C945E
:1055B000F32A262FF999FECF92BD81BDF89A019763
:1055C00000B4021639F01FBA20BD0FB6F894FA9A4B
:1055D000F99A0FBE08950196272F0E94DA2A0C949B
:1055E000D92ADC01CB01FC01F999FECF06C0F2BD3E
:1055F000E1BDF89A319600B40D9241505040B8F791
:065600000895F894FFCFAD
:105606000100001A0B00000000000000000000006E
:10561600000000000000002A0B000000000000004F
:105626000000000000000000000000480B00000021
:105636000000000000000000000000000000003A2A
:105646000B00000000000000000000000000000049
:1056560000FF29022808140A321EA623442419240E
:10566600E323A923013534C697669436323331F7DE
:10567600F6F500000000000000010203040506071D
:10568600080900404D361B10CE0F980F440F5D0FD2
:02569600760F8D
:00000001FF
