:100000000C94E9060C943C090C942D070C942D07D4
:100010000C942D070C942D070C942D070C942D0790
:100020000C942D070C942D070C9446270C9418283B
:100030000C94FC1D0C942D070C942D070C942D078B
:100040000C942D070C942D070C942D070C942D0760
:100050000C942D070C94631E0C942D070C942D0703
:100060000C942D070C942D070C942D070C942D0740
:100070000C942D070C942D070C942D070C942D0730
:100080000C942D070C942D070C942D070C942D0720
:100090000C942D070C942D070C942D070C942D0710
:1000A0000C942D070C942D070C942D07600A650AFB
:1000B0006D0A750A7D0A820A9D0AE60AE60AE60AC0
:1000C000A20AAA0AB20AB70ABC0AC10AC80ADD0B08
:1000D000E30BE70BEA0BEE0BF20BF60BFA0BFF0B45
:1000E000030C070C0B0C0E0C120C160C1A0C1E0C2D
:1000F000230C86148614C014C014031525159416F9
:1001000094166B15941612161216881694169416D9
:100110008F161F161F161F161F161F161F161F16C7
:100120001F161F161F161F161F161F161F161F1627
:100130001F163116411648164F165916281728173C
:100140003B173B1731173B173B173B17281728174F
:1001500037173B173B1737177D28A4289229A42867
:100160009229EC280F2992296529742901E301E0DD
:10017000014F024F02E002E30001E301E0015002FF
:100180005002E002E30001E30115021574FF02E3EF
:1001900074FF010602060110021001070207012880
:1001A000022874FF01130213010C020C0111021149
:1001B000010A020A012C022C01E00119021902E0D5
:1001C0000001E30115021502E30106020601100217
:1001D00010010702070128022874FF74FF010C02B6
:1001E0000C01130213010602060112021201110290
:1001F0001101090209010C020C010A020A012C0278
:100200002C0138023801040204010F020F010F0211
:100210000F012802280001E30115021574FF02E313
:1002200074FF0106020601100210010702070128EF
:1002300002280001E0010402040106020602E000B7
:1002400001E00119021902E00001E00106020602C4
:10025000E000636D640128004143012800750A0134
:100260002B022B010C020C01110211012B022B019C
:10027000280228012B022B012B022B012B022B0120
:100280000C020C01110211012B022B012802280083
:10029000750A012B022B0112021201170217012B02
:1002A000022B01280228012B022B012B022B012BF0
:1002B000022B011D021D01150215012B022B012825
:1002C000022800750A012B022B01120212011302EF
:1002D00013012B022B01280228012B022B012B02D8
:1002E0002B012B022B011D021D01150215012B02F2
:1002F0002B01280228006970636F6E666967202FE2
:10030000616C6C00747300750A01270227010602F4
:1003100006012B022B012B022B01040204012B02EC
:100320002B00011B021B00750A01E00117021701D7
:100330001902190128022802E0007777772E7375D9
:1003400070706F72742E7865726F782E636F6D01A6
:100350002800617061657A40676F746F636F732EF8
:10036000636F6D0061646D696E012B313131310154
:10037000280001E3012B022B02E3002B4514001A95
:1003800000080015001700284004001600070009A7
:10039000000A00E1001D001B000600190005000016
:1003A00000000050004F002A00DD5C000000003516
:1003B000004600296100303100130012000C0018C3
:1003C000001C00280033000F000E000D000B00354C
:1003D0000038003700360010001100000000005106
:1003E0000052002C002800000000004D004A00DEF2
:1003F0005C4C002B4514001A00090013000A002869
:100400004004001500160017000700E1001D001B46
:10041000000600190005000000000050004F002AEF
:1004200000DD5C000000003500460029610030312D
:100430000033001C0018000F000D00280012000CF3
:1004400000080011000B003500380037003600109E
:10045000000E0000000000510052002C0028000097
:100460000000004D004A00DE5C4C002B00340036DA
:1004700000370013001C0029610400120008001856
:10048000000C00E100330014000D000E001B000002
:1004900000000050004F002A00DD5C000000003525
:1004A000004600296100302D000F00150006000AEB
:1004B00000090038001600110017000B0007002883
:1004C000401D0019001A0010000500000000005136
:1004D0000052002C002800000000004D004A00DE01
:1004E0005C4C00010001000330023001000F3001BC
:1004F00000063001000100010001000100010001BF
:10050000300100010001000000000050004F002AEF
:1005100000DD5C000000003500460029610030016C
:10052000000A301030010001000100010001000B41
:1005300030520001000100010001004F0051005045
:1005400000010000000000510052002C00280000B3
:100550000000004D004A00DE5C4C0025001E000338
:10056000301E001E001E0025001E001E001E001E64
:10057000001E0025001E001E001E001E001E0000A2
:1005800000000050004F002A00DD5C000000003534
:10059000004600296100300000560023002200219F
:1005A0000000000000570020001F001E0000000097
:1005B0000000003700270027000000000000005165
:1005C0000052002C002800000000004D004A00DE10
:1005D0005C4C0001002000200020002000200001D1
:1005E00000010052000100010001002961E200E366
:1005F000000357DD5C2A000000000050004F002A75
:1006000000DD5C000000003500460029610030017B
:100610000001000100010001000100010052000181
:10062000000100010001004F005100500034005251
:10063000002C0000000000510052002C0028000097
:100640000000004D004A00DE5C4C0000000000008D
:10065000000000000000000000000000000000009A
:10066000000000000000000000000000000000008A
:10067000000000000000000000000000000000007A
:10068000000000000000000000000000000000006A
:100AF00000000000000000000000000100DB5CDAE4
:100B00005CC15CC45CC35C0100DA5C01001D5C1E5E
:100B10005C135C01001E001E0001000100010000CA
:100B200000000001000100010001000000000001C0
:100B300000010001000100005C005CC75CC85CC5EE
:100B40005CC65C0100015CDC5CDB5CDA5C0A5C01BD
:100B5000000100010001000100010000000000DBB5
:100B60005C01000100010000000000010001000123
:100B700000010000000000000000002A2B280000F7
:100B8000000000000000000000000000000029003C
:100B90000000002C1E3420212224342627252E3646
:100BA0002D3738271E1F20212223242526333336B4
:100BB0002E37381F0405060708090A0B0C0D0E0F07
:100BC000101112131415161718191A1B1C1D2F318A
:100BD00030232D350405060708090A0B0C0D0E0FEE
:100BE000101112131415161718191A1B1C1D2F316A
:100BF00030354C0000000000000000000000000044
:100C000000000000000000000000000000000000E4
:100C100000000000010101010101000101010100CA
:100C200000000000000000000000000000010001C2
:100C300000010101010101010101010101010101A5
:100C40000101010101010101010101010101000096
:100C50000001010000000000000000000000000092
:100C60000000000000000000000000000000010182
:100C700001010004033000000012034D0061006E0A
:100C800000750066006F0072006D000000160343DF
:100C9000004800200062006F0078004D006F006483
:100CA000007300000004030904090254000301005A
:100CB000A0FA09040000010301010009211101004B
:100CC000012240000705810308000A090401000110
:100CD00003010200092111010001224D00070582D4
:100CE0000308000A090402000103000000092111A1
:100CF0000100012236000705830308000A120110D3
:100D00000100000008EDFE60300100010203010552
:100D1000010980A10185021601002603001A810045
:100D20002A8300751095018100C0050C0901A101FD
:100D30008503160100269C021A01002A9C027510E8
:100D400095018100C005010902A1010901A1000569
:100D500009190129051500250195057501810295DF
:100D600001750381010501093009311581257F9540
:100D7000027508810609381581257F95017508815E
:100D800006050C0A38021581257F95017508810634
:100D9000C0C005010906A101050719E029E71500F2
:100DA00025019508750181029501750881010508E5
:100DB00019012905950575019102950175039101A8
:100DC0000507190029FF150026FF00950675088103
:100DD00000C011241FBECFEFDAE0DEBFCDBF04B6E6
:100DE00003FE24C080914F0290915002A0915102C5
:100DF000B09152028730904BA740B04BB9F410929B
:100E00004F0210925002109251021092520214BEE0
:100E100084B7877F84BF88E10FB6F8948093600021
:100E2000109260000FBEE0E0F8E3099511E0A0E049
:100E3000B1E0ECE5F4E502C005900D92AE38B107E3
:100E4000D9F712E0AEE8B1E001C01D92AF34B107AE
:100E5000E1F70E9472240C942C2A0C9400000C944C
:100E6000EA0A809122028360886080932202ABE6C6
:100E7000B1E021E030E08D91E82FE295EF70F0E0F5
:100E800041A18F70B90102C0660F771F8A95E2F702
:100E9000CB01962F9095492341A392A1982B92A321
:100EA00071E0A037B70739F7A5E6B1E021E030E0FF
:100EB0008D91E82FE295EF70F0E041A18F70B901BC
:100EC00002C0660F771F8A95E2F7CB01962F9095A7
:100ED000492341A392A1982B92A371E0AB36B707A7
:100EE00039F7559A209AEEE8F1E0A9E9B1E01192BC
:100EF0001D9281E0E839F807D1F70C94AD0D2F92DF
:100F00003F924F925F926F927F928F929F92AF9299
:100F1000BF92CF92DF92EF92FF920F931F93CF93E6
:100F2000DF9380910001882319F000E010E002C0F7
:100F300005E010E09BE6E92E91E0F92EA801475666
:100F40005E4F6A01EA01AA24A394B12C662463943B
:100F500034E0732E4E0158801882D7012D917D0107
:100F6000E22FE295EF70F0E081A12F70A50102C0A1
:100F7000440F551F2A95E2F79A01842B81A382A181
:100F8000442E4094842182A350EA5A95F1F785E6D5
:100F9000282E81E0382E80E090E0D1015D911D0186
:100FA000652F62956F7070E0DB0190966C9178818F
:100FB0005F70D50102C0AA0FBB1F5A95E2F76A23E2
:100FC00039F44A2D082E01C0440F0A94EAF701C0F3
:100FD00040E0472B4883019686309105F1F681A1C8
:100FE000842181A382A1822B82A32196F401808196
:100FF000581659F06092A3010E942E1E9093A501ED
:101000008093A4018BB187258BB9F0E7EF16F1E04F
:10101000FF0609F09FCF8091A3018823D1F0809132
:10102000A4019091A5010E943A1E069790F080E0DD
:1010300090E002571E4FF801E80FF91FD601A80FE4
:10104000B91F2C912083019685309105A1F710924C
:10105000A30181E0DF91CF911F910F91FF90EF905D
:10106000DF90CF90BF90AF909F908F907F906F90C8
:101070005F904F903F902F900895CF93DF93809192
:101080000001882319F0C5E0D0E002C0C0E0D0E044
:101090000E94AE09009791F420E030E0C257DE4F85
:1010A000F901E855FE4F4081FE01E20FF31F408336
:1010B0002F5F3F4F2530310599F702C081E090E066
:1010C000DF91CF910895CF930E947F07C82F0E9490
:1010D0003D08892BF9F05D98909198019F5F90935E
:1010E00098019630D0F080910001882319F045E0F6
:1010F00050E002C040E050E020E030E042575E4F58
:10110000FA01E20FF31F10822F5F3F4F25303105A8
:10111000B9F703C05D9A109298010E94AF0D8C2F11
:10112000CF9108950E947F0780910001882319F0D4
:1011300020E030E002C025E030E080E090E022577F
:101140003E4FF901E80FF91F4081FC01E855FE4FC1
:101150004083019685309105A1F70895E82FF0E0CE
:10116000E257FE4F808108950895E8EDF0E0808118
:10117000806180838AE18A95F1F700C08091D9006F
:10118000817008958EE090E00E94F62991E081112F
:1011900001C090E0909300010E94B508882319F0E7
:1011A0000E942F0904C00E94251E0E9433097894D2
:1011B00008950E9431070E949208FDCF0E94C20844
:1011C0000E94B508811102C00E94D9080895509A62
:1011D00008955098589A0895589A08951F93CF9358
:1011E000DF93C82F0E94E70818E0D0E0115088F084
:1011F000CE01012E02C0959587950A94E2F780FFF3
:1012000003C00E94EC0801C0589880E88A95F1F765
:10121000EDCFDF91CF911F9108950E94E908489B7F
:10122000FECF80E88A95F1F708950E94E90898E0DA
:1012300080E029B12170880F822B20E82A95F1F7F0
:1012400025E02A95F1F70000915099F708950E9442
:10125000E708589880E88A95F1F70C94EC080E940A
:10126000E7080C94EC080E94E908E89AE9E6F0E047
:1012700080818C7F808308951F920F920FB60F920A
:101280001124CF92DF92FF920F931F932F933F93DE
:101290004F935F936F937F938F939F93AF93BF937E
:1012A000EF93FF93CF93DF931F92CDB7DEB70E94EA
:1012B0002709C12CD12CF12C860108551E4FF801AD
:1012C00080810E94EE080E942709F8018081F80EB3
:1012D000FFEFCF1ADF0A85E0C816D10469F78F2D1A
:1012E0000E94EE080E942709E0E8EA95F1F7F0E491
:1012F000FA95F1F70E9415098093A7010E9427092A
:101300001091A7010E94150989830E9427090E9454
:10131000E9088981181721F08091A601816003C036
:101320008091A6018E7F8093A6010F90DF91CF91CF
:10133000FF91EF91BF91AF919F918F917F916F91AD
:101340005F914F913F912F911F910F91FF90DF90EF
:10135000CF900F900FBE0F901F901895CF92DF92F5
:10136000FF920F931F93CF93DF931F92CDB7DEB7FA
:10137000F8940E94E708589885E08A95F1F70000F4
:101380000E94E9080E94EC08E0E8EA95F1F7489924
:1013900034C00E940D09C12CD12CF12C0E941509DA
:1013A000860108551E4FF80180830E940D09F8013F
:1013B0008081F80EFFEFCF1ADF0A85E0C816D1044E
:1013C00069F70E94150989830E940D098981F81225
:1013D00014C08091A7010E94EE080E940D0980911F
:1013E000A7010E94EE080E940D090E94E7080E94D2
:1013F000EC08789480E090E003C0789481E090E07D
:101400000F90DF91CF911F910F91FF90DF90CF90C0
:1014100008950C94E90AFC018081813019F489E473
:1014200092E007C0823019F480E492E002C083E3C6
:1014300092E00C94C61AFC018081813019F486E197
:1014400092E007C0823019F481EC91E002C086E896
:1014500091E00C94C61AFC018081813019F489E76F
:1014600091E004C0823021F48CE691E00C94C61A1D
:101470000895FC018081813029F488E30E94C6121E
:1014800088E304C081E30E94C61281E30C94D51363
:10149000CF93DF93EC010E945C1DBE0180E090E0E1
:1014A000DF91CF910C94561BDC01462F50E0413167
:1014B000510508F08BC04A5A5F4FFA010C94DC29A1
:1014C00012968C91129781116CC012968C91129782
:1014D000882319F084E693E061C012968C911297EC
:1014E000882319F082E593E059C012968C911297E7
:1014F000882319F08AE393E051C012968C911297D9
:10150000811152C012969C91129715968C91992335
:1015100051F0982F92959F7011F080FF57C083E093
:101520000E94B11B53C0982F92959F7011F080FFBD
:101530003EC083E00E94CC1B49C012968C9112974A
:10154000811138C012968C911297882319F084E08B
:1015500093E024C012968C911297882319F086EF9D
:1015600092E01CC012968C911297811126C012969F
:101570008C911297811124C012968C91129781112F
:1015800022C012968C91882309F188E592E006C06A
:1015900012968C9181111AC082E592E00E94380D5A
:1015A00015C082E793E0089587E293E0089582E210
:1015B00093E0089587E093E0089583EC92E0089526
:1015C00080E992E008958DE592E0089580E090E052
:1015D000089508950895CF93FB018C3D2CE5920763
:1015E00001F140F48A3D2CE5920799F08B3D9C4532
:1015F00051F03FC08E3D2CE59207E1F0C0F0803EF7
:101600009C4561F136C0C281CC23A1F182E090E01B
:1016100005C0C281CC2371F181E090E00E94480AAC
:1016200023C0C281CC2331F184E090E0F7CFC281A6
:1016300083E002C0C28184E0CC2341F00E94B11B50
:1016400040E164E083E00E949B0D0EC00E94CC1B31
:1016500040E164E083E00E949B0D0CC0C28180E108
:10166000CC2321F00E94B11BC0E004C00E94CC1B1F
:1016700001C0C1E08C2FCF91089581E008950C94B2
:10168000EB0A0E9416172FEF84E39CE02150804064
:101690009040E1F700C0000087E797E790930108CA
:1016A000809300080C94891E0F931F93CF93DF93B0
:1016B0008C01FC01C081D181CE010E943D1CBE0184
:1016C0000E94B90DEC01B8010E94B610B801CE011C
:1016D0000E943F0B882309F46CC1B801CE010E941F
:1016E000F710882309F465C1B801CE010E941A10D1
:1016F000882309F45EC1C531FCE5DF0729F50E94A6
:10170000F01C382FF80122818091520190915301F1
:10171000222371F03A7A21E009F420E02093AD0110
:10172000222311F065E301C069E20E94A61D09C0F1
:101730002091AD01222311F065E301C069E20E940E
:10174000A81D0E94BD1C35C1C6318CE5D80708F024
:10175000A3C0C130ECE5DE0759F4F801828188238B
:1017600009F427C18091220281608093220221C165
:10177000C230FCE5DF0708F478C0F80182818823D5
:1017800009F47BC00E94491D811102C00E942F1DD7
:101790000E94611D90E09093410280934002FE01FF
:1017A000E350FC45E231F10520F4E959FF4F0C9478
:1017B000DC2980914002816003C0809140028260F8
:1017C000809340024BC0809140028460F9CF8091A9
:1017D000400213C0809140028061F2CF80914002AC
:1017E0008062EECF809140028064EACF8091400217
:1017F0008068E6CF8091400284608860E1CF80916C
:1018000040028E7FDDCF809140028D7FD9CF8091C5
:1018100040028B7FD5CF8091400213C0809140025F
:101820008F7ECECF809140028F7DCACF80914002C3
:101830008F7BC6CF809140028F77C2CF80914002CC
:101840008B7F877FBDCF9091400297FB882780F9DF
:1018500021E0822780FB97F990934002809140021B
:101860000E94651D0E941617A4C0C115DC4561F0D9
:1018700081E08093B2018093B301C801DF91CF91E1
:101880001F910F910C943D0BF8018281882309F47C
:1018900090C00E94410B8DC0C53DECE5DE0759F5B7
:1018A000F8018281882361F01092B3010E942E1EFC
:1018B0009093B1018093B00180E20E94361479C008
:1018C0008091B301882321F080E20E943D1471C011
:1018D0008091B0019091B1010E943A1E8639910524
:1018E00098F780E20E943D1488E20E94C61288E2C6
:1018F0000E94D5135EC0C63DFCE5DF0708F044C07A
:10190000C33D8CE5D80719F5F8018281882351F091
:101910001092B2010E942E1E9093AF018093AE01EF
:1019200082E0CBCF8091B20181110FC08091AE01D6
:101930009091AF010E943A1E8639910530F486E2FB
:101940000E94C61286E20E94D51382E0BECFC43D3B
:10195000DC4509F08DCFF80182818111A5CF8091FE
:10196000B3018111B1CF8091B0019091B1010E947A
:101970003A1E8639910508F0A7CF87E20E94C61269
:1019800087E20E94D513A0CFC83DFCE5DF0731F404
:10199000F8018281882369F080E009C0C93DDC45F7
:1019A00009F066CFF8018281882319F082E00E9455
:1019B0000C2580E0DF91CF911F910F910895CF9377
:1019C000282F30E0F901ED58F44FC491F901ED50A2
:1019D000F44F2491222359F081EE0E94C6128C2FDD
:1019E0000E94C6128C2F0E94D51381EE04C08C2F4A
:1019F0000E94C6128C2FCF910C94D5130F931F9376
:101A0000CF93DF93EC01062FFE018491882359F1D7
:101A10009E012F5F3F4F813041F4E901F90114919C
:101A2000812F0E94C612812F0DC0823031F4E9014E
:101A3000F90184910E94C6120AC0833031F4E90191
:101A4000F90184910E94D51302C00E94DF0C2196F7
:101A5000802F8823C9F2EFE9FFE03197F1F700C04A
:101A600000008150F6CFDF91CF911F910F91089523
:101A700060E00C94FE0C4F925F926F927F928F9277
:101A80009F92AF92BF92CF92DF92EF92FF920F930D
:101A90001F932B013C01C12CD12C7601C394D7019B
:101AA000C60104C0880F991FAA1FBB1F4A95D2F711
:101AB000AC01BD014601570104C0880C991CAA1C49
:101AC000BB1C2A95D2F7482959296A297B29D701B5
:101AD000C60104C0880F991FAA1FBB1F0A95D2F721
:101AE0006A017B01C420D520E620F720C416D50664
:101AF000E606F70639F4BC01CD016429752986296B
:101B000097290AC0BC01CD0160957095809590958C
:101B100064217521862197211F910F91FF90EF90ED
:101B2000DF90CF90BF90AF909F908F907F906F90FD
:101B30005F904F9008950F93382F262F60910D02DC
:101B400070910E0280910F0290911002042F432F8A
:101B50000E943B0D0F910C94911B0C94090A0E945A
:101B60004E110C942F0708950C94B30D0C94B40DE2
:101B7000089596E0799FF00111249CE3899FE00D80
:101B8000F11D1124E60FF11DEE0FFF1FE558FC4F6C
:101B9000859194910895880F991F8D58934FFC015A
:101BA000859194910895CF93DF930E94B90D0E947F
:101BB0007A0FEC01811520E5920708F040C08115ED
:101BC00030E4930708F01BC1883E910508F5803E7C
:101BD000910508F08BC1883A910578F4853A910512
:101BE00008F09DC08130910509F480C108F437C127
:101BF0008430910508F07AC132C18D3B910508F41B
:101C000099C0803C910508F42AC1805C9109E9C023
:101C1000C11580E2D80758F4C11591E0D90708F042
:101C200065C1C03FD10508F41AC1D0655FC1C115B7
:101C300020E3D20708F0D9C0CE019F70D2C0811531
:101C400035E5930708F043C0C11584E5D80708F0CF
:101C5000EDC0C11592E5D90708F5C11521E5D207F8
:101C600008F0D0C02C2F237081E090E002C0880FD4
:101C7000991F2A95E2F79C689E01E4E03695279526
:101C8000EA95E1F72370922BCF70C695C69530E2A6
:101C9000C39FE0011124C82BD92B28C18C2F869516
:101CA00086959E0123703327C115D34508F0AFC038
:101CB00090E2899FE001112481E090E002C0880F4A
:101CC000991F2A95E2F7C82BD92BDC680FC1811523
:101CD00029E5920780F4811538E5930708F0ABC039
:101CE000C11586E5D80708F0BAC0CF71DD27DC2F13
:101CF000CC27D062FBC0C1159AE5D90708F4A0C073
:101D0000CE0190568115904208F0A9C08D2F8F7199
:101D10000E94F60FDD27D0628F71D82BE7C0853A7D
:101D2000910509F49FC0863A910509F49EC0C3E865
:101D3000D0E4DCC0883A910509F49AC0893A91054B
:101D400009F499C08A3A910509F498C08B3A910533
:101D500009F497C08C3A910509F496C08B3B910524
:101D600009F495C08C3B910509F494C08D3A910516
:101D700009F493C0803B910509F492C08E3A910515
:101D800009F491C08F3A910509F490C0813B910507
:101D900009F48FC0823B910509F48EC0833B910505
:101DA00009F48DC0843B910509F48CC0853B9105F5
:101DB00009F48BC0863B910509F48AC0873B9105E5
:101DC00009F489C0883B910509F488C0893B9105D5
:101DD00009F487C08A3B910509F086C0CAE2D6E4BF
:101DE00085C00E94CB0DEC0181C0CE019927D3FFA5
:101DF00003C0EC01D86C7AC0EC01D06C77C0DF7006
:101E0000D06A74C0DC2FCC27C16FD06A6FC090E25B
:101E1000899FE001112481E090E002C0880F991FA2
:101E20002A95E2F7C82BD92BDA6860C0DC2FCC27C3
:101E3000C46FD06A5BC0D82FCC27C06FD06A56C0A1
:101E40008C2F8F70806E90E0906A34E0D695C795A5
:101E50003A95E1F7CF709C013C2BE90147C0C0E007
:101E6000D0E044C0C1E8D0E441C0C2E8D0E43EC004
:101E7000C2EED4E43BC0C9EED4E438C0CAEED4E428
:101E800035C0C5EBD4E432C0C6EBD4E42FC0C3EBFD
:101E9000D4E42CC0C4EBD4E429C0C7EBD4E426C0FE
:101EA000CCECD4E423C0CDECD4E420C0C3E8D5E42A
:101EB0001DC0CAE8D5E41AC0C2E9D5E417C0C4E918
:101EC000D5E414C0C1E2D6E411C0C3E2D6E40EC02A
:101ED000C4E2D6E40BC0C5E2D6E408C0C6E2D6E44C
:101EE00005C0C7E2D6E402C0C0E0D4E4CE01DF9171
:101EF000CF9108958238910549F1B0F4813391056D
:101F000009F459C048F48932910509F44FC08A3266
:101F1000910509F455C008958533910509F441C030
:101F20008933910599F00895833E910531F138F494
:101F3000803E910591F0823E9105A9F00895863E7C
:101F4000910501F1873E910539F1089520914002F4
:101F500020FD3BC021FD39C008958091400280FFE3
:101F600034C089E341C08091400282FF32C0809139
:101F7000400284FF2CC080E037C08091400282FD87
:101F800028C0F5CF8091400283FF25C08091400298
:101F900084FDF1CF87EE28C08091400283FD1BC0F5
:101FA000F5CF8091400285FF18C019C08091400292
:101FB00085FF15C012C08091400286FF12C013C079
:101FC0008091400286FF0FC00CC080EE0DC083EEF2
:101FD0000BC082EE09C086EE07C085E305C089E22A
:101FE00003C081E301C08AE290E00895909140022D
:101FF00092FF0DC0282F2871283019F4877F846044
:1020000006C0282F2471243011F48B7F886093FF41
:102010000DC0282F2871283119F4877E846106C0ED
:10202000282F2471243111F48B7E886194FD877EE2
:1020300008950895CF93DF93EC01FB018281811114
:1020400002C081E040C08091C101811125C0C6312C
:10205000DC45B9F70E94191081E08093C1010E940C
:102060002E1E9093C0018093BF011092B401109274
:10207000B6011092B5011092B8011092B7011092FA
:10208000BA011092B9011092BC011092BB011092DA
:10209000BE011092BD0116C08091BF019091C00198
:1020A0000E943A1E8C32914060F68091B401E82F74
:1020B000F0E0EE0FFF1FEB54FE4FD183C0838F5F24
:1020C0008093B40180E0DF91CF910895CF93DF93A7
:1020D000EC018F85811115C081E08F878F810E946F
:1020E000F31C88850E94061D0E94BD1CEA81FB81AD
:1020F0006A897B89CE010696309719F0DF91CF91DE
:102100000994DF91CF9108950F931F93CF93DF939D
:102110008C01FC018085811124C0838194819755B5
:1021200024E1289FE001299FD00D1124CF5FDE4FCD
:10213000EC81FD816A897B89CE010696309709F092
:1021400009958F810E94F91C88850E940C1D0E94B0
:10215000BD1CF8011082178211861092C3011092E3
:10216000C201DF91CF911F910F910895DF92EF92FD
:10217000FF920F931F93CF93DF937C01FB0182812A
:10218000882369F1809151018F3F49F1C7E0D1E087
:1021900000E010E0DD24D39480915101992787FD60
:1021A000909580179107DCF0CE01069728812223B5
:1021B00091F02B813C81E216F30639F42091C201A3
:1021C0003091C301E216F30631F0DF820E946610FF
:1021D000CE010E9484100F5F1F4F6496DDCFDF9108
:1021E000CF911F910F91FF90EF90DF900895FF9294
:1021F0000F931F93CF93DF938C019C0137552F3F93
:10220000310511F008F043C080915101992787FDF5
:1022100090958217930714F42093510184E1829FD3
:10222000E001839FD00D1124CF5FDE4FFB0182813F
:102230008E8792818E81992309F11A8709878F5F92
:102240008E830E942E1E9C878B870E942C1D8F835D
:102250000E94F01CF82E88870E94031D8F29888712
:10226000E881F9816A897B89CE010696309709F069
:1022700009951093C3010093C20109C0882339F066
:102280008F85882321F0CE0106960E94841081E07C
:10229000DF91CF911F910F91FF900895EF92FF92E0
:1022A0000F931F93CF93DF93809151018F3F71F173
:1022B000F12C84E1E82E8F2D90E0209151013327FD
:1022C00027FD3095281739070CF1E89EE001E99EBB
:1022D000D00D1124CF5FDE4F088919890115110532
:1022E00011F406E910E08E81882371F08B859C85BE
:1022F0000E943A1E0817190738F4CE010E94661092
:10230000CE0106960E948410F394D5CFDF91CF9131
:102310001F910F91FF90EF9008959093C9018093C2
:10232000C8010895E091C801F091C901309721F0EA
:102330000190F081E02D099480E00895E091C801BA
:10234000F091C901309721F00280F381E02D0994CA
:102350000895E091C801F091C901309721F00480FF
:10236000F581E02D099408952091C6013091C701AF
:102370008217930771F09093C7018093C601E09193
:10238000C801F091C901309721F00680F781E02D56
:10239000099408952091C4013091C50182179307D3
:1023A00071F09093C5018093C401E091C801F09150
:1023B000C901309721F00084F185E02D099408953A
:1023C0000C94DE0881E008950E94251E0E943107CA
:1023D0000C949B1ECF92DF92EF92FF920F931F936C
:1023E000CF93DF93CDB7DEB72B970FB6F894DEBF50
:1023F0000FBECDBF0E9463080E94E211811111C07F
:102400008FEF89838A831B820E942E1E8160782F22
:102410009D838C8349815A816B818D810E949212A8
:1024200056C03BECE32E31E0F32E00E010E0C02E6E
:10243000802F0E94AE08F701D1907F01D82631F499
:102440000F5F1F4F0A30110591F7DACF90912202EA
:1024500091FF04C08B870E94B4088B8520E030E098
:102460004D2D50E0922FBA01022E02C0759567954E
:102470000A94E2F760FF25C02E83CF82EE24E39416
:10248000F12C02C0EE0CFF1C9A95E2F790E08E2131
:102490009F2121E0892B09F420E028870E942E1E2D
:1024A0008160782F9A8789874E815F8168858A85C8
:1024B0000E949212F801E553FE4F80818E258083A1
:1024C00006C02F5F3F4F2630310561F6B9CF0E941D
:1024D0002D201091CA010E9492111817A1F00E949C
:1024E00092118093CA012B960FB6F894DEBF0FBEEF
:1024F000CDBFDF91CF911F910F91FF90EF90DF90B3
:10250000CF900C94B60D2B960FB6F894DEBF0FBE8D
:10251000CDBFDF91CF911F910F91FF90EF90DF9092
:10252000CF900895CF93DF93CDB7DEB72B970FB63B
:10253000F894DEBF0FBECDBF4F83588769877A8777
:102540008B87DE01119686E0FD0111928A95E9F7ED
:1025500085E0FE01379601900D928A95E1F7498159
:102560005A816B817C818D819E810E94191A2B96E4
:102570000FB6F894DEBF0FBECDBFDF91CF910895A7
:10258000FC01808191810E947D1C0895CF93DF938F
:102590001F92CDB7DEB7682F882309F402C18238B5
:1025A000C1F40E94921181FDFCC069E38091520147
:1025B000909153010E94A61D0E94BD1C2FEF81EE39
:1025C00094E0215080409040E1F700C0000069E3B2
:1025D00019C0833811F50E94921180FDE2C063E5B5
:1025E00080915201909153010E94A61D0E94BD1C32
:1025F000EFEFF1EE24E0E150F0402040E1F700C0C1
:10260000000063E580915201909153010E94A81D42
:102610000F90DF91CF910C94BD1C8438C1F40E94BF
:10262000921182FDBEC067E48091520190915301E6
:102630000E94A61D0E94BD1C8FEF91EEE4E0815028
:102640009040E040E1F700C0000067E4DBCF8CEF92
:10265000860F813A70F4862F69830E94392269813E
:1026600081119FC080915201909153010E94A61D3B
:10267000CFCF80E2860F883048F4677081E001C0D8
:10268000880F6A95EAF70E94F31CC2CF8BE5860F8C
:10269000833088F4653A29F0663A31F482E890E0B4
:1026A00005C081E890E002C083E890E00F90DF91E0
:1026B000CF910C94B41188E5860F853108F071C074
:1026C000683A61F1693A69F16A3A71F16B3A79F104
:1026D0006C3A81F16B3B89F16C3B91F16D3A99F168
:1026E000603BA1F16E3AA9F16F3AB1F1613BB9F1EA
:1026F000623BC1F1633BC9F1643BD1F1653BD9F168
:10270000663BE1F1673BE9F1683BF1F1693BF9F1C7
:102710006A3B09F03FC08AE292E03EC082EE90E060
:102720003BC089EE90E038C08AEE90E035C085EB82
:1027300090E032C086EB90E02FC083EB90E02CC09D
:1027400084EB90E029C087EB90E026C08CEC90E011
:1027500023C08DEC90E020C083E891E01DC08AE8A2
:1027600091E01AC082E991E017C084E991E014C0B9
:1027700081E292E011C083E292E00EC084E292E036
:102780000BC085E292E008C086E292E005C087E2D5
:1027900092E002C080E090E00F90DF91CF910C9426
:1027A000CA110F90DF91CF910895882309F45DC07D
:1027B000823879F40E94921181FF57C069E38091B9
:1027C0005201909153010E94A61D0E94BD1C69E315
:1027D00010C08338B1F40E94921180FF46C063E5B7
:1027E00080915201909153010E94A61D0E94BD1C30
:1027F00063E580915201909153010E94A81D0C94B1
:10280000BD1C843879F40E94921182FF2EC067E4C7
:1028100080915201909153010E94A61D0E94BD1CFF
:1028200067E4E7CF9CEF980F913A10F4682FE1CF5F
:1028300090E2980F983050F4877091E001C0990FA2
:102840008A95EAF7892F0E94F91CD9CF9BE5980F4A
:10285000933020F480E090E00C94B411885A8531D4
:1028600020F480E090E00C94CA110895882321F0B0
:102870000E94F31C0C94BD1C0895882321F00E9433
:10288000F91C0C94BD1C08958F929F92BF92CF9219
:10289000DF92EF92FF920F931F93CF93DF9300D0BD
:1028A000CDB7DEB74C01472FFC01C580C2949FE035
:1028B000C922D280DD2031F079836A830E94131D02
:1028C0006A81498149836A830E94B61C49816A8171
:1028D000882389F0DD2079F080E2860F883058F077
:1028E00082E00E949F1C0E94B61CBB24B394B826B1
:1028F00049816A8101C0B12CE42EE2948FE0E82284
:10290000F12CF701E758FF4F0C94DC29842F807FCE
:10291000142F1F70882311F01295107FDD20C1F055
:10292000112309F4E0C180E2860F883010F06111B4
:1029300005C0812F6A830E94F31C04C0812F6A8323
:102940000E94061D6A816A830E94BD1C6A81CBC1F8
:10295000862F6A830E94D5136A81112309F4E4C18A
:1029600080E2860F883010F0611104C0812F0E9430
:10297000F91C03C0812F0E940C1D0E94BD1CD4C1F4
:10298000842F807F142F1F70803211F01295107FDA
:10299000662319F06130D9F026C0DD2079F0CC2013
:1029A00049F0F1E0CF1206C00E942C1D812B0E943D
:1029B000261DBAC10E942C1D812B4AC1CC2021F0BA
:1029C00021E0C21609F4B0C10E94291D46C1DD20D4
:1029D00029F085E08C1508F4A7C139C194E09C1555
:1029E00008F4A2C13AC1DD2051F0CC2009F42FC176
:1029F000F401858180FF77C18F70858328C1CC2049
:102A000009F42BC181C1242F26952695237030E02F
:102A10002115310521F02130310561F085C1DD201E
:102A200021F0862F942F937002C080E090E00E94E6
:102A3000B4118AC1DD2021F0862F942F937002C03B
:102A400080E090E00E94CA117FC1DD20F9F0653F6F
:102A500051F0663F71F0643FA9F480913A02909181
:102A60003B0281600BC080913A0290913B028260F0
:102A700005C080913A0290913B02846090933B02A2
:102A800080933A02862F0E94351F22C0653F51F085
:102A9000663F91F0643FC9F480913A0290913B0205
:102AA0008E7F05C080913A0290913B028D7F90937A
:102AB0003B0280933A0209C020913A0230913B02D6
:102AC0002B7F30933B0220933A02862F0E949D1F5A
:102AD0000E94222039C1842F837009F04EC0D1108A
:102AE0002FC1262F229526952770220F220F862F81
:102AF0008F70C82ED12CE12CF12C022E04C0CC0CEE
:102B0000DD1CEE1CFF1C0A94D2F764FF10C06FE0BE
:102B100070E080E090E004C0660F771F881F991F67
:102B20002A95D2F7609570958095909503C060E0E6
:102B300070E0CB01242F26952695237030E02230BB
:102B4000310569F02330310589F06C297D298E2902
:102B50009F292130310571F00E946A1BF1C06C2958
:102B60007D298E299F290E947C1BEAC00E946A1B36
:102B7000C701B6010E94581BE3C0DD2019F0842F65
:102B8000817001C08695882309F4DAC0262F22952A
:102B900026952770220F220F862F8F70C82ED12CDA
:102BA000E12CF12C022E04C0CC0CDD1CEE1CFF1C11
:102BB0000A94D2F764FF10C06FE070E080E090E00C
:102BC00004C0660F771F881F991F2A95D2F760955A
:102BD00070958095909503C060E070E0CB01242F44
:102BE00026952695237030E02230310569F0233098
:102BF000310589F06C297D298E299F2921303105E5
:102C000071F00E94181C9CC06C297D298E299F2977
:102C10000E942A1C95C00E94181CC701B6010E9480
:102C2000061C8EC0062F10E0F801E05EF109E531C8
:102C3000F10508F054C0E757FF4F0C94DC29162F1C
:102C40001F70842F8F71DD2031F00E94B11B812F06
:102C50000E94361469C00E94CC1B812F0E943D1433
:102C600063C0DD2049F0F4E0FC1508F45DC0842F5A
:102C70008F710E94EB1B58C025E02C1508F454C03E
:102C8000F6CFDD2039F0842F8F710E94B11B4CC02C
:102C9000DD20C9F3842F8F710E94CC1B45C0DD203D
:102CA00029F0842F8F710E94A21B3EC00E949D1BA1
:102CB0003BC0DD2051F0142F1F71812F0E94B11BEA
:102CC00063E0812F0E94961C2FC081E00E949F1C10
:102CD00081E08C1548F582E00E949F1C25C0DD2014
:102CE00031F0CC2081F2862F0E94C6121DC0CC206C
:102CF00089F2693349F49FEFE7EEF3E09150E04049
:102D0000F040E1F700C00000862F0E94D5130CC0F0
:102D10004F70C4010E94540A0E94C61A15C04F7019
:102D2000C4010E94B80D10C028E0E216F10441F081
:102D30005CF09AE0E91AF108E2E0EE16F10420F402
:102D40000E9492110E94B60DBB20F1F00E94921CCD
:102D500080FD1AC0F40112820E948C1C0E94B11BDB
:102D6000C4010E94D2160E948C1C0F900F90DF911C
:102D7000CF911F910F91FF90EF90DF90CF90BF9078
:102D80009F908F900C94CC1B0F900F90DF91CF9160
:102D90001F910F91FF90EF90DF90CF90BF909F9089
:102DA0008F9008950F931F93CF93DF93EC012881A9
:102DB00039818B819C81892B31F03F3F11F080E07C
:102DC00003C02F3FE1F781E0811113C0CE010E94C3
:102DD000540B882371F0688179818A810E94881C54
:102DE0008C010E943C1C0E94551BB801CE010E9420
:102DF0004414DF91CF911F910F9108950E94131DEC
:102E00000E94231D80915201909153010E94AA1D9E
:102E10000E94BD1C0E94B6200E94222080E090E00B
:102E20000E94B41180E090E00C94CA110E94001D31
:102E30000C94FE160E947D1CE92FE295EF70F0E0E5
:102E40003297EE30F105B8F4E256FF4F0C94DC29CE
:102E5000803F59F018F4803E70F407C0843F59F465
:102E600004C0803E10F0813F31F481E0089593FB6F
:102E7000882780F9089580E00895CF93DF9300D0EC
:102E800000D01F92CDB7DEB70F900F900F900F902C
:102E90000F90DF91CF910895CF93DF9300D000D0B2
:102EA00000D0CDB7DEB726960FB6F894DEBF0FBEC2
:102EB000CDBFDF91CF9108951F93CF93DF93C09142
:102EC000D50116E08091D601C81799F0D0E01C9F7B
:102ED000F0011D9FF00D1124E952FE4F40815181F8
:102EE00062817381848195810E944C172196C770FD
:102EF000E9CFDF91CF911F91089540910702509142
:102F000008026091090270910A0280910B0290916F
:102F10000C020C944C172091D5019091D60156E0EB
:102F20002917A9F030E0529FF001539FF00D1124B2
:102F3000E952FE4F7181671306C07081871303C089
:102F40007281471306C02F5F3F4F2770E9CF80E0A3
:102F5000089581E00895CF9380910C0282958F703F
:102F600009F05FC080910902882309F45AC02091BA
:102F7000D501A091D601609107027091080280915D
:102F80000A0290910B0231E06F3F09F030E0B32F5D
:102F9000C6E02A1709F445C0009721F07F3F21F4CD
:102FA0004B2F03C041E001C040E030E040FD35C0A0
:102FB000C29FF001C39FF00D1124E952FE4F4181E1
:102FC00074132BC04081641328C04281411125C075
:102FD000438154814817590710F441505109481B47
:102FE000590B46395105C8F480910C028F708061ED
:102FF00080930C0286E0829FF001839FF00D1124E4
:10300000E452FE4F80818F708061808387E092E080
:103010000E94D216CF910C945C172F5F3F4F277000
:10302000B8CFCF910895BF92CF92DF92EF92FF92E7
:103030000F931F93CF93DF93CDB7DEB762970FB691
:10304000F894DEBF0FBECDBF8C0185E0F801DE0134
:103050001D9601900D928A95E1F7D801CC901196BA
:103060005C9111971296BC9012971396ED90FC907C
:103070001497809107029091080220910A023091E2
:103080000B022115310531F09F3F31F441E08F3FB4
:1030900019F403C041E001C040E040FD9CC1D09064
:1030A0000902DD2009F424C140910C02E216F30666
:1030B00028F0F701E21BF30B9F0104C02095309527
:1030C0002E0D3F1D2639310508F0C5C0242F207F65
:1030D00009F087C0951315C08C1113C0DB2CB110FB
:1030E00010C04F70406140930C020E947D1787E032
:1030F00092E00E94D21680910C02D80115968C9312
:1031000087C1E114F10439F05F3F39F481E0BFEF8A
:10311000CB1203C003C081E001C080E080FD03C08A
:1031200081E08B2501C080E080FF09C04B2D652F19
:103130008C2D5A8B0E948B175A89811197C0EF28CA
:1031400039F05F3F39F481E0BFEFCB1203C003C019
:1031500081E001C080E080FD03C081E08B2501C0DB
:1031600080E0E82FE170FE2E80FF31C04B2D652FEF
:103170008C2D5A8B0E948B17D82E5A89811127C00B
:10318000CD865E878D859E850E947D1C292F229588
:103190002F7030E02230310524F02430310534F036
:1031A00011C09F7059F0811109C032C19F7031F078
:1031B000D80115969C91907F09F42AC1805E8830D1
:1031C00008F426C1C8010E94D216DF2C21C1DB2CD5
:1031D000BB2009F41DC180910C02816080930C0218
:1031E00052C0951307C08C1105C0B11003C0F8017F
:1031F0004583ABC0CD865E878D859E850E941A175C
:10320000882319F1DB2CBB2001F120910C02822FC5
:1032100082958F7090E002970CF461C08091070254
:103220009091080298878F831986FB86EA862C87FF
:10323000CE01079652C0951741F1CD865E878D85E8
:103240009E850E941A17811131C0C8010E94D216B2
:10325000DD24D394DDC0242F207F69F77E2DF98AE9
:10326000E88A4C2D6B2D89890E943D1787E092E0FA
:103270000E94D216E7E0F2E086E0DF011D928A9517
:10328000E9F70E947D17D12CC3C08C11D6CFB110A5
:10329000D4CFF8014583C8010E94D216E7E0F2E0DE
:1032A00086E0DF011D928A95E9F7B2C0DB2CBB20D6
:1032B00061F220910C02822F82958F7090E002972C
:1032C00074F080910702909108029A8389831B828F
:1032D000FD82EC822E83CE0101960E94D21686E0FA
:1032E000F801A7E0B2E001900D928A95E1F78CC059
:1032F000E216F30628F0F701E21BF30B9F0104C06E
:10330000209530952E0D3F1D2639310508F053C00C
:10331000DB2CBB2009F499CF95132CC08C112AC04B
:1033200080910C0280FD1DC0982F92959F70C9F06E
:10333000D80115968C9315979F3039F09F5F929521
:10334000907F8F70892B15968C93C8010E94D2169E
:1033500086E0F801A7E0B2E001900D928A95E1F7CE
:1033600055C086E0F801A7E0B2E001900D928A9581
:10337000E1F74EC0CD865E878D859E850E941A1727
:10338000882381F096E0F801A7E0B2E001900D9269
:103390009A95E1F78A8B0E94AB170E947D178A8964
:1033A000D82E36C080910C02816080930C02C80137
:1033B0000E94D2162DC07E2DF98AE88A4C2D6B2DE5
:1033C00089890E943D17E7E0F2E086E0DF011D9267
:1033D0008A95E9F71BC0BB2009F437CFCD865E87FD
:1033E0008D859E850E941A17D82E882309F42DCF2B
:1033F00086E0F801A7E0B2E001900D928A95E1F72E
:1034000087E092E00E94C0120E94AB170E947D17D5
:103410008D2D62960FB6F894DEBF0FBECDBFDF9143
:10342000CF911F910F91FF90EF90DF90CF90BF90C1
:1034300008951F93CF93DF93CDB7DEB72C970FB6C8
:10344000F894DEBF0FBECDBF4F83588769877A8758
:103450008B879C87CE0107960E9413188823C1F0A2
:103460002F8138858A859B85892B31F03F3F11F06C
:1034700080E003C02F3FE1F781E0811147C04F8119
:10348000588569857A858B859C850E944C173EC03E
:1034900086E0FE013796DE01119601900D928A9525
:1034A000E1F7FF81E8854A855B854115510531F0DB
:1034B000EF3F31F481E0FF3F19F403C081E001C028
:1034C00080E080FD23C02091D60130E0C901019643
:1034D000877099276091D50170E086179707F1F101
:1034E000F983EA835D834C8396E0929FD001939F9A
:1034F000B00D1124A952BE4FFE01319601900D92DC
:103500009A95E1F78093D6010E945C1716E08091AE
:10351000D5019091D601891779F1189FC001112426
:1035200089529E4F0E941318882331F1E091D501F2
:103530001E9FF0011124E952FE4F408151816281AA
:103540007381848195810E944C178091D50190E010
:103550000196877099278093D501D9CF0E941617BD
:103560001092D6011092D501E7E0F2E086E0DF018B
:103570001D928A95E9F7CACF2C960FB6F894DEBF54
:103580000FBECDBFDF91CF911F910895EF92FF92B3
:103590000F931F93CF93DF939C01009709F471C0A1
:1035A000F12CEE24E394E9012196F901849184370A
:1035B00040F4843008F056C0813081F0823021F12F
:1035C00060C0853709F449C0C0F19CE7980F903777
:1035D00008F057C08F770E94D51346C089010E5F4F
:1035E0001F4FFE01849190E2980F983050F487703D
:1035F000FE2D01C0FF0F8A95EAF78F2F0E94161D3E
:1036000015C00E94C61214C089010E5F1F4FFE0133
:10361000849190E2980F983068F48770FE2D01C075
:10362000FF0F8A95EAF78F2F0E941C1D0E94BD1C78
:10363000E8011AC00E94D513FBCF2E5F3F4FFE0159
:10364000C491CC2341F08FE99FE00197F1F700C0CE
:103650000000C150F6CFE90107C0FE01F490E90176
:10366000229602C00E94C6128F2D882341F0EFE9F6
:10367000FFE03197F1F700C000008150F6CF9E01C6
:1036800092CFDF91CF911F910F91FF90EF9008950E
:1036900008950E94481B6093110270931202809358
:1036A0001302909314020C94FE1608950C94491B77
:1036B0000F931F9300911102109112022091130297
:1036C00030911402602B712B822B932B1F910F9141
:1036D0000C94491B0F931F93009111021091120239
:1036E00020911302309114026023712382239323CB
:1036F0001F910F910C94491B0F931F93009111027E
:103700001091120220911302309114026027712748
:10371000822793271F910F910C94491B08950C94B5
:103720008E1B0E948F1B60930D0270930E0280937C
:103730000F02909310020C94FE1660E070E0CB0133
:103740000C94911B41E050E060E070E004C0440F35
:10375000551F661F771F8A95D2F7CB01BA010C94CB
:10376000911B41E050E060E070E004C0440F551F41
:10377000661F771F8A95D2F780910D0290910E02F5
:10378000A0910F02B0911002482B592B6A2B7B2B72
:10379000CB01BA010C94911B41E050E060E070E075
:1037A00004C0440F551F661F771F8A95D2F74095B6
:1037B00050956095709580910D0290910E02A091A8
:1037C0000F02B0911002482359236A237B23CB01B7
:1037D000BA010C94911B41E050E060E070E004C03D
:1037E000440F551F661F771F8A95D2F780910D02EF
:1037F00090910E02A0910F02B09110024827592714
:103800006A277B27CB01BA010C94911B0F931F935E
:1038100000910D0210910E0220910F0230911002C2
:10382000602B712B822B932B1F910F910C94911B6A
:103830000F931F9300910D0210910E0220910F0221
:103840003091100260237123822393231F910F91E3
:103850000C94911B0F931F9300910D0210910E0277
:1038600020910F0230911002602771278227932741
:103870001F910F910C94911B0895CF92DF92EF92BC
:10388000FF920F931F93CF93DF93EC01C09011022F
:10389000D0901202E0901302F090140280910D0279
:1038A00090910E02A0910F02B0911002C82AD92A5D
:1038B000EA2AFB2A0FE110E0B701A601002E04C09E
:1038C00076956795579547950A94D2F740FD05C0C0
:1038D0000150110988F780E007C0BE01802F0E94C7
:1038E000D30D0197A9F3802FDF91CF911F910F91F5
:1038F000FF90EF90DF90CF900895CF93DF93EC018E
:103900000E943D1CBE010E94D30DDF91CF9108950E
:10391000CB010E947D1C08958091150285958595A7
:1039200085950895809115028770089598E0899F84
:1039300090011124622B609315020C94B11B4091ED
:1039400015028095842380931502982F977069F44F
:1039500050E0282F332727FD30954217530729F0D1
:103960008595859585950C94CC1B089590911502AD
:10397000977081E009F480E00895E0915201F091A0
:103980005301809121028083E0915201F091530113
:10399000808190912002892B8083E0915201F091E7
:1039A0005301808190911F02892B80839091160290
:1039B000992381F0E0915201F09153018081892B8C
:1039C000808380915201909153010E946A1D811160
:1039D0001092160280915201909153010C949E1105
:1039E00080912102089590912102982B90932102B9
:1039F0000895809590912102982390932102089533
:103A00001092210208958091200208959091200241
:103A1000982B9093200208958095909120029823EE
:103A200090932002089510922002089590911F0211
:103A3000982B90931F020895809590911F029823D0
:103A400090931F02089510921F020895809316020A
:103A500008951092160208958091160208956DEE51
:103A60007EEF80E090E00E94162A60E082E090E025
:103A70000E94042A60E083E090E00E94042A60E053
:103A800084E090E00E94042A60E085E090E00C94DD
:103A9000042A80E090E00E94FE2921E08D3E9E4FA6
:103AA00009F020E0822F089582E090E00C94F6293E
:103AB00083E090E00C94F629682F83E090E00C946A
:103AC000042A84E090E00C94F629682F84E090E0CA
:103AD0000C94042A20E030E040E0FC01E20FF31FE8
:103AE000518151114F5F2F5F3F4F27303105A9F7AB
:103AF000842F089520E030E04FEFFC01E20FF31F28
:103B00005281561799F04F3F19F4511101C0422FBD
:103B10002F5F3F4F2630310581F74F3F39F0FC01D1
:103B2000E40FF11D47FDFA9562830895089520E0A2
:103B300030E0FC01E20FF31F4281461301C0128204
:103B40002F5F3F4F26303105A1F708950C947A1D61
:103B50000C94971D20E030E0FC01E20FF31F11826E
:103B60002F5F3F4F27303105B9F708958091460206
:103B7000843021F11092230220E488E190E00FB616
:103B8000F894A895809360000FBE2093600080E0B9
:103B90000E94B60D83B7817F846083BF83B7816045
:103BA00083BF7894889583B78E7F83BF88E10FB6F3
:103BB000F89480936000109260000FBE08950895FD
:103BC0000895CF930E94DF1D0E9463080E94E01DAC
:103BD000C0E08C2F0E94AE08811105C0CF5FCA30B3
:103BE000C1F780E001C081E0CF9108950E941617CF
:103BF0000E9492110C94B60D1F920F920FB60F9265
:103C000011248F939F93AF93BF93809123028111CF
:103C100013C080913C0290913D02A0913E02B09170
:103C20003F024196A11DB11D80933C0290933D023D
:103C3000A0933E02B0933F02BF91AF919F918F91AD
:103C40000F900FBE0F901F90189582E084BD93E0F7
:103C500095BD9AEF97BD80936E0008952FB7F894A5
:103C600080913C0290913D02A0913E02B0913F02B2
:103C70002FBF0895CF92DF92EF92FF920F931F9381
:103C80002FB7F89440913C0250913D0260913E0262
:103C900070913F022FBF6A017B01EE24FF248C014B
:103CA00020E030E0C016D106E206F30610F44150E1
:103CB0005109481B590BCA011F910F91FF90EF90BA
:103CC000DF90CF90089578941F920F920FB60F92C5
:103CD00011248F939F93AF93BF9380913C02909157
:103CE0003D02A0913E02B0913F020196A11DB11D7F
:103CF00080933C0290933D02A0933E02B0933F021A
:103D0000BF91AF919F918F910F900FBE0F901F9019
:103D1000189587E797E790930108809300082AE0B9
:103D200088E190E00FB6F894A895809360000FBEEC
:103D300020936000FFCF0E94491D811102C00E94A4
:103D40002F1D0E94541D809322020E94611D90E04D
:103D500090934102809340020E94581D682F70E0AA
:103D600080E090E00C94561B8091260280FF0BC0EF
:103D70006091570185E0689FB001112475956795A2
:103D8000759567952AC081FF09C06091570185E04C
:103D9000689FB0011124759567951FC082FF07C009
:103DA0006091570185E0689FB001112416C04091D1
:103DB00027024423C9F060915601461788F72091E5
:103DC000570185E0289F90011124429FC001439F25
:103DD000900D112470E00E94C8296038710540F4EC
:103DE0006115710539F002C065E070E0862F089515
:103DF0008FE7089581E008958091260280FF08C032
:103E00006091550170E0759567957595679521C02E
:103E100081FF06C06091550170E07595679519C0E6
:103E200082FF04C06091550170E010C080912702AC
:103E30008823C1F0609154018617A0F79091550135
:103E4000989FC001112470E00E94C8296038710554
:103E500028F46115710521F0862F08958FE70895E4
:103E600081E0089561E070E0F4CF803F21F40E948A
:103E7000B41E819504C0813F29F40E94B41E809332
:103E80002A020895823F21F40E94B41E819504C045
:103E9000833F29F40E94B41E809329020895893F2C
:103EA00019F40E94FC1E05C08A3F31F40E94FC1EDA
:103EB000819580932B0208958B3F21F40E94FC1E74
:103EC000819504C08C3F29F40E94FC1E80932C0233
:103ED0000895843F21F480912802816017C0853FB6
:103EE00021F480912802826011C0863F21F48091E4
:103EF000280284600BC0873F21F4809128028860EB
:103F000005C0883F31F480912802806180932802A7
:103F100008958D3F21F48091260281600BC08E3F71
:103F200021F480912602826005C08F3F29F48091A0
:103F300026028460809326020895803F39F48091A0
:103F40002A0287FF6CC010922A0269C0813F29F4BF
:103F500080912A021816BCF362C090912902823F18
:103F600029F497FF5CC01092290259C0833F19F4CD
:103F70001916CCF354C0893F41F480912B021816D6
:103F80000CF04DC010922B024AC08A3F29F4809158
:103F90002B0287FF44C0F6CF8B3F39F480912C026F
:103FA00087FF3DC010922C023AC08C3F29F48091CB
:103FB0002C021816BCF333C0843F21F480912802F0
:103FC0008E7F17C0853F21F4809128028D7F11C01C
:103FD000863F21F4809128028B7F0BC0873F21F41C
:103FE00080912802877F05C0883F31F480912802A4
:103FF0008F7E8093280213C08D3F21F4809126028A
:104000008E7F0BC08E3F21F4809126028D7F05C0EC
:104010008F3F29F4809126028B7F80932602809126
:10402000290281110EC080912A0281110AC080915B
:104030002B02811106C080912C02811102C01092C6
:104040002702089588E292E00E94A9110E942E1E84
:10405000909325028093240208951F93CF93DF93BA
:1040600080912402909125020E943A1E40912702DD
:10407000442321F02091580130E006C020915901DD
:104080005AE0259F900111248217930708F46AC013
:104090008091290210912A02D0912B02C0912C020A
:1040A000811107C0111105C0D11103C0CC2309F43F
:1040B00059C04F3F19F04F5F40932702181624F460
:1040C0000E94B41E809329028091290287FF05C0B7
:1040D0000E94B41E819580932902111624F40E9437
:1040E000B41E80932A0280912A0287FF05C00E9495
:1040F000B41E819580932A0220912902222379F00F
:1041000040912A02442359F055EB250390011124D4
:10411000309329024503C001112490932A021D16F1
:1041200024F40E94FC1E80932B0280912B0287FFB7
:1041300005C00E94FC1E819580932B021C1624F45E
:104140000E94FC1E80932C0280912C0287FF05C0E8
:104150000E94FC1E819580932C02DF91CF911F91CC
:104160000C942220DF91CF911F910895E8E2F2E0B4
:1041700085E0DF011D928A95E9F7109227021092DF
:1041800026020895833081F128F4813059F082307D
:10419000D1F00895853009F449C0B8F1863009F4AA
:1041A00056C0089520915901862F90E0820F911DED
:1041B0008F3F910520F4620F6093590108958FEFAE
:1041C00080935901089520915801862F90E0820F25
:1041D000911D8F3F910520F4620F6093580108955F
:1041E0008FEF80935801089520915701862F90E01A
:1041F000820F911D8F3F910520F4620F609357014C
:1042000008958FEF80935701089520915601862FCE
:1042100090E0820F911D8F3F910520F4620F609313
:10422000560108958FEF809356010895209155010E
:10423000862F90E0820F911D8F3F910520F4620F31
:104240006093550108958FEF809355010895209153
:104250005401862F90E0820F911D8F3F910520F42D
:10426000620F6093540108958FEF80935401089575
:10427000833011F128F4813049F0823091F00895B3
:10428000853081F120F18630C1F108958091590186
:10429000681720F4861B80935901089510925901E4
:1042A000089580915801681720F4861B8093580167
:1042B000089510925801089580915701681720F4CD
:1042C000861B80935701089510925701089580919D
:1042D0005601681720F4861B8093560108951092AA
:1042E0005601089580915501681720F4861B80932C
:1042F0005501089510925501089580915401681751
:1043000020F4861B8093540108951092540108955F
:104310008732F8F48E3108F085C08E3009F465C01C
:1043200048F4873009F447C08B3009F491C08630D7
:1043300051F127C0863109F48BC020F4803109F493
:104340005EC01FC0893109F483C08B3109F443C0BA
:1043500018C0883309F47CC050F4893209F470C065
:10436000853309F46DC0873209F46AC00AC083340A
:1043700009F466C020F48A3308F052C002C08834C1
:1043800061F080E0089580912202817F8E7F80938A
:10439000220281E080932E0208950E9416172FEFCB
:1043A00083ED90E3215080409040E1F700C0000091
:1043B0000E94891E4DC090912202892F80958170A4
:1043C00080FB90F990932202811142C0997F977FE0
:1043D000909322023DC09091220291FB882780F9A0
:1043E00021E0822780FB91F913C09091220292FB79
:1043F000882780F921E0822780FB92F909C09091FB
:10440000220293FB882780F921E0822780FB93F921
:10441000909322028823E1F0916090932202089504
:1044200027EC01C023EE280F61E070E080E090E00F
:1044300004C0660F771F881F991F2A95D2F704C002
:1044400061E070E080E090E00E94561B0E94161729
:1044500081E0089580E0089580E008958E518A30CB
:1044600030F4E82FF0E0EB58FE4F8081089580E0B3
:104470000895CF93C82F80912E02813069F018F0F3
:104480008230B1F180C0E0915201F09153018081FE
:10449000823209F07AC007C0E0915201F0915301D5
:1044A0008081823249F48C2F0E942A2281111DC002
:1044B0008C2F0E9488211AC08C2F0E942C228111DF
:1044C00014C0C43179F048F4CB3079F0C03109F030
:1044D00060C082E080932E0208C0C93219F0C83350
:1044E00021F057C010922E0254C081E0817053C059
:1044F000C93289F118F5C43171F1B0F4C73009F04F
:1045000046C08EE18093590182E3809358018AE08E
:104510008093570184E18093560188E08093550190
:1045200088E28093540133C082EE8C0F863078F598
:104530008C2F0E942E2280932D0229C0CE34E9F0C8
:1045400020F4CB3421F56AE013C0C13579F0C235CF
:10455000F1F461E00DC080912D02882319F01092D2
:104560002D0215C081E080932E0215C061E006C0C7
:1045700080912D020E94C2200AC06AE080912D0223
:104580000E94382104C010922E0280E004C081E015
:1045900002C080E0ABCFCF9108958091370208959B
:1045A0000F931F93CF93DF9300D01F92CDB7DEB749
:1045B0008C010E941C25823011F0843019F583E0B3
:1045C00089831B830A838093E9008FEF9091E80031
:1045D000815095FD06C095ED9A95F1F70000811187
:1045E000F5CF8091E80085FF0DC040E050E063E02A
:1045F00070E0CE0101960E9439258091E8008E7707
:104600008093E8000F900F900F90DF91CF911F9152
:104610000F910895CF93DF9300D01F92CDB7DEB7EF
:1046200020914602243031F522E0298380589109F7
:104630009B838A8383E08093E9008FEF9091E80069
:10464000815095FD06C095ED9A95F1F70000811116
:10465000F5CF8091E80085FF0DC040E050E063E0B9
:1046600070E0CE0101960E9439258091E8008E7796
:104670008093E8000F900F900F90DF91CF910895F5
:10468000CF93DF93EC010E941C25823011F084301F
:10469000F9F482E08093E9008FEF9091E800815077
:1046A00095FD06C095ED9A95F1F700008111F5CFC3
:1046B0008091E80085FF0CC040E050E065E070E0CC
:1046C000CE010E9439258091E8008E778093E80022
:1046D000DF91CF910895CF93DF93EC010E941C25C9
:1046E000823011F0843039F581E08093E9008FEF5A
:1046F0009091E800815095FD06C095ED9A95F1F7EF
:1047000000008111F5CF8091E80085FF14C040E0E2
:1047100050E068E070E0CE010E9439258091E80009
:104720008E778093E80088E0FE01AFE2B2E001906E
:104730000D928A95E1F7DF91CF910895809145021E
:10474000811109C00E94CB260E9428278091E20097
:1047500084608093E20008951092450208950895C0
:1047600008950C94F61D42E061EC81E00E9445261C
:1047700042E061EC82E00E94452642E061EC83E089
:104780000C94452680914802833009F453C030F4DC
:10479000813071F0823009F48CC008958A3009F4B8
:1047A00078C08B3009F45EC0893009F09AC020C00F
:1047B00080914702813A09F094C08091E800877F98
:1047C0008093E80080914B0290914C02892B21F05C
:1047D00060E080E090E003C068E08FE292E070E08B
:1047E0000E9482258091E8008B778093E8000895ED
:1047F00080914702813209F074C080914B02909100
:104800004C02892B09F06DC08091E800877F80936E
:10481000E8008091E80082FD05C080914602811188
:10482000F8CF5FC08091F100809337028091E8005B
:104830008B7753C080914702813A09F052C0809132
:104840004B0290914C02892B09F04BC08091E800FB
:10485000877F8093E8008091E80080FFFCCF809103
:10486000640136C0809147028132D9F580914B02B4
:1048700090914C02892BA9F58091E800877F809365
:10488000E8000E947A2680914902809364010C948A
:10489000161780914702813221F58091E800877FC9
:1048A0008093E8000E947A2680914A028093380221
:1048B000089580914702813AA1F48091E800877FB2
:1048C0008093E8008091E80080FFFCCF809138025F
:1048D0008093F1008091E8008E778093E8000C943B
:1048E0007A26089584B7877F84BF88E10FB6F8944D
:1048F00080936000109260000FBE80E8809361009A
:10490000109261000E94E0110E94CB260E9428278D
:104910008091E20084608093E20078940E94AB2949
:104920000E94E4118AE591E00E948D118091460277
:10493000853069F40E94B61D809144028823B1F34A
:104940000E94E11D882391F30E942325EFCF0E944E
:10495000EA11ECCF0C94AC24292F332723303105F6
:10496000A9F06CF42130310509F448C0223031053A
:1049700009F049C084E590E029EA3CE048C02132D2
:104980003105F9F02232310549F13DC099278130D6
:10499000910571F02CF4892BB1F5E5EAFCE00DC02E
:1049A0008230910541F0039771F5E3E7FCE005C023
:1049B000EDE8FCE002C0E9E7FCE0849190E09F01B3
:1049C00026C063307105F8F4FB01EE0FFF1FE857B6
:1049D000FE4F2081318189E090E019C0633071057C
:1049E00090F4FB01EE0FFF1FEE57FE4F2081318147
:1049F000FB01E158FE4F808190E009C082E190E028
:104A00002DEF3CE004C080E090E020E030E0FA01CF
:104A10003183208308950895CF93C82F0E940B25DA
:104A2000C0933902CF91089580914602843011F4E9
:104A300082E0089581E0089580913902811102C0D9
:104A40000C941425089580E189BD82E189BD09B4E3
:104A500000FEFDCF8091D8008F7D8093D80080919B
:104A6000E00082608093E0008091E00081FDFCCF57
:104A70000895CF92DF92EF92FF920F931F93CF93FF
:104A8000DF937C018B01EA010E949B26811131C0DA
:104A9000209731F088819981081B190BE80EF91EC7
:104AA000C12CD12C0115110519F18091E80085FD6B
:104AB00014C08091E8008E778093E800209741F041
:104AC000888199818C0D9D1D9983888385E011C013
:104AD0000E949B26882331F30CC0F70181917F014E
:104AE0008093F10001501109FFEFCF1ADF0ADACFEE
:104AF00080E0DF91CF911F910F91FF90EF90DF90B9
:104B0000CF90089520914D0230914E02261737071D
:104B100048F06115710539F42091E8002E77209353
:104B2000E80001C0B901FC0120E061157105B9F18F
:104B300080914602882309F440C0853009F43FC0C3
:104B40008091E80083FD3DC08091E80082FF06C0AF
:104B50008091E80082FF26C080E008958091E800FF
:104B600080FFE3CF2091F3008091F20090E0922B40
:104B70006115710551F08830910538F42191209329
:104B8000F100615071090196F3CF21E0089709F017
:104B900020E08091E8008E778093E800C6CF211155
:104BA000C7CFD6CF80914602882339F0853039F0BF
:104BB0008091E80083FFCCCF04C082E0089583E0B9
:104BC000089581E0089520914D0230914E022617FC
:104BD000370748F06115710539F42091E8002E7708
:104BE0002093E80001C0B901FC0120E061157105C6
:104BF000C1F180914602882309F441C0853009F44F
:104C000040C08091E80083FD3EC08091E80082FFB3
:104C100006C08091E80082FF27C080E0089580915F
:104C2000E80080FFE3CF2091F3008091F20090E054
:104C3000922B6115710559F08830910540F424914B
:104C40002093F1003196615071090196F2CF21E075
:104C5000089709F020E08091E8008E778093E800C3
:104C6000C5CF2111C6CFD5CF80914602882339F018
:104C7000853039F08091E80083FFCBCF04C082E01B
:104C8000089583E0089581E00895982F973058F5AE
:104C90009093E900981739F07091EC002091ED00A5
:104CA0005091F00003C0242F762F50E021FF19C04F
:104CB0003091EB003E7F3093EB003091ED003D7F73
:104CC0003093ED003091EB0031603093EB00709346
:104CD000EC002093ED005093F0002091EE0027FFB0
:104CE00007C09F5FD3CF8F708093E90081E0089564
:104CF00080E008958091470287FD05C08091E8001B
:104D000080FF0EC012C08091E80082FD05C0809136
:104D100046028111F8CF08958091E8008B7708C092
:104D2000809146028111EACF08958091E8008E7744
:104D30008093E80008958091E4009091E50045E6B5
:104D40002091EC0020FF21C02091E80020FD21C02F
:104D500020914602222389F0253089F02091EB0032
:104D600025FD0FC02091E4003091E5002817390798
:104D700039F3415041F0C901E3CF82E0089583E067
:104D8000089581E0089584E008952091E80022FFCD
:104D9000DFCF80E008950E9439270E944127E0EE8E
:104DA000F0E0808181608083E8EDF0E080818F77A2
:104DB000808319BCA7EDB0E08C918E7F8C938081AD
:104DC0008F7E80831092450208950F931F93CF9397
:104DD000DF930E9439270E944127C8EDD0E08881E7
:104DE0008F77888388818068888388818F7D888396
:104DF00019BC109246021092420210924402109284
:104E0000430200EE10E0F80180818B7F808388816F
:104E10008160888342E060E080E00E944526E1EE08
:104E2000F0E080818E7F8083E2EEF0E0808181601F
:104E30008083808188608083F80180818E7F808379
:104E4000888180618883DF91CF911F910F910895B0
:104E5000E8EDF0E080818F7E8083E7EDF0E08081F7
:104E60008160808384E082BF81E0809345020C945E
:104E7000E526E8EDF0E080818E7F80831092E200ED
:104E800008951092DA001092E10008951F920F9297
:104E90000FB60F9211242F933F934F935F936F930D
:104EA0007F938F939F93AF93BF93EF93FF938091E3
:104EB000E10082FF0BC08091E20082FF07C0809179
:104EC000E1008B7F8093E1000E94AA298091DA00A3
:104ED00080FF1FC08091D80080FF1BC08091DA0046
:104EE0008E7F8093DA008091D90080FF0DC080E131
:104EF00089BD82E189BD09B400FEFDCF81E08093C8
:104F000046020E949E2305C019BC109246020E94D0
:104F1000AC238091E10080FF19C08091E20080FF06
:104F200015C08091E2008E7F8093E2008091E200C4
:104F300080618093E2008091D80080628093D800E5
:104F400019BC85E0809346020E94B0238091E10065
:104F500084FF30C08091E20084FF2CC080E189BDD5
:104F600082E189BD09B400FEFDCF8091D8008F7D1C
:104F70008093D8008091E1008F7E8093E100809142
:104F8000E2008F7E8093E2008091E2008160809356
:104F9000E20080914202882311F084E007C08091F2
:104FA000E30087FF02C083E001C081E080934602F6
:104FB0000E94B1238091E10083FF29C08091E2002B
:104FC00083FF25C08091E100877F8093E10082E02C
:104FD00080934602109242028091E1008E7F80937E
:104FE000E1008091E2008E7F8093E2008091E200F8
:104FF00080618093E20042E060E080E00E9445260C
:105000008091F00088608093F0000E94AF23FF91B0
:10501000EF91BF91AF919F918F917F916F915F9130
:105020004F913F912F910F900FBE0F901F901895A9
:105030001F920F920FB60F9211242F933F934F930D
:105040005F936F937F938F939F93AF93BF93CF9310
:10505000EF93FF93C091E900CF708091EC00109224
:10506000E9008091F000877F8093F00078940E949F
:1050700054281092E9008091F00088608093F0003D
:10508000C093E900FF91EF91CF91BF91AF919F91B4
:105090008F917F916F915F914F913F912F910F90E1
:1050A0000FBE0F901F9018951F93CF93DF93CDB72E
:1050B000DEB7AA970FB6F894DEBF0FBECDBFE7E408
:1050C000F2E08091F100819322E0EF34F207C9F71A
:1050D0000E94C2238091E80083FF24C120914702EF
:1050E00030914802832F90E08A30910508F01AC170
:1050F000FC01E455FF4F0C94DC29203821F02238C4
:1051000009F010C108C08091430290914402992394
:1051100089F082600FC080914B028F70873008F059
:1051200001C18093E9008091EB0085FB882780F91D
:105130001092E9009091E800977F9093E8008093A7
:10514000F1001092F100CCC0822F8D7F09F0EAC0EF
:10515000222319F0223061F0E5C0809149028130AC
:1051600009F0E0C0333009F080E0809344022AC0A7
:1051700080914902811126C020914B022F708FEF40
:10518000820F863008F0CEC02093E9008091EB00BA
:1051900080FF18C08091EB00333011F4806210C0A2
:1051A00080618093EB0081E090E001C0880F2A9538
:1051B000EAF78093EA001092EA008091EB008860A1
:1051C0008093EB001092E9008091E800877F809344
:1051D000E8000E947A26A6C02111A4C010914902BD
:1051E0001F778091E3008078812B8093E30080918A
:1051F000E800877F8093E8000E947A268091E8008B
:1052000080FFFCCF8091E30080688093E30011234E
:1052100011F083E001C082E08093460283C02058F1
:10522000223008F07FC08091490290914A028C3D63
:1052300023E0920779F583E08A838AE289834FB776
:10524000F894DE01139620E03EE051E2E32FF0E017
:1052500050935700E49120FF03C0E295EF703F5F49
:10526000EF708E2F90E0EA3010F0C79601C0C09624
:105270008D939D932F5F243149F74FBF8091E800B4
:10528000877F8093E8006AE270E0CE0101960E9479
:10529000822515C060914B0270914C02AE014F5FA8
:1052A0005F4F0E94AA240097E9F12091E800277F30
:1052B0002093E800BC0189819A810E94E3258091B6
:1052C000E8008B778093E8002DC0203859F5809155
:1052D000E800877F8093E800809142028093F1008C
:1052E0008091E8008E7773CF21111CC09091490204
:1052F0009230C0F48091E800877F8093E80090931B
:1053000042020E947A2680914202811104C080915B
:10531000E30087FF02C084E001C081E08093460281
:105320000E94B3238091E80083FF0AC08091E800C7
:10533000877F8093E8008091EB0080628093EB0090
:10534000AA960FB6F894DEBF0FBECDBFDF91CF9106
:105350001F9108950895CF93809146028823B1F05C
:105360008091E9008F709091EC0090FF02C090E86E
:1053700001C090E0C92FC82B1092E9008091E8008D
:1053800083FD0E945428CF70C093E900CF91089507
:1053900097FB072E16F4009407D077FD09D00E94E2
:1053A000E22907FC05D03EF4909581959F4F089522
:1053B000709561957F4F0895EE0FFF1F0590F49152
:1053C000E02D0994AA1BBB1B51E107C0AA1FBB1FFC
:1053D000A617B70710F0A61BB70B881F991F5A9581
:1053E000A9F780959095BC01CD010895F999FECF5C
:1053F00092BD81BDF89A992780B50895A8E1B0E0E3
:1054000042E050E00C941E2A262FF999FECF92BD5F
:1054100081BDF89A019700B4021639F01FBA20BD79
:105420000FB6F894FA9AF99A0FBE08950196272FAD
:105430000E94052A0C94042ADC01CB01FC01F99995
:10544000FECF06C0F2BDE1BDF89A319600B40D92D0
:0C54500041505040B8F70895F894FFCF89
:10545C000100000B0A00000000000000000000002A
:10546C00000000000000001B0A000000000000000B
:10547C000000000000000000000000390A000000DD
:10548C000000000000000000000000000000002BE5
:10549C000A000000000000000000000000000000F6
:1054AC0000FF17022808140A321ECD226B2340235A
:1054BC000A23D022013534C697669436323331F73D
:1054CC000000000000010203040506070809004063
:0E54DC004D36920D450D0F0DBB0CD40CED0C92
:00000001FF
